{
  "_format": "hh-sol-artifact-1",
  "contractName": "ControlDeployer",
  "sourceName": "contracts/utils/ControlDeployer.sol",
  "abi": [
    {
      "inputs": [],
      "stateMutability": "nonpayable",
      "type": "constructor"
    },
    {
      "anonymous": false,
      "inputs": [
        {
          "indexed": true,
          "internalType": "address",
          "name": "registry",
          "type": "address"
        },
        {
          "indexed": true,
          "internalType": "address",
          "name": "deployer",
          "type": "address"
        },
        {
          "indexed": true,
          "internalType": "address",
          "name": "control",
          "type": "address"
        }
      ],
      "name": "DeployedControl",
      "type": "event"
    },
    {
      "anonymous": false,
      "inputs": [
        {
          "indexed": true,
          "internalType": "bytes32",
          "name": "role",
          "type": "bytes32"
        },
        {
          "indexed": true,
          "internalType": "bytes32",
          "name": "previousAdminRole",
          "type": "bytes32"
        },
        {
          "indexed": true,
          "internalType": "bytes32",
          "name": "newAdminRole",
          "type": "bytes32"
        }
      ],
      "name": "RoleAdminChanged",
      "type": "event"
    },
    {
      "anonymous": false,
      "inputs": [
        {
          "indexed": true,
          "internalType": "bytes32",
          "name": "role",
          "type": "bytes32"
        },
        {
          "indexed": true,
          "internalType": "address",
          "name": "account",
          "type": "address"
        },
        {
          "indexed": true,
          "internalType": "address",
          "name": "sender",
          "type": "address"
        }
      ],
      "name": "RoleGranted",
      "type": "event"
    },
    {
      "anonymous": false,
      "inputs": [
        {
          "indexed": true,
          "internalType": "bytes32",
          "name": "role",
          "type": "bytes32"
        },
        {
          "indexed": true,
          "internalType": "address",
          "name": "account",
          "type": "address"
        },
        {
          "indexed": true,
          "internalType": "address",
          "name": "sender",
          "type": "address"
        }
      ],
      "name": "RoleRevoked",
      "type": "event"
    },
    {
      "inputs": [],
      "name": "DEFAULT_ADMIN_ROLE",
      "outputs": [
        {
          "internalType": "bytes32",
          "name": "",
          "type": "bytes32"
        }
      ],
      "stateMutability": "view",
      "type": "function"
    },
    {
      "inputs": [],
      "name": "REGISTRY_ROLE",
      "outputs": [
        {
          "internalType": "bytes32",
          "name": "",
          "type": "bytes32"
        }
      ],
      "stateMutability": "view",
      "type": "function"
    },
    {
      "inputs": [
        {
          "internalType": "uint256",
          "name": "nonce",
          "type": "uint256"
        },
        {
          "internalType": "address",
          "name": "deployer",
          "type": "address"
        },
        {
          "internalType": "string",
          "name": "uri",
          "type": "string"
        }
      ],
      "name": "deployControl",
      "outputs": [
        {
          "internalType": "address",
          "name": "control",
          "type": "address"
        }
      ],
      "stateMutability": "nonpayable",
      "type": "function"
    },
    {
      "inputs": [
        {
          "internalType": "bytes32",
          "name": "role",
          "type": "bytes32"
        }
      ],
      "name": "getRoleAdmin",
      "outputs": [
        {
          "internalType": "bytes32",
          "name": "",
          "type": "bytes32"
        }
      ],
      "stateMutability": "view",
      "type": "function"
    },
    {
      "inputs": [
        {
          "internalType": "bytes32",
          "name": "role",
          "type": "bytes32"
        },
        {
          "internalType": "address",
          "name": "account",
          "type": "address"
        }
      ],
      "name": "grantRole",
      "outputs": [],
      "stateMutability": "nonpayable",
      "type": "function"
    },
    {
      "inputs": [
        {
          "internalType": "bytes32",
          "name": "role",
          "type": "bytes32"
        },
        {
          "internalType": "address",
          "name": "account",
          "type": "address"
        }
      ],
      "name": "hasRole",
      "outputs": [
        {
          "internalType": "bool",
          "name": "",
          "type": "bool"
        }
      ],
      "stateMutability": "view",
      "type": "function"
    },
    {
      "inputs": [],
      "name": "implementation",
      "outputs": [
        {
          "internalType": "contract ProtocolControl",
          "name": "",
          "type": "address"
        }
      ],
      "stateMutability": "view",
      "type": "function"
    },
    {
      "inputs": [
        {
          "internalType": "bytes32",
          "name": "role",
          "type": "bytes32"
        },
        {
          "internalType": "address",
          "name": "account",
          "type": "address"
        }
      ],
      "name": "renounceRole",
      "outputs": [],
      "stateMutability": "nonpayable",
      "type": "function"
    },
    {
      "inputs": [
        {
          "internalType": "bytes32",
          "name": "role",
          "type": "bytes32"
        },
        {
          "internalType": "address",
          "name": "account",
          "type": "address"
        }
      ],
      "name": "revokeRole",
      "outputs": [],
      "stateMutability": "nonpayable",
      "type": "function"
    },
    {
      "inputs": [
        {
          "internalType": "bytes4",
          "name": "interfaceId",
          "type": "bytes4"
        }
      ],
      "name": "supportsInterface",
      "outputs": [
        {
          "internalType": "bool",
          "name": "",
          "type": "bool"
        }
      ],
      "stateMutability": "view",
      "type": "function"
    }
  ],
  "bytecode": "0x60a060405234801561001057600080fd5b5060405161001d90610170565b604051809103906000f080158015610039573d6000803e3d6000fd5b5060601b7fffffffffffffffffffffffffffffffffffffffff0000000000000000000000001660805261006d600033610072565b61017e565b61007c8282610080565b5050565b60008281526020818152604080832073ffffffffffffffffffffffffffffffffffffffff8516845290915290205460ff1661007c5760008281526020818152604080832073ffffffffffffffffffffffffffffffffffffffff85168452909152902080547fffffffffffffffffffffffffffffffffffffffffffffffffffffffffffffff001660011790556101123390565b73ffffffffffffffffffffffffffffffffffffffff168173ffffffffffffffffffffffffffffffffffffffff16837f2f8788117e7eff1d82e926ec794901d17c78024a50270940304540a733656f0d60405160405180910390a45050565b61376e806200117f83390190565b60805160601c610fdb620001a46000396000818161017001526104a50152610fdb6000f3fe608060405234801561001057600080fd5b50600436106100be5760003560e01c80635c60da1b11610076578063a217fddf1161005b578063a217fddf146101ca578063ca282cb3146101d2578063d547741f146101e5576100be565b80635c60da1b1461016b57806391d14854146101b7576100be565b80632f2ff15d116100a75780632f2ff15d1461011c57806336568abe1461013157806342f1e87914610144576100be565b806301ffc9a7146100c3578063248a9ca3146100eb575b600080fd5b6100d66100d1366004610c49565b6101f8565b60405190151581526020015b60405180910390f35b61010e6100f9366004610c06565b60009081526020819052604090206001015490565b6040519081526020016100e2565b61012f61012a366004610c1e565b610293565b005b61012f61013f366004610c1e565b6102bf565b61010e7fc2979137d1774e40fe2638d355bf7a7b092be4c67f242aad1655e1e27f9df9cc81565b6101927f000000000000000000000000000000000000000000000000000000000000000081565b60405173ffffffffffffffffffffffffffffffffffffffff90911681526020016100e2565b6100d66101c5366004610c1e565b610377565b61010e600081565b6101926101e0366004610c89565b6103af565b61012f6101f3366004610c1e565b6105cf565b60007fffffffff0000000000000000000000000000000000000000000000000000000082167f7965db0b00000000000000000000000000000000000000000000000000000000148061028b57507f01ffc9a7000000000000000000000000000000000000000000000000000000007fffffffff000000000000000000000000000000000000000000000000000000008316145b90505b919050565b6000828152602081905260409020600101546102b081335b6105f5565b6102ba838361069e565b505050565b73ffffffffffffffffffffffffffffffffffffffff81163314610369576040517f08c379a000000000000000000000000000000000000000000000000000000000815260206004820152602f60248201527f416363657373436f6e74726f6c3a2063616e206f6e6c792072656e6f756e636560448201527f20726f6c657320666f722073656c66000000000000000000000000000000000060648201526084015b60405180910390fd5b6103738282610767565b5050565b60008281526020818152604080832073ffffffffffffffffffffffffffffffffffffffff8516845290915290205460ff165b92915050565b6000336103dc7fc2979137d1774e40fe2638d355bf7a7b092be4c67f242aad1655e1e27f9df9cc82610377565b610442576040517f08c379a000000000000000000000000000000000000000000000000000000000815260206004820152601060248201527f696e76616c6964207265676973747279000000000000000000000000000000006044820152606401610360565b6040517fffffffffffffffffffffffffffffffffffffffff000000000000000000000000606083811b8216602084015286901b166034820152604881018690526000906068016040516020818303038152906040528051906020012090506104ca7f0000000000000000000000000000000000000000000000000000000000000000826107f7565b6040517f4571e3a600000000000000000000000000000000000000000000000000000000815290935073ffffffffffffffffffffffffffffffffffffffff841690634571e3a69061052390859089908990600401610e38565b600060405180830381600087803b15801561053d57600080fd5b505af1158015610551573d6000803e3d6000fd5b505050508273ffffffffffffffffffffffffffffffffffffffff168573ffffffffffffffffffffffffffffffffffffffff168373ffffffffffffffffffffffffffffffffffffffff167f42b7c3bcb4f81bdee60d3f586a6843ee1571f21e8bf0480af04e2c6418465b4760405160405180910390a450509392505050565b6000828152602081905260409020600101546105eb81336102ab565b6102ba8383610767565b6105ff8282610377565b610373576106248173ffffffffffffffffffffffffffffffffffffffff1660146108d5565b61062f8360206108d5565b604051602001610640929190610db7565b604080517fffffffffffffffffffffffffffffffffffffffffffffffffffffffffffffffe0818403018152908290527f08c379a000000000000000000000000000000000000000000000000000000000825261036091600401610e7a565b6106a88282610377565b6103735760008281526020818152604080832073ffffffffffffffffffffffffffffffffffffffff85168452909152902080547fffffffffffffffffffffffffffffffffffffffffffffffffffffffffffffff001660011790556107093390565b73ffffffffffffffffffffffffffffffffffffffff168173ffffffffffffffffffffffffffffffffffffffff16837f2f8788117e7eff1d82e926ec794901d17c78024a50270940304540a733656f0d60405160405180910390a45050565b6107718282610377565b156103735760008281526020818152604080832073ffffffffffffffffffffffffffffffffffffffff8516808552925280832080547fffffffffffffffffffffffffffffffffffffffffffffffffffffffffffffff0016905551339285917ff6391f5c32d9c69d2a47ea670b442974b53935d1edc7fd64eb21e047a839171b9190a45050565b60006040517f3d602d80600a3d3981f3363d3d373d3d3d363d7300000000000000000000000081528360601b60148201527f5af43d82803e903d91602b57fd5bf300000000000000000000000000000000006028820152826037826000f591505073ffffffffffffffffffffffffffffffffffffffff81166103a9576040517f08c379a000000000000000000000000000000000000000000000000000000000815260206004820152601760248201527f455243313136373a2063726561746532206661696c65640000000000000000006044820152606401610360565b606060006108e4836002610ea5565b6108ef906002610e8d565b67ffffffffffffffff81111561092e577f4e487b7100000000000000000000000000000000000000000000000000000000600052604160045260246000fd5b6040519080825280601f01601f191660200182016040528015610958576020820181803683370190505b5090507f3000000000000000000000000000000000000000000000000000000000000000816000815181106109b6577f4e487b7100000000000000000000000000000000000000000000000000000000600052603260045260246000fd5b60200101907effffffffffffffffffffffffffffffffffffffffffffffffffffffffffffff1916908160001a9053507f780000000000000000000000000000000000000000000000000000000000000081600181518110610a40577f4e487b7100000000000000000000000000000000000000000000000000000000600052603260045260246000fd5b60200101907effffffffffffffffffffffffffffffffffffffffffffffffffffffffffffff1916908160001a9053506000610a7c846002610ea5565b610a87906001610e8d565b90505b6001811115610b72577f303132333435363738396162636465660000000000000000000000000000000085600f1660108110610aef577f4e487b7100000000000000000000000000000000000000000000000000000000600052603260045260246000fd5b1a60f81b828281518110610b2c577f4e487b7100000000000000000000000000000000000000000000000000000000600052603260045260246000fd5b60200101907effffffffffffffffffffffffffffffffffffffffffffffffffffffffffffff1916908160001a90535060049490941c93610b6b81610f12565b9050610a8a565b508315610bdb576040517f08c379a000000000000000000000000000000000000000000000000000000000815260206004820181905260248201527f537472696e67733a20686578206c656e67746820696e73756666696369656e746044820152606401610360565b9392505050565b803573ffffffffffffffffffffffffffffffffffffffff8116811461028e57600080fd5b600060208284031215610c17578081fd5b5035919050565b60008060408385031215610c30578081fd5b82359150610c4060208401610be2565b90509250929050565b600060208284031215610c5a578081fd5b81357fffffffff0000000000000000000000000000000000000000000000000000000081168114610bdb578182fd5b600080600060608486031215610c9d578081fd5b83359250610cad60208501610be2565b9150604084013567ffffffffffffffff80821115610cc9578283fd5b818601915086601f830112610cdc578283fd5b813581811115610cee57610cee610f76565b604051601f82017fffffffffffffffffffffffffffffffffffffffffffffffffffffffffffffffe0908116603f01168101908382118183101715610d3457610d34610f76565b81604052828152896020848701011115610d4c578586fd5b82602086016020830137856020848301015280955050505050509250925092565b60008151808452610d85816020860160208601610ee2565b601f017fffffffffffffffffffffffffffffffffffffffffffffffffffffffffffffffe0169290920160200192915050565b60007f416363657373436f6e74726f6c3a206163636f756e742000000000000000000082528351610def816017850160208801610ee2565b7f206973206d697373696e6720726f6c65200000000000000000000000000000006017918401918201528351610e2c816028840160208801610ee2565b01602801949350505050565b600073ffffffffffffffffffffffffffffffffffffffff808616835280851660208401525060606040830152610e716060830184610d6d565b95945050505050565b600060208252610bdb6020830184610d6d565b60008219821115610ea057610ea0610f47565b500190565b6000817fffffffffffffffffffffffffffffffffffffffffffffffffffffffffffffffff0483118215151615610edd57610edd610f47565b500290565b60005b83811015610efd578181015183820152602001610ee5565b83811115610f0c576000848401525b50505050565b600081610f2157610f21610f47565b507fffffffffffffffffffffffffffffffffffffffffffffffffffffffffffffffff0190565b7f4e487b7100000000000000000000000000000000000000000000000000000000600052601160045260246000fd5b7f4e487b7100000000000000000000000000000000000000000000000000000000600052604160045260246000fdfea2646970667358221220d12b5d4cb62cd3d340d7758f683a56493ac7b9f1db210e4d2c1aec7851ac204d64736f6c6343000803003360806040523480156200001157600080fd5b50600254610100900460ff166200002f5760025460ff161562000039565b6200003962000141565b620000ca576040517f08c379a000000000000000000000000000000000000000000000000000000000815260206004820152602e60248201527f496e697469616c697a61626c653a20636f6e747261637420697320616c72656160448201527f647920696e697469616c697a6564000000000000000000000000000000000000606482015260840160405180910390fd5b600254610100900460ff161580156200010a57600280547fffffffffffffffffffffffffffffffffffffffffffffffffffffffffffff0000166101011790555b80156200013a57600280547fffffffffffffffffffffffffffffffffffffffffffffffffffffffffffff00ff1690555b5062000165565b600062000159306200015f60201b62001f911760201c565b15905090565b3b151590565b6135f980620001756000396000f3fe6080604052600436106101c55760003560e01c806391d14854116100f7578063b0b6cc1a11610095578063d547741f11610064578063d547741f14610640578063e8a3d48514610660578063f2aab4b314610675578063fd967f471461069557610204565b8063b0b6cc1a1461059d578063b9998a24146105e0578063c097b1fb14610600578063ca15c8731461062057610204565b8063a0042526116100d1578063a004252614610519578063a217fddf1461052e578063ac9650d814610543578063aca841751461057057610204565b806391d1485414610488578063938e3d7b146104d957806396362d32146104f957610204565b80633b98a7df116101645780634d8188851161013e5780634d818885146103c557806354fd4d50146103e55780637b1039991461043b5780639010d07c1461046857610204565b80633b98a7df146103585780633fff7bf8146103785780634571e3a6146103a557610204565b8063248a9ca3116101a0578063248a9ca3146102b25780632f2ff15d146102f057806331f7d9641461031057806336568abe1461033857610204565b80620fa9fb1461020957806301ffc9a71461022b57806305e9ca9b1461026057610204565b3661020457604080513381523460208201527f1e57e3bb474320be3d2c77138f75b7c3941292d647f5f9634e33a8e94e0e069b910160405180910390a1005b600080fd5b34801561021557600080fd5b50610229610224366004612e45565b6106ab565b005b34801561023757600080fd5b5061024b610246366004613096565b610e91565b60405190151581526020015b60405180910390f35b34801561026c57600080fd5b5060075461028d9073ffffffffffffffffffffffffffffffffffffffff1681565b60405173ffffffffffffffffffffffffffffffffffffffff9091168152602001610257565b3480156102be57600080fd5b506102e26102cd366004613039565b60009081526020819052604090206001015490565b604051908152602001610257565b3480156102fc57600080fd5b5061022961030b366004613051565b610eef565b34801561031c57600080fd5b5061028d73eeeeeeeeeeeeeeeeeeeeeeeeeeeeeeeeeeeeeeee81565b34801561034457600080fd5b50610229610353366004613051565b610f1b565b34801561036457600080fd5b50610229610373366004612e0d565b610fce565b34801561038457600080fd5b506102e2610393366004613039565b60046020526000908152604090205481565b3480156103b157600080fd5b506102296103c0366004612e8f565b61119f565b3480156103d157600080fd5b506102296103e0366004612e7d565b61132b565b3480156103f157600080fd5b5061042e6040518060400160405280600181526020017f310000000000000000000000000000000000000000000000000000000000000081525081565b6040516102579190613309565b34801561044757600080fd5b5060065461028d9073ffffffffffffffffffffffffffffffffffffffff1681565b34801561047457600080fd5b5061028d610483366004613075565b61150c565b34801561049457600080fd5b5061024b6104a3366004613051565b60009182526020828152604080842073ffffffffffffffffffffffffffffffffffffffff93909316845291905290205460ff1690565b3480156104e557600080fd5b506102296104f43660046130d6565b61152d565b34801561050557600080fd5b506102e2610514366004612f7e565b6115f7565b34801561052557600080fd5b5061028d61178d565b34801561053a57600080fd5b506102e2600081565b34801561054f57600080fd5b5061056361055e366004612fa9565b611872565b604051610257919061328a565b34801561057c57600080fd5b5061059061058b366004613039565b6119dc565b6040516102579190613230565b3480156105a957600080fd5b5061028d6105b8366004613039565b60036020526000908152604090205473ffffffffffffffffffffffffffffffffffffffff1681565b3480156105ec57600080fd5b506102296105fb366004612e0d565b611b53565b34801561060c57600080fd5b5061022961061b366004613051565b611c8a565b34801561062c57600080fd5b506102e261063b366004613039565b611e77565b34801561064c57600080fd5b5061022961065b366004613051565b611e8e565b34801561066c57600080fd5b5061042e611eb4565b34801561068157600080fd5b5061028d610690366004612e0d565b611f42565b3480156106a157600080fd5b506102e261271081565b3360009081527fad3228b676f7d3cd4284a5443f17f1962b36e491b30a40b2405849e597ba5fb5602052604090205460ff1661076e576040517f08c379a000000000000000000000000000000000000000000000000000000000815260206004820152603d60248201527f50726f746f636f6c436f6e74726f6c3a204f6e6c792070726f746f636f6c206160448201527f646d696e732063616e2063616c6c20746869732066756e6374696f6e2e00000060648201526084015b60405180910390fd5b600654604080517f61d027b3000000000000000000000000000000000000000000000000000000008152905173ffffffffffffffffffffffffffffffffffffffff90921691839160009184916361d027b3916004808301926020929190829003018186803b1580156107df57600080fd5b505afa1580156107f3573d6000803e3d6000fd5b505050506040513d601f19601f820116820180604052508101906108179190612e29565b905060008061082584611f97565b90508015610835574791506108d5565b6040517f70a0823100000000000000000000000000000000000000000000000000000000815230600482015273ffffffffffffffffffffffffffffffffffffffff8516906370a082319060240160206040518083038186803b15801561089a57600080fd5b505afa1580156108ae573d6000803e3d6000fd5b505050506040513d601f19601f820116820180604052508101906108d29190613131565b91505b6040517f73c6f3780000000000000000000000000000000000000000000000000000000081523060048201526000906127109073ffffffffffffffffffffffffffffffffffffffff8816906373c6f3789060240160206040518083038186803b15801561094157600080fd5b505afa158015610955573d6000803e3d6000fd5b505050506040513d601f19601f820116820180604052508101906109799190613131565b61098390856133d7565b61098d919061339e565b90506109998184613414565b925060008215610bcd5760405173ffffffffffffffffffffffffffffffffffffffff8a16908590600081818185875af1925050503d80600081146109f9576040519150601f19603f3d011682016040523d82523d6000602084013e6109fe565b606091505b50508091505080610a6b576040517f08c379a000000000000000000000000000000000000000000000000000000000815260206004820152601860248201527f6661696c656420746f2077697468647261772066756e647300000000000000006044820152606401610765565b60405173ffffffffffffffffffffffffffffffffffffffff8616908390600081818185875af1925050503d8060008114610ac1576040519150601f19603f3d011682016040523d82523d6000602084013e610ac6565b606091505b50508091505080610b58576040517f08c379a0000000000000000000000000000000000000000000000000000000008152602060048201526024808201527f6661696c656420746f2077697468647261772066756e647320746f207265676960448201527f73747279000000000000000000000000000000000000000000000000000000006064820152608401610765565b8773ffffffffffffffffffffffffffffffffffffffff168973ffffffffffffffffffffffffffffffffffffffff167f080a49aa43b33f2f3fe14496cbedde2305f0cc484e98afb78e943cf9881adc8a8685604051610bc0929190918252602082015260400190565b60405180910390a3610e86565b6040517fa9059cbb00000000000000000000000000000000000000000000000000000000815273ffffffffffffffffffffffffffffffffffffffff8a811660048301526024820186905287169063a9059cbb90604401602060405180830381600087803b158015610c3d57600080fd5b505af1158015610c51573d6000803e3d6000fd5b505050506040513d601f19601f82011682018060405250810190610c759190613019565b905080610cde576040517f08c379a000000000000000000000000000000000000000000000000000000000815260206004820152601a60248201527f6661696c656420746f207472616e73666572207061796d656e740000000000006044820152606401610765565b6040517fa9059cbb00000000000000000000000000000000000000000000000000000000815273ffffffffffffffffffffffffffffffffffffffff86811660048301526024820184905287169063a9059cbb90604401602060405180830381600087803b158015610d4e57600080fd5b505af1158015610d62573d6000803e3d6000fd5b505050506040513d601f19601f82011682018060405250810190610d869190613019565b905080610e15576040517f08c379a000000000000000000000000000000000000000000000000000000000815260206004820152602660248201527f6661696c656420746f207472616e73666572207061796d656e7420746f20726560448201527f67697374727900000000000000000000000000000000000000000000000000006064820152608401610765565b8773ffffffffffffffffffffffffffffffffffffffff168973ffffffffffffffffffffffffffffffffffffffff167f080a49aa43b33f2f3fe14496cbedde2305f0cc484e98afb78e943cf9881adc8a8685604051610e7d929190918252602082015260400190565b60405180910390a35b505050505050505050565b60007fffffffff0000000000000000000000000000000000000000000000000000000082167f5a05180f000000000000000000000000000000000000000000000000000000001480610ee75750610ee782611fe7565b90505b919050565b600082815260208190526040902060010154610f0c81335b61207e565b610f16838361214e565b505050565b73ffffffffffffffffffffffffffffffffffffffff81163314610fc0576040517f08c379a000000000000000000000000000000000000000000000000000000000815260206004820152602f60248201527f416363657373436f6e74726f6c3a2063616e206f6e6c792072656e6f756e636560448201527f20726f6c657320666f722073656c6600000000000000000000000000000000006064820152608401610765565b610fca8282612170565b5050565b3360009081527fad3228b676f7d3cd4284a5443f17f1962b36e491b30a40b2405849e597ba5fb5602052604090205460ff1661108c576040517f08c379a000000000000000000000000000000000000000000000000000000000815260206004820152603d60248201527f50726f746f636f6c436f6e74726f6c3a204f6e6c792070726f746f636f6c206160448201527f646d696e732063616e2063616c6c20746869732066756e6374696f6e2e0000006064820152608401610765565b61109581612192565b611121576040517f08c379a000000000000000000000000000000000000000000000000000000000815260206004820152602960248201527f50726f746f636f6c436f6e74726f6c3a2070726f76696465722073686172657360448201527f20746f6f206c6f772e00000000000000000000000000000000000000000000006064820152608401610765565b600780547fffffffffffffffffffffffff00000000000000000000000000000000000000001673ffffffffffffffffffffffffffffffffffffffff831690811790915560405190815260009030907f55a6d5ecee94ad7f72b42efa05adae50807422b98f5c511cf7f0a0205b65b7519060200160405180910390a350565b600254610100900460ff166111ba5760025460ff16156111be565b303b155b61124a576040517f08c379a000000000000000000000000000000000000000000000000000000000815260206004820152602e60248201527f496e697469616c697a61626c653a20636f6e747261637420697320616c72656160448201527f647920696e697469616c697a65640000000000000000000000000000000000006064820152608401610765565b600254610100900460ff1615801561128957600280547fffffffffffffffffffffffffffffffffffffffffffffffffffffffffffff0000166101011790555b815161129c906009906020850190612ce2565b506006805473ffffffffffffffffffffffffffffffffffffffff86167fffffffffffffffffffffffff00000000000000000000000000000000000000009182161790915560078054909116301790556112f660008461243d565b801561132557600280547fffffffffffffffffffffffffffffffffffffffffffffffffffffffffffff00ff1690555b50505050565b3360009081527fad3228b676f7d3cd4284a5443f17f1962b36e491b30a40b2405849e597ba5fb5602052604090205460ff166113e9576040517f08c379a000000000000000000000000000000000000000000000000000000000815260206004820152603d60248201527f50726f746f636f6c436f6e74726f6c3a204f6e6c792070726f746f636f6c206160448201527f646d696e732063616e2063616c6c20746869732066756e6374696f6e2e0000006064820152608401610765565b6113f281612192565b61147e576040517f08c379a000000000000000000000000000000000000000000000000000000000815260206004820152602960248201527f50726f746f636f6c436f6e74726f6c3a2070726f76696465722073686172657360448201527f20746f6f206c6f772e00000000000000000000000000000000000000000000006064820152608401610765565b73ffffffffffffffffffffffffffffffffffffffff82811660008181526005602090815260409182902080547fffffffffffffffffffffffff00000000000000000000000000000000000000001694861694851790559051928352909130917f55a6d5ecee94ad7f72b42efa05adae50807422b98f5c511cf7f0a0205b65b751910160405180910390a35050565b60008281526001602052604081206115249083612447565b90505b92915050565b3360009081527fad3228b676f7d3cd4284a5443f17f1962b36e491b30a40b2405849e597ba5fb5602052604090205460ff166115eb576040517f08c379a000000000000000000000000000000000000000000000000000000000815260206004820152603d60248201527f50726f746f636f6c436f6e74726f6c3a204f6e6c792070726f746f636f6c206160448201527f646d696e732063616e2063616c6c20746869732066756e6374696f6e2e0000006064820152608401610765565b610f1660098383612d66565b3360009081527fad3228b676f7d3cd4284a5443f17f1962b36e491b30a40b2405849e597ba5fb5602052604081205460ff166116b5576040517f08c379a000000000000000000000000000000000000000000000000000000000815260206004820152603d60248201527f50726f746f636f6c436f6e74726f6c3a204f6e6c792070726f746f636f6c206160448201527f646d696e732063616e2063616c6c20746869732066756e6374696f6e2e0000006064820152608401610765565b506000818152600460208181526040808420805482518085018290528084018890528351808203850181526060909101909352825192840192909220868652939092529192600192611708908490613386565b909155505060008181526003602052604080822080547fffffffffffffffffffffffff00000000000000000000000000000000000000001673ffffffffffffffffffffffffffffffffffffffff87169081179091559051909183917ff0d0fe9ecd941ad0096a6b95e0998ddcd76ba6a240a106fef284fc2d4f0caa419190a392915050565b60085460009073ffffffffffffffffffffffffffffffffffffffff1661185457600660009054906101000a900473ffffffffffffffffffffffffffffffffffffffff1673ffffffffffffffffffffffffffffffffffffffff1663f645d4f96040518163ffffffff1660e01b815260040160206040518083038186803b15801561181557600080fd5b505afa158015611829573d6000803e3d6000fd5b505050506040513d601f19601f8201168201806040525081019061184d9190612e29565b905061186f565b5060085473ffffffffffffffffffffffffffffffffffffffff165b90565b60608167ffffffffffffffff8111156118b4577f4e487b7100000000000000000000000000000000000000000000000000000000600052604160045260246000fd5b6040519080825280602002602001820160405280156118e757816020015b60608152602001906001900390816118d25790505b50905060005b828110156119d55761197e30858584818110611932577f4e487b7100000000000000000000000000000000000000000000000000000000600052603260045260246000fd5b9050602002810190611944919061331c565b8080601f01602080910402602001604051908101604052809392919081815260200183838082843760009201919091525061245392505050565b8282815181106119b7577f4e487b7100000000000000000000000000000000000000000000000000000000600052603260045260246000fd5b602002602001018190525080806119cd906134e0565b9150506118ed565b5092915050565b6000818152600460205260409020546060908067ffffffffffffffff811115611a2e577f4e487b7100000000000000000000000000000000000000000000000000000000600052604160045260246000fd5b604051908082528060200260200182016040528015611a57578160200160208202803683370190505b50915060005b81811015611b4c576040805160208101839052908101859052600090606001604080517fffffffffffffffffffffffffffffffffffffffffffffffffffffffffffffffe0818403018152918152815160209283012060008181526003909352912054855191925073ffffffffffffffffffffffffffffffffffffffff1690859084908110611b14577f4e487b7100000000000000000000000000000000000000000000000000000000600052603260045260246000fd5b73ffffffffffffffffffffffffffffffffffffffff9092166020928302919091019091015250611b45600182613386565b9050611a5d565b5050919050565b3360009081527fad3228b676f7d3cd4284a5443f17f1962b36e491b30a40b2405849e597ba5fb5602052604090205460ff16611c11576040517f08c379a000000000000000000000000000000000000000000000000000000000815260206004820152603d60248201527f50726f746f636f6c436f6e74726f6c3a204f6e6c792070726f746f636f6c206160448201527f646d696e732063616e2063616c6c20746869732066756e6374696f6e2e0000006064820152608401610765565b600880547fffffffffffffffffffffffff00000000000000000000000000000000000000001673ffffffffffffffffffffffffffffffffffffffff83169081179091556040519081527f9d90a82ec1d038d4e13317a0eb136f9c65b7ed42156fc204ec4b7c4731e739509060200160405180910390a150565b3360009081527fad3228b676f7d3cd4284a5443f17f1962b36e491b30a40b2405849e597ba5fb5602052604090205460ff16611d48576040517f08c379a000000000000000000000000000000000000000000000000000000000815260206004820152603d60248201527f50726f746f636f6c436f6e74726f6c3a204f6e6c792070726f746f636f6c206160448201527f646d696e732063616e2063616c6c20746869732066756e6374696f6e2e0000006064820152608401610765565b60008281526003602052604090205473ffffffffffffffffffffffffffffffffffffffff16611df9576040517f08c379a000000000000000000000000000000000000000000000000000000000815260206004820152603660248201527f50726f746f636f6c436f6e74726f6c3a2061206d6f64756c652077697468207460448201527f68697320494420646f6573206e6f742065786973742e000000000000000000006064820152608401610765565b60008281526003602052604080822080547fffffffffffffffffffffffff00000000000000000000000000000000000000001673ffffffffffffffffffffffffffffffffffffffff85169081179091559051909184917ff0d0fe9ecd941ad0096a6b95e0998ddcd76ba6a240a106fef284fc2d4f0caa419190a35050565b6000818152600160205260408120610ee790612478565b600082815260208190526040902060010154611eaa8133610f07565b610f168383612170565b60098054611ec19061348c565b80601f0160208091040260200160405190810160405280929190818152602001828054611eed9061348c565b8015611f3a5780601f10611f0f57610100808354040283529160200191611f3a565b820191906000526020600020905b815481529060010190602001808311611f1d57829003601f168201915b505050505081565b73ffffffffffffffffffffffffffffffffffffffff80821660009081526005602052604081205490911680610ee757505060075473ffffffffffffffffffffffffffffffffffffffff16610eea565b3b151590565b600073ffffffffffffffffffffffffffffffffffffffff821673eeeeeeeeeeeeeeeeeeeeeeeeeeeeeeeeeeeeeeee1480610ee757505073ffffffffffffffffffffffffffffffffffffffff161590565b60007fffffffff0000000000000000000000000000000000000000000000000000000082167f7965db0b000000000000000000000000000000000000000000000000000000001480610ee757507f01ffc9a7000000000000000000000000000000000000000000000000000000007fffffffff00000000000000000000000000000000000000000000000000000000831614610ee7565b60008281526020818152604080832073ffffffffffffffffffffffffffffffffffffffff8516845290915290205460ff16610fca576120d48173ffffffffffffffffffffffffffffffffffffffff166014612482565b6120df836020612482565b6040516020016120f09291906131af565b604080517fffffffffffffffffffffffffffffffffffffffffffffffffffffffffffffffe0818403018152908290527f08c379a000000000000000000000000000000000000000000000000000000000825261076591600401613309565b6121588282612788565b6000828152600160205260409020610f169082612878565b61217a828261289a565b6000828152600160205260409020610f169082612951565b600654604080517f61d027b30000000000000000000000000000000000000000000000000000000081529051600092849273ffffffffffffffffffffffffffffffffffffffff91821692859285169163ce7c2ac29185916361d027b3916004808301926020929190829003018186803b15801561220e57600080fd5b505afa158015612222573d6000803e3d6000fd5b505050506040513d601f19601f820116820180604052508101906122469190612e29565b6040517fffffffff0000000000000000000000000000000000000000000000000000000060e084901b16815273ffffffffffffffffffffffffffffffffffffffff909116600482015260240160206040518083038186803b1580156122aa57600080fd5b505afa1580156122be573d6000803e3d6000fd5b505050506040513d601f19601f820116820180604052508101906122e29190613131565b905060008373ffffffffffffffffffffffffffffffffffffffff16633a98ef396040518163ffffffff1660e01b815260040160206040518083038186803b15801561232c57600080fd5b505afa158015612340573d6000803e3d6000fd5b505050506040513d601f19601f820116820180604052508101906123649190613131565b9050600081612375612710856133d7565b61237f919061339e565b6040517f73c6f378000000000000000000000000000000000000000000000000000000008152306004820152909150600a90819073ffffffffffffffffffffffffffffffffffffffff8716906373c6f3789060240160206040518083038186803b1580156123ec57600080fd5b505afa158015612400573d6000803e3d6000fd5b505050506040513d601f19601f820116820180604052508101906124249190613131565b61242e9190613414565b90911015979650505050505050565b610fca828261214e565b60006115248383612973565b6060611524838360405180606001604052806027815260200161359d602791396129c4565b6000610ee7825490565b606060006124918360026133d7565b61249c906002613386565b67ffffffffffffffff8111156124db577f4e487b7100000000000000000000000000000000000000000000000000000000600052604160045260246000fd5b6040519080825280601f01601f191660200182016040528015612505576020820181803683370190505b5090507f300000000000000000000000000000000000000000000000000000000000000081600081518110612563577f4e487b7100000000000000000000000000000000000000000000000000000000600052603260045260246000fd5b60200101907effffffffffffffffffffffffffffffffffffffffffffffffffffffffffffff1916908160001a9053507f7800000000000000000000000000000000000000000000000000000000000000816001815181106125ed577f4e487b7100000000000000000000000000000000000000000000000000000000600052603260045260246000fd5b60200101907effffffffffffffffffffffffffffffffffffffffffffffffffffffffffffff1916908160001a90535060006126298460026133d7565b612634906001613386565b90505b600181111561271f577f303132333435363738396162636465660000000000000000000000000000000085600f166010811061269c577f4e487b7100000000000000000000000000000000000000000000000000000000600052603260045260246000fd5b1a60f81b8282815181106126d9577f4e487b7100000000000000000000000000000000000000000000000000000000600052603260045260246000fd5b60200101907effffffffffffffffffffffffffffffffffffffffffffffffffffffffffffff1916908160001a90535060049490941c9361271881613457565b9050612637565b508315611524576040517f08c379a000000000000000000000000000000000000000000000000000000000815260206004820181905260248201527f537472696e67733a20686578206c656e67746820696e73756666696369656e746044820152606401610765565b60008281526020818152604080832073ffffffffffffffffffffffffffffffffffffffff8516845290915290205460ff16610fca5760008281526020818152604080832073ffffffffffffffffffffffffffffffffffffffff85168452909152902080547fffffffffffffffffffffffffffffffffffffffffffffffffffffffffffffff0016600117905561281a3390565b73ffffffffffffffffffffffffffffffffffffffff168173ffffffffffffffffffffffffffffffffffffffff16837f2f8788117e7eff1d82e926ec794901d17c78024a50270940304540a733656f0d60405160405180910390a45050565b60006115248373ffffffffffffffffffffffffffffffffffffffff8416612ad8565b60008281526020818152604080832073ffffffffffffffffffffffffffffffffffffffff8516845290915290205460ff1615610fca5760008281526020818152604080832073ffffffffffffffffffffffffffffffffffffffff8516808552925280832080547fffffffffffffffffffffffffffffffffffffffffffffffffffffffffffffff0016905551339285917ff6391f5c32d9c69d2a47ea670b442974b53935d1edc7fd64eb21e047a839171b9190a45050565b60006115248373ffffffffffffffffffffffffffffffffffffffff8416612b27565b60008260000182815481106129b1577f4e487b7100000000000000000000000000000000000000000000000000000000600052603260045260246000fd5b9060005260206000200154905092915050565b6060833b612a54576040517f08c379a000000000000000000000000000000000000000000000000000000000815260206004820152602660248201527f416464726573733a2064656c65676174652063616c6c20746f206e6f6e2d636f60448201527f6e747261637400000000000000000000000000000000000000000000000000006064820152608401610765565b6000808573ffffffffffffffffffffffffffffffffffffffff1685604051612a7c9190613193565b600060405180830381855af49150503d8060008114612ab7576040519150601f19603f3d011682016040523d82523d6000602084013e612abc565b606091505b5091509150612acc828286612c8f565b925050505b9392505050565b6000818152600183016020526040812054612b1f57508154600181810184556000848152602080822090930184905584548482528286019093526040902091909155611527565b506000611527565b60008181526001830160205260408120548015612c85576000612b4b600183613414565b8554909150600090612b5f90600190613414565b9050818114612c12576000866000018281548110612ba6577f4e487b7100000000000000000000000000000000000000000000000000000000600052603260045260246000fd5b9060005260206000200154905080876000018481548110612bf0577f4e487b7100000000000000000000000000000000000000000000000000000000600052603260045260246000fd5b6000918252602080832090910192909255918252600188019052604090208390555b8554869080612c4a577f4e487b7100000000000000000000000000000000000000000000000000000000600052603160045260246000fd5b600190038181906000526020600020016000905590558560010160008681526020019081526020016000206000905560019350505050611527565b6000915050611527565b60608315612c9e575081612ad1565b825115612cae5782518084602001fd5b816040517f08c379a00000000000000000000000000000000000000000000000000000000081526004016107659190613309565b828054612cee9061348c565b90600052602060002090601f016020900481019282612d105760008555612d56565b82601f10612d2957805160ff1916838001178555612d56565b82800160010185558215612d56579182015b82811115612d56578251825591602001919060010190612d3b565b50612d62929150612df8565b5090565b828054612d729061348c565b90600052602060002090601f016020900481019282612d945760008555612d56565b82601f10612dcb578280017fffffffffffffffffffffffffffffffffffffffffffffffffffffffffffffff00823516178555612d56565b82800160010185558215612d56579182015b82811115612d56578235825591602001919060010190612ddd565b5b80821115612d625760008155600101612df9565b600060208284031215612e1e578081fd5b813561152481613577565b600060208284031215612e3a578081fd5b815161152481613577565b60008060408385031215612e57578081fd5b8235612e6281613577565b91506020830135612e7281613577565b809150509250929050565b60008060408385031215612e57578182fd5b600080600060608486031215612ea3578081fd5b8335612eae81613577565b92506020840135612ebe81613577565b9150604084013567ffffffffffffffff80821115612eda578283fd5b818601915086601f830112612eed578283fd5b813581811115612eff57612eff613548565b604051601f82017fffffffffffffffffffffffffffffffffffffffffffffffffffffffffffffffe0908116603f01168101908382118183101715612f4557612f45613548565b81604052828152896020848701011115612f5d578586fd5b82602086016020830137856020848301015280955050505050509250925092565b60008060408385031215612f90578182fd5b8235612f9b81613577565b946020939093013593505050565b60008060208385031215612fbb578182fd5b823567ffffffffffffffff80821115612fd2578384fd5b818501915085601f830112612fe5578384fd5b813581811115612ff3578485fd5b8660208260051b8501011115613007578485fd5b60209290920196919550909350505050565b60006020828403121561302a578081fd5b81518015158114611524578182fd5b60006020828403121561304a578081fd5b5035919050565b60008060408385031215613063578182fd5b823591506020830135612e7281613577565b60008060408385031215613087578182fd5b50508035926020909101359150565b6000602082840312156130a7578081fd5b81357fffffffff0000000000000000000000000000000000000000000000000000000081168114611524578182fd5b600080602083850312156130e8578182fd5b823567ffffffffffffffff808211156130ff578384fd5b818501915085601f830112613112578384fd5b813581811115613120578485fd5b866020828501011115613007578485fd5b600060208284031215613142578081fd5b5051919050565b6000815180845261316181602086016020860161342b565b601f017fffffffffffffffffffffffffffffffffffffffffffffffffffffffffffffffe0169290920160200192915050565b600082516131a581846020870161342b565b9190910192915050565b60007f416363657373436f6e74726f6c3a206163636f756e7420000000000000000000825283516131e781601785016020880161342b565b7f206973206d697373696e6720726f6c6520000000000000000000000000000000601791840191820152835161322481602884016020880161342b565b01602801949350505050565b6020808252825182820181905260009190848201906040850190845b8181101561327e57835173ffffffffffffffffffffffffffffffffffffffff168352928401929184019160010161324c565b50909695505050505050565b6000602080830181845280855180835260408601915060408160051b8701019250838701855b828110156132fc577fffffffffffffffffffffffffffffffffffffffffffffffffffffffffffffffc08886030184526132ea858351613149565b945092850192908501906001016132b0565b5092979650505050505050565b6000602082526115246020830184613149565b60008083357fffffffffffffffffffffffffffffffffffffffffffffffffffffffffffffffe1843603018112613350578283fd5b83018035915067ffffffffffffffff82111561336a578283fd5b60200191503681900382131561337f57600080fd5b9250929050565b6000821982111561339957613399613519565b500190565b6000826133d2577f4e487b710000000000000000000000000000000000000000000000000000000081526012600452602481fd5b500490565b6000817fffffffffffffffffffffffffffffffffffffffffffffffffffffffffffffffff048311821515161561340f5761340f613519565b500290565b60008282101561342657613426613519565b500390565b60005b8381101561344657818101518382015260200161342e565b838111156113255750506000910152565b60008161346657613466613519565b507fffffffffffffffffffffffffffffffffffffffffffffffffffffffffffffffff0190565b600181811c908216806134a057607f821691505b602082108114156134da577f4e487b7100000000000000000000000000000000000000000000000000000000600052602260045260246000fd5b50919050565b60007fffffffffffffffffffffffffffffffffffffffffffffffffffffffffffffffff82141561351257613512613519565b5060010190565b7f4e487b7100000000000000000000000000000000000000000000000000000000600052601160045260246000fd5b7f4e487b7100000000000000000000000000000000000000000000000000000000600052604160045260246000fd5b73ffffffffffffffffffffffffffffffffffffffff8116811461359957600080fd5b5056fe416464726573733a206c6f772d6c6576656c2064656c65676174652063616c6c206661696c6564a264697066735822122072f8d081d5213e96f49afdee3c3f14c495252a900cc6c2adb6deb127d3fe3c9664736f6c63430008030033",
  "linkReferences": {},
  "deployedLinkReferences": {}
}