{
  "_format": "hh-sol-artifact-1",
  "contractName": "MetacanaToken",
  "sourceName": "contracts/metacana/MetacanaToken.sol",
  "abi": [
    {
      "inputs": [
        {
          "internalType": "uint256",
          "name": "initialSupply",
          "type": "uint256"
        },
        {
          "internalType": "address",
          "name": "_pancakeswapFactoryAddress",
          "type": "address"
        },
        {
          "internalType": "address",
          "name": "_wbnbToken",
          "type": "address"
        }
      ],
      "stateMutability": "nonpayable",
      "type": "constructor"
    },
    {
      "anonymous": false,
      "inputs": [
        {
          "indexed": true,
          "internalType": "address",
          "name": "owner",
          "type": "address"
        },
        {
          "indexed": true,
          "internalType": "address",
          "name": "spender",
          "type": "address"
        },
        {
          "indexed": false,
          "internalType": "uint256",
          "name": "value",
          "type": "uint256"
        }
      ],
      "name": "Approval",
      "type": "event"
    },
    {
      "anonymous": false,
      "inputs": [
        {
          "indexed": true,
          "internalType": "address",
          "name": "previousOwner",
          "type": "address"
        },
        {
          "indexed": true,
          "internalType": "address",
          "name": "newOwner",
          "type": "address"
        }
      ],
      "name": "OwnershipTransferred",
      "type": "event"
    },
    {
      "anonymous": false,
      "inputs": [
        {
          "indexed": false,
          "internalType": "address",
          "name": "account",
          "type": "address"
        }
      ],
      "name": "Paused",
      "type": "event"
    },
    {
      "anonymous": false,
      "inputs": [
        {
          "indexed": false,
          "internalType": "address",
          "name": "metacana",
          "type": "address"
        },
        {
          "indexed": false,
          "internalType": "uint256",
          "name": "crunchedAmount",
          "type": "uint256"
        },
        {
          "indexed": false,
          "internalType": "uint256",
          "name": "newTotalSupply",
          "type": "uint256"
        },
        {
          "indexed": false,
          "internalType": "uint256",
          "name": "newPancakeswapPool",
          "type": "uint256"
        },
        {
          "indexed": false,
          "internalType": "uint256",
          "name": "metacanaReward",
          "type": "uint256"
        },
        {
          "indexed": false,
          "internalType": "uint256",
          "name": "timesCrunched",
          "type": "uint256"
        },
        {
          "indexed": false,
          "internalType": "uint256",
          "name": "totalMetacanasCrunched",
          "type": "uint256"
        }
      ],
      "name": "PoolCrunched",
      "type": "event"
    },
    {
      "anonymous": false,
      "inputs": [
        {
          "indexed": true,
          "internalType": "address",
          "name": "from",
          "type": "address"
        },
        {
          "indexed": true,
          "internalType": "address",
          "name": "to",
          "type": "address"
        },
        {
          "indexed": false,
          "internalType": "uint256",
          "name": "value",
          "type": "uint256"
        }
      ],
      "name": "Transfer",
      "type": "event"
    },
    {
      "anonymous": false,
      "inputs": [
        {
          "indexed": false,
          "internalType": "address",
          "name": "account",
          "type": "address"
        }
      ],
      "name": "Unpaused",
      "type": "event"
    },
    {
      "inputs": [],
      "name": "WBNB",
      "outputs": [
        {
          "internalType": "contract IERC20",
          "name": "",
          "type": "address"
        }
      ],
      "stateMutability": "view",
      "type": "function"
    },
    {
      "inputs": [
        {
          "internalType": "address",
          "name": "owner",
          "type": "address"
        },
        {
          "internalType": "address",
          "name": "spender",
          "type": "address"
        }
      ],
      "name": "allowance",
      "outputs": [
        {
          "internalType": "uint256",
          "name": "",
          "type": "uint256"
        }
      ],
      "stateMutability": "view",
      "type": "function"
    },
    {
      "inputs": [
        {
          "internalType": "address",
          "name": "spender",
          "type": "address"
        },
        {
          "internalType": "uint256",
          "name": "amount",
          "type": "uint256"
        }
      ],
      "name": "approve",
      "outputs": [
        {
          "internalType": "bool",
          "name": "",
          "type": "bool"
        }
      ],
      "stateMutability": "nonpayable",
      "type": "function"
    },
    {
      "inputs": [
        {
          "internalType": "address",
          "name": "account",
          "type": "address"
        }
      ],
      "name": "balanceOf",
      "outputs": [
        {
          "internalType": "uint256",
          "name": "",
          "type": "uint256"
        }
      ],
      "stateMutability": "view",
      "type": "function"
    },
    {
      "inputs": [
        {
          "internalType": "uint256",
          "name": "amount",
          "type": "uint256"
        }
      ],
      "name": "burn",
      "outputs": [],
      "stateMutability": "nonpayable",
      "type": "function"
    },
    {
      "inputs": [
        {
          "internalType": "address",
          "name": "account",
          "type": "address"
        },
        {
          "internalType": "uint256",
          "name": "amount",
          "type": "uint256"
        }
      ],
      "name": "burnFrom",
      "outputs": [],
      "stateMutability": "nonpayable",
      "type": "function"
    },
    {
      "inputs": [],
      "name": "countMetacanas",
      "outputs": [
        {
          "internalType": "uint256",
          "name": "",
          "type": "uint256"
        }
      ],
      "stateMutability": "view",
      "type": "function"
    },
    {
      "inputs": [],
      "name": "crunchPool",
      "outputs": [],
      "stateMutability": "nonpayable",
      "type": "function"
    },
    {
      "inputs": [],
      "name": "crunchRate",
      "outputs": [
        {
          "internalType": "uint256",
          "name": "",
          "type": "uint256"
        }
      ],
      "stateMutability": "view",
      "type": "function"
    },
    {
      "inputs": [],
      "name": "decimals",
      "outputs": [
        {
          "internalType": "uint8",
          "name": "",
          "type": "uint8"
        }
      ],
      "stateMutability": "view",
      "type": "function"
    },
    {
      "inputs": [
        {
          "internalType": "address",
          "name": "spender",
          "type": "address"
        },
        {
          "internalType": "uint256",
          "name": "subtractedValue",
          "type": "uint256"
        }
      ],
      "name": "decreaseAllowance",
      "outputs": [
        {
          "internalType": "bool",
          "name": "",
          "type": "bool"
        }
      ],
      "stateMutability": "nonpayable",
      "type": "function"
    },
    {
      "inputs": [],
      "name": "getCrunchAmount",
      "outputs": [
        {
          "internalType": "uint256",
          "name": "",
          "type": "uint256"
        }
      ],
      "stateMutability": "view",
      "type": "function"
    },
    {
      "inputs": [
        {
          "internalType": "address",
          "name": "addr",
          "type": "address"
        }
      ],
      "name": "getInfoFor",
      "outputs": [
        {
          "internalType": "uint256",
          "name": "balance",
          "type": "uint256"
        },
        {
          "internalType": "uint256",
          "name": "poolBalance",
          "type": "uint256"
        },
        {
          "internalType": "uint256",
          "name": "totalSupply",
          "type": "uint256"
        },
        {
          "internalType": "uint256",
          "name": "totalMetacanasCrunched",
          "type": "uint256"
        },
        {
          "internalType": "uint256",
          "name": "crunchableMetacanas",
          "type": "uint256"
        },
        {
          "internalType": "uint256",
          "name": "lastCrunchAt",
          "type": "uint256"
        },
        {
          "internalType": "uint256",
          "name": "timesCrunched",
          "type": "uint256"
        },
        {
          "internalType": "uint256",
          "name": "metacanasCrunched",
          "type": "uint256"
        },
        {
          "internalType": "bool",
          "name": "metacanaTuesday",
          "type": "bool"
        },
        {
          "internalType": "uint256",
          "name": "metacanasCrunchRate",
          "type": "uint256"
        },
        {
          "internalType": "uint256",
          "name": "metacanaRewardRate",
          "type": "uint256"
        },
        {
          "internalType": "uint256",
          "name": "metacanaTuesdayMultiplier",
          "type": "uint256"
        }
      ],
      "stateMutability": "view",
      "type": "function"
    },
    {
      "inputs": [
        {
          "internalType": "address",
          "name": "_address",
          "type": "address"
        }
      ],
      "name": "getMetacanaStats",
      "outputs": [
        {
          "internalType": "uint256",
          "name": "timesCrunched",
          "type": "uint256"
        },
        {
          "internalType": "uint256",
          "name": "metacanasCrunched",
          "type": "uint256"
        }
      ],
      "stateMutability": "view",
      "type": "function"
    },
    {
      "inputs": [],
      "name": "getMetacanas",
      "outputs": [
        {
          "internalType": "address[]",
          "name": "",
          "type": "address[]"
        }
      ],
      "stateMutability": "view",
      "type": "function"
    },
    {
      "inputs": [],
      "name": "githubProof",
      "outputs": [
        {
          "internalType": "bytes",
          "name": "",
          "type": "bytes"
        }
      ],
      "stateMutability": "view",
      "type": "function"
    },
    {
      "inputs": [
        {
          "internalType": "address",
          "name": "spender",
          "type": "address"
        },
        {
          "internalType": "uint256",
          "name": "addedValue",
          "type": "uint256"
        }
      ],
      "name": "increaseAllowance",
      "outputs": [
        {
          "internalType": "bool",
          "name": "",
          "type": "bool"
        }
      ],
      "stateMutability": "nonpayable",
      "type": "function"
    },
    {
      "inputs": [],
      "name": "isMetacanaTuesday",
      "outputs": [
        {
          "internalType": "bool",
          "name": "",
          "type": "bool"
        }
      ],
      "stateMutability": "view",
      "type": "function"
    },
    {
      "inputs": [],
      "name": "lastCrunchTime",
      "outputs": [
        {
          "internalType": "uint256",
          "name": "",
          "type": "uint256"
        }
      ],
      "stateMutability": "view",
      "type": "function"
    },
    {
      "inputs": [],
      "name": "metacanaTuesdayRewardMultiplier",
      "outputs": [
        {
          "internalType": "uint256",
          "name": "",
          "type": "uint256"
        }
      ],
      "stateMutability": "view",
      "type": "function"
    },
    {
      "inputs": [
        {
          "internalType": "uint256",
          "name": "",
          "type": "uint256"
        }
      ],
      "name": "metacanas",
      "outputs": [
        {
          "internalType": "address",
          "name": "",
          "type": "address"
        }
      ],
      "stateMutability": "view",
      "type": "function"
    },
    {
      "inputs": [
        {
          "internalType": "address",
          "name": "",
          "type": "address"
        }
      ],
      "name": "metacanasCrunchStats",
      "outputs": [
        {
          "internalType": "uint256",
          "name": "timesCrunched",
          "type": "uint256"
        },
        {
          "internalType": "uint256",
          "name": "metacanasCrunched",
          "type": "uint256"
        }
      ],
      "stateMutability": "view",
      "type": "function"
    },
    {
      "inputs": [
        {
          "internalType": "address",
          "name": "to",
          "type": "address"
        },
        {
          "internalType": "uint256",
          "name": "amount",
          "type": "uint256"
        }
      ],
      "name": "mint",
      "outputs": [],
      "stateMutability": "nonpayable",
      "type": "function"
    },
    {
      "inputs": [],
      "name": "name",
      "outputs": [
        {
          "internalType": "string",
          "name": "",
          "type": "string"
        }
      ],
      "stateMutability": "view",
      "type": "function"
    },
    {
      "inputs": [],
      "name": "owner",
      "outputs": [
        {
          "internalType": "address",
          "name": "",
          "type": "address"
        }
      ],
      "stateMutability": "view",
      "type": "function"
    },
    {
      "inputs": [],
      "name": "pancakeFactory",
      "outputs": [
        {
          "internalType": "contract IPancakeFactory",
          "name": "",
          "type": "address"
        }
      ],
      "stateMutability": "view",
      "type": "function"
    },
    {
      "inputs": [],
      "name": "pancakeswapPool",
      "outputs": [
        {
          "internalType": "address",
          "name": "",
          "type": "address"
        }
      ],
      "stateMutability": "view",
      "type": "function"
    },
    {
      "inputs": [],
      "name": "paused",
      "outputs": [
        {
          "internalType": "bool",
          "name": "",
          "type": "bool"
        }
      ],
      "stateMutability": "view",
      "type": "function"
    },
    {
      "inputs": [],
      "name": "renounceOwnership",
      "outputs": [],
      "stateMutability": "nonpayable",
      "type": "function"
    },
    {
      "inputs": [],
      "name": "rewardForMetacana",
      "outputs": [
        {
          "internalType": "uint256",
          "name": "",
          "type": "uint256"
        }
      ],
      "stateMutability": "view",
      "type": "function"
    },
    {
      "inputs": [],
      "name": "rewardMultiplier",
      "outputs": [
        {
          "internalType": "uint256",
          "name": "",
          "type": "uint256"
        }
      ],
      "stateMutability": "view",
      "type": "function"
    },
    {
      "inputs": [
        {
          "internalType": "uint256",
          "name": "_crunchRate",
          "type": "uint256"
        }
      ],
      "name": "setCrunchRate",
      "outputs": [],
      "stateMutability": "nonpayable",
      "type": "function"
    },
    {
      "inputs": [
        {
          "internalType": "uint256",
          "name": "_metacanaTuesdayRewardMultiplier",
          "type": "uint256"
        }
      ],
      "name": "setMetacanaTuesdayRewardMultiplier",
      "outputs": [],
      "stateMutability": "nonpayable",
      "type": "function"
    },
    {
      "inputs": [],
      "name": "setPancakeswapPool",
      "outputs": [],
      "stateMutability": "nonpayable",
      "type": "function"
    },
    {
      "inputs": [
        {
          "internalType": "uint256",
          "name": "_rewardForMetacana",
          "type": "uint256"
        }
      ],
      "name": "setRewardForMetacana",
      "outputs": [],
      "stateMutability": "nonpayable",
      "type": "function"
    },
    {
      "inputs": [
        {
          "internalType": "uint256",
          "name": "_twitterProof",
          "type": "uint256"
        }
      ],
      "name": "setTwitterProof",
      "outputs": [],
      "stateMutability": "nonpayable",
      "type": "function"
    },
    {
      "inputs": [],
      "name": "symbol",
      "outputs": [
        {
          "internalType": "string",
          "name": "",
          "type": "string"
        }
      ],
      "stateMutability": "view",
      "type": "function"
    },
    {
      "inputs": [],
      "name": "totalCrunched",
      "outputs": [
        {
          "internalType": "uint256",
          "name": "",
          "type": "uint256"
        }
      ],
      "stateMutability": "view",
      "type": "function"
    },
    {
      "inputs": [],
      "name": "totalSupply",
      "outputs": [
        {
          "internalType": "uint256",
          "name": "",
          "type": "uint256"
        }
      ],
      "stateMutability": "view",
      "type": "function"
    },
    {
      "inputs": [
        {
          "internalType": "address",
          "name": "recipient",
          "type": "address"
        },
        {
          "internalType": "uint256",
          "name": "amount",
          "type": "uint256"
        }
      ],
      "name": "transfer",
      "outputs": [
        {
          "internalType": "bool",
          "name": "",
          "type": "bool"
        }
      ],
      "stateMutability": "nonpayable",
      "type": "function"
    },
    {
      "inputs": [
        {
          "internalType": "address",
          "name": "sender",
          "type": "address"
        },
        {
          "internalType": "address",
          "name": "recipient",
          "type": "address"
        },
        {
          "internalType": "uint256",
          "name": "amount",
          "type": "uint256"
        }
      ],
      "name": "transferFrom",
      "outputs": [
        {
          "internalType": "bool",
          "name": "",
          "type": "bool"
        }
      ],
      "stateMutability": "nonpayable",
      "type": "function"
    },
    {
      "inputs": [
        {
          "internalType": "address",
          "name": "newOwner",
          "type": "address"
        }
      ],
      "name": "transferOwnership",
      "outputs": [],
      "stateMutability": "nonpayable",
      "type": "function"
    },
    {
      "inputs": [],
      "name": "twitterProof",
      "outputs": [
        {
          "internalType": "uint256",
          "name": "",
          "type": "uint256"
        }
      ],
      "stateMutability": "view",
      "type": "function"
    },
    {
      "inputs": [],
      "name": "unpause",
      "outputs": [],
      "stateMutability": "nonpayable",
      "type": "function"
    }
  ],
  "bytecode": "0x60806040523480156200001157600080fd5b50604051620030e4380380620030e48339810160408190526200003491620005ce565b604080518082018252600981527f4d65746163616e6173000000000000000000000000000000000000000000000060208083019182528351808501909452600484527f43414e4100000000000000000000000000000000000000000000000000000000908401528151919291620000ae91600391620004fe565b508051620000c4906004906020840190620004fe565b505050620000e1620000db620001a360201b60201c565b620001a7565b600580547fffffffffffffffffffffff00ffffffffffffffffffffffffffffffffffffffff1690556013805473ffffffffffffffffffffffffffffffffffffffff8085167fffffffffffffffffffffffff00000000000000000000000000000000000000009283161790925560128054928416929091169190911790556004600a556001600e556014600f556200019a336200017b601290565b6200018890600a62000676565b6200019490866200078c565b6200021e565b50505062000801565b3390565b6005805473ffffffffffffffffffffffffffffffffffffffff8381167fffffffffffffffffffffffff0000000000000000000000000000000000000000831681179093556040519116919082907f8be0079c531659141344cd1fd0a4f28419497f9722a3daafe3b4186f6b6457e090600090a35050565b73ffffffffffffffffffffffffffffffffffffffff8216620002a1576040517f08c379a000000000000000000000000000000000000000000000000000000000815260206004820152601f60248201527f45524332303a206d696e7420746f20746865207a65726f20616464726573730060448201526064015b60405180910390fd5b620002af6000838362000356565b8060026000828254620002c391906200060e565b909155505073ffffffffffffffffffffffffffffffffffffffff821660009081526020819052604081208054839290620002ff9084906200060e565b909155505060405181815273ffffffffffffffffffffffffffffffffffffffff8316906000907fddf252ad1be2c89b69c2b068fc378daa952ba7f163c4a11628f55a4df523b3ef9060200160405180910390a35050565b6200037b60055474010000000000000000000000000000000000000000900460ff1690565b15620003e4576040517f08c379a000000000000000000000000000000000000000000000000000000000815260206004820152601060248201527f5061757361626c653a2070617573656400000000000000000000000000000000604482015260640162000298565b620003fc838383620004f960201b620012021760201c565b6200042160055474010000000000000000000000000000000000000000900460ff1690565b158062000445575060055473ffffffffffffffffffffffffffffffffffffffff1633145b620004f9576040517f08c379a000000000000000000000000000000000000000000000000000000000815260206004820152605760248201527f4d65746163616e61546f6b656e3a2043616e6e6f74207472616e73666572207460448201527f6f6b656e73207768696c652067616d652069732070617573656420616e64207360648201527f656e646572206973206e6f7420746865204f776e65722e000000000000000000608482015260a40162000298565b505050565b8280546200050c90620007ae565b90600052602060002090601f0160209004810192826200053057600085556200057b565b82601f106200054b57805160ff19168380011785556200057b565b828001600101855582156200057b579182015b828111156200057b5782518255916020019190600101906200055e565b50620005899291506200058d565b5090565b5b808211156200058957600081556001016200058e565b805173ffffffffffffffffffffffffffffffffffffffff81168114620005c957600080fd5b919050565b600080600060608486031215620005e3578283fd5b83519250620005f560208501620005a4565b91506200060560408501620005a4565b90509250925092565b60008219821115620006245762000624620007eb565b500190565b80825b60018086116200063d57506200066d565b818704821115620006525762000652620007eb565b808616156200066057918102915b9490941c9380026200062c565b94509492505050565b6000620006a87fffffffffffffffffffffffffffffffffffffffffffffffffffffffffffffffff60ff851684620006af565b9392505050565b600082620006c057506001620006a8565b81620006cf57506000620006a8565b8160018114620006e85760028114620006f35762000727565b6001915050620006a8565b60ff841115620007075762000707620007eb565b6001841b915084821115620007205762000720620007eb565b50620006a8565b5060208310610133831016604e8410600b84101617156200075f575081810a83811115620007595762000759620007eb565b620006a8565b6200076e848484600162000629565b808604821115620007835762000783620007eb565b02949350505050565b6000816000190483118215151615620007a957620007a9620007eb565b500290565b600181811c90821680620007c357607f821691505b60208210811415620007e557634e487b7160e01b600052602260045260246000fd5b50919050565b634e487b7160e01b600052601160045260246000fd5b6128d380620008116000396000f3fe608060405234801561001057600080fd5b50600436106102f35760003560e01c806370a0823111610191578063a9059cbb116100e3578063dd62ed3e11610097578063e0f1c9c511610071578063e0f1c9c5146106d1578063eb303e05146106f1578063f2fde38b14610706576102f3565b8063dd62ed3e1461067b578063dedf9d9b146106c1578063e0d7b3be146106c9576102f3565b8063b9d88042116100c8578063b9d8804214610657578063c043fa3b1461066a578063caeb278f14610673576102f3565b8063a9059cbb1461063c578063ad9b10fd1461064f576102f3565b8063895e86b51161014557806395d89b411161011f57806395d89b411461060e5780639f7ae42b14610616578063a457c2d714610629576102f3565b8063895e86b5146105c75780638da5cb5b146105d05780638dd95002146105ee576102f3565b8063715b256611610176578063715b25661461059857806379cc6790146105a157806382e7f246146105b4576102f3565b806370a082311461055a578063715018a614610590576102f3565b806327d421321161024a5780633f4ba83a116101fe5780635c975abb116101d85780635c975abb146104c057806368f414ae146104e45780636f2c590a14610552576102f3565b80633f4ba83a1461049257806340c10f191461049a57806342966c68146104ad576102f3565b8063395093511161022f57806339509351146104645780633abf64d7146104775780633b43eeba1461047f576102f3565b806327d421321461042e578063313ce56714610455576102f3565b80631431a92b116102ac57806323617e5f1161028657806323617e5f146103bf57806323b872dd146104125780632658451a14610425576102f3565b80631431a92b1461036957806318160ddd14610372578063200f81911461037a576102f3565b8063095ea7b3116102dd578063095ea7b31461032857806309e09a961461034b5780631049b29a14610360576102f3565b8062354691146102f857806306fdde0314610313575b600080fd5b610300610719565b6040519081526020015b60405180910390f35b61031b610720565b60405161030a9190612722565b61033b61033636600461261c565b6107b2565b604051901515815260200161030a565b61035e610359366004612647565b6107c8565b005b61030060065481565b610300600e5481565b600254610300565b60145461039a9073ffffffffffffffffffffffffffffffffffffffff1681565b60405173ffffffffffffffffffffffffffffffffffffffff909116815260200161030a565b6103fd6103cd36600461256c565b73ffffffffffffffffffffffffffffffffffffffff16600090815260106020526040902080546001909101549091565b6040805192835260208301919091520161030a565b61033b6104203660046125dc565b610853565b61030060095481565b6103fd61043c36600461256c565b6010602052600090815260409020805460019091015482565b6040516012815260200161030a565b61033b61047236600461261c565b610939565b61035e610982565b61035e61048d366004612647565b610d55565b61035e610e9e565b61035e6104a836600461261c565b610f2d565b61035e6104bb366004612647565b610fbc565b61033b60055474010000000000000000000000000000000000000000900460ff1690565b6104f76104f236600461256c565b610fc9565b604080519c8d5260208d019b909b52998b019890985260608a0196909652608089019490945260a088019290925260c087015260e086015215156101008501526101208401526101408301526101608201526101800161030a565b6103006110a1565b61030061056836600461256c565b73ffffffffffffffffffffffffffffffffffffffff1660009081526020819052604090205490565b61035e6110c1565b610300600a5481565b61035e6105af36600461261c565b61114e565b61035e6105c2366004612647565b611207565b61030060085481565b60055473ffffffffffffffffffffffffffffffffffffffff1661039a565b60125461039a9073ffffffffffffffffffffffffffffffffffffffff1681565b61031b61132a565b61039a610624366004612647565b611339565b61033b61063736600461261c565b611370565b61033b61064a36600461261c565b611448565b61035e611455565b61035e610665366004612647565b611670565b610300600f5481565b61033b6117b9565b6103006106893660046125a4565b73ffffffffffffffffffffffffffffffffffffffff918216600090815260016020908152604080832093909416825291909152205490565b61031b6117e9565b610300611877565b60135461039a9073ffffffffffffffffffffffffffffffffffffffff1681565b6106f9611920565b60405161030a91906126c8565b61035e61071436600461256c565b61198e565b6011545b90565b60606003805461072f906127b5565b80601f016020809104026020016040519081016040528092919081815260200182805461075b906127b5565b80156107a85780601f1061077d576101008083540402835291602001916107a8565b820191906000526020600020905b81548152906001019060200180831161078b57829003601f168201915b5050505050905090565b60006107bf338484611abb565b50600192915050565b60055473ffffffffffffffffffffffffffffffffffffffff16331461084e576040517f08c379a000000000000000000000000000000000000000000000000000000000815260206004820181905260248201527f4f776e61626c653a2063616c6c6572206973206e6f7420746865206f776e657260448201526064015b60405180910390fd5b600655565b6000610860848484611c6e565b73ffffffffffffffffffffffffffffffffffffffff8416600090815260016020908152604080832033845290915290205482811015610921576040517f08c379a000000000000000000000000000000000000000000000000000000000815260206004820152602860248201527f45524332303a207472616e7366657220616d6f756e742065786365656473206160448201527f6c6c6f77616e63650000000000000000000000000000000000000000000000006064820152608401610845565b61092e8533858403611abb565b506001949350505050565b33600081815260016020908152604080832073ffffffffffffffffffffffffffffffffffffffff8716845290915281205490916107bf91859061097d908690612735565b611abb565b6109a660055474010000000000000000000000000000000000000000900460ff1690565b15610a0d576040517f08c379a000000000000000000000000000000000000000000000000000000000815260206004820152601060248201527f5061757361626c653a20706175736564000000000000000000000000000000006044820152606401610845565b6000610a17611877565b9050670de0b6b3a7640000811015610ab1576040517f08c379a000000000000000000000000000000000000000000000000000000000815260206004820152602a60248201527f6372756e6368506f6f6c3a206d696e206372756e636820616d6f756e74206e6f60448201527f7420726561636865642e000000000000000000000000000000000000000000006064820152608401610845565b426008556000610ae26103e8610adc610ac86110a1565b600e54610ad6908790611f2d565b90611f2d565b90611f40565b90506000610af08383611f4c565b60145473ffffffffffffffffffffffffffffffffffffffff166000908152600c6020526040902054909150610b259084611f4c565b60145473ffffffffffffffffffffffffffffffffffffffff166000908152600c6020526040808220929092553381522054610b609083611f58565b336000908152600c6020526040902055600d54610b7d9082611f4c565b600d55600954610b8d9082611f58565b6009553360009081526010602052604090208054610c0057601180546001810182556000919091527f31ecc21a745e3968a04e9570e4425bc18fa8019c68028196b546d1669c200c680180547fffffffffffffffffffffffff000000000000000000000000000000000000000016331790555b8054610c0d906001611f58565b81556001810154610c1e9084611f58565b600182810191825533600090815260106020526040808220855481559354939092019290925560145481517ffff6cae9000000000000000000000000000000000000000000000000000000008152915173ffffffffffffffffffffffffffffffffffffffff9091169263fff6cae9926004808201939182900301818387803b158015610ca957600080fd5b505af1158015610cbd573d6000803e3d6000fd5b5050600d5460145473ffffffffffffffffffffffffffffffffffffffff1660009081526020818152604091829020548654600188015484513381529384018c90528385019590955260608301919091526080820189905260a082015260c0810192909252517f3014223ac687655271e5aea5a764708387a0514dfd8580e36a35b1ebb9e15d5893509081900360e0019150a150505050565b60055473ffffffffffffffffffffffffffffffffffffffff163314610dd6576040517f08c379a000000000000000000000000000000000000000000000000000000000815260206004820181905260248201527f4f776e61626c653a2063616c6c6572206973206e6f7420746865206f776e65726044820152606401610845565b600081118015610de75750600a8111155b610e99576040517f08c379a000000000000000000000000000000000000000000000000000000000815260206004820152604260248201527f4d65746163616e61546f6b656e3a20726577617264466f724d65746163616e6160448201527f206d757374206265206174206c65617374203120616e64206174206d6f73742060648201527f3130000000000000000000000000000000000000000000000000000000000000608482015260a401610845565b600e55565b60055473ffffffffffffffffffffffffffffffffffffffff163314610f1f576040517f08c379a000000000000000000000000000000000000000000000000000000000815260206004820181905260248201527f4f776e61626c653a2063616c6c6572206973206e6f7420746865206f776e65726044820152606401610845565b610f27611f64565b42600855565b60055473ffffffffffffffffffffffffffffffffffffffff163314610fae576040517f08c379a000000000000000000000000000000000000000000000000000000000815260206004820181905260248201527f4f776e61626c653a2063616c6c6572206973206e6f7420746865206f776e65726044820152606401610845565b610fb8828261204b565b5050565b610fc63382612178565b50565b73ffffffffffffffffffffffffffffffffffffffff811660008181526010602090815260408083208151808301835281548152600190910154818401529383529082905281205490918291829182918291829182918291829182918291829160145473ffffffffffffffffffffffffffffffffffffffff16600090815260208190526040902054600d5460095461105e611877565b600854865160208801516110706117b9565b600a54600e54600f549c509c509c509c509c509c509c509c509c509c509c509c505091939597999b5091939597999b565b60006110ab6117b9565b156110b95750600f5461071d565b50600a61071d565b60055473ffffffffffffffffffffffffffffffffffffffff163314611142576040517f08c379a000000000000000000000000000000000000000000000000000000000815260206004820181905260248201527f4f776e61626c653a2063616c6c6572206973206e6f7420746865206f776e65726044820152606401610845565b61114c6000612371565b565b600061115a8333610689565b9050818110156111eb576040517f08c379a0000000000000000000000000000000000000000000000000000000008152602060048201526024808201527f45524332303a206275726e20616d6f756e74206578636565647320616c6c6f7760448201527f616e6365000000000000000000000000000000000000000000000000000000006064820152608401610845565b6111f88333848403611abb565b6112028383612178565b505050565b60055473ffffffffffffffffffffffffffffffffffffffff163314611288576040517f08c379a000000000000000000000000000000000000000000000000000000000815260206004820181905260248201527f4f776e61626c653a2063616c6c6572206973206e6f7420746865206f776e65726044820152606401610845565b6000811180156112995750600a8111155b611325576040517f08c379a000000000000000000000000000000000000000000000000000000000815260206004820152603b60248201527f4d65746163616e61546f6b656e3a206372756e636852617465206d757374206260448201527f65206174206c65617374203120616e64206174206d6f737420313000000000006064820152608401610845565b600a55565b60606004805461072f906127b5565b6011818154811061134957600080fd5b60009182526020909120015473ffffffffffffffffffffffffffffffffffffffff16905081565b33600090815260016020908152604080832073ffffffffffffffffffffffffffffffffffffffff8616845290915281205482811015611431576040517f08c379a000000000000000000000000000000000000000000000000000000000815260206004820152602560248201527f45524332303a2064656372656173656420616c6c6f77616e63652062656c6f7760448201527f207a65726f0000000000000000000000000000000000000000000000000000006064820152608401610845565b61143e3385858403611abb565b5060019392505050565b60006107bf338484611c6e565b60055473ffffffffffffffffffffffffffffffffffffffff1633146114d6576040517f08c379a000000000000000000000000000000000000000000000000000000000815260206004820181905260248201527f4f776e61626c653a2063616c6c6572206973206e6f7420746865206f776e65726044820152606401610845565b60145473ffffffffffffffffffffffffffffffffffffffff161561157c576040517f08c379a000000000000000000000000000000000000000000000000000000000815260206004820152602360248201527f4d65746163616e61546f6b656e3a20706f6f6c20616c7265616479206372656160448201527f74656400000000000000000000000000000000000000000000000000000000006064820152608401610845565b6013546012546040517fc9c6539600000000000000000000000000000000000000000000000000000000815273ffffffffffffffffffffffffffffffffffffffff918216600482015230602482015291169063c9c6539690604401602060405180830381600087803b1580156115f157600080fd5b505af1158015611605573d6000803e3d6000fd5b505050506040513d601f19601f820116820180604052508101906116299190612588565b601480547fffffffffffffffffffffffff00000000000000000000000000000000000000001673ffffffffffffffffffffffffffffffffffffffff92909216919091179055565b60055473ffffffffffffffffffffffffffffffffffffffff1633146116f1576040517f08c379a000000000000000000000000000000000000000000000000000000000815260206004820181905260248201527f4f776e61626c653a2063616c6c6572206973206e6f7420746865206f776e65726044820152606401610845565b6009811180156117025750601e8111155b6117b4576040517f08c379a000000000000000000000000000000000000000000000000000000000815260206004820152605160248201527f4d65746163616e61546f6b656e3a206d65746163616e6154756573646179526560448201527f776172644d756c7469706c696572206d757374206265206174206c656173742060648201527f313020616e64206174206d6f7374203330000000000000000000000000000000608482015260a401610845565b600f55565b60008060076117cb620151804261274d565b6117d6906003612735565b6117e09190612809565b60011491505090565b600780546117f6906127b5565b80601f0160208091040260200160405190810160405280929190818152602001828054611822906127b5565b801561186f5780601f106118445761010080835404028352916020019161186f565b820191906000526020600020905b81548152906001019060200180831161185257829003601f168201915b505050505081565b600061189d60055474010000000000000000000000000000000000000000900460ff1690565b1515600114156118af5750600061071d565b6000600854426118bf919061279e565b60145473ffffffffffffffffffffffffffffffffffffffff1660009081526020819052604081205491925050600062015180905060006119176064610adc84610adc88610ad6600a548a611f2d90919063ffffffff16565b94505050505090565b606060118054806020026020016040519081016040528092919081815260200182805480156107a857602002820191906000526020600020905b815473ffffffffffffffffffffffffffffffffffffffff16815260019091019060200180831161195a575050505050905090565b60055473ffffffffffffffffffffffffffffffffffffffff163314611a0f576040517f08c379a000000000000000000000000000000000000000000000000000000000815260206004820181905260248201527f4f776e61626c653a2063616c6c6572206973206e6f7420746865206f776e65726044820152606401610845565b73ffffffffffffffffffffffffffffffffffffffff8116611ab2576040517f08c379a000000000000000000000000000000000000000000000000000000000815260206004820152602660248201527f4f776e61626c653a206e6577206f776e657220697320746865207a65726f206160448201527f64647265737300000000000000000000000000000000000000000000000000006064820152608401610845565b610fc681612371565b73ffffffffffffffffffffffffffffffffffffffff8316611b5d576040517f08c379a0000000000000000000000000000000000000000000000000000000008152602060048201526024808201527f45524332303a20617070726f76652066726f6d20746865207a65726f2061646460448201527f72657373000000000000000000000000000000000000000000000000000000006064820152608401610845565b73ffffffffffffffffffffffffffffffffffffffff8216611c00576040517f08c379a000000000000000000000000000000000000000000000000000000000815260206004820152602260248201527f45524332303a20617070726f766520746f20746865207a65726f20616464726560448201527f73730000000000000000000000000000000000000000000000000000000000006064820152608401610845565b73ffffffffffffffffffffffffffffffffffffffff83811660008181526001602090815260408083209487168084529482529182902085905590518481527f8c5be1e5ebec7d5bd14f71427d1e84f3dd0314c0f7b2291e5b200ac8c7c3b925910160405180910390a3505050565b73ffffffffffffffffffffffffffffffffffffffff8316611d11576040517f08c379a000000000000000000000000000000000000000000000000000000000815260206004820152602560248201527f45524332303a207472616e736665722066726f6d20746865207a65726f20616460448201527f64726573730000000000000000000000000000000000000000000000000000006064820152608401610845565b73ffffffffffffffffffffffffffffffffffffffff8216611db4576040517f08c379a000000000000000000000000000000000000000000000000000000000815260206004820152602360248201527f45524332303a207472616e7366657220746f20746865207a65726f206164647260448201527f65737300000000000000000000000000000000000000000000000000000000006064820152608401610845565b611dbf8383836123e8565b73ffffffffffffffffffffffffffffffffffffffff831660009081526020819052604090205481811015611e75576040517f08c379a000000000000000000000000000000000000000000000000000000000815260206004820152602660248201527f45524332303a207472616e7366657220616d6f756e742065786365656473206260448201527f616c616e636500000000000000000000000000000000000000000000000000006064820152608401610845565b73ffffffffffffffffffffffffffffffffffffffff808516600090815260208190526040808220858503905591851681529081208054849290611eb9908490612735565b925050819055508273ffffffffffffffffffffffffffffffffffffffff168473ffffffffffffffffffffffffffffffffffffffff167fddf252ad1be2c89b69c2b068fc378daa952ba7f163c4a11628f55a4df523b3ef84604051611f1f91815260200190565b60405180910390a350505050565b6000611f398284612761565b9392505050565b6000611f39828461274d565b6000611f39828461279e565b6000611f398284612735565b611f8860055474010000000000000000000000000000000000000000900460ff1690565b611fee576040517f08c379a000000000000000000000000000000000000000000000000000000000815260206004820152601460248201527f5061757361626c653a206e6f74207061757365640000000000000000000000006044820152606401610845565b600580547fffffffffffffffffffffff00ffffffffffffffffffffffffffffffffffffffff1690556040805133815290517f5db9ee0a495bf2e6ff9c91a7834c1ba4fdd244a5e8aa4e537bd38aeae4b073aa9181900360200190a1565b73ffffffffffffffffffffffffffffffffffffffff82166120c8576040517f08c379a000000000000000000000000000000000000000000000000000000000815260206004820152601f60248201527f45524332303a206d696e7420746f20746865207a65726f2061646472657373006044820152606401610845565b6120d4600083836123e8565b80600260008282546120e69190612735565b909155505073ffffffffffffffffffffffffffffffffffffffff821660009081526020819052604081208054839290612120908490612735565b909155505060405181815273ffffffffffffffffffffffffffffffffffffffff8316906000907fddf252ad1be2c89b69c2b068fc378daa952ba7f163c4a11628f55a4df523b3ef9060200160405180910390a3610fb8565b73ffffffffffffffffffffffffffffffffffffffff821661221b576040517f08c379a000000000000000000000000000000000000000000000000000000000815260206004820152602160248201527f45524332303a206275726e2066726f6d20746865207a65726f2061646472657360448201527f73000000000000000000000000000000000000000000000000000000000000006064820152608401610845565b612227826000836123e8565b73ffffffffffffffffffffffffffffffffffffffff8216600090815260208190526040902054818110156122dd576040517f08c379a000000000000000000000000000000000000000000000000000000000815260206004820152602260248201527f45524332303a206275726e20616d6f756e7420657863656564732062616c616e60448201527f63650000000000000000000000000000000000000000000000000000000000006064820152608401610845565b73ffffffffffffffffffffffffffffffffffffffff8316600090815260208190526040812083830390556002805484929061231990849061279e565b909155505060405182815260009073ffffffffffffffffffffffffffffffffffffffff8516907fddf252ad1be2c89b69c2b068fc378daa952ba7f163c4a11628f55a4df523b3ef9060200160405180910390a3611202565b6005805473ffffffffffffffffffffffffffffffffffffffff8381167fffffffffffffffffffffffff0000000000000000000000000000000000000000831681179093556040519116919082907f8be0079c531659141344cd1fd0a4f28419497f9722a3daafe3b4186f6b6457e090600090a35050565b61240c60055474010000000000000000000000000000000000000000900460ff1690565b15612473576040517f08c379a000000000000000000000000000000000000000000000000000000000815260206004820152601060248201527f5061757361626c653a20706175736564000000000000000000000000000000006044820152606401610845565b61249760055474010000000000000000000000000000000000000000900460ff1690565b15806124ba575060055473ffffffffffffffffffffffffffffffffffffffff1633145b611202576040517f08c379a000000000000000000000000000000000000000000000000000000000815260206004820152605760248201527f4d65746163616e61546f6b656e3a2043616e6e6f74207472616e73666572207460448201527f6f6b656e73207768696c652067616d652069732070617573656420616e64207360648201527f656e646572206973206e6f7420746865204f776e65722e000000000000000000608482015260a401610845565b60006020828403121561257d578081fd5b8135611f398161287b565b600060208284031215612599578081fd5b8151611f398161287b565b600080604083850312156125b6578081fd5b82356125c18161287b565b915060208301356125d18161287b565b809150509250929050565b6000806000606084860312156125f0578081fd5b83356125fb8161287b565b9250602084013561260b8161287b565b929592945050506040919091013590565b6000806040838503121561262e578182fd5b82356126398161287b565b946020939093013593505050565b600060208284031215612658578081fd5b5035919050565b60008151808452815b8181101561268457602081850181015186830182015201612668565b818111156126955782602083870101525b50601f017fffffffffffffffffffffffffffffffffffffffffffffffffffffffffffffffe0169290920160200192915050565b6020808252825182820181905260009190848201906040850190845b8181101561271657835173ffffffffffffffffffffffffffffffffffffffff16835292840192918401916001016126e4565b50909695505050505050565b600060208252611f39602083018461265f565b600082198211156127485761274861281d565b500190565b60008261275c5761275c61284c565b500490565b6000817fffffffffffffffffffffffffffffffffffffffffffffffffffffffffffffffff04831182151516156127995761279961281d565b500290565b6000828210156127b0576127b061281d565b500390565b600181811c908216806127c957607f821691505b60208210811415612803577f4e487b7100000000000000000000000000000000000000000000000000000000600052602260045260246000fd5b50919050565b6000826128185761281861284c565b500690565b7f4e487b7100000000000000000000000000000000000000000000000000000000600052601160045260246000fd5b7f4e487b7100000000000000000000000000000000000000000000000000000000600052601260045260246000fd5b73ffffffffffffffffffffffffffffffffffffffff81168114610fc657600080fdfea26469706673582212208a36a9369a2c68e503ceb7847a3c6a1f3883e3595e85871c80d8428fd6ead83d64736f6c63430008030033",
  "linkReferences": {},
  "deployedLinkReferences": {}
}