{
  "_format": "hh-sol-artifact-1",
  "contractName": "SignatureMint1155",
  "sourceName": "contracts/nft/signatureMint/SignatureMint1155.sol",
  "abi": [
    {
      "inputs": [
        {
          "internalType": "string",
          "name": "_contractURI",
          "type": "string"
        },
        {
          "internalType": "address payable",
          "name": "_controlCenter",
          "type": "address"
        },
        {
          "internalType": "address",
          "name": "_trustedForwarder",
          "type": "address"
        },
        {
          "internalType": "address",
          "name": "_nativeTokenWrapper",
          "type": "address"
        },
        {
          "internalType": "address",
          "name": "_saleRecipient",
          "type": "address"
        },
        {
          "internalType": "uint128",
          "name": "_royaltyBps",
          "type": "uint128"
        },
        {
          "internalType": "uint128",
          "name": "_feeBps",
          "type": "uint128"
        }
      ],
      "stateMutability": "nonpayable",
      "type": "constructor"
    },
    {
      "anonymous": false,
      "inputs": [
        {
          "indexed": true,
          "internalType": "address",
          "name": "account",
          "type": "address"
        },
        {
          "indexed": true,
          "internalType": "address",
          "name": "operator",
          "type": "address"
        },
        {
          "indexed": false,
          "internalType": "bool",
          "name": "approved",
          "type": "bool"
        }
      ],
      "name": "ApprovalForAll",
      "type": "event"
    },
    {
      "anonymous": false,
      "inputs": [
        {
          "indexed": true,
          "internalType": "address",
          "name": "signer",
          "type": "address"
        },
        {
          "indexed": true,
          "internalType": "address",
          "name": "mintedTo",
          "type": "address"
        },
        {
          "indexed": true,
          "internalType": "uint256",
          "name": "tokenIdMinted",
          "type": "uint256"
        },
        {
          "components": [
            {
              "internalType": "address",
              "name": "to",
              "type": "address"
            },
            {
              "internalType": "uint256",
              "name": "tokenId",
              "type": "uint256"
            },
            {
              "internalType": "string",
              "name": "uri",
              "type": "string"
            },
            {
              "internalType": "uint256",
              "name": "quantity",
              "type": "uint256"
            },
            {
              "internalType": "uint256",
              "name": "pricePerToken",
              "type": "uint256"
            },
            {
              "internalType": "address",
              "name": "currency",
              "type": "address"
            },
            {
              "internalType": "uint128",
              "name": "validityStartTimestamp",
              "type": "uint128"
            },
            {
              "internalType": "uint128",
              "name": "validityEndTimestamp",
              "type": "uint128"
            },
            {
              "internalType": "bytes32",
              "name": "uid",
              "type": "bytes32"
            }
          ],
          "indexed": false,
          "internalType": "struct ISignatureMint1155.MintRequest",
          "name": "mintRequest",
          "type": "tuple"
        }
      ],
      "name": "MintWithSignature",
      "type": "event"
    },
    {
      "anonymous": false,
      "inputs": [
        {
          "indexed": true,
          "internalType": "address",
          "name": "recipient",
          "type": "address"
        }
      ],
      "name": "NewDefaultSaleRecipient",
      "type": "event"
    },
    {
      "anonymous": false,
      "inputs": [
        {
          "indexed": false,
          "internalType": "address",
          "name": "prevOwner",
          "type": "address"
        },
        {
          "indexed": false,
          "internalType": "address",
          "name": "newOwner",
          "type": "address"
        }
      ],
      "name": "NewOwner",
      "type": "event"
    },
    {
      "anonymous": false,
      "inputs": [
        {
          "indexed": true,
          "internalType": "address",
          "name": "recipient",
          "type": "address"
        },
        {
          "indexed": true,
          "internalType": "uint256",
          "name": "_tokenId",
          "type": "uint256"
        },
        {
          "indexed": false,
          "internalType": "bool",
          "name": "isDefaultRecipient",
          "type": "bool"
        }
      ],
      "name": "NewSaleRecipient",
      "type": "event"
    },
    {
      "anonymous": false,
      "inputs": [
        {
          "indexed": false,
          "internalType": "uint256",
          "name": "newFeeBps",
          "type": "uint256"
        }
      ],
      "name": "PrimarySalesFeeUpdates",
      "type": "event"
    },
    {
      "anonymous": false,
      "inputs": [
        {
          "indexed": true,
          "internalType": "bytes32",
          "name": "role",
          "type": "bytes32"
        },
        {
          "indexed": true,
          "internalType": "bytes32",
          "name": "previousAdminRole",
          "type": "bytes32"
        },
        {
          "indexed": true,
          "internalType": "bytes32",
          "name": "newAdminRole",
          "type": "bytes32"
        }
      ],
      "name": "RoleAdminChanged",
      "type": "event"
    },
    {
      "anonymous": false,
      "inputs": [
        {
          "indexed": true,
          "internalType": "bytes32",
          "name": "role",
          "type": "bytes32"
        },
        {
          "indexed": true,
          "internalType": "address",
          "name": "account",
          "type": "address"
        },
        {
          "indexed": true,
          "internalType": "address",
          "name": "sender",
          "type": "address"
        }
      ],
      "name": "RoleGranted",
      "type": "event"
    },
    {
      "anonymous": false,
      "inputs": [
        {
          "indexed": true,
          "internalType": "bytes32",
          "name": "role",
          "type": "bytes32"
        },
        {
          "indexed": true,
          "internalType": "address",
          "name": "account",
          "type": "address"
        },
        {
          "indexed": true,
          "internalType": "address",
          "name": "sender",
          "type": "address"
        }
      ],
      "name": "RoleRevoked",
      "type": "event"
    },
    {
      "anonymous": false,
      "inputs": [
        {
          "indexed": false,
          "internalType": "uint256",
          "name": "newRoyaltyBps",
          "type": "uint256"
        }
      ],
      "name": "RoyaltyUpdated",
      "type": "event"
    },
    {
      "anonymous": false,
      "inputs": [
        {
          "indexed": true,
          "internalType": "address",
          "name": "mintedTo",
          "type": "address"
        },
        {
          "indexed": true,
          "internalType": "uint256",
          "name": "tokenIdMinted",
          "type": "uint256"
        },
        {
          "indexed": false,
          "internalType": "string",
          "name": "uri",
          "type": "string"
        },
        {
          "indexed": false,
          "internalType": "uint256",
          "name": "quantityMinted",
          "type": "uint256"
        }
      ],
      "name": "TokenMinted",
      "type": "event"
    },
    {
      "anonymous": false,
      "inputs": [
        {
          "indexed": true,
          "internalType": "address",
          "name": "operator",
          "type": "address"
        },
        {
          "indexed": true,
          "internalType": "address",
          "name": "from",
          "type": "address"
        },
        {
          "indexed": true,
          "internalType": "address",
          "name": "to",
          "type": "address"
        },
        {
          "indexed": false,
          "internalType": "uint256[]",
          "name": "ids",
          "type": "uint256[]"
        },
        {
          "indexed": false,
          "internalType": "uint256[]",
          "name": "values",
          "type": "uint256[]"
        }
      ],
      "name": "TransferBatch",
      "type": "event"
    },
    {
      "anonymous": false,
      "inputs": [
        {
          "indexed": true,
          "internalType": "address",
          "name": "operator",
          "type": "address"
        },
        {
          "indexed": true,
          "internalType": "address",
          "name": "from",
          "type": "address"
        },
        {
          "indexed": true,
          "internalType": "address",
          "name": "to",
          "type": "address"
        },
        {
          "indexed": false,
          "internalType": "uint256",
          "name": "id",
          "type": "uint256"
        },
        {
          "indexed": false,
          "internalType": "uint256",
          "name": "value",
          "type": "uint256"
        }
      ],
      "name": "TransferSingle",
      "type": "event"
    },
    {
      "anonymous": false,
      "inputs": [
        {
          "indexed": false,
          "internalType": "bool",
          "name": "restricted",
          "type": "bool"
        }
      ],
      "name": "TransfersRestricted",
      "type": "event"
    },
    {
      "anonymous": false,
      "inputs": [
        {
          "indexed": false,
          "internalType": "string",
          "name": "value",
          "type": "string"
        },
        {
          "indexed": true,
          "internalType": "uint256",
          "name": "id",
          "type": "uint256"
        }
      ],
      "name": "URI",
      "type": "event"
    },
    {
      "inputs": [],
      "name": "DEFAULT_ADMIN_ROLE",
      "outputs": [
        {
          "internalType": "bytes32",
          "name": "",
          "type": "bytes32"
        }
      ],
      "stateMutability": "view",
      "type": "function"
    },
    {
      "inputs": [],
      "name": "MINTER_ROLE",
      "outputs": [
        {
          "internalType": "bytes32",
          "name": "",
          "type": "bytes32"
        }
      ],
      "stateMutability": "view",
      "type": "function"
    },
    {
      "inputs": [],
      "name": "TRANSFER_ROLE",
      "outputs": [
        {
          "internalType": "bytes32",
          "name": "",
          "type": "bytes32"
        }
      ],
      "stateMutability": "view",
      "type": "function"
    },
    {
      "inputs": [
        {
          "internalType": "address",
          "name": "account",
          "type": "address"
        },
        {
          "internalType": "uint256",
          "name": "id",
          "type": "uint256"
        }
      ],
      "name": "balanceOf",
      "outputs": [
        {
          "internalType": "uint256",
          "name": "",
          "type": "uint256"
        }
      ],
      "stateMutability": "view",
      "type": "function"
    },
    {
      "inputs": [
        {
          "internalType": "address[]",
          "name": "accounts",
          "type": "address[]"
        },
        {
          "internalType": "uint256[]",
          "name": "ids",
          "type": "uint256[]"
        }
      ],
      "name": "balanceOfBatch",
      "outputs": [
        {
          "internalType": "uint256[]",
          "name": "",
          "type": "uint256[]"
        }
      ],
      "stateMutability": "view",
      "type": "function"
    },
    {
      "inputs": [
        {
          "internalType": "address",
          "name": "account",
          "type": "address"
        },
        {
          "internalType": "uint256",
          "name": "id",
          "type": "uint256"
        },
        {
          "internalType": "uint256",
          "name": "value",
          "type": "uint256"
        }
      ],
      "name": "burn",
      "outputs": [],
      "stateMutability": "nonpayable",
      "type": "function"
    },
    {
      "inputs": [
        {
          "internalType": "address",
          "name": "account",
          "type": "address"
        },
        {
          "internalType": "uint256[]",
          "name": "ids",
          "type": "uint256[]"
        },
        {
          "internalType": "uint256[]",
          "name": "values",
          "type": "uint256[]"
        }
      ],
      "name": "burnBatch",
      "outputs": [],
      "stateMutability": "nonpayable",
      "type": "function"
    },
    {
      "inputs": [],
      "name": "contractURI",
      "outputs": [
        {
          "internalType": "string",
          "name": "",
          "type": "string"
        }
      ],
      "stateMutability": "view",
      "type": "function"
    },
    {
      "inputs": [],
      "name": "defaultSaleRecipient",
      "outputs": [
        {
          "internalType": "address",
          "name": "",
          "type": "address"
        }
      ],
      "stateMutability": "view",
      "type": "function"
    },
    {
      "inputs": [],
      "name": "feeBps",
      "outputs": [
        {
          "internalType": "uint120",
          "name": "",
          "type": "uint120"
        }
      ],
      "stateMutability": "view",
      "type": "function"
    },
    {
      "inputs": [
        {
          "internalType": "bytes32",
          "name": "role",
          "type": "bytes32"
        }
      ],
      "name": "getRoleAdmin",
      "outputs": [
        {
          "internalType": "bytes32",
          "name": "",
          "type": "bytes32"
        }
      ],
      "stateMutability": "view",
      "type": "function"
    },
    {
      "inputs": [
        {
          "internalType": "bytes32",
          "name": "role",
          "type": "bytes32"
        },
        {
          "internalType": "uint256",
          "name": "index",
          "type": "uint256"
        }
      ],
      "name": "getRoleMember",
      "outputs": [
        {
          "internalType": "address",
          "name": "",
          "type": "address"
        }
      ],
      "stateMutability": "view",
      "type": "function"
    },
    {
      "inputs": [
        {
          "internalType": "bytes32",
          "name": "role",
          "type": "bytes32"
        }
      ],
      "name": "getRoleMemberCount",
      "outputs": [
        {
          "internalType": "uint256",
          "name": "",
          "type": "uint256"
        }
      ],
      "stateMutability": "view",
      "type": "function"
    },
    {
      "inputs": [
        {
          "internalType": "bytes32",
          "name": "role",
          "type": "bytes32"
        },
        {
          "internalType": "address",
          "name": "account",
          "type": "address"
        }
      ],
      "name": "grantRole",
      "outputs": [],
      "stateMutability": "nonpayable",
      "type": "function"
    },
    {
      "inputs": [
        {
          "internalType": "bytes32",
          "name": "role",
          "type": "bytes32"
        },
        {
          "internalType": "address",
          "name": "account",
          "type": "address"
        }
      ],
      "name": "hasRole",
      "outputs": [
        {
          "internalType": "bool",
          "name": "",
          "type": "bool"
        }
      ],
      "stateMutability": "view",
      "type": "function"
    },
    {
      "inputs": [
        {
          "internalType": "address",
          "name": "account",
          "type": "address"
        },
        {
          "internalType": "address",
          "name": "operator",
          "type": "address"
        }
      ],
      "name": "isApprovedForAll",
      "outputs": [
        {
          "internalType": "bool",
          "name": "",
          "type": "bool"
        }
      ],
      "stateMutability": "view",
      "type": "function"
    },
    {
      "inputs": [
        {
          "internalType": "address",
          "name": "forwarder",
          "type": "address"
        }
      ],
      "name": "isTrustedForwarder",
      "outputs": [
        {
          "internalType": "bool",
          "name": "",
          "type": "bool"
        }
      ],
      "stateMutability": "view",
      "type": "function"
    },
    {
      "inputs": [
        {
          "internalType": "address",
          "name": "_to",
          "type": "address"
        },
        {
          "internalType": "string",
          "name": "_uri",
          "type": "string"
        },
        {
          "internalType": "uint256",
          "name": "_amount",
          "type": "uint256"
        }
      ],
      "name": "mintTo",
      "outputs": [],
      "stateMutability": "nonpayable",
      "type": "function"
    },
    {
      "inputs": [
        {
          "components": [
            {
              "internalType": "address",
              "name": "to",
              "type": "address"
            },
            {
              "internalType": "uint256",
              "name": "tokenId",
              "type": "uint256"
            },
            {
              "internalType": "string",
              "name": "uri",
              "type": "string"
            },
            {
              "internalType": "uint256",
              "name": "quantity",
              "type": "uint256"
            },
            {
              "internalType": "uint256",
              "name": "pricePerToken",
              "type": "uint256"
            },
            {
              "internalType": "address",
              "name": "currency",
              "type": "address"
            },
            {
              "internalType": "uint128",
              "name": "validityStartTimestamp",
              "type": "uint128"
            },
            {
              "internalType": "uint128",
              "name": "validityEndTimestamp",
              "type": "uint128"
            },
            {
              "internalType": "bytes32",
              "name": "uid",
              "type": "bytes32"
            }
          ],
          "internalType": "struct ISignatureMint1155.MintRequest",
          "name": "_req",
          "type": "tuple"
        },
        {
          "internalType": "bytes",
          "name": "_signature",
          "type": "bytes"
        }
      ],
      "name": "mintWithSignature",
      "outputs": [],
      "stateMutability": "payable",
      "type": "function"
    },
    {
      "inputs": [
        {
          "internalType": "bytes[]",
          "name": "data",
          "type": "bytes[]"
        }
      ],
      "name": "multicall",
      "outputs": [
        {
          "internalType": "bytes[]",
          "name": "results",
          "type": "bytes[]"
        }
      ],
      "stateMutability": "nonpayable",
      "type": "function"
    },
    {
      "inputs": [],
      "name": "nativeTokenWrapper",
      "outputs": [
        {
          "internalType": "address",
          "name": "",
          "type": "address"
        }
      ],
      "stateMutability": "view",
      "type": "function"
    },
    {
      "inputs": [],
      "name": "nextTokenIdToMint",
      "outputs": [
        {
          "internalType": "uint256",
          "name": "",
          "type": "uint256"
        }
      ],
      "stateMutability": "view",
      "type": "function"
    },
    {
      "inputs": [],
      "name": "owner",
      "outputs": [
        {
          "internalType": "address",
          "name": "",
          "type": "address"
        }
      ],
      "stateMutability": "view",
      "type": "function"
    },
    {
      "inputs": [
        {
          "internalType": "bytes32",
          "name": "role",
          "type": "bytes32"
        },
        {
          "internalType": "address",
          "name": "account",
          "type": "address"
        }
      ],
      "name": "renounceRole",
      "outputs": [],
      "stateMutability": "nonpayable",
      "type": "function"
    },
    {
      "inputs": [
        {
          "internalType": "bytes32",
          "name": "role",
          "type": "bytes32"
        },
        {
          "internalType": "address",
          "name": "account",
          "type": "address"
        }
      ],
      "name": "revokeRole",
      "outputs": [],
      "stateMutability": "nonpayable",
      "type": "function"
    },
    {
      "inputs": [],
      "name": "royaltyBps",
      "outputs": [
        {
          "internalType": "uint64",
          "name": "",
          "type": "uint64"
        }
      ],
      "stateMutability": "view",
      "type": "function"
    },
    {
      "inputs": [
        {
          "internalType": "uint256",
          "name": "",
          "type": "uint256"
        },
        {
          "internalType": "uint256",
          "name": "salePrice",
          "type": "uint256"
        }
      ],
      "name": "royaltyInfo",
      "outputs": [
        {
          "internalType": "address",
          "name": "receiver",
          "type": "address"
        },
        {
          "internalType": "uint256",
          "name": "royaltyAmount",
          "type": "uint256"
        }
      ],
      "stateMutability": "view",
      "type": "function"
    },
    {
      "inputs": [
        {
          "internalType": "address",
          "name": "from",
          "type": "address"
        },
        {
          "internalType": "address",
          "name": "to",
          "type": "address"
        },
        {
          "internalType": "uint256[]",
          "name": "ids",
          "type": "uint256[]"
        },
        {
          "internalType": "uint256[]",
          "name": "amounts",
          "type": "uint256[]"
        },
        {
          "internalType": "bytes",
          "name": "data",
          "type": "bytes"
        }
      ],
      "name": "safeBatchTransferFrom",
      "outputs": [],
      "stateMutability": "nonpayable",
      "type": "function"
    },
    {
      "inputs": [
        {
          "internalType": "address",
          "name": "from",
          "type": "address"
        },
        {
          "internalType": "address",
          "name": "to",
          "type": "address"
        },
        {
          "internalType": "uint256",
          "name": "id",
          "type": "uint256"
        },
        {
          "internalType": "uint256",
          "name": "amount",
          "type": "uint256"
        },
        {
          "internalType": "bytes",
          "name": "data",
          "type": "bytes"
        }
      ],
      "name": "safeTransferFrom",
      "outputs": [],
      "stateMutability": "nonpayable",
      "type": "function"
    },
    {
      "inputs": [
        {
          "internalType": "uint256",
          "name": "",
          "type": "uint256"
        }
      ],
      "name": "saleRecipient",
      "outputs": [
        {
          "internalType": "address",
          "name": "",
          "type": "address"
        }
      ],
      "stateMutability": "view",
      "type": "function"
    },
    {
      "inputs": [
        {
          "internalType": "address",
          "name": "operator",
          "type": "address"
        },
        {
          "internalType": "bool",
          "name": "approved",
          "type": "bool"
        }
      ],
      "name": "setApprovalForAll",
      "outputs": [],
      "stateMutability": "nonpayable",
      "type": "function"
    },
    {
      "inputs": [
        {
          "internalType": "string",
          "name": "_uri",
          "type": "string"
        }
      ],
      "name": "setContractURI",
      "outputs": [],
      "stateMutability": "nonpayable",
      "type": "function"
    },
    {
      "inputs": [
        {
          "internalType": "address",
          "name": "_saleRecipient",
          "type": "address"
        }
      ],
      "name": "setDefaultSaleRecipient",
      "outputs": [],
      "stateMutability": "nonpayable",
      "type": "function"
    },
    {
      "inputs": [
        {
          "internalType": "uint256",
          "name": "_feeBps",
          "type": "uint256"
        }
      ],
      "name": "setFeeBps",
      "outputs": [],
      "stateMutability": "nonpayable",
      "type": "function"
    },
    {
      "inputs": [
        {
          "internalType": "address",
          "name": "_newOwner",
          "type": "address"
        }
      ],
      "name": "setOwner",
      "outputs": [],
      "stateMutability": "nonpayable",
      "type": "function"
    },
    {
      "inputs": [
        {
          "internalType": "bool",
          "name": "_restrictedTransfer",
          "type": "bool"
        }
      ],
      "name": "setRestrictedTransfer",
      "outputs": [],
      "stateMutability": "nonpayable",
      "type": "function"
    },
    {
      "inputs": [
        {
          "internalType": "uint256",
          "name": "_royaltyBps",
          "type": "uint256"
        }
      ],
      "name": "setRoyaltyBps",
      "outputs": [],
      "stateMutability": "nonpayable",
      "type": "function"
    },
    {
      "inputs": [
        {
          "internalType": "uint256",
          "name": "_tokenId",
          "type": "uint256"
        },
        {
          "internalType": "address",
          "name": "_saleRecipient",
          "type": "address"
        }
      ],
      "name": "setSaleRecipient",
      "outputs": [],
      "stateMutability": "nonpayable",
      "type": "function"
    },
    {
      "inputs": [
        {
          "internalType": "bytes4",
          "name": "interfaceId",
          "type": "bytes4"
        }
      ],
      "name": "supportsInterface",
      "outputs": [
        {
          "internalType": "bool",
          "name": "",
          "type": "bool"
        }
      ],
      "stateMutability": "view",
      "type": "function"
    },
    {
      "inputs": [
        {
          "internalType": "uint256",
          "name": "_tokenId",
          "type": "uint256"
        }
      ],
      "name": "tokenURI",
      "outputs": [
        {
          "internalType": "string",
          "name": "",
          "type": "string"
        }
      ],
      "stateMutability": "view",
      "type": "function"
    },
    {
      "inputs": [
        {
          "internalType": "uint256",
          "name": "",
          "type": "uint256"
        }
      ],
      "name": "totalSupply",
      "outputs": [
        {
          "internalType": "uint256",
          "name": "",
          "type": "uint256"
        }
      ],
      "stateMutability": "view",
      "type": "function"
    },
    {
      "inputs": [],
      "name": "transfersRestricted",
      "outputs": [
        {
          "internalType": "bool",
          "name": "",
          "type": "bool"
        }
      ],
      "stateMutability": "view",
      "type": "function"
    },
    {
      "inputs": [
        {
          "internalType": "uint256",
          "name": "_tokenId",
          "type": "uint256"
        }
      ],
      "name": "uri",
      "outputs": [
        {
          "internalType": "string",
          "name": "",
          "type": "string"
        }
      ],
      "stateMutability": "view",
      "type": "function"
    },
    {
      "inputs": [
        {
          "components": [
            {
              "internalType": "address",
              "name": "to",
              "type": "address"
            },
            {
              "internalType": "uint256",
              "name": "tokenId",
              "type": "uint256"
            },
            {
              "internalType": "string",
              "name": "uri",
              "type": "string"
            },
            {
              "internalType": "uint256",
              "name": "quantity",
              "type": "uint256"
            },
            {
              "internalType": "uint256",
              "name": "pricePerToken",
              "type": "uint256"
            },
            {
              "internalType": "address",
              "name": "currency",
              "type": "address"
            },
            {
              "internalType": "uint128",
              "name": "validityStartTimestamp",
              "type": "uint128"
            },
            {
              "internalType": "uint128",
              "name": "validityEndTimestamp",
              "type": "uint128"
            },
            {
              "internalType": "bytes32",
              "name": "uid",
              "type": "bytes32"
            }
          ],
          "internalType": "struct ISignatureMint1155.MintRequest",
          "name": "_req",
          "type": "tuple"
        },
        {
          "internalType": "bytes",
          "name": "_signature",
          "type": "bytes"
        }
      ],
      "name": "verify",
      "outputs": [
        {
          "internalType": "bool",
          "name": "",
          "type": "bool"
        },
        {
          "internalType": "address",
          "name": "",
          "type": "address"
        }
      ],
      "stateMutability": "view",
      "type": "function"
    }
  ],
  "bytecode": "0x6101606040523480156200001257600080fd5b5060405162007327380380620073278339810160408190526200003591620006b8565b846040518060400160405280601181526020017f5369676e61747572654d696e74313135350000000000000000000000000000008152506040518060400160405280600181526020017f310000000000000000000000000000000000000000000000000000000000000081525060405180602001604052806000815250620000c3816200034a60201b60201c565b50815160208084019190912082518383012060e08290526101008190524660a0818152604080517f8b73c3c69bb8fe3d512ecc4cf759cc79239f7b179b0ffacaa9a75d522b39400f81880181905281830187905260608201869052608082019490945230818401528151808203909301835260c001905280519401939093209192909160805230606090811b60c05261012091909152600580547fffffffffffffffffffffffff000000000000000000000000000000000000000090811673ffffffffffffffffffffffffffffffffffffffff988916179091556001600655600c805482168e8916179055908a901b7fffffffffffffffffffffffffffffffffffffffff0000000000000000000000001661014052600980549091169589169590951790945550508851620002029250600b915060208a0190620005cc565b50600980547fffffffff0000000000000000ffffffffffffffffffffffffffffffffffffffff167401000000000000000000000000000000000000000067ffffffffffffffff851602179055600a80547fffffffffffffffffffffffffffffffffff000000000000000000000000000000166effffffffffffffffffffffffffffff831617905560006200029562000363565b600880547fffffffffffffffffffffffff00000000000000000000000000000000000000001673ffffffffffffffffffffffffffffffffffffffff83161790559050620002e460008262000380565b620003107f9f2df0fed2c77648de5860a4cc508cd0818c85b8b8a1ab4ceeef8d981c8956a68262000380565b6200033c7f8502233096d909befbda0999bb8ea2f3a6be3c138b9fbf003752a4c8bce86f6c8262000380565b505050505050505062000872565b80516200035f906002906020840190620005cc565b5050565b60006200037a6200038c60201b620021cb1760201c565b90505b90565b6200035f8282620003ea565b600062000399336200042d565b15620003cd57507fffffffffffffffffffffffffffffffffffffffffffffffffffffffffffffffec36013560601c6200037d565b620003e26200045160201b620022241760201c565b90506200037d565b6200040182826200045560201b620022281760201c565b6000828152600460209081526040909120620004289183906200231d6200054d821b17901c565b505050565b60055473ffffffffffffffffffffffffffffffffffffffff8281169116145b919050565b3390565b600082815260036020908152604080832073ffffffffffffffffffffffffffffffffffffffff8516845290915290205460ff166200035f57600082815260036020908152604080832073ffffffffffffffffffffffffffffffffffffffff85168452909152902080547fffffffffffffffffffffffffffffffffffffffffffffffffffffffffffffff00166001179055620004ef62000363565b73ffffffffffffffffffffffffffffffffffffffff168173ffffffffffffffffffffffffffffffffffffffff16837f2f8788117e7eff1d82e926ec794901d17c78024a50270940304540a733656f0d60405160405180910390a45050565b6000620005718373ffffffffffffffffffffffffffffffffffffffff84166200057a565b90505b92915050565b6000818152600183016020526040812054620005c35750815460018181018455600084815260208082209093018490558454848252828601909352604090209190915562000574565b50600062000574565b828054620005da906200081f565b90600052602060002090601f016020900481019282620005fe576000855562000649565b82601f106200061957805160ff191683800117855562000649565b8280016001018555821562000649579182015b82811115620006495782518255916020019190600101906200062c565b50620006579291506200065b565b5090565b5b808211156200065757600081556001016200065c565b805173ffffffffffffffffffffffffffffffffffffffff811681146200044c57600080fd5b80516fffffffffffffffffffffffffffffffff811681146200044c57600080fd5b600080600080600080600060e0888a031215620006d3578283fd5b875167ffffffffffffffff80821115620006eb578485fd5b818a0191508a601f830112620006ff578485fd5b8151818111156200071457620007146200085c565b604051601f82017fffffffffffffffffffffffffffffffffffffffffffffffffffffffffffffffe0908116603f011681019083821181831017156200075d576200075d6200085c565b81604052828152602093508d8484870101111562000779578788fd5b8791505b828210156200079c57848201840151818301850152908301906200077d565b82821115620007ad57878484830101525b9a50620007bf9150508a820162000672565b97505050620007d16040890162000672565b9450620007e16060890162000672565b9350620007f16080890162000672565b92506200080160a0890162000697565b91506200081160c0890162000697565b905092959891949750929550565b600181811c908216806200083457607f821691505b602082108114156200085657634e487b7160e01b600052602260045260246000fd5b50919050565b634e487b7160e01b600052604160045260246000fd5b60805160a05160c05160601c60e05161010051610120516101405160601c616a38620008ef60003960008181610a2f0152818161453a015281816146690152818161521c01526152a001526000614c1a01526000614c6901526000614c4401526000614b9c01526000614bc601526000614bf00152616a386000f3fe6080604052600436106102e65760003560e01c806372c27b6211610184578063c63adb2b116100d6578063d547741f1161008a578063f242432a11610064578063f242432a146109dd578063f5298aca146109fd578063f9ea29cb14610a1d576102e6565b8063d547741f14610952578063e8a3d48514610972578063e985e9c514610987576102e6565b8063c87b56dd116100bb578063c87b56dd1461034e578063ca15c873146108fe578063d53913931461091e576102e6565b8063c63adb2b14610869578063c7337d6b146108bb576102e6565b806391d1485411610138578063a22cb46511610112578063a22cb465146107ef578063ac9650d81461080f578063bd85b0391461083c576102e6565b806391d1485414610767578063938e3d7b146107ba578063a217fddf146107da576102e6565b80638ba448c2116101695780638ba448c2146107125780638da5cb5b146107325780639010d07c14610747576102e6565b806372c27b62146106c55780638423df79146106e5576102e6565b80632a55205a1161023d5780633b1475a7116101f1578063572b6c05116101cb578063572b6c0514610656578063605b7711146106925780636b20c454146106a5576102e6565b80633b1475a7146105f35780634d4529a0146106095780634e1273f414610629576102e6565b80632f2ff15d116102225780632f2ff15d1461056757806332052e641461058757806336568abe146105d3576102e6565b80632a55205a146104fb5780632eb2c2d614610547576102e6565b80631f72d8311161029f578063248a9ca311610279578063248a9ca31461046357806324a9d8531461049357806324e263a9146104db576102e6565b80631f72d831146103bd578063206b60f9146103dd578063246b436b14610411576102e6565b80630e89341c116102d05780630e89341c1461034e57806313af40351461037b5780631490ee761461039d576102e6565b8062fdd58e146102eb57806301ffc9a71461031e575b600080fd5b3480156102f757600080fd5b5061030b610306366004615c90565b610a51565b6040519081526020015b60405180910390f35b34801561032a57600080fd5b5061033e610339366004615ec1565b610b31565b6040519015158152602001610315565b34801561035a57600080fd5b5061036e610369366004615e64565b610bdc565b60405161031591906162cd565b34801561038757600080fd5b5061039b610396366004615a15565b610c7e565b005b3480156103a957600080fd5b5061039b6103b8366004615a15565b610e25565b3480156103c957600080fd5b5061039b6103d8366004615e64565b610f07565b3480156103e957600080fd5b5061030b7f8502233096d909befbda0999bb8ea2f3a6be3c138b9fbf003752a4c8bce86f6c81565b34801561041d57600080fd5b5060095461043e9073ffffffffffffffffffffffffffffffffffffffff1681565b60405173ffffffffffffffffffffffffffffffffffffffff9091168152602001610315565b34801561046f57600080fd5b5061030b61047e366004615e64565b60009081526003602052604090206001015490565b34801561049f57600080fd5b50600a546104bb906effffffffffffffffffffffffffffff1681565b6040516effffffffffffffffffffffffffffff9091168152602001610315565b3480156104e757600080fd5b5061039b6104f6366004615c36565b611068565b34801561050757600080fd5b5061051b610516366004615ea0565b611128565b6040805173ffffffffffffffffffffffffffffffffffffffff9093168352602083019190915201610315565b34801561055357600080fd5b5061039b610562366004615a85565b611217565b34801561057357600080fd5b5061039b610582366004615e7c565b6112f8565b34801561059357600080fd5b506105a76105a2366004615f39565b61132a565b60408051921515835273ffffffffffffffffffffffffffffffffffffffff909116602083015201610315565b3480156105df57600080fd5b5061039b6105ee366004615e7c565b6113b1565b3480156105ff57600080fd5b5061030b60075481565b34801561061557600080fd5b5061039b610624366004615e7c565b611481565b34801561063557600080fd5b50610649610644366004615cef565b61157e565b604051610315919061628c565b34801561066257600080fd5b5061033e610671366004615a15565b60055473ffffffffffffffffffffffffffffffffffffffff90811691161490565b61039b6106a0366004615f39565b611772565b3480156106b157600080fd5b5061039b6106c0366004615b96565b61199f565b3480156106d157600080fd5b5061039b6106e0366004615e64565b611a7e565b3480156106f157600080fd5b50600a5461033e906f01000000000000000000000000000000900460ff1681565b34801561071e57600080fd5b5061039b61072d366004615e2c565b611bc8565b34801561073e57600080fd5b5061043e611caf565b34801561075357600080fd5b5061043e610762366004615ea0565b611d24565b34801561077357600080fd5b5061033e610782366004615e7c565b600091825260036020908152604080842073ffffffffffffffffffffffffffffffffffffffff93909316845291905290205460ff1690565b3480156107c657600080fd5b5061039b6107d5366004615ef9565b611d43565b3480156107e657600080fd5b5061030b600081565b3480156107fb57600080fd5b5061039b61080a366004615c09565b611dc2565b34801561081b57600080fd5b5061082f61082a366004615dbc565b611dd4565b604051610315919061620d565b34801561084857600080fd5b5061030b610857366004615e64565b600f6020526000908152604090205481565b34801561087557600080fd5b506009546108a29074010000000000000000000000000000000000000000900467ffffffffffffffff1681565b60405167ffffffffffffffff9091168152602001610315565b3480156108c757600080fd5b5061043e6108d6366004615e64565b60106020526000908152604090205473ffffffffffffffffffffffffffffffffffffffff1681565b34801561090a57600080fd5b5061030b610919366004615e64565b611f3e565b34801561092a57600080fd5b5061030b7f9f2df0fed2c77648de5860a4cc508cd0818c85b8b8a1ab4ceeef8d981c8956a681565b34801561095e57600080fd5b5061039b61096d366004615e7c565b611f55565b34801561097e57600080fd5b5061036e611f7d565b34801561099357600080fd5b5061033e6109a2366004615a4d565b73ffffffffffffffffffffffffffffffffffffffff918216600090815260016020908152604080832093909416825291909152205460ff1690565b3480156109e957600080fd5b5061039b6109f8366004615b2f565b61200b565b348015610a0957600080fd5b5061039b610a18366004615cbb565b6120ec565b348015610a2957600080fd5b5061043e7f000000000000000000000000000000000000000000000000000000000000000081565b600073ffffffffffffffffffffffffffffffffffffffff8316610afb576040517f08c379a000000000000000000000000000000000000000000000000000000000815260206004820152602b60248201527f455243313135353a2062616c616e636520717565727920666f7220746865207a60448201527f65726f206164647265737300000000000000000000000000000000000000000060648201526084015b60405180910390fd5b5060008181526020818152604080832073ffffffffffffffffffffffffffffffffffffffff861684529091529020545b92915050565b6000610b3c8261233f565b80610b8857507fffffffff0000000000000000000000000000000000000000000000000000000082167fd9b67a2600000000000000000000000000000000000000000000000000000000145b80610bd457507fffffffff0000000000000000000000000000000000000000000000000000000082167f2a55205a00000000000000000000000000000000000000000000000000000000145b90505b919050565b6000818152600e60205260409020805460609190610bf990616780565b80601f0160208091040260200160405190810160405280929190818152602001828054610c2590616780565b8015610c725780601f10610c4757610100808354040283529160200191610c72565b820191906000526020600020905b815481529060010190602001808311610c5557829003601f168201915b50505050509050919050565b610c8b6000610782612395565b610cf1576040517f08c379a000000000000000000000000000000000000000000000000000000000815260206004820152601160248201527f6e6f74206d6f64756c652061646d696e2e0000000000000000000000000000006044820152606401610af2565b73ffffffffffffffffffffffffffffffffffffffff811660009081527f3617319a054d772f909f7c479a2cebe5066e836a939412e32403c99029b92eff602052604090205460ff16610d9f576040517f08c379a000000000000000000000000000000000000000000000000000000000815260206004820152601b60248201527f6e6577206f776e6572206e6f74206d6f64756c652061646d696e2e00000000006044820152606401610af2565b6008805473ffffffffffffffffffffffffffffffffffffffff8381167fffffffffffffffffffffffff000000000000000000000000000000000000000083168117909355604080519190921680825260208201939093527f70aea8d848e8a90fb7661b227dc522eb6395c3dac71b63cb59edd5c9899b2364910160405180910390a15050565b610e326000610782612395565b610e98576040517f08c379a000000000000000000000000000000000000000000000000000000000815260206004820152601160248201527f6e6f74206d6f64756c652061646d696e2e0000000000000000000000000000006044820152606401610af2565b600980547fffffffffffffffffffffffff00000000000000000000000000000000000000001673ffffffffffffffffffffffffffffffffffffffff83169081179091556040517fed7c53958229df192be89db848f5fe293dac272a385cea89cc8a4cd1ea5fd9d290600090a250565b610f146000610782612395565b610f7a576040517f08c379a000000000000000000000000000000000000000000000000000000000815260206004820152601160248201527f6e6f74206d6f64756c652061646d696e2e0000000000000000000000000000006044820152606401610af2565b612710811115610fe6576040517f08c379a000000000000000000000000000000000000000000000000000000000815260206004820152600d60248201527f627073203c3d2031303030302e000000000000000000000000000000000000006044820152606401610af2565b600980547fffffffff0000000000000000ffffffffffffffffffffffffffffffffffffffff167401000000000000000000000000000000000000000067ffffffffffffffff8416021790556040518181527f244ea8d7627f5a08f4299862bd5a45752842c183aee5b0fb0d1e4887bfa605b3906020015b60405180910390a150565b6110947f9f2df0fed2c77648de5860a4cc508cd0818c85b8b8a1ab4ceeef8d981c8956a6610782612395565b6110fa576040517f08c379a000000000000000000000000000000000000000000000000000000000815260206004820152600b60248201527f6e6f74206d696e7465722e0000000000000000000000000000000000000000006044820152606401610af2565b6007805490600190600061110e83856165c3565b909155506111219050858585848661239f565b5050505050565b600c546040517ff2aab4b3000000000000000000000000000000000000000000000000000000008152306004820152600091829173ffffffffffffffffffffffffffffffffffffffff9091169063f2aab4b39060240160206040518083038186803b15801561119657600080fd5b505afa1580156111aa573d6000803e3d6000fd5b505050506040513d601f19601f820116820180604052508101906111ce9190615a31565b600954909250612710906112049074010000000000000000000000000000000000000000900467ffffffffffffffff1685616614565b61120e91906165db565b90509250929050565b61121f612395565b73ffffffffffffffffffffffffffffffffffffffff168573ffffffffffffffffffffffffffffffffffffffff16148061125f575061125f856109a2612395565b6112eb576040517f08c379a000000000000000000000000000000000000000000000000000000000815260206004820152603260248201527f455243313135353a207472616e736665722063616c6c6572206973206e6f742060448201527f6f776e6572206e6f7220617070726f76656400000000000000000000000000006064820152608401610af2565b61112185858585856124c7565b60008281526003602052604090206001015461131b81611316612395565b612868565b611325838361293a565b505050565b600080600061133a86868661295c565b6101008701356000908152600d602052604090205490915060ff161580156113a6575073ffffffffffffffffffffffffffffffffffffffff811660009081527f5562e70da342db81569f3094d36be279beaca7ad8e08f434ea188e79d2bfe10c602052604090205460ff165b969095509350505050565b6113b9612395565b73ffffffffffffffffffffffffffffffffffffffff168173ffffffffffffffffffffffffffffffffffffffff1614611473576040517f08c379a000000000000000000000000000000000000000000000000000000000815260206004820152602f60248201527f416363657373436f6e74726f6c3a2063616e206f6e6c792072656e6f756e636560448201527f20726f6c657320666f722073656c6600000000000000000000000000000000006064820152608401610af2565b61147d8282612add565b5050565b61148e6000610782612395565b6114f4576040517f08c379a000000000000000000000000000000000000000000000000000000000815260206004820152601160248201527f6e6f74206d6f64756c652061646d696e2e0000000000000000000000000000006044820152606401610af2565b600082815260106020908152604080832080547fffffffffffffffffffffffff00000000000000000000000000000000000000001673ffffffffffffffffffffffffffffffffffffffff86169081179091559051928352849290917fdfa24b2c84f4b56930965774ade10cc0167141522e42b2863e191e8426fdc7d3910160405180910390a35050565b60608151835114611611576040517f08c379a000000000000000000000000000000000000000000000000000000000815260206004820152602960248201527f455243313135353a206163636f756e747320616e6420696473206c656e67746860448201527f206d69736d6174636800000000000000000000000000000000000000000000006064820152608401610af2565b6000835167ffffffffffffffff811115611654577f4e487b7100000000000000000000000000000000000000000000000000000000600052604160045260246000fd5b60405190808252806020026020018201604052801561167d578160200160208202803683370190505b50905060005b845181101561176a576117168582815181106116c8577f4e487b7100000000000000000000000000000000000000000000000000000000600052603260045260246000fd5b6020026020010151858381518110611709577f4e487b7100000000000000000000000000000000000000000000000000000000600052603260045260246000fd5b6020026020010151610a51565b82828151811061174f577f4e487b7100000000000000000000000000000000000000000000000000000000600052603260045260246000fd5b60209081029190910101526117638161681f565b9050611683565b509392505050565b600260065414156117df576040517f08c379a000000000000000000000000000000000000000000000000000000000815260206004820152601f60248201527f5265656e7472616e637947756172643a207265656e7472616e742063616c6c006044820152606401610af2565b600260065560006117f1848484612aff565b90506000806118036020870187615a15565b73ffffffffffffffffffffffffffffffffffffffff16146118305761182b6020860186615a15565b611838565b611838612395565b905060007fffffffffffffffffffffffffffffffffffffffffffffffffffffffffffffffff8660200135141561188857506007805490600190600061187d83856165c3565b909155506118fe9050565b6007548660200135106118f7576040517f08c379a000000000000000000000000000000000000000000000000000000000815260206004820152600a60248201527f696e76616c6964206964000000000000000000000000000000000000000000006044820152606401610af2565b5060208501355b61191a8261190f60408901896164cc565b848a6060013561239f565b61192c61192687616668565b82612c7a565b808273ffffffffffffffffffffffffffffffffffffffff168473ffffffffffffffffffffffffffffffffffffffff167f3d1fde64e4f3b7cd1f129ce857793f3cfebb27164fc623e44bdf6d8a2909fdb58960405161198a91906163c6565b60405180910390a45050600160065550505050565b6119a7612395565b73ffffffffffffffffffffffffffffffffffffffff168373ffffffffffffffffffffffffffffffffffffffff1614806119e757506119e7836109a2612395565b611a73576040517f08c379a000000000000000000000000000000000000000000000000000000000815260206004820152602a60248201527f455243313135353a2063616c6c6572206973206e6f74206f776e6572206e6f7260448201527f20617070726f7665642e000000000000000000000000000000000000000000006064820152608401610af2565b611325838383612eb9565b611a8b6000610782612395565b611af1576040517f08c379a000000000000000000000000000000000000000000000000000000000815260206004820152601160248201527f6e6f74206d6f64756c652061646d696e2e0000000000000000000000000000006044820152606401610af2565b612710811115611b5d576040517f08c379a000000000000000000000000000000000000000000000000000000000815260206004820152600d60248201527f627073203c3d2031303030302e000000000000000000000000000000000000006044820152606401610af2565b600a80547fffffffffffffffffffffffffffffffffff000000000000000000000000000000166effffffffffffffffffffffffffffff83161790556040518181527f2440645f96173394eb0d508ef9d0c95e3ddc41c6a10ef86e547fc738df9ecce29060200161105d565b611bd56000610782612395565b611c3b576040517f08c379a000000000000000000000000000000000000000000000000000000000815260206004820152601160248201527f6e6f74206d6f64756c652061646d696e2e0000000000000000000000000000006044820152606401610af2565b600a80548215156f01000000000000000000000000000000027fffffffffffffffffffffffffffffffff00ffffffffffffffffffffffffffffff9091161790556040517f2ebd4f59eaa9d49c5dcd06a0afa8b39bf09928fbd60111acee2f986fa485d0989061105d90831515815260200190565b60085473ffffffffffffffffffffffffffffffffffffffff1660009081527f3617319a054d772f909f7c479a2cebe5066e836a939412e32403c99029b92eff602052604081205460ff16611d04576000611d1e565b60085473ffffffffffffffffffffffffffffffffffffffff165b90505b90565b6000828152600460205260408120611d3c9083613239565b9392505050565b611d506000610782612395565b611db6576040517f08c379a000000000000000000000000000000000000000000000000000000000815260206004820152601160248201527f6e6f74206d6f64756c652061646d696e2e0000000000000000000000000000006044820152606401610af2565b611325600b83836157f2565b61147d611dcd612395565b8383613245565b60608167ffffffffffffffff811115611e16577f4e487b7100000000000000000000000000000000000000000000000000000000600052604160045260246000fd5b604051908082528060200260200182016040528015611e4957816020015b6060815260200190600190039081611e345790505b50905060005b82811015611f3757611ee030858584818110611e94577f4e487b7100000000000000000000000000000000000000000000000000000000600052603260045260246000fd5b9050602002810190611ea691906164cc565b8080601f01602080910402602001604051908101604052809392919081815260200183838082843760009201919091525061339992505050565b828281518110611f19577f4e487b7100000000000000000000000000000000000000000000000000000000600052603260045260246000fd5b60200260200101819052508080611f2f9061681f565b915050611e4f565b5092915050565b6000818152600460205260408120610bd4906133be565b600082815260036020526040902060010154611f7381611316612395565b6113258383612add565b600b8054611f8a90616780565b80601f0160208091040260200160405190810160405280929190818152602001828054611fb690616780565b80156120035780601f10611fd857610100808354040283529160200191612003565b820191906000526020600020905b815481529060010190602001808311611fe657829003601f168201915b505050505081565b612013612395565b73ffffffffffffffffffffffffffffffffffffffff168573ffffffffffffffffffffffffffffffffffffffff1614806120535750612053856109a2612395565b6120df576040517f08c379a000000000000000000000000000000000000000000000000000000000815260206004820152602960248201527f455243313135353a2063616c6c6572206973206e6f74206f776e6572206e6f7260448201527f20617070726f76656400000000000000000000000000000000000000000000006064820152608401610af2565b61112185858585856133c8565b6120f4612395565b73ffffffffffffffffffffffffffffffffffffffff168373ffffffffffffffffffffffffffffffffffffffff1614806121345750612134836109a2612395565b6121c0576040517f08c379a000000000000000000000000000000000000000000000000000000000815260206004820152602a60248201527f455243313135353a2063616c6c6572206973206e6f74206f776e6572206e6f7260448201527f20617070726f7665642e000000000000000000000000000000000000000000006064820152608401610af2565b611325838383613613565b60055460009073ffffffffffffffffffffffffffffffffffffffff1633141561221b57507fffffffffffffffffffffffffffffffffffffffffffffffffffffffffffffffec36013560601c611d21565b335b9050611d21565b3390565b600082815260036020908152604080832073ffffffffffffffffffffffffffffffffffffffff8516845290915290205460ff1661147d57600082815260036020908152604080832073ffffffffffffffffffffffffffffffffffffffff85168452909152902080547fffffffffffffffffffffffffffffffffffffffffffffffffffffffffffffff001660011790556122bf612395565b73ffffffffffffffffffffffffffffffffffffffff168173ffffffffffffffffffffffffffffffffffffffff16837f2f8788117e7eff1d82e926ec794901d17c78024a50270940304540a733656f0d60405160405180910390a45050565b6000611d3c8373ffffffffffffffffffffffffffffffffffffffff8416613825565b60007fffffffff0000000000000000000000000000000000000000000000000000000082167f5a05180f000000000000000000000000000000000000000000000000000000001480610bd45750610bd482613874565b6000611d1e6121cb565b6000828152600e6020526040902080546123b890616780565b151590506124425782612427576040517f08c379a000000000000000000000000000000000000000000000000000000000815260206004820152600a60248201527f656d707479207572692e000000000000000000000000000000000000000000006044820152606401610af2565b6000828152600e602052604090206124409085856157f2565b505b61245d858383604051806020016040528060008152506138ca565b818573ffffffffffffffffffffffffffffffffffffffff167faaabadf30377b070ea448b56e05e18337b24c16080fd4d7cac341320baa8b65a600e6000868152602001908152602001600020846040516124b89291906162e0565b60405180910390a35050505050565b8151835114612558576040517f08c379a000000000000000000000000000000000000000000000000000000000815260206004820152602860248201527f455243313135353a2069647320616e6420616d6f756e7473206c656e6774682060448201527f6d69736d617463680000000000000000000000000000000000000000000000006064820152608401610af2565b73ffffffffffffffffffffffffffffffffffffffff84166125fb576040517f08c379a000000000000000000000000000000000000000000000000000000000815260206004820152602560248201527f455243313135353a207472616e7366657220746f20746865207a65726f20616460448201527f64726573730000000000000000000000000000000000000000000000000000006064820152608401610af2565b6000612605612395565b9050612615818787878787613a33565b60005b84518110156127d357600085828151811061265c577f4e487b7100000000000000000000000000000000000000000000000000000000600052603260045260246000fd5b6020026020010151905060008583815181106126a1577f4e487b7100000000000000000000000000000000000000000000000000000000600052603260045260246000fd5b6020908102919091018101516000848152808352604080822073ffffffffffffffffffffffffffffffffffffffff8e16835290935291909120549091508181101561276e576040517f08c379a000000000000000000000000000000000000000000000000000000000815260206004820152602a60248201527f455243313135353a20696e73756666696369656e742062616c616e636520666f60448201527f72207472616e73666572000000000000000000000000000000000000000000006064820152608401610af2565b60008381526020818152604080832073ffffffffffffffffffffffffffffffffffffffff8e8116855292528083208585039055908b168252812080548492906127b89084906165c3565b92505081905550505050806127cc9061681f565b9050612618565b508473ffffffffffffffffffffffffffffffffffffffff168673ffffffffffffffffffffffffffffffffffffffff168273ffffffffffffffffffffffffffffffffffffffff167f4a39dc06d4c0dbc64b70af90fd698a233a518aa5d07e595d983b8c0526c8f7fb878760405161284a92919061629f565b60405180910390a4612860818787878787613d77565b505050505050565b600082815260036020908152604080832073ffffffffffffffffffffffffffffffffffffffff8516845290915290205460ff1661147d576128c08173ffffffffffffffffffffffffffffffffffffffff166014614011565b6128cb836020614011565b6040516020016128dc9291906160d1565b604080517fffffffffffffffffffffffffffffffffffffffffffffffffffffffffffffffe0818403018152908290527f08c379a0000000000000000000000000000000000000000000000000000000008252610af2916004016162cd565b6129448282612228565b6000828152600460205260409020611325908261231d565b6000612ad583838080601f016020809104026020016040519081016040528093929190818152602001838380828437600092019190915250612acf92507fca10dfeb2b35bb1971ef5de464f3b3a8cf90267bc61b3ad244a18e6a7048b2a391506129cb90506020890189615a15565b60208901356129dd60408b018b6164cc565b6040516129eb9291906160a5565b60405190819003902060608b013560808c0135612a0e60c08e0160a08f01615a15565b8d60c0016020810190612a219190615fa7565b8e60e0016020810190612a349190615fa7565b60408051602081019a909a5273ffffffffffffffffffffffffffffffffffffffff988916908a01526060890196909652608088019490945260a087019290925260c086015290921660e08401526fffffffffffffffffffffffffffffffff9182166101008085019190915291166101208301528801356101408201526101600160405160208183030381529060405280519060200120614317565b90614380565b949350505050565b612ae7828261439c565b6000828152600460205260409020611325908261448f565b6000806000612b0f86868661132a565b9150915081612b7a576040517f08c379a000000000000000000000000000000000000000000000000000000000815260206004820152601160248201527f696e76616c6964207369676e61747572650000000000000000000000000000006044820152606401610af2565b42612b8b60e0880160c08901615fa7565b6fffffffffffffffffffffffffffffffff1611158015612bcd575042612bb8610100880160e08901615fa7565b6fffffffffffffffffffffffffffffffff1610155b612c33576040517f08c379a000000000000000000000000000000000000000000000000000000000815260206004820152600f60248201527f72657175657374206578706972656400000000000000000000000000000000006044820152606401610af2565b6101008601356000908152600d6020526040902080547fffffffffffffffffffffffffffffffffffffffffffffffffffffffffffffff001660011790559150509392505050565b6080820151612c885761147d565b600082606001518360800151612c9e9190616614565b600a5490915060009061271090612cc6906effffffffffffffffffffffffffffff1684616614565b612cd091906165db565b60a085015190915073ffffffffffffffffffffffffffffffffffffffff1673eeeeeeeeeeeeeeeeeeeeeeeeeeeeeeeeeeeeeeee1415612d7257813414612d72576040517f08c379a000000000000000000000000000000000000000000000000000000000815260206004820152601660248201527f6d7573742073656e6420746f74616c2070726963652e000000000000000000006044820152606401610af2565b60008381526010602052604081205473ffffffffffffffffffffffffffffffffffffffff1615612dc65760008481526010602052604090205473ffffffffffffffffffffffffffffffffffffffff16612de0565b60095473ffffffffffffffffffffffffffffffffffffffff165b9050612e998560a00151612df2612395565b600c546040517ff2aab4b300000000000000000000000000000000000000000000000000000000815230600482015273ffffffffffffffffffffffffffffffffffffffff9091169063f2aab4b39060240160206040518083038186803b158015612e5b57600080fd5b505afa158015612e6f573d6000803e3d6000fd5b505050506040513d601f19601f82011682018060405250810190612e939190615a31565b856144b1565b6111218560a00151612ea9612395565b83612eb48688616651565b6144b1565b73ffffffffffffffffffffffffffffffffffffffff8316612f5c576040517f08c379a000000000000000000000000000000000000000000000000000000000815260206004820152602360248201527f455243313135353a206275726e2066726f6d20746865207a65726f206164647260448201527f65737300000000000000000000000000000000000000000000000000000000006064820152608401610af2565b8051825114612fed576040517f08c379a000000000000000000000000000000000000000000000000000000000815260206004820152602860248201527f455243313135353a2069647320616e6420616d6f756e7473206c656e6774682060448201527f6d69736d617463680000000000000000000000000000000000000000000000006064820152608401610af2565b6000612ff7612395565b905061301781856000868660405180602001604052806000815250613a33565b60005b83518110156131b357600084828151811061305e577f4e487b7100000000000000000000000000000000000000000000000000000000600052603260045260246000fd5b6020026020010151905060008483815181106130a3577f4e487b7100000000000000000000000000000000000000000000000000000000600052603260045260246000fd5b6020908102919091018101516000848152808352604080822073ffffffffffffffffffffffffffffffffffffffff8c16835290935291909120549091508181101561316f576040517f08c379a0000000000000000000000000000000000000000000000000000000008152602060048201526024808201527f455243313135353a206275726e20616d6f756e7420657863656564732062616c60448201527f616e6365000000000000000000000000000000000000000000000000000000006064820152608401610af2565b60009283526020838152604080852073ffffffffffffffffffffffffffffffffffffffff8b16865290915290922091039055806131ab8161681f565b91505061301a565b50600073ffffffffffffffffffffffffffffffffffffffff168473ffffffffffffffffffffffffffffffffffffffff168273ffffffffffffffffffffffffffffffffffffffff167f4a39dc06d4c0dbc64b70af90fd698a233a518aa5d07e595d983b8c0526c8f7fb868660405161322b92919061629f565b60405180910390a450505050565b6000611d3c838361470e565b8173ffffffffffffffffffffffffffffffffffffffff168373ffffffffffffffffffffffffffffffffffffffff161415613301576040517f08c379a000000000000000000000000000000000000000000000000000000000815260206004820152602960248201527f455243313135353a2073657474696e6720617070726f76616c2073746174757360448201527f20666f722073656c6600000000000000000000000000000000000000000000006064820152608401610af2565b73ffffffffffffffffffffffffffffffffffffffff83811660008181526001602090815260408083209487168084529482529182902080547fffffffffffffffffffffffffffffffffffffffffffffffffffffffffffffff001686151590811790915591519182527f17307eab39ab6107e8899845ad3d59bd9653f200f220920489ca2b5937696c31910160405180910390a3505050565b6060611d3c83836040518060600160405280602781526020016169dc6027913961475f565b6000610bd4825490565b73ffffffffffffffffffffffffffffffffffffffff841661346b576040517f08c379a000000000000000000000000000000000000000000000000000000000815260206004820152602560248201527f455243313135353a207472616e7366657220746f20746865207a65726f20616460448201527f64726573730000000000000000000000000000000000000000000000000000006064820152608401610af2565b6000613475612395565b905061349581878761348688614871565b61348f88614871565b87613a33565b60008481526020818152604080832073ffffffffffffffffffffffffffffffffffffffff8a16845290915290205483811015613553576040517f08c379a000000000000000000000000000000000000000000000000000000000815260206004820152602a60248201527f455243313135353a20696e73756666696369656e742062616c616e636520666f60448201527f72207472616e73666572000000000000000000000000000000000000000000006064820152608401610af2565b60008581526020818152604080832073ffffffffffffffffffffffffffffffffffffffff8b811685529252808320878503905590881682528120805486929061359d9084906165c3565b9091555050604080518681526020810186905273ffffffffffffffffffffffffffffffffffffffff808916928a821692918616917fc3d58168c5ae7397731d063d5bbf3d657854427343f4c083240f7aacaa2d0f62910160405180910390a461360a8288888888886148e3565b50505050505050565b73ffffffffffffffffffffffffffffffffffffffff83166136b6576040517f08c379a000000000000000000000000000000000000000000000000000000000815260206004820152602360248201527f455243313135353a206275726e2066726f6d20746865207a65726f206164647260448201527f65737300000000000000000000000000000000000000000000000000000000006064820152608401610af2565b60006136c0612395565b90506136f0818560006136d287614871565b6136db87614871565b60405180602001604052806000815250613a33565b60008381526020818152604080832073ffffffffffffffffffffffffffffffffffffffff88168452909152902054828110156137ad576040517f08c379a0000000000000000000000000000000000000000000000000000000008152602060048201526024808201527f455243313135353a206275726e20616d6f756e7420657863656564732062616c60448201527f616e6365000000000000000000000000000000000000000000000000000000006064820152608401610af2565b60008481526020818152604080832073ffffffffffffffffffffffffffffffffffffffff898116808652918452828520888703905582518981529384018890529092908616917fc3d58168c5ae7397731d063d5bbf3d657854427343f4c083240f7aacaa2d0f62910160405180910390a45050505050565b600081815260018301602052604081205461386c57508154600181810184556000848152602080822090930184905584548482528286019093526040902091909155610b2b565b506000610b2b565b60007fffffffff0000000000000000000000000000000000000000000000000000000082167f7965db0b000000000000000000000000000000000000000000000000000000001480610bd45750610bd482614a9f565b73ffffffffffffffffffffffffffffffffffffffff841661396d576040517f08c379a000000000000000000000000000000000000000000000000000000000815260206004820152602160248201527f455243313135353a206d696e7420746f20746865207a65726f2061646472657360448201527f73000000000000000000000000000000000000000000000000000000000000006064820152608401610af2565b6000613977612395565b90506139898160008761348688614871565b60008481526020818152604080832073ffffffffffffffffffffffffffffffffffffffff89168452909152812080548592906139c69084906165c3565b9091555050604080518581526020810185905273ffffffffffffffffffffffffffffffffffffffff80881692600092918516917fc3d58168c5ae7397731d063d5bbf3d657854427343f4c083240f7aacaa2d0f62910160405180910390a4611121816000878787876148e3565b600a546f01000000000000000000000000000000900460ff168015613a6d575073ffffffffffffffffffffffffffffffffffffffff851615155b8015613a8e575073ffffffffffffffffffffffffffffffffffffffff841615155b15613bb55773ffffffffffffffffffffffffffffffffffffffff851660009081527fd42b1f43d615c6e11d7128c3dc0271972190d90aa8fbf570ea51e7ace340fbbb602052604090205460ff1680613b2a575073ffffffffffffffffffffffffffffffffffffffff841660009081527fd42b1f43d615c6e11d7128c3dc0271972190d90aa8fbf570ea51e7ace340fbbb602052604090205460ff165b613bb5576040517f08c379a0000000000000000000000000000000000000000000000000000000008152602060048201526024808201527f7265737472696374656420746f205452414e534645525f524f4c4520686f6c6460448201527f6572732e000000000000000000000000000000000000000000000000000000006064820152608401610af2565b73ffffffffffffffffffffffffffffffffffffffff8516613c975760005b8351811015613c9557828181518110613c15577f4e487b7100000000000000000000000000000000000000000000000000000000600052603260045260246000fd5b6020026020010151600f6000868481518110613c5a577f4e487b7100000000000000000000000000000000000000000000000000000000600052603260045260246000fd5b602002602001015181526020019081526020016000206000828254613c7f91906165c3565b90915550613c8e90508161681f565b9050613bd3565b505b73ffffffffffffffffffffffffffffffffffffffff84166128605760005b835181101561360a57828181518110613cf7577f4e487b7100000000000000000000000000000000000000000000000000000000600052603260045260246000fd5b6020026020010151600f6000868481518110613d3c577f4e487b7100000000000000000000000000000000000000000000000000000000600052603260045260246000fd5b602002602001015181526020019081526020016000206000828254613d619190616651565b90915550613d7090508161681f565b9050613cb5565b73ffffffffffffffffffffffffffffffffffffffff84163b15612860576040517fbc197c8100000000000000000000000000000000000000000000000000000000815273ffffffffffffffffffffffffffffffffffffffff85169063bc197c8190613dee9089908990889088908890600401616152565b602060405180830381600087803b158015613e0857600080fd5b505af1925050508015613e56575060408051601f3d9081017fffffffffffffffffffffffffffffffffffffffffffffffffffffffffffffffe0168201909252613e5391810190615edd565b60015b613f4057613e626168b6565b806308c379a01415613eb65750613e776168cd565b80613e825750613eb8565b806040517f08c379a0000000000000000000000000000000000000000000000000000000008152600401610af291906162cd565b505b6040517f08c379a000000000000000000000000000000000000000000000000000000000815260206004820152603460248201527f455243313135353a207472616e7366657220746f206e6f6e204552433131353560448201527f526563656976657220696d706c656d656e7465720000000000000000000000006064820152608401610af2565b7fffffffff0000000000000000000000000000000000000000000000000000000081167fbc197c81000000000000000000000000000000000000000000000000000000001461360a576040517f08c379a000000000000000000000000000000000000000000000000000000000815260206004820152602860248201527f455243313135353a204552433131353552656365697665722072656a6563746560448201527f6420746f6b656e730000000000000000000000000000000000000000000000006064820152608401610af2565b60606000614020836002616614565b61402b9060026165c3565b67ffffffffffffffff81111561406a577f4e487b7100000000000000000000000000000000000000000000000000000000600052604160045260246000fd5b6040519080825280601f01601f191660200182016040528015614094576020820181803683370190505b5090507f3000000000000000000000000000000000000000000000000000000000000000816000815181106140f2577f4e487b7100000000000000000000000000000000000000000000000000000000600052603260045260246000fd5b60200101907effffffffffffffffffffffffffffffffffffffffffffffffffffffffffffff1916908160001a9053507f78000000000000000000000000000000000000000000000000000000000000008160018151811061417c577f4e487b7100000000000000000000000000000000000000000000000000000000600052603260045260246000fd5b60200101907effffffffffffffffffffffffffffffffffffffffffffffffffffffffffffff1916908160001a90535060006141b8846002616614565b6141c39060016165c3565b90505b60018111156142ae577f303132333435363738396162636465660000000000000000000000000000000085600f166010811061422b577f4e487b7100000000000000000000000000000000000000000000000000000000600052603260045260246000fd5b1a60f81b828281518110614268577f4e487b7100000000000000000000000000000000000000000000000000000000600052603260045260246000fd5b60200101907effffffffffffffffffffffffffffffffffffffffffffffffffffffffffffff1916908160001a90535060049490941c936142a78161674b565b90506141c6565b508315611d3c576040517f08c379a000000000000000000000000000000000000000000000000000000000815260206004820181905260248201527f537472696e67733a20686578206c656e67746820696e73756666696369656e746044820152606401610af2565b6000610bd4614324614b82565b836040517f19010000000000000000000000000000000000000000000000000000000000006020820152602281018390526042810182905260009060620160405160208183030381529060405280519060200120905092915050565b600080600061438f8585614cb9565b9150915061176a81614d29565b600082815260036020908152604080832073ffffffffffffffffffffffffffffffffffffffff8516845290915290205460ff161561147d57600082815260036020908152604080832073ffffffffffffffffffffffffffffffffffffffff85168452909152902080547fffffffffffffffffffffffffffffffffffffffffffffffffffffffffffffff00169055614431612395565b73ffffffffffffffffffffffffffffffffffffffff168173ffffffffffffffffffffffffffffffffffffffff16837ff6391f5c32d9c69d2a47ea670b442974b53935d1edc7fd64eb21e047a839171b60405160405180910390a45050565b6000611d3c8373ffffffffffffffffffffffffffffffffffffffff841661504a565b806144bb57614708565b73ffffffffffffffffffffffffffffffffffffffff841673eeeeeeeeeeeeeeeeeeeeeeeeeeeeeeeeeeeeeeee14156146fc5773ffffffffffffffffffffffffffffffffffffffff83163014156145ba576040517f2e1a7d4d000000000000000000000000000000000000000000000000000000008152600481018290527f000000000000000000000000000000000000000000000000000000000000000073ffffffffffffffffffffffffffffffffffffffff1690632e1a7d4d90602401600060405180830381600087803b15801561459357600080fd5b505af11580156145a7573d6000803e3d6000fd5b505050506145b582826151b2565b6146f7565b73ffffffffffffffffffffffffffffffffffffffff82163014156146ed57348114614667576040517f08c379a000000000000000000000000000000000000000000000000000000000815260206004820152602d60248201527f6e617469766520746f6b656e2076616c756520646f6573206e6f74206d61746360448201527f682062696420616d6f756e742e000000000000000000000000000000000000006064820152608401610af2565b7f000000000000000000000000000000000000000000000000000000000000000073ffffffffffffffffffffffffffffffffffffffff1663d0e30db0826040518263ffffffff1660e01b81526004016000604051808303818588803b1580156146cf57600080fd5b505af11580156146e3573d6000803e3d6000fd5b50505050506146f7565b6146f782826151b2565b614708565b614708848484846152c3565b50505050565b600082600001828154811061474c577f4e487b7100000000000000000000000000000000000000000000000000000000600052603260045260246000fd5b9060005260206000200154905092915050565b6060833b6147ef576040517f08c379a000000000000000000000000000000000000000000000000000000000815260206004820152602660248201527f416464726573733a2064656c65676174652063616c6c20746f206e6f6e2d636f60448201527f6e747261637400000000000000000000000000000000000000000000000000006064820152608401610af2565b6000808573ffffffffffffffffffffffffffffffffffffffff168560405161481791906160b5565b600060405180830381855af49150503d8060008114614852576040519150601f19603f3d011682016040523d82523d6000602084013e614857565b606091505b509150915061486782828661563f565b9695505050505050565b604080516001808252818301909252606091600091906020808301908036833701905050905082816000815181106148d2577f4e487b7100000000000000000000000000000000000000000000000000000000600052603260045260246000fd5b602090810291909101015292915050565b73ffffffffffffffffffffffffffffffffffffffff84163b15612860576040517ff23a6e6100000000000000000000000000000000000000000000000000000000815273ffffffffffffffffffffffffffffffffffffffff85169063f23a6e619061495a90899089908890889088906004016161bd565b602060405180830381600087803b15801561497457600080fd5b505af19250505080156149c2575060408051601f3d9081017fffffffffffffffffffffffffffffffffffffffffffffffffffffffffffffffe01682019092526149bf91810190615edd565b60015b6149ce57613e626168b6565b7fffffffff0000000000000000000000000000000000000000000000000000000081167ff23a6e61000000000000000000000000000000000000000000000000000000001461360a576040517f08c379a000000000000000000000000000000000000000000000000000000000815260206004820152602860248201527f455243313135353a204552433131353552656365697665722072656a6563746560448201527f6420746f6b656e730000000000000000000000000000000000000000000000006064820152608401610af2565b60007fffffffff0000000000000000000000000000000000000000000000000000000082167fd9b67a26000000000000000000000000000000000000000000000000000000001480614b3257507fffffffff0000000000000000000000000000000000000000000000000000000082167f0e89341c00000000000000000000000000000000000000000000000000000000145b80610bd457507f01ffc9a7000000000000000000000000000000000000000000000000000000007fffffffff00000000000000000000000000000000000000000000000000000000831614610bd4565b60003073ffffffffffffffffffffffffffffffffffffffff7f000000000000000000000000000000000000000000000000000000000000000016148015614be857507f000000000000000000000000000000000000000000000000000000000000000046145b15614c1457507f0000000000000000000000000000000000000000000000000000000000000000611d21565b604080517f00000000000000000000000000000000000000000000000000000000000000006020808301919091527f0000000000000000000000000000000000000000000000000000000000000000828401527f000000000000000000000000000000000000000000000000000000000000000060608301524660808301523060a0808401919091528351808403909101815260c0909201909252805191012061221d565b600080825160411415614cf05760208301516040840151606085015160001a614ce487828585615692565b94509450505050614d22565b825160401415614d1a5760208301516040840151614d0f8683836157aa565b935093505050614d22565b506000905060025b9250929050565b6000816004811115614d64577f4e487b7100000000000000000000000000000000000000000000000000000000600052602160045260246000fd5b1415614d6f57615047565b6001816004811115614daa577f4e487b7100000000000000000000000000000000000000000000000000000000600052602160045260246000fd5b1415614e12576040517f08c379a000000000000000000000000000000000000000000000000000000000815260206004820152601860248201527f45434453413a20696e76616c6964207369676e617475726500000000000000006044820152606401610af2565b6002816004811115614e4d577f4e487b7100000000000000000000000000000000000000000000000000000000600052602160045260246000fd5b1415614eb5576040517f08c379a000000000000000000000000000000000000000000000000000000000815260206004820152601f60248201527f45434453413a20696e76616c6964207369676e6174757265206c656e677468006044820152606401610af2565b6003816004811115614ef0577f4e487b7100000000000000000000000000000000000000000000000000000000600052602160045260246000fd5b1415614f7e576040517f08c379a000000000000000000000000000000000000000000000000000000000815260206004820152602260248201527f45434453413a20696e76616c6964207369676e6174757265202773272076616c60448201527f75650000000000000000000000000000000000000000000000000000000000006064820152608401610af2565b6004816004811115614fb9577f4e487b7100000000000000000000000000000000000000000000000000000000600052602160045260246000fd5b1415615047576040517f08c379a000000000000000000000000000000000000000000000000000000000815260206004820152602260248201527f45434453413a20696e76616c6964207369676e6174757265202776272076616c60448201527f75650000000000000000000000000000000000000000000000000000000000006064820152608401610af2565b50565b600081815260018301602052604081205480156151a857600061506e600183616651565b855490915060009061508290600190616651565b90508181146151355760008660000182815481106150c9577f4e487b7100000000000000000000000000000000000000000000000000000000600052603260045260246000fd5b9060005260206000200154905080876000018481548110615113577f4e487b7100000000000000000000000000000000000000000000000000000000600052603260045260246000fd5b6000918252602080832090910192909255918252600188019052604090208390555b855486908061516d577f4e487b7100000000000000000000000000000000000000000000000000000000600052603160045260246000fd5b600190038181906000526020600020016000905590558560010160008681526020019081526020016000206000905560019350505050610b2b565b6000915050610b2b565b60008273ffffffffffffffffffffffffffffffffffffffff168260405160006040518083038185875af1925050503d806000811461520c576040519150601f19603f3d011682016040523d82523d6000602084013e615211565b606091505b5050905080611325577f000000000000000000000000000000000000000000000000000000000000000073ffffffffffffffffffffffffffffffffffffffff1663d0e30db0836040518263ffffffff1660e01b81526004016000604051808303818588803b15801561528257600080fd5b505af1158015615296573d6000803e3d6000fd5b50505050506113257f00000000000000000000000000000000000000000000000000000000000000003085855b8173ffffffffffffffffffffffffffffffffffffffff168373ffffffffffffffffffffffffffffffffffffffff1614156152fc57614708565b6040517f70a0823100000000000000000000000000000000000000000000000000000000815273ffffffffffffffffffffffffffffffffffffffff8381166004830152600091908616906370a082319060240160206040518083038186803b15801561536757600080fd5b505afa15801561537b573d6000803e3d6000fd5b505050506040513d601f19601f8201168201806040525081019061539f9190615fc1565b9050600073ffffffffffffffffffffffffffffffffffffffff85163014615475576040517f23b872dd00000000000000000000000000000000000000000000000000000000815273ffffffffffffffffffffffffffffffffffffffff86811660048301528581166024830152604482018590528716906323b872dd90606401602060405180830381600087803b15801561543857600080fd5b505af115801561544c573d6000803e3d6000fd5b505050506040513d601f19601f820116820180604052508101906154709190615e48565b61551d565b6040517fa9059cbb00000000000000000000000000000000000000000000000000000000815273ffffffffffffffffffffffffffffffffffffffff85811660048301526024820185905287169063a9059cbb90604401602060405180830381600087803b1580156154e557600080fd5b505af11580156154f9573d6000803e3d6000fd5b505050506040513d601f19601f8201168201806040525081019061551d9190615e48565b6040517f70a0823100000000000000000000000000000000000000000000000000000000815273ffffffffffffffffffffffffffffffffffffffff86811660048301529192506000918816906370a082319060240160206040518083038186803b15801561558a57600080fd5b505afa15801561559e573d6000803e3d6000fd5b505050506040513d601f19601f820116820180604052508101906155c29190615fc1565b90508180156155d957506155d684846165c3565b81145b61360a576040517f08c379a000000000000000000000000000000000000000000000000000000000815260206004820152601c60248201527f6661696c656420746f207472616e736665722063757272656e63792e000000006044820152606401610af2565b6060831561564e575081611d3c565b82511561565e5782518084602001fd5b816040517f08c379a0000000000000000000000000000000000000000000000000000000008152600401610af291906162cd565b6000807f7fffffffffffffffffffffffffffffff5d576e7357a4501ddfe92f46681b20a08311156156c957506000905060036157a1565b8460ff16601b141580156156e157508460ff16601c14155b156156f257506000905060046157a1565b6040805160008082526020820180845289905260ff881692820192909252606081018690526080810185905260019060a0016020604051602081039080840390855afa158015615746573d6000803e3d6000fd5b50506040517fffffffffffffffffffffffffffffffffffffffffffffffffffffffffffffffe0015191505073ffffffffffffffffffffffffffffffffffffffff811661579a576000600192509250506157a1565b9150600090505b94509492505050565b6000807f7fffffffffffffffffffffffffffffffffffffffffffffffffffffffffffffff831660ff84901c601b016157e487828885615692565b935093505050935093915050565b8280546157fe90616780565b90600052602060002090601f0160209004810192826158205760008555615884565b82601f10615857578280017fffffffffffffffffffffffffffffffffffffffffffffffffffffffffffffff00823516178555615884565b82800160010185558215615884579182015b82811115615884578235825591602001919060010190615869565b50615890929150615894565b5090565b5b808211156158905760008155600101615895565b8035610bd78161697d565b600082601f8301126158c4578081fd5b813560206158d18261653c565b6040516158de82826167d4565b8381528281019150858301600585901b870184018810156158fd578586fd5b855b8581101561591b578135845292840192908401906001016158ff565b5090979650505050505050565b60008083601f840112615939578182fd5b50813567ffffffffffffffff811115615950578182fd5b602083019150836020828501011115614d2257600080fd5b600082601f830112615978578081fd5b813567ffffffffffffffff81111561599257615992616887565b6040516159c760207fffffffffffffffffffffffffffffffffffffffffffffffffffffffffffffffe0601f85011601826167d4565b8181528460208386010111156159db578283fd5b816020850160208301379081016020019190915292915050565b80356fffffffffffffffffffffffffffffffff81168114610bd757600080fd5b600060208284031215615a26578081fd5b8135611d3c8161697d565b600060208284031215615a42578081fd5b8151611d3c8161697d565b60008060408385031215615a5f578081fd5b8235615a6a8161697d565b91506020830135615a7a8161697d565b809150509250929050565b600080600080600060a08688031215615a9c578081fd5b8535615aa78161697d565b94506020860135615ab78161697d565b9350604086013567ffffffffffffffff80821115615ad3578283fd5b615adf89838a016158b4565b94506060880135915080821115615af4578283fd5b615b0089838a016158b4565b93506080880135915080821115615b15578283fd5b50615b2288828901615968565b9150509295509295909350565b600080600080600060a08688031215615b46578283fd5b8535615b518161697d565b94506020860135615b618161697d565b93506040860135925060608601359150608086013567ffffffffffffffff811115615b8a578182fd5b615b2288828901615968565b600080600060608486031215615baa578081fd5b8335615bb58161697d565b9250602084013567ffffffffffffffff80821115615bd1578283fd5b615bdd878388016158b4565b93506040860135915080821115615bf2578283fd5b50615bff868287016158b4565b9150509250925092565b60008060408385031215615c1b578182fd5b8235615c268161697d565b91506020830135615a7a8161699f565b60008060008060608587031215615c4b578182fd5b8435615c568161697d565b9350602085013567ffffffffffffffff811115615c71578283fd5b615c7d87828801615928565b9598909750949560400135949350505050565b60008060408385031215615ca2578182fd5b8235615cad8161697d565b946020939093013593505050565b600080600060608486031215615ccf578081fd5b8335615cda8161697d565b95602085013595506040909401359392505050565b60008060408385031215615d01578182fd5b823567ffffffffffffffff80821115615d18578384fd5b818501915085601f830112615d2b578384fd5b81356020615d388261653c565b604051615d4582826167d4565b8381528281019150858301600585901b870184018b1015615d64578889fd5b8896505b84871015615d8f578035615d7b8161697d565b835260019690960195918301918301615d68565b5096505086013592505080821115615da5578283fd5b50615db2858286016158b4565b9150509250929050565b60008060208385031215615dce578182fd5b823567ffffffffffffffff80821115615de5578384fd5b818501915085601f830112615df8578384fd5b813581811115615e06578485fd5b8660208260051b8501011115615e1a578485fd5b60209290920196919550909350505050565b600060208284031215615e3d578081fd5b8135611d3c8161699f565b600060208284031215615e59578081fd5b8151611d3c8161699f565b600060208284031215615e75578081fd5b5035919050565b60008060408385031215615e8e578182fd5b823591506020830135615a7a8161697d565b60008060408385031215615eb2578182fd5b50508035926020909101359150565b600060208284031215615ed2578081fd5b8135611d3c816169ad565b600060208284031215615eee578081fd5b8151611d3c816169ad565b60008060208385031215615f0b578182fd5b823567ffffffffffffffff811115615f21578283fd5b615f2d85828601615928565b90969095509350505050565b600080600060408486031215615f4d578081fd5b833567ffffffffffffffff80821115615f64578283fd5b908501906101208288031215615f78578283fd5b90935060208501359080821115615f8d578283fd5b50615f9a86828701615928565b9497909650939450505050565b600060208284031215615fb8578081fd5b611d3c826159f5565b600060208284031215615fd2578081fd5b5051919050565b6000815180845260208085019450808401835b8381101561600857815187529582019590820190600101615fec565b509495945050505050565b6000815180845261602b81602086016020860161671f565b601f017fffffffffffffffffffffffffffffffffffffffffffffffffffffffffffffffe0169290920160200192915050565b600082845282826020860137806020848601015260207fffffffffffffffffffffffffffffffffffffffffffffffffffffffffffffffe0601f85011685010190509392505050565b6000828483379101908152919050565b600082516160c781846020870161671f565b9190910192915050565b60007f416363657373436f6e74726f6c3a206163636f756e74200000000000000000008252835161610981601785016020880161671f565b7f206973206d697373696e6720726f6c6520000000000000000000000000000000601791840191820152835161614681602884016020880161671f565b01602801949350505050565b600073ffffffffffffffffffffffffffffffffffffffff808816835280871660208401525060a0604083015261618b60a0830186615fd9565b828103606084015261619d8186615fd9565b905082810360808401526161b18185616013565b98975050505050505050565b600073ffffffffffffffffffffffffffffffffffffffff808816835280871660208401525084604083015283606083015260a0608083015261620260a0830184616013565b979650505050505050565b6000602080830181845280855180835260408601915060408160051b8701019250838701855b8281101561627f577fffffffffffffffffffffffffffffffffffffffffffffffffffffffffffffffc088860301845261626d858351616013565b94509285019290850190600101616233565b5092979650505050505050565b600060208252611d3c6020830184615fd9565b6000604082526162b26040830185615fd9565b82810360208401526162c48185615fd9565b95945050505050565b600060208252611d3c6020830184616013565b60006040825280845482600182811c91508083168061630057607f831692505b6020808410821415616339577f4e487b710000000000000000000000000000000000000000000000000000000087526022600452602487fd5b60408801849052606088018280156163585760018114616387576163b1565b7fffffffffffffffffffffffffffffffffffffffffffffffffffffffffffffff008716825282820197506163b1565b60008c815260209020895b878110156163ab57815484820152908601908401616392565b83019850505b50509690960196909652509095945050505050565b6000602082526163f6602083016163dc856158a9565b73ffffffffffffffffffffffffffffffffffffffff169052565b6020830135604083015261640d6040840184616560565b6101208060608601526164256101408601838561605d565b925060608601356080860152608086013560a086015261644760a087016158a9565b73ffffffffffffffffffffffffffffffffffffffff811660c0870152915061647160c087016159f5565b6fffffffffffffffffffffffffffffffff811660e0870152915061649760e087016159f5565b91506101006164b9818701846fffffffffffffffffffffffffffffffff169052565b9590950135939094019290925250919050565b60008083357fffffffffffffffffffffffffffffffffffffffffffffffffffffffffffffffe1843603018112616500578283fd5b83018035915067ffffffffffffffff82111561651a578283fd5b602001915036819003821315614d2257600080fd5b604051610bd782826167d4565b600067ffffffffffffffff82111561655657616556616887565b5060051b60200190565b60008083357fffffffffffffffffffffffffffffffffffffffffffffffffffffffffffffffe1843603018112616594578283fd5b830160208101925035905067ffffffffffffffff8111156165b457600080fd5b803603831315614d2257600080fd5b600082198211156165d6576165d6616858565b500190565b60008261660f577f4e487b710000000000000000000000000000000000000000000000000000000081526012600452602481fd5b500490565b6000817fffffffffffffffffffffffffffffffffffffffffffffffffffffffffffffffff048311821515161561664c5761664c616858565b500290565b60008282101561666357616663616858565b500390565b600061012080833603121561667b578182fd5b6166848161652f565b905061668f836158a9565b815260208301356020820152604083013567ffffffffffffffff8111156166b4578283fd5b6166c036828601615968565b60408301525060608301356060820152608083013560808201526166e660a084016158a9565b60a08201526166f760c084016159f5565b60c082015261670860e084016159f5565b60e082015261010092830135928101929092525090565b60005b8381101561673a578181015183820152602001616722565b838111156147085750506000910152565b60008161675a5761675a616858565b507fffffffffffffffffffffffffffffffffffffffffffffffffffffffffffffffff0190565b600181811c9082168061679457607f821691505b602082108114156167ce577f4e487b7100000000000000000000000000000000000000000000000000000000600052602260045260246000fd5b50919050565b7fffffffffffffffffffffffffffffffffffffffffffffffffffffffffffffffe0601f830116810181811067ffffffffffffffff8211171561681857616818616887565b6040525050565b60007fffffffffffffffffffffffffffffffffffffffffffffffffffffffffffffffff82141561685157616851616858565b5060010190565b7f4e487b7100000000000000000000000000000000000000000000000000000000600052601160045260246000fd5b7f4e487b7100000000000000000000000000000000000000000000000000000000600052604160045260246000fd5b600060033d1115611d2157600481823e5160e01c90565b600060443d10156168dd57611d21565b6040517ffffffffffffffffffffffffffffffffffffffffffffffffffffffffffffffffc803d016004833e81513d67ffffffffffffffff816024840111818411171561692d575050505050611d21565b828501915081518181111561694757505050505050611d21565b843d870101602082850101111561696357505050505050611d21565b616972602082860101876167d4565b509094505050505090565b73ffffffffffffffffffffffffffffffffffffffff8116811461504757600080fd5b801515811461504757600080fd5b7fffffffff000000000000000000000000000000000000000000000000000000008116811461504757600080fdfe416464726573733a206c6f772d6c6576656c2064656c65676174652063616c6c206661696c6564a26469706673582212202ee05fa3e8d7c0d3bb04f3f6067cada72f3b2e214bedd038fc06f0f5824592be64736f6c63430008030033",
  "linkReferences": {},
  "deployedLinkReferences": {}
}