{
  "_format": "hh-sol-artifact-1",
  "contractName": "ExposedRedeemableNFT",
  "sourceName": "contracts/pools/test/ExposedRedeemableNFT.sol",
  "abi": [
    {
      "inputs": [
        {
          "internalType": "address",
          "name": "_nftsAddress",
          "type": "address"
        }
      ],
      "stateMutability": "nonpayable",
      "type": "constructor"
    },
    {
      "anonymous": false,
      "inputs": [
        {
          "indexed": true,
          "internalType": "uint256",
          "name": "nftId",
          "type": "uint256"
        },
        {
          "indexed": true,
          "internalType": "uint256",
          "name": "pointsToRedeem",
          "type": "uint256"
        },
        {
          "indexed": true,
          "internalType": "address",
          "name": "strategyAddress",
          "type": "address"
        },
        {
          "indexed": false,
          "internalType": "address",
          "name": "creator",
          "type": "address"
        }
      ],
      "name": "NFTAdded",
      "type": "event"
    },
    {
      "anonymous": false,
      "inputs": [
        {
          "indexed": true,
          "internalType": "address",
          "name": "user",
          "type": "address"
        },
        {
          "indexed": false,
          "internalType": "uint256",
          "name": "amount",
          "type": "uint256"
        }
      ],
      "name": "NFTRedeemed",
      "type": "event"
    },
    {
      "anonymous": false,
      "inputs": [
        {
          "indexed": true,
          "internalType": "uint256",
          "name": "nftId",
          "type": "uint256"
        },
        {
          "indexed": true,
          "internalType": "address",
          "name": "previousStrategy",
          "type": "address"
        },
        {
          "indexed": true,
          "internalType": "address",
          "name": "newStrategy",
          "type": "address"
        }
      ],
      "name": "NFTStrategyUpdated",
      "type": "event"
    },
    {
      "inputs": [
        {
          "internalType": "uint256",
          "name": "nftId",
          "type": "uint256"
        },
        {
          "internalType": "uint256",
          "name": "pointsToRedeem",
          "type": "uint256"
        },
        {
          "internalType": "address",
          "name": "strategy",
          "type": "address"
        }
      ],
      "name": "addNFT",
      "outputs": [],
      "stateMutability": "nonpayable",
      "type": "function"
    },
    {
      "inputs": [
        {
          "internalType": "address",
          "name": "account",
          "type": "address"
        },
        {
          "internalType": "uint256",
          "name": "pointsToAdd",
          "type": "uint256"
        }
      ],
      "name": "increasePoints",
      "outputs": [],
      "stateMutability": "nonpayable",
      "type": "function"
    },
    {
      "inputs": [
        {
          "internalType": "uint256",
          "name": "",
          "type": "uint256"
        }
      ],
      "name": "nfts",
      "outputs": [
        {
          "internalType": "contract IRedeemableStrategy",
          "name": "strategy",
          "type": "address"
        },
        {
          "internalType": "uint256",
          "name": "pointsToRedeem",
          "type": "uint256"
        },
        {
          "internalType": "address",
          "name": "creator",
          "type": "address"
        }
      ],
      "stateMutability": "view",
      "type": "function"
    },
    {
      "inputs": [],
      "name": "nftsContract",
      "outputs": [
        {
          "internalType": "contract IMetacanaAssets",
          "name": "",
          "type": "address"
        }
      ],
      "stateMutability": "view",
      "type": "function"
    },
    {
      "inputs": [
        {
          "internalType": "address",
          "name": "",
          "type": "address"
        }
      ],
      "name": "points",
      "outputs": [
        {
          "internalType": "uint256",
          "name": "",
          "type": "uint256"
        }
      ],
      "stateMutability": "view",
      "type": "function"
    },
    {
      "inputs": [
        {
          "internalType": "uint256",
          "name": "nftId",
          "type": "uint256"
        }
      ],
      "name": "redeem",
      "outputs": [],
      "stateMutability": "nonpayable",
      "type": "function"
    },
    {
      "inputs": [
        {
          "internalType": "uint256",
          "name": "nftId",
          "type": "uint256"
        },
        {
          "internalType": "address",
          "name": "strategy",
          "type": "address"
        }
      ],
      "name": "updateNFTStrategy",
      "outputs": [],
      "stateMutability": "nonpayable",
      "type": "function"
    }
  ],
  "bytecode": "0x608060405234801561001057600080fd5b506040516109b63803806109b68339818101604052602081101561003357600080fd5b50516000805473ffffffffffffffffffffffffffffffffffffffff9092167fffffffffffffffffffffffff000000000000000000000000000000000000000090921691909117905561092c8061008a6000396000f3fe608060405234801561001057600080fd5b506004361061007d5760003560e01c8063673d0a061161005b578063673d0a061461015d57806385e656f914610196578063c3e3e690146101c7578063db006a75146102005761007d565b8063265aa62114610082578063358b8166146100d7578063584333ed1461011c575b600080fd5b61009f6004803603602081101561009857600080fd5b503561021d565b6040805173ffffffffffffffffffffffffffffffffffffffff9485168152602081019390935292168183015290519081900360600190f35b61010a600480360360208110156100ed57600080fd5b503573ffffffffffffffffffffffffffffffffffffffff16610257565b60408051918252519081900360200190f35b61015b6004803603606081101561013257600080fd5b508035906020810135906040013573ffffffffffffffffffffffffffffffffffffffff16610269565b005b61015b6004803603604081101561017357600080fd5b5073ffffffffffffffffffffffffffffffffffffffff8135169060200135610279565b61019e610287565b6040805173ffffffffffffffffffffffffffffffffffffffff9092168252519081900360200190f35b61015b600480360360408110156101dd57600080fd5b508035906020013573ffffffffffffffffffffffffffffffffffffffff166102a3565b61015b6004803603602081101561021657600080fd5b50356102ad565b600160208190526000918252604090912080549181015460029091015473ffffffffffffffffffffffffffffffffffffffff928316921683565b60026020526000908152604090205481565b6102748383836102b9565b505050565b610283828261037f565b5050565b60005473ffffffffffffffffffffffffffffffffffffffff1681565b61028382826103dc565b6102b6816104d4565b50565b6040805160608101825273ffffffffffffffffffffffffffffffffffffffff80841680835260208084018781523385870181815260008b8152600180865290899020975188549088167fffffffffffffffffffffffff0000000000000000000000000000000000000000918216178955935190880155516002909601805496909516959091169490941790925583519283529251859287927f8d2859dbeda2989ace461ec9b60da19bc4ef71b9cc32b41cb475ee0835915f6792918290030190a4505050565b73ffffffffffffffffffffffffffffffffffffffff82166000908152600260205260409020546103af9082610734565b73ffffffffffffffffffffffffffffffffffffffff90921660009081526002602052604090209190915550565b600082815260016020819052604090912090810154610446576040517f08c379a000000000000000000000000000000000000000000000000000000000815260040180806020018281038252602e8152602001806108c9602e913960400191505060405180910390fd5b805460405173ffffffffffffffffffffffffffffffffffffffff80851692169085907f88ab94ea38fc8ccd3e63207caf4c6ca72efc456e6c0dd09bfb016bdcd370515f90600090a480547fffffffffffffffffffffffff00000000000000000000000000000000000000001673ffffffffffffffffffffffffffffffffffffffff9290921691909117905550565b60008181526001602081905260409091209081015461053e576040517f08c379a00000000000000000000000000000000000000000000000000000000081526004018080602001828103825260248152602001806108a56024913960400191505060405180910390fd5b60018101543360009081526002602052604090205410156105aa576040517f08c379a000000000000000000000000000000000000000000000000000000000815260040180806020018281038252603a81526020018061086b603a913960400191505060405180910390fd5b805473ffffffffffffffffffffffffffffffffffffffff16158061066f57508054604080517fcc1f8ffa00000000000000000000000000000000000000000000000000000000815233600482015260248101859052905173ffffffffffffffffffffffffffffffffffffffff9092169163cc1f8ffa916044808201926020929091908290030181600087803b15801561064257600080fd5b505af1158015610656573d6000803e3d6000fd5b505050506040513d602081101561066c57600080fd5b50515b6106c4576040517f08c379a00000000000000000000000000000000000000000000000000000000081526004018080602001828103825260448152602001806108276044913960600191505060405180910390fd5b6001810154336000908152600260205260409020546106e2916107af565b336000818152600260209081526040918290209390935560018401548151908152905191927f14c9b4d4f4cc58cdc10083ad4d08288a39df874bbf3e4e0846f3fd1352d48c8792918290030190a25050565b6000828201838110156107a857604080517f08c379a000000000000000000000000000000000000000000000000000000000815260206004820152601b60248201527f536166654d6174683a206164646974696f6e206f766572666c6f770000000000604482015290519081900360640190fd5b9392505050565b60008282111561082057604080517f08c379a000000000000000000000000000000000000000000000000000000000815260206004820152601e60248201527f536166654d6174683a207375627472616374696f6e206f766572666c6f770000604482015290519081900360640190fd5b5090039056fe52656465656d61626c654e4654235f72656465656d3a2053656e64657220646f65736e2774206d6565742074686520726571756972656d656e747320746f206d696e742e52656465656d61626c654e4654235f72656465656d3a204e6f7420656e6f75676820706f696e747320746f2072656465656d20666f72204e465452656465656d61626c654e4654235f72656465656d3a204e4654206e6f7420666f756e6452656465656d61626c654e4654237570646174654e465453747261746567793a204e4654206e6f7420666f756e64a2646970667358221220751280fd853cb60a6988ac9cb0c5bbe5d8311a17d51d85af329b10952764777664736f6c63430007040033",
  "linkReferences": {},
  "deployedLinkReferences": {}
}