{
  "_format": "hh-sol-artifact-1",
  "contractName": "ExposedRedeemableNFT",
  "sourceName": "contracts/pools/test/ExposedRedeemableNFT.sol",
  "abi": [
    {
      "inputs": [
        {
          "internalType": "address",
          "name": "_nftsAddress",
          "type": "address"
        }
      ],
      "stateMutability": "nonpayable",
      "type": "constructor"
    },
    {
      "anonymous": false,
      "inputs": [
        {
          "indexed": true,
          "internalType": "uint256",
          "name": "nftId",
          "type": "uint256"
        },
        {
          "indexed": true,
          "internalType": "uint256",
          "name": "pointsToRedeem",
          "type": "uint256"
        },
        {
          "indexed": true,
          "internalType": "address",
          "name": "strategyAddress",
          "type": "address"
        },
        {
          "indexed": false,
          "internalType": "address",
          "name": "creator",
          "type": "address"
        }
      ],
      "name": "NFTAdded",
      "type": "event"
    },
    {
      "anonymous": false,
      "inputs": [
        {
          "indexed": true,
          "internalType": "address",
          "name": "user",
          "type": "address"
        },
        {
          "indexed": false,
          "internalType": "uint256",
          "name": "amount",
          "type": "uint256"
        }
      ],
      "name": "NFTRedeemed",
      "type": "event"
    },
    {
      "anonymous": false,
      "inputs": [
        {
          "indexed": true,
          "internalType": "uint256",
          "name": "nftId",
          "type": "uint256"
        },
        {
          "indexed": true,
          "internalType": "address",
          "name": "previousStrategy",
          "type": "address"
        },
        {
          "indexed": true,
          "internalType": "address",
          "name": "newStrategy",
          "type": "address"
        }
      ],
      "name": "NFTStrategyUpdated",
      "type": "event"
    },
    {
      "inputs": [
        {
          "internalType": "uint256",
          "name": "nftId",
          "type": "uint256"
        },
        {
          "internalType": "uint256",
          "name": "pointsToRedeem",
          "type": "uint256"
        },
        {
          "internalType": "address",
          "name": "strategy",
          "type": "address"
        }
      ],
      "name": "addNFT",
      "outputs": [],
      "stateMutability": "nonpayable",
      "type": "function"
    },
    {
      "inputs": [
        {
          "internalType": "address",
          "name": "account",
          "type": "address"
        },
        {
          "internalType": "uint256",
          "name": "pointsToAdd",
          "type": "uint256"
        }
      ],
      "name": "increasePoints",
      "outputs": [],
      "stateMutability": "nonpayable",
      "type": "function"
    },
    {
      "inputs": [
        {
          "internalType": "uint256",
          "name": "",
          "type": "uint256"
        }
      ],
      "name": "nfts",
      "outputs": [
        {
          "internalType": "contract IRedeemableStrategy",
          "name": "strategy",
          "type": "address"
        },
        {
          "internalType": "uint256",
          "name": "pointsToRedeem",
          "type": "uint256"
        },
        {
          "internalType": "address",
          "name": "creator",
          "type": "address"
        }
      ],
      "stateMutability": "view",
      "type": "function"
    },
    {
      "inputs": [],
      "name": "nftsContract",
      "outputs": [
        {
          "internalType": "contract IMetacanaNFT",
          "name": "",
          "type": "address"
        }
      ],
      "stateMutability": "view",
      "type": "function"
    },
    {
      "inputs": [
        {
          "internalType": "address",
          "name": "",
          "type": "address"
        }
      ],
      "name": "points",
      "outputs": [
        {
          "internalType": "uint256",
          "name": "",
          "type": "uint256"
        }
      ],
      "stateMutability": "view",
      "type": "function"
    },
    {
      "inputs": [
        {
          "internalType": "uint256",
          "name": "nftId",
          "type": "uint256"
        }
      ],
      "name": "redeem",
      "outputs": [],
      "stateMutability": "nonpayable",
      "type": "function"
    },
    {
      "inputs": [
        {
          "internalType": "uint256",
          "name": "nftId",
          "type": "uint256"
        },
        {
          "internalType": "address",
          "name": "strategy",
          "type": "address"
        }
      ],
      "name": "updateNFTStrategy",
      "outputs": [],
      "stateMutability": "nonpayable",
      "type": "function"
    }
  ],
  "bytecode": "0x608060405234801561001057600080fd5b506040516109ff3803806109ff83398101604081905261002f91610079565b600080547fffffffffffffffffffffffff00000000000000000000000000000000000000001673ffffffffffffffffffffffffffffffffffffffff929092169190911790556100b4565b60006020828403121561008a578081fd5b815173ffffffffffffffffffffffffffffffffffffffff811681146100ad578182fd5b9392505050565b61093c806100c36000396000f3fe608060405234801561001057600080fd5b506004361061007d5760003560e01c8063673d0a061161005b578063673d0a061461014957806385e656f91461015c578063c3e3e690146101a1578063db006a75146101b45761007d565b8063265aa62114610082578063358b816614610106578063584333ed14610134575b600080fd5b6100ca610090366004610831565b600160208190526000918252604090912080549181015460029091015473ffffffffffffffffffffffffffffffffffffffff928316921683565b6040805173ffffffffffffffffffffffffffffffffffffffff948516815260208101939093529216918101919091526060015b60405180910390f35b6101266101143660046107ce565b60026020526000908152604090205481565b6040519081526020016100fd565b610147610142366004610874565b6101c7565b005b6101476101573660046107e8565b6101d7565b60005461017c9073ffffffffffffffffffffffffffffffffffffffff1681565b60405173ffffffffffffffffffffffffffffffffffffffff90911681526020016100fd565b6101476101af366004610849565b6101e5565b6101476101c2366004610831565b6101ef565b6101d28383836101fb565b505050565b6101e182826102c1565b5050565b6101e1828261031e565b6101f881610452565b50565b6040805160608101825273ffffffffffffffffffffffffffffffffffffffff83811680835260208084018781523385870181815260008b8152600180865290899020975188549088167fffffffffffffffffffffffff000000000000000000000000000000000000000091821617895593519088015551600290960180549690951695909116949094179092559251918252849186917f8d2859dbeda2989ace461ec9b60da19bc4ef71b9cc32b41cb475ee0835915f67910160405180910390a4505050565b73ffffffffffffffffffffffffffffffffffffffff82166000908152600260205260409020546102f19082610786565b73ffffffffffffffffffffffffffffffffffffffff90921660009081526002602052604090209190915550565b6000828152600160208190526040909120908101546103c4576040517f08c379a000000000000000000000000000000000000000000000000000000000815260206004820152602e60248201527f52656465656d61626c654e4654237570646174654e465453747261746567793a60448201527f204e4654206e6f7420666f756e6400000000000000000000000000000000000060648201526084015b60405180910390fd5b805460405173ffffffffffffffffffffffffffffffffffffffff80851692169085907f88ab94ea38fc8ccd3e63207caf4c6ca72efc456e6c0dd09bfb016bdcd370515f90600090a480547fffffffffffffffffffffffff00000000000000000000000000000000000000001673ffffffffffffffffffffffffffffffffffffffff9290921691909117905550565b6000818152600160208190526040909120908101546104f2576040517f08c379a0000000000000000000000000000000000000000000000000000000008152602060048201526024808201527f52656465656d61626c654e4654235f72656465656d3a204e4654206e6f74206660448201527f6f756e640000000000000000000000000000000000000000000000000000000060648201526084016103bb565b6001810154336000908152600260205260409020541015610595576040517f08c379a000000000000000000000000000000000000000000000000000000000815260206004820152603a60248201527f52656465656d61626c654e4654235f72656465656d3a204e6f7420656e6f756760448201527f6820706f696e747320746f2072656465656d20666f72204e465400000000000060648201526084016103bb565b805473ffffffffffffffffffffffffffffffffffffffff16158061065d575080546040517fcc1f8ffa0000000000000000000000000000000000000000000000000000000081523360048201526024810184905273ffffffffffffffffffffffffffffffffffffffff9091169063cc1f8ffa90604401602060405180830381600087803b15801561062557600080fd5b505af1158015610639573d6000803e3d6000fd5b505050506040513d601f19601f8201168201806040525081019061065d9190610811565b610710576040517f08c379a0000000000000000000000000000000000000000000000000000000008152602060048201526044602482018190527f52656465656d61626c654e4654235f72656465656d3a2053656e64657220646f908201527f65736e2774206d6565742074686520726571756972656d656e747320746f206d60648201527f696e742e00000000000000000000000000000000000000000000000000000000608482015260a4016103bb565b60018101543360009081526002602052604090205461072e91610799565b3360008181526002602052604090819020929092556001830154915190917f14c9b4d4f4cc58cdc10083ad4d08288a39df874bbf3e4e0846f3fd1352d48c879161077a91815260200190565b60405180910390a25050565b600061079282846108a8565b9392505050565b600061079282846108c0565b803573ffffffffffffffffffffffffffffffffffffffff811681146107c957600080fd5b919050565b6000602082840312156107df578081fd5b610792826107a5565b600080604083850312156107fa578081fd5b610803836107a5565b946020939093013593505050565b600060208284031215610822578081fd5b81518015158114610792578182fd5b600060208284031215610842578081fd5b5035919050565b6000806040838503121561085b578182fd5b8235915061086b602084016107a5565b90509250929050565b600080600060608486031215610888578081fd5b833592506020840135915061089f604085016107a5565b90509250925092565b600082198211156108bb576108bb6108d7565b500190565b6000828210156108d2576108d26108d7565b500390565b7f4e487b7100000000000000000000000000000000000000000000000000000000600052601160045260246000fdfea264697066735822122036109726004782f9d79a3c3e8fadc123cca0f6e3ce7c128c5e778b1df32f08e964736f6c63430008030033",
  "linkReferences": {},
  "deployedLinkReferences": {}
}