{
  "_format": "hh-sol-artifact-1",
  "contractName": "Claimable",
  "sourceName": "contracts/metacana/legacy/Claimable.sol",
  "abi": [
    {
      "anonymous": false,
      "inputs": [
        {
          "indexed": true,
          "internalType": "address",
          "name": "previousOwner",
          "type": "address"
        },
        {
          "indexed": true,
          "internalType": "address",
          "name": "newOwner",
          "type": "address"
        }
      ],
      "name": "OwnershipTransferred",
      "type": "event"
    },
    {
      "inputs": [],
      "name": "owner",
      "outputs": [
        {
          "internalType": "address",
          "name": "",
          "type": "address"
        }
      ],
      "stateMutability": "view",
      "type": "function"
    },
    {
      "inputs": [],
      "name": "pendingOwner",
      "outputs": [
        {
          "internalType": "address",
          "name": "",
          "type": "address"
        }
      ],
      "stateMutability": "view",
      "type": "function"
    },
    {
      "inputs": [],
      "name": "renounceOwnership",
      "outputs": [],
      "stateMutability": "nonpayable",
      "type": "function"
    },
    {
      "inputs": [
        {
          "internalType": "address",
          "name": "newOwner",
          "type": "address"
        }
      ],
      "name": "transferOwnership",
      "outputs": [],
      "stateMutability": "nonpayable",
      "type": "function"
    }
  ],
  "bytecode": "0x608060405234801561001057600080fd5b5061002161001c610026565b61002a565b61009f565b3390565b6000805473ffffffffffffffffffffffffffffffffffffffff8381167fffffffffffffffffffffffff0000000000000000000000000000000000000000831681178455604051919092169283917f8be0079c531659141344cd1fd0a4f28419497f9722a3daafe3b4186f6b6457e09190a35050565b610479806100ae6000396000f3fe608060405234801561001057600080fd5b506004361061004c5760003560e01c8063715018a6146100515780638da5cb5b1461005b578063e30c397814610079578063f2fde38b14610081575b600080fd5b610059610094565b005b61006361011c565b6040516100709190610390565b60405180910390f35b610063610138565b61005961008f366004610355565b610154565b61009c610213565b73ffffffffffffffffffffffffffffffffffffffff166100ba61011c565b73ffffffffffffffffffffffffffffffffffffffff1614610110576040517f08c379a00000000000000000000000000000000000000000000000000000000081526004016101079061040e565b60405180910390fd5b61011a6000610217565b565b60005473ffffffffffffffffffffffffffffffffffffffff1690565b60015473ffffffffffffffffffffffffffffffffffffffff1681565b61015c610213565b73ffffffffffffffffffffffffffffffffffffffff1661017a61011c565b73ffffffffffffffffffffffffffffffffffffffff16146101c7576040517f08c379a00000000000000000000000000000000000000000000000000000000081526004016101079061040e565b600180547fffffffffffffffffffffffff00000000000000000000000000000000000000001673ffffffffffffffffffffffffffffffffffffffff83161790556102108161028c565b50565b3390565b6000805473ffffffffffffffffffffffffffffffffffffffff8381167fffffffffffffffffffffffff0000000000000000000000000000000000000000831681178455604051919092169283917f8be0079c531659141344cd1fd0a4f28419497f9722a3daafe3b4186f6b6457e09190a35050565b610294610213565b73ffffffffffffffffffffffffffffffffffffffff166102b261011c565b73ffffffffffffffffffffffffffffffffffffffff16146102ff576040517f08c379a00000000000000000000000000000000000000000000000000000000081526004016101079061040e565b73ffffffffffffffffffffffffffffffffffffffff811661034c576040517f08c379a0000000000000000000000000000000000000000000000000000000008152600401610107906103b1565b61021081610217565b600060208284031215610366578081fd5b813573ffffffffffffffffffffffffffffffffffffffff81168114610389578182fd5b9392505050565b73ffffffffffffffffffffffffffffffffffffffff91909116815260200190565b60208082526026908201527f4f776e61626c653a206e6577206f776e657220697320746865207a65726f206160408201527f6464726573730000000000000000000000000000000000000000000000000000606082015260800190565b6020808252818101527f4f776e61626c653a2063616c6c6572206973206e6f7420746865206f776e657260408201526060019056fea26469706673582212209fcd118ec5c9d31d89a6501b6c388b9589db800bc37eaadbb06ca2139e3a078264736f6c63430008000033",
  "linkReferences": {},
  "deployedLinkReferences": {}
}