{
  "_format": "hh-sol-artifact-1",
  "contractName": "Claimable",
  "sourceName": "contracts/metacana/legacy/Claimable.sol",
  "abi": [
    {
      "anonymous": false,
      "inputs": [
        {
          "indexed": true,
          "internalType": "address",
          "name": "previousOwner",
          "type": "address"
        },
        {
          "indexed": true,
          "internalType": "address",
          "name": "newOwner",
          "type": "address"
        }
      ],
      "name": "OwnershipTransferred",
      "type": "event"
    },
    {
      "inputs": [],
      "name": "owner",
      "outputs": [
        {
          "internalType": "address",
          "name": "",
          "type": "address"
        }
      ],
      "stateMutability": "view",
      "type": "function"
    },
    {
      "inputs": [],
      "name": "pendingOwner",
      "outputs": [
        {
          "internalType": "address",
          "name": "",
          "type": "address"
        }
      ],
      "stateMutability": "view",
      "type": "function"
    },
    {
      "inputs": [],
      "name": "renounceOwnership",
      "outputs": [],
      "stateMutability": "nonpayable",
      "type": "function"
    },
    {
      "inputs": [
        {
          "internalType": "address",
          "name": "newOwner",
          "type": "address"
        }
      ],
      "name": "transferOwnership",
      "outputs": [],
      "stateMutability": "nonpayable",
      "type": "function"
    }
  ],
  "bytecode": "0x608060405234801561001057600080fd5b5061001a3361001f565b610094565b6000805473ffffffffffffffffffffffffffffffffffffffff8381167fffffffffffffffffffffffff0000000000000000000000000000000000000000831681178455604051919092169283917f8be0079c531659141344cd1fd0a4f28419497f9722a3daafe3b4186f6b6457e09190a35050565b610443806100a36000396000f3fe608060405234801561001057600080fd5b506004361061004c5760003560e01c8063715018a6146100515780638da5cb5b1461005b578063e30c39781461009e578063f2fde38b146100be575b600080fd5b6100596100d1565b005b60005473ffffffffffffffffffffffffffffffffffffffff165b60405173ffffffffffffffffffffffffffffffffffffffff909116815260200160405180910390f35b6001546100759073ffffffffffffffffffffffffffffffffffffffff1681565b6100596100cc3660046103d2565b610163565b60005473ffffffffffffffffffffffffffffffffffffffff163314610157576040517f08c379a000000000000000000000000000000000000000000000000000000000815260206004820181905260248201527f4f776e61626c653a2063616c6c6572206973206e6f7420746865206f776e657260448201526064015b60405180910390fd5b6101616000610230565b565b60005473ffffffffffffffffffffffffffffffffffffffff1633146101e4576040517f08c379a000000000000000000000000000000000000000000000000000000000815260206004820181905260248201527f4f776e61626c653a2063616c6c6572206973206e6f7420746865206f776e6572604482015260640161014e565b600180547fffffffffffffffffffffffff00000000000000000000000000000000000000001673ffffffffffffffffffffffffffffffffffffffff831617905561022d816102a5565b50565b6000805473ffffffffffffffffffffffffffffffffffffffff8381167fffffffffffffffffffffffff0000000000000000000000000000000000000000831681178455604051919092169283917f8be0079c531659141344cd1fd0a4f28419497f9722a3daafe3b4186f6b6457e09190a35050565b60005473ffffffffffffffffffffffffffffffffffffffff163314610326576040517f08c379a000000000000000000000000000000000000000000000000000000000815260206004820181905260248201527f4f776e61626c653a2063616c6c6572206973206e6f7420746865206f776e6572604482015260640161014e565b73ffffffffffffffffffffffffffffffffffffffff81166103c9576040517f08c379a000000000000000000000000000000000000000000000000000000000815260206004820152602660248201527f4f776e61626c653a206e6577206f776e657220697320746865207a65726f206160448201527f6464726573730000000000000000000000000000000000000000000000000000606482015260840161014e565b61022d81610230565b6000602082840312156103e3578081fd5b813573ffffffffffffffffffffffffffffffffffffffff81168114610406578182fd5b939250505056fea2646970667358221220867d6affc827de60101607fd63e72ad57e1a3d96632d3a6d106162d3cac50d4364736f6c63430008030033",
  "linkReferences": {},
  "deployedLinkReferences": {}
}