{
  "_format": "hh-sol-artifact-1",
  "contractName": "FreemintFactory",
  "sourceName": "contracts/nft/factories/FreemintFactory.sol",
  "abi": [
    {
      "inputs": [
        {
          "internalType": "address",
          "name": "_firstOwner",
          "type": "address"
        },
        {
          "internalType": "address",
          "name": "_assetsAddr",
          "type": "address"
        }
      ],
      "stateMutability": "nonpayable",
      "type": "constructor"
    },
    {
      "anonymous": false,
      "inputs": [
        {
          "indexed": true,
          "internalType": "address",
          "name": "owner",
          "type": "address"
        },
        {
          "indexed": true,
          "internalType": "uint256",
          "name": "previousTier",
          "type": "uint256"
        },
        {
          "indexed": true,
          "internalType": "uint256",
          "name": "newTier",
          "type": "uint256"
        }
      ],
      "name": "OwnershipGranted",
      "type": "event"
    },
    {
      "stateMutability": "nonpayable",
      "type": "fallback"
    },
    {
      "inputs": [
        {
          "internalType": "address",
          "name": "_address",
          "type": "address"
        },
        {
          "internalType": "uint256",
          "name": "_tier",
          "type": "uint256"
        }
      ],
      "name": "assignOwnership",
      "outputs": [],
      "stateMutability": "nonpayable",
      "type": "function"
    },
    {
      "inputs": [],
      "name": "getMetacanaAssets",
      "outputs": [
        {
          "internalType": "address",
          "name": "",
          "type": "address"
        }
      ],
      "stateMutability": "view",
      "type": "function"
    },
    {
      "inputs": [
        {
          "internalType": "address",
          "name": "_owner",
          "type": "address"
        }
      ],
      "name": "getOwnerTier",
      "outputs": [
        {
          "internalType": "uint256",
          "name": "",
          "type": "uint256"
        }
      ],
      "stateMutability": "view",
      "type": "function"
    },
    {
      "inputs": [
        {
          "internalType": "address[]",
          "name": "_recipients",
          "type": "address[]"
        },
        {
          "internalType": "uint256[]",
          "name": "_ids",
          "type": "uint256[]"
        },
        {
          "internalType": "uint256[]",
          "name": "_amounts",
          "type": "uint256[]"
        }
      ],
      "name": "mintBatch",
      "outputs": [],
      "stateMutability": "nonpayable",
      "type": "function"
    },
    {
      "inputs": [
        {
          "internalType": "bytes4",
          "name": "interfaceID",
          "type": "bytes4"
        }
      ],
      "name": "supportsInterface",
      "outputs": [
        {
          "internalType": "bool",
          "name": "",
          "type": "bool"
        }
      ],
      "stateMutability": "pure",
      "type": "function"
    }
  ],
  "bytecode": "0x608060405234801561001057600080fd5b50604051610b7e380380610b7e83398101604081905261002f91610265565b8173ffffffffffffffffffffffffffffffffffffffff81166100d8576040517f08c379a000000000000000000000000000000000000000000000000000000000815260206004820152602e60248201527f5469657265644f776e61626c6523636f6e7374727563746f723a20494e56414c60448201527f49445f46495253545f4f574e455200000000000000000000000000000000000060648201526084015b60405180910390fd5b73ffffffffffffffffffffffffffffffffffffffff81166000818152602081905260408082207fffffffffffffffffffffffffffffffffffffffffffffffffffffffffffffffff9081905590519092907fa4e9b194bafb51369051927f4c07278de72aa1ee689f375215ea3a16dfef618e908390a45073ffffffffffffffffffffffffffffffffffffffff81166101f1576040517f08c379a000000000000000000000000000000000000000000000000000000000815260206004820152602a60248201527f467265656d696e74466163746f727923636f6e7374727563746f723a20494e5660448201527f414c49445f494e5055540000000000000000000000000000000000000000000060648201526084016100cf565b600180547fffffffffffffffffffffffff00000000000000000000000000000000000000001673ffffffffffffffffffffffffffffffffffffffff9290921691909117905550610297565b805173ffffffffffffffffffffffffffffffffffffffff8116811461026057600080fd5b919050565b60008060408385031215610277578182fd5b6102808361023c565b915061028e6020840161023c565b90509250929050565b6108d8806102a66000396000f3fe608060405234801561001057600080fd5b50600436106100675760003560e01c8063571286831161005057806357128683146101445780635d511a1114610159578063e8f35d5a1461016c57610067565b806301ffc9a7146100f457806302b5c37b1461011c575b6040517f08c379a000000000000000000000000000000000000000000000000000000000815260206004820152602560248201527f467265656d696e74466163746f7279235f3a20554e535550504f525445445f4d60448201527f4554484f4400000000000000000000000000000000000000000000000000000060648201526084015b60405180910390fd5b610107610102366004610759565b6101b0565b60405190151581526020015b60405180910390f35b60015460405173ffffffffffffffffffffffffffffffffffffffff9091168152602001610113565b6101576101523660046106c3565b6101fb565b005b61015761016736600461069a565b610387565b6101a261017a366004610679565b73ffffffffffffffffffffffffffffffffffffffff1660009081526020819052604090205490565b604051908152602001610113565b7fffffffff0000000000000000000000000000000000000000000000000000000081167f01ffc9a700000000000000000000000000000000000000000000000000000000145b919050565b3360009081526020819052604090205460019081111561029d576040517f08c379a000000000000000000000000000000000000000000000000000000000815260206004820152603260248201527f5469657265644f776e61626c65236f6e6c794f776e6572546965723a204f574e60448201527f45525f544945525f49535f544f4f5f4c4f57000000000000000000000000000060648201526084016100eb565b60005b8681101561037d5760015473ffffffffffffffffffffffffffffffffffffffff16631f7fdffa8989848181106102ff577f4e487b7100000000000000000000000000000000000000000000000000000000600052603260045260246000fd5b90506020020160208101906103149190610679565b888888886040518663ffffffff1660e01b81526004016103389594939291906107e6565b600060405180830381600087803b15801561035257600080fd5b505af1158015610366573d6000803e3d6000fd5b50505050808061037590610844565b9150506102a0565b5050505050505050565b336000908152602081905260409020547fffffffffffffffffffffffffffffffffffffffffffffffffffffffffffffffff90811115610448576040517f08c379a000000000000000000000000000000000000000000000000000000000815260206004820152603260248201527f5469657265644f776e61626c65236f6e6c794f776e6572546965723a204f574e60448201527f45525f544945525f49535f544f4f5f4c4f57000000000000000000000000000060648201526084016100eb565b73ffffffffffffffffffffffffffffffffffffffff83166104eb576040517f08c379a000000000000000000000000000000000000000000000000000000000815260206004820152602e60248201527f5469657265644f776e61626c652361737369676e4f776e6572736869703a204960448201527f4e56414c49445f4144445245535300000000000000000000000000000000000060648201526084016100eb565b3373ffffffffffffffffffffffffffffffffffffffff84161415610591576040517f08c379a000000000000000000000000000000000000000000000000000000000815260206004820152603160248201527f5469657265644f776e61626c652361737369676e4f776e6572736869703a205560448201527f50444154494e475f53454c465f5449455200000000000000000000000000000060648201526084016100eb565b73ffffffffffffffffffffffffffffffffffffffff8316600081815260208190526040808220549051859391927fa4e9b194bafb51369051927f4c07278de72aa1ee689f375215ea3a16dfef618e91a45073ffffffffffffffffffffffffffffffffffffffff909116600090815260208190526040902055565b803573ffffffffffffffffffffffffffffffffffffffff811681146101f657600080fd5b60008083601f840112610640578182fd5b50813567ffffffffffffffff811115610657578182fd5b6020830191508360208260051b850101111561067257600080fd5b9250929050565b60006020828403121561068a578081fd5b6106938261060b565b9392505050565b600080604083850312156106ac578081fd5b6106b58361060b565b946020939093013593505050565b600080600080600080606087890312156106db578182fd5b863567ffffffffffffffff808211156106f2578384fd5b6106fe8a838b0161062f565b90985096506020890135915080821115610716578384fd5b6107228a838b0161062f565b9096509450604089013591508082111561073a578384fd5b5061074789828a0161062f565b979a9699509497509295939492505050565b60006020828403121561076a578081fd5b81357fffffffff0000000000000000000000000000000000000000000000000000000081168114610693578182fd5b60008284527f07ffffffffffffffffffffffffffffffffffffffffffffffffffffffffffffff8311156107ca578081fd5b8260051b80836020870137939093016020019283525090919050565b600073ffffffffffffffffffffffffffffffffffffffff8716825260806020830152610816608083018688610799565b8281036040840152610829818587610799565b83810360609094019390935250815260200195945050505050565b60007fffffffffffffffffffffffffffffffffffffffffffffffffffffffffffffffff82141561089b577f4e487b710000000000000000000000000000000000000000000000000000000081526011600452602481fd5b506001019056fea264697066735822122003bec27cddd9da0395e035abb5c568b12e5a4d75f5f92ebf7bf039aa473de92b64736f6c63430008030033",
  "linkReferences": {},
  "deployedLinkReferences": {}
}