{
  "_format": "hh-sol-artifact-1",
  "contractName": "TestForReentrancyAttack",
  "sourceName": "contracts/test/TestForReentrancyAttack.sol",
  "abi": [
    {
      "inputs": [],
      "stateMutability": "nonpayable",
      "type": "constructor"
    },
    {
      "inputs": [],
      "name": "factoryAddress",
      "outputs": [
        {
          "internalType": "address",
          "name": "",
          "type": "address"
        }
      ],
      "stateMutability": "view",
      "type": "function"
    },
    {
      "inputs": [
        {
          "internalType": "address",
          "name": "",
          "type": "address"
        },
        {
          "internalType": "address",
          "name": "",
          "type": "address"
        },
        {
          "internalType": "uint256[]",
          "name": "",
          "type": "uint256[]"
        },
        {
          "internalType": "uint256[]",
          "name": "",
          "type": "uint256[]"
        },
        {
          "internalType": "bytes",
          "name": "",
          "type": "bytes"
        }
      ],
      "name": "onERC1155BatchReceived",
      "outputs": [
        {
          "internalType": "bytes4",
          "name": "",
          "type": "bytes4"
        }
      ],
      "stateMutability": "pure",
      "type": "function"
    },
    {
      "inputs": [
        {
          "internalType": "address",
          "name": "",
          "type": "address"
        },
        {
          "internalType": "address",
          "name": "",
          "type": "address"
        },
        {
          "internalType": "uint256",
          "name": "_id",
          "type": "uint256"
        },
        {
          "internalType": "uint256",
          "name": "",
          "type": "uint256"
        },
        {
          "internalType": "bytes",
          "name": "",
          "type": "bytes"
        }
      ],
      "name": "onERC1155Received",
      "outputs": [
        {
          "internalType": "bytes4",
          "name": "",
          "type": "bytes4"
        }
      ],
      "stateMutability": "nonpayable",
      "type": "function"
    },
    {
      "inputs": [
        {
          "internalType": "address",
          "name": "_factoryAddress",
          "type": "address"
        }
      ],
      "name": "setFactoryAddress",
      "outputs": [],
      "stateMutability": "nonpayable",
      "type": "function"
    },
    {
      "inputs": [
        {
          "internalType": "bytes4",
          "name": "interfaceID",
          "type": "bytes4"
        }
      ],
      "name": "supportsInterface",
      "outputs": [
        {
          "internalType": "bool",
          "name": "",
          "type": "bool"
        }
      ],
      "stateMutability": "pure",
      "type": "function"
    }
  ],
  "bytecode": "0x608060405234801561001057600080fd5b50610741806100206000396000f3fe608060405234801561001057600080fd5b50600436106100675760003560e01c8063966dae0e11610050578063966dae0e146100f0578063bc197c8114610135578063f23a6e611461019e57610067565b806301ffc9a71461006c57806383c17c5514610094575b600080fd5b61007f61007a366004610635565b6101b1565b60405190151581526020015b60405180910390f35b6100ee6100a236600461045d565b600080547fffffffffffffffffffffffff00000000000000000000000000000000000000001673ffffffffffffffffffffffffffffffffffffffff929092169190911790556003600155565b005b6000546101109073ffffffffffffffffffffffffffffffffffffffff1681565b60405173ffffffffffffffffffffffffffffffffffffffff909116815260200161008b565b61016d61014336600461047e565b7fbc197c810000000000000000000000000000000000000000000000000000000095945050505050565b6040517fffffffff00000000000000000000000000000000000000000000000000000000909116815260200161008b565b61016d6101ac366004610594565b61024c565b60007fffffffff0000000000000000000000000000000000000000000000000000000082167f01ffc9a700000000000000000000000000000000000000000000000000000000148061024457507fffffffff0000000000000000000000000000000000000000000000000000000082167f4e2312e000000000000000000000000000000000000000000000000000000000145b90505b919050565b6040517efdd58e000000000000000000000000000000000000000000000000000000008152306004820152602481018590526000908190339062fdd58e9060440160206040518083038186803b1580156102a557600080fd5b505afa1580156102b9573d6000803e3d6000fd5b505050506040513d601f19601f820116820180604052508101906102dd9190610675565b905060015481101561038957600080546040517f731133e9000000000000000000000000000000000000000000000000000000008152306004820152600160248201819052604482015260806064820152608481019290925273ffffffffffffffffffffffffffffffffffffffff169063731133e99060a401600060405180830381600087803b15801561037057600080fd5b505af1158015610384573d6000803e3d6000fd5b505050505b507ff23a6e6100000000000000000000000000000000000000000000000000000000979650505050505050565b803573ffffffffffffffffffffffffffffffffffffffff8116811461024757600080fd5b600082601f8301126103ea578081fd5b8135602067ffffffffffffffff821115610406576104066106dc565b8160051b61041582820161068d565b83815282810190868401838801850189101561042f578687fd5b8693505b85841015610451578035835260019390930192918401918401610433565b50979650505050505050565b60006020828403121561046e578081fd5b610477826103b6565b9392505050565b600080600080600060a08688031215610495578081fd5b61049e866103b6565b945060206104ad8188016103b6565b9450604087013567ffffffffffffffff808211156104c9578384fd5b6104d58a838b016103da565b955060608901359150808211156104ea578384fd5b6104f68a838b016103da565b9450608089013591508082111561050b578384fd5b818901915089601f83011261051e578384fd5b813581811115610530576105306106dc565b610560847fffffffffffffffffffffffffffffffffffffffffffffffffffffffffffffffe0601f8401160161068d565b91508082528a84828501011115610575578485fd5b8084840185840137810190920192909252949793965091945092919050565b60008060008060008060a087890312156105ac578081fd5b6105b5876103b6565b95506105c3602088016103b6565b94506040870135935060608701359250608087013567ffffffffffffffff808211156105ed578283fd5b818901915089601f830112610600578283fd5b81358181111561060e578384fd5b8a602082850101111561061f578384fd5b6020830194508093505050509295509295509295565b600060208284031215610646578081fd5b81357fffffffff0000000000000000000000000000000000000000000000000000000081168114610477578182fd5b600060208284031215610686578081fd5b5051919050565b604051601f82017fffffffffffffffffffffffffffffffffffffffffffffffffffffffffffffffe016810167ffffffffffffffff811182821017156106d4576106d46106dc565b604052919050565b7f4e487b7100000000000000000000000000000000000000000000000000000000600052604160045260246000fdfea2646970667358221220e7e122c3604b3996b136c06541f1944f1b192800c2ac7d699af49df37752784e64736f6c63430008030033",
  "linkReferences": {},
  "deployedLinkReferences": {}
}