{
  "_format": "hh-sol-artifact-1",
  "contractName": "TestForReentrancyAttack",
  "sourceName": "contracts/test/TestForReentrancyAttack.sol",
  "abi": [
    {
      "inputs": [],
      "stateMutability": "nonpayable",
      "type": "constructor"
    },
    {
      "inputs": [],
      "name": "factoryAddress",
      "outputs": [
        {
          "internalType": "address",
          "name": "",
          "type": "address"
        }
      ],
      "stateMutability": "view",
      "type": "function"
    },
    {
      "inputs": [
        {
          "internalType": "address",
          "name": "",
          "type": "address"
        },
        {
          "internalType": "address",
          "name": "",
          "type": "address"
        },
        {
          "internalType": "uint256[]",
          "name": "",
          "type": "uint256[]"
        },
        {
          "internalType": "uint256[]",
          "name": "",
          "type": "uint256[]"
        },
        {
          "internalType": "bytes",
          "name": "",
          "type": "bytes"
        }
      ],
      "name": "onERC1155BatchReceived",
      "outputs": [
        {
          "internalType": "bytes4",
          "name": "",
          "type": "bytes4"
        }
      ],
      "stateMutability": "pure",
      "type": "function"
    },
    {
      "inputs": [
        {
          "internalType": "address",
          "name": "",
          "type": "address"
        },
        {
          "internalType": "address",
          "name": "",
          "type": "address"
        },
        {
          "internalType": "uint256",
          "name": "_id",
          "type": "uint256"
        },
        {
          "internalType": "uint256",
          "name": "",
          "type": "uint256"
        },
        {
          "internalType": "bytes",
          "name": "",
          "type": "bytes"
        }
      ],
      "name": "onERC1155Received",
      "outputs": [
        {
          "internalType": "bytes4",
          "name": "",
          "type": "bytes4"
        }
      ],
      "stateMutability": "nonpayable",
      "type": "function"
    },
    {
      "inputs": [
        {
          "internalType": "address",
          "name": "_factoryAddress",
          "type": "address"
        }
      ],
      "name": "setFactoryAddress",
      "outputs": [],
      "stateMutability": "nonpayable",
      "type": "function"
    },
    {
      "inputs": [
        {
          "internalType": "bytes4",
          "name": "interfaceID",
          "type": "bytes4"
        }
      ],
      "name": "supportsInterface",
      "outputs": [
        {
          "internalType": "bool",
          "name": "",
          "type": "bool"
        }
      ],
      "stateMutability": "pure",
      "type": "function"
    }
  ],
  "bytecode": "0x608060405234801561001057600080fd5b50610743806100206000396000f3fe608060405234801561001057600080fd5b50600436106100675760003560e01c8063966dae0e11610050578063966dae0e146100f0578063bc197c8114610135578063f23a6e611461019e57600080fd5b806301ffc9a71461006c57806383c17c5514610094575b600080fd5b61007f61007a3660046103a5565b6101b1565b60405190151581526020015b60405180910390f35b6100ee6100a2366004610417565b600080547fffffffffffffffffffffffff00000000000000000000000000000000000000001673ffffffffffffffffffffffffffffffffffffffff929092169190911790556003600155565b005b6000546101109073ffffffffffffffffffffffffffffffffffffffff1681565b60405173ffffffffffffffffffffffffffffffffffffffff909116815260200161008b565b61016d610143366004610530565b7fbc197c810000000000000000000000000000000000000000000000000000000095945050505050565b6040517fffffffff00000000000000000000000000000000000000000000000000000000909116815260200161008b565b61016d6101ac36600461064e565b61024a565b60007fffffffff0000000000000000000000000000000000000000000000000000000082167f01ffc9a700000000000000000000000000000000000000000000000000000000148061024457507fffffffff0000000000000000000000000000000000000000000000000000000082167f4e2312e000000000000000000000000000000000000000000000000000000000145b92915050565b6040517efdd58e000000000000000000000000000000000000000000000000000000008152306004820152602481018590526000908190339062fdd58e90604401602060405180830381865afa1580156102a8573d6000803e3d6000fd5b505050506040513d601f19601f820116820180604052508101906102cc91906106f4565b905060015481101561037857600080546040517f731133e9000000000000000000000000000000000000000000000000000000008152306004820152600160248201819052604482015260806064820152608481019290925273ffffffffffffffffffffffffffffffffffffffff169063731133e99060a401600060405180830381600087803b15801561035f57600080fd5b505af1158015610373573d6000803e3d6000fd5b505050505b507ff23a6e6100000000000000000000000000000000000000000000000000000000979650505050505050565b6000602082840312156103b757600080fd5b81357fffffffff00000000000000000000000000000000000000000000000000000000811681146103e757600080fd5b9392505050565b803573ffffffffffffffffffffffffffffffffffffffff8116811461041257600080fd5b919050565b60006020828403121561042957600080fd5b6103e7826103ee565b7f4e487b7100000000000000000000000000000000000000000000000000000000600052604160045260246000fd5b604051601f82017fffffffffffffffffffffffffffffffffffffffffffffffffffffffffffffffe016810167ffffffffffffffff811182821017156104a8576104a8610432565b604052919050565b600082601f8301126104c157600080fd5b8135602067ffffffffffffffff8211156104dd576104dd610432565b8160051b6104ec828201610461565b928352848101820192828101908785111561050657600080fd5b83870192505b848310156105255782358252918301919083019061050c565b979650505050505050565b600080600080600060a0868803121561054857600080fd5b610551866103ee565b945060206105608188016103ee565b9450604087013567ffffffffffffffff8082111561057d57600080fd5b6105898a838b016104b0565b9550606089013591508082111561059f57600080fd5b6105ab8a838b016104b0565b945060808901359150808211156105c157600080fd5b818901915089601f8301126105d557600080fd5b8135818111156105e7576105e7610432565b610617847fffffffffffffffffffffffffffffffffffffffffffffffffffffffffffffffe0601f84011601610461565b91508082528a8482850101111561062d57600080fd5b80848401858401376000848284010152508093505050509295509295909350565b60008060008060008060a0878903121561066757600080fd5b610670876103ee565b955061067e602088016103ee565b94506040870135935060608701359250608087013567ffffffffffffffff808211156106a957600080fd5b818901915089601f8301126106bd57600080fd5b8135818111156106cc57600080fd5b8a60208285010111156106de57600080fd5b6020830194508093505050509295509295509295565b60006020828403121561070657600080fd5b505191905056fea2646970667358221220539e06a5a5eb7de06ca5a5cd3ba1045090af9c16ec1b40d1da42044e6879088d64736f6c634300080a0033",
  "linkReferences": {},
  "deployedLinkReferences": {}
}