{
  "_format": "hh-sol-artifact-1",
  "contractName": "VLootBox",
  "sourceName": "contracts/nft/VLootBox.sol",
  "abi": [
    {
      "anonymous": false,
      "inputs": [
        {
          "indexed": true,
          "internalType": "uint256",
          "name": "optionId",
          "type": "uint256"
        },
        {
          "indexed": true,
          "internalType": "address",
          "name": "buyer",
          "type": "address"
        },
        {
          "indexed": false,
          "internalType": "uint256",
          "name": "boxesPurchased",
          "type": "uint256"
        },
        {
          "indexed": false,
          "internalType": "uint256",
          "name": "tokenId",
          "type": "uint256"
        },
        {
          "indexed": false,
          "internalType": "uint256",
          "name": "classId",
          "type": "uint256"
        },
        {
          "indexed": false,
          "internalType": "uint256",
          "name": "attId",
          "type": "uint256"
        }
      ],
      "name": "LootBoxOpened",
      "type": "event"
    },
    {
      "anonymous": false,
      "inputs": [
        {
          "indexed": true,
          "internalType": "address",
          "name": "previousOwner",
          "type": "address"
        },
        {
          "indexed": true,
          "internalType": "address",
          "name": "newOwner",
          "type": "address"
        }
      ],
      "name": "OwnershipTransferred",
      "type": "event"
    },
    {
      "inputs": [],
      "name": "owner",
      "outputs": [
        {
          "internalType": "address",
          "name": "",
          "type": "address"
        }
      ],
      "stateMutability": "view",
      "type": "function"
    },
    {
      "inputs": [],
      "name": "renounceOwnership",
      "outputs": [],
      "stateMutability": "nonpayable",
      "type": "function"
    },
    {
      "inputs": [
        {
          "internalType": "uint256",
          "name": "_option",
          "type": "uint256"
        },
        {
          "internalType": "uint256",
          "name": "_maxQuantityPerOpen",
          "type": "uint256"
        },
        {
          "internalType": "uint16[]",
          "name": "_classProbabilities",
          "type": "uint16[]"
        },
        {
          "internalType": "uint16[]",
          "name": "_guarantees",
          "type": "uint16[]"
        },
        {
          "internalType": "int16[]",
          "name": "_maxPerClass",
          "type": "int16[]"
        }
      ],
      "name": "setOptionSettings",
      "outputs": [],
      "stateMutability": "nonpayable",
      "type": "function"
    },
    {
      "inputs": [
        {
          "internalType": "address",
          "name": "_factoryAddress",
          "type": "address"
        },
        {
          "internalType": "uint256",
          "name": "_numOptions",
          "type": "uint256"
        },
        {
          "internalType": "uint256",
          "name": "_numClasses",
          "type": "uint256"
        },
        {
          "internalType": "uint256",
          "name": "_seed",
          "type": "uint256"
        }
      ],
      "name": "setState",
      "outputs": [],
      "stateMutability": "nonpayable",
      "type": "function"
    },
    {
      "inputs": [
        {
          "internalType": "uint256",
          "name": "_optionId",
          "type": "uint256"
        },
        {
          "internalType": "uint256",
          "name": "_classId",
          "type": "uint256"
        },
        {
          "internalType": "uint256[]",
          "name": "_tokenIds",
          "type": "uint256[]"
        }
      ],
      "name": "setTokenIdsForClass",
      "outputs": [],
      "stateMutability": "nonpayable",
      "type": "function"
    },
    {
      "inputs": [
        {
          "internalType": "address",
          "name": "newOwner",
          "type": "address"
        }
      ],
      "name": "transferOwnership",
      "outputs": [],
      "stateMutability": "nonpayable",
      "type": "function"
    },
    {
      "inputs": [
        {
          "internalType": "uint256",
          "name": "_optionId",
          "type": "uint256"
        },
        {
          "internalType": "address",
          "name": "_toAddress",
          "type": "address"
        },
        {
          "internalType": "uint256",
          "name": "_amount",
          "type": "uint256"
        }
      ],
      "name": "unpack",
      "outputs": [
        {
          "internalType": "uint256",
          "name": "attId",
          "type": "uint256"
        },
        {
          "internalType": "uint256",
          "name": "classId",
          "type": "uint256"
        }
      ],
      "stateMutability": "nonpayable",
      "type": "function"
    }
  ],
  "bytecode": "0x608060405234801561001057600080fd5b5061001a33610023565b60018055610098565b6000805473ffffffffffffffffffffffffffffffffffffffff8381167fffffffffffffffffffffffff0000000000000000000000000000000000000000831681178455604051919092169283917f8be0079c531659141344cd1fd0a4f28419497f9722a3daafe3b4186f6b6457e09190a35050565b6119b2806100a76000396000f3fe608060405234801561001057600080fd5b506004361061007d5760003560e01c80638da5cb5b1161005b5780638da5cb5b146100b2578063d1aa9e62146100df578063f0fee98c146100f2578063f2fde38b1461011a57600080fd5b806322629f9e14610082578063547c4dbd14610097578063715018a6146100aa575b600080fd5b610095610090366004611404565b61012d565b005b6100956100a5366004611592565b610266565b610095610373565b60005460405173ffffffffffffffffffffffffffffffffffffffff90911681526020015b60405180910390f35b6100956100ed36600461148b565b610400565b610105610100366004611456565b610513565b604080519283526020830191909152016100d6565b6100956101283660046113e9565b61061e565b60005473ffffffffffffffffffffffffffffffffffffffff1633146101b3576040517f08c379a000000000000000000000000000000000000000000000000000000000815260206004820181905260248201527f4f776e61626c653a2063616c6c6572206973206e6f7420746865206f776e657260448201526064015b60405180910390fd5b6040517fd14ffa0b0000000000000000000000000000000000000000000000000000000081526002600482015273ffffffffffffffffffffffffffffffffffffffff8516602482015260448101849052606481018390526084810182905273__$2f487704b03730dd3bc263a6c677345536$__9063d14ffa0b9060a40160006040518083038186803b15801561024857600080fd5b505af415801561025c573d6000803e3d6000fd5b5050505050505050565b60005473ffffffffffffffffffffffffffffffffffffffff1633146102e7576040517f08c379a000000000000000000000000000000000000000000000000000000000815260206004820181905260248201527f4f776e61626c653a2063616c6c6572206973206e6f7420746865206f776e657260448201526064016101aa565b6040517f61d9ba6300000000000000000000000000000000000000000000000000000000815273__$2f487704b03730dd3bc263a6c677345536$__906361d9ba639061033e906002908790879087906004016116ff565b60006040518083038186803b15801561035657600080fd5b505af415801561036a573d6000803e3d6000fd5b50505050505050565b60005473ffffffffffffffffffffffffffffffffffffffff1633146103f4576040517f08c379a000000000000000000000000000000000000000000000000000000000815260206004820181905260248201527f4f776e61626c653a2063616c6c6572206973206e6f7420746865206f776e657260448201526064016101aa565b6103fe600061074e565b565b60005473ffffffffffffffffffffffffffffffffffffffff163314610481576040517f08c379a000000000000000000000000000000000000000000000000000000000815260206004820181905260248201527f4f776e61626c653a2063616c6c6572206973206e6f7420746865206f776e657260448201526064016101aa565b6040517ff07e90e000000000000000000000000000000000000000000000000000000000815273__$2f487704b03730dd3bc263a6c677345536$__9063f07e90e0906104dc906002908990899089908990899060040161167e565b60006040518083038186803b1580156104f457600080fd5b505af4158015610508573d6000803e3d6000fd5b505050505050505050565b600254600090819073ffffffffffffffffffffffffffffffffffffffff16156105f6576002546040517fcabc61d400000000000000000000000000000000000000000000000000000000815273ffffffffffffffffffffffffffffffffffffffff8681166004830152602482018690526060604483015260006064830181905292169190829063cabc61d49060840160206040518083038186803b1580156105ba57600080fd5b505afa1580156105ce573d6000803e3d6000fd5b505050506040513d601f19601f820116820180604052508101906105f2919061143d565b5050505b61061260028685604051806020016040528060008152506107c3565b91509150935093915050565b60005473ffffffffffffffffffffffffffffffffffffffff16331461069f576040517f08c379a000000000000000000000000000000000000000000000000000000000815260206004820181905260248201527f4f776e61626c653a2063616c6c6572206973206e6f7420746865206f776e657260448201526064016101aa565b73ffffffffffffffffffffffffffffffffffffffff8116610742576040517f08c379a000000000000000000000000000000000000000000000000000000000815260206004820152602660248201527f4f776e61626c653a206e6577206f776e657220697320746865207a65726f206160448201527f646472657373000000000000000000000000000000000000000000000000000060648201526084016101aa565b61074b8161074e565b50565b6000805473ffffffffffffffffffffffffffffffffffffffff8381167fffffffffffffffffffffffff0000000000000000000000000000000000000000831681178455604051919092169283917f8be0079c531659141344cd1fd0a4f28419497f9722a3daafe3b4186f6b6457e09190a35050565b60008085600101548510610833576040517f08c379a000000000000000000000000000000000000000000000000000000000815260206004820152601360248201527f6f7074696f6e5f6f75745f6f665f72616e67650000000000000000000000000060448201526064016101aa565b60008581526003870160209081526040808320815160c0810183528154815260018201805484518187028101870190955280855291949293858401939092908301828280156108c957602002820191906000526020600020906000905b82829054906101000a900461ffff1661ffff16815260200190600201906020826001010492830192600103820291508084116108905790505b5050509183525050600282015460ff161515602080830191909152600383018054604080518285028101850182528281529401939283018282801561095557602002820191906000526020600020906000905b82829054906101000a900461ffff1661ffff168152602001906002019060208260010104928301926001038202915080841161091c5790505b50505050508152602001600482018054806020026020016040519081016040528092919081815260200182805480156109d357602002820191906000526020600020906000905b82829054906101000a900460010b60010b8152602001906002019060208260010104928301926001038202915080841161099c5790505b5050505050815260200160058201805480602002602001604051908101604052809291908181526020018280548015610a5357602002820191906000526020600020906000905b82829054906101000a900461ffff1661ffff1681526020019060020190602082600101049283019260010382029150808411610a1a5790505b50505050508152505090506000816000015111610af2576040517f08c379a000000000000000000000000000000000000000000000000000000000815260206004820152602360248201527f43616e61426f784c6962235f6d696e743a4f5054494f4e5f4e4f545f414c4c4f60448201527f574544000000000000000000000000000000000000000000000000000000000060648201526084016101aa565b60008060005b87811015610b555760005b8451811015610b4257600060019050610b208c8760200151610b64565b9350610b2e8c8c8684610bfb565b9450610b3a81836117f4565b915050610b03565b5080610b4d8161187b565b915050610af8565b50909890975095505050505050565b600080610b7c612710610b7686610caa565b90610d3f565b9050600060018451610b8e919061182f565b90505b8015610bee576000848281518110610bab57610bab61191e565b602002602001015190508061ffff168361ffff161015610bcf57509150610bf59050565b610bd9818461180c565b92505080610be681611846565b915050610b91565b5060009150505b92915050565b600084600201548310610c90576040517f08c379a000000000000000000000000000000000000000000000000000000000815260206004820152602660248201527f5f73656e64546f6b656e57697468436c61737323636c6173735f6f75745f6f6660448201527f5f72616e6765000000000000000000000000000000000000000000000000000060648201526084016101aa565b6000610c9e86868686610d52565b9150505b949350505050565b600080610cb860014361182f565b600584015460408051924060208401527fffffffffffffffffffffffffffffffffffffffff0000000000000000000000003360601b16908301526054820152607401604080517fffffffffffffffffffffffffffffffffffffffffffffffffffffffffffffffe0818403018152919052805160209091012060059093018390555090919050565b6000610d4b82846118b4565b9392505050565b600084600201548310610de7576040517f08c379a000000000000000000000000000000000000000000000000000000000815260206004820152603660248201527f5f7069636b52616e646f6d417661696c61626c65546f6b656e4964466f72436c60448201527f61737323636c6173735f6f75745f6f665f72616e67650000000000000000000060648201526084016101aa565b60008481526004860160209081526040808320868452825280832080548251818502810185019093528083529192909190830182828015610e4757602002820191906000526020600020905b815481526020019060010190808311610e33575b505050505090506000815111610eb9576040517f08c379a000000000000000000000000000000000000000000000000000000000815260206004820152601960248201527f4e6f20746f6b656e2069647320666f72205f636c61737349640000000000000060448201526064016101aa565b6000610ec98251610b7689610caa565b905060008760030160008881526020019081526020016000206040518060c00160405290816000820154815260200160018201805480602002602001604051908101604052809291908181526020018280548015610f6e57602002820191906000526020600020906000905b82829054906101000a900461ffff1661ffff1681526020019060020190602082600101049283019260010382029150808411610f355790505b5050509183525050600282015460ff1615156020808301919091526003830180546040805182850281018501825282815294019392830182828015610ffa57602002820191906000526020600020906000905b82829054906101000a900461ffff1661ffff1681526020019060020190602082600101049283019260010382029150808411610fc15790505b505050505081526020016004820180548060200260200160405190810160405280929190818152602001828054801561107857602002820191906000526020600020906000905b82829054906101000a900460010b60010b815260200190600201906020826001010492830192600103820291508084116110415790505b50505050508152602001600582018054806020026020016040519081016040528092919081815260200182805480156110f857602002820191906000526020600020906000905b82829054906101000a900461ffff1661ffff16815260200190600201906020826001010492830192600103820291508084116110bf5790505b505050505081525050905060008290505b835161111590846117f4565b8110156112da5760008485518361112c91906118b4565b8151811061113c5761113c61191e565b602002602001015190508260800151818151811061115c5761115c61191e565b602002602001015160010b7fffffffffffffffffffffffffffffffffffffffffffffffffffffffffffffffff141561119a579450610ca29350505050565b6000836080015182815181106111b2576111b261191e565b602002602001015160010b1380156111ea575086836080015182815181106111dc576111dc61191e565b602002602001015160010b12155b80156112375750826080015181815181106112075761120761191e565b602002602001015161ffff168360a0015182815181106112295761122961191e565b602002602001015161ffff16105b156112c7578260a0015181815181106112525761125261191e565b6020026020010151600161126691906117ce565b60008a815260038c016020526040902060050180548390811061128b5761128b61191e565b90600052602060002090601091828204019190066002026101000a81548161ffff021916908361ffff1602179055508095505050505050610ca2565b50806112d28161187b565b915050611109565b506040517f08c379a000000000000000000000000000000000000000000000000000000000815260206004820152601c60248201527f43616e61426f784c6962234f55545f4f465f415454524942555445530000000060448201526064016101aa565b803573ffffffffffffffffffffffffffffffffffffffff8116811461136157600080fd5b919050565b600082601f83011261137757600080fd5b8135602061138c611387836117aa565b61175b565b80838252828201915082860187848660051b89010111156113ac57600080fd5b6000805b868110156113db57823561ffff811681146113c9578283fd5b855293850193918501916001016113b0565b509198975050505050505050565b6000602082840312156113fb57600080fd5b610d4b8261133d565b6000806000806080858703121561141a57600080fd5b6114238561133d565b966020860135965060408601359560600135945092505050565b60006020828403121561144f57600080fd5b5051919050565b60008060006060848603121561146b57600080fd5b8335925061147b6020850161133d565b9150604084013590509250925092565b600080600080600060a086880312156114a357600080fd5b853594506020808701359450604087013567ffffffffffffffff808211156114ca57600080fd5b6114d68a838b01611366565b955060608901359150808211156114ec57600080fd5b6114f88a838b01611366565b9450608089013591508082111561150e57600080fd5b508701601f8101891361152057600080fd5b803561152e611387826117aa565b8082825284820191508484018c868560051b870101111561154e57600080fd5b60009450845b8481101561157e5781358060010b811461156c578687fd5b84529286019290860190600101611554565b505080955050505050509295509295909350565b6000806000606084860312156115a757600080fd5b833592506020808501359250604085013567ffffffffffffffff8111156115cd57600080fd5b8501601f810187136115de57600080fd5b80356115ec611387826117aa565b8082825284820191508484018a868560051b870101111561160c57600080fd5b600094505b8385101561162f578035835260019490940193918501918501611611565b5080955050505050509250925092565b600081518084526020808501945080840160005b8381101561167357815161ffff1687529582019590820190600101611653565b509495945050505050565b86815260006020878184015286604084015260c060608401526116a460c084018761163f565b83810360808501526116b6818761163f565b84810360a0860152855180825283870192509083019060005b818110156116ee578351600190810b84529385019392850192016116cf565b50909b9a5050505050505050505050565b600060808201868352602086818501528560408501526080606085015281855180845260a086019150828701935060005b8181101561174c57845183529383019391830191600101611730565b50909998505050505050505050565b604051601f82017fffffffffffffffffffffffffffffffffffffffffffffffffffffffffffffffe016810167ffffffffffffffff811182821017156117a2576117a261194d565b604052919050565b600067ffffffffffffffff8211156117c4576117c461194d565b5060051b60200190565b600061ffff8083168185168083038211156117eb576117eb6118ef565b01949350505050565b60008219821115611807576118076118ef565b500190565b600061ffff83811690831681811015611827576118276118ef565b039392505050565b600082821015611841576118416118ef565b500390565b600081611855576118556118ef565b507fffffffffffffffffffffffffffffffffffffffffffffffffffffffffffffffff0190565b60007fffffffffffffffffffffffffffffffffffffffffffffffffffffffffffffffff8214156118ad576118ad6118ef565b5060010190565b6000826118ea577f4e487b7100000000000000000000000000000000000000000000000000000000600052601260045260246000fd5b500690565b7f4e487b7100000000000000000000000000000000000000000000000000000000600052601160045260246000fd5b7f4e487b7100000000000000000000000000000000000000000000000000000000600052603260045260246000fd5b7f4e487b7100000000000000000000000000000000000000000000000000000000600052604160045260246000fdfea2646970667358221220cd3b454fbb5c3f539a181ff8ae5a1118c65afab0b448cb480bf4b6f6df7353cb64736f6c63430008060033",
  "linkReferences": {
    "contracts/nft/CanaBoxLib.sol": {
      "CanaBoxLib": [
        {
          "length": 20,
          "start": 698
        },
        {
          "length": 20,
          "start": 950
        },
        {
          "length": 20,
          "start": 1360
        }
      ]
    }
  },
  "deployedLinkReferences": {
    "contracts/nft/CanaBoxLib.sol": {
      "CanaBoxLib": [
        {
          "length": 20,
          "start": 531
        },
        {
          "length": 20,
          "start": 783
        },
        {
          "length": 20,
          "start": 1193
        }
      ]
    }
  }
}