{
  "_format": "hh-sol-artifact-1",
  "contractName": "MetacanaNFT",
  "sourceName": "contracts/nft/tokens/MetacanaNFT.sol",
  "abi": [
    {
      "inputs": [
        {
          "internalType": "string",
          "name": "_uri",
          "type": "string"
        },
        {
          "internalType": "address",
          "name": "forwarder",
          "type": "address"
        }
      ],
      "stateMutability": "nonpayable",
      "type": "constructor"
    },
    {
      "anonymous": false,
      "inputs": [
        {
          "indexed": true,
          "internalType": "address",
          "name": "account",
          "type": "address"
        },
        {
          "indexed": true,
          "internalType": "address",
          "name": "operator",
          "type": "address"
        },
        {
          "indexed": false,
          "internalType": "bool",
          "name": "approved",
          "type": "bool"
        }
      ],
      "name": "ApprovalForAll",
      "type": "event"
    },
    {
      "anonymous": false,
      "inputs": [
        {
          "indexed": true,
          "internalType": "address",
          "name": "factory",
          "type": "address"
        },
        {
          "components": [
            {
              "internalType": "uint64",
              "name": "minID",
              "type": "uint64"
            },
            {
              "internalType": "uint64",
              "name": "maxID",
              "type": "uint64"
            },
            {
              "internalType": "uint64",
              "name": "startTime",
              "type": "uint64"
            },
            {
              "internalType": "uint64",
              "name": "endTime",
              "type": "uint64"
            }
          ],
          "indexed": false,
          "internalType": "struct AssetRangeStruct.AssetRange",
          "name": "new_range",
          "type": "tuple"
        }
      ],
      "name": "MintPermissionAdded",
      "type": "event"
    },
    {
      "anonymous": false,
      "inputs": [
        {
          "indexed": true,
          "internalType": "address",
          "name": "factory",
          "type": "address"
        },
        {
          "components": [
            {
              "internalType": "uint64",
              "name": "minID",
              "type": "uint64"
            },
            {
              "internalType": "uint64",
              "name": "maxID",
              "type": "uint64"
            },
            {
              "internalType": "uint64",
              "name": "startTime",
              "type": "uint64"
            },
            {
              "internalType": "uint64",
              "name": "endTime",
              "type": "uint64"
            }
          ],
          "indexed": false,
          "internalType": "struct AssetRangeStruct.AssetRange",
          "name": "deleted_range",
          "type": "tuple"
        }
      ],
      "name": "MintPermissionRemoved",
      "type": "event"
    },
    {
      "anonymous": false,
      "inputs": [
        {
          "indexed": true,
          "internalType": "address",
          "name": "previousOwner",
          "type": "address"
        },
        {
          "indexed": true,
          "internalType": "address",
          "name": "newOwner",
          "type": "address"
        }
      ],
      "name": "OwnershipTransferred",
      "type": "event"
    },
    {
      "anonymous": false,
      "inputs": [
        {
          "indexed": false,
          "internalType": "address",
          "name": "account",
          "type": "address"
        }
      ],
      "name": "Paused",
      "type": "event"
    },
    {
      "anonymous": false,
      "inputs": [
        {
          "indexed": true,
          "internalType": "address",
          "name": "operator",
          "type": "address"
        },
        {
          "indexed": true,
          "internalType": "address",
          "name": "from",
          "type": "address"
        },
        {
          "indexed": true,
          "internalType": "address",
          "name": "to",
          "type": "address"
        },
        {
          "indexed": false,
          "internalType": "uint256[]",
          "name": "ids",
          "type": "uint256[]"
        },
        {
          "indexed": false,
          "internalType": "uint256[]",
          "name": "values",
          "type": "uint256[]"
        }
      ],
      "name": "TransferBatch",
      "type": "event"
    },
    {
      "anonymous": false,
      "inputs": [
        {
          "indexed": true,
          "internalType": "address",
          "name": "operator",
          "type": "address"
        },
        {
          "indexed": true,
          "internalType": "address",
          "name": "from",
          "type": "address"
        },
        {
          "indexed": true,
          "internalType": "address",
          "name": "to",
          "type": "address"
        },
        {
          "indexed": false,
          "internalType": "uint256",
          "name": "id",
          "type": "uint256"
        },
        {
          "indexed": false,
          "internalType": "uint256",
          "name": "value",
          "type": "uint256"
        }
      ],
      "name": "TransferSingle",
      "type": "event"
    },
    {
      "anonymous": false,
      "inputs": [
        {
          "indexed": false,
          "internalType": "string",
          "name": "value",
          "type": "string"
        },
        {
          "indexed": true,
          "internalType": "uint256",
          "name": "id",
          "type": "uint256"
        }
      ],
      "name": "URI",
      "type": "event"
    },
    {
      "anonymous": false,
      "inputs": [
        {
          "indexed": false,
          "internalType": "address",
          "name": "account",
          "type": "address"
        }
      ],
      "name": "Unpaused",
      "type": "event"
    },
    {
      "stateMutability": "nonpayable",
      "type": "fallback"
    },
    {
      "inputs": [
        {
          "internalType": "address",
          "name": "_factory",
          "type": "address"
        },
        {
          "internalType": "uint64",
          "name": "_minRange",
          "type": "uint64"
        },
        {
          "internalType": "uint64",
          "name": "_maxRange",
          "type": "uint64"
        },
        {
          "internalType": "uint64",
          "name": "_startTime",
          "type": "uint64"
        },
        {
          "internalType": "uint64",
          "name": "_endTime",
          "type": "uint64"
        }
      ],
      "name": "addMintPermission",
      "outputs": [],
      "stateMutability": "nonpayable",
      "type": "function"
    },
    {
      "inputs": [
        {
          "internalType": "address",
          "name": "account",
          "type": "address"
        },
        {
          "internalType": "uint256",
          "name": "id",
          "type": "uint256"
        }
      ],
      "name": "balanceOf",
      "outputs": [
        {
          "internalType": "uint256",
          "name": "",
          "type": "uint256"
        }
      ],
      "stateMutability": "view",
      "type": "function"
    },
    {
      "inputs": [
        {
          "internalType": "address[]",
          "name": "accounts",
          "type": "address[]"
        },
        {
          "internalType": "uint256[]",
          "name": "ids",
          "type": "uint256[]"
        }
      ],
      "name": "balanceOfBatch",
      "outputs": [
        {
          "internalType": "uint256[]",
          "name": "",
          "type": "uint256[]"
        }
      ],
      "stateMutability": "view",
      "type": "function"
    },
    {
      "inputs": [
        {
          "internalType": "uint256",
          "name": "_id",
          "type": "uint256"
        },
        {
          "internalType": "uint256",
          "name": "_amount",
          "type": "uint256"
        }
      ],
      "name": "burn",
      "outputs": [],
      "stateMutability": "nonpayable",
      "type": "function"
    },
    {
      "inputs": [
        {
          "internalType": "address",
          "name": "account",
          "type": "address"
        },
        {
          "internalType": "uint256",
          "name": "id",
          "type": "uint256"
        },
        {
          "internalType": "uint256",
          "name": "value",
          "type": "uint256"
        }
      ],
      "name": "burn",
      "outputs": [],
      "stateMutability": "nonpayable",
      "type": "function"
    },
    {
      "inputs": [
        {
          "internalType": "address",
          "name": "account",
          "type": "address"
        },
        {
          "internalType": "uint256[]",
          "name": "ids",
          "type": "uint256[]"
        },
        {
          "internalType": "uint256[]",
          "name": "values",
          "type": "uint256[]"
        }
      ],
      "name": "burnBatch",
      "outputs": [],
      "stateMutability": "nonpayable",
      "type": "function"
    },
    {
      "inputs": [
        {
          "internalType": "uint256[]",
          "name": "_ids",
          "type": "uint256[]"
        },
        {
          "internalType": "uint256[]",
          "name": "_amounts",
          "type": "uint256[]"
        }
      ],
      "name": "burnBatch",
      "outputs": [],
      "stateMutability": "nonpayable",
      "type": "function"
    },
    {
      "inputs": [
        {
          "internalType": "address",
          "name": "_initialOwner",
          "type": "address"
        },
        {
          "internalType": "uint256",
          "name": "_id",
          "type": "uint256"
        },
        {
          "internalType": "uint256",
          "name": "_initialSupply",
          "type": "uint256"
        },
        {
          "internalType": "bytes",
          "name": "_data",
          "type": "bytes"
        }
      ],
      "name": "create",
      "outputs": [
        {
          "internalType": "uint256",
          "name": "",
          "type": "uint256"
        }
      ],
      "stateMutability": "nonpayable",
      "type": "function"
    },
    {
      "inputs": [
        {
          "internalType": "uint256",
          "name": "",
          "type": "uint256"
        }
      ],
      "name": "creators",
      "outputs": [
        {
          "internalType": "address",
          "name": "",
          "type": "address"
        }
      ],
      "stateMutability": "view",
      "type": "function"
    },
    {
      "inputs": [
        {
          "internalType": "uint256",
          "name": "id",
          "type": "uint256"
        }
      ],
      "name": "exists",
      "outputs": [
        {
          "internalType": "bool",
          "name": "",
          "type": "bool"
        }
      ],
      "stateMutability": "view",
      "type": "function"
    },
    {
      "inputs": [
        {
          "internalType": "address",
          "name": "_factory",
          "type": "address"
        }
      ],
      "name": "getFactoryAccessRanges",
      "outputs": [
        {
          "components": [
            {
              "internalType": "uint64",
              "name": "minID",
              "type": "uint64"
            },
            {
              "internalType": "uint64",
              "name": "maxID",
              "type": "uint64"
            },
            {
              "internalType": "uint64",
              "name": "startTime",
              "type": "uint64"
            },
            {
              "internalType": "uint64",
              "name": "endTime",
              "type": "uint64"
            }
          ],
          "internalType": "struct AssetRangeStruct.AssetRange[]",
          "name": "",
          "type": "tuple[]"
        }
      ],
      "stateMutability": "view",
      "type": "function"
    },
    {
      "inputs": [
        {
          "internalType": "address",
          "name": "_owner",
          "type": "address"
        },
        {
          "internalType": "address",
          "name": "_operator",
          "type": "address"
        }
      ],
      "name": "isApprovedForAll",
      "outputs": [
        {
          "internalType": "bool",
          "name": "isOperator",
          "type": "bool"
        }
      ],
      "stateMutability": "view",
      "type": "function"
    },
    {
      "inputs": [
        {
          "internalType": "address",
          "name": "forwarder",
          "type": "address"
        }
      ],
      "name": "isTrustedForwarder",
      "outputs": [
        {
          "internalType": "bool",
          "name": "",
          "type": "bool"
        }
      ],
      "stateMutability": "view",
      "type": "function"
    },
    {
      "inputs": [
        {
          "internalType": "address",
          "name": "_to",
          "type": "address"
        },
        {
          "internalType": "uint256",
          "name": "_id",
          "type": "uint256"
        },
        {
          "internalType": "uint256",
          "name": "_amount",
          "type": "uint256"
        },
        {
          "internalType": "bytes",
          "name": "_data",
          "type": "bytes"
        }
      ],
      "name": "mint",
      "outputs": [],
      "stateMutability": "nonpayable",
      "type": "function"
    },
    {
      "inputs": [
        {
          "internalType": "address",
          "name": "_to",
          "type": "address"
        },
        {
          "internalType": "uint256[]",
          "name": "_ids",
          "type": "uint256[]"
        },
        {
          "internalType": "uint256[]",
          "name": "_amounts",
          "type": "uint256[]"
        },
        {
          "internalType": "bytes",
          "name": "_data",
          "type": "bytes"
        }
      ],
      "name": "mintBatch",
      "outputs": [],
      "stateMutability": "nonpayable",
      "type": "function"
    },
    {
      "inputs": [],
      "name": "owner",
      "outputs": [
        {
          "internalType": "address",
          "name": "",
          "type": "address"
        }
      ],
      "stateMutability": "view",
      "type": "function"
    },
    {
      "inputs": [],
      "name": "pause",
      "outputs": [],
      "stateMutability": "nonpayable",
      "type": "function"
    },
    {
      "inputs": [],
      "name": "paused",
      "outputs": [
        {
          "internalType": "bool",
          "name": "",
          "type": "bool"
        }
      ],
      "stateMutability": "view",
      "type": "function"
    },
    {
      "inputs": [
        {
          "internalType": "address",
          "name": "_factory",
          "type": "address"
        },
        {
          "internalType": "uint256",
          "name": "_rangeIndex",
          "type": "uint256"
        }
      ],
      "name": "removeMintPermission",
      "outputs": [],
      "stateMutability": "nonpayable",
      "type": "function"
    },
    {
      "inputs": [],
      "name": "renounceOwnership",
      "outputs": [],
      "stateMutability": "nonpayable",
      "type": "function"
    },
    {
      "inputs": [
        {
          "internalType": "address",
          "name": "from",
          "type": "address"
        },
        {
          "internalType": "address",
          "name": "to",
          "type": "address"
        },
        {
          "internalType": "uint256[]",
          "name": "ids",
          "type": "uint256[]"
        },
        {
          "internalType": "uint256[]",
          "name": "amounts",
          "type": "uint256[]"
        },
        {
          "internalType": "bytes",
          "name": "data",
          "type": "bytes"
        }
      ],
      "name": "safeBatchTransferFrom",
      "outputs": [],
      "stateMutability": "nonpayable",
      "type": "function"
    },
    {
      "inputs": [
        {
          "internalType": "address",
          "name": "from",
          "type": "address"
        },
        {
          "internalType": "address",
          "name": "to",
          "type": "address"
        },
        {
          "internalType": "uint256",
          "name": "id",
          "type": "uint256"
        },
        {
          "internalType": "uint256",
          "name": "amount",
          "type": "uint256"
        },
        {
          "internalType": "bytes",
          "name": "data",
          "type": "bytes"
        }
      ],
      "name": "safeTransferFrom",
      "outputs": [],
      "stateMutability": "nonpayable",
      "type": "function"
    },
    {
      "inputs": [
        {
          "internalType": "address",
          "name": "operator",
          "type": "address"
        },
        {
          "internalType": "bool",
          "name": "approved",
          "type": "bool"
        }
      ],
      "name": "setApprovalForAll",
      "outputs": [],
      "stateMutability": "nonpayable",
      "type": "function"
    },
    {
      "inputs": [
        {
          "internalType": "address",
          "name": "_to",
          "type": "address"
        },
        {
          "internalType": "uint256[]",
          "name": "_ids",
          "type": "uint256[]"
        }
      ],
      "name": "setCreator",
      "outputs": [],
      "stateMutability": "nonpayable",
      "type": "function"
    },
    {
      "inputs": [
        {
          "internalType": "string",
          "name": "newuri",
          "type": "string"
        }
      ],
      "name": "setURI",
      "outputs": [],
      "stateMutability": "nonpayable",
      "type": "function"
    },
    {
      "inputs": [
        {
          "internalType": "bytes4",
          "name": "_interfaceID",
          "type": "bytes4"
        }
      ],
      "name": "supportsInterface",
      "outputs": [
        {
          "internalType": "bool",
          "name": "",
          "type": "bool"
        }
      ],
      "stateMutability": "view",
      "type": "function"
    },
    {
      "inputs": [
        {
          "internalType": "uint256",
          "name": "id",
          "type": "uint256"
        }
      ],
      "name": "totalSupply",
      "outputs": [
        {
          "internalType": "uint256",
          "name": "",
          "type": "uint256"
        }
      ],
      "stateMutability": "view",
      "type": "function"
    },
    {
      "inputs": [
        {
          "internalType": "address",
          "name": "newOwner",
          "type": "address"
        }
      ],
      "name": "transferOwnership",
      "outputs": [],
      "stateMutability": "nonpayable",
      "type": "function"
    },
    {
      "inputs": [],
      "name": "unpause",
      "outputs": [],
      "stateMutability": "nonpayable",
      "type": "function"
    },
    {
      "inputs": [
        {
          "internalType": "uint256",
          "name": "",
          "type": "uint256"
        }
      ],
      "name": "uri",
      "outputs": [
        {
          "internalType": "string",
          "name": "",
          "type": "string"
        }
      ],
      "stateMutability": "view",
      "type": "function"
    }
  ],
  "bytecode": "0x60806040523480156200001157600080fd5b5060405162005246380380620052468339810160408190526200003491620002a1565b80826200004181620000a3565b506200005662000050620000bc565b620000d9565b600480547fffffffffffffffffffffff0000000000000000000000000000000000000000001673ffffffffffffffffffffffffffffffffffffffff90921691909117905550620003fe9050565b8051620000b8906002906020840190620001d6565b5050565b6000620000d36200015060201b620020ad1760201c565b90505b90565b6003805473ffffffffffffffffffffffffffffffffffffffff8381167fffffffffffffffffffffffff0000000000000000000000000000000000000000831681179093556040519116919082907f8be0079c531659141344cd1fd0a4f28419497f9722a3daafe3b4186f6b6457e090600090a35050565b60006200015d33620001ae565b156200019157507fffffffffffffffffffffffffffffffffffffffffffffffffffffffffffffffec36013560601c620000d6565b620001a6620001d260201b620021041760201c565b9050620000d6565b60045473ffffffffffffffffffffffffffffffffffffffff8281169116145b919050565b3390565b828054620001e490620003ab565b90600052602060002090601f01602090048101928262000208576000855562000253565b82601f106200022357805160ff191683800117855562000253565b8280016001018555821562000253579182015b828111156200025357825182559160200191906001019062000236565b506200026192915062000265565b5090565b5b8082111562000261576000815560010162000266565b805173ffffffffffffffffffffffffffffffffffffffff81168114620001cd57600080fd5b60008060408385031215620002b4578182fd5b825167ffffffffffffffff80821115620002cc578384fd5b818501915085601f830112620002e0578384fd5b815181811115620002f557620002f5620003e8565b604051601f82017fffffffffffffffffffffffffffffffffffffffffffffffffffffffffffffffe0908116603f011681019083821181831017156200033e576200033e620003e8565b816040528281526020935088848487010111156200035a578687fd5b8691505b828210156200037d57848201840151818301850152908301906200035e565b828211156200038e57868484830101525b9550620003a09150508582016200027c565b925050509250929050565b600181811c90821680620003c057607f821691505b60208210811415620003e257634e487b7160e01b600052602260045260246000fd5b50919050565b634e487b7160e01b600052604160045260246000fd5b614e38806200040e6000396000f3fe608060405234801561001057600080fd5b50600436106101d95760003560e01c8063731133e911610104578063bd85b039116100a2578063e985e9c511610071578063e985e9c5146104d5578063f242432a146104e8578063f2fde38b146104fb578063f5298aca1461050e576101d9565b8063bd85b03914610459578063c13dc29114610479578063cd53d08e1461048c578063d2a6b51a146104c2576101d9565b80638da5cb5b116100de5780638da5cb5b146103d4578063a22cb46514610413578063a36b3f2914610426578063b390c0ab14610446576101d9565b8063731133e9146103a657806383ca4b6f146103b95780638456cb59146103cc576101d9565b80633f4ba83a1161017c578063572b6c051161014b578063572b6c05146103545780635c975abb146103835780636b20c4541461038b578063715018a61461039e576101d9565b80633f4ba83a146102f7578063458d2844146102ff5780634e1273f4146103125780634f558e7914610332576101d9565b806307800c9b116101b857806307800c9b1461029e5780630e89341c146102b15780631f7fdffa146102d15780632eb2c2d6146102e4576101d9565b8062fdd58e1461024057806301ffc9a71461026657806302fe530514610289575b6040517f08c379a000000000000000000000000000000000000000000000000000000000815260206004820152601260248201527f554e535550504f525445445f4d4554484f44000000000000000000000000000060448201526064015b60405180910390fd5b61025361024e36600461458e565b610521565b6040519081526020015b60405180910390f35b610279610274366004614859565b6105fc565b604051901515815260200161025d565b61029c610297366004614891565b61060f565b005b61029c6102ac3660046146cb565b6106d5565b6102c46102bf3660046148df565b610aad565b60405161025d9190614b34565b61029c6102df3660046144bf565b610b41565b61029c6102f23660046142f9565b610c5a565b61029c610d42565b61029c61030d36600461458e565b610e06565b61032561032036600461472f565b6112c8565b60405161025d9190614af3565b6102796103403660046148df565b600090815260056020526040902054151590565b6102796103623660046142ad565b60045473ffffffffffffffffffffffffffffffffffffffff90811691161490565b6102796114bc565b61029c61039936600461444e565b6114de565b61029c6115c2565b61029c6103b43660046145e9565b611686565b61029c6103c73660046147f0565b6117ae565b61029c61181c565b60035473ffffffffffffffffffffffffffffffffffffffff165b60405173ffffffffffffffffffffffffffffffffffffffff909116815260200161025d565b61029c610421366004614554565b6118de565b6104396104343660046142ad565b6118f4565b60405161025d9190614a76565b61029c6104543660046148f7565b6119d2565b6102536104673660046148df565b60009081526005602052604090205490565b610253610487366004614678565b6119dd565b6103ee61049a3660046148df565b60066020526000908152604090205473ffffffffffffffffffffffffffffffffffffffff1681565b61029c6104d0366004614402565b611c5c565b6102796104e33660046142c7565b611d47565b61029c6104f636600461439f565b611d87565b61029c6105093660046142ad565b611e68565b61029c61051c3660046145b7565b611fce565b600073ffffffffffffffffffffffffffffffffffffffff83166105c6576040517f08c379a000000000000000000000000000000000000000000000000000000000815260206004820152602b60248201527f455243313135353a2062616c616e636520717565727920666f7220746865207a60448201527f65726f20616464726573730000000000000000000000000000000000000000006064820152608401610237565b5060008181526020818152604080832073ffffffffffffffffffffffffffffffffffffffff861684529091529020545b92915050565b600061060782612108565b90505b919050565b6106176121eb565b73ffffffffffffffffffffffffffffffffffffffff1661064c60035473ffffffffffffffffffffffffffffffffffffffff1690565b73ffffffffffffffffffffffffffffffffffffffff16146106c9576040517f08c379a000000000000000000000000000000000000000000000000000000000815260206004820181905260248201527f4f776e61626c653a2063616c6c6572206973206e6f7420746865206f776e65726044820152606401610237565b6106d2816121fa565b50565b6106dd6121eb565b73ffffffffffffffffffffffffffffffffffffffff1661071260035473ffffffffffffffffffffffffffffffffffffffff1690565b73ffffffffffffffffffffffffffffffffffffffff161461078f576040517f08c379a000000000000000000000000000000000000000000000000000000000815260206004820181905260248201527f4f776e61626c653a2063616c6c6572206973206e6f7420746865206f776e65726044820152606401610237565b60008367ffffffffffffffff1611610803576040517f08c379a000000000000000000000000000000000000000000000000000000000815260206004820181905260248201527f4e4654236164644d696e745065726d697373696f6e3a4e554c4c5f52414e47456044820152606401610237565b8267ffffffffffffffff168467ffffffffffffffff1611156108a7576040517f08c379a000000000000000000000000000000000000000000000000000000000815260206004820152602360248201527f4e4654236164644d696e745065726d697373696f6e3a494e56414c49445f524160448201527f4e474500000000000000000000000000000000000000000000000000000000006064820152608401610237565b8067ffffffffffffffff168267ffffffffffffffff161061094a576040517f08c379a000000000000000000000000000000000000000000000000000000000815260206004820152603160248201527f4e4654236164644d696e745065726d697373696f6e3a53544152545f54494d4560448201527f5f454e445f54494d455f494e56414c49440000000000000000000000000000006064820152608401610237565b6040805160808101825267ffffffffffffffff808716825285811660208084019182528683168486019081528684166060860190815273ffffffffffffffffffffffffffffffffffffffff8c166000818152600785528881208054600181018255908252949020875194018054955193519251871678010000000000000000000000000000000000000000000000000277ffffffffffffffffffffffffffffffffffffffffffffffff93881670010000000000000000000000000000000002939093166fffffffffffffffffffffffffffffffff94881668010000000000000000027fffffffffffffffffffffffffffffffff0000000000000000000000000000000090971695909716949094179490941791909116939093179290921790915591519091907f188968bccf857d854c73494ca4da4cc4ae2769e4b732db8f40dfa62b86b1c40a90610a9d908490614b47565b60405180910390a2505050505050565b606060028054610abc90614bd7565b80601f0160208091040260200160405190810160405280929190818152602001828054610ae890614bd7565b8015610b355780601f10610b0a57610100808354040283529160200191610b35565b820191906000526020600020905b815481529060010190602001808311610b1857829003601f168201915b50505050509050919050565b610b4b838361220d565b60005b8351811015610c47576000848281518110610b92577f4e487b7100000000000000000000000000000000000000000000000000000000600052603260045260246000fd5b60200260200101519050610ba46121eb565b60008281526006602052604090205473ffffffffffffffffffffffffffffffffffffffff908116911614610c34576040517f08c379a000000000000000000000000000000000000000000000000000000000815260206004820152601a60248201527f4e4654236d696e7442617463683a4f4e4c595f43524541544f520000000000006044820152606401610237565b5080610c3f81614c76565b915050610b4e565b50610c5484848484612549565b50505050565b610c626121eb565b73ffffffffffffffffffffffffffffffffffffffff168573ffffffffffffffffffffffffffffffffffffffff161480610ca25750610ca2856104e36121eb565b610d2e576040517f08c379a000000000000000000000000000000000000000000000000000000000815260206004820152603260248201527f455243313135353a207472616e736665722063616c6c6572206973206e6f742060448201527f6f776e6572206e6f7220617070726f76656400000000000000000000000000006064820152608401610237565b610d3b858585858561282a565b5050505050565b610d4a6121eb565b73ffffffffffffffffffffffffffffffffffffffff16610d7f60035473ffffffffffffffffffffffffffffffffffffffff1690565b73ffffffffffffffffffffffffffffffffffffffff1614610dfc576040517f08c379a000000000000000000000000000000000000000000000000000000000815260206004820181905260248201527f4f776e61626c653a2063616c6c6572206973206e6f7420746865206f776e65726044820152606401610237565b610e04612bc3565b565b610e0e6121eb565b73ffffffffffffffffffffffffffffffffffffffff16610e4360035473ffffffffffffffffffffffffffffffffffffffff1690565b73ffffffffffffffffffffffffffffffffffffffff1614610ec0576040517f08c379a000000000000000000000000000000000000000000000000000000000815260206004820181905260248201527f4f776e61626c653a2063616c6c6572206973206e6f7420746865206f776e65726044820152606401610237565b73ffffffffffffffffffffffffffffffffffffffff8216600090815260076020526040812054610ef290600190614bc0565b73ffffffffffffffffffffffffffffffffffffffff841660009081526007602052604081208054929350909184908110610f55577f4e487b7100000000000000000000000000000000000000000000000000000000600052603260045260246000fd5b600091825260209182902060408051608081018252929091015467ffffffffffffffff8082168452680100000000000000008204811694840194909452700100000000000000000000000000000000810484169183019190915278010000000000000000000000000000000000000000000000009004909116606082015290508183146111e15773ffffffffffffffffffffffffffffffffffffffff8416600090815260076020526040812080548490811061103a577f4e487b7100000000000000000000000000000000000000000000000000000000600052603260045260246000fd5b6000918252602080832060408051608081018252919093015467ffffffffffffffff80821683526801000000000000000082048116838501527001000000000000000000000000000000008204811683860152780100000000000000000000000000000000000000000000000090910416606082015273ffffffffffffffffffffffffffffffffffffffff8916845260079091529120805491925082918690811061110e577f4e487b7100000000000000000000000000000000000000000000000000000000600052603260045260246000fd5b600091825260209182902083519101805492840151604085015160609095015167ffffffffffffffff90811678010000000000000000000000000000000000000000000000000277ffffffffffffffffffffffffffffffffffffffffffffffff96821670010000000000000000000000000000000002969096166fffffffffffffffffffffffffffffffff92821668010000000000000000027fffffffffffffffffffffffffffffffff000000000000000000000000000000009096169190941617939093179290921617919091179055505b73ffffffffffffffffffffffffffffffffffffffff8416600090815260076020526040902080548061123c577f4e487b7100000000000000000000000000000000000000000000000000000000600052603160045260246000fd5b60008281526020812082017fffffffffffffffffffffffffffffffffffffffffffffffffffffffffffffffff9081019190915501905560405173ffffffffffffffffffffffffffffffffffffffff8516907f1bca5c143feb87c2d4e8d2d1fd73ba6f43f551ba73c58634f56bbe30701f06d4906112ba908490614b47565b60405180910390a250505050565b6060815183511461135b576040517f08c379a000000000000000000000000000000000000000000000000000000000815260206004820152602960248201527f455243313135353a206163636f756e747320616e6420696473206c656e67746860448201527f206d69736d6174636800000000000000000000000000000000000000000000006064820152608401610237565b6000835167ffffffffffffffff81111561139e577f4e487b7100000000000000000000000000000000000000000000000000000000600052604160045260246000fd5b6040519080825280602002602001820160405280156113c7578160200160208202803683370190505b50905060005b84518110156114b457611460858281518110611412577f4e487b7100000000000000000000000000000000000000000000000000000000600052603260045260246000fd5b6020026020010151858381518110611453577f4e487b7100000000000000000000000000000000000000000000000000000000600052603260045260246000fd5b6020026020010151610521565b828281518110611499577f4e487b7100000000000000000000000000000000000000000000000000000000600052603260045260246000fd5b60209081029190910101526114ad81614c76565b90506113cd565b509392505050565b60045474010000000000000000000000000000000000000000900460ff165b90565b6114e66121eb565b73ffffffffffffffffffffffffffffffffffffffff168373ffffffffffffffffffffffffffffffffffffffff1614806115265750611526836104e36121eb565b6115b2576040517f08c379a000000000000000000000000000000000000000000000000000000000815260206004820152602960248201527f455243313135353a2063616c6c6572206973206e6f74206f776e6572206e6f7260448201527f20617070726f76656400000000000000000000000000000000000000000000006064820152608401610237565b6115bd838383612cac565b505050565b6115ca6121eb565b73ffffffffffffffffffffffffffffffffffffffff166115ff60035473ffffffffffffffffffffffffffffffffffffffff1690565b73ffffffffffffffffffffffffffffffffffffffff161461167c576040517f08c379a000000000000000000000000000000000000000000000000000000000815260206004820181905260248201527f4f776e61626c653a2063616c6c6572206973206e6f7420746865206f776e65726044820152606401610237565b610e04600061302c565b6040805160018082528183019092526000916020808301908036833750506040805160018082528183019092529293506000929150602080830190803683370190505090508582600081518110611706577f4e487b7100000000000000000000000000000000000000000000000000000000600052603260045260246000fd5b602002602001018181525050848160008151811061174d577f4e487b7100000000000000000000000000000000000000000000000000000000600052603260045260246000fd5b602002602001018181525050611763828261220d565b6117a587878787878080601f0160208091040260200160405190810160405280939291908181526020018383808284376000920191909152506130a392505050565b50505050505050565b610c543385858080602002602001604051908101604052809392919081815260200183836020028082843760009201919091525050604080516020808902828101820190935288825290935088925087918291850190849080828437600092019190915250612cac92505050565b6118246121eb565b73ffffffffffffffffffffffffffffffffffffffff1661185960035473ffffffffffffffffffffffffffffffffffffffff1690565b73ffffffffffffffffffffffffffffffffffffffff16146118d6576040517f08c379a000000000000000000000000000000000000000000000000000000000815260206004820181905260248201527f4f776e61626c653a2063616c6c6572206973206e6f7420746865206f776e65726044820152606401610237565b610e0461321b565b6118f06118e96121eb565b83836132f2565b5050565b73ffffffffffffffffffffffffffffffffffffffff81166000908152600760209081526040808320805482518185028101850190935280835260609492939192909184015b828210156119c7576000848152602090819020604080516080810182529185015467ffffffffffffffff8082168452680100000000000000008204811684860152700100000000000000000000000000000000820481169284019290925278010000000000000000000000000000000000000000000000009004166060820152825260019092019101611939565b505050509050919050565b6118f0338383613446565b60006119e76121eb565b73ffffffffffffffffffffffffffffffffffffffff16611a1c60035473ffffffffffffffffffffffffffffffffffffffff1690565b73ffffffffffffffffffffffffffffffffffffffff1614611a99576040517f08c379a000000000000000000000000000000000000000000000000000000000815260206004820181905260248201527f4f776e61626c653a2063616c6c6572206973206e6f7420746865206f776e65726044820152606401610237565b60008481526005602052604090205415611b0f576040517f08c379a000000000000000000000000000000000000000000000000000000000815260206004820152601560248201527f6372656174653a746f6b656e5f69645f657869737400000000000000000000006044820152606401610237565b6040805160018082528183019092526000916020808301908036833750506040805160018082528183019092529293506000929150602080830190803683370190505090508582600081518110611b8f577f4e487b7100000000000000000000000000000000000000000000000000000000600052603260045260246000fd5b6020026020010181815250508481600081518110611bd6577f4e487b7100000000000000000000000000000000000000000000000000000000600052603260045260246000fd5b602002602001018181525050611bec828261220d565b611bf46121eb565b600087815260066020526040902080547fffffffffffffffffffffffff00000000000000000000000000000000000000001673ffffffffffffffffffffffffffffffffffffffff92909216919091179055611c51878787876130a3565b509395945050505050565b73ffffffffffffffffffffffffffffffffffffffff8216611cd9576040517f08c379a000000000000000000000000000000000000000000000000000000000815260206004820152601f60248201527f4e46542373657443726561746f723a494e56414c49445f414444524553532e006044820152606401610237565b60005b81518110156115bd576000828281518110611d20577f4e487b7100000000000000000000000000000000000000000000000000000000600052603260045260246000fd5b60200260200101519050611d348482613658565b5080611d3f81614c76565b915050611cdc565b73ffffffffffffffffffffffffffffffffffffffff808316600090815260016020908152604080832093851683529290529081205460ff165b9392505050565b611d8f6121eb565b73ffffffffffffffffffffffffffffffffffffffff168573ffffffffffffffffffffffffffffffffffffffff161480611dcf5750611dcf856104e36121eb565b611e5b576040517f08c379a000000000000000000000000000000000000000000000000000000000815260206004820152602960248201527f455243313135353a2063616c6c6572206973206e6f74206f776e6572206e6f7260448201527f20617070726f76656400000000000000000000000000000000000000000000006064820152608401610237565b610d3b8585858585613745565b611e706121eb565b73ffffffffffffffffffffffffffffffffffffffff16611ea560035473ffffffffffffffffffffffffffffffffffffffff1690565b73ffffffffffffffffffffffffffffffffffffffff1614611f22576040517f08c379a000000000000000000000000000000000000000000000000000000000815260206004820181905260248201527f4f776e61626c653a2063616c6c6572206973206e6f7420746865206f776e65726044820152606401610237565b73ffffffffffffffffffffffffffffffffffffffff8116611fc5576040517f08c379a000000000000000000000000000000000000000000000000000000000815260206004820152602660248201527f4f776e61626c653a206e6577206f776e657220697320746865207a65726f206160448201527f64647265737300000000000000000000000000000000000000000000000000006064820152608401610237565b6106d28161302c565b611fd66121eb565b73ffffffffffffffffffffffffffffffffffffffff168373ffffffffffffffffffffffffffffffffffffffff1614806120165750612016836104e36121eb565b6120a2576040517f08c379a000000000000000000000000000000000000000000000000000000000815260206004820152602960248201527f455243313135353a2063616c6c6572206973206e6f74206f776e6572206e6f7260448201527f20617070726f76656400000000000000000000000000000000000000000000006064820152608401610237565b6115bd838383613446565b60045460009073ffffffffffffffffffffffffffffffffffffffff163314156120fd57507fffffffffffffffffffffffffffffffffffffffffffffffffffffffffffffffec36013560601c6114db565b50336114db565b3390565b60007fffffffff0000000000000000000000000000000000000000000000000000000082167fd9b67a2600000000000000000000000000000000000000000000000000000000148061219b57507fffffffff0000000000000000000000000000000000000000000000000000000082167f0e89341c00000000000000000000000000000000000000000000000000000000145b8061060757507f01ffc9a7000000000000000000000000000000000000000000000000000000007fffffffff00000000000000000000000000000000000000000000000000000000831614610607565b60006121f56120ad565b905090565b80516118f090600290602084019061407f565b336000908152600760205260408120805491908183612255577f4e487b7100000000000000000000000000000000000000000000000000000000600052603260045260246000fd5b6000918252602080832060408051608081018252939091015467ffffffffffffffff80821685526801000000000000000082048116938501939093527001000000000000000000000000000000008104831691840191909152780100000000000000000000000000000000000000000000000090041660608201529150805b8551811015612541576000868281518110612318577f4e487b7100000000000000000000000000000000000000000000000000000000600052603260045260246000fd5b60200260200101519050600086838151811061235d577f4e487b7100000000000000000000000000000000000000000000000000000000600052603260045260246000fd5b602002602001015190505b846040015167ffffffffffffffff164210806123915750846060015167ffffffffffffffff1642115b806123a65750845167ffffffffffffffff1682105b806123be575081856020015167ffffffffffffffff16105b1561252c576123ce600185614ba8565b935085841061245f576040517f08c379a000000000000000000000000000000000000000000000000000000000815260206004820152602260248201527f4e4654235f76616c69646174654d696e74733a49445f4f55545f4f465f52414e60448201527f47450000000000000000000000000000000000000000000000000000000000006064820152608401610237565b3360009081526007602052604090208054859081106124a7577f4e487b7100000000000000000000000000000000000000000000000000000000600052603260045260246000fd5b600091825260209182902060408051608081018252929091015467ffffffffffffffff808216845268010000000000000000820481169484019490945270010000000000000000000000000000000081048416918301919091527801000000000000000000000000000000000000000000000000900490911660608201529450612368565b5050808061253990614c76565b9150506122d4565b505050505050565b73ffffffffffffffffffffffffffffffffffffffff84166125ec576040517f08c379a000000000000000000000000000000000000000000000000000000000815260206004820152602160248201527f455243313135353a206d696e7420746f20746865207a65726f2061646472657360448201527f73000000000000000000000000000000000000000000000000000000000000006064820152608401610237565b815183511461267d576040517f08c379a000000000000000000000000000000000000000000000000000000000815260206004820152602860248201527f455243313135353a2069647320616e6420616d6f756e7473206c656e6774682060448201527f6d69736d617463680000000000000000000000000000000000000000000000006064820152608401610237565b60006126876121eb565b905061269881600087878787613978565b60005b845181101561279b578381815181106126dd577f4e487b7100000000000000000000000000000000000000000000000000000000600052603260045260246000fd5b6020026020010151600080878481518110612721577f4e487b7100000000000000000000000000000000000000000000000000000000600052603260045260246000fd5b6020026020010151815260200190815260200160002060008873ffffffffffffffffffffffffffffffffffffffff1673ffffffffffffffffffffffffffffffffffffffff16815260200190815260200160002060008282546127839190614ba8565b9091555081905061279381614c76565b91505061269b565b508473ffffffffffffffffffffffffffffffffffffffff16600073ffffffffffffffffffffffffffffffffffffffff168273ffffffffffffffffffffffffffffffffffffffff167f4a39dc06d4c0dbc64b70af90fd698a233a518aa5d07e595d983b8c0526c8f7fb8787604051612813929190614b06565b60405180910390a4610d3b816000878787876139f5565b81518351146128bb576040517f08c379a000000000000000000000000000000000000000000000000000000000815260206004820152602860248201527f455243313135353a2069647320616e6420616d6f756e7473206c656e6774682060448201527f6d69736d617463680000000000000000000000000000000000000000000000006064820152608401610237565b73ffffffffffffffffffffffffffffffffffffffff841661295e576040517f08c379a000000000000000000000000000000000000000000000000000000000815260206004820152602560248201527f455243313135353a207472616e7366657220746f20746865207a65726f20616460448201527f64726573730000000000000000000000000000000000000000000000000000006064820152608401610237565b60006129686121eb565b9050612978818787878787613978565b60005b8451811015612b365760008582815181106129bf577f4e487b7100000000000000000000000000000000000000000000000000000000600052603260045260246000fd5b602002602001015190506000858381518110612a04577f4e487b7100000000000000000000000000000000000000000000000000000000600052603260045260246000fd5b6020908102919091018101516000848152808352604080822073ffffffffffffffffffffffffffffffffffffffff8e168352909352919091205490915081811015612ad1576040517f08c379a000000000000000000000000000000000000000000000000000000000815260206004820152602a60248201527f455243313135353a20696e73756666696369656e742062616c616e636520666f60448201527f72207472616e73666572000000000000000000000000000000000000000000006064820152608401610237565b60008381526020818152604080832073ffffffffffffffffffffffffffffffffffffffff8e8116855292528083208585039055908b16825281208054849290612b1b908490614ba8565b9250508190555050505080612b2f90614c76565b905061297b565b508473ffffffffffffffffffffffffffffffffffffffff168673ffffffffffffffffffffffffffffffffffffffff168273ffffffffffffffffffffffffffffffffffffffff167f4a39dc06d4c0dbc64b70af90fd698a233a518aa5d07e595d983b8c0526c8f7fb8787604051612bad929190614b06565b60405180910390a46125418187878787876139f5565b612bcb6114bc565b612c31576040517f08c379a000000000000000000000000000000000000000000000000000000000815260206004820152601460248201527f5061757361626c653a206e6f74207061757365640000000000000000000000006044820152606401610237565b600480547fffffffffffffffffffffff00ffffffffffffffffffffffffffffffffffffffff1690557f5db9ee0a495bf2e6ff9c91a7834c1ba4fdd244a5e8aa4e537bd38aeae4b073aa612c826121eb565b60405173ffffffffffffffffffffffffffffffffffffffff909116815260200160405180910390a1565b73ffffffffffffffffffffffffffffffffffffffff8316612d4f576040517f08c379a000000000000000000000000000000000000000000000000000000000815260206004820152602360248201527f455243313135353a206275726e2066726f6d20746865207a65726f206164647260448201527f65737300000000000000000000000000000000000000000000000000000000006064820152608401610237565b8051825114612de0576040517f08c379a000000000000000000000000000000000000000000000000000000000815260206004820152602860248201527f455243313135353a2069647320616e6420616d6f756e7473206c656e6774682060448201527f6d69736d617463680000000000000000000000000000000000000000000000006064820152608401610237565b6000612dea6121eb565b9050612e0a81856000868660405180602001604052806000815250613978565b60005b8351811015612fa6576000848281518110612e51577f4e487b7100000000000000000000000000000000000000000000000000000000600052603260045260246000fd5b602002602001015190506000848381518110612e96577f4e487b7100000000000000000000000000000000000000000000000000000000600052603260045260246000fd5b6020908102919091018101516000848152808352604080822073ffffffffffffffffffffffffffffffffffffffff8c168352909352919091205490915081811015612f62576040517f08c379a0000000000000000000000000000000000000000000000000000000008152602060048201526024808201527f455243313135353a206275726e20616d6f756e7420657863656564732062616c60448201527f616e6365000000000000000000000000000000000000000000000000000000006064820152608401610237565b60009283526020838152604080852073ffffffffffffffffffffffffffffffffffffffff8b1686529091529092209103905580612f9e81614c76565b915050612e0d565b50600073ffffffffffffffffffffffffffffffffffffffff168473ffffffffffffffffffffffffffffffffffffffff168273ffffffffffffffffffffffffffffffffffffffff167f4a39dc06d4c0dbc64b70af90fd698a233a518aa5d07e595d983b8c0526c8f7fb868660405161301e929190614b06565b60405180910390a450505050565b6003805473ffffffffffffffffffffffffffffffffffffffff8381167fffffffffffffffffffffffff0000000000000000000000000000000000000000831681179093556040519116919082907f8be0079c531659141344cd1fd0a4f28419497f9722a3daafe3b4186f6b6457e090600090a35050565b73ffffffffffffffffffffffffffffffffffffffff8416613146576040517f08c379a000000000000000000000000000000000000000000000000000000000815260206004820152602160248201527f455243313135353a206d696e7420746f20746865207a65726f2061646472657360448201527f73000000000000000000000000000000000000000000000000000000000000006064820152608401610237565b60006131506121eb565b90506131718160008761316288613c8f565b61316b88613c8f565b87613978565b60008481526020818152604080832073ffffffffffffffffffffffffffffffffffffffff89168452909152812080548592906131ae908490614ba8565b9091555050604080518581526020810185905273ffffffffffffffffffffffffffffffffffffffff80881692600092918516917fc3d58168c5ae7397731d063d5bbf3d657854427343f4c083240f7aacaa2d0f62910160405180910390a4610d3b81600087878787613d01565b6132236114bc565b1561328a576040517f08c379a000000000000000000000000000000000000000000000000000000000815260206004820152601060248201527f5061757361626c653a20706175736564000000000000000000000000000000006044820152606401610237565b600480547fffffffffffffffffffffff00ffffffffffffffffffffffffffffffffffffffff16740100000000000000000000000000000000000000001790557f62e78cea01bee320cd4e420270b5ea74000d11b0c9f74754ebdbfc544b05a258612c826121eb565b8173ffffffffffffffffffffffffffffffffffffffff168373ffffffffffffffffffffffffffffffffffffffff1614156133ae576040517f08c379a000000000000000000000000000000000000000000000000000000000815260206004820152602960248201527f455243313135353a2073657474696e6720617070726f76616c2073746174757360448201527f20666f722073656c6600000000000000000000000000000000000000000000006064820152608401610237565b73ffffffffffffffffffffffffffffffffffffffff83811660008181526001602090815260408083209487168084529482529182902080547fffffffffffffffffffffffffffffffffffffffffffffffffffffffffffffff001686151590811790915591519182527f17307eab39ab6107e8899845ad3d59bd9653f200f220920489ca2b5937696c31910160405180910390a3505050565b73ffffffffffffffffffffffffffffffffffffffff83166134e9576040517f08c379a000000000000000000000000000000000000000000000000000000000815260206004820152602360248201527f455243313135353a206275726e2066726f6d20746865207a65726f206164647260448201527f65737300000000000000000000000000000000000000000000000000000000006064820152608401610237565b60006134f36121eb565b90506135238185600061350587613c8f565b61350e87613c8f565b60405180602001604052806000815250613978565b60008381526020818152604080832073ffffffffffffffffffffffffffffffffffffffff88168452909152902054828110156135e0576040517f08c379a0000000000000000000000000000000000000000000000000000000008152602060048201526024808201527f455243313135353a206275726e20616d6f756e7420657863656564732062616c60448201527f616e6365000000000000000000000000000000000000000000000000000000006064820152608401610237565b60008481526020818152604080832073ffffffffffffffffffffffffffffffffffffffff898116808652918452828520888703905582518981529384018890529092908616917fc3d58168c5ae7397731d063d5bbf3d657854427343f4c083240f7aacaa2d0f62910160405180910390a45050505050565b806136616121eb565b60008281526006602052604090205473ffffffffffffffffffffffffffffffffffffffff9081169116146136f1576040517f08c379a000000000000000000000000000000000000000000000000000000000815260206004820152601c60248201527f4e46542363726561746f724f6e6c793a4f4e4c595f43524541544f52000000006044820152606401610237565b50600090815260066020526040902080547fffffffffffffffffffffffff00000000000000000000000000000000000000001673ffffffffffffffffffffffffffffffffffffffff92909216919091179055565b73ffffffffffffffffffffffffffffffffffffffff84166137e8576040517f08c379a000000000000000000000000000000000000000000000000000000000815260206004820152602560248201527f455243313135353a207472616e7366657220746f20746865207a65726f20616460448201527f64726573730000000000000000000000000000000000000000000000000000006064820152608401610237565b60006137f26121eb565b905061380381878761316288613c8f565b60008481526020818152604080832073ffffffffffffffffffffffffffffffffffffffff8a168452909152902054838110156138c1576040517f08c379a000000000000000000000000000000000000000000000000000000000815260206004820152602a60248201527f455243313135353a20696e73756666696369656e742062616c616e636520666f60448201527f72207472616e73666572000000000000000000000000000000000000000000006064820152608401610237565b60008581526020818152604080832073ffffffffffffffffffffffffffffffffffffffff8b811685529252808320878503905590881682528120805486929061390b908490614ba8565b9091555050604080518681526020810186905273ffffffffffffffffffffffffffffffffffffffff808916928a821692918616917fc3d58168c5ae7397731d063d5bbf3d657854427343f4c083240f7aacaa2d0f62910160405180910390a46117a5828888888888613d01565b6139806114bc565b156139e7576040517f08c379a000000000000000000000000000000000000000000000000000000000815260206004820152601060248201527f5061757361626c653a20706175736564000000000000000000000000000000006044820152606401610237565b612541868686868686613ebd565b73ffffffffffffffffffffffffffffffffffffffff84163b15612541576040517fbc197c8100000000000000000000000000000000000000000000000000000000815273ffffffffffffffffffffffffffffffffffffffff85169063bc197c8190613a6c90899089908890889088906004016149bb565b602060405180830381600087803b158015613a8657600080fd5b505af1925050508015613ad4575060408051601f3d9081017fffffffffffffffffffffffffffffffffffffffffffffffffffffffffffffffe0168201909252613ad191810190614875565b60015b613bbe57613ae0614d0d565b806308c379a01415613b345750613af5614d24565b80613b005750613b36565b806040517f08c379a00000000000000000000000000000000000000000000000000000000081526004016102379190614b34565b505b6040517f08c379a000000000000000000000000000000000000000000000000000000000815260206004820152603460248201527f455243313135353a207472616e7366657220746f206e6f6e204552433131353560448201527f526563656976657220696d706c656d656e7465720000000000000000000000006064820152608401610237565b7fffffffff0000000000000000000000000000000000000000000000000000000081167fbc197c8100000000000000000000000000000000000000000000000000000000146117a5576040517f08c379a000000000000000000000000000000000000000000000000000000000815260206004820152602860248201527f455243313135353a204552433131353552656365697665722072656a6563746560448201527f6420746f6b656e730000000000000000000000000000000000000000000000006064820152608401610237565b60408051600180825281830190925260609160009190602080830190803683370190505090508281600081518110613cf0577f4e487b7100000000000000000000000000000000000000000000000000000000600052603260045260246000fd5b602090810291909101015292915050565b73ffffffffffffffffffffffffffffffffffffffff84163b15612541576040517ff23a6e6100000000000000000000000000000000000000000000000000000000815273ffffffffffffffffffffffffffffffffffffffff85169063f23a6e6190613d789089908990889088908890600401614a26565b602060405180830381600087803b158015613d9257600080fd5b505af1925050508015613de0575060408051601f3d9081017fffffffffffffffffffffffffffffffffffffffffffffffffffffffffffffffe0168201909252613ddd91810190614875565b60015b613dec57613ae0614d0d565b7fffffffff0000000000000000000000000000000000000000000000000000000081167ff23a6e6100000000000000000000000000000000000000000000000000000000146117a5576040517f08c379a000000000000000000000000000000000000000000000000000000000815260206004820152602860248201527f455243313135353a204552433131353552656365697665722072656a6563746560448201527f6420746f6b656e730000000000000000000000000000000000000000000000006064820152608401610237565b73ffffffffffffffffffffffffffffffffffffffff8516613f9f5760005b8351811015613f9d57828181518110613f1d577f4e487b7100000000000000000000000000000000000000000000000000000000600052603260045260246000fd5b602002602001015160056000868481518110613f62577f4e487b7100000000000000000000000000000000000000000000000000000000600052603260045260246000fd5b602002602001015181526020019081526020016000206000828254613f879190614ba8565b90915550613f96905081614c76565b9050613edb565b505b73ffffffffffffffffffffffffffffffffffffffff84166125415760005b83518110156117a557828181518110613fff577f4e487b7100000000000000000000000000000000000000000000000000000000600052603260045260246000fd5b602002602001015160056000868481518110614044577f4e487b7100000000000000000000000000000000000000000000000000000000600052603260045260246000fd5b6020026020010151815260200190815260200160002060008282546140699190614bc0565b90915550614078905081614c76565b9050613fbd565b82805461408b90614bd7565b90600052602060002090601f0160209004810192826140ad57600085556140f3565b82601f106140c657805160ff19168380011785556140f3565b828001600101855582156140f3579182015b828111156140f35782518255916020019190600101906140d8565b506140ff929150614103565b5090565b5b808211156140ff5760008155600101614104565b600067ffffffffffffffff83111561413257614132614cde565b60405161416760207fffffffffffffffffffffffffffffffffffffffffffffffffffffffffffffffe0601f8701160182614c2b565b80915083815284848401111561417c57600080fd5b83836020830137600060208583010152509392505050565b803573ffffffffffffffffffffffffffffffffffffffff8116811461060a57600080fd5b60008083601f8401126141c9578182fd5b50813567ffffffffffffffff8111156141e0578182fd5b6020830191508360208260051b85010111156141fb57600080fd5b9250929050565b600082601f830112614212578081fd5b8135602061421f82614b84565b60405161422c8282614c2b565b8381528281019150858301600585901b8701840188101561424b578586fd5b855b858110156142695781358452928401929084019060010161424d565b5090979650505050505050565b600082601f830112614286578081fd5b611d8083833560208501614118565b803567ffffffffffffffff8116811461060a57600080fd5b6000602082840312156142be578081fd5b611d8082614194565b600080604083850312156142d9578081fd5b6142e283614194565b91506142f060208401614194565b90509250929050565b600080600080600060a08688031215614310578081fd5b61431986614194565b945061432760208701614194565b9350604086013567ffffffffffffffff80821115614343578283fd5b61434f89838a01614202565b94506060880135915080821115614364578283fd5b61437089838a01614202565b93506080880135915080821115614385578283fd5b5061439288828901614276565b9150509295509295909350565b600080600080600060a086880312156143b6578081fd5b6143bf86614194565b94506143cd60208701614194565b93506040860135925060608601359150608086013567ffffffffffffffff8111156143f6578182fd5b61439288828901614276565b60008060408385031215614414578182fd5b61441d83614194565b9150602083013567ffffffffffffffff811115614438578182fd5b61444485828601614202565b9150509250929050565b600080600060608486031215614462578283fd5b61446b84614194565b9250602084013567ffffffffffffffff80821115614487578384fd5b61449387838801614202565b935060408601359150808211156144a8578283fd5b506144b586828701614202565b9150509250925092565b600080600080608085870312156144d4578182fd5b6144dd85614194565b9350602085013567ffffffffffffffff808211156144f9578384fd5b61450588838901614202565b9450604087013591508082111561451a578384fd5b61452688838901614202565b9350606087013591508082111561453b578283fd5b5061454887828801614276565b91505092959194509250565b60008060408385031215614566578182fd5b61456f83614194565b915060208301358015158114614583578182fd5b809150509250929050565b600080604083850312156145a0578182fd5b6145a983614194565b946020939093013593505050565b6000806000606084860312156145cb578081fd5b6145d484614194565b95602085013595506040909401359392505050565b600080600080600060808688031215614600578283fd5b61460986614194565b94506020860135935060408601359250606086013567ffffffffffffffff80821115614633578283fd5b818801915088601f830112614646578283fd5b813581811115614654578384fd5b896020828501011115614665578384fd5b9699959850939650602001949392505050565b6000806000806080858703121561468d578182fd5b61469685614194565b93506020850135925060408501359150606085013567ffffffffffffffff8111156146bf578182fd5b61454887828801614276565b600080600080600060a086880312156146e2578283fd5b6146eb86614194565b94506146f960208701614295565b935061470760408701614295565b925061471560608701614295565b915061472360808701614295565b90509295509295909350565b60008060408385031215614741578182fd5b823567ffffffffffffffff80821115614758578384fd5b818501915085601f83011261476b578384fd5b8135602061477882614b84565b6040516147858282614c2b565b8381528281019150858301600585901b870184018b10156147a4578889fd5b8896505b848710156147cd576147b981614194565b8352600196909601959183019183016147a8565b50965050860135925050808211156147e3578283fd5b5061444485828601614202565b60008060008060408587031215614805578182fd5b843567ffffffffffffffff8082111561481c578384fd5b614828888389016141b8565b90965094506020870135915080821115614840578384fd5b5061484d878288016141b8565b95989497509550505050565b60006020828403121561486a578081fd5b8135611d8081614dd4565b600060208284031215614886578081fd5b8151611d8081614dd4565b6000602082840312156148a2578081fd5b813567ffffffffffffffff8111156148b8578182fd5b8201601f810184136148c8578182fd5b6148d784823560208401614118565b949350505050565b6000602082840312156148f0578081fd5b5035919050565b60008060408385031215614909578182fd5b50508035926020909101359150565b6000815180845260208085019450808401835b838110156149475781518752958201959082019060010161492b565b509495945050505050565b60008151808452815b818110156149775760208185018101518683018201520161495b565b818111156149885782602083870101525b50601f017fffffffffffffffffffffffffffffffffffffffffffffffffffffffffffffffe0169290920160200192915050565b600073ffffffffffffffffffffffffffffffffffffffff808816835280871660208401525060a060408301526149f460a0830186614918565b8281036060840152614a068186614918565b90508281036080840152614a1a8185614952565b98975050505050505050565b600073ffffffffffffffffffffffffffffffffffffffff808816835280871660208401525084604083015283606083015260a06080830152614a6b60a0830184614952565b979650505050505050565b6020808252825182820181905260009190848201906040850190845b81811015614ae757614ad4838551805167ffffffffffffffff908116835260208083015182169084015260408083015182169084015260609182015116910152565b9284019260809290920191600101614a92565b50909695505050505050565b600060208252611d806020830184614918565b600060408252614b196040830185614918565b8281036020840152614b2b8185614918565b95945050505050565b600060208252611d806020830184614952565b608081016105f68284805167ffffffffffffffff908116835260208083015182169084015260408083015182169084015260609182015116910152565b600067ffffffffffffffff821115614b9e57614b9e614cde565b5060051b60200190565b60008219821115614bbb57614bbb614caf565b500190565b600082821015614bd257614bd2614caf565b500390565b600181811c90821680614beb57607f821691505b60208210811415614c25577f4e487b7100000000000000000000000000000000000000000000000000000000600052602260045260246000fd5b50919050565b7fffffffffffffffffffffffffffffffffffffffffffffffffffffffffffffffe0601f830116810181811067ffffffffffffffff82111715614c6f57614c6f614cde565b6040525050565b60007fffffffffffffffffffffffffffffffffffffffffffffffffffffffffffffffff821415614ca857614ca8614caf565b5060010190565b7f4e487b7100000000000000000000000000000000000000000000000000000000600052601160045260246000fd5b7f4e487b7100000000000000000000000000000000000000000000000000000000600052604160045260246000fd5b600060033d11156114db57600481823e5160e01c90565b600060443d1015614d34576114db565b6040517ffffffffffffffffffffffffffffffffffffffffffffffffffffffffffffffffc803d016004833e81513d67ffffffffffffffff8160248401118184111715614d845750505050506114db565b8285019150815181811115614d9e575050505050506114db565b843d8701016020828501011115614dba575050505050506114db565b614dc960208286010187614c2b565b509094505050505090565b7fffffffff00000000000000000000000000000000000000000000000000000000811681146106d257600080fdfea2646970667358221220108febe3b7495309cdc215d18793ddd9e8092d281d985b3f0c0e2fa585a0a2fd64736f6c63430008030033",
  "linkReferences": {},
  "deployedLinkReferences": {}
}