{
  "_format": "hh-sol-artifact-1",
  "contractName": "MetacanaNFT",
  "sourceName": "contracts/nft/tokens/MetacanaNFT.sol",
  "abi": [
    {
      "inputs": [
        {
          "internalType": "string",
          "name": "_name",
          "type": "string"
        },
        {
          "internalType": "string",
          "name": "_symbol",
          "type": "string"
        },
        {
          "internalType": "string",
          "name": "_uri",
          "type": "string"
        },
        {
          "internalType": "address",
          "name": "_proxyRegistryAddress",
          "type": "address"
        }
      ],
      "stateMutability": "nonpayable",
      "type": "constructor"
    },
    {
      "anonymous": false,
      "inputs": [
        {
          "indexed": true,
          "internalType": "address",
          "name": "account",
          "type": "address"
        },
        {
          "indexed": true,
          "internalType": "address",
          "name": "operator",
          "type": "address"
        },
        {
          "indexed": false,
          "internalType": "bool",
          "name": "approved",
          "type": "bool"
        }
      ],
      "name": "ApprovalForAll",
      "type": "event"
    },
    {
      "anonymous": false,
      "inputs": [
        {
          "indexed": true,
          "internalType": "address",
          "name": "factory",
          "type": "address"
        }
      ],
      "name": "FactoryActivation",
      "type": "event"
    },
    {
      "anonymous": false,
      "inputs": [
        {
          "indexed": true,
          "internalType": "address",
          "name": "factory",
          "type": "address"
        }
      ],
      "name": "FactoryShutdown",
      "type": "event"
    },
    {
      "anonymous": false,
      "inputs": [
        {
          "indexed": false,
          "internalType": "uint256[]",
          "name": "ids",
          "type": "uint256[]"
        },
        {
          "indexed": false,
          "internalType": "uint256[]",
          "name": "newMaxIssuances",
          "type": "uint256[]"
        }
      ],
      "name": "MaxIssuancesChanged",
      "type": "event"
    },
    {
      "anonymous": false,
      "inputs": [
        {
          "indexed": true,
          "internalType": "address",
          "name": "factory",
          "type": "address"
        },
        {
          "components": [
            {
              "internalType": "uint64",
              "name": "minID",
              "type": "uint64"
            },
            {
              "internalType": "uint64",
              "name": "maxID",
              "type": "uint64"
            },
            {
              "internalType": "uint64",
              "name": "startTime",
              "type": "uint64"
            },
            {
              "internalType": "uint64",
              "name": "endTime",
              "type": "uint64"
            }
          ],
          "indexed": false,
          "internalType": "struct AssetRangeStruct.AssetRange",
          "name": "new_range",
          "type": "tuple"
        }
      ],
      "name": "MintPermissionAdded",
      "type": "event"
    },
    {
      "anonymous": false,
      "inputs": [
        {
          "indexed": true,
          "internalType": "address",
          "name": "factory",
          "type": "address"
        },
        {
          "components": [
            {
              "internalType": "uint64",
              "name": "minID",
              "type": "uint64"
            },
            {
              "internalType": "uint64",
              "name": "maxID",
              "type": "uint64"
            },
            {
              "internalType": "uint64",
              "name": "startTime",
              "type": "uint64"
            },
            {
              "internalType": "uint64",
              "name": "endTime",
              "type": "uint64"
            }
          ],
          "indexed": false,
          "internalType": "struct AssetRangeStruct.AssetRange",
          "name": "deleted_range",
          "type": "tuple"
        }
      ],
      "name": "MintPermissionRemoved",
      "type": "event"
    },
    {
      "anonymous": false,
      "inputs": [
        {
          "indexed": true,
          "internalType": "address",
          "name": "previousOwner",
          "type": "address"
        },
        {
          "indexed": true,
          "internalType": "address",
          "name": "newOwner",
          "type": "address"
        }
      ],
      "name": "OwnershipTransferred",
      "type": "event"
    },
    {
      "anonymous": false,
      "inputs": [
        {
          "indexed": false,
          "internalType": "address",
          "name": "account",
          "type": "address"
        }
      ],
      "name": "Paused",
      "type": "event"
    },
    {
      "anonymous": false,
      "inputs": [
        {
          "components": [
            {
              "internalType": "uint64",
              "name": "minID",
              "type": "uint64"
            },
            {
              "internalType": "uint64",
              "name": "maxID",
              "type": "uint64"
            },
            {
              "internalType": "uint64",
              "name": "startTime",
              "type": "uint64"
            },
            {
              "internalType": "uint64",
              "name": "endTime",
              "type": "uint64"
            }
          ],
          "indexed": false,
          "internalType": "struct AssetRangeStruct.AssetRange",
          "name": "locked_range",
          "type": "tuple"
        }
      ],
      "name": "RangeLocked",
      "type": "event"
    },
    {
      "anonymous": false,
      "inputs": [
        {
          "indexed": true,
          "internalType": "address",
          "name": "operator",
          "type": "address"
        },
        {
          "indexed": true,
          "internalType": "address",
          "name": "from",
          "type": "address"
        },
        {
          "indexed": true,
          "internalType": "address",
          "name": "to",
          "type": "address"
        },
        {
          "indexed": false,
          "internalType": "uint256[]",
          "name": "ids",
          "type": "uint256[]"
        },
        {
          "indexed": false,
          "internalType": "uint256[]",
          "name": "values",
          "type": "uint256[]"
        }
      ],
      "name": "TransferBatch",
      "type": "event"
    },
    {
      "anonymous": false,
      "inputs": [
        {
          "indexed": true,
          "internalType": "address",
          "name": "operator",
          "type": "address"
        },
        {
          "indexed": true,
          "internalType": "address",
          "name": "from",
          "type": "address"
        },
        {
          "indexed": true,
          "internalType": "address",
          "name": "to",
          "type": "address"
        },
        {
          "indexed": false,
          "internalType": "uint256",
          "name": "id",
          "type": "uint256"
        },
        {
          "indexed": false,
          "internalType": "uint256",
          "name": "value",
          "type": "uint256"
        }
      ],
      "name": "TransferSingle",
      "type": "event"
    },
    {
      "anonymous": false,
      "inputs": [
        {
          "indexed": false,
          "internalType": "string",
          "name": "value",
          "type": "string"
        },
        {
          "indexed": true,
          "internalType": "uint256",
          "name": "id",
          "type": "uint256"
        }
      ],
      "name": "URI",
      "type": "event"
    },
    {
      "anonymous": false,
      "inputs": [
        {
          "indexed": false,
          "internalType": "address",
          "name": "account",
          "type": "address"
        }
      ],
      "name": "Unpaused",
      "type": "event"
    },
    {
      "stateMutability": "nonpayable",
      "type": "fallback"
    },
    {
      "inputs": [
        {
          "internalType": "address",
          "name": "_factory",
          "type": "address"
        }
      ],
      "name": "activateFactory",
      "outputs": [],
      "stateMutability": "nonpayable",
      "type": "function"
    },
    {
      "inputs": [
        {
          "internalType": "address",
          "name": "_factory",
          "type": "address"
        },
        {
          "internalType": "uint64",
          "name": "_minRange",
          "type": "uint64"
        },
        {
          "internalType": "uint64",
          "name": "_maxRange",
          "type": "uint64"
        },
        {
          "internalType": "uint64",
          "name": "_startTime",
          "type": "uint64"
        },
        {
          "internalType": "uint64",
          "name": "_endTime",
          "type": "uint64"
        }
      ],
      "name": "addMintPermission",
      "outputs": [],
      "stateMutability": "nonpayable",
      "type": "function"
    },
    {
      "inputs": [
        {
          "internalType": "address",
          "name": "account",
          "type": "address"
        },
        {
          "internalType": "uint256",
          "name": "id",
          "type": "uint256"
        }
      ],
      "name": "balanceOf",
      "outputs": [
        {
          "internalType": "uint256",
          "name": "",
          "type": "uint256"
        }
      ],
      "stateMutability": "view",
      "type": "function"
    },
    {
      "inputs": [
        {
          "internalType": "address[]",
          "name": "accounts",
          "type": "address[]"
        },
        {
          "internalType": "uint256[]",
          "name": "ids",
          "type": "uint256[]"
        }
      ],
      "name": "balanceOfBatch",
      "outputs": [
        {
          "internalType": "uint256[]",
          "name": "",
          "type": "uint256[]"
        }
      ],
      "stateMutability": "view",
      "type": "function"
    },
    {
      "inputs": [
        {
          "internalType": "uint256",
          "name": "_id",
          "type": "uint256"
        },
        {
          "internalType": "uint256",
          "name": "_amount",
          "type": "uint256"
        }
      ],
      "name": "burn",
      "outputs": [],
      "stateMutability": "nonpayable",
      "type": "function"
    },
    {
      "inputs": [
        {
          "internalType": "address",
          "name": "account",
          "type": "address"
        },
        {
          "internalType": "uint256",
          "name": "id",
          "type": "uint256"
        },
        {
          "internalType": "uint256",
          "name": "value",
          "type": "uint256"
        }
      ],
      "name": "burn",
      "outputs": [],
      "stateMutability": "nonpayable",
      "type": "function"
    },
    {
      "inputs": [
        {
          "internalType": "address",
          "name": "account",
          "type": "address"
        },
        {
          "internalType": "uint256[]",
          "name": "ids",
          "type": "uint256[]"
        },
        {
          "internalType": "uint256[]",
          "name": "values",
          "type": "uint256[]"
        }
      ],
      "name": "burnBatch",
      "outputs": [],
      "stateMutability": "nonpayable",
      "type": "function"
    },
    {
      "inputs": [
        {
          "internalType": "uint256[]",
          "name": "_ids",
          "type": "uint256[]"
        },
        {
          "internalType": "uint256[]",
          "name": "_amounts",
          "type": "uint256[]"
        }
      ],
      "name": "burnBatch",
      "outputs": [],
      "stateMutability": "nonpayable",
      "type": "function"
    },
    {
      "inputs": [
        {
          "internalType": "address",
          "name": "_initialOwner",
          "type": "address"
        },
        {
          "internalType": "uint256",
          "name": "_id",
          "type": "uint256"
        },
        {
          "internalType": "uint256",
          "name": "_initialSupply",
          "type": "uint256"
        },
        {
          "internalType": "bytes",
          "name": "_data",
          "type": "bytes"
        }
      ],
      "name": "create",
      "outputs": [
        {
          "internalType": "uint256",
          "name": "",
          "type": "uint256"
        }
      ],
      "stateMutability": "nonpayable",
      "type": "function"
    },
    {
      "inputs": [
        {
          "internalType": "uint256",
          "name": "",
          "type": "uint256"
        }
      ],
      "name": "creators",
      "outputs": [
        {
          "internalType": "address",
          "name": "",
          "type": "address"
        }
      ],
      "stateMutability": "view",
      "type": "function"
    },
    {
      "inputs": [
        {
          "components": [
            {
              "internalType": "address",
              "name": "from",
              "type": "address"
            },
            {
              "internalType": "address",
              "name": "to",
              "type": "address"
            },
            {
              "internalType": "uint256",
              "name": "value",
              "type": "uint256"
            },
            {
              "internalType": "uint256",
              "name": "gas",
              "type": "uint256"
            },
            {
              "internalType": "uint256",
              "name": "nonce",
              "type": "uint256"
            },
            {
              "internalType": "bytes",
              "name": "data",
              "type": "bytes"
            }
          ],
          "internalType": "struct MinimalForwarder.ForwardRequest",
          "name": "req",
          "type": "tuple"
        },
        {
          "internalType": "bytes",
          "name": "signature",
          "type": "bytes"
        }
      ],
      "name": "execute",
      "outputs": [
        {
          "internalType": "bool",
          "name": "",
          "type": "bool"
        },
        {
          "internalType": "bytes",
          "name": "",
          "type": "bytes"
        }
      ],
      "stateMutability": "payable",
      "type": "function"
    },
    {
      "inputs": [
        {
          "internalType": "uint256",
          "name": "id",
          "type": "uint256"
        }
      ],
      "name": "exists",
      "outputs": [
        {
          "internalType": "bool",
          "name": "",
          "type": "bool"
        }
      ],
      "stateMutability": "view",
      "type": "function"
    },
    {
      "inputs": [
        {
          "internalType": "uint256[]",
          "name": "_ids",
          "type": "uint256[]"
        }
      ],
      "name": "getCurrentIssuances",
      "outputs": [
        {
          "internalType": "uint256[]",
          "name": "",
          "type": "uint256[]"
        }
      ],
      "stateMutability": "view",
      "type": "function"
    },
    {
      "inputs": [
        {
          "internalType": "address",
          "name": "_factory",
          "type": "address"
        }
      ],
      "name": "getFactoryAccessRanges",
      "outputs": [
        {
          "components": [
            {
              "internalType": "uint64",
              "name": "minID",
              "type": "uint64"
            },
            {
              "internalType": "uint64",
              "name": "maxID",
              "type": "uint64"
            },
            {
              "internalType": "uint64",
              "name": "startTime",
              "type": "uint64"
            },
            {
              "internalType": "uint64",
              "name": "endTime",
              "type": "uint64"
            }
          ],
          "internalType": "struct AssetRangeStruct.AssetRange[]",
          "name": "",
          "type": "tuple[]"
        }
      ],
      "stateMutability": "view",
      "type": "function"
    },
    {
      "inputs": [
        {
          "internalType": "address",
          "name": "_factory",
          "type": "address"
        }
      ],
      "name": "getFactoryStatus",
      "outputs": [
        {
          "internalType": "bool",
          "name": "",
          "type": "bool"
        }
      ],
      "stateMutability": "view",
      "type": "function"
    },
    {
      "inputs": [],
      "name": "getLockedRanges",
      "outputs": [
        {
          "components": [
            {
              "internalType": "uint64",
              "name": "minID",
              "type": "uint64"
            },
            {
              "internalType": "uint64",
              "name": "maxID",
              "type": "uint64"
            },
            {
              "internalType": "uint64",
              "name": "startTime",
              "type": "uint64"
            },
            {
              "internalType": "uint64",
              "name": "endTime",
              "type": "uint64"
            }
          ],
          "internalType": "struct AssetRangeStruct.AssetRange[]",
          "name": "",
          "type": "tuple[]"
        }
      ],
      "stateMutability": "view",
      "type": "function"
    },
    {
      "inputs": [
        {
          "internalType": "uint256[]",
          "name": "_ids",
          "type": "uint256[]"
        }
      ],
      "name": "getMaxIssuances",
      "outputs": [
        {
          "internalType": "uint256[]",
          "name": "",
          "type": "uint256[]"
        }
      ],
      "stateMutability": "view",
      "type": "function"
    },
    {
      "inputs": [
        {
          "internalType": "address",
          "name": "from",
          "type": "address"
        }
      ],
      "name": "getNonce",
      "outputs": [
        {
          "internalType": "uint256",
          "name": "",
          "type": "uint256"
        }
      ],
      "stateMutability": "view",
      "type": "function"
    },
    {
      "inputs": [
        {
          "internalType": "address",
          "name": "_owner",
          "type": "address"
        },
        {
          "internalType": "address",
          "name": "_operator",
          "type": "address"
        }
      ],
      "name": "isApprovedForAll",
      "outputs": [
        {
          "internalType": "bool",
          "name": "isOperator",
          "type": "bool"
        }
      ],
      "stateMutability": "view",
      "type": "function"
    },
    {
      "inputs": [
        {
          "components": [
            {
              "internalType": "uint64",
              "name": "minID",
              "type": "uint64"
            },
            {
              "internalType": "uint64",
              "name": "maxID",
              "type": "uint64"
            },
            {
              "internalType": "uint64",
              "name": "startTime",
              "type": "uint64"
            },
            {
              "internalType": "uint64",
              "name": "endTime",
              "type": "uint64"
            }
          ],
          "internalType": "struct AssetRangeStruct.AssetRange",
          "name": "_range",
          "type": "tuple"
        }
      ],
      "name": "lockRangeMintPermissions",
      "outputs": [],
      "stateMutability": "nonpayable",
      "type": "function"
    },
    {
      "inputs": [
        {
          "internalType": "address",
          "name": "_to",
          "type": "address"
        },
        {
          "internalType": "uint256",
          "name": "_id",
          "type": "uint256"
        },
        {
          "internalType": "uint256",
          "name": "_amount",
          "type": "uint256"
        },
        {
          "internalType": "bytes",
          "name": "_data",
          "type": "bytes"
        }
      ],
      "name": "mint",
      "outputs": [],
      "stateMutability": "nonpayable",
      "type": "function"
    },
    {
      "inputs": [
        {
          "internalType": "address",
          "name": "_to",
          "type": "address"
        },
        {
          "internalType": "uint256[]",
          "name": "_ids",
          "type": "uint256[]"
        },
        {
          "internalType": "uint256[]",
          "name": "_amounts",
          "type": "uint256[]"
        },
        {
          "internalType": "bytes",
          "name": "_data",
          "type": "bytes"
        }
      ],
      "name": "mintBatch",
      "outputs": [],
      "stateMutability": "nonpayable",
      "type": "function"
    },
    {
      "inputs": [],
      "name": "name",
      "outputs": [
        {
          "internalType": "string",
          "name": "",
          "type": "string"
        }
      ],
      "stateMutability": "view",
      "type": "function"
    },
    {
      "inputs": [],
      "name": "owner",
      "outputs": [
        {
          "internalType": "address",
          "name": "",
          "type": "address"
        }
      ],
      "stateMutability": "view",
      "type": "function"
    },
    {
      "inputs": [],
      "name": "pause",
      "outputs": [],
      "stateMutability": "nonpayable",
      "type": "function"
    },
    {
      "inputs": [],
      "name": "paused",
      "outputs": [
        {
          "internalType": "bool",
          "name": "",
          "type": "bool"
        }
      ],
      "stateMutability": "view",
      "type": "function"
    },
    {
      "inputs": [
        {
          "internalType": "address",
          "name": "_factory",
          "type": "address"
        },
        {
          "internalType": "uint256",
          "name": "_rangeIndex",
          "type": "uint256"
        }
      ],
      "name": "removeMintPermission",
      "outputs": [],
      "stateMutability": "nonpayable",
      "type": "function"
    },
    {
      "inputs": [],
      "name": "renounceOwnership",
      "outputs": [],
      "stateMutability": "nonpayable",
      "type": "function"
    },
    {
      "inputs": [
        {
          "internalType": "uint256",
          "name": "_tokenId",
          "type": "uint256"
        },
        {
          "internalType": "uint256",
          "name": "_salePrice",
          "type": "uint256"
        }
      ],
      "name": "royaltyInfo",
      "outputs": [
        {
          "internalType": "address",
          "name": "",
          "type": "address"
        },
        {
          "internalType": "uint256",
          "name": "",
          "type": "uint256"
        }
      ],
      "stateMutability": "view",
      "type": "function"
    },
    {
      "inputs": [
        {
          "internalType": "address",
          "name": "from",
          "type": "address"
        },
        {
          "internalType": "address",
          "name": "to",
          "type": "address"
        },
        {
          "internalType": "uint256[]",
          "name": "ids",
          "type": "uint256[]"
        },
        {
          "internalType": "uint256[]",
          "name": "amounts",
          "type": "uint256[]"
        },
        {
          "internalType": "bytes",
          "name": "data",
          "type": "bytes"
        }
      ],
      "name": "safeBatchTransferFrom",
      "outputs": [],
      "stateMutability": "nonpayable",
      "type": "function"
    },
    {
      "inputs": [
        {
          "internalType": "address",
          "name": "from",
          "type": "address"
        },
        {
          "internalType": "address",
          "name": "to",
          "type": "address"
        },
        {
          "internalType": "uint256",
          "name": "id",
          "type": "uint256"
        },
        {
          "internalType": "uint256",
          "name": "amount",
          "type": "uint256"
        },
        {
          "internalType": "bytes",
          "name": "data",
          "type": "bytes"
        }
      ],
      "name": "safeTransferFrom",
      "outputs": [],
      "stateMutability": "nonpayable",
      "type": "function"
    },
    {
      "inputs": [
        {
          "internalType": "address",
          "name": "operator",
          "type": "address"
        },
        {
          "internalType": "bool",
          "name": "approved",
          "type": "bool"
        }
      ],
      "name": "setApprovalForAll",
      "outputs": [],
      "stateMutability": "nonpayable",
      "type": "function"
    },
    {
      "inputs": [
        {
          "internalType": "address",
          "name": "_to",
          "type": "address"
        },
        {
          "internalType": "uint256[]",
          "name": "_ids",
          "type": "uint256[]"
        }
      ],
      "name": "setCreator",
      "outputs": [],
      "stateMutability": "nonpayable",
      "type": "function"
    },
    {
      "inputs": [
        {
          "internalType": "address",
          "name": "_receiver",
          "type": "address"
        },
        {
          "internalType": "uint96",
          "name": "_royaltyBasisPoints",
          "type": "uint96"
        }
      ],
      "name": "setGlobalRoyaltyInfo",
      "outputs": [],
      "stateMutability": "nonpayable",
      "type": "function"
    },
    {
      "inputs": [
        {
          "internalType": "uint256[]",
          "name": "_ids",
          "type": "uint256[]"
        },
        {
          "internalType": "uint256[]",
          "name": "_newMaxIssuances",
          "type": "uint256[]"
        }
      ],
      "name": "setMaxIssuances",
      "outputs": [],
      "stateMutability": "nonpayable",
      "type": "function"
    },
    {
      "inputs": [
        {
          "internalType": "string",
          "name": "newuri",
          "type": "string"
        }
      ],
      "name": "setURI",
      "outputs": [],
      "stateMutability": "nonpayable",
      "type": "function"
    },
    {
      "inputs": [
        {
          "internalType": "address",
          "name": "_factory",
          "type": "address"
        }
      ],
      "name": "shutdownFactory",
      "outputs": [],
      "stateMutability": "nonpayable",
      "type": "function"
    },
    {
      "inputs": [
        {
          "internalType": "bytes4",
          "name": "_interfaceID",
          "type": "bytes4"
        }
      ],
      "name": "supportsInterface",
      "outputs": [
        {
          "internalType": "bool",
          "name": "",
          "type": "bool"
        }
      ],
      "stateMutability": "view",
      "type": "function"
    },
    {
      "inputs": [],
      "name": "symbol",
      "outputs": [
        {
          "internalType": "string",
          "name": "",
          "type": "string"
        }
      ],
      "stateMutability": "view",
      "type": "function"
    },
    {
      "inputs": [
        {
          "internalType": "uint256",
          "name": "id",
          "type": "uint256"
        }
      ],
      "name": "totalSupply",
      "outputs": [
        {
          "internalType": "uint256",
          "name": "",
          "type": "uint256"
        }
      ],
      "stateMutability": "view",
      "type": "function"
    },
    {
      "inputs": [
        {
          "internalType": "address",
          "name": "newOwner",
          "type": "address"
        }
      ],
      "name": "transferOwnership",
      "outputs": [],
      "stateMutability": "nonpayable",
      "type": "function"
    },
    {
      "inputs": [],
      "name": "unpause",
      "outputs": [],
      "stateMutability": "nonpayable",
      "type": "function"
    },
    {
      "inputs": [
        {
          "internalType": "uint256",
          "name": "",
          "type": "uint256"
        }
      ],
      "name": "uri",
      "outputs": [
        {
          "internalType": "string",
          "name": "",
          "type": "string"
        }
      ],
      "stateMutability": "view",
      "type": "function"
    },
    {
      "inputs": [
        {
          "components": [
            {
              "internalType": "address",
              "name": "from",
              "type": "address"
            },
            {
              "internalType": "address",
              "name": "to",
              "type": "address"
            },
            {
              "internalType": "uint256",
              "name": "value",
              "type": "uint256"
            },
            {
              "internalType": "uint256",
              "name": "gas",
              "type": "uint256"
            },
            {
              "internalType": "uint256",
              "name": "nonce",
              "type": "uint256"
            },
            {
              "internalType": "bytes",
              "name": "data",
              "type": "bytes"
            }
          ],
          "internalType": "struct MinimalForwarder.ForwardRequest",
          "name": "req",
          "type": "tuple"
        },
        {
          "internalType": "bytes",
          "name": "signature",
          "type": "bytes"
        }
      ],
      "name": "verify",
      "outputs": [
        {
          "internalType": "bool",
          "name": "",
          "type": "bool"
        }
      ],
      "stateMutability": "view",
      "type": "function"
    }
  ],
  "bytecode": "0x6101406040523480156200001257600080fd5b506040516200770438038062007704833981016040819052620000359162000492565b6040518060400160405280601081526020017f4d696e696d616c466f72776172646572000000000000000000000000000000008152506040518060400160405280600581526020017f302e302e3100000000000000000000000000000000000000000000000000000081525083620000b381620001ce60201b60201c565b50620000c8620000c2620001e7565b62000204565b600680547fffffffffffffffffffffffffffffffffffffffffffffffffffffffffffffff00169055815160208084019190912082519183019190912060e08290526101008190524660a0527f8b73c3c69bb8fe3d512ecc4cf759cc79239f7b179b0ffacaa9a75d522b39400f620001418184846200027b565b6080523060601b60c0526101205250508551620001689250600b9150602087019062000322565b5082516200017e90600c90602086019062000322565b50600980547fffffffffffffffffffffffff00000000000000000000000000000000000000001673ffffffffffffffffffffffffffffffffffffffff9290921691909117905550620005da915050565b8051620001e390600290602084019062000322565b5050565b6000620001fe620002b760201b6200307b1760201c565b90505b90565b6003805473ffffffffffffffffffffffffffffffffffffffff8381167fffffffffffffffffffffffff0000000000000000000000000000000000000000831681179093556040519116919082907f8be0079c531659141344cd1fd0a4f28419497f9722a3daafe3b4186f6b6457e090600090a35050565b60008383834630604051602001620002989594939291906200054e565b6040516020818303038152906040528051906020012090509392505050565b6000333014156200031d57600080368080601f01602080910402602001604051908101604052809392919081815260200183838082843760009201919091525050505036015173ffffffffffffffffffffffffffffffffffffffff169150620002019050565b503390565b828054620003309062000587565b90600052602060002090601f0160209004810192826200035457600085556200039f565b82601f106200036f57805160ff19168380011785556200039f565b828001600101855582156200039f579182015b828111156200039f57825182559160200191906001019062000382565b50620003ad929150620003b1565b5090565b5b80821115620003ad5760008155600101620003b2565b600082601f830112620003d9578081fd5b815167ffffffffffffffff80821115620003f757620003f7620005c4565b6040516020601f84017fffffffffffffffffffffffffffffffffffffffffffffffffffffffffffffffe0168201810183811183821017156200043d576200043d620005c4565b604052838252858401810187101562000454578485fd5b8492505b8383101562000477578583018101518284018201529182019162000458565b838311156200048857848185840101525b5095945050505050565b60008060008060808587031215620004a8578384fd5b845167ffffffffffffffff80821115620004c0578586fd5b620004ce88838901620003c8565b95506020870151915080821115620004e4578485fd5b620004f288838901620003c8565b9450604087015191508082111562000508578384fd5b506200051787828801620003c8565b6060870151909350905073ffffffffffffffffffffffffffffffffffffffff8116811462000543578182fd5b939692955090935050565b94855260208501939093526040840191909152606083015273ffffffffffffffffffffffffffffffffffffffff16608082015260a00190565b6002810460018216806200059c57607f821691505b60208210811415620005be57634e487b7160e01b600052602260045260246000fd5b50919050565b634e487b7160e01b600052604160045260246000fd5b60805160a05160c05160601c60e05161010051610120516170d76200062d6000396000614b2f01526000614b7101526000614b5001526000614ab201526000614adc01526000614b0601526170d76000f3fe6080604052600436106102e65760003560e01c806383ca4b6f11610184578063bf5d3bdb116100d6578063e4b37d331161008a578063f2fde38b11610064578063f2fde38b1461085e578063f5298aca1461087e578063f795ab751461089e576102e6565b8063e4b37d33146107fe578063e985e9c51461081e578063f242432a1461083e576102e6565b8063cd53d08e116100bb578063cd53d08e1461079e578063d2a6b51a146107be578063e1a97272146107de576102e6565b8063bf5d3bdb1461075e578063c13dc2911461077e576102e6565b806395d89b4111610138578063adccc47111610112578063adccc471146106fe578063b390c0ab1461071e578063bd85b0391461073e576102e6565b806395d89b41146106a9578063a22cb465146106be578063a36b3f29146106de576102e6565b80638da5cb5b116101695780638da5cb5b146106475780639136ce1f14610669578063951e241f14610689576102e6565b806383ca4b6f146106125780638456cb5914610632576102e6565b80633f4ba83a1161023d5780635c975abb116101f1578063715018a6116101cb578063715018a6146105bd578063731133e9146105d25780637c44a8bb146105f2576102e6565b80635c975abb14610566578063657afa891461057b5780636b20c4541461059d576102e6565b806347153f821161022257806347153f82146104f85780634e1273f4146105195780634f558e7914610546576102e6565b80633f4ba83a146104c3578063458d2844146104d8576102e6565b80630e89341c1161029f5780632a55205a116102795780632a55205a146104555780632d0335ab146104835780632eb2c2d6146104a3576102e6565b80630e89341c146103f557806315a08ab8146104155780631f7fdffa14610435576102e6565b806302fe5305116102d057806302fe53051461039157806306fdde03146103b357806307800c9b146103d5576102e6565b8062fdd58e1461032e57806301ffc9a714610364575b3480156102f257600080fd5b506040517f08c379a0000000000000000000000000000000000000000000000000000000008152600401610325906164ba565b60405180910390fd5b34801561033a57600080fd5b5061034e61034936600461571d565b6108be565b60405161035b9190616ce6565b60405180910390f35b34801561037057600080fd5b5061038461037f366004615a2f565b610943565b60405161035b9190615f3d565b34801561039d57600080fd5b506103b16103ac366004615a83565b610956565b005b3480156103bf57600080fd5b506103c86109d5565b60405161035b9190616003565b3480156103e157600080fd5b506103b16103f0366004615839565b610a63565b34801561040157600080fd5b506103c8610410366004615bb2565b610e82565b34801561042157600080fd5b506103b16104303660046159c6565b610f16565b34801561044157600080fd5b506103b1610450366004615655565b61122a565b34801561046157600080fd5b50610475610470366004615bca565b611315565b60405161035b929190615e6a565b34801561048f57600080fd5b5061034e61049e36600461542f565b611420565b3480156104af57600080fd5b506103b16104be366004615483565b611448565b3480156104cf57600080fd5b506103b16114d3565b3480156104e457600080fd5b506103b16104f336600461571d565b611550565b61050b610506366004615b45565b6119fa565b60405161035b929190615f48565b34801561052557600080fd5b506105396105343660046158dc565b611bd0565b60405161035b9190615f05565b34801561055257600080fd5b50610384610561366004615bb2565b611d6e565b34801561057257600080fd5b50610384611d81565b34801561058757600080fd5b50610590611d8b565b60405161035b9190615e90565b3480156105a957600080fd5b506103b16105b83660046155e2565b611e46565b3480156105c957600080fd5b506103b1611ed4565b3480156105de57600080fd5b506103b16105ed36600461577c565b611f51565b3480156105fe57600080fd5b506103b161060d36600461542f565b61207b565b34801561061e57600080fd5b506103b161062d3660046159c6565b612162565b34801561063e57600080fd5b506103b16121d6565b34801561065357600080fd5b5061065c612251565b60405161035b9190615d8e565b34801561067557600080fd5b506103b161068436600461542f565b61226d565b34801561069557600080fd5b506103b16106a436600461589f565b612357565b3480156106b557600080fd5b506103c86123d8565b3480156106ca57600080fd5b506103b16106d93660046156ec565b6123e5565b3480156106ea57600080fd5b506105906106f936600461542f565b6123f7565b34801561070a57600080fd5b506103b1610719366004615ac9565b6124d5565b34801561072a57600080fd5b506103b1610739366004615bca565b6126af565b34801561074a57600080fd5b5061034e610759366004615bb2565b6126ba565b34801561076a57600080fd5b50610384610779366004615b45565b6126cc565b34801561078a57600080fd5b5061034e6107993660046157e4565b612852565b3480156107aa57600080fd5b5061065c6107b9366004615bb2565b612a56565b3480156107ca57600080fd5b506103b16107d9366004615594565b612a7e565b3480156107ea57600080fd5b506105396107f9366004615992565b612b39565b34801561080a57600080fd5b50610539610819366004615992565b612c67565b34801561082a57600080fd5b5061038461083936600461544b565b612d8c565b34801561084a57600080fd5b506103b161085936600461552d565b612e73565b34801561086a57600080fd5b506103b161087936600461542f565b612efe565b34801561088a57600080fd5b506103b1610899366004615748565b612fc7565b3480156108aa57600080fd5b506103846108b936600461542f565b613050565b600073ffffffffffffffffffffffffffffffffffffffff831661090d576040517f08c379a0000000000000000000000000000000000000000000000000000000008152600401610325906162e9565b5060008181526020818152604080832073ffffffffffffffffffffffffffffffffffffffff861684529091529020545b92915050565b600061094e826130e4565b90505b919050565b61095e61313a565b73ffffffffffffffffffffffffffffffffffffffff1661097c612251565b73ffffffffffffffffffffffffffffffffffffffff16146109c9576040517f08c379a0000000000000000000000000000000000000000000000000000000008152600401610325906168ca565b6109d281613149565b50565b600b80546109e290616e7f565b80601f0160208091040260200160405190810160405280929190818152602001828054610a0e90616e7f565b8015610a5b5780601f10610a3057610100808354040283529160200191610a5b565b820191906000526020600020905b815481529060010190602001808311610a3e57829003601f168201915b505050505081565b610a6b61313a565b73ffffffffffffffffffffffffffffffffffffffff16610a89612251565b73ffffffffffffffffffffffffffffffffffffffff1614610ad6576040517f08c379a0000000000000000000000000000000000000000000000000000000008152600401610325906168ca565b60008367ffffffffffffffff1611610b1a576040517f08c379a0000000000000000000000000000000000000000000000000000000008152600401610325906168ff565b8267ffffffffffffffff168467ffffffffffffffff161115610b68576040517f08c379a0000000000000000000000000000000000000000000000000000000008152600401610325906169b9565b8067ffffffffffffffff168267ffffffffffffffff1610610bb5576040517f08c379a0000000000000000000000000000000000000000000000000000000008152600401610325906161d2565b60005b600f54811015610cec576000600f8281548110610bfe577f4e487b7100000000000000000000000000000000000000000000000000000000600052603260045260246000fd5b600091825260209182902060408051608081018252919092015467ffffffffffffffff80821680845268010000000000000000830482169584019590955270010000000000000000000000000000000082048116938301939093527801000000000000000000000000000000000000000000000000900482166060820152925086161080610ca357508567ffffffffffffffff16816020015167ffffffffffffffff16105b610cd9576040517f08c379a0000000000000000000000000000000000000000000000000000000008152600401610325906165ab565b5080610ce481616ed3565b915050610bb8565b506040805160808101825267ffffffffffffffff808716825285811660208084019182528683168486019081528684166060860190815273ffffffffffffffffffffffffffffffffffffffff8c166000818152600e85528881208054600181018255908252949020875194018054955193519251871678010000000000000000000000000000000000000000000000000277ffffffffffffffffffffffffffffffffffffffffffffffff938816700100000000000000000000000000000000027fffffffffffffffff0000000000000000ffffffffffffffffffffffffffffffff95891668010000000000000000027fffffffffffffffffffffffffffffffff0000000000000000ffffffffffffffff979099167fffffffffffffffffffffffffffffffffffffffffffffffff00000000000000009098169790971795909516969096179290921693909317929092161790915591519091907f188968bccf857d854c73494ca4da4cc4ae2769e4b732db8f40dfa62b86b1c40a90610e72908490616cd8565b60405180910390a2505050505050565b606060028054610e9190616e7f565b80601f0160208091040260200160405190810160405280929190818152602001828054610ebd90616e7f565b8015610f0a5780601f10610edf57610100808354040283529160200191610f0a565b820191906000526020600020905b815481529060010190602001808311610eed57829003601f168201915b50505050509050919050565b610f1e61313a565b73ffffffffffffffffffffffffffffffffffffffff16610f3c612251565b73ffffffffffffffffffffffffffffffffffffffff1614610f89576040517f08c379a0000000000000000000000000000000000000000000000000000000008152600401610325906168ca565b828114610fc2576040517f08c379a00000000000000000000000000000000000000000000000000000000081526004016103259061654e565b60005b838110156111e65760006011600087878581811061100c577f4e487b7100000000000000000000000000000000000000000000000000000000600052603260045260246000fd5b90506020020135815260200190815260200160002054111561113d57828282818110611061577f4e487b7100000000000000000000000000000000000000000000000000000000600052603260045260246000fd5b9050602002013560001080156111075750601160008686848181106110af577f4e487b7100000000000000000000000000000000000000000000000000000000600052603260045260246000fd5b905060200201358152602001908152602001600020548383838181106110fe577f4e487b7100000000000000000000000000000000000000000000000000000000600052603260045260246000fd5b90506020020135105b61113d576040517f08c379a00000000000000000000000000000000000000000000000000000000081526004016103259061695c565b828282818110611176577f4e487b7100000000000000000000000000000000000000000000000000000000600052603260045260246000fd5b90506020020135601160008787858181106111ba577f4e487b7100000000000000000000000000000000000000000000000000000000600052603260045260246000fd5b9050602002013581526020019081526020016000208190555080806111de90616ed3565b915050610fc5565b507f91f9ea1e3a6a1fd246959c27978a42e04c0c3c954e7ffa52e3ed1509be4811be8484848460405161121c9493929190615ede565b60405180910390a150505050565b6112368383600161315c565b61124284848484613511565b60005b835181101561130e576000848281518110611289577f4e487b7100000000000000000000000000000000000000000000000000000000600052603260045260246000fd5b6020026020010151905061129b61313a565b6000828152600a602052604090205473ffffffffffffffffffffffffffffffffffffffff9081169116146112fb576040517f08c379a0000000000000000000000000000000000000000000000000000000008152600401610325906166f9565b508061130681616ed3565b915050611245565b5050505050565b600082815260056020908152604080832081518083019092525473ffffffffffffffffffffffffffffffffffffffff8116808352740100000000000000000000000000000000000000009091046bffffffffffffffffffffffff169282019290925282916113d057506040805180820190915260045473ffffffffffffffffffffffffffffffffffffffff811682527401000000000000000000000000000000000000000090046bffffffffffffffffffffffff1660208201525b60006113da613746565b6bffffffffffffffffffffffff1682602001516bffffffffffffffffffffffff16866114069190616dff565b6114109190616dc6565b91519350909150505b9250929050565b73ffffffffffffffffffffffffffffffffffffffff1660009081526007602052604090205490565b61145061313a565b73ffffffffffffffffffffffffffffffffffffffff168573ffffffffffffffffffffffffffffffffffffffff16148061149057506114908561083961313a565b6114c6576040517f08c379a00000000000000000000000000000000000000000000000000000000081526004016103259061669c565b61130e858585858561374c565b6114db61313a565b73ffffffffffffffffffffffffffffffffffffffff166114f9612251565b73ffffffffffffffffffffffffffffffffffffffff1614611546576040517f08c379a0000000000000000000000000000000000000000000000000000000008152600401610325906168ca565b61154e6139eb565b565b61155861313a565b73ffffffffffffffffffffffffffffffffffffffff16611576612251565b73ffffffffffffffffffffffffffffffffffffffff16146115c3576040517f08c379a0000000000000000000000000000000000000000000000000000000008152600401610325906168ca565b73ffffffffffffffffffffffffffffffffffffffff82166000908152600e60205260408120546115f590600190616e3c565b73ffffffffffffffffffffffffffffffffffffffff84166000908152600e602052604081208054929350909184908110611658577f4e487b7100000000000000000000000000000000000000000000000000000000600052603260045260246000fd5b600091825260209182902060408051608081018252929091015467ffffffffffffffff8082168452680100000000000000008204811694840194909452700100000000000000000000000000000000810484169183019190915278010000000000000000000000000000000000000000000000009004909116606082015290508183146119135773ffffffffffffffffffffffffffffffffffffffff84166000908152600e6020526040812080548490811061173d577f4e487b7100000000000000000000000000000000000000000000000000000000600052603260045260246000fd5b6000918252602080832060408051608081018252919093015467ffffffffffffffff80821683526801000000000000000082048116838501527001000000000000000000000000000000008204811683860152780100000000000000000000000000000000000000000000000090910416606082015273ffffffffffffffffffffffffffffffffffffffff89168452600e90915291208054919250829186908110611811577f4e487b7100000000000000000000000000000000000000000000000000000000600052603260045260246000fd5b60009182526020918290208351910180549284015160408501516060909501517fffffffffffffffffffffffffffffffffffffffffffffffff000000000000000090941667ffffffffffffffff938416177fffffffffffffffffffffffffffffffff0000000000000000ffffffffffffffff166801000000000000000091841691909102177fffffffffffffffff0000000000000000ffffffffffffffffffffffffffffffff16700100000000000000000000000000000000948316949094029390931777ffffffffffffffffffffffffffffffffffffffffffffffff1678010000000000000000000000000000000000000000000000009190921602179055505b73ffffffffffffffffffffffffffffffffffffffff84166000908152600e6020526040902080548061196e577f4e487b7100000000000000000000000000000000000000000000000000000000600052603160045260246000fd5b60008281526020812082017fffffffffffffffffffffffffffffffffffffffffffffffffffffffffffffffff9081019190915501905560405173ffffffffffffffffffffffffffffffffffffffff8516907f1bca5c143feb87c2d4e8d2d1fd73ba6f43f551ba73c58634f56bbe30701f06d4906119ec908490616cd8565b60405180910390a250505050565b60006060611a098585856126cc565b611a3f576040517f08c379a00000000000000000000000000000000000000000000000000000000081526004016103259061613e565b611a4e60808601356001616dae565b60076000611a5f602089018961542f565b73ffffffffffffffffffffffffffffffffffffffff1673ffffffffffffffffffffffffffffffffffffffff16815260200190815260200160002081905550600080866020016020810190611ab3919061542f565b73ffffffffffffffffffffffffffffffffffffffff1660608801356040890135611ae060a08b018b616cfd565b611aed60208d018d61542f565b604051602001611aff93929190615d00565b604080517fffffffffffffffffffffffffffffffffffffffffffffffffffffffffffffffe081840301815290829052611b3791615d3c565b600060405180830381858888f193505050503d8060008114611b75576040519150601f19603f3d011682016040523d82523d6000602084013e611b7a565b606091505b509092509050611b8f603f6060890135616dc6565b5a11611bc4577f4e487b7100000000000000000000000000000000000000000000000000000000600052600160045260246000fd5b90969095509350505050565b60608151835114611c0d576040517f08c379a000000000000000000000000000000000000000000000000000000000815260040161032590616b2d565b6000835167ffffffffffffffff811115611c50577f4e487b7100000000000000000000000000000000000000000000000000000000600052604160045260246000fd5b604051908082528060200260200182016040528015611c79578160200160208202803683370190505b50905060005b8451811015611d6657611d12858281518110611cc4577f4e487b7100000000000000000000000000000000000000000000000000000000600052603260045260246000fd5b6020026020010151858381518110611d05577f4e487b7100000000000000000000000000000000000000000000000000000000600052603260045260246000fd5b60200260200101516108be565b828281518110611d4b577f4e487b7100000000000000000000000000000000000000000000000000000000600052603260045260246000fd5b6020908102919091010152611d5f81616ed3565b9050611c7f565b509392505050565b600080611d7a836126ba565b1192915050565b60065460ff165b90565b6060600f805480602002602001604051908101604052809291908181526020016000905b82821015611e3d576000848152602090819020604080516080810182529185015467ffffffffffffffff8082168452680100000000000000008204811684860152700100000000000000000000000000000000820481169284019290925278010000000000000000000000000000000000000000000000009004166060820152825260019092019101611daf565b50505050905090565b611e4e61313a565b73ffffffffffffffffffffffffffffffffffffffff168373ffffffffffffffffffffffffffffffffffffffff161480611e8e5750611e8e8361083961313a565b611ec4576040517f08c379a000000000000000000000000000000000000000000000000000000000815260040161032590616400565b611ecf838383613a91565b505050565b611edc61313a565b73ffffffffffffffffffffffffffffffffffffffff16611efa612251565b73ffffffffffffffffffffffffffffffffffffffff1614611f47576040517f08c379a0000000000000000000000000000000000000000000000000000000008152600401610325906168ca565b61154e6000613d10565b6040805160018082528183019092526000916020808301908036833750506040805160018082528183019092529293506000929150602080830190803683370190505090508582600081518110611fd1577f4e487b7100000000000000000000000000000000000000000000000000000000600052603260045260246000fd5b6020026020010181815250508481600081518110612018577f4e487b7100000000000000000000000000000000000000000000000000000000600052603260045260246000fd5b6020026020010181815250506120308282600161315c565b61207287878787878080601f016020809104026020016040519081016040528093929190818152602001838380828437600092019190915250613d8792505050565b50505050505050565b61208361313a565b73ffffffffffffffffffffffffffffffffffffffff166120a1612251565b73ffffffffffffffffffffffffffffffffffffffff16146120ee576040517f08c379a0000000000000000000000000000000000000000000000000000000008152600401610325906168ca565b73ffffffffffffffffffffffffffffffffffffffff81166000818152600d602052604080822080547fffffffffffffffffffffffffffffffffffffffffffffffffffffffffffffff00169055517f472ecaf428225ecdcc1f686a662ed1ba0627c365542e086b483bacca0fcfa5f99190a250565b6121d03385858080602002602001604051908101604052809392919081815260200183836020028082843760009201919091525050604080516020808902828101820190935288825290935088925087918291850190849080828437600092019190915250613a9192505050565b50505050565b6121de61313a565b73ffffffffffffffffffffffffffffffffffffffff166121fc612251565b73ffffffffffffffffffffffffffffffffffffffff1614612249576040517f08c379a0000000000000000000000000000000000000000000000000000000008152600401610325906168ca565b61154e613ed1565b60035473ffffffffffffffffffffffffffffffffffffffff1690565b61227561313a565b73ffffffffffffffffffffffffffffffffffffffff16612293612251565b73ffffffffffffffffffffffffffffffffffffffff16146122e0576040517f08c379a0000000000000000000000000000000000000000000000000000000008152600401610325906168ca565b73ffffffffffffffffffffffffffffffffffffffff81166000818152600d602052604080822080547fffffffffffffffffffffffffffffffffffffffffffffffffffffffffffffff00166001179055517f672dbf7f8dabd5b1b39124540440a9ef2537a03c053f111f7e90850e57e2efb69190a250565b61235f61313a565b73ffffffffffffffffffffffffffffffffffffffff1661237d612251565b73ffffffffffffffffffffffffffffffffffffffff16146123ca576040517f08c379a0000000000000000000000000000000000000000000000000000000008152600401610325906168ca565b6123d48282613f64565b5050565b600c80546109e290616e7f565b6123d46123f061313a565b8383614099565b73ffffffffffffffffffffffffffffffffffffffff81166000908152600e60209081526040808320805482518185028101850190935280835260609492939192909184015b828210156124ca576000848152602090819020604080516080810182529185015467ffffffffffffffff808216845268010000000000000000820481168486015270010000000000000000000000000000000082048116928401929092527801000000000000000000000000000000000000000000000000900416606082015282526001909201910161243c565b505050509050919050565b6124dd61313a565b73ffffffffffffffffffffffffffffffffffffffff166124fb612251565b73ffffffffffffffffffffffffffffffffffffffff1614612548576040517f08c379a0000000000000000000000000000000000000000000000000000000008152600401610325906168ca565b600f805460018101825560009190915281517f8d1108e10bcb7c27dddfc02ed9d693a074039d026cf4ea4240b40f7d581ac8029091018054602084015160408086015160608701517fffffffffffffffffffffffffffffffffffffffffffffffff000000000000000090941667ffffffffffffffff968716177fffffffffffffffffffffffffffffffff0000000000000000ffffffffffffffff166801000000000000000093871693909302929092177fffffffffffffffff0000000000000000ffffffffffffffffffffffffffffffff16700100000000000000000000000000000000928616929092029190911777ffffffffffffffffffffffffffffffffffffffffffffffff1678010000000000000000000000000000000000000000000000009490921693909302179055517f522c18973f048c2a178766b76cb19456e9dbd776f104c0b77c6166e582212f2c906126a4908390616cd8565b60405180910390a150565b6123d433838361419b565b60009081526008602052604090205490565b6000806127b284848080601f0160208091040260200160405190810160405280939291908181526020018383808284376000920191909152506127ac92507fdd8f4b70b0f4393e889bd39128a30628a78b61816a9eb8199759e7a349657e48915061273c905060208a018a61542f565b61274c60408b0160208c0161542f565b60408b013560608c013560808d013561276860a08f018f616cfd565b604051612776929190615cf0565b60405190819003812061279197969594939291602001615f63565b60405160208183030381529060405280519060200120614305565b90614318565b90506080850135600760006127ca602089018961542f565b73ffffffffffffffffffffffffffffffffffffffff1673ffffffffffffffffffffffffffffffffffffffff16815260200190815260200160002054148015612849575061281a602086018661542f565b73ffffffffffffffffffffffffffffffffffffffff168173ffffffffffffffffffffffffffffffffffffffff16145b95945050505050565b600061285c61313a565b73ffffffffffffffffffffffffffffffffffffffff1661287a612251565b73ffffffffffffffffffffffffffffffffffffffff16146128c7576040517f08c379a0000000000000000000000000000000000000000000000000000000008152600401610325906168ca565b6128d084611d6e565b15612907576040517f08c379a0000000000000000000000000000000000000000000000000000000008152600401610325906160aa565b6040805160018082528183019092526000916020808301908036833750506040805160018082528183019092529293506000929150602080830190803683370190505090508582600081518110612987577f4e487b7100000000000000000000000000000000000000000000000000000000600052603260045260246000fd5b60200260200101818152505084816000815181106129ce577f4e487b7100000000000000000000000000000000000000000000000000000000600052603260045260246000fd5b6020026020010181815250506129e68282600161315c565b6129ee61313a565b6000878152600a6020526040902080547fffffffffffffffffffffffff00000000000000000000000000000000000000001673ffffffffffffffffffffffffffffffffffffffff92909216919091179055612a4b87878787613d87565b509395945050505050565b600a6020526000908152604090205473ffffffffffffffffffffffffffffffffffffffff1681565b73ffffffffffffffffffffffffffffffffffffffff8216612acb576040517f08c379a000000000000000000000000000000000000000000000000000000000815260040161032590616a16565b60005b8151811015611ecf576000828281518110612b12577f4e487b7100000000000000000000000000000000000000000000000000000000600052603260045260246000fd5b60200260200101519050612b268482614334565b5080612b3181616ed3565b915050612ace565b60608160008167ffffffffffffffff811115612b7e577f4e487b7100000000000000000000000000000000000000000000000000000000600052604160045260246000fd5b604051908082528060200260200182016040528015612ba7578160200160208202803683370190505b50905060005b82811015612c5e5760116000878784818110612bf2577f4e487b7100000000000000000000000000000000000000000000000000000000600052603260045260246000fd5b90506020020135815260200190815260200160002054828281518110612c41577f4e487b7100000000000000000000000000000000000000000000000000000000600052603260045260246000fd5b602090810291909101015280612c5681616ed3565b915050612bad565b50949350505050565b60608160008167ffffffffffffffff811115612cac577f4e487b7100000000000000000000000000000000000000000000000000000000600052604160045260246000fd5b604051908082528060200260200182016040528015612cd5578160200160208202803683370190505b50905060005b82811015612c5e5760106000878784818110612d20577f4e487b7100000000000000000000000000000000000000000000000000000000600052603260045260246000fd5b90506020020135815260200190815260200160002054828281518110612d6f577f4e487b7100000000000000000000000000000000000000000000000000000000600052603260045260246000fd5b602090810291909101015280612d8481616ed3565b915050612cdb565b6009546040517fc455279100000000000000000000000000000000000000000000000000000000815260009173ffffffffffffffffffffffffffffffffffffffff9081169190841690829063c455279190612deb908890600401615d8e565b60206040518083038186803b158015612e0357600080fd5b505afa158015612e17573d6000803e3d6000fd5b505050506040513d601f19601f82011682018060405250810190612e3b9190615a67565b73ffffffffffffffffffffffffffffffffffffffff161415612e6157600191505061093d565b612e6b84846143f1565b949350505050565b612e7b61313a565b73ffffffffffffffffffffffffffffffffffffffff168573ffffffffffffffffffffffffffffffffffffffff161480612ebb5750612ebb8561083961313a565b612ef1576040517f08c379a000000000000000000000000000000000000000000000000000000000815260040161032590616400565b61130e858585858561442c565b612f0661313a565b73ffffffffffffffffffffffffffffffffffffffff16612f24612251565b73ffffffffffffffffffffffffffffffffffffffff1614612f71576040517f08c379a0000000000000000000000000000000000000000000000000000000008152600401610325906168ca565b73ffffffffffffffffffffffffffffffffffffffff8116612fbe576040517f08c379a000000000000000000000000000000000000000000000000000000000815260040161032590616346565b6109d281613d10565b612fcf61313a565b73ffffffffffffffffffffffffffffffffffffffff168373ffffffffffffffffffffffffffffffffffffffff16148061300f575061300f8361083961313a565b613045576040517f08c379a000000000000000000000000000000000000000000000000000000000815260040161032590616400565b611ecf83838361419b565b73ffffffffffffffffffffffffffffffffffffffff166000908152600d602052604090205460ff1690565b6000333014156130df57600080368080601f01602080910402602001604051908101604052809392919081815260200183838082843760009201919091525050505036015173ffffffffffffffffffffffffffffffffffffffff169150611d889050565b503390565b60007fffffffff0000000000000000000000000000000000000000000000000000000082167f2a55205a00000000000000000000000000000000000000000000000000000000148061094e575061094e826145d9565b600061314461307b565b905090565b80516123d49060029060208401906151fb565b336000908152600d602052604090205460ff166131a5576040517f08c379a00000000000000000000000000000000000000000000000000000000081526004016103259061628c565b336000908152600e602052604081208054919081836131ed577f4e487b7100000000000000000000000000000000000000000000000000000000600052603260045260246000fd5b6000918252602080832060408051608081018252939091015467ffffffffffffffff80821685526801000000000000000082048116938501939093527001000000000000000000000000000000008104831691840191909152780100000000000000000000000000000000000000000000000090041660608201529150805b86518110156120725760008782815181106132b0577f4e487b7100000000000000000000000000000000000000000000000000000000600052603260045260246000fd5b6020026020010151905060008783815181106132f5577f4e487b7100000000000000000000000000000000000000000000000000000000600052603260045260246000fd5b602002602001015190506000601160008481526020019081526020016000205490505b856040015167ffffffffffffffff164210806133415750856060015167ffffffffffffffff1642115b806133565750855167ffffffffffffffff1683105b8061336e575082866020015167ffffffffffffffff16105b156134865761337e600186616dae565b94508685106133b9576040517f08c379a00000000000000000000000000000000000000000000000000000000081526004016103259061645d565b336000908152600e60205260409020805486908110613401577f4e487b7100000000000000000000000000000000000000000000000000000000600052603260045260246000fd5b600091825260209182902060408051608081018252929091015467ffffffffffffffff808216845268010000000000000000820481169484019490945270010000000000000000000000000000000081048416918301919091527801000000000000000000000000000000000000000000000000900490911660608201529550613318565b80156134fb576000838152601060205260408120546134a5908461467b565b9050818111156134e1576040517f08c379a00000000000000000000000000000000000000000000000000000000081526004016103259061686d565b88156134f95760008481526010602052604090208190555b505b505050808061350990616ed3565b91505061326c565b73ffffffffffffffffffffffffffffffffffffffff841661355e576040517f08c379a000000000000000000000000000000000000000000000000000000000815260040161032590616be7565b8151835114613599576040517f08c379a000000000000000000000000000000000000000000000000000000000815260040161032590616b8a565b60006135a361313a565b90506135b48160008787878761468e565b60005b84518110156136b7578381815181106135f9577f4e487b7100000000000000000000000000000000000000000000000000000000600052603260045260246000fd5b602002602001015160008087848151811061363d577f4e487b7100000000000000000000000000000000000000000000000000000000600052603260045260246000fd5b6020026020010151815260200190815260200160002060008873ffffffffffffffffffffffffffffffffffffffff1673ffffffffffffffffffffffffffffffffffffffff168152602001908152602001600020600082825461369f9190616dae565b909155508190506136af81616ed3565b9150506135b7565b508473ffffffffffffffffffffffffffffffffffffffff16600073ffffffffffffffffffffffffffffffffffffffff168273ffffffffffffffffffffffffffffffffffffffff167f4a39dc06d4c0dbc64b70af90fd698a233a518aa5d07e595d983b8c0526c8f7fb878760405161372f929190615f18565b60405180910390a461130e816000878787876146db565b61271090565b8151835114613787576040517f08c379a000000000000000000000000000000000000000000000000000000000815260040161032590616b8a565b73ffffffffffffffffffffffffffffffffffffffff84166137d4576040517f08c379a00000000000000000000000000000000000000000000000000000000081526004016103259061663f565b60006137de61313a565b90506137ee81878787878761468e565b60005b8451811015613956576000858281518110613835577f4e487b7100000000000000000000000000000000000000000000000000000000600052603260045260246000fd5b60200260200101519050600085838151811061387a577f4e487b7100000000000000000000000000000000000000000000000000000000600052603260045260246000fd5b6020908102919091018101516000848152808352604080822073ffffffffffffffffffffffffffffffffffffffff8e1683529093529190912054909150818110156138f1576040517f08c379a000000000000000000000000000000000000000000000000000000000815260040161032590616810565b60008381526020818152604080832073ffffffffffffffffffffffffffffffffffffffff8e8116855292528083208585039055908b1682528120805484929061393b908490616dae565b925050819055505050508061394f90616ed3565b90506137f1565b508473ffffffffffffffffffffffffffffffffffffffff168673ffffffffffffffffffffffffffffffffffffffff168273ffffffffffffffffffffffffffffffffffffffff167f4a39dc06d4c0dbc64b70af90fd698a233a518aa5d07e595d983b8c0526c8f7fb87876040516139cd929190615f18565b60405180910390a46139e38187878787876146db565b505050505050565b6139f3611d81565b613a29576040517f08c379a00000000000000000000000000000000000000000000000000000000081526004016103259061619b565b600680547fffffffffffffffffffffffffffffffffffffffffffffffffffffffffffffff001690557f5db9ee0a495bf2e6ff9c91a7834c1ba4fdd244a5e8aa4e537bd38aeae4b073aa613a7a61313a565b604051613a879190615d8e565b60405180910390a1565b73ffffffffffffffffffffffffffffffffffffffff8316613ade576040517f08c379a0000000000000000000000000000000000000000000000000000000008152600401610325906167b3565b8051825114613b19576040517f08c379a000000000000000000000000000000000000000000000000000000000815260040161032590616b8a565b6000613b2361313a565b9050613b438185600086866040518060200160405280600081525061468e565b60005b8351811015613c8a576000848281518110613b8a577f4e487b7100000000000000000000000000000000000000000000000000000000600052603260045260246000fd5b602002602001015190506000848381518110613bcf577f4e487b7100000000000000000000000000000000000000000000000000000000600052603260045260246000fd5b6020908102919091018101516000848152808352604080822073ffffffffffffffffffffffffffffffffffffffff8c168352909352919091205490915081811015613c46576040517f08c379a0000000000000000000000000000000000000000000000000000000008152600401610325906163a3565b60009283526020838152604080852073ffffffffffffffffffffffffffffffffffffffff8b1686529091529092209103905580613c8281616ed3565b915050613b46565b50600073ffffffffffffffffffffffffffffffffffffffff168473ffffffffffffffffffffffffffffffffffffffff168273ffffffffffffffffffffffffffffffffffffffff167f4a39dc06d4c0dbc64b70af90fd698a233a518aa5d07e595d983b8c0526c8f7fb8686604051613d02929190615f18565b60405180910390a450505050565b6003805473ffffffffffffffffffffffffffffffffffffffff8381167fffffffffffffffffffffffff0000000000000000000000000000000000000000831681179093556040519116919082907f8be0079c531659141344cd1fd0a4f28419497f9722a3daafe3b4186f6b6457e090600090a35050565b73ffffffffffffffffffffffffffffffffffffffff8416613dd4576040517f08c379a000000000000000000000000000000000000000000000000000000000815260040161032590616be7565b6000613dde61313a565b9050613dff81600087613df0886148b9565b613df9886148b9565b8761468e565b60008481526020818152604080832073ffffffffffffffffffffffffffffffffffffffff8916845290915281208054859290613e3c908490616dae565b925050819055508473ffffffffffffffffffffffffffffffffffffffff16600073ffffffffffffffffffffffffffffffffffffffff168273ffffffffffffffffffffffffffffffffffffffff167fc3d58168c5ae7397731d063d5bbf3d657854427343f4c083240f7aacaa2d0f628787604051613eba929190616cef565b60405180910390a461130e8160008787878761492b565b613ed9611d81565b15613f10576040517f08c379a000000000000000000000000000000000000000000000000000000000815260040161032590616608565b600680547fffffffffffffffffffffffffffffffffffffffffffffffffffffffffffffff001660011790557f62e78cea01bee320cd4e420270b5ea74000d11b0c9f74754ebdbfc544b05a258613a7a61313a565b613f6c613746565b6bffffffffffffffffffffffff16816bffffffffffffffffffffffff161115613fc1576040517f08c379a000000000000000000000000000000000000000000000000000000000815260040161032590616a73565b73ffffffffffffffffffffffffffffffffffffffff821661400e576040517f08c379a000000000000000000000000000000000000000000000000000000000815260040161032590616ca1565b6040805180820190915273ffffffffffffffffffffffffffffffffffffffff9283168082526bffffffffffffffffffffffff929092166020909101819052600480547fffffffffffffffffffffffff00000000000000000000000000000000000000001690921790921674010000000000000000000000000000000000000000909202919091179055565b8173ffffffffffffffffffffffffffffffffffffffff168373ffffffffffffffffffffffffffffffffffffffff1614156140ff576040517f08c379a000000000000000000000000000000000000000000000000000000000815260040161032590616ad0565b73ffffffffffffffffffffffffffffffffffffffff8381166000818152600160209081526040808320948716808452949091529081902080547fffffffffffffffffffffffffffffffffffffffffffffffffffffffffffffff0016851515179055517f17307eab39ab6107e8899845ad3d59bd9653f200f220920489ca2b5937696c319061418e908590615f3d565b60405180910390a3505050565b73ffffffffffffffffffffffffffffffffffffffff83166141e8576040517f08c379a0000000000000000000000000000000000000000000000000000000008152600401610325906167b3565b60006141f261313a565b905061422281856000614204876148b9565b61420d876148b9565b6040518060200160405280600081525061468e565b60008381526020818152604080832073ffffffffffffffffffffffffffffffffffffffff881684529091529020548281101561428a576040517f08c379a0000000000000000000000000000000000000000000000000000000008152600401610325906163a3565b60008481526020818152604080832073ffffffffffffffffffffffffffffffffffffffff808a16808652919093528184208786039055905190918516907fc3d58168c5ae7397731d063d5bbf3d657854427343f4c083240f7aacaa2d0f62906142f69089908990616cef565b60405180910390a45050505050565b600061094e614312614a98565b83614b9c565b60008060006143278585614bcf565b91509150611d6681614c3c565b8061433d61313a565b6000828152600a602052604090205473ffffffffffffffffffffffffffffffffffffffff90811691161461439d576040517f08c379a000000000000000000000000000000000000000000000000000000000815260040161032590616c44565b506000908152600a6020526040902080547fffffffffffffffffffffffff00000000000000000000000000000000000000001673ffffffffffffffffffffffffffffffffffffffff92909216919091179055565b73ffffffffffffffffffffffffffffffffffffffff918216600090815260016020908152604080832093909416825291909152205460ff1690565b73ffffffffffffffffffffffffffffffffffffffff8416614479576040517f08c379a00000000000000000000000000000000000000000000000000000000081526004016103259061663f565b600061448361313a565b9050614494818787613df0886148b9565b60008481526020818152604080832073ffffffffffffffffffffffffffffffffffffffff8a168452909152902054838110156144fc576040517f08c379a000000000000000000000000000000000000000000000000000000000815260040161032590616810565b60008581526020818152604080832073ffffffffffffffffffffffffffffffffffffffff8b8116855292528083208785039055908816825281208054869290614546908490616dae565b925050819055508573ffffffffffffffffffffffffffffffffffffffff168773ffffffffffffffffffffffffffffffffffffffff168373ffffffffffffffffffffffffffffffffffffffff167fc3d58168c5ae7397731d063d5bbf3d657854427343f4c083240f7aacaa2d0f6288886040516145c3929190616cef565b60405180910390a461207282888888888861492b565b60007fffffffff0000000000000000000000000000000000000000000000000000000082167fd9b67a2600000000000000000000000000000000000000000000000000000000148061466c57507fffffffff0000000000000000000000000000000000000000000000000000000082167f0e89341c00000000000000000000000000000000000000000000000000000000145b8061094e575061094e82614e4e565b60006146878284616dae565b9392505050565b614696611d81565b156146cd576040517f08c379a000000000000000000000000000000000000000000000000000000000815260040161032590616608565b6139e3868686868686614e98565b6146fa8473ffffffffffffffffffffffffffffffffffffffff16615068565b156139e3576040517fbc197c8100000000000000000000000000000000000000000000000000000000815273ffffffffffffffffffffffffffffffffffffffff85169063bc197c81906147599089908990889088908890600401615daf565b602060405180830381600087803b15801561477357600080fd5b505af19250505080156147c1575060408051601f3d9081017fffffffffffffffffffffffffffffffffffffffffffffffffffffffffffffffe01682019092526147be91810190615a4b565b60015b61483e576147cd616f70565b806147d8575061480c565b806040517f08c379a00000000000000000000000000000000000000000000000000000000081526004016103259190616003565b6040517f08c379a00000000000000000000000000000000000000000000000000000000081526004016103259061604d565b7fffffffff0000000000000000000000000000000000000000000000000000000081167fbc197c810000000000000000000000000000000000000000000000000000000014612072576040517f08c379a0000000000000000000000000000000000000000000000000000000008152600401610325906160e1565b6040805160018082528183019092526060916000919060208083019080368337019050509050828160008151811061491a577f4e487b7100000000000000000000000000000000000000000000000000000000600052603260045260246000fd5b602090810291909101015292915050565b61494a8473ffffffffffffffffffffffffffffffffffffffff16615068565b156139e3576040517ff23a6e6100000000000000000000000000000000000000000000000000000000815273ffffffffffffffffffffffffffffffffffffffff85169063f23a6e61906149a99089908990889088908890600401615e1a565b602060405180830381600087803b1580156149c357600080fd5b505af1925050508015614a11575060408051601f3d9081017fffffffffffffffffffffffffffffffffffffffffffffffffffffffffffffffe0168201909252614a0e91810190615a4b565b60015b614a1d576147cd616f70565b7fffffffff0000000000000000000000000000000000000000000000000000000081167ff23a6e610000000000000000000000000000000000000000000000000000000014612072576040517f08c379a0000000000000000000000000000000000000000000000000000000008152600401610325906160e1565b60003073ffffffffffffffffffffffffffffffffffffffff7f000000000000000000000000000000000000000000000000000000000000000016148015614afe57507f000000000000000000000000000000000000000000000000000000000000000046145b15614b2a57507f0000000000000000000000000000000000000000000000000000000000000000611d88565b614b957f00000000000000000000000000000000000000000000000000000000000000007f00000000000000000000000000000000000000000000000000000000000000007f000000000000000000000000000000000000000000000000000000000000000061506e565b9050611d88565b60008282604051602001614bb1929190615d58565b60405160208183030381529060405280519060200120905092915050565b600080825160411415614c065760208301516040840151606085015160001a614bfa878285856150a8565b94509450505050611419565b825160401415614c305760208301516040840151614c258683836151b3565b935093505050611419565b50600090506002611419565b6000816004811115614c77577f4e487b7100000000000000000000000000000000000000000000000000000000600052602160045260246000fd5b1415614c82576109d2565b6001816004811115614cbd577f4e487b7100000000000000000000000000000000000000000000000000000000600052602160045260246000fd5b1415614cf5576040517f08c379a000000000000000000000000000000000000000000000000000000000815260040161032590616016565b6002816004811115614d30577f4e487b7100000000000000000000000000000000000000000000000000000000600052602160045260246000fd5b1415614d68576040517f08c379a000000000000000000000000000000000000000000000000000000000815260040161032590616255565b6003816004811115614da3577f4e487b7100000000000000000000000000000000000000000000000000000000600052602160045260246000fd5b1415614ddb576040517f08c379a0000000000000000000000000000000000000000000000000000000008152600401610325906164f1565b6004816004811115614e16577f4e487b7100000000000000000000000000000000000000000000000000000000600052602160045260246000fd5b14156109d2576040517f08c379a000000000000000000000000000000000000000000000000000000000815260040161032590616756565b7fffffffff0000000000000000000000000000000000000000000000000000000081167f01ffc9a70000000000000000000000000000000000000000000000000000000014919050565b614ea68686868686866139e3565b73ffffffffffffffffffffffffffffffffffffffff8516614f885760005b8351811015614f8657828181518110614f06577f4e487b7100000000000000000000000000000000000000000000000000000000600052603260045260246000fd5b602002602001015160086000868481518110614f4b577f4e487b7100000000000000000000000000000000000000000000000000000000600052603260045260246000fd5b602002602001015181526020019081526020016000206000828254614f709190616dae565b90915550614f7f905081616ed3565b9050614ec4565b505b73ffffffffffffffffffffffffffffffffffffffff84166139e35760005b835181101561207257828181518110614fe8577f4e487b7100000000000000000000000000000000000000000000000000000000600052603260045260246000fd5b60200260200101516008600086848151811061502d577f4e487b7100000000000000000000000000000000000000000000000000000000600052603260045260246000fd5b6020026020010151815260200190815260200160002060008282546150529190616e3c565b90915550615061905081616ed3565b9050614fa6565b3b151590565b60008383834630604051602001615089959493929190615fac565b6040516020818303038152906040528051906020012090509392505050565b6000807f7fffffffffffffffffffffffffffffff5d576e7357a4501ddfe92f46681b20a08311156150df57506000905060036151aa565b8460ff16601b141580156150f757508460ff16601c14155b1561510857506000905060046151aa565b60006001878787876040516000815260200160405260405161512d9493929190615fe5565b6020604051602081039080840390855afa15801561514f573d6000803e3d6000fd5b50506040517fffffffffffffffffffffffffffffffffffffffffffffffffffffffffffffffe0015191505073ffffffffffffffffffffffffffffffffffffffff81166151a3576000600192509250506151aa565b9150600090505b94509492505050565b6000807f7fffffffffffffffffffffffffffffffffffffffffffffffffffffffffffffff831660ff84901c601b016151ed878288856150a8565b935093505050935093915050565b82805461520790616e7f565b90600052602060002090601f016020900481019282615229576000855561526f565b82601f1061524257805160ff191683800117855561526f565b8280016001018555821561526f579182015b8281111561526f578251825591602001919060010190615254565b5061527b92915061527f565b5090565b5b8082111561527b5760008155600101615280565b600067ffffffffffffffff8311156152ae576152ae616f3b565b6152df60207fffffffffffffffffffffffffffffffffffffffffffffffffffffffffffffffe0601f86011601616d60565b90508281528383830111156152f357600080fd5b828260208301376000602084830101529392505050565b60008083601f84011261531b578182fd5b50813567ffffffffffffffff811115615332578182fd5b602083019150836020808302850101111561141957600080fd5b600082601f83011261535c578081fd5b8135602061537161536c83616d8a565b616d60565b828152818101908583018385028701840188101561538d578586fd5b855b858110156153ab5781358452928401929084019060010161538f565b5090979650505050505050565b60008083601f8401126153c9578182fd5b50813567ffffffffffffffff8111156153e0578182fd5b60208301915083602082850101111561141957600080fd5b600082601f830112615408578081fd5b61468783833560208501615294565b803567ffffffffffffffff8116811461095157600080fd5b600060208284031215615440578081fd5b813561468781617051565b6000806040838503121561545d578081fd5b823561546881617051565b9150602083013561547881617051565b809150509250929050565b600080600080600060a0868803121561549a578081fd5b85356154a581617051565b945060208601356154b581617051565b9350604086013567ffffffffffffffff808211156154d1578283fd5b6154dd89838a0161534c565b945060608801359150808211156154f2578283fd5b6154fe89838a0161534c565b93506080880135915080821115615513578283fd5b50615520888289016153f8565b9150509295509295909350565b600080600080600060a08688031215615544578081fd5b853561554f81617051565b9450602086013561555f81617051565b93506040860135925060608601359150608086013567ffffffffffffffff811115615588578182fd5b615520888289016153f8565b600080604083850312156155a6578182fd5b82356155b181617051565b9150602083013567ffffffffffffffff8111156155cc578182fd5b6155d88582860161534c565b9150509250929050565b6000806000606084860312156155f6578081fd5b833561560181617051565b9250602084013567ffffffffffffffff8082111561561d578283fd5b6156298783880161534c565b9350604086013591508082111561563e578283fd5b5061564b8682870161534c565b9150509250925092565b6000806000806080858703121561566a578182fd5b843561567581617051565b9350602085013567ffffffffffffffff80821115615691578384fd5b61569d8883890161534c565b945060408701359150808211156156b2578384fd5b6156be8883890161534c565b935060608701359150808211156156d3578283fd5b506156e0878288016153f8565b91505092959194509250565b600080604083850312156156fe578182fd5b823561570981617051565b915060208301358015158114615478578182fd5b6000806040838503121561572f578182fd5b823561573a81617051565b946020939093013593505050565b60008060006060848603121561575c578081fd5b833561576781617051565b95602085013595506040909401359392505050565b600080600080600060808688031215615793578283fd5b853561579e81617051565b94506020860135935060408601359250606086013567ffffffffffffffff8111156157c7578182fd5b6157d3888289016153b8565b969995985093965092949392505050565b600080600080608085870312156157f9578182fd5b843561580481617051565b93506020850135925060408501359150606085013567ffffffffffffffff81111561582d578182fd5b6156e0878288016153f8565b600080600080600060a08688031215615850578283fd5b853561585b81617051565b945061586960208701615417565b935061587760408701615417565b925061588560608701615417565b915061589360808701615417565b90509295509295909350565b600080604083850312156158b1578182fd5b82356158bc81617051565b915060208301356bffffffffffffffffffffffff81168114615478578182fd5b600080604083850312156158ee578182fd5b823567ffffffffffffffff80821115615905578384fd5b818501915085601f830112615918578384fd5b8135602061592861536c83616d8a565b82815281810190858301838502870184018b1015615944578889fd5b8896505b8487101561596f57803561595b81617051565b835260019690960195918301918301615948565b5096505086013592505080821115615985578283fd5b506155d88582860161534c565b600080602083850312156159a4578182fd5b823567ffffffffffffffff8111156159ba578283fd5b611bc48582860161530a565b600080600080604085870312156159db578182fd5b843567ffffffffffffffff808211156159f2578384fd5b6159fe8883890161530a565b90965094506020870135915080821115615a16578384fd5b50615a238782880161530a565b95989497509550505050565b600060208284031215615a40578081fd5b813561468781617073565b600060208284031215615a5c578081fd5b815161468781617073565b600060208284031215615a78578081fd5b815161468781617051565b600060208284031215615a94578081fd5b813567ffffffffffffffff811115615aaa578182fd5b8201601f81018413615aba578182fd5b612e6b84823560208401615294565b600060808284031215615ada578081fd5b6040516080810181811067ffffffffffffffff82111715615afd57615afd616f3b565b604052615b0983615417565b8152615b1760208401615417565b6020820152615b2860408401615417565b6040820152615b3960608401615417565b60608201529392505050565b600080600060408486031215615b59578081fd5b833567ffffffffffffffff80821115615b70578283fd5b9085019060c08288031215615b83578283fd5b90935060208501359080821115615b98578283fd5b50615ba5868287016153b8565b9497909650939450505050565b600060208284031215615bc3578081fd5b5035919050565b60008060408385031215615bdc578182fd5b50508035926020909101359150565b60008284527f07ffffffffffffffffffffffffffffffffffffffffffffffffffffffffffffff831115615c1c578081fd5b6020830280836020870137939093016020019283525090919050565b6000815180845260208085019450808401835b83811015615c6757815187529582019590820190600101615c4b565b509495945050505050565b60008151808452615c8a816020860160208601616e53565b601f017fffffffffffffffffffffffffffffffffffffffffffffffffffffffffffffffe0169290920160200192915050565b805167ffffffffffffffff908116835260208083015182169084015260408083015182169084015260609182015116910152565b6000828483379101908152919050565b6000838583375060609190911b7fffffffffffffffffffffffffffffffffffffffff000000000000000000000000169101908152601401919050565b60008251615d4e818460208701616e53565b9190910192915050565b7f190100000000000000000000000000000000000000000000000000000000000081526002810192909252602282015260420190565b73ffffffffffffffffffffffffffffffffffffffff91909116815260200190565b600073ffffffffffffffffffffffffffffffffffffffff808816835280871660208401525060a06040830152615de860a0830186615c38565b8281036060840152615dfa8186615c38565b90508281036080840152615e0e8185615c72565b98975050505050505050565b600073ffffffffffffffffffffffffffffffffffffffff808816835280871660208401525084604083015283606083015260a06080830152615e5f60a0830184615c72565b979650505050505050565b73ffffffffffffffffffffffffffffffffffffffff929092168252602082015260400190565b6020808252825182820181905260009190848201906040850190845b81811015615ed257615ebf838551615cbc565b9284019260809290920191600101615eac565b50909695505050505050565b600060408252615ef2604083018688615beb565b8281036020840152615e5f818587615beb565b6000602082526146876020830184615c38565b600060408252615f2b6040830185615c38565b82810360208401526128498185615c38565b901515815260200190565b6000831515825260406020830152612e6b6040830184615c72565b96875273ffffffffffffffffffffffffffffffffffffffff95861660208801529390941660408601526060850191909152608084015260a083019190915260c082015260e00190565b94855260208501939093526040840191909152606083015273ffffffffffffffffffffffffffffffffffffffff16608082015260a00190565b93845260ff9290921660208401526040830152606082015260800190565b6000602082526146876020830184615c72565b60208082526018908201527f45434453413a20696e76616c6964207369676e61747572650000000000000000604082015260600190565b60208082526034908201527f455243313135353a207472616e7366657220746f206e6f6e204552433131353560408201527f526563656976657220696d706c656d656e746572000000000000000000000000606082015260800190565b60208082526018908201527f746f6b656e205f696420616c7265616479206578697374730000000000000000604082015260600190565b60208082526028908201527f455243313135353a204552433131353552656365697665722072656a6563746560408201527f6420746f6b656e73000000000000000000000000000000000000000000000000606082015260800190565b60208082526032908201527f4d696e696d616c466f727761726465723a207369676e617475726520646f657360408201527f206e6f74206d6174636820726571756573740000000000000000000000000000606082015260800190565b60208082526014908201527f5061757361626c653a206e6f7420706175736564000000000000000000000000604082015260600190565b60208082526045908201527f4d65746163616e614e4654236164644d696e745065726d697373696f6e3a205360408201527f544152545f54494d455f49535f4e4f545f4c45535345525f5448454e5f454e4460608201527f5f54494d45000000000000000000000000000000000000000000000000000000608082015260a00190565b6020808252601f908201527f45434453413a20696e76616c6964207369676e6174757265206c656e67746800604082015260600190565b6020808252602e908201527f4d65746163616e614e4654235f76616c69646174654d696e74733a204641435460408201527f4f52595f4e4f545f414354495645000000000000000000000000000000000000606082015260800190565b6020808252602b908201527f455243313135353a2062616c616e636520717565727920666f7220746865207a60408201527f65726f2061646472657373000000000000000000000000000000000000000000606082015260800190565b60208082526026908201527f4f776e61626c653a206e6577206f776e657220697320746865207a65726f206160408201527f6464726573730000000000000000000000000000000000000000000000000000606082015260800190565b60208082526024908201527f455243313135353a206275726e20616d6f756e7420657863656564732062616c60408201527f616e636500000000000000000000000000000000000000000000000000000000606082015260800190565b60208082526029908201527f455243313135353a2063616c6c6572206973206e6f74206f776e6572206e6f7260408201527f20617070726f7665640000000000000000000000000000000000000000000000606082015260800190565b6020808252602b908201527f4d65746163616e614e4654235f76616c69646174654d696e74733a2049445f4f60408201527f55545f4f465f52414e4745000000000000000000000000000000000000000000606082015260800190565b60208082526012908201527f554e535550504f525445445f4d4554484f440000000000000000000000000000604082015260600190565b60208082526022908201527f45434453413a20696e76616c6964207369676e6174757265202773272076616c60408201527f7565000000000000000000000000000000000000000000000000000000000000606082015260800190565b60208082526032908201527f4d65746163616e614e4654237365744d617849737375616e6365733a20494e5660408201527f414c49445f4152524159535f4c454e4754480000000000000000000000000000606082015260800190565b60208082526038908201527f4d65746163616e614e4654236164644d696e745065726d697373696f6e3a204f60408201527f5645524c41505f574954485f4c4f434b45445f52414e47450000000000000000606082015260800190565b60208082526010908201527f5061757361626c653a2070617573656400000000000000000000000000000000604082015260600190565b60208082526025908201527f455243313135353a207472616e7366657220746f20746865207a65726f20616460408201527f6472657373000000000000000000000000000000000000000000000000000000606082015260800190565b60208082526032908201527f455243313135353a207472616e736665722063616c6c6572206973206e6f742060408201527f6f776e6572206e6f7220617070726f7665640000000000000000000000000000606082015260800190565b6020808252602f908201527f455243313135355472616461626c65236d696e7442617463683a204f4e4c595f60408201527f43524541544f525f414c4c4f5745440000000000000000000000000000000000606082015260800190565b60208082526022908201527f45434453413a20696e76616c6964207369676e6174757265202776272076616c60408201527f7565000000000000000000000000000000000000000000000000000000000000606082015260800190565b60208082526023908201527f455243313135353a206275726e2066726f6d20746865207a65726f206164647260408201527f6573730000000000000000000000000000000000000000000000000000000000606082015260800190565b6020808252602a908201527f455243313135353a20696e73756666696369656e742062616c616e636520666f60408201527f72207472616e7366657200000000000000000000000000000000000000000000606082015260800190565b60208082526031908201527f4d65746163616e614e4654235f76616c69646174654d696e74733a204d41585f60408201527f49535355414e43455f4558434545444544000000000000000000000000000000606082015260800190565b6020808252818101527f4f776e61626c653a2063616c6c6572206973206e6f7420746865206f776e6572604082015260600190565b60208082526029908201527f4d65746163616e614e4654236164644d696e745065726d697373696f6e3a204e60408201527f554c4c5f52414e47450000000000000000000000000000000000000000000000606082015260800190565b60208082526035908201527f4d65746163616e614e4654237365744d617849737375616e6365733a20494e5660408201527f414c49445f4e45575f4d41585f49535355414e43450000000000000000000000606082015260800190565b6020808252602c908201527f4d65746163616e614e4654236164644d696e745065726d697373696f6e3a204960408201527f4e56414c49445f52414e47450000000000000000000000000000000000000000606082015260800190565b6020808252602c908201527f455243313135355472616461626c652373657443726561746f723a20494e564160408201527f4c49445f414444524553532e0000000000000000000000000000000000000000606082015260800190565b6020808252602a908201527f455243323938313a20726f79616c7479206665652077696c6c2065786365656460408201527f2073616c65507269636500000000000000000000000000000000000000000000606082015260800190565b60208082526029908201527f455243313135353a2073657474696e6720617070726f76616c2073746174757360408201527f20666f722073656c660000000000000000000000000000000000000000000000606082015260800190565b60208082526029908201527f455243313135353a206163636f756e747320616e6420696473206c656e67746860408201527f206d69736d617463680000000000000000000000000000000000000000000000606082015260800190565b60208082526028908201527f455243313135353a2069647320616e6420616d6f756e7473206c656e6774682060408201527f6d69736d61746368000000000000000000000000000000000000000000000000606082015260800190565b60208082526021908201527f455243313135353a206d696e7420746f20746865207a65726f2061646472657360408201527f7300000000000000000000000000000000000000000000000000000000000000606082015260800190565b60208082526031908201527f455243313135355472616461626c652363726561746f724f6e6c793a204f4e4c60408201527f595f43524541544f525f414c4c4f574544000000000000000000000000000000606082015260800190565b60208082526019908201527f455243323938313a20696e76616c696420726563656976657200000000000000604082015260600190565b6080810161093d8284615cbc565b90815260200190565b918252602082015260400190565b60008083357fffffffffffffffffffffffffffffffffffffffffffffffffffffffffffffffe1843603018112616d31578283fd5b83018035915067ffffffffffffffff821115616d4b578283fd5b60200191503681900382131561141957600080fd5b60405181810167ffffffffffffffff81118282101715616d8257616d82616f3b565b604052919050565b600067ffffffffffffffff821115616da457616da4616f3b565b5060209081020190565b60008219821115616dc157616dc1616f0c565b500190565b600082616dfa577f4e487b710000000000000000000000000000000000000000000000000000000081526012600452602481fd5b500490565b6000817fffffffffffffffffffffffffffffffffffffffffffffffffffffffffffffffff0483118215151615616e3757616e37616f0c565b500290565b600082821015616e4e57616e4e616f0c565b500390565b60005b83811015616e6e578181015183820152602001616e56565b838111156121d05750506000910152565b600281046001821680616e9357607f821691505b60208210811415616ecd577f4e487b7100000000000000000000000000000000000000000000000000000000600052602260045260246000fd5b50919050565b60007fffffffffffffffffffffffffffffffffffffffffffffffffffffffffffffffff821415616f0557616f05616f0c565b5060010190565b7f4e487b7100000000000000000000000000000000000000000000000000000000600052601160045260246000fd5b7f4e487b7100000000000000000000000000000000000000000000000000000000600052604160045260246000fd5b60e01c90565b600060443d1015616f8057611d88565b600481823e6308c379a0616f948251616f6a565b14616f9e57611d88565b6040517ffffffffffffffffffffffffffffffffffffffffffffffffffffffffffffffffc3d016004823e80513d67ffffffffffffffff8160248401118184111715616fec5750505050611d88565b828401925082519150808211156170065750505050611d88565b503d8301602082840101111561701e57505050611d88565b601f017fffffffffffffffffffffffffffffffffffffffffffffffffffffffffffffffe016810160200160405291505090565b73ffffffffffffffffffffffffffffffffffffffff811681146109d257600080fd5b7fffffffff00000000000000000000000000000000000000000000000000000000811681146109d257600080fdfea26469706673582212202d2ec1a106d6b020dcf448d88d50beec9822889675357e68e635968061056dd264736f6c63430008000033",
  "linkReferences": {},
  "deployedLinkReferences": {}
}