{
  "_format": "hh-sol-artifact-1",
  "contractName": "CreatureAccessoryFactory",
  "sourceName": "contracts/nft/lootBox/CreatureAccessoryFactory.sol",
  "abi": [
    {
      "inputs": [
        {
          "internalType": "address",
          "name": "_firstOwner",
          "type": "address"
        },
        {
          "internalType": "address",
          "name": "_nftAddress",
          "type": "address"
        },
        {
          "internalType": "address",
          "name": "_lootBoxAddress",
          "type": "address"
        }
      ],
      "stateMutability": "nonpayable",
      "type": "constructor"
    },
    {
      "anonymous": false,
      "inputs": [
        {
          "indexed": true,
          "internalType": "address",
          "name": "owner",
          "type": "address"
        },
        {
          "indexed": true,
          "internalType": "uint256",
          "name": "previousTier",
          "type": "uint256"
        },
        {
          "indexed": true,
          "internalType": "uint256",
          "name": "newTier",
          "type": "uint256"
        }
      ],
      "name": "OwnershipGranted",
      "type": "event"
    },
    {
      "inputs": [],
      "name": "BASIC_LOOTBOX",
      "outputs": [
        {
          "internalType": "uint256",
          "name": "",
          "type": "uint256"
        }
      ],
      "stateMutability": "view",
      "type": "function"
    },
    {
      "inputs": [],
      "name": "GOLD_LOOTBOX",
      "outputs": [
        {
          "internalType": "uint256",
          "name": "",
          "type": "uint256"
        }
      ],
      "stateMutability": "view",
      "type": "function"
    },
    {
      "inputs": [],
      "name": "NUM_LOOTBOX_OPTIONS",
      "outputs": [
        {
          "internalType": "uint256",
          "name": "",
          "type": "uint256"
        }
      ],
      "stateMutability": "view",
      "type": "function"
    },
    {
      "inputs": [],
      "name": "NUM_OPTIONS",
      "outputs": [
        {
          "internalType": "uint256",
          "name": "",
          "type": "uint256"
        }
      ],
      "stateMutability": "view",
      "type": "function"
    },
    {
      "inputs": [],
      "name": "PREMIUM_LOOTBOX",
      "outputs": [
        {
          "internalType": "uint256",
          "name": "",
          "type": "uint256"
        }
      ],
      "stateMutability": "view",
      "type": "function"
    },
    {
      "inputs": [
        {
          "internalType": "address",
          "name": "_address",
          "type": "address"
        },
        {
          "internalType": "uint256",
          "name": "_tier",
          "type": "uint256"
        }
      ],
      "name": "assignOwnership",
      "outputs": [],
      "stateMutability": "nonpayable",
      "type": "function"
    },
    {
      "inputs": [
        {
          "internalType": "address",
          "name": "_owner",
          "type": "address"
        },
        {
          "internalType": "uint256",
          "name": "_optionId",
          "type": "uint256"
        }
      ],
      "name": "balanceOf",
      "outputs": [
        {
          "internalType": "uint256",
          "name": "",
          "type": "uint256"
        }
      ],
      "stateMutability": "view",
      "type": "function"
    },
    {
      "inputs": [
        {
          "internalType": "uint256",
          "name": "_optionId",
          "type": "uint256"
        },
        {
          "internalType": "uint256",
          "name": "_amount",
          "type": "uint256"
        }
      ],
      "name": "canMint",
      "outputs": [
        {
          "internalType": "bool",
          "name": "",
          "type": "bool"
        }
      ],
      "stateMutability": "view",
      "type": "function"
    },
    {
      "inputs": [
        {
          "internalType": "address",
          "name": "_owner",
          "type": "address"
        }
      ],
      "name": "getOwnerTier",
      "outputs": [
        {
          "internalType": "uint256",
          "name": "",
          "type": "uint256"
        }
      ],
      "stateMutability": "view",
      "type": "function"
    },
    {
      "inputs": [],
      "name": "lootBoxAddress",
      "outputs": [
        {
          "internalType": "address",
          "name": "",
          "type": "address"
        }
      ],
      "stateMutability": "view",
      "type": "function"
    },
    {
      "inputs": [
        {
          "internalType": "address",
          "name": "_toAddress",
          "type": "address"
        },
        {
          "internalType": "uint256",
          "name": "_optionId",
          "type": "uint256"
        },
        {
          "internalType": "uint256",
          "name": "_amount",
          "type": "uint256"
        },
        {
          "internalType": "bytes",
          "name": "_data",
          "type": "bytes"
        }
      ],
      "name": "mint",
      "outputs": [],
      "stateMutability": "nonpayable",
      "type": "function"
    },
    {
      "inputs": [],
      "name": "nftAddress",
      "outputs": [
        {
          "internalType": "address",
          "name": "",
          "type": "address"
        }
      ],
      "stateMutability": "view",
      "type": "function"
    },
    {
      "inputs": [],
      "name": "numOptions",
      "outputs": [
        {
          "internalType": "uint256",
          "name": "",
          "type": "uint256"
        }
      ],
      "stateMutability": "pure",
      "type": "function"
    }
  ],
  "bytecode": "0x608060405234801561001057600080fd5b50604051620012fd380380620012fd83398101604081905261003191610199565b8273ffffffffffffffffffffffffffffffffffffffff811661009f576040517f08c379a000000000000000000000000000000000000000000000000000000000815260040180806020018281038252602e815260200180620012cf602e913960400191505060405180910390fd5b73ffffffffffffffffffffffffffffffffffffffff81166000818152602081905260408082207fffffffffffffffffffffffffffffffffffffffffffffffffffffffffffffffff9081905590519092907fa4e9b194bafb51369051927f4c07278de72aa1ee689f375215ea3a16dfef618e908390a450600180556002805473ffffffffffffffffffffffffffffffffffffffff9384167fffffffffffffffffffffffff00000000000000000000000000000000000000009182161790915560038054929093169116179055506101db565b805173ffffffffffffffffffffffffffffffffffffffff8116811461019457600080fd5b919050565b6000806000606084860312156101ad578283fd5b6101b684610170565b92506101c460208501610170565b91506101d260408501610170565b90509250925092565b6110e480620001eb6000396000f3fe608060405234801561001057600080fd5b50600436106100de5760003560e01c80635d511a111161008c578063a01d9ee411610066578063a01d9ee414610189578063c0cdf20f14610191578063e8f35d5a14610199578063f21af56d146101ac576100de565b80635d511a1114610159578063731133e91461016e5780638531b06b14610181576100de565b80634b97aed9116100bd5780634b97aed91461013457806350c9b4361461013c5780635bf8633a14610144576100de565b8062fdd58e146100e357806322e1dea91461010c5780633db62e2c1461012c575b600080fd5b6100f66100f1366004610ce8565b6101b4565b6040516101039190611014565b60405180910390f35b61011f61011a366004610dd8565b61040c565b6040516101039190610f3e565b6100f6610427565b6100f661042c565b6100f6610432565b61014c610437565b6040516101039190610e62565b61016c610167366004610ce8565b610453565b005b61016c61017c366004610d11565b610632565b61014c6106f9565b6100f6610715565b6100f661071a565b6100f66101a7366004610cce565b61071f565b6100f661074b565b600060068210156102d15773ffffffffffffffffffffffffffffffffffffffff8316600090815260208190526040902054600111801561020f575060035473ffffffffffffffffffffffffffffffffffffffff848116911614155b1561021c57506000610406565b6002546040517efdd58e00000000000000000000000000000000000000000000000000000000815273ffffffffffffffffffffffffffffffffffffffff90911690600090829062fdd58e906102779030908890600401610ed3565b60206040518083038186803b15801561028f57600080fd5b505afa1580156102a3573d6000803e3d6000fd5b505050506040513d601f19601f820116820180604052508101906102c79190610dc0565b9250610406915050565b73ffffffffffffffffffffffffffffffffffffffff83166000908152602081905260409020546001111561030757506000610406565b6003546040517fbd85b0390000000000000000000000000000000000000000000000000000000081527ffffffffffffffffffffffffffffffffffffffffffffffffffffffffffffffffa84019173ffffffffffffffffffffffffffffffffffffffff1690600090829063bd85b03990610384908690600401611014565b60206040518083038186803b15801561039c57600080fd5b505afa1580156103b0573d6000803e3d6000fd5b505050506040513d601f19601f820116820180604052508101906103d49190610dc0565b90506104007fffffffffffffffffffffffffffffffffffffffffffffffffffffffffffffffff82610750565b93505050505b92915050565b60006104206104196107c7565b84846107d6565b9392505050565b600981565b60095b90565b600881565b60025473ffffffffffffffffffffffffffffffffffffffff1681565b336000908152602081905260409020547fffffffffffffffffffffffffffffffffffffffffffffffffffffffffffffffff908111156104dd576040517f08c379a000000000000000000000000000000000000000000000000000000000815260040180806020018281038252603281526020018061104c6032913960400191505060405180910390fd5b73ffffffffffffffffffffffffffffffffffffffff8316610549576040517f08c379a000000000000000000000000000000000000000000000000000000000815260040180806020018281038252602e81526020018061101e602e913960400191505060405180910390fd5b3373ffffffffffffffffffffffffffffffffffffffff841614156105b8576040517f08c379a000000000000000000000000000000000000000000000000000000000815260040180806020018281038252603181526020018061107e6031913960400191505060405180910390fd5b73ffffffffffffffffffffffffffffffffffffffff8316600081815260208190526040808220549051859391927fa4e9b194bafb51369051927f4c07278de72aa1ee689f375215ea3a16dfef618e91a45073ffffffffffffffffffffffffffffffffffffffff909116600090815260208190526040902055565b600260015414156106a457604080517f08c379a000000000000000000000000000000000000000000000000000000000815260206004820152601f60248201527f5265656e7472616e637947756172643a207265656e7472616e742063616c6c00604482015290519081900360640190fd5b60026001819055506106ee84868585858080601f0160208091040260200160405190810160405280939291908181526020018383808284376000920191909152506107f892505050565b505060018055505050565b60035473ffffffffffffffffffffffffffffffffffffffff1681565b600381565b600681565b73ffffffffffffffffffffffffffffffffffffffff81166000908152602081905260409020545b919050565b600781565b6000828211156107c157604080517f08c379a000000000000000000000000000000000000000000000000000000000815260206004820152601760248201527f536166654d617468237375623a20554e444552464c4f57000000000000000000604482015290519081900360640190fd5b50900390565b60006107d1610a55565b905090565b600080821180156107f05750816107ed85856101b4565b10155b949350505050565b33600090815260208190526040902054600190811115610863576040517f08c379a000000000000000000000000000000000000000000000000000000000815260040180806020018281038252603281526020018061104c6032913960400191505060405180910390fd5b61087561086e6107c7565b86856107d6565b6108b4576040517f08c379a00000000000000000000000000000000000000000000000000000000081526004016108ab90610f80565b60405180910390fd5b60068510156109c35760035473ffffffffffffffffffffffffffffffffffffffff166108de6107c7565b73ffffffffffffffffffffffffffffffffffffffff161461092b576040517f08c379a00000000000000000000000000000000000000000000000000000000081526004016108ab90610f49565b6002546040517ff242432a00000000000000000000000000000000000000000000000000000000815273ffffffffffffffffffffffffffffffffffffffff90911690819063f242432a9061098b90309089908b908a908a90600401610e83565b600060405180830381600087803b1580156109a557600080fd5b505af11580156109b9573d6000803e3d6000fd5b5050505050610a4e565b6009851015610a1c576003547ffffffffffffffffffffffffffffffffffffffffffffffffffffffffffffffffa860190610a169073ffffffffffffffffffffffffffffffffffffffff1686838787610abf565b50610a4e565b6040517f08c379a00000000000000000000000000000000000000000000000000000000081526004016108ab90610fdd565b5050505050565b600033301415610aba5760606000368080601f01602080910402602001604051908101604052809392919081815260200183838082843760009201919091525050505036015173ffffffffffffffffffffffffffffffffffffffff16915061042f9050565b503390565b6040517f4f558e79000000000000000000000000000000000000000000000000000000008152859073ffffffffffffffffffffffffffffffffffffffff821690634f558e7990610b13908790600401611014565b60206040518083038186803b158015610b2b57600080fd5b505afa158015610b3f573d6000803e3d6000fd5b505050506040513d601f19601f82011682018060405250810190610b639190610da0565b610c17576040517fc13dc29100000000000000000000000000000000000000000000000000000000815273ffffffffffffffffffffffffffffffffffffffff82169063c13dc29190610bbf908890889088908890600401610ef9565b602060405180830381600087803b158015610bd957600080fd5b505af1158015610bed573d6000803e3d6000fd5b505050506040513d601f19601f82011682018060405250810190610c119190610dc0565b50610ca2565b6040517f731133e900000000000000000000000000000000000000000000000000000000815273ffffffffffffffffffffffffffffffffffffffff82169063731133e990610c6f908890889088908890600401610ef9565b600060405180830381600087803b158015610c8957600080fd5b505af1158015610c9d573d6000803e3d6000fd5b505050505b505050505050565b803573ffffffffffffffffffffffffffffffffffffffff8116811461074657600080fd5b600060208284031215610cdf578081fd5b61042082610caa565b60008060408385031215610cfa578081fd5b610d0383610caa565b946020939093013593505050565b600080600080600060808688031215610d28578081fd5b610d3186610caa565b94506020860135935060408601359250606086013567ffffffffffffffff80821115610d5b578283fd5b818801915088601f830112610d6e578283fd5b813581811115610d7c578384fd5b896020828501011115610d8d578384fd5b9699959850939650602001949392505050565b600060208284031215610db1578081fd5b81518015158114610420578182fd5b600060208284031215610dd1578081fd5b5051919050565b60008060408385031215610dea578182fd5b50508035926020909101359150565b60008151808452815b81811015610e1e57602081850181015186830182015201610e02565b81811115610e2f5782602083870101525b50601f017fffffffffffffffffffffffffffffffffffffffffffffffffffffffffffffffe0169290920160200192915050565b73ffffffffffffffffffffffffffffffffffffffff91909116815260200190565b600073ffffffffffffffffffffffffffffffffffffffff808816835280871660208401525084604083015283606083015260a06080830152610ec860a0830184610df9565b979650505050505050565b73ffffffffffffffffffffffffffffffffffffffff929092168252602082015260400190565b600073ffffffffffffffffffffffffffffffffffffffff8616825284602083015283604083015260806060830152610f346080830184610df9565b9695505050505050565b901515815260200190565b6020808252601e908201527f43616c6c65722063616e6e6f74206d696e74206163636573736f726965730000604082015260600190565b60208082526030908201527f43726561747572654163636573736f7279466163746f7279235f6d696e743a2060408201527f43414e4e4f545f4d494e545f4d4f524500000000000000000000000000000000606082015260800190565b6020808252600f908201527f556e6b6e6f776e205f6f7074696f6e0000000000000000000000000000000000604082015260600190565b9081526020019056fe5469657265644f776e61626c652361737369676e4f776e6572736869703a20494e56414c49445f414444524553535469657265644f776e61626c65236f6e6c794f776e6572546965723a204f574e45525f544945525f49535f544f4f5f4c4f575469657265644f776e61626c652361737369676e4f776e6572736869703a205550444154494e475f53454c465f54494552a2646970667358221220563bb5f127eb3aeea9c1f47118715b8c8ad543ffea6c6b9a2db3f9b2a3c51c8b64736f6c634300070400335469657265644f776e61626c6523636f6e7374727563746f723a20494e56414c49445f46495253545f4f574e4552",
  "linkReferences": {},
  "deployedLinkReferences": {}
}