{
  "_format": "hh-sol-artifact-1",
  "contractName": "CanaItem",
  "sourceName": "contracts/nft/CanaItem.sol",
  "abi": [
    {
      "inputs": [],
      "stateMutability": "nonpayable",
      "type": "constructor"
    },
    {
      "anonymous": false,
      "inputs": [
        {
          "indexed": true,
          "internalType": "address",
          "name": "account",
          "type": "address"
        },
        {
          "indexed": true,
          "internalType": "address",
          "name": "operator",
          "type": "address"
        },
        {
          "indexed": false,
          "internalType": "bool",
          "name": "approved",
          "type": "bool"
        }
      ],
      "name": "ApprovalForAll",
      "type": "event"
    },
    {
      "anonymous": false,
      "inputs": [
        {
          "indexed": true,
          "internalType": "address",
          "name": "previousOwner",
          "type": "address"
        },
        {
          "indexed": true,
          "internalType": "address",
          "name": "newOwner",
          "type": "address"
        }
      ],
      "name": "OwnershipTransferred",
      "type": "event"
    },
    {
      "anonymous": false,
      "inputs": [
        {
          "indexed": false,
          "internalType": "address",
          "name": "account",
          "type": "address"
        }
      ],
      "name": "Paused",
      "type": "event"
    },
    {
      "anonymous": false,
      "inputs": [
        {
          "indexed": true,
          "internalType": "address",
          "name": "operator",
          "type": "address"
        },
        {
          "indexed": true,
          "internalType": "address",
          "name": "from",
          "type": "address"
        },
        {
          "indexed": true,
          "internalType": "address",
          "name": "to",
          "type": "address"
        },
        {
          "indexed": false,
          "internalType": "uint256[]",
          "name": "ids",
          "type": "uint256[]"
        },
        {
          "indexed": false,
          "internalType": "uint256[]",
          "name": "values",
          "type": "uint256[]"
        }
      ],
      "name": "TransferBatch",
      "type": "event"
    },
    {
      "anonymous": false,
      "inputs": [
        {
          "indexed": true,
          "internalType": "address",
          "name": "operator",
          "type": "address"
        },
        {
          "indexed": true,
          "internalType": "address",
          "name": "from",
          "type": "address"
        },
        {
          "indexed": true,
          "internalType": "address",
          "name": "to",
          "type": "address"
        },
        {
          "indexed": false,
          "internalType": "uint256",
          "name": "id",
          "type": "uint256"
        },
        {
          "indexed": false,
          "internalType": "uint256",
          "name": "value",
          "type": "uint256"
        }
      ],
      "name": "TransferSingle",
      "type": "event"
    },
    {
      "anonymous": false,
      "inputs": [
        {
          "indexed": false,
          "internalType": "string",
          "name": "value",
          "type": "string"
        },
        {
          "indexed": true,
          "internalType": "uint256",
          "name": "id",
          "type": "uint256"
        }
      ],
      "name": "URI",
      "type": "event"
    },
    {
      "anonymous": false,
      "inputs": [
        {
          "indexed": false,
          "internalType": "address",
          "name": "account",
          "type": "address"
        }
      ],
      "name": "Unpaused",
      "type": "event"
    },
    {
      "inputs": [
        {
          "internalType": "address",
          "name": "proxy",
          "type": "address"
        }
      ],
      "name": "addApprovalWhitelist",
      "outputs": [],
      "stateMutability": "nonpayable",
      "type": "function"
    },
    {
      "inputs": [
        {
          "internalType": "address",
          "name": "",
          "type": "address"
        }
      ],
      "name": "approvalWhitelists",
      "outputs": [
        {
          "internalType": "bool",
          "name": "",
          "type": "bool"
        }
      ],
      "stateMutability": "view",
      "type": "function"
    },
    {
      "inputs": [
        {
          "internalType": "address",
          "name": "account",
          "type": "address"
        },
        {
          "internalType": "uint256",
          "name": "id",
          "type": "uint256"
        }
      ],
      "name": "balanceOf",
      "outputs": [
        {
          "internalType": "uint256",
          "name": "",
          "type": "uint256"
        }
      ],
      "stateMutability": "view",
      "type": "function"
    },
    {
      "inputs": [
        {
          "internalType": "address[]",
          "name": "accounts",
          "type": "address[]"
        },
        {
          "internalType": "uint256[]",
          "name": "ids",
          "type": "uint256[]"
        }
      ],
      "name": "balanceOfBatch",
      "outputs": [
        {
          "internalType": "uint256[]",
          "name": "",
          "type": "uint256[]"
        }
      ],
      "stateMutability": "view",
      "type": "function"
    },
    {
      "inputs": [
        {
          "internalType": "uint256",
          "name": "_id",
          "type": "uint256"
        },
        {
          "internalType": "uint256",
          "name": "_amount",
          "type": "uint256"
        }
      ],
      "name": "burn",
      "outputs": [],
      "stateMutability": "nonpayable",
      "type": "function"
    },
    {
      "inputs": [
        {
          "internalType": "address",
          "name": "account",
          "type": "address"
        },
        {
          "internalType": "uint256",
          "name": "id",
          "type": "uint256"
        },
        {
          "internalType": "uint256",
          "name": "value",
          "type": "uint256"
        }
      ],
      "name": "burn",
      "outputs": [],
      "stateMutability": "nonpayable",
      "type": "function"
    },
    {
      "inputs": [
        {
          "internalType": "address",
          "name": "account",
          "type": "address"
        },
        {
          "internalType": "uint256[]",
          "name": "ids",
          "type": "uint256[]"
        },
        {
          "internalType": "uint256[]",
          "name": "values",
          "type": "uint256[]"
        }
      ],
      "name": "burnBatch",
      "outputs": [],
      "stateMutability": "nonpayable",
      "type": "function"
    },
    {
      "inputs": [
        {
          "internalType": "uint256[]",
          "name": "_ids",
          "type": "uint256[]"
        },
        {
          "internalType": "uint256[]",
          "name": "_amounts",
          "type": "uint256[]"
        }
      ],
      "name": "burnBatch",
      "outputs": [],
      "stateMutability": "nonpayable",
      "type": "function"
    },
    {
      "inputs": [
        {
          "internalType": "address",
          "name": "_initialOwner",
          "type": "address"
        },
        {
          "internalType": "uint256",
          "name": "_id",
          "type": "uint256"
        },
        {
          "internalType": "uint256",
          "name": "_initialSupply",
          "type": "uint256"
        },
        {
          "internalType": "bytes",
          "name": "_data",
          "type": "bytes"
        }
      ],
      "name": "create",
      "outputs": [
        {
          "internalType": "uint256",
          "name": "",
          "type": "uint256"
        }
      ],
      "stateMutability": "nonpayable",
      "type": "function"
    },
    {
      "inputs": [
        {
          "internalType": "uint256",
          "name": "id",
          "type": "uint256"
        }
      ],
      "name": "exists",
      "outputs": [
        {
          "internalType": "bool",
          "name": "",
          "type": "bool"
        }
      ],
      "stateMutability": "view",
      "type": "function"
    },
    {
      "inputs": [
        {
          "internalType": "address",
          "name": "_owner",
          "type": "address"
        },
        {
          "internalType": "address",
          "name": "_operator",
          "type": "address"
        }
      ],
      "name": "isApprovedForAll",
      "outputs": [
        {
          "internalType": "bool",
          "name": "isOperator",
          "type": "bool"
        }
      ],
      "stateMutability": "view",
      "type": "function"
    },
    {
      "inputs": [
        {
          "internalType": "uint256",
          "name": "tokenId",
          "type": "uint256"
        }
      ],
      "name": "isLocked",
      "outputs": [
        {
          "internalType": "bool",
          "name": "",
          "type": "bool"
        }
      ],
      "stateMutability": "view",
      "type": "function"
    },
    {
      "inputs": [
        {
          "internalType": "uint256",
          "name": "tokenId",
          "type": "uint256"
        }
      ],
      "name": "lock",
      "outputs": [],
      "stateMutability": "nonpayable",
      "type": "function"
    },
    {
      "inputs": [
        {
          "internalType": "uint256",
          "name": "",
          "type": "uint256"
        }
      ],
      "name": "lockedTokens",
      "outputs": [
        {
          "internalType": "bool",
          "name": "",
          "type": "bool"
        }
      ],
      "stateMutability": "view",
      "type": "function"
    },
    {
      "inputs": [
        {
          "internalType": "address",
          "name": "account",
          "type": "address"
        },
        {
          "internalType": "uint256",
          "name": "id",
          "type": "uint256"
        },
        {
          "internalType": "uint256",
          "name": "amount",
          "type": "uint256"
        },
        {
          "internalType": "bytes",
          "name": "data",
          "type": "bytes"
        }
      ],
      "name": "mint",
      "outputs": [],
      "stateMutability": "nonpayable",
      "type": "function"
    },
    {
      "inputs": [
        {
          "internalType": "address",
          "name": "to",
          "type": "address"
        },
        {
          "internalType": "uint256[]",
          "name": "ids",
          "type": "uint256[]"
        },
        {
          "internalType": "uint256[]",
          "name": "amounts",
          "type": "uint256[]"
        },
        {
          "internalType": "bytes",
          "name": "data",
          "type": "bytes"
        }
      ],
      "name": "mintBatch",
      "outputs": [],
      "stateMutability": "nonpayable",
      "type": "function"
    },
    {
      "inputs": [
        {
          "internalType": "bytes[]",
          "name": "data",
          "type": "bytes[]"
        }
      ],
      "name": "multicall",
      "outputs": [
        {
          "internalType": "bytes[]",
          "name": "results",
          "type": "bytes[]"
        }
      ],
      "stateMutability": "nonpayable",
      "type": "function"
    },
    {
      "inputs": [],
      "name": "owner",
      "outputs": [
        {
          "internalType": "address",
          "name": "",
          "type": "address"
        }
      ],
      "stateMutability": "view",
      "type": "function"
    },
    {
      "inputs": [],
      "name": "pause",
      "outputs": [],
      "stateMutability": "nonpayable",
      "type": "function"
    },
    {
      "inputs": [],
      "name": "paused",
      "outputs": [
        {
          "internalType": "bool",
          "name": "",
          "type": "bool"
        }
      ],
      "stateMutability": "view",
      "type": "function"
    },
    {
      "inputs": [
        {
          "internalType": "address",
          "name": "proxy",
          "type": "address"
        }
      ],
      "name": "removeApprovalWhitelist",
      "outputs": [],
      "stateMutability": "nonpayable",
      "type": "function"
    },
    {
      "inputs": [],
      "name": "renounceOwnership",
      "outputs": [],
      "stateMutability": "nonpayable",
      "type": "function"
    },
    {
      "inputs": [
        {
          "internalType": "address",
          "name": "from",
          "type": "address"
        },
        {
          "internalType": "address",
          "name": "to",
          "type": "address"
        },
        {
          "internalType": "uint256[]",
          "name": "ids",
          "type": "uint256[]"
        },
        {
          "internalType": "uint256[]",
          "name": "amounts",
          "type": "uint256[]"
        },
        {
          "internalType": "bytes",
          "name": "data",
          "type": "bytes"
        }
      ],
      "name": "safeBatchTransferFrom",
      "outputs": [],
      "stateMutability": "nonpayable",
      "type": "function"
    },
    {
      "inputs": [
        {
          "internalType": "address",
          "name": "from",
          "type": "address"
        },
        {
          "internalType": "address",
          "name": "to",
          "type": "address"
        },
        {
          "internalType": "uint256",
          "name": "id",
          "type": "uint256"
        },
        {
          "internalType": "uint256",
          "name": "amount",
          "type": "uint256"
        },
        {
          "internalType": "bytes",
          "name": "data",
          "type": "bytes"
        }
      ],
      "name": "safeTransferFrom",
      "outputs": [],
      "stateMutability": "nonpayable",
      "type": "function"
    },
    {
      "inputs": [
        {
          "internalType": "address",
          "name": "operator",
          "type": "address"
        },
        {
          "internalType": "bool",
          "name": "approved",
          "type": "bool"
        }
      ],
      "name": "setApprovalForAll",
      "outputs": [],
      "stateMutability": "nonpayable",
      "type": "function"
    },
    {
      "inputs": [
        {
          "internalType": "string",
          "name": "newuri",
          "type": "string"
        }
      ],
      "name": "setURI",
      "outputs": [],
      "stateMutability": "nonpayable",
      "type": "function"
    },
    {
      "inputs": [
        {
          "internalType": "bytes4",
          "name": "_interfaceID",
          "type": "bytes4"
        }
      ],
      "name": "supportsInterface",
      "outputs": [
        {
          "internalType": "bool",
          "name": "",
          "type": "bool"
        }
      ],
      "stateMutability": "view",
      "type": "function"
    },
    {
      "inputs": [
        {
          "internalType": "uint256",
          "name": "id",
          "type": "uint256"
        }
      ],
      "name": "totalSupply",
      "outputs": [
        {
          "internalType": "uint256",
          "name": "",
          "type": "uint256"
        }
      ],
      "stateMutability": "view",
      "type": "function"
    },
    {
      "inputs": [
        {
          "internalType": "address",
          "name": "newOwner",
          "type": "address"
        }
      ],
      "name": "transferOwnership",
      "outputs": [],
      "stateMutability": "nonpayable",
      "type": "function"
    },
    {
      "inputs": [
        {
          "internalType": "uint256",
          "name": "tokenId",
          "type": "uint256"
        }
      ],
      "name": "unlock",
      "outputs": [],
      "stateMutability": "nonpayable",
      "type": "function"
    },
    {
      "inputs": [],
      "name": "unpause",
      "outputs": [],
      "stateMutability": "nonpayable",
      "type": "function"
    },
    {
      "inputs": [
        {
          "internalType": "uint256",
          "name": "",
          "type": "uint256"
        }
      ],
      "name": "uri",
      "outputs": [
        {
          "internalType": "string",
          "name": "",
          "type": "string"
        }
      ],
      "stateMutability": "view",
      "type": "function"
    }
  ],
  "bytecode": "0x60806040523480156200001157600080fd5b5060408051808201909152601d81527f68747470733a2f2f61737365742e6d65746163616e612e696f2f617069000000602082015262000051816200008b565b506200005d33620000a4565b600380547fffffffffffffffffffffff00ffffffffffffffffffffffffffffffffffffffff169055620001fe565b8051620000a09060029060208401906200011b565b5050565b6003805473ffffffffffffffffffffffffffffffffffffffff8381167fffffffffffffffffffffffff0000000000000000000000000000000000000000831681179093556040519116919082907f8be0079c531659141344cd1fd0a4f28419497f9722a3daafe3b4186f6b6457e090600090a35050565b8280546200012990620001c1565b90600052602060002090601f0160209004810192826200014d576000855562000198565b82601f106200016857805160ff191683800117855562000198565b8280016001018555821562000198579182015b82811115620001985782518255916020019190600101906200017b565b50620001a6929150620001aa565b5090565b5b80821115620001a65760008155600101620001ab565b600181811c90821680620001d657607f821691505b60208210811415620001f857634e487b7160e01b600052602260045260246000fd5b50919050565b614665806200020e6000396000f3fe608060405234801561001057600080fd5b50600436106101ef5760003560e01c806383ca4b6f1161010f578063c13dc291116100a2578063f242432a11610071578063f242432a14610479578063f2fde38b1461048c578063f5298aca1461049f578063f6aacfb1146104b2576101ef565b8063c13dc2911461041d578063dcec329414610430578063dd46706414610453578063e985e9c514610466576101ef565b8063ac9650d8116100de578063ac9650d8146103b7578063b390c0ab146103d7578063b78437ea146103ea578063bd85b039146103fd576101ef565b806383ca4b6f146103615780638456cb59146103745780638da5cb5b1461037c578063a22cb465146103a4576101ef565b8063419e583d116101875780636198e339116101565780636198e339146103205780636b20c45414610333578063715018a614610346578063731133e91461034e576101ef565b8063419e583d146102b35780634e1273f4146102d65780634f558e79146102f65780635c975abb14610318576101ef565b80630e89341c116101c35780630e89341c146102655780631f7fdffa146102855780632eb2c2d6146102985780633f4ba83a146102ab576101ef565b8062fdd58e146101f457806301ffc9a71461021a57806302fe53051461023d5780630a75eea214610252575b600080fd5b610207610202366004613d58565b6104d5565b6040519081526020015b60405180910390f35b61022d610228366004613f7a565b6105b5565b6040519015158152602001610211565b61025061024b366004613fb2565b6105c8565b005b610250610260366004613ac3565b610655565b610278610273366004613ff8565b610722565b6040516102119190614291565b610250610293366004613c89565b6107b6565b6102506102a6366004613b0f565b610849565b610250610912565b61022d6102c1366004613ac3565b60056020526000908152604090205460ff1681565b6102e96102e4366004613e06565b61099d565b6040516102119190614250565b61022d610304366004613ff8565b600090815260046020526040902054151590565b61022d610b91565b61025061032e366004613ff8565b610bb3565b610250610341366004613c18565b610d4f565b610250610e14565b61025061035c366004613db3565b610e9f565b61025061036f366004613f11565b610f2c565b610250610f9a565b60035460405173ffffffffffffffffffffffffffffffffffffffff9091168152602001610211565b6102506103b2366004613d1e565b611023565b6103ca6103c5366004613ed1565b611032565b60405161021191906141d1565b6102506103e5366004614010565b61119c565b6102506103f8366004613ac3565b6111a7565b61020761040b366004613ff8565b60009081526004602052604090205490565b61020761042b366004613db3565b611307565b61022d61043e366004613ff8565b60066020526000908152604090205460ff1681565b610250610461366004613ff8565b6114e6565b61022d610474366004613add565b611686565b610250610487366004613bb5565b6116ff565b61025061049a366004613ac3565b6117c1565b6102506104ad366004613d81565b6118ee565b61022d6104c0366004613ff8565b60009081526006602052604090205460ff1690565b600073ffffffffffffffffffffffffffffffffffffffff831661057f576040517f08c379a000000000000000000000000000000000000000000000000000000000815260206004820152602b60248201527f455243313135353a2062616c616e636520717565727920666f7220746865207a60448201527f65726f206164647265737300000000000000000000000000000000000000000060648201526084015b60405180910390fd5b5060008181526020818152604080832073ffffffffffffffffffffffffffffffffffffffff861684529091529020545b92915050565b60006105c0826119ae565b90505b919050565b60035473ffffffffffffffffffffffffffffffffffffffff163314610649576040517f08c379a000000000000000000000000000000000000000000000000000000000815260206004820181905260248201527f4f776e61626c653a2063616c6c6572206973206e6f7420746865206f776e65726044820152606401610576565b61065281611a91565b50565b60035473ffffffffffffffffffffffffffffffffffffffff1633146106d6576040517f08c379a000000000000000000000000000000000000000000000000000000000815260206004820181905260248201527f4f776e61626c653a2063616c6c6572206973206e6f7420746865206f776e65726044820152606401610576565b73ffffffffffffffffffffffffffffffffffffffff16600090815260056020526040902080547fffffffffffffffffffffffffffffffffffffffffffffffffffffffffffffff00169055565b6060600280546107319061439a565b80601f016020809104026020016040519081016040528092919081815260200182805461075d9061439a565b80156107aa5780601f1061077f576101008083540402835291602001916107aa565b820191906000526020600020905b81548152906001019060200180831161078d57829003601f168201915b50505050509050919050565b60035473ffffffffffffffffffffffffffffffffffffffff163314610837576040517f08c379a000000000000000000000000000000000000000000000000000000000815260206004820181905260248201527f4f776e61626c653a2063616c6c6572206973206e6f7420746865206f776e65726044820152606401610576565b61084384848484611aa4565b50505050565b73ffffffffffffffffffffffffffffffffffffffff851633148061087257506108728533610474565b6108fe576040517f08c379a000000000000000000000000000000000000000000000000000000000815260206004820152603260248201527f455243313135353a207472616e736665722063616c6c6572206973206e6f742060448201527f6f776e6572206e6f7220617070726f76656400000000000000000000000000006064820152608401610576565b61090b8585858585611d7a565b5050505050565b60035473ffffffffffffffffffffffffffffffffffffffff163314610993576040517f08c379a000000000000000000000000000000000000000000000000000000000815260206004820181905260248201527f4f776e61626c653a2063616c6c6572206973206e6f7420746865206f776e65726044820152606401610576565b61099b612110565b565b60608151835114610a30576040517f08c379a000000000000000000000000000000000000000000000000000000000815260206004820152602960248201527f455243313135353a206163636f756e747320616e6420696473206c656e67746860448201527f206d69736d6174636800000000000000000000000000000000000000000000006064820152608401610576565b6000835167ffffffffffffffff811115610a73577f4e487b7100000000000000000000000000000000000000000000000000000000600052604160045260246000fd5b604051908082528060200260200182016040528015610a9c578160200160208202803683370190505b50905060005b8451811015610b8957610b35858281518110610ae7577f4e487b7100000000000000000000000000000000000000000000000000000000600052603260045260246000fd5b6020026020010151858381518110610b28577f4e487b7100000000000000000000000000000000000000000000000000000000600052603260045260246000fd5b60200260200101516104d5565b828281518110610b6e577f4e487b7100000000000000000000000000000000000000000000000000000000600052603260045260246000fd5b6020908102919091010152610b8281614439565b9050610aa2565b509392505050565b60035474010000000000000000000000000000000000000000900460ff165b90565b3360009081526005602052604090205460ff16610c2c576040517f08c379a000000000000000000000000000000000000000000000000000000000815260206004820181905260248201527f4d7573742062652076616c696420617070726f76616c2077686974656c6973746044820152606401610576565b600081815260046020526040902054610ca1576040517f08c379a000000000000000000000000000000000000000000000000000000000815260206004820152601560248201527f4d7573742062652076616c696420746f6b656e496400000000000000000000006044820152606401610576565b60008181526006602052604090205460ff16610d19576040517f08c379a000000000000000000000000000000000000000000000000000000000815260206004820152601a60248201527f546f6b656e2068617320616c726561647920756e6c6f636b65640000000000006044820152606401610576565b600090815260066020526040902080547fffffffffffffffffffffffffffffffffffffffffffffffffffffffffffffff00169055565b73ffffffffffffffffffffffffffffffffffffffff8316331480610d785750610d788333610474565b610e04576040517f08c379a000000000000000000000000000000000000000000000000000000000815260206004820152602960248201527f455243313135353a2063616c6c6572206973206e6f74206f776e6572206e6f7260448201527f20617070726f76656400000000000000000000000000000000000000000000006064820152608401610576565b610e0f8383836121f3565b505050565b60035473ffffffffffffffffffffffffffffffffffffffff163314610e95576040517f08c379a000000000000000000000000000000000000000000000000000000000815260206004820181905260248201527f4f776e61626c653a2063616c6c6572206973206e6f7420746865206f776e65726044820152606401610576565b61099b600061256c565b60035473ffffffffffffffffffffffffffffffffffffffff163314610f20576040517f08c379a000000000000000000000000000000000000000000000000000000000815260206004820181905260248201527f4f776e61626c653a2063616c6c6572206973206e6f7420746865206f776e65726044820152606401610576565b610843848484846125e3565b61084333858580806020026020016040519081016040528093929190818152602001838360200280828437600092019190915250506040805160208089028281018201909352888252909350889250879182918501908490808284376000920191909152506121f392505050565b60035473ffffffffffffffffffffffffffffffffffffffff16331461101b576040517f08c379a000000000000000000000000000000000000000000000000000000000815260206004820181905260248201527f4f776e61626c653a2063616c6c6572206973206e6f7420746865206f776e65726044820152606401610576565b61099b612750565b61102e338383612826565b5050565b60608167ffffffffffffffff811115611074577f4e487b7100000000000000000000000000000000000000000000000000000000600052604160045260246000fd5b6040519080825280602002602001820160405280156110a757816020015b60608152602001906001900390816110925790505b50905060005b828110156111955761113e308585848181106110f2577f4e487b7100000000000000000000000000000000000000000000000000000000600052603260045260246000fd5b905060200281019061110491906142a4565b8080601f01602080910402602001604051908101604052809392919081815260200183838082843760009201919091525061297a92505050565b828281518110611177577f4e487b7100000000000000000000000000000000000000000000000000000000600052603260045260246000fd5b6020026020010181905250808061118d90614439565b9150506110ad565b5092915050565b61102e33838361299f565b60035473ffffffffffffffffffffffffffffffffffffffff163314611228576040517f08c379a000000000000000000000000000000000000000000000000000000000815260206004820181905260248201527f4f776e61626c653a2063616c6c6572206973206e6f7420746865206f776e65726044820152606401610576565b73ffffffffffffffffffffffffffffffffffffffff811660009081526005602052604090205460ff16156112b8576040517f08c379a000000000000000000000000000000000000000000000000000000000815260206004820152601560248201527f496e76616c69642070726f7879206164647265737300000000000000000000006044820152606401610576565b73ffffffffffffffffffffffffffffffffffffffff16600090815260056020526040902080547fffffffffffffffffffffffffffffffffffffffffffffffffffffffffffffff00166001179055565b60035460009073ffffffffffffffffffffffffffffffffffffffff16331461138b576040517f08c379a000000000000000000000000000000000000000000000000000000000815260206004820181905260248201527f4f776e61626c653a2063616c6c6572206973206e6f7420746865206f776e65726044820152606401610576565b600084815260046020526040902054156113a485612ba6565b6040516020016113b491906140d1565b604051602081830303815290604052906113fb576040517f08c379a00000000000000000000000000000000000000000000000000000000081526004016105769190614291565b50604080516001808252818301909252600091602080830190803683375050604080516001808252818301909252929350600092915060208083019080368337019050509050858260008151811061147c577f4e487b7100000000000000000000000000000000000000000000000000000000600052603260045260246000fd5b60200260200101818152505084816000815181106114c3577f4e487b7100000000000000000000000000000000000000000000000000000000600052603260045260246000fd5b6020026020010181815250506114db878787876125e3565b509395945050505050565b3360009081526005602052604090205460ff1661155f576040517f08c379a000000000000000000000000000000000000000000000000000000000815260206004820181905260248201527f4d7573742062652076616c696420617070726f76616c2077686974656c6973746044820152606401610576565b6000818152600460205260409020546115d4576040517f08c379a000000000000000000000000000000000000000000000000000000000815260206004820152601560248201527f4d7573742062652076616c696420746f6b656e496400000000000000000000006044820152606401610576565b60008181526006602052604090205460ff161561164d576040517f08c379a000000000000000000000000000000000000000000000000000000000815260206004820152601860248201527f546f6b656e2068617320616c7265616479206c6f636b656400000000000000006044820152606401610576565b600090815260066020526040902080547fffffffffffffffffffffffffffffffffffffffffffffffffffffffffffffff00166001179055565b73ffffffffffffffffffffffffffffffffffffffff811660009081526005602052604081205460ff161515600114156116c1575060016105af565b73ffffffffffffffffffffffffffffffffffffffff80841660009081526001602090815260408083209386168352929052205460ff165b9392505050565b73ffffffffffffffffffffffffffffffffffffffff851633148061172857506117288533610474565b6117b4576040517f08c379a000000000000000000000000000000000000000000000000000000000815260206004820152602960248201527f455243313135353a2063616c6c6572206973206e6f74206f776e6572206e6f7260448201527f20617070726f76656400000000000000000000000000000000000000000000006064820152608401610576565b61090b8585858585612d2f565b60035473ffffffffffffffffffffffffffffffffffffffff163314611842576040517f08c379a000000000000000000000000000000000000000000000000000000000815260206004820181905260248201527f4f776e61626c653a2063616c6c6572206973206e6f7420746865206f776e65726044820152606401610576565b73ffffffffffffffffffffffffffffffffffffffff81166118e5576040517f08c379a000000000000000000000000000000000000000000000000000000000815260206004820152602660248201527f4f776e61626c653a206e6577206f776e657220697320746865207a65726f206160448201527f64647265737300000000000000000000000000000000000000000000000000006064820152608401610576565b6106528161256c565b73ffffffffffffffffffffffffffffffffffffffff831633148061191757506119178333610474565b6119a3576040517f08c379a000000000000000000000000000000000000000000000000000000000815260206004820152602960248201527f455243313135353a2063616c6c6572206973206e6f74206f776e6572206e6f7260448201527f20617070726f76656400000000000000000000000000000000000000000000006064820152608401610576565b610e0f83838361299f565b60007fffffffff0000000000000000000000000000000000000000000000000000000082167fd9b67a26000000000000000000000000000000000000000000000000000000001480611a4157507fffffffff0000000000000000000000000000000000000000000000000000000082167f0e89341c00000000000000000000000000000000000000000000000000000000145b806105c057507f01ffc9a7000000000000000000000000000000000000000000000000000000007fffffffff000000000000000000000000000000000000000000000000000000008316146105c0565b805161102e9060029060208401906138ad565b73ffffffffffffffffffffffffffffffffffffffff8416611b47576040517f08c379a000000000000000000000000000000000000000000000000000000000815260206004820152602160248201527f455243313135353a206d696e7420746f20746865207a65726f2061646472657360448201527f73000000000000000000000000000000000000000000000000000000000000006064820152608401610576565b8151835114611bd8576040517f08c379a000000000000000000000000000000000000000000000000000000000815260206004820152602860248201527f455243313135353a2069647320616e6420616d6f756e7473206c656e6774682060448201527f6d69736d617463680000000000000000000000000000000000000000000000006064820152608401610576565b33611be881600087878787612f60565b60005b8451811015611ceb57838181518110611c2d577f4e487b7100000000000000000000000000000000000000000000000000000000600052603260045260246000fd5b6020026020010151600080878481518110611c71577f4e487b7100000000000000000000000000000000000000000000000000000000600052603260045260246000fd5b6020026020010151815260200190815260200160002060008873ffffffffffffffffffffffffffffffffffffffff1673ffffffffffffffffffffffffffffffffffffffff1681526020019081526020016000206000828254611cd3919061432b565b90915550819050611ce381614439565b915050611beb565b508473ffffffffffffffffffffffffffffffffffffffff16600073ffffffffffffffffffffffffffffffffffffffff168273ffffffffffffffffffffffffffffffffffffffff167f4a39dc06d4c0dbc64b70af90fd698a233a518aa5d07e595d983b8c0526c8f7fb8787604051611d63929190614263565b60405180910390a461090b816000878787876130be565b8151835114611e0b576040517f08c379a000000000000000000000000000000000000000000000000000000000815260206004820152602860248201527f455243313135353a2069647320616e6420616d6f756e7473206c656e6774682060448201527f6d69736d617463680000000000000000000000000000000000000000000000006064820152608401610576565b73ffffffffffffffffffffffffffffffffffffffff8416611eae576040517f08c379a000000000000000000000000000000000000000000000000000000000815260206004820152602560248201527f455243313135353a207472616e7366657220746f20746865207a65726f20616460448201527f64726573730000000000000000000000000000000000000000000000000000006064820152608401610576565b33611ebd818787878787612f60565b60005b845181101561207b576000858281518110611f04577f4e487b7100000000000000000000000000000000000000000000000000000000600052603260045260246000fd5b602002602001015190506000858381518110611f49577f4e487b7100000000000000000000000000000000000000000000000000000000600052603260045260246000fd5b6020908102919091018101516000848152808352604080822073ffffffffffffffffffffffffffffffffffffffff8e168352909352919091205490915081811015612016576040517f08c379a000000000000000000000000000000000000000000000000000000000815260206004820152602a60248201527f455243313135353a20696e73756666696369656e742062616c616e636520666f60448201527f72207472616e73666572000000000000000000000000000000000000000000006064820152608401610576565b60008381526020818152604080832073ffffffffffffffffffffffffffffffffffffffff8e8116855292528083208585039055908b1682528120805484929061206090849061432b565b925050819055505050508061207490614439565b9050611ec0565b508473ffffffffffffffffffffffffffffffffffffffff168673ffffffffffffffffffffffffffffffffffffffff168273ffffffffffffffffffffffffffffffffffffffff167f4a39dc06d4c0dbc64b70af90fd698a233a518aa5d07e595d983b8c0526c8f7fb87876040516120f2929190614263565b60405180910390a46121088187878787876130be565b505050505050565b612118610b91565b61217e576040517f08c379a000000000000000000000000000000000000000000000000000000000815260206004820152601460248201527f5061757361626c653a206e6f74207061757365640000000000000000000000006044820152606401610576565b600380547fffffffffffffffffffffff00ffffffffffffffffffffffffffffffffffffffff1690557f5db9ee0a495bf2e6ff9c91a7834c1ba4fdd244a5e8aa4e537bd38aeae4b073aa335b60405173ffffffffffffffffffffffffffffffffffffffff909116815260200160405180910390a1565b73ffffffffffffffffffffffffffffffffffffffff8316612296576040517f08c379a000000000000000000000000000000000000000000000000000000000815260206004820152602360248201527f455243313135353a206275726e2066726f6d20746865207a65726f206164647260448201527f65737300000000000000000000000000000000000000000000000000000000006064820152608401610576565b8051825114612327576040517f08c379a000000000000000000000000000000000000000000000000000000000815260206004820152602860248201527f455243313135353a2069647320616e6420616d6f756e7473206c656e6774682060448201527f6d69736d617463680000000000000000000000000000000000000000000000006064820152608401610576565b600033905061234a81856000868660405180602001604052806000815250612f60565b60005b83518110156124e6576000848281518110612391577f4e487b7100000000000000000000000000000000000000000000000000000000600052603260045260246000fd5b6020026020010151905060008483815181106123d6577f4e487b7100000000000000000000000000000000000000000000000000000000600052603260045260246000fd5b6020908102919091018101516000848152808352604080822073ffffffffffffffffffffffffffffffffffffffff8c1683529093529190912054909150818110156124a2576040517f08c379a0000000000000000000000000000000000000000000000000000000008152602060048201526024808201527f455243313135353a206275726e20616d6f756e7420657863656564732062616c60448201527f616e6365000000000000000000000000000000000000000000000000000000006064820152608401610576565b60009283526020838152604080852073ffffffffffffffffffffffffffffffffffffffff8b16865290915290922091039055806124de81614439565b91505061234d565b50600073ffffffffffffffffffffffffffffffffffffffff168473ffffffffffffffffffffffffffffffffffffffff168273ffffffffffffffffffffffffffffffffffffffff167f4a39dc06d4c0dbc64b70af90fd698a233a518aa5d07e595d983b8c0526c8f7fb868660405161255e929190614263565b60405180910390a450505050565b6003805473ffffffffffffffffffffffffffffffffffffffff8381167fffffffffffffffffffffffff0000000000000000000000000000000000000000831681179093556040519116919082907f8be0079c531659141344cd1fd0a4f28419497f9722a3daafe3b4186f6b6457e090600090a35050565b73ffffffffffffffffffffffffffffffffffffffff8416612686576040517f08c379a000000000000000000000000000000000000000000000000000000000815260206004820152602160248201527f455243313135353a206d696e7420746f20746865207a65726f2061646472657360448201527f73000000000000000000000000000000000000000000000000000000000000006064820152608401610576565b336126a68160008761269788613358565b6126a088613358565b87612f60565b60008481526020818152604080832073ffffffffffffffffffffffffffffffffffffffff89168452909152812080548592906126e390849061432b565b9091555050604080518581526020810185905273ffffffffffffffffffffffffffffffffffffffff80881692600092918516917fc3d58168c5ae7397731d063d5bbf3d657854427343f4c083240f7aacaa2d0f62910160405180910390a461090b816000878787876133ca565b612758610b91565b156127bf576040517f08c379a000000000000000000000000000000000000000000000000000000000815260206004820152601060248201527f5061757361626c653a20706175736564000000000000000000000000000000006044820152606401610576565b600380547fffffffffffffffffffffff00ffffffffffffffffffffffffffffffffffffffff16740100000000000000000000000000000000000000001790557f62e78cea01bee320cd4e420270b5ea74000d11b0c9f74754ebdbfc544b05a2586121c93390565b8173ffffffffffffffffffffffffffffffffffffffff168373ffffffffffffffffffffffffffffffffffffffff1614156128e2576040517f08c379a000000000000000000000000000000000000000000000000000000000815260206004820152602960248201527f455243313135353a2073657474696e6720617070726f76616c2073746174757360448201527f20666f722073656c6600000000000000000000000000000000000000000000006064820152608401610576565b73ffffffffffffffffffffffffffffffffffffffff83811660008181526001602090815260408083209487168084529482529182902080547fffffffffffffffffffffffffffffffffffffffffffffffffffffffffffffff001686151590811790915591519182527f17307eab39ab6107e8899845ad3d59bd9653f200f220920489ca2b5937696c31910160405180910390a3505050565b60606116f8838360405180606001604052806027815260200161460960279139613586565b73ffffffffffffffffffffffffffffffffffffffff8316612a42576040517f08c379a000000000000000000000000000000000000000000000000000000000815260206004820152602360248201527f455243313135353a206275726e2066726f6d20746865207a65726f206164647260448201527f65737300000000000000000000000000000000000000000000000000000000006064820152608401610576565b33612a7181856000612a5387613358565b612a5c87613358565b60405180602001604052806000815250612f60565b60008381526020818152604080832073ffffffffffffffffffffffffffffffffffffffff8816845290915290205482811015612b2e576040517f08c379a0000000000000000000000000000000000000000000000000000000008152602060048201526024808201527f455243313135353a206275726e20616d6f756e7420657863656564732062616c60448201527f616e6365000000000000000000000000000000000000000000000000000000006064820152608401610576565b60008481526020818152604080832073ffffffffffffffffffffffffffffffffffffffff898116808652918452828520888703905582518981529384018890529092908616917fc3d58168c5ae7397731d063d5bbf3d657854427343f4c083240f7aacaa2d0f62910160405180910390a45050505050565b606081612be7575060408051808201909152600181527f300000000000000000000000000000000000000000000000000000000000000060208201526105c3565b8160005b8115612c115780612bfb81614439565b9150612c0a9050600a83614343565b9150612beb565b60008167ffffffffffffffff811115612c53577f4e487b7100000000000000000000000000000000000000000000000000000000600052604160045260246000fd5b6040519080825280601f01601f191660200182016040528015612c7d576020820181803683370190505b5090505b8415612d2757612c92600183614357565b9150612c9f600a86614472565b612caa90603061432b565b60f81b818381518110612ce6577f4e487b7100000000000000000000000000000000000000000000000000000000600052603260045260246000fd5b60200101907effffffffffffffffffffffffffffffffffffffffffffffffffffffffffffff1916908160001a905350612d20600a86614343565b9450612c81565b949350505050565b73ffffffffffffffffffffffffffffffffffffffff8416612dd2576040517f08c379a000000000000000000000000000000000000000000000000000000000815260206004820152602560248201527f455243313135353a207472616e7366657220746f20746865207a65726f20616460448201527f64726573730000000000000000000000000000000000000000000000000000006064820152608401610576565b33612de281878761269788613358565b60008481526020818152604080832073ffffffffffffffffffffffffffffffffffffffff8a16845290915290205483811015612ea0576040517f08c379a000000000000000000000000000000000000000000000000000000000815260206004820152602a60248201527f455243313135353a20696e73756666696369656e742062616c616e636520666f60448201527f72207472616e73666572000000000000000000000000000000000000000000006064820152608401610576565b60008581526020818152604080832073ffffffffffffffffffffffffffffffffffffffff8b8116855292528083208785039055908816825281208054869290612eea90849061432b565b9091555050604080518681526020810186905273ffffffffffffffffffffffffffffffffffffffff808916928a821692918616917fc3d58168c5ae7397731d063d5bbf3d657854427343f4c083240f7aacaa2d0f62910160405180910390a4612f578288888888886133ca565b50505050505050565b612f68610b91565b15612fcf576040517f08c379a000000000000000000000000000000000000000000000000000000000815260206004820152601060248201527f5061757361626c653a20706175736564000000000000000000000000000000006044820152606401610576565b60005b83518110156130af5760066000858381518110613018577f4e487b7100000000000000000000000000000000000000000000000000000000600052603260045260246000fd5b60209081029190910181015182528101919091526040016000205460ff161561309d576040517f08c379a000000000000000000000000000000000000000000000000000000000815260206004820152601d60248201527f43616e206e6f74207472616e73666572206c6f636b656420746f6b656e0000006044820152606401610576565b806130a781614439565b915050612fd2565b50612108868686868686613698565b73ffffffffffffffffffffffffffffffffffffffff84163b15612108576040517fbc197c8100000000000000000000000000000000000000000000000000000000815273ffffffffffffffffffffffffffffffffffffffff85169063bc197c81906131359089908990889088908890600401614116565b602060405180830381600087803b15801561314f57600080fd5b505af192505050801561319d575060408051601f3d9081017fffffffffffffffffffffffffffffffffffffffffffffffffffffffffffffffe016820190925261319a91810190613f96565b60015b613287576131a9614513565b806308c379a014156131fd57506131be61452a565b806131c957506131ff565b806040517f08c379a00000000000000000000000000000000000000000000000000000000081526004016105769190614291565b505b6040517f08c379a000000000000000000000000000000000000000000000000000000000815260206004820152603460248201527f455243313135353a207472616e7366657220746f206e6f6e204552433131353560448201527f526563656976657220696d706c656d656e7465720000000000000000000000006064820152608401610576565b7fffffffff0000000000000000000000000000000000000000000000000000000081167fbc197c810000000000000000000000000000000000000000000000000000000014612f57576040517f08c379a000000000000000000000000000000000000000000000000000000000815260206004820152602860248201527f455243313135353a204552433131353552656365697665722072656a6563746560448201527f6420746f6b656e730000000000000000000000000000000000000000000000006064820152608401610576565b604080516001808252818301909252606091600091906020808301908036833701905050905082816000815181106133b9577f4e487b7100000000000000000000000000000000000000000000000000000000600052603260045260246000fd5b602090810291909101015292915050565b73ffffffffffffffffffffffffffffffffffffffff84163b15612108576040517ff23a6e6100000000000000000000000000000000000000000000000000000000815273ffffffffffffffffffffffffffffffffffffffff85169063f23a6e61906134419089908990889088908890600401614181565b602060405180830381600087803b15801561345b57600080fd5b505af19250505080156134a9575060408051601f3d9081017fffffffffffffffffffffffffffffffffffffffffffffffffffffffffffffffe01682019092526134a691810190613f96565b60015b6134b5576131a9614513565b7fffffffff0000000000000000000000000000000000000000000000000000000081167ff23a6e610000000000000000000000000000000000000000000000000000000014612f57576040517f08c379a000000000000000000000000000000000000000000000000000000000815260206004820152602860248201527f455243313135353a204552433131353552656365697665722072656a6563746560448201527f6420746f6b656e730000000000000000000000000000000000000000000000006064820152608401610576565b6060833b613616576040517f08c379a000000000000000000000000000000000000000000000000000000000815260206004820152602660248201527f416464726573733a2064656c65676174652063616c6c20746f206e6f6e2d636f60448201527f6e747261637400000000000000000000000000000000000000000000000000006064820152608401610576565b6000808573ffffffffffffffffffffffffffffffffffffffff168560405161363e91906140b5565b600060405180830381855af49150503d8060008114613679576040519150601f19603f3d011682016040523d82523d6000602084013e61367e565b606091505b509150915061368e82828661385a565b9695505050505050565b73ffffffffffffffffffffffffffffffffffffffff851661377a5760005b8351811015613778578281815181106136f8577f4e487b7100000000000000000000000000000000000000000000000000000000600052603260045260246000fd5b60200260200101516004600086848151811061373d577f4e487b7100000000000000000000000000000000000000000000000000000000600052603260045260246000fd5b602002602001015181526020019081526020016000206000828254613762919061432b565b90915550613771905081614439565b90506136b6565b505b73ffffffffffffffffffffffffffffffffffffffff84166121085760005b8351811015612f57578281815181106137da577f4e487b7100000000000000000000000000000000000000000000000000000000600052603260045260246000fd5b60200260200101516004600086848151811061381f577f4e487b7100000000000000000000000000000000000000000000000000000000600052603260045260246000fd5b6020026020010151815260200190815260200160002060008282546138449190614357565b90915550613853905081614439565b9050613798565b606083156138695750816116f8565b8251156138795782518084602001fd5b816040517f08c379a00000000000000000000000000000000000000000000000000000000081526004016105769190614291565b8280546138b99061439a565b90600052602060002090601f0160209004810192826138db5760008555613921565b82601f106138f457805160ff1916838001178555613921565b82800160010185558215613921579182015b82811115613921578251825591602001919060010190613906565b5061392d929150613931565b5090565b5b8082111561392d5760008155600101613932565b600067ffffffffffffffff831115613960576139606144e4565b60405161399560207fffffffffffffffffffffffffffffffffffffffffffffffffffffffffffffffe0601f87011601826143ee565b8091508381528484840111156139aa57600080fd5b83836020830137600060208583010152509392505050565b803573ffffffffffffffffffffffffffffffffffffffff811681146105c357600080fd5b60008083601f8401126139f7578182fd5b50813567ffffffffffffffff811115613a0e578182fd5b6020830191508360208260051b8501011115613a2957600080fd5b9250929050565b600082601f830112613a40578081fd5b81356020613a4d82614307565b604051613a5a82826143ee565b8381528281019150858301600585901b87018401881015613a79578586fd5b855b85811015613a9757813584529284019290840190600101613a7b565b5090979650505050505050565b600082601f830112613ab4578081fd5b6116f883833560208501613946565b600060208284031215613ad4578081fd5b6116f8826139c2565b60008060408385031215613aef578081fd5b613af8836139c2565b9150613b06602084016139c2565b90509250929050565b600080600080600060a08688031215613b26578081fd5b613b2f866139c2565b9450613b3d602087016139c2565b9350604086013567ffffffffffffffff80821115613b59578283fd5b613b6589838a01613a30565b94506060880135915080821115613b7a578283fd5b613b8689838a01613a30565b93506080880135915080821115613b9b578283fd5b50613ba888828901613aa4565b9150509295509295909350565b600080600080600060a08688031215613bcc578081fd5b613bd5866139c2565b9450613be3602087016139c2565b93506040860135925060608601359150608086013567ffffffffffffffff811115613c0c578182fd5b613ba888828901613aa4565b600080600060608486031215613c2c578283fd5b613c35846139c2565b9250602084013567ffffffffffffffff80821115613c51578384fd5b613c5d87838801613a30565b93506040860135915080821115613c72578283fd5b50613c7f86828701613a30565b9150509250925092565b60008060008060808587031215613c9e578384fd5b613ca7856139c2565b9350602085013567ffffffffffffffff80821115613cc3578485fd5b613ccf88838901613a30565b94506040870135915080821115613ce4578384fd5b613cf088838901613a30565b93506060870135915080821115613d05578283fd5b50613d1287828801613aa4565b91505092959194509250565b60008060408385031215613d30578182fd5b613d39836139c2565b915060208301358015158114613d4d578182fd5b809150509250929050565b60008060408385031215613d6a578182fd5b613d73836139c2565b946020939093013593505050565b600080600060608486031215613d95578081fd5b613d9e846139c2565b95602085013595506040909401359392505050565b60008060008060808587031215613dc8578182fd5b613dd1856139c2565b93506020850135925060408501359150606085013567ffffffffffffffff811115613dfa578182fd5b613d1287828801613aa4565b60008060408385031215613e18578182fd5b823567ffffffffffffffff80821115613e2f578384fd5b818501915085601f830112613e42578384fd5b81356020613e4f82614307565b604051613e5c82826143ee565b8381528281019150858301600585901b870184018b1015613e7b578889fd5b8896505b84871015613ea457613e90816139c2565b835260019690960195918301918301613e7f565b5096505086013592505080821115613eba578283fd5b50613ec785828601613a30565b9150509250929050565b60008060208385031215613ee3578182fd5b823567ffffffffffffffff811115613ef9578283fd5b613f05858286016139e6565b90969095509350505050565b60008060008060408587031215613f26578182fd5b843567ffffffffffffffff80821115613f3d578384fd5b613f49888389016139e6565b90965094506020870135915080821115613f61578384fd5b50613f6e878288016139e6565b95989497509550505050565b600060208284031215613f8b578081fd5b81356116f8816145da565b600060208284031215613fa7578081fd5b81516116f8816145da565b600060208284031215613fc3578081fd5b813567ffffffffffffffff811115613fd9578182fd5b8201601f81018413613fe9578182fd5b612d2784823560208401613946565b600060208284031215614009578081fd5b5035919050565b60008060408385031215614022578182fd5b50508035926020909101359150565b6000815180845260208085019450808401835b8381101561406057815187529582019590820190600101614044565b509495945050505050565b6000815180845261408381602086016020860161436e565b601f017fffffffffffffffffffffffffffffffffffffffffffffffffffffffffffffffe0169290920160200192915050565b600082516140c781846020870161436e565b9190910192915050565b60007f6372656174653a746f6b656e5f69645f65786973743a200000000000000000008252825161410981601785016020870161436e565b9190910160170192915050565b600073ffffffffffffffffffffffffffffffffffffffff808816835280871660208401525060a0604083015261414f60a0830186614031565b82810360608401526141618186614031565b90508281036080840152614175818561406b565b98975050505050505050565b600073ffffffffffffffffffffffffffffffffffffffff808816835280871660208401525084604083015283606083015260a060808301526141c660a083018461406b565b979650505050505050565b6000602080830181845280855180835260408601915060408160051b8701019250838701855b82811015614243577fffffffffffffffffffffffffffffffffffffffffffffffffffffffffffffffc088860301845261423185835161406b565b945092850192908501906001016141f7565b5092979650505050505050565b6000602082526116f86020830184614031565b6000604082526142766040830185614031565b82810360208401526142888185614031565b95945050505050565b6000602082526116f8602083018461406b565b60008083357fffffffffffffffffffffffffffffffffffffffffffffffffffffffffffffffe18436030181126142d8578283fd5b83018035915067ffffffffffffffff8211156142f2578283fd5b602001915036819003821315613a2957600080fd5b600067ffffffffffffffff821115614321576143216144e4565b5060051b60200190565b6000821982111561433e5761433e614486565b500190565b600082614352576143526144b5565b500490565b60008282101561436957614369614486565b500390565b60005b83811015614389578181015183820152602001614371565b838111156108435750506000910152565b600181811c908216806143ae57607f821691505b602082108114156143e8577f4e487b7100000000000000000000000000000000000000000000000000000000600052602260045260246000fd5b50919050565b7fffffffffffffffffffffffffffffffffffffffffffffffffffffffffffffffe0601f830116810181811067ffffffffffffffff82111715614432576144326144e4565b6040525050565b60007fffffffffffffffffffffffffffffffffffffffffffffffffffffffffffffffff82141561446b5761446b614486565b5060010190565b600082614481576144816144b5565b500690565b7f4e487b7100000000000000000000000000000000000000000000000000000000600052601160045260246000fd5b7f4e487b7100000000000000000000000000000000000000000000000000000000600052601260045260246000fd5b7f4e487b7100000000000000000000000000000000000000000000000000000000600052604160045260246000fd5b600060033d1115610bb057600481823e5160e01c90565b600060443d101561453a57610bb0565b6040517ffffffffffffffffffffffffffffffffffffffffffffffffffffffffffffffffc803d016004833e81513d67ffffffffffffffff816024840111818411171561458a575050505050610bb0565b82850191508151818111156145a457505050505050610bb0565b843d87010160208285010111156145c057505050505050610bb0565b6145cf602082860101876143ee565b509094505050505090565b7fffffffff000000000000000000000000000000000000000000000000000000008116811461065257600080fdfe416464726573733a206c6f772d6c6576656c2064656c65676174652063616c6c206661696c6564a26469706673582212203ed525f74f0b025e9634ee015cfcd29bf3e85e11b37a5f963fb347c8b9406d9664736f6c63430008030033",
  "linkReferences": {},
  "deployedLinkReferences": {}
}