{
  "_format": "hh-sol-artifact-1",
  "contractName": "CanaItem",
  "sourceName": "contracts/nft/CanaItem.sol",
  "abi": [
    {
      "inputs": [],
      "stateMutability": "nonpayable",
      "type": "constructor"
    },
    {
      "anonymous": false,
      "inputs": [
        {
          "indexed": true,
          "internalType": "address",
          "name": "account",
          "type": "address"
        },
        {
          "indexed": true,
          "internalType": "address",
          "name": "operator",
          "type": "address"
        },
        {
          "indexed": false,
          "internalType": "bool",
          "name": "approved",
          "type": "bool"
        }
      ],
      "name": "ApprovalForAll",
      "type": "event"
    },
    {
      "anonymous": false,
      "inputs": [
        {
          "indexed": true,
          "internalType": "address",
          "name": "creator",
          "type": "address"
        },
        {
          "indexed": true,
          "internalType": "address",
          "name": "to",
          "type": "address"
        },
        {
          "indexed": false,
          "internalType": "uint256",
          "name": "tokenId",
          "type": "uint256"
        },
        {
          "indexed": false,
          "internalType": "string",
          "name": "tokenURI",
          "type": "string"
        }
      ],
      "name": "Created",
      "type": "event"
    },
    {
      "anonymous": false,
      "inputs": [
        {
          "indexed": true,
          "internalType": "address",
          "name": "previousOwner",
          "type": "address"
        },
        {
          "indexed": true,
          "internalType": "address",
          "name": "newOwner",
          "type": "address"
        }
      ],
      "name": "OwnershipTransferred",
      "type": "event"
    },
    {
      "anonymous": false,
      "inputs": [
        {
          "indexed": false,
          "internalType": "address",
          "name": "account",
          "type": "address"
        }
      ],
      "name": "Paused",
      "type": "event"
    },
    {
      "anonymous": false,
      "inputs": [
        {
          "indexed": true,
          "internalType": "address",
          "name": "operator",
          "type": "address"
        },
        {
          "indexed": true,
          "internalType": "address",
          "name": "from",
          "type": "address"
        },
        {
          "indexed": true,
          "internalType": "address",
          "name": "to",
          "type": "address"
        },
        {
          "indexed": false,
          "internalType": "uint256[]",
          "name": "ids",
          "type": "uint256[]"
        },
        {
          "indexed": false,
          "internalType": "uint256[]",
          "name": "values",
          "type": "uint256[]"
        }
      ],
      "name": "TransferBatch",
      "type": "event"
    },
    {
      "anonymous": false,
      "inputs": [
        {
          "indexed": true,
          "internalType": "address",
          "name": "operator",
          "type": "address"
        },
        {
          "indexed": true,
          "internalType": "address",
          "name": "from",
          "type": "address"
        },
        {
          "indexed": true,
          "internalType": "address",
          "name": "to",
          "type": "address"
        },
        {
          "indexed": false,
          "internalType": "uint256",
          "name": "id",
          "type": "uint256"
        },
        {
          "indexed": false,
          "internalType": "uint256",
          "name": "value",
          "type": "uint256"
        }
      ],
      "name": "TransferSingle",
      "type": "event"
    },
    {
      "anonymous": false,
      "inputs": [
        {
          "indexed": false,
          "internalType": "string",
          "name": "value",
          "type": "string"
        },
        {
          "indexed": true,
          "internalType": "uint256",
          "name": "id",
          "type": "uint256"
        }
      ],
      "name": "URI",
      "type": "event"
    },
    {
      "anonymous": false,
      "inputs": [
        {
          "indexed": false,
          "internalType": "address",
          "name": "account",
          "type": "address"
        }
      ],
      "name": "Unpaused",
      "type": "event"
    },
    {
      "inputs": [
        {
          "internalType": "address",
          "name": "proxy",
          "type": "address"
        }
      ],
      "name": "addApprovalWhitelist",
      "outputs": [],
      "stateMutability": "nonpayable",
      "type": "function"
    },
    {
      "inputs": [
        {
          "internalType": "address",
          "name": "",
          "type": "address"
        }
      ],
      "name": "approvalWhitelists",
      "outputs": [
        {
          "internalType": "bool",
          "name": "",
          "type": "bool"
        }
      ],
      "stateMutability": "view",
      "type": "function"
    },
    {
      "inputs": [
        {
          "internalType": "address",
          "name": "_to",
          "type": "address"
        },
        {
          "internalType": "string",
          "name": "_uri",
          "type": "string"
        },
        {
          "internalType": "uint256",
          "name": "amount",
          "type": "uint256"
        },
        {
          "internalType": "bytes",
          "name": "data",
          "type": "bytes"
        }
      ],
      "name": "autoIdCreate",
      "outputs": [
        {
          "internalType": "uint256",
          "name": "",
          "type": "uint256"
        }
      ],
      "stateMutability": "nonpayable",
      "type": "function"
    },
    {
      "inputs": [
        {
          "internalType": "address",
          "name": "account",
          "type": "address"
        },
        {
          "internalType": "uint256",
          "name": "id",
          "type": "uint256"
        }
      ],
      "name": "balanceOf",
      "outputs": [
        {
          "internalType": "uint256",
          "name": "",
          "type": "uint256"
        }
      ],
      "stateMutability": "view",
      "type": "function"
    },
    {
      "inputs": [
        {
          "internalType": "address[]",
          "name": "accounts",
          "type": "address[]"
        },
        {
          "internalType": "uint256[]",
          "name": "ids",
          "type": "uint256[]"
        }
      ],
      "name": "balanceOfBatch",
      "outputs": [
        {
          "internalType": "uint256[]",
          "name": "",
          "type": "uint256[]"
        }
      ],
      "stateMutability": "view",
      "type": "function"
    },
    {
      "inputs": [
        {
          "internalType": "uint256",
          "name": "_id",
          "type": "uint256"
        },
        {
          "internalType": "uint256",
          "name": "_amount",
          "type": "uint256"
        }
      ],
      "name": "burn",
      "outputs": [],
      "stateMutability": "nonpayable",
      "type": "function"
    },
    {
      "inputs": [
        {
          "internalType": "address",
          "name": "account",
          "type": "address"
        },
        {
          "internalType": "uint256",
          "name": "id",
          "type": "uint256"
        },
        {
          "internalType": "uint256",
          "name": "value",
          "type": "uint256"
        }
      ],
      "name": "burn",
      "outputs": [],
      "stateMutability": "nonpayable",
      "type": "function"
    },
    {
      "inputs": [
        {
          "internalType": "address",
          "name": "account",
          "type": "address"
        },
        {
          "internalType": "uint256[]",
          "name": "ids",
          "type": "uint256[]"
        },
        {
          "internalType": "uint256[]",
          "name": "values",
          "type": "uint256[]"
        }
      ],
      "name": "burnBatch",
      "outputs": [],
      "stateMutability": "nonpayable",
      "type": "function"
    },
    {
      "inputs": [
        {
          "internalType": "uint256[]",
          "name": "_ids",
          "type": "uint256[]"
        },
        {
          "internalType": "uint256[]",
          "name": "_amounts",
          "type": "uint256[]"
        }
      ],
      "name": "burnBatch",
      "outputs": [],
      "stateMutability": "nonpayable",
      "type": "function"
    },
    {
      "inputs": [
        {
          "internalType": "address",
          "name": "_initialOwner",
          "type": "address"
        },
        {
          "internalType": "uint256",
          "name": "_id",
          "type": "uint256"
        },
        {
          "internalType": "uint256",
          "name": "_initialSupply",
          "type": "uint256"
        },
        {
          "internalType": "bytes",
          "name": "_data",
          "type": "bytes"
        }
      ],
      "name": "create",
      "outputs": [
        {
          "internalType": "uint256",
          "name": "",
          "type": "uint256"
        }
      ],
      "stateMutability": "nonpayable",
      "type": "function"
    },
    {
      "inputs": [
        {
          "internalType": "uint256",
          "name": "id",
          "type": "uint256"
        }
      ],
      "name": "exists",
      "outputs": [
        {
          "internalType": "bool",
          "name": "",
          "type": "bool"
        }
      ],
      "stateMutability": "view",
      "type": "function"
    },
    {
      "inputs": [],
      "name": "getDaysBetweenGenesisMint",
      "outputs": [
        {
          "internalType": "uint8",
          "name": "",
          "type": "uint8"
        }
      ],
      "stateMutability": "view",
      "type": "function"
    },
    {
      "inputs": [],
      "name": "getDaysBetweenOrdinaryMint",
      "outputs": [
        {
          "internalType": "uint8",
          "name": "",
          "type": "uint8"
        }
      ],
      "stateMutability": "view",
      "type": "function"
    },
    {
      "inputs": [],
      "name": "getMaxNumGenesisMint",
      "outputs": [
        {
          "internalType": "uint8",
          "name": "",
          "type": "uint8"
        }
      ],
      "stateMutability": "view",
      "type": "function"
    },
    {
      "inputs": [],
      "name": "getMaxNumOrdinaryMint",
      "outputs": [
        {
          "internalType": "uint8",
          "name": "",
          "type": "uint8"
        }
      ],
      "stateMutability": "view",
      "type": "function"
    },
    {
      "inputs": [],
      "name": "getMinLevelRequiredGenesisToMint",
      "outputs": [
        {
          "internalType": "uint8",
          "name": "",
          "type": "uint8"
        }
      ],
      "stateMutability": "view",
      "type": "function"
    },
    {
      "inputs": [],
      "name": "getMinLevelRequiredOrdinaryToMint",
      "outputs": [
        {
          "internalType": "uint8",
          "name": "",
          "type": "uint8"
        }
      ],
      "stateMutability": "view",
      "type": "function"
    },
    {
      "inputs": [
        {
          "internalType": "address",
          "name": "_owner",
          "type": "address"
        },
        {
          "internalType": "address",
          "name": "_operator",
          "type": "address"
        }
      ],
      "name": "isApprovedForAll",
      "outputs": [
        {
          "internalType": "bool",
          "name": "isOperator",
          "type": "bool"
        }
      ],
      "stateMutability": "view",
      "type": "function"
    },
    {
      "inputs": [
        {
          "internalType": "uint256",
          "name": "",
          "type": "uint256"
        }
      ],
      "name": "isGenesis",
      "outputs": [
        {
          "internalType": "bool",
          "name": "",
          "type": "bool"
        }
      ],
      "stateMutability": "view",
      "type": "function"
    },
    {
      "inputs": [
        {
          "internalType": "uint256",
          "name": "tokenId",
          "type": "uint256"
        }
      ],
      "name": "isLocked",
      "outputs": [
        {
          "internalType": "bool",
          "name": "",
          "type": "bool"
        }
      ],
      "stateMutability": "view",
      "type": "function"
    },
    {
      "inputs": [
        {
          "internalType": "uint256",
          "name": "",
          "type": "uint256"
        }
      ],
      "name": "lastMintTime",
      "outputs": [
        {
          "internalType": "uint256",
          "name": "",
          "type": "uint256"
        }
      ],
      "stateMutability": "view",
      "type": "function"
    },
    {
      "inputs": [
        {
          "internalType": "uint256",
          "name": "",
          "type": "uint256"
        }
      ],
      "name": "levels",
      "outputs": [
        {
          "internalType": "uint8",
          "name": "",
          "type": "uint8"
        }
      ],
      "stateMutability": "view",
      "type": "function"
    },
    {
      "inputs": [
        {
          "internalType": "uint256",
          "name": "tokenId",
          "type": "uint256"
        }
      ],
      "name": "lock",
      "outputs": [],
      "stateMutability": "nonpayable",
      "type": "function"
    },
    {
      "inputs": [
        {
          "internalType": "uint256",
          "name": "",
          "type": "uint256"
        }
      ],
      "name": "lockedTokens",
      "outputs": [
        {
          "internalType": "bool",
          "name": "",
          "type": "bool"
        }
      ],
      "stateMutability": "view",
      "type": "function"
    },
    {
      "inputs": [
        {
          "internalType": "address",
          "name": "account",
          "type": "address"
        },
        {
          "internalType": "uint256",
          "name": "id",
          "type": "uint256"
        },
        {
          "internalType": "uint256",
          "name": "amount",
          "type": "uint256"
        },
        {
          "internalType": "bytes",
          "name": "data",
          "type": "bytes"
        }
      ],
      "name": "mint",
      "outputs": [],
      "stateMutability": "nonpayable",
      "type": "function"
    },
    {
      "inputs": [
        {
          "internalType": "address",
          "name": "to",
          "type": "address"
        },
        {
          "internalType": "uint256[]",
          "name": "ids",
          "type": "uint256[]"
        },
        {
          "internalType": "uint256[]",
          "name": "amounts",
          "type": "uint256[]"
        },
        {
          "internalType": "bytes",
          "name": "data",
          "type": "bytes"
        }
      ],
      "name": "mintBatch",
      "outputs": [],
      "stateMutability": "nonpayable",
      "type": "function"
    },
    {
      "inputs": [
        {
          "internalType": "bytes[]",
          "name": "data",
          "type": "bytes[]"
        }
      ],
      "name": "multicall",
      "outputs": [
        {
          "internalType": "bytes[]",
          "name": "results",
          "type": "bytes[]"
        }
      ],
      "stateMutability": "nonpayable",
      "type": "function"
    },
    {
      "inputs": [
        {
          "internalType": "uint256",
          "name": "",
          "type": "uint256"
        }
      ],
      "name": "nature",
      "outputs": [
        {
          "internalType": "uint8",
          "name": "",
          "type": "uint8"
        }
      ],
      "stateMutability": "view",
      "type": "function"
    },
    {
      "inputs": [],
      "name": "nextTokenId",
      "outputs": [
        {
          "internalType": "uint256",
          "name": "",
          "type": "uint256"
        }
      ],
      "stateMutability": "view",
      "type": "function"
    },
    {
      "inputs": [
        {
          "internalType": "uint256",
          "name": "",
          "type": "uint256"
        }
      ],
      "name": "numOfMint",
      "outputs": [
        {
          "internalType": "uint8",
          "name": "",
          "type": "uint8"
        }
      ],
      "stateMutability": "view",
      "type": "function"
    },
    {
      "inputs": [],
      "name": "owner",
      "outputs": [
        {
          "internalType": "address",
          "name": "",
          "type": "address"
        }
      ],
      "stateMutability": "view",
      "type": "function"
    },
    {
      "inputs": [],
      "name": "pause",
      "outputs": [],
      "stateMutability": "nonpayable",
      "type": "function"
    },
    {
      "inputs": [],
      "name": "paused",
      "outputs": [
        {
          "internalType": "bool",
          "name": "",
          "type": "bool"
        }
      ],
      "stateMutability": "view",
      "type": "function"
    },
    {
      "inputs": [
        {
          "internalType": "address",
          "name": "proxy",
          "type": "address"
        }
      ],
      "name": "removeApprovalWhitelist",
      "outputs": [],
      "stateMutability": "nonpayable",
      "type": "function"
    },
    {
      "inputs": [],
      "name": "renounceOwnership",
      "outputs": [],
      "stateMutability": "nonpayable",
      "type": "function"
    },
    {
      "inputs": [
        {
          "internalType": "address",
          "name": "from",
          "type": "address"
        },
        {
          "internalType": "address",
          "name": "to",
          "type": "address"
        },
        {
          "internalType": "uint256[]",
          "name": "ids",
          "type": "uint256[]"
        },
        {
          "internalType": "uint256[]",
          "name": "amounts",
          "type": "uint256[]"
        },
        {
          "internalType": "bytes",
          "name": "data",
          "type": "bytes"
        }
      ],
      "name": "safeBatchTransferFrom",
      "outputs": [],
      "stateMutability": "nonpayable",
      "type": "function"
    },
    {
      "inputs": [
        {
          "internalType": "address",
          "name": "from",
          "type": "address"
        },
        {
          "internalType": "address",
          "name": "to",
          "type": "address"
        },
        {
          "internalType": "uint256",
          "name": "id",
          "type": "uint256"
        },
        {
          "internalType": "uint256",
          "name": "amount",
          "type": "uint256"
        },
        {
          "internalType": "bytes",
          "name": "data",
          "type": "bytes"
        }
      ],
      "name": "safeTransferFrom",
      "outputs": [],
      "stateMutability": "nonpayable",
      "type": "function"
    },
    {
      "inputs": [
        {
          "internalType": "address",
          "name": "operator",
          "type": "address"
        },
        {
          "internalType": "bool",
          "name": "approved",
          "type": "bool"
        }
      ],
      "name": "setApprovalForAll",
      "outputs": [],
      "stateMutability": "nonpayable",
      "type": "function"
    },
    {
      "inputs": [
        {
          "internalType": "string",
          "name": "baseURI",
          "type": "string"
        }
      ],
      "name": "setBaseURI",
      "outputs": [],
      "stateMutability": "nonpayable",
      "type": "function"
    },
    {
      "inputs": [
        {
          "internalType": "uint8",
          "name": "_days",
          "type": "uint8"
        }
      ],
      "name": "setDaysBetweenGenesisMint",
      "outputs": [],
      "stateMutability": "nonpayable",
      "type": "function"
    },
    {
      "inputs": [
        {
          "internalType": "uint8",
          "name": "_days",
          "type": "uint8"
        }
      ],
      "name": "setDaysBetweenOrdinaryMint",
      "outputs": [],
      "stateMutability": "nonpayable",
      "type": "function"
    },
    {
      "inputs": [
        {
          "internalType": "uint8",
          "name": "_max",
          "type": "uint8"
        }
      ],
      "name": "setMaxNumGenesisMint",
      "outputs": [],
      "stateMutability": "nonpayable",
      "type": "function"
    },
    {
      "inputs": [
        {
          "internalType": "uint8",
          "name": "_max",
          "type": "uint8"
        }
      ],
      "name": "setMaxNumOrdinaryMint",
      "outputs": [],
      "stateMutability": "nonpayable",
      "type": "function"
    },
    {
      "inputs": [
        {
          "internalType": "uint8",
          "name": "_min",
          "type": "uint8"
        }
      ],
      "name": "setMinLevelRequiredGenesisToMint",
      "outputs": [],
      "stateMutability": "nonpayable",
      "type": "function"
    },
    {
      "inputs": [
        {
          "internalType": "uint8",
          "name": "_min",
          "type": "uint8"
        }
      ],
      "name": "setMinLevelRequiredOrdinaryToMint",
      "outputs": [],
      "stateMutability": "nonpayable",
      "type": "function"
    },
    {
      "inputs": [
        {
          "internalType": "string",
          "name": "newuri",
          "type": "string"
        }
      ],
      "name": "setURI",
      "outputs": [],
      "stateMutability": "nonpayable",
      "type": "function"
    },
    {
      "inputs": [
        {
          "internalType": "uint256",
          "name": "tokenId",
          "type": "uint256"
        },
        {
          "internalType": "string",
          "name": "_tokenURI",
          "type": "string"
        }
      ],
      "name": "setURI",
      "outputs": [],
      "stateMutability": "nonpayable",
      "type": "function"
    },
    {
      "inputs": [
        {
          "internalType": "bytes4",
          "name": "_interfaceID",
          "type": "bytes4"
        }
      ],
      "name": "supportsInterface",
      "outputs": [
        {
          "internalType": "bool",
          "name": "",
          "type": "bool"
        }
      ],
      "stateMutability": "view",
      "type": "function"
    },
    {
      "inputs": [],
      "name": "totalGenesis",
      "outputs": [
        {
          "internalType": "uint8",
          "name": "",
          "type": "uint8"
        }
      ],
      "stateMutability": "view",
      "type": "function"
    },
    {
      "inputs": [
        {
          "internalType": "uint256",
          "name": "id",
          "type": "uint256"
        }
      ],
      "name": "totalSupply",
      "outputs": [
        {
          "internalType": "uint256",
          "name": "",
          "type": "uint256"
        }
      ],
      "stateMutability": "view",
      "type": "function"
    },
    {
      "inputs": [
        {
          "internalType": "address",
          "name": "newOwner",
          "type": "address"
        }
      ],
      "name": "transferOwnership",
      "outputs": [],
      "stateMutability": "nonpayable",
      "type": "function"
    },
    {
      "inputs": [
        {
          "internalType": "uint256",
          "name": "tokenId",
          "type": "uint256"
        }
      ],
      "name": "unlock",
      "outputs": [],
      "stateMutability": "nonpayable",
      "type": "function"
    },
    {
      "inputs": [],
      "name": "unpause",
      "outputs": [],
      "stateMutability": "nonpayable",
      "type": "function"
    },
    {
      "inputs": [
        {
          "internalType": "uint256",
          "name": "tokenId",
          "type": "uint256"
        }
      ],
      "name": "uri",
      "outputs": [
        {
          "internalType": "string",
          "name": "",
          "type": "string"
        }
      ],
      "stateMutability": "view",
      "type": "function"
    }
  ],
  "bytecode": "0x60a06040819052600060808190526200001b9160059162000168565b50600f80547fffffffffffffffffffffffffffffffffffffffffffffffffff000000000000ff1666140f05050503001790553480156200005a57600080fd5b5060408051808201909152601d81527f68747470733a2f2f61737365742e6d65746163616e612e696f2f61706900000060208201526200009a81620000d8565b50620000a633620000f1565b600380547fffffffffffffffffffffff00ffffffffffffffffffffffffffffffffffffffff169055426009556200024b565b8051620000ed90600290602084019062000168565b5050565b6003805473ffffffffffffffffffffffffffffffffffffffff8381167fffffffffffffffffffffffff0000000000000000000000000000000000000000831681179093556040519116919082907f8be0079c531659141344cd1fd0a4f28419497f9722a3daafe3b4186f6b6457e090600090a35050565b82805462000176906200020e565b90600052602060002090601f0160209004810192826200019a5760008555620001e5565b82601f10620001b557805160ff1916838001178555620001e5565b82800160010185558215620001e5579182015b82811115620001e5578251825591602001919060010190620001c8565b50620001f3929150620001f7565b5090565b5b80821115620001f35760008155600101620001f8565b600181811c908216806200022357607f821691505b602082108114156200024557634e487b7160e01b600052602260045260246000fd5b50919050565b6153cc806200025b6000396000f3fe608060405234801561001057600080fd5b50600436106103615760003560e01c806383ca4b6f116101c8578063bd85b03911610104578063e985e9c5116100a2578063f2fde38b1161007c578063f2fde38b146107f3578063f4df04de14610806578063f5298aca14610816578063f6aacfb11461082957600080fd5b8063e985e9c5146107aa578063f1e25ea8146107bd578063f242432a146107e057600080fd5b8063cd345d35116100de578063cd345d351461073e578063dcec329414610751578063dd46706414610774578063e5b3a27c1461078757600080fd5b8063bd85b039146106f8578063c13dc29114610718578063cc5c88e81461072b57600080fd5b8063a96e360311610171578063b2596a671161014b578063b2596a67146106a2578063b390c0ab146106c5578063b78437ea146106d8578063bc6ecf27146106eb57600080fd5b8063a96e36031461065b578063ac9650d81461066f578063b1e0f4061461068f57600080fd5b80638da5cb5b116101a25780638da5cb5b146105fd578063a09207ca14610625578063a22cb4651461064857600080fd5b806383ca4b6f146105cf5780638456cb59146105e2578063862440e2146105ea57600080fd5b8063419e583d116102a257806364ae14da116102405780636fb55d721161021a5780636fb55d7214610599578063715018a6146105ab578063731133e9146105b357806375794a3c146105c657600080fd5b806364ae14da146105625780636b20c454146105735780636e2389121461058657600080fd5b806355f804b31161027c57806355f804b31461050457806357a7267b146105175780635c975abb1461052c5780636198e3391461054f57600080fd5b8063419e583d1461049f5780634e1273f4146104c25780634f558e79146104e257600080fd5b80630e89341c1161030f5780632eb2c2d6116102e95780632eb2c2d61461045157806334dcd21f146104645780633ba40092146104775780633f4ba83a1461049757600080fd5b80630e89341c146103fd57806319ba5b341461041d5780631f7fdffa1461043e57600080fd5b80630a75eea2116103405780630a75eea2146103c45780630c99bea6146103d75780630e3093dc146103ea57600080fd5b8062fdd58e1461036657806301ffc9a71461038c57806302fe5305146103af575b600080fd5b6103796103743660046148e8565b61084c565b6040519081526020015b60405180910390f35b61039f61039a366004614b19565b61092c565b6040519015158152602001610383565b6103c26103bd366004614b53565b610937565b005b6103c26103d23660046145aa565b6109c4565b6103c26103e5366004614c00565b610a91565b6103796103f8366004614850565b610b4f565b61041061040b366004614b88565b610d34565b6040516103839190614f76565b600f54640100000000900460ff165b60405160ff9091168152602001610383565b6103c261044c36600461477b565b610d3f565b6103c261045f3660046145f8565b610dd2565b6103c2610472366004614c00565b610e9b565b610379610485366004614b88565b600e6020526000908152604090205481565b6103c2610f56565b61039f6104ad3660046145aa565b60076020526000908152604090205460ff1681565b6104d56104d036600461499a565b610fe1565b6040516103839190614f3e565b61039f6104f0366004614b88565b600090815260046020526040902054151590565b6103c2610512366004614b53565b611139565b600f546601000000000000900460ff1661042c565b60035474010000000000000000000000000000000000000000900460ff1661039f565b6103c261055d366004614b88565b6111c3565b600f5462010000900460ff1661042c565b6103c2610581366004614707565b61135f565b6103c2610594366004614c00565b611424565b600f546301000000900460ff1661042c565b6103c26114e0565b6103c26105c1366004614945565b61156b565b61037960085481565b6103c26105dd366004614aad565b6115f8565b6103c26116e7565b6103c26105f8366004614ba1565b611770565b60035460405173ffffffffffffffffffffffffffffffffffffffff9091168152602001610383565b61042c610633366004614b88565b600a6020526000908152604090205460ff1681565b6103c2610656366004614814565b6117ff565b600f5465010000000000900460ff1661042c565b61068261067d366004614a6b565b61180a565b6040516103839190614ebe565b6103c261069d366004614c00565b6118ff565b61042c6106b0366004614b88565b600b6020526000908152604090205460ff1681565b6103c26106d3366004614bde565b6119be565b6103c26106e63660046145aa565b611a4a565b600f5461042c9060ff1681565b610379610706366004614b88565b60009081526004602052604090205490565b610379610726366004614945565b611baa565b6103c2610739366004614c00565b611cb4565b6103c261074c366004614c00565b611d71565b61039f61075f366004614b88565b60106020526000908152604090205460ff1681565b6103c2610782366004614b88565b611e2b565b61042c610795366004614b88565b600c6020526000908152604090205460ff1681565b61039f6107b83660046145c5565b611fcb565b61039f6107cb366004614b88565b600d6020526000908152604090205460ff1681565b6103c26107ee3660046146a2565b612044565b6103c26108013660046145aa565b612106565b600f54610100900460ff1661042c565b6103c2610824366004614912565b612233565b61039f610837366004614b88565b60009081526010602052604090205460ff1690565b600073ffffffffffffffffffffffffffffffffffffffff83166108f6576040517f08c379a000000000000000000000000000000000000000000000000000000000815260206004820152602b60248201527f455243313135353a2062616c616e636520717565727920666f7220746865207a60448201527f65726f206164647265737300000000000000000000000000000000000000000060648201526084015b60405180910390fd5b5060008181526020818152604080832073ffffffffffffffffffffffffffffffffffffffff861684529091529020545b92915050565b6000610926826122f3565b60035473ffffffffffffffffffffffffffffffffffffffff1633146109b8576040517f08c379a000000000000000000000000000000000000000000000000000000000815260206004820181905260248201527f4f776e61626c653a2063616c6c6572206973206e6f7420746865206f776e657260448201526064016108ed565b6109c1816123d6565b50565b60035473ffffffffffffffffffffffffffffffffffffffff163314610a45576040517f08c379a000000000000000000000000000000000000000000000000000000000815260206004820181905260248201527f4f776e61626c653a2063616c6c6572206973206e6f7420746865206f776e657260448201526064016108ed565b73ffffffffffffffffffffffffffffffffffffffff16600090815260076020526040902080547fffffffffffffffffffffffffffffffffffffffffffffffffffffffffffffff00169055565b60035473ffffffffffffffffffffffffffffffffffffffff163314610b12576040517f08c379a000000000000000000000000000000000000000000000000000000000815260206004820181905260248201527f4f776e61626c653a2063616c6c6572206973206e6f7420746865206f776e657260448201526064016108ed565b600f805460ff90921665010000000000027fffffffffffffffffffffffffffffffffffffffffffffffffffff00ffffffffff909216919091179055565b60035460009074010000000000000000000000000000000000000000900460ff1615610bd7576040517f08c379a000000000000000000000000000000000000000000000000000000000815260206004820152601060248201527f5061757361626c653a207061757365640000000000000000000000000000000060448201526064016108ed565b6000600954600854610be99190615066565b60008181526004602052604090205490915015610c05826123e9565b604051602001610c159190614dbe565b60405160208183030381529060405290610c5c576040517f08c379a00000000000000000000000000000000000000000000000000000000081526004016108ed9190614f76565b50610c9d8187878080601f01602080910402602001604051908101604052809392919081815260200183838082843760009201919091525061252392505050565b610ca987828686612587565b600160086000828254610cbc9190615066565b909155505073ffffffffffffffffffffffffffffffffffffffff87163373ffffffffffffffffffffffffffffffffffffffff167ff238fcd2133237bc5ae0e1f42086a193f4fddae976468b0797a9260c8f292219838989604051610d2293929190614f89565b60405180910390a39695505050505050565b606061092682612707565b60035473ffffffffffffffffffffffffffffffffffffffff163314610dc0576040517f08c379a000000000000000000000000000000000000000000000000000000000815260206004820181905260248201527f4f776e61626c653a2063616c6c6572206973206e6f7420746865206f776e657260448201526064016108ed565b610dcc848484846127e6565b50505050565b73ffffffffffffffffffffffffffffffffffffffff8516331480610dfb5750610dfb8533611fcb565b610e87576040517f08c379a000000000000000000000000000000000000000000000000000000000815260206004820152603260248201527f455243313135353a207472616e736665722063616c6c6572206973206e6f742060448201527f6f776e6572206e6f7220617070726f766564000000000000000000000000000060648201526084016108ed565b610e948585858585612a6e565b5050505050565b60035473ffffffffffffffffffffffffffffffffffffffff163314610f1c576040517f08c379a000000000000000000000000000000000000000000000000000000000815260206004820181905260248201527f4f776e61626c653a2063616c6c6572206973206e6f7420746865206f776e657260448201526064016108ed565b600f805460ff90921662010000027fffffffffffffffffffffffffffffffffffffffffffffffffffffffffff00ffff909216919091179055565b60035473ffffffffffffffffffffffffffffffffffffffff163314610fd7576040517f08c379a000000000000000000000000000000000000000000000000000000000815260206004820181905260248201527f4f776e61626c653a2063616c6c6572206973206e6f7420746865206f776e657260448201526064016108ed565b610fdf612db6565b565b60608151835114611074576040517f08c379a000000000000000000000000000000000000000000000000000000000815260206004820152602960248201527f455243313135353a206163636f756e747320616e6420696473206c656e67746860448201527f206d69736d61746368000000000000000000000000000000000000000000000060648201526084016108ed565b6000835167ffffffffffffffff8111156110905761109061524e565b6040519080825280602002602001820160405280156110b9578160200160208202803683370190505b50905060005b8451811015611131576111048582815181106110dd576110dd61521f565b60200260200101518583815181106110f7576110f761521f565b602002602001015161084c565b8282815181106111165761111661521f565b602090810291909101015261112a81615174565b90506110bf565b509392505050565b60035473ffffffffffffffffffffffffffffffffffffffff1633146111ba576040517f08c379a000000000000000000000000000000000000000000000000000000000815260206004820181905260248201527f4f776e61626c653a2063616c6c6572206973206e6f7420746865206f776e657260448201526064016108ed565b6109c181612eaf565b3360009081526007602052604090205460ff1661123c576040517f08c379a000000000000000000000000000000000000000000000000000000000815260206004820181905260248201527f4d7573742062652076616c696420617070726f76616c2077686974656c69737460448201526064016108ed565b6000818152600460205260409020546112b1576040517f08c379a000000000000000000000000000000000000000000000000000000000815260206004820152601560248201527f4d7573742062652076616c696420746f6b656e4964000000000000000000000060448201526064016108ed565b60008181526010602052604090205460ff16611329576040517f08c379a000000000000000000000000000000000000000000000000000000000815260206004820152601a60248201527f546f6b656e2068617320616c726561647920756e6c6f636b656400000000000060448201526064016108ed565b600090815260106020526040902080547fffffffffffffffffffffffffffffffffffffffffffffffffffffffffffffff00169055565b73ffffffffffffffffffffffffffffffffffffffff831633148061138857506113888333611fcb565b611414576040517f08c379a000000000000000000000000000000000000000000000000000000000815260206004820152602960248201527f455243313135353a2063616c6c6572206973206e6f74206f776e6572206e6f7260448201527f20617070726f766564000000000000000000000000000000000000000000000060648201526084016108ed565b61141f838383612ec2565b505050565b60035473ffffffffffffffffffffffffffffffffffffffff1633146114a5576040517f08c379a000000000000000000000000000000000000000000000000000000000815260206004820181905260248201527f4f776e61626c653a2063616c6c6572206973206e6f7420746865206f776e657260448201526064016108ed565b600f805460ff9092166301000000027fffffffffffffffffffffffffffffffffffffffffffffffffffffffff00ffffff909216919091179055565b60035473ffffffffffffffffffffffffffffffffffffffff163314611561576040517f08c379a000000000000000000000000000000000000000000000000000000000815260206004820181905260248201527f4f776e61626c653a2063616c6c6572206973206e6f7420746865206f776e657260448201526064016108ed565b610fdf60006131fb565b60035473ffffffffffffffffffffffffffffffffffffffff1633146115ec576040517f08c379a000000000000000000000000000000000000000000000000000000000815260206004820181905260248201527f4f776e61626c653a2063616c6c6572206973206e6f7420746865206f776e657260448201526064016108ed565b610dcc84848484612587565b60035473ffffffffffffffffffffffffffffffffffffffff163314611679576040517f08c379a000000000000000000000000000000000000000000000000000000000815260206004820181905260248201527f4f776e61626c653a2063616c6c6572206973206e6f7420746865206f776e657260448201526064016108ed565b610dcc3385858080602002602001604051908101604052809392919081815260200183836020028082843760009201919091525050604080516020808902828101820190935288825290935088925087918291850190849080828437600092019190915250612ec292505050565b60035473ffffffffffffffffffffffffffffffffffffffff163314611768576040517f08c379a000000000000000000000000000000000000000000000000000000000815260206004820181905260248201527f4f776e61626c653a2063616c6c6572206973206e6f7420746865206f776e657260448201526064016108ed565b610fdf613272565b60035473ffffffffffffffffffffffffffffffffffffffff1633146117f1576040517f08c379a000000000000000000000000000000000000000000000000000000000815260206004820181905260248201527f4f776e61626c653a2063616c6c6572206973206e6f7420746865206f776e657260448201526064016108ed565b6117fb8282612523565b5050565b6117fb33838361335e565b60608167ffffffffffffffff8111156118255761182561524e565b60405190808252806020026020018201604052801561185857816020015b60608152602001906001900390816118435790505b50905060005b828110156118f8576118c83085858481811061187c5761187c61521f565b905060200281019061188e9190614fdd565b8080601f0160208091040260200160405190810160405280939291908181526020018383808284376000920191909152506134b292505050565b8282815181106118da576118da61521f565b602002602001018190525080806118f090615174565b91505061185e565b5092915050565b60035473ffffffffffffffffffffffffffffffffffffffff163314611980576040517f08c379a000000000000000000000000000000000000000000000000000000000815260206004820181905260248201527f4f776e61626c653a2063616c6c6572206973206e6f7420746865206f776e657260448201526064016108ed565b600f805460ff9092166601000000000000027fffffffffffffffffffffffffffffffffffffffffffffffffff00ffffffffffff909216919091179055565b60035473ffffffffffffffffffffffffffffffffffffffff163314611a3f576040517f08c379a000000000000000000000000000000000000000000000000000000000815260206004820181905260248201527f4f776e61626c653a2063616c6c6572206973206e6f7420746865206f776e657260448201526064016108ed565b6117fb3383836134d7565b60035473ffffffffffffffffffffffffffffffffffffffff163314611acb576040517f08c379a000000000000000000000000000000000000000000000000000000000815260206004820181905260248201527f4f776e61626c653a2063616c6c6572206973206e6f7420746865206f776e657260448201526064016108ed565b73ffffffffffffffffffffffffffffffffffffffff811660009081526007602052604090205460ff1615611b5b576040517f08c379a000000000000000000000000000000000000000000000000000000000815260206004820152601560248201527f496e76616c69642070726f78792061646472657373000000000000000000000060448201526064016108ed565b73ffffffffffffffffffffffffffffffffffffffff16600090815260076020526040902080547fffffffffffffffffffffffffffffffffffffffffffffffffffffffffffffff00166001179055565b60035460009073ffffffffffffffffffffffffffffffffffffffff163314611c2e576040517f08c379a000000000000000000000000000000000000000000000000000000000815260206004820181905260248201527f4f776e61626c653a2063616c6c6572206973206e6f7420746865206f776e657260448201526064016108ed565b60008481526004602052604090205415611c47856123e9565b604051602001611c579190614dbe565b60405160208183030381529060405290611c9e576040517f08c379a00000000000000000000000000000000000000000000000000000000081526004016108ed9190614f76565b50611cab85858585612587565b50919392505050565b60035473ffffffffffffffffffffffffffffffffffffffff163314611d35576040517f08c379a000000000000000000000000000000000000000000000000000000000815260206004820181905260248201527f4f776e61626c653a2063616c6c6572206973206e6f7420746865206f776e657260448201526064016108ed565b600f805460ff909216640100000000027fffffffffffffffffffffffffffffffffffffffffffffffffffffff00ffffffff909216919091179055565b60035473ffffffffffffffffffffffffffffffffffffffff163314611df2576040517f08c379a000000000000000000000000000000000000000000000000000000000815260206004820181905260248201527f4f776e61626c653a2063616c6c6572206973206e6f7420746865206f776e657260448201526064016108ed565b600f805460ff909216610100027fffffffffffffffffffffffffffffffffffffffffffffffffffffffffffff00ff909216919091179055565b3360009081526007602052604090205460ff16611ea4576040517f08c379a000000000000000000000000000000000000000000000000000000000815260206004820181905260248201527f4d7573742062652076616c696420617070726f76616c2077686974656c69737460448201526064016108ed565b600081815260046020526040902054611f19576040517f08c379a000000000000000000000000000000000000000000000000000000000815260206004820152601560248201527f4d7573742062652076616c696420746f6b656e4964000000000000000000000060448201526064016108ed565b60008181526010602052604090205460ff1615611f92576040517f08c379a000000000000000000000000000000000000000000000000000000000815260206004820152601860248201527f546f6b656e2068617320616c7265616479206c6f636b6564000000000000000060448201526064016108ed565b600090815260106020526040902080547fffffffffffffffffffffffffffffffffffffffffffffffffffffffffffffff00166001179055565b73ffffffffffffffffffffffffffffffffffffffff811660009081526007602052604081205460ff1615156001141561200657506001610926565b73ffffffffffffffffffffffffffffffffffffffff80841660009081526001602090815260408083209386168352929052205460ff165b9392505050565b73ffffffffffffffffffffffffffffffffffffffff851633148061206d575061206d8533611fcb565b6120f9576040517f08c379a000000000000000000000000000000000000000000000000000000000815260206004820152602960248201527f455243313135353a2063616c6c6572206973206e6f74206f776e6572206e6f7260448201527f20617070726f766564000000000000000000000000000000000000000000000060648201526084016108ed565b610e9485858585856136f5565b60035473ffffffffffffffffffffffffffffffffffffffff163314612187576040517f08c379a000000000000000000000000000000000000000000000000000000000815260206004820181905260248201527f4f776e61626c653a2063616c6c6572206973206e6f7420746865206f776e657260448201526064016108ed565b73ffffffffffffffffffffffffffffffffffffffff811661222a576040517f08c379a000000000000000000000000000000000000000000000000000000000815260206004820152602660248201527f4f776e61626c653a206e6577206f776e657220697320746865207a65726f206160448201527f646472657373000000000000000000000000000000000000000000000000000060648201526084016108ed565b6109c1816131fb565b73ffffffffffffffffffffffffffffffffffffffff831633148061225c575061225c8333611fcb565b6122e8576040517f08c379a000000000000000000000000000000000000000000000000000000000815260206004820152602960248201527f455243313135353a2063616c6c6572206973206e6f74206f776e6572206e6f7260448201527f20617070726f766564000000000000000000000000000000000000000000000060648201526084016108ed565b61141f8383836134d7565b60007fffffffff0000000000000000000000000000000000000000000000000000000082167fd9b67a2600000000000000000000000000000000000000000000000000000000148061238657507fffffffff0000000000000000000000000000000000000000000000000000000082167f0e89341c00000000000000000000000000000000000000000000000000000000145b8061092657507f01ffc9a7000000000000000000000000000000000000000000000000000000007fffffffff00000000000000000000000000000000000000000000000000000000831614610926565b80516117fb906002906020840190614393565b60608161242957505060408051808201909152600181527f3000000000000000000000000000000000000000000000000000000000000000602082015290565b8160005b8115612453578061243d81615174565b915061244c9050600a8361507e565b915061242d565b60008167ffffffffffffffff81111561246e5761246e61524e565b6040519080825280601f01601f191660200182016040528015612498576020820181803683370190505b5090505b841561251b576124ad600183615092565b91506124ba600a866151ad565b6124c5906030615066565b60f81b8183815181106124da576124da61521f565b60200101907effffffffffffffffffffffffffffffffffffffffffffffffffffffffffffff1916908160001a905350612514600a8661507e565b945061249c565b949350505050565b6000828152600660209081526040909120825161254292840190614393565b50817f6bb7ff708619ba0610cba295a58592e0451dee2622938c8755667688daf3529b61256e84610d34565b60405161257b9190614f76565b60405180910390a25050565b73ffffffffffffffffffffffffffffffffffffffff841661262a576040517f08c379a000000000000000000000000000000000000000000000000000000000815260206004820152602160248201527f455243313135353a206d696e7420746f20746865207a65726f2061646472657360448201527f730000000000000000000000000000000000000000000000000000000000000060648201526084016108ed565b33600061263685613941565b9050600061264385613941565b90506126548360008985858961398c565b60008681526020818152604080832073ffffffffffffffffffffffffffffffffffffffff8b16845290915281208054879290612691908490615066565b9091555050604080518781526020810187905273ffffffffffffffffffffffffffffffffffffffff808a1692600092918716917fc3d58168c5ae7397731d063d5bbf3d657854427343f4c083240f7aacaa2d0f62910160405180910390a46126fe83600089898989613ad9565b50505050505050565b600081815260066020526040812080546060929190612725906150d5565b80601f0160208091040260200160405190810160405280929190818152602001828054612751906150d5565b801561279e5780601f106127735761010080835404028352916020019161279e565b820191906000526020600020905b81548152906001019060200180831161278157829003601f168201915b5050505050905060008151116127bc576127b783613d73565b61203d565b6005816040516020016127d0929190614ce0565b6040516020818303038152906040529392505050565b73ffffffffffffffffffffffffffffffffffffffff8416612889576040517f08c379a000000000000000000000000000000000000000000000000000000000815260206004820152602160248201527f455243313135353a206d696e7420746f20746865207a65726f2061646472657360448201527f730000000000000000000000000000000000000000000000000000000000000060648201526084016108ed565b815183511461291a576040517f08c379a000000000000000000000000000000000000000000000000000000000815260206004820152602860248201527f455243313135353a2069647320616e6420616d6f756e7473206c656e6774682060448201527f6d69736d6174636800000000000000000000000000000000000000000000000060648201526084016108ed565b3361292a8160008787878761398c565b60005b84518110156129df578381815181106129485761294861521f565b60200260200101516000808784815181106129655761296561521f565b6020026020010151815260200190815260200160002060008873ffffffffffffffffffffffffffffffffffffffff1673ffffffffffffffffffffffffffffffffffffffff16815260200190815260200160002060008282546129c79190615066565b909155508190506129d781615174565b91505061292d565b508473ffffffffffffffffffffffffffffffffffffffff16600073ffffffffffffffffffffffffffffffffffffffff168273ffffffffffffffffffffffffffffffffffffffff167f4a39dc06d4c0dbc64b70af90fd698a233a518aa5d07e595d983b8c0526c8f7fb8787604051612a57929190614f51565b60405180910390a4610e9481600087878787613e07565b8151835114612aff576040517f08c379a000000000000000000000000000000000000000000000000000000000815260206004820152602860248201527f455243313135353a2069647320616e6420616d6f756e7473206c656e6774682060448201527f6d69736d6174636800000000000000000000000000000000000000000000000060648201526084016108ed565b73ffffffffffffffffffffffffffffffffffffffff8416612ba2576040517f08c379a000000000000000000000000000000000000000000000000000000000815260206004820152602560248201527f455243313135353a207472616e7366657220746f20746865207a65726f20616460448201527f647265737300000000000000000000000000000000000000000000000000000060648201526084016108ed565b33612bb181878787878761398c565b60005b8451811015612d21576000858281518110612bd157612bd161521f565b602002602001015190506000858381518110612bef57612bef61521f565b6020908102919091018101516000848152808352604080822073ffffffffffffffffffffffffffffffffffffffff8e168352909352919091205490915081811015612cbc576040517f08c379a000000000000000000000000000000000000000000000000000000000815260206004820152602a60248201527f455243313135353a20696e73756666696369656e742062616c616e636520666f60448201527f72207472616e736665720000000000000000000000000000000000000000000060648201526084016108ed565b60008381526020818152604080832073ffffffffffffffffffffffffffffffffffffffff8e8116855292528083208585039055908b16825281208054849290612d06908490615066565b9250508190555050505080612d1a90615174565b9050612bb4565b508473ffffffffffffffffffffffffffffffffffffffff168673ffffffffffffffffffffffffffffffffffffffff168273ffffffffffffffffffffffffffffffffffffffff167f4a39dc06d4c0dbc64b70af90fd698a233a518aa5d07e595d983b8c0526c8f7fb8787604051612d98929190614f51565b60405180910390a4612dae818787878787613e07565b505050505050565b60035474010000000000000000000000000000000000000000900460ff16612e3a576040517f08c379a000000000000000000000000000000000000000000000000000000000815260206004820152601460248201527f5061757361626c653a206e6f742070617573656400000000000000000000000060448201526064016108ed565b600380547fffffffffffffffffffffff00ffffffffffffffffffffffffffffffffffffffff1690557f5db9ee0a495bf2e6ff9c91a7834c1ba4fdd244a5e8aa4e537bd38aeae4b073aa335b60405173ffffffffffffffffffffffffffffffffffffffff909116815260200160405180910390a1565b80516117fb906005906020840190614393565b73ffffffffffffffffffffffffffffffffffffffff8316612f65576040517f08c379a000000000000000000000000000000000000000000000000000000000815260206004820152602360248201527f455243313135353a206275726e2066726f6d20746865207a65726f206164647260448201527f657373000000000000000000000000000000000000000000000000000000000060648201526084016108ed565b8051825114612ff6576040517f08c379a000000000000000000000000000000000000000000000000000000000815260206004820152602860248201527f455243313135353a2069647320616e6420616d6f756e7473206c656e6774682060448201527f6d69736d6174636800000000000000000000000000000000000000000000000060648201526084016108ed565b60003390506130198185600086866040518060200160405280600081525061398c565b60005b83518110156131675760008482815181106130395761303961521f565b6020026020010151905060008483815181106130575761305761521f565b6020908102919091018101516000848152808352604080822073ffffffffffffffffffffffffffffffffffffffff8c168352909352919091205490915081811015613123576040517f08c379a0000000000000000000000000000000000000000000000000000000008152602060048201526024808201527f455243313135353a206275726e20616d6f756e7420657863656564732062616c60448201527f616e63650000000000000000000000000000000000000000000000000000000060648201526084016108ed565b60009283526020838152604080852073ffffffffffffffffffffffffffffffffffffffff8b168652909152909220910390558061315f81615174565b91505061301c565b50600073ffffffffffffffffffffffffffffffffffffffff168473ffffffffffffffffffffffffffffffffffffffff168273ffffffffffffffffffffffffffffffffffffffff167f4a39dc06d4c0dbc64b70af90fd698a233a518aa5d07e595d983b8c0526c8f7fb86866040516131df929190614f51565b60405180910390a4604080516020810190915260009052610dcc565b6003805473ffffffffffffffffffffffffffffffffffffffff8381167fffffffffffffffffffffffff0000000000000000000000000000000000000000831681179093556040519116919082907f8be0079c531659141344cd1fd0a4f28419497f9722a3daafe3b4186f6b6457e090600090a35050565b60035474010000000000000000000000000000000000000000900460ff16156132f7576040517f08c379a000000000000000000000000000000000000000000000000000000000815260206004820152601060248201527f5061757361626c653a207061757365640000000000000000000000000000000060448201526064016108ed565b600380547fffffffffffffffffffffff00ffffffffffffffffffffffffffffffffffffffff16740100000000000000000000000000000000000000001790557f62e78cea01bee320cd4e420270b5ea74000d11b0c9f74754ebdbfc544b05a258612e853390565b8173ffffffffffffffffffffffffffffffffffffffff168373ffffffffffffffffffffffffffffffffffffffff16141561341a576040517f08c379a000000000000000000000000000000000000000000000000000000000815260206004820152602960248201527f455243313135353a2073657474696e6720617070726f76616c2073746174757360448201527f20666f722073656c66000000000000000000000000000000000000000000000060648201526084016108ed565b73ffffffffffffffffffffffffffffffffffffffff83811660008181526001602090815260408083209487168084529482529182902080547fffffffffffffffffffffffffffffffffffffffffffffffffffffffffffffff001686151590811790915591519182527f17307eab39ab6107e8899845ad3d59bd9653f200f220920489ca2b5937696c31910160405180910390a3505050565b606061203d838360405180606001604052806027815260200161537060279139613fc3565b73ffffffffffffffffffffffffffffffffffffffff831661357a576040517f08c379a000000000000000000000000000000000000000000000000000000000815260206004820152602360248201527f455243313135353a206275726e2066726f6d20746865207a65726f206164647260448201527f657373000000000000000000000000000000000000000000000000000000000060648201526084016108ed565b33600061358684613941565b9050600061359384613941565b90506135b38387600085856040518060200160405280600081525061398c565b60008581526020818152604080832073ffffffffffffffffffffffffffffffffffffffff8a16845290915290205484811015613670576040517f08c379a0000000000000000000000000000000000000000000000000000000008152602060048201526024808201527f455243313135353a206275726e20616d6f756e7420657863656564732062616c60448201527f616e63650000000000000000000000000000000000000000000000000000000060648201526084016108ed565b60008681526020818152604080832073ffffffffffffffffffffffffffffffffffffffff8b81168086529184528285208a8703905582518b81529384018a90529092908816917fc3d58168c5ae7397731d063d5bbf3d657854427343f4c083240f7aacaa2d0f62910160405180910390a46040805160208101909152600090526126fe565b73ffffffffffffffffffffffffffffffffffffffff8416613798576040517f08c379a000000000000000000000000000000000000000000000000000000000815260206004820152602560248201527f455243313135353a207472616e7366657220746f20746865207a65726f20616460448201527f647265737300000000000000000000000000000000000000000000000000000060648201526084016108ed565b3360006137a485613941565b905060006137b185613941565b90506137c183898985858961398c565b60008681526020818152604080832073ffffffffffffffffffffffffffffffffffffffff8c1684529091529020548581101561387f576040517f08c379a000000000000000000000000000000000000000000000000000000000815260206004820152602a60248201527f455243313135353a20696e73756666696369656e742062616c616e636520666f60448201527f72207472616e736665720000000000000000000000000000000000000000000060648201526084016108ed565b60008781526020818152604080832073ffffffffffffffffffffffffffffffffffffffff8d8116855292528083208985039055908a168252812080548892906138c9908490615066565b9091555050604080518881526020810188905273ffffffffffffffffffffffffffffffffffffffff808b16928c821692918816917fc3d58168c5ae7397731d063d5bbf3d657854427343f4c083240f7aacaa2d0f62910160405180910390a4613936848a8a8a8a8a613ad9565b505050505050505050565b6040805160018082528183019092526060916000919060208083019080368337019050509050828160008151811061397b5761397b61521f565b602090810291909101015292915050565b60035474010000000000000000000000000000000000000000900460ff1615613a11576040517f08c379a000000000000000000000000000000000000000000000000000000000815260206004820152601060248201527f5061757361626c653a207061757365640000000000000000000000000000000060448201526064016108ed565b60005b8351811015613aca5760106000858381518110613a3357613a3361521f565b60209081029190910181015182528101919091526040016000205460ff1615613ab8576040517f08c379a000000000000000000000000000000000000000000000000000000000815260206004820152601d60248201527f43616e206e6f74207472616e73666572206c6f636b656420746f6b656e00000060448201526064016108ed565b80613ac281615174565b915050613a14565b50612dae8686868686866140eb565b73ffffffffffffffffffffffffffffffffffffffff84163b15612dae576040517ff23a6e6100000000000000000000000000000000000000000000000000000000815273ffffffffffffffffffffffffffffffffffffffff85169063f23a6e6190613b509089908990889088908890600401614e6e565b602060405180830381600087803b158015613b6a57600080fd5b505af1925050508015613bb8575060408051601f3d9081017fffffffffffffffffffffffffffffffffffffffffffffffffffffffffffffffe0168201909252613bb591810190614b36565b60015b613ca257613bc461527d565b806308c379a01415613c185750613bd9615299565b80613be45750613c1a565b806040517f08c379a00000000000000000000000000000000000000000000000000000000081526004016108ed9190614f76565b505b6040517f08c379a000000000000000000000000000000000000000000000000000000000815260206004820152603460248201527f455243313135353a207472616e7366657220746f206e6f6e204552433131353560448201527f526563656976657220696d706c656d656e74657200000000000000000000000060648201526084016108ed565b7fffffffff0000000000000000000000000000000000000000000000000000000081167ff23a6e6100000000000000000000000000000000000000000000000000000000146126fe576040517f08c379a000000000000000000000000000000000000000000000000000000000815260206004820152602860248201527f455243313135353a204552433131353552656365697665722072656a6563746560448201527f6420746f6b656e7300000000000000000000000000000000000000000000000060648201526084016108ed565b606060028054613d82906150d5565b80601f0160208091040260200160405190810160405280929190818152602001828054613dae906150d5565b8015613dfb5780601f10613dd057610100808354040283529160200191613dfb565b820191906000526020600020905b815481529060010190602001808311613dde57829003601f168201915b50505050509050919050565b73ffffffffffffffffffffffffffffffffffffffff84163b15612dae576040517fbc197c8100000000000000000000000000000000000000000000000000000000815273ffffffffffffffffffffffffffffffffffffffff85169063bc197c8190613e7e9089908990889088908890600401614e03565b602060405180830381600087803b158015613e9857600080fd5b505af1925050508015613ee6575060408051601f3d9081017fffffffffffffffffffffffffffffffffffffffffffffffffffffffffffffffe0168201909252613ee391810190614b36565b60015b613ef257613bc461527d565b7fffffffff0000000000000000000000000000000000000000000000000000000081167fbc197c8100000000000000000000000000000000000000000000000000000000146126fe576040517f08c379a000000000000000000000000000000000000000000000000000000000815260206004820152602860248201527f455243313135353a204552433131353552656365697665722072656a6563746560448201527f6420746f6b656e7300000000000000000000000000000000000000000000000060648201526084016108ed565b606073ffffffffffffffffffffffffffffffffffffffff84163b614069576040517f08c379a000000000000000000000000000000000000000000000000000000000815260206004820152602660248201527f416464726573733a2064656c65676174652063616c6c20746f206e6f6e2d636f60448201527f6e7472616374000000000000000000000000000000000000000000000000000060648201526084016108ed565b6000808573ffffffffffffffffffffffffffffffffffffffff16856040516140919190614cc4565b600060405180830381855af49150503d80600081146140cc576040519150601f19603f3d011682016040523d82523d6000602084013e6140d1565b606091505b50915091506140e182828661417e565b9695505050505050565b60035474010000000000000000000000000000000000000000900460ff1615614170576040517f08c379a000000000000000000000000000000000000000000000000000000000815260206004820152601060248201527f5061757361626c653a207061757365640000000000000000000000000000000060448201526064016108ed565b612dae8686868686866141d1565b6060831561418d57508161203d565b82511561419d5782518084602001fd5b816040517f08c379a00000000000000000000000000000000000000000000000000000000081526004016108ed9190614f76565b73ffffffffffffffffffffffffffffffffffffffff85166142655760005b83518110156142635782818151811061420a5761420a61521f565b6020026020010151600460008684815181106142285761422861521f565b60200260200101518152602001908152602001600020600082825461424d9190615066565b9091555061425c905081615174565b90506141ef565b505b73ffffffffffffffffffffffffffffffffffffffff8416612dae5760005b83518110156126fe5760008482815181106142a0576142a061521f565b6020026020010151905060008483815181106142be576142be61521f565b6020026020010151905060006004600084815260200190815260200160002054905081811015614370576040517f08c379a000000000000000000000000000000000000000000000000000000000815260206004820152602860248201527f455243313135353a206275726e20616d6f756e74206578636565647320746f7460448201527f616c537570706c7900000000000000000000000000000000000000000000000060648201526084016108ed565b6000928352600460205260409092209103905561438c81615174565b9050614283565b82805461439f906150d5565b90600052602060002090601f0160209004810192826143c15760008555614407565b82601f106143da57805160ff1916838001178555614407565b82800160010185558215614407579182015b828111156144075782518255916020019190600101906143ec565b50614413929150614417565b5090565b5b808211156144135760008155600101614418565b803573ffffffffffffffffffffffffffffffffffffffff8116811461445057600080fd5b919050565b60008083601f84011261446757600080fd5b50813567ffffffffffffffff81111561447f57600080fd5b6020830191508360208260051b850101111561449a57600080fd5b9250929050565b600082601f8301126144b257600080fd5b813560206144bf82615042565b6040516144cc8282615129565b8381528281019150858301600585901b870184018810156144ec57600080fd5b60005b8581101561450b578135845292840192908401906001016144ef565b5090979650505050505050565b600082601f83011261452957600080fd5b813567ffffffffffffffff8111156145435761454361524e565b60405161457860207fffffffffffffffffffffffffffffffffffffffffffffffffffffffffffffffe0601f8501160182615129565b81815284602083860101111561458d57600080fd5b816020850160208301376000918101602001919091529392505050565b6000602082840312156145bc57600080fd5b61203d8261442c565b600080604083850312156145d857600080fd5b6145e18361442c565b91506145ef6020840161442c565b90509250929050565b600080600080600060a0868803121561461057600080fd5b6146198661442c565b94506146276020870161442c565b9350604086013567ffffffffffffffff8082111561464457600080fd5b61465089838a016144a1565b9450606088013591508082111561466657600080fd5b61467289838a016144a1565b9350608088013591508082111561468857600080fd5b5061469588828901614518565b9150509295509295909350565b600080600080600060a086880312156146ba57600080fd5b6146c38661442c565b94506146d16020870161442c565b93506040860135925060608601359150608086013567ffffffffffffffff8111156146fb57600080fd5b61469588828901614518565b60008060006060848603121561471c57600080fd5b6147258461442c565b9250602084013567ffffffffffffffff8082111561474257600080fd5b61474e878388016144a1565b9350604086013591508082111561476457600080fd5b50614771868287016144a1565b9150509250925092565b6000806000806080858703121561479157600080fd5b61479a8561442c565b9350602085013567ffffffffffffffff808211156147b757600080fd5b6147c3888389016144a1565b945060408701359150808211156147d957600080fd5b6147e5888389016144a1565b935060608701359150808211156147fb57600080fd5b5061480887828801614518565b91505092959194509250565b6000806040838503121561482757600080fd5b6148308361442c565b91506020830135801515811461484557600080fd5b809150509250929050565b60008060008060006080868803121561486857600080fd5b6148718661442c565b9450602086013567ffffffffffffffff8082111561488e57600080fd5b818801915088601f8301126148a257600080fd5b8135818111156148b157600080fd5b8960208285010111156148c357600080fd5b6020830196508095505060408801359350606088013591508082111561468857600080fd5b600080604083850312156148fb57600080fd5b6149048361442c565b946020939093013593505050565b60008060006060848603121561492757600080fd5b6149308461442c565b95602085013595506040909401359392505050565b6000806000806080858703121561495b57600080fd5b6149648561442c565b93506020850135925060408501359150606085013567ffffffffffffffff81111561498e57600080fd5b61480887828801614518565b600080604083850312156149ad57600080fd5b823567ffffffffffffffff808211156149c557600080fd5b818501915085601f8301126149d957600080fd5b813560206149e682615042565b6040516149f38282615129565b8381528281019150858301600585901b870184018b1015614a1357600080fd5b600096505b84871015614a3d57614a298161442c565b835260019690960195918301918301614a18565b5096505086013592505080821115614a5457600080fd5b50614a61858286016144a1565b9150509250929050565b60008060208385031215614a7e57600080fd5b823567ffffffffffffffff811115614a9557600080fd5b614aa185828601614455565b90969095509350505050565b60008060008060408587031215614ac357600080fd5b843567ffffffffffffffff80821115614adb57600080fd5b614ae788838901614455565b90965094506020870135915080821115614b0057600080fd5b50614b0d87828801614455565b95989497509550505050565b600060208284031215614b2b57600080fd5b813561203d81615341565b600060208284031215614b4857600080fd5b815161203d81615341565b600060208284031215614b6557600080fd5b813567ffffffffffffffff811115614b7c57600080fd5b61251b84828501614518565b600060208284031215614b9a57600080fd5b5035919050565b60008060408385031215614bb457600080fd5b82359150602083013567ffffffffffffffff811115614bd257600080fd5b614a6185828601614518565b60008060408385031215614bf157600080fd5b50508035926020909101359150565b600060208284031215614c1257600080fd5b813560ff8116811461203d57600080fd5b600081518084526020808501945080840160005b83811015614c5357815187529582019590820190600101614c37565b509495945050505050565b60008151808452614c768160208601602086016150a9565b601f017fffffffffffffffffffffffffffffffffffffffffffffffffffffffffffffffe0169290920160200192915050565b60008151614cba8185602086016150a9565b9290920192915050565b60008251614cd68184602087016150a9565b9190910192915050565b600080845481600182811c915080831680614cfc57607f831692505b6020808410821415614d35577f4e487b710000000000000000000000000000000000000000000000000000000086526022600452602486fd5b818015614d495760018114614d7857614da5565b7fffffffffffffffffffffffffffffffffffffffffffffffffffffffffffffff00861689528489019650614da5565b60008b81526020902060005b86811015614d9d5781548b820152908501908301614d84565b505084890196505b505050505050614db58185614ca8565b95945050505050565b7f6372656174653a746f6b656e5f69645f65786973743a20000000000000000000815260008251614df68160178501602087016150a9565b9190910160170192915050565b600073ffffffffffffffffffffffffffffffffffffffff808816835280871660208401525060a06040830152614e3c60a0830186614c23565b8281036060840152614e4e8186614c23565b90508281036080840152614e628185614c5e565b98975050505050505050565b600073ffffffffffffffffffffffffffffffffffffffff808816835280871660208401525084604083015283606083015260a06080830152614eb360a0830184614c5e565b979650505050505050565b6000602080830181845280855180835260408601915060408160051b870101925083870160005b82811015614f31577fffffffffffffffffffffffffffffffffffffffffffffffffffffffffffffffc0888603018452614f1f858351614c5e565b94509285019290850190600101614ee5565b5092979650505050505050565b60208152600061203d6020830184614c23565b604081526000614f646040830185614c23565b8281036020840152614db58185614c23565b60208152600061203d6020830184614c5e565b83815260406020820152816040820152818360608301376000818301606090810191909152601f9092017fffffffffffffffffffffffffffffffffffffffffffffffffffffffffffffffe016010192915050565b60008083357fffffffffffffffffffffffffffffffffffffffffffffffffffffffffffffffe184360301811261501257600080fd5b83018035915067ffffffffffffffff82111561502d57600080fd5b60200191503681900382131561449a57600080fd5b600067ffffffffffffffff82111561505c5761505c61524e565b5060051b60200190565b60008219821115615079576150796151c1565b500190565b60008261508d5761508d6151f0565b500490565b6000828210156150a4576150a46151c1565b500390565b60005b838110156150c45781810151838201526020016150ac565b83811115610dcc5750506000910152565b600181811c908216806150e957607f821691505b60208210811415615123577f4e487b7100000000000000000000000000000000000000000000000000000000600052602260045260246000fd5b50919050565b7fffffffffffffffffffffffffffffffffffffffffffffffffffffffffffffffe0601f830116810181811067ffffffffffffffff8211171561516d5761516d61524e565b6040525050565b60007fffffffffffffffffffffffffffffffffffffffffffffffffffffffffffffffff8214156151a6576151a66151c1565b5060010190565b6000826151bc576151bc6151f0565b500690565b7f4e487b7100000000000000000000000000000000000000000000000000000000600052601160045260246000fd5b7f4e487b7100000000000000000000000000000000000000000000000000000000600052601260045260246000fd5b7f4e487b7100000000000000000000000000000000000000000000000000000000600052603260045260246000fd5b7f4e487b7100000000000000000000000000000000000000000000000000000000600052604160045260246000fd5b600060033d11156152965760046000803e5060005160e01c5b90565b600060443d10156152a75790565b6040517ffffffffffffffffffffffffffffffffffffffffffffffffffffffffffffffffc803d016004833e81513d67ffffffffffffffff81602484011181841117156152f557505050505090565b828501915081518181111561530d5750505050505090565b843d87010160208285010111156153275750505050505090565b61533660208286010187615129565b509095945050505050565b7fffffffff00000000000000000000000000000000000000000000000000000000811681146109c157600080fdfe416464726573733a206c6f772d6c6576656c2064656c65676174652063616c6c206661696c6564a2646970667358221220ef138063a490133a6e4668ecebe07b674b75d206b9db2a195afc3149adde384064736f6c63430008060033",
  "linkReferences": {},
  "deployedLinkReferences": {}
}