{
  "_format": "hh-sol-artifact-1",
  "contractName": "EvenRedeemStrategy",
  "sourceName": "contracts/pools/test/EvenRedeemStrategy.sol",
  "abi": [
    {
      "inputs": [
        {
          "internalType": "address",
          "name": "account",
          "type": "address"
        },
        {
          "internalType": "uint256",
          "name": "nftId",
          "type": "uint256"
        }
      ],
      "name": "canRedeem",
      "outputs": [
        {
          "internalType": "bool",
          "name": "",
          "type": "bool"
        }
      ],
      "stateMutability": "nonpayable",
      "type": "function"
    }
  ],
  "bytecode": "0x608060405234801561001057600080fd5b50610112806100206000396000f3fe6080604052348015600f57600080fd5b506004361060285760003560e01c8063cc1f8ffa14602d575b600080fd5b603c60383660046063565b6050565b604051901515815260200160405180910390f35b6000605b60028360a4565b159392505050565b600080604083850312156074578182fd5b823573ffffffffffffffffffffffffffffffffffffffff811681146096578283fd5b946020939093013593505050565b60008260d7577f4e487b710000000000000000000000000000000000000000000000000000000081526012600452602481fd5b50069056fea26469706673582212207e7ca94ab33f8925c1026fd01d82cd232b933e448dee12b1b8c8339539429e5164736f6c63430008030033",
  "linkReferences": {},
  "deployedLinkReferences": {}
}