{
  "_format": "hh-sol-artifact-1",
  "contractName": "CreatureAccessory",
  "sourceName": "contracts/nft/tokens/CreatureAccessory.sol",
  "abi": [
    {
      "inputs": [
        {
          "internalType": "address",
          "name": "_proxyRegistryAddress",
          "type": "address"
        }
      ],
      "stateMutability": "nonpayable",
      "type": "constructor"
    },
    {
      "anonymous": false,
      "inputs": [
        {
          "indexed": true,
          "internalType": "address",
          "name": "account",
          "type": "address"
        },
        {
          "indexed": true,
          "internalType": "address",
          "name": "operator",
          "type": "address"
        },
        {
          "indexed": false,
          "internalType": "bool",
          "name": "approved",
          "type": "bool"
        }
      ],
      "name": "ApprovalForAll",
      "type": "event"
    },
    {
      "anonymous": false,
      "inputs": [
        {
          "indexed": true,
          "internalType": "address",
          "name": "factory",
          "type": "address"
        }
      ],
      "name": "FactoryActivation",
      "type": "event"
    },
    {
      "anonymous": false,
      "inputs": [
        {
          "indexed": true,
          "internalType": "address",
          "name": "factory",
          "type": "address"
        }
      ],
      "name": "FactoryShutdown",
      "type": "event"
    },
    {
      "anonymous": false,
      "inputs": [
        {
          "indexed": false,
          "internalType": "uint256[]",
          "name": "ids",
          "type": "uint256[]"
        },
        {
          "indexed": false,
          "internalType": "uint256[]",
          "name": "newMaxIssuances",
          "type": "uint256[]"
        }
      ],
      "name": "MaxIssuancesChanged",
      "type": "event"
    },
    {
      "anonymous": false,
      "inputs": [
        {
          "indexed": true,
          "internalType": "address",
          "name": "factory",
          "type": "address"
        },
        {
          "components": [
            {
              "internalType": "uint64",
              "name": "minID",
              "type": "uint64"
            },
            {
              "internalType": "uint64",
              "name": "maxID",
              "type": "uint64"
            },
            {
              "internalType": "uint64",
              "name": "startTime",
              "type": "uint64"
            },
            {
              "internalType": "uint64",
              "name": "endTime",
              "type": "uint64"
            }
          ],
          "indexed": false,
          "internalType": "struct AssetRangeStruct.AssetRange",
          "name": "new_range",
          "type": "tuple"
        }
      ],
      "name": "MintPermissionAdded",
      "type": "event"
    },
    {
      "anonymous": false,
      "inputs": [
        {
          "indexed": true,
          "internalType": "address",
          "name": "factory",
          "type": "address"
        },
        {
          "components": [
            {
              "internalType": "uint64",
              "name": "minID",
              "type": "uint64"
            },
            {
              "internalType": "uint64",
              "name": "maxID",
              "type": "uint64"
            },
            {
              "internalType": "uint64",
              "name": "startTime",
              "type": "uint64"
            },
            {
              "internalType": "uint64",
              "name": "endTime",
              "type": "uint64"
            }
          ],
          "indexed": false,
          "internalType": "struct AssetRangeStruct.AssetRange",
          "name": "deleted_range",
          "type": "tuple"
        }
      ],
      "name": "MintPermissionRemoved",
      "type": "event"
    },
    {
      "anonymous": false,
      "inputs": [
        {
          "indexed": true,
          "internalType": "address",
          "name": "previousOwner",
          "type": "address"
        },
        {
          "indexed": true,
          "internalType": "address",
          "name": "newOwner",
          "type": "address"
        }
      ],
      "name": "OwnershipTransferred",
      "type": "event"
    },
    {
      "anonymous": false,
      "inputs": [
        {
          "indexed": false,
          "internalType": "address",
          "name": "account",
          "type": "address"
        }
      ],
      "name": "Paused",
      "type": "event"
    },
    {
      "anonymous": false,
      "inputs": [
        {
          "components": [
            {
              "internalType": "uint64",
              "name": "minID",
              "type": "uint64"
            },
            {
              "internalType": "uint64",
              "name": "maxID",
              "type": "uint64"
            },
            {
              "internalType": "uint64",
              "name": "startTime",
              "type": "uint64"
            },
            {
              "internalType": "uint64",
              "name": "endTime",
              "type": "uint64"
            }
          ],
          "indexed": false,
          "internalType": "struct AssetRangeStruct.AssetRange",
          "name": "locked_range",
          "type": "tuple"
        }
      ],
      "name": "RangeLocked",
      "type": "event"
    },
    {
      "anonymous": false,
      "inputs": [
        {
          "indexed": true,
          "internalType": "address",
          "name": "operator",
          "type": "address"
        },
        {
          "indexed": true,
          "internalType": "address",
          "name": "from",
          "type": "address"
        },
        {
          "indexed": true,
          "internalType": "address",
          "name": "to",
          "type": "address"
        },
        {
          "indexed": false,
          "internalType": "uint256[]",
          "name": "ids",
          "type": "uint256[]"
        },
        {
          "indexed": false,
          "internalType": "uint256[]",
          "name": "values",
          "type": "uint256[]"
        }
      ],
      "name": "TransferBatch",
      "type": "event"
    },
    {
      "anonymous": false,
      "inputs": [
        {
          "indexed": true,
          "internalType": "address",
          "name": "operator",
          "type": "address"
        },
        {
          "indexed": true,
          "internalType": "address",
          "name": "from",
          "type": "address"
        },
        {
          "indexed": true,
          "internalType": "address",
          "name": "to",
          "type": "address"
        },
        {
          "indexed": false,
          "internalType": "uint256",
          "name": "id",
          "type": "uint256"
        },
        {
          "indexed": false,
          "internalType": "uint256",
          "name": "value",
          "type": "uint256"
        }
      ],
      "name": "TransferSingle",
      "type": "event"
    },
    {
      "anonymous": false,
      "inputs": [
        {
          "indexed": false,
          "internalType": "string",
          "name": "value",
          "type": "string"
        },
        {
          "indexed": true,
          "internalType": "uint256",
          "name": "id",
          "type": "uint256"
        }
      ],
      "name": "URI",
      "type": "event"
    },
    {
      "anonymous": false,
      "inputs": [
        {
          "indexed": false,
          "internalType": "address",
          "name": "account",
          "type": "address"
        }
      ],
      "name": "Unpaused",
      "type": "event"
    },
    {
      "stateMutability": "nonpayable",
      "type": "fallback"
    },
    {
      "inputs": [
        {
          "internalType": "address",
          "name": "_factory",
          "type": "address"
        }
      ],
      "name": "activateFactory",
      "outputs": [],
      "stateMutability": "nonpayable",
      "type": "function"
    },
    {
      "inputs": [
        {
          "internalType": "address",
          "name": "_factory",
          "type": "address"
        },
        {
          "internalType": "uint64",
          "name": "_minRange",
          "type": "uint64"
        },
        {
          "internalType": "uint64",
          "name": "_maxRange",
          "type": "uint64"
        },
        {
          "internalType": "uint64",
          "name": "_startTime",
          "type": "uint64"
        },
        {
          "internalType": "uint64",
          "name": "_endTime",
          "type": "uint64"
        }
      ],
      "name": "addMintPermission",
      "outputs": [],
      "stateMutability": "nonpayable",
      "type": "function"
    },
    {
      "inputs": [
        {
          "internalType": "address",
          "name": "account",
          "type": "address"
        },
        {
          "internalType": "uint256",
          "name": "id",
          "type": "uint256"
        }
      ],
      "name": "balanceOf",
      "outputs": [
        {
          "internalType": "uint256",
          "name": "",
          "type": "uint256"
        }
      ],
      "stateMutability": "view",
      "type": "function"
    },
    {
      "inputs": [
        {
          "internalType": "address[]",
          "name": "accounts",
          "type": "address[]"
        },
        {
          "internalType": "uint256[]",
          "name": "ids",
          "type": "uint256[]"
        }
      ],
      "name": "balanceOfBatch",
      "outputs": [
        {
          "internalType": "uint256[]",
          "name": "",
          "type": "uint256[]"
        }
      ],
      "stateMutability": "view",
      "type": "function"
    },
    {
      "inputs": [
        {
          "internalType": "uint256",
          "name": "_id",
          "type": "uint256"
        },
        {
          "internalType": "uint256",
          "name": "_amount",
          "type": "uint256"
        }
      ],
      "name": "burn",
      "outputs": [],
      "stateMutability": "nonpayable",
      "type": "function"
    },
    {
      "inputs": [
        {
          "internalType": "address",
          "name": "account",
          "type": "address"
        },
        {
          "internalType": "uint256",
          "name": "id",
          "type": "uint256"
        },
        {
          "internalType": "uint256",
          "name": "value",
          "type": "uint256"
        }
      ],
      "name": "burn",
      "outputs": [],
      "stateMutability": "nonpayable",
      "type": "function"
    },
    {
      "inputs": [
        {
          "internalType": "address",
          "name": "account",
          "type": "address"
        },
        {
          "internalType": "uint256[]",
          "name": "ids",
          "type": "uint256[]"
        },
        {
          "internalType": "uint256[]",
          "name": "values",
          "type": "uint256[]"
        }
      ],
      "name": "burnBatch",
      "outputs": [],
      "stateMutability": "nonpayable",
      "type": "function"
    },
    {
      "inputs": [
        {
          "internalType": "uint256[]",
          "name": "_ids",
          "type": "uint256[]"
        },
        {
          "internalType": "uint256[]",
          "name": "_amounts",
          "type": "uint256[]"
        }
      ],
      "name": "burnBatch",
      "outputs": [],
      "stateMutability": "nonpayable",
      "type": "function"
    },
    {
      "inputs": [],
      "name": "contractURI",
      "outputs": [
        {
          "internalType": "string",
          "name": "",
          "type": "string"
        }
      ],
      "stateMutability": "pure",
      "type": "function"
    },
    {
      "inputs": [
        {
          "internalType": "address",
          "name": "_initialOwner",
          "type": "address"
        },
        {
          "internalType": "uint256",
          "name": "_id",
          "type": "uint256"
        },
        {
          "internalType": "uint256",
          "name": "_initialSupply",
          "type": "uint256"
        },
        {
          "internalType": "bytes",
          "name": "_data",
          "type": "bytes"
        }
      ],
      "name": "create",
      "outputs": [
        {
          "internalType": "uint256",
          "name": "",
          "type": "uint256"
        }
      ],
      "stateMutability": "nonpayable",
      "type": "function"
    },
    {
      "inputs": [
        {
          "internalType": "uint256",
          "name": "",
          "type": "uint256"
        }
      ],
      "name": "creators",
      "outputs": [
        {
          "internalType": "address",
          "name": "",
          "type": "address"
        }
      ],
      "stateMutability": "view",
      "type": "function"
    },
    {
      "inputs": [
        {
          "components": [
            {
              "internalType": "address",
              "name": "from",
              "type": "address"
            },
            {
              "internalType": "address",
              "name": "to",
              "type": "address"
            },
            {
              "internalType": "uint256",
              "name": "value",
              "type": "uint256"
            },
            {
              "internalType": "uint256",
              "name": "gas",
              "type": "uint256"
            },
            {
              "internalType": "uint256",
              "name": "nonce",
              "type": "uint256"
            },
            {
              "internalType": "bytes",
              "name": "data",
              "type": "bytes"
            }
          ],
          "internalType": "struct MinimalForwarder.ForwardRequest",
          "name": "req",
          "type": "tuple"
        },
        {
          "internalType": "bytes",
          "name": "signature",
          "type": "bytes"
        }
      ],
      "name": "execute",
      "outputs": [
        {
          "internalType": "bool",
          "name": "",
          "type": "bool"
        },
        {
          "internalType": "bytes",
          "name": "",
          "type": "bytes"
        }
      ],
      "stateMutability": "payable",
      "type": "function"
    },
    {
      "inputs": [
        {
          "internalType": "uint256",
          "name": "id",
          "type": "uint256"
        }
      ],
      "name": "exists",
      "outputs": [
        {
          "internalType": "bool",
          "name": "",
          "type": "bool"
        }
      ],
      "stateMutability": "view",
      "type": "function"
    },
    {
      "inputs": [
        {
          "internalType": "uint256[]",
          "name": "_ids",
          "type": "uint256[]"
        }
      ],
      "name": "getCurrentIssuances",
      "outputs": [
        {
          "internalType": "uint256[]",
          "name": "",
          "type": "uint256[]"
        }
      ],
      "stateMutability": "view",
      "type": "function"
    },
    {
      "inputs": [
        {
          "internalType": "address",
          "name": "_factory",
          "type": "address"
        }
      ],
      "name": "getFactoryAccessRanges",
      "outputs": [
        {
          "components": [
            {
              "internalType": "uint64",
              "name": "minID",
              "type": "uint64"
            },
            {
              "internalType": "uint64",
              "name": "maxID",
              "type": "uint64"
            },
            {
              "internalType": "uint64",
              "name": "startTime",
              "type": "uint64"
            },
            {
              "internalType": "uint64",
              "name": "endTime",
              "type": "uint64"
            }
          ],
          "internalType": "struct AssetRangeStruct.AssetRange[]",
          "name": "",
          "type": "tuple[]"
        }
      ],
      "stateMutability": "view",
      "type": "function"
    },
    {
      "inputs": [
        {
          "internalType": "address",
          "name": "_factory",
          "type": "address"
        }
      ],
      "name": "getFactoryStatus",
      "outputs": [
        {
          "internalType": "bool",
          "name": "",
          "type": "bool"
        }
      ],
      "stateMutability": "view",
      "type": "function"
    },
    {
      "inputs": [],
      "name": "getLockedRanges",
      "outputs": [
        {
          "components": [
            {
              "internalType": "uint64",
              "name": "minID",
              "type": "uint64"
            },
            {
              "internalType": "uint64",
              "name": "maxID",
              "type": "uint64"
            },
            {
              "internalType": "uint64",
              "name": "startTime",
              "type": "uint64"
            },
            {
              "internalType": "uint64",
              "name": "endTime",
              "type": "uint64"
            }
          ],
          "internalType": "struct AssetRangeStruct.AssetRange[]",
          "name": "",
          "type": "tuple[]"
        }
      ],
      "stateMutability": "view",
      "type": "function"
    },
    {
      "inputs": [
        {
          "internalType": "uint256[]",
          "name": "_ids",
          "type": "uint256[]"
        }
      ],
      "name": "getMaxIssuances",
      "outputs": [
        {
          "internalType": "uint256[]",
          "name": "",
          "type": "uint256[]"
        }
      ],
      "stateMutability": "view",
      "type": "function"
    },
    {
      "inputs": [
        {
          "internalType": "address",
          "name": "from",
          "type": "address"
        }
      ],
      "name": "getNonce",
      "outputs": [
        {
          "internalType": "uint256",
          "name": "",
          "type": "uint256"
        }
      ],
      "stateMutability": "view",
      "type": "function"
    },
    {
      "inputs": [
        {
          "internalType": "address",
          "name": "_owner",
          "type": "address"
        },
        {
          "internalType": "address",
          "name": "_operator",
          "type": "address"
        }
      ],
      "name": "isApprovedForAll",
      "outputs": [
        {
          "internalType": "bool",
          "name": "isOperator",
          "type": "bool"
        }
      ],
      "stateMutability": "view",
      "type": "function"
    },
    {
      "inputs": [
        {
          "components": [
            {
              "internalType": "uint64",
              "name": "minID",
              "type": "uint64"
            },
            {
              "internalType": "uint64",
              "name": "maxID",
              "type": "uint64"
            },
            {
              "internalType": "uint64",
              "name": "startTime",
              "type": "uint64"
            },
            {
              "internalType": "uint64",
              "name": "endTime",
              "type": "uint64"
            }
          ],
          "internalType": "struct AssetRangeStruct.AssetRange",
          "name": "_range",
          "type": "tuple"
        }
      ],
      "name": "lockRangeMintPermissions",
      "outputs": [],
      "stateMutability": "nonpayable",
      "type": "function"
    },
    {
      "inputs": [
        {
          "internalType": "address",
          "name": "_to",
          "type": "address"
        },
        {
          "internalType": "uint256",
          "name": "_id",
          "type": "uint256"
        },
        {
          "internalType": "uint256",
          "name": "_amount",
          "type": "uint256"
        },
        {
          "internalType": "bytes",
          "name": "_data",
          "type": "bytes"
        }
      ],
      "name": "mint",
      "outputs": [],
      "stateMutability": "nonpayable",
      "type": "function"
    },
    {
      "inputs": [
        {
          "internalType": "address",
          "name": "_to",
          "type": "address"
        },
        {
          "internalType": "uint256[]",
          "name": "_ids",
          "type": "uint256[]"
        },
        {
          "internalType": "uint256[]",
          "name": "_amounts",
          "type": "uint256[]"
        },
        {
          "internalType": "bytes",
          "name": "_data",
          "type": "bytes"
        }
      ],
      "name": "mintBatch",
      "outputs": [],
      "stateMutability": "nonpayable",
      "type": "function"
    },
    {
      "inputs": [],
      "name": "name",
      "outputs": [
        {
          "internalType": "string",
          "name": "",
          "type": "string"
        }
      ],
      "stateMutability": "view",
      "type": "function"
    },
    {
      "inputs": [],
      "name": "owner",
      "outputs": [
        {
          "internalType": "address",
          "name": "",
          "type": "address"
        }
      ],
      "stateMutability": "view",
      "type": "function"
    },
    {
      "inputs": [],
      "name": "pause",
      "outputs": [],
      "stateMutability": "nonpayable",
      "type": "function"
    },
    {
      "inputs": [],
      "name": "paused",
      "outputs": [
        {
          "internalType": "bool",
          "name": "",
          "type": "bool"
        }
      ],
      "stateMutability": "view",
      "type": "function"
    },
    {
      "inputs": [
        {
          "internalType": "address",
          "name": "_factory",
          "type": "address"
        },
        {
          "internalType": "uint256",
          "name": "_rangeIndex",
          "type": "uint256"
        }
      ],
      "name": "removeMintPermission",
      "outputs": [],
      "stateMutability": "nonpayable",
      "type": "function"
    },
    {
      "inputs": [],
      "name": "renounceOwnership",
      "outputs": [],
      "stateMutability": "nonpayable",
      "type": "function"
    },
    {
      "inputs": [
        {
          "internalType": "uint256",
          "name": "_tokenId",
          "type": "uint256"
        },
        {
          "internalType": "uint256",
          "name": "_salePrice",
          "type": "uint256"
        }
      ],
      "name": "royaltyInfo",
      "outputs": [
        {
          "internalType": "address",
          "name": "",
          "type": "address"
        },
        {
          "internalType": "uint256",
          "name": "",
          "type": "uint256"
        }
      ],
      "stateMutability": "view",
      "type": "function"
    },
    {
      "inputs": [
        {
          "internalType": "address",
          "name": "from",
          "type": "address"
        },
        {
          "internalType": "address",
          "name": "to",
          "type": "address"
        },
        {
          "internalType": "uint256[]",
          "name": "ids",
          "type": "uint256[]"
        },
        {
          "internalType": "uint256[]",
          "name": "amounts",
          "type": "uint256[]"
        },
        {
          "internalType": "bytes",
          "name": "data",
          "type": "bytes"
        }
      ],
      "name": "safeBatchTransferFrom",
      "outputs": [],
      "stateMutability": "nonpayable",
      "type": "function"
    },
    {
      "inputs": [
        {
          "internalType": "address",
          "name": "from",
          "type": "address"
        },
        {
          "internalType": "address",
          "name": "to",
          "type": "address"
        },
        {
          "internalType": "uint256",
          "name": "id",
          "type": "uint256"
        },
        {
          "internalType": "uint256",
          "name": "amount",
          "type": "uint256"
        },
        {
          "internalType": "bytes",
          "name": "data",
          "type": "bytes"
        }
      ],
      "name": "safeTransferFrom",
      "outputs": [],
      "stateMutability": "nonpayable",
      "type": "function"
    },
    {
      "inputs": [
        {
          "internalType": "address",
          "name": "operator",
          "type": "address"
        },
        {
          "internalType": "bool",
          "name": "approved",
          "type": "bool"
        }
      ],
      "name": "setApprovalForAll",
      "outputs": [],
      "stateMutability": "nonpayable",
      "type": "function"
    },
    {
      "inputs": [
        {
          "internalType": "address",
          "name": "_to",
          "type": "address"
        },
        {
          "internalType": "uint256[]",
          "name": "_ids",
          "type": "uint256[]"
        }
      ],
      "name": "setCreator",
      "outputs": [],
      "stateMutability": "nonpayable",
      "type": "function"
    },
    {
      "inputs": [
        {
          "internalType": "address",
          "name": "_receiver",
          "type": "address"
        },
        {
          "internalType": "uint96",
          "name": "_royaltyBasisPoints",
          "type": "uint96"
        }
      ],
      "name": "setGlobalRoyaltyInfo",
      "outputs": [],
      "stateMutability": "nonpayable",
      "type": "function"
    },
    {
      "inputs": [
        {
          "internalType": "uint256[]",
          "name": "_ids",
          "type": "uint256[]"
        },
        {
          "internalType": "uint256[]",
          "name": "_newMaxIssuances",
          "type": "uint256[]"
        }
      ],
      "name": "setMaxIssuances",
      "outputs": [],
      "stateMutability": "nonpayable",
      "type": "function"
    },
    {
      "inputs": [
        {
          "internalType": "string",
          "name": "newuri",
          "type": "string"
        }
      ],
      "name": "setURI",
      "outputs": [],
      "stateMutability": "nonpayable",
      "type": "function"
    },
    {
      "inputs": [
        {
          "internalType": "address",
          "name": "_factory",
          "type": "address"
        }
      ],
      "name": "shutdownFactory",
      "outputs": [],
      "stateMutability": "nonpayable",
      "type": "function"
    },
    {
      "inputs": [
        {
          "internalType": "bytes4",
          "name": "_interfaceID",
          "type": "bytes4"
        }
      ],
      "name": "supportsInterface",
      "outputs": [
        {
          "internalType": "bool",
          "name": "",
          "type": "bool"
        }
      ],
      "stateMutability": "view",
      "type": "function"
    },
    {
      "inputs": [],
      "name": "symbol",
      "outputs": [
        {
          "internalType": "string",
          "name": "",
          "type": "string"
        }
      ],
      "stateMutability": "view",
      "type": "function"
    },
    {
      "inputs": [
        {
          "internalType": "uint256",
          "name": "id",
          "type": "uint256"
        }
      ],
      "name": "totalSupply",
      "outputs": [
        {
          "internalType": "uint256",
          "name": "",
          "type": "uint256"
        }
      ],
      "stateMutability": "view",
      "type": "function"
    },
    {
      "inputs": [
        {
          "internalType": "address",
          "name": "newOwner",
          "type": "address"
        }
      ],
      "name": "transferOwnership",
      "outputs": [],
      "stateMutability": "nonpayable",
      "type": "function"
    },
    {
      "inputs": [],
      "name": "unpause",
      "outputs": [],
      "stateMutability": "nonpayable",
      "type": "function"
    },
    {
      "inputs": [
        {
          "internalType": "uint256",
          "name": "",
          "type": "uint256"
        }
      ],
      "name": "uri",
      "outputs": [
        {
          "internalType": "string",
          "name": "",
          "type": "string"
        }
      ],
      "stateMutability": "view",
      "type": "function"
    },
    {
      "inputs": [
        {
          "components": [
            {
              "internalType": "address",
              "name": "from",
              "type": "address"
            },
            {
              "internalType": "address",
              "name": "to",
              "type": "address"
            },
            {
              "internalType": "uint256",
              "name": "value",
              "type": "uint256"
            },
            {
              "internalType": "uint256",
              "name": "gas",
              "type": "uint256"
            },
            {
              "internalType": "uint256",
              "name": "nonce",
              "type": "uint256"
            },
            {
              "internalType": "bytes",
              "name": "data",
              "type": "bytes"
            }
          ],
          "internalType": "struct MinimalForwarder.ForwardRequest",
          "name": "req",
          "type": "tuple"
        },
        {
          "internalType": "bytes",
          "name": "signature",
          "type": "bytes"
        }
      ],
      "name": "verify",
      "outputs": [
        {
          "internalType": "bool",
          "name": "",
          "type": "bool"
        }
      ],
      "stateMutability": "view",
      "type": "function"
    }
  ],
  "bytecode": "0x6101406040523480156200001257600080fd5b50604051620076a0380380620076a083398101604081905262000035916200046c565b6040518060400160405280601b81526020017f4d65746163616e61204372656174757265204163636573736f727900000000008152506040518060400160405280600881526020017f4d65746163616e610000000000000000000000000000000000000000000000008152506040518060400160405280601e81526020017f68747470733a2f2f61737365742e6d65746163616e612e696f2f7b69647d0000815250836040518060400160405280601081526020017f4d696e696d616c466f72776172646572000000000000000000000000000000008152506040518060400160405280600581526020017f302e302e310000000000000000000000000000000000000000000000000000008152508362000156816200027260201b60201c565b506200016b620001656200028b565b620002a8565b600680547fffffffffffffffffffffffffffffffffffffffffffffffffffffffffffffff00169055815160208084019190912082519183019190912060e08290526101008190524660a0527f8b73c3c69bb8fe3d512ecc4cf759cc79239f7b179b0ffacaa9a75d522b39400f620001e48184846200031f565b6080523060601b60c05261012052505085516200020b9250600b91506020870190620003c6565b5082516200022190600c906020860190620003c6565b50600980547fffffffffffffffffffffffff00000000000000000000000000000000000000001673ffffffffffffffffffffffffffffffffffffffff92909216919091179055506200051f92505050565b805162000287906002906020840190620003c6565b5050565b6000620002a26200035b60201b620030d21760201c565b90505b90565b6003805473ffffffffffffffffffffffffffffffffffffffff8381167fffffffffffffffffffffffff0000000000000000000000000000000000000000831681179093556040519116919082907f8be0079c531659141344cd1fd0a4f28419497f9722a3daafe3b4186f6b6457e090600090a35050565b600083838346306040516020016200033c959493929190620004a9565b6040516020818303038152906040528051906020012090509392505050565b600033301415620003c157600080368080601f01602080910402602001604051908101604052809392919081815260200183838082843760009201919091525050505036015173ffffffffffffffffffffffffffffffffffffffff169150620002a59050565b503390565b828054620003d490620004e2565b90600052602060002090601f016020900481019282620003f8576000855562000443565b82601f106200041357805160ff191683800117855562000443565b8280016001018555821562000443579182015b828111156200044357825182559160200191906001019062000426565b506200045192915062000455565b5090565b5b8082111562000451576000815560010162000456565b6000602082840312156200047e578081fd5b815173ffffffffffffffffffffffffffffffffffffffff81168114620004a2578182fd5b9392505050565b94855260208501939093526040840191909152606083015273ffffffffffffffffffffffffffffffffffffffff16608082015260a00190565b600281046001821680620004f757607f821691505b602082108114156200051957634e487b7160e01b600052602260045260246000fd5b50919050565b60805160a05160c05160601c60e051610100516101205161712e620005726000396000614b8601526000614bc801526000614ba701526000614b0901526000614b3301526000614b5d015261712e6000f3fe6080604052600436106102f15760003560e01c806383ca4b6f1161018f578063bf5d3bdb116100e1578063e8a3d4851161008a578063f2fde38b11610064578063f2fde38b1461087e578063f5298aca1461089e578063f795ab75146108be576102f1565b8063e8a3d48514610829578063e985e9c51461083e578063f242432a1461085e576102f1565b8063d2a6b51a116100bb578063d2a6b51a146107c9578063e1a97272146107e9578063e4b37d3314610809576102f1565b8063bf5d3bdb14610769578063c13dc29114610789578063cd53d08e146107a9576102f1565b806395d89b4111610143578063adccc4711161011d578063adccc47114610709578063b390c0ab14610729578063bd85b03914610749576102f1565b806395d89b41146106b4578063a22cb465146106c9578063a36b3f29146106e9576102f1565b80638da5cb5b116101745780638da5cb5b146106525780639136ce1f14610674578063951e241f14610694576102f1565b806383ca4b6f1461061d5780638456cb591461063d576102f1565b80633f4ba83a116102485780635c975abb116101fc578063715018a6116101d6578063715018a6146105c8578063731133e9146105dd5780637c44a8bb146105fd576102f1565b80635c975abb14610571578063657afa89146105865780636b20c454146105a8576102f1565b806347153f821161022d57806347153f82146105035780634e1273f4146105245780634f558e7914610551576102f1565b80633f4ba83a146104ce578063458d2844146104e3576102f1565b80630e89341c116102aa5780632a55205a116102845780632a55205a146104605780632d0335ab1461048e5780632eb2c2d6146104ae576102f1565b80630e89341c1461040057806315a08ab8146104205780631f7fdffa14610440576102f1565b806302fe5305116102db57806302fe53051461039c57806306fdde03146103be57806307800c9b146103e0576102f1565b8062fdd58e1461033957806301ffc9a71461036f575b3480156102fd57600080fd5b506040517f08c379a000000000000000000000000000000000000000000000000000000000815260040161033090616511565b60405180910390fd5b34801561034557600080fd5b50610359610354366004615774565b6108de565b6040516103669190616d3d565b60405180910390f35b34801561037b57600080fd5b5061038f61038a366004615a86565b610963565b6040516103669190615f94565b3480156103a857600080fd5b506103bc6103b7366004615ada565b610976565b005b3480156103ca57600080fd5b506103d36109f5565b604051610366919061605a565b3480156103ec57600080fd5b506103bc6103fb366004615890565b610a83565b34801561040c57600080fd5b506103d361041b366004615c09565b610ea2565b34801561042c57600080fd5b506103bc61043b366004615a1d565b610f36565b34801561044c57600080fd5b506103bc61045b3660046156ac565b61124a565b34801561046c57600080fd5b5061048061047b366004615c21565b611335565b604051610366929190615ec1565b34801561049a57600080fd5b506103596104a9366004615486565b611440565b3480156104ba57600080fd5b506103bc6104c93660046154da565b611468565b3480156104da57600080fd5b506103bc6114f3565b3480156104ef57600080fd5b506103bc6104fe366004615774565b611570565b610516610511366004615b9c565b611a1a565b604051610366929190615f9f565b34801561053057600080fd5b5061054461053f366004615933565b611bf0565b6040516103669190615f5c565b34801561055d57600080fd5b5061038f61056c366004615c09565b611d8e565b34801561057d57600080fd5b5061038f611da1565b34801561059257600080fd5b5061059b611dab565b6040516103669190615ee7565b3480156105b457600080fd5b506103bc6105c3366004615639565b611e66565b3480156105d457600080fd5b506103bc611ef4565b3480156105e957600080fd5b506103bc6105f83660046157d3565b611f71565b34801561060957600080fd5b506103bc610618366004615486565b61209b565b34801561062957600080fd5b506103bc610638366004615a1d565b612182565b34801561064957600080fd5b506103bc6121f6565b34801561065e57600080fd5b50610667612271565b6040516103669190615de5565b34801561068057600080fd5b506103bc61068f366004615486565b61228d565b3480156106a057600080fd5b506103bc6106af3660046158f6565b612377565b3480156106c057600080fd5b506103d36123f8565b3480156106d557600080fd5b506103bc6106e4366004615743565b612405565b3480156106f557600080fd5b5061059b610704366004615486565b612417565b34801561071557600080fd5b506103bc610724366004615b20565b6124f5565b34801561073557600080fd5b506103bc610744366004615c21565b6126cf565b34801561075557600080fd5b50610359610764366004615c09565b6126da565b34801561077557600080fd5b5061038f610784366004615b9c565b6126ec565b34801561079557600080fd5b506103596107a436600461583b565b612872565b3480156107b557600080fd5b506106676107c4366004615c09565b612a76565b3480156107d557600080fd5b506103bc6107e43660046155eb565b612a9e565b3480156107f557600080fd5b506105446108043660046159e9565b612b59565b34801561081557600080fd5b506105446108243660046159e9565b612c87565b34801561083557600080fd5b506103d3612dac565b34801561084a57600080fd5b5061038f6108593660046154a2565b612de3565b34801561086a57600080fd5b506103bc610879366004615584565b612eca565b34801561088a57600080fd5b506103bc610899366004615486565b612f55565b3480156108aa57600080fd5b506103bc6108b936600461579f565b61301e565b3480156108ca57600080fd5b5061038f6108d9366004615486565b6130a7565b600073ffffffffffffffffffffffffffffffffffffffff831661092d576040517f08c379a000000000000000000000000000000000000000000000000000000000815260040161033090616340565b5060008181526020818152604080832073ffffffffffffffffffffffffffffffffffffffff861684529091529020545b92915050565b600061096e8261313b565b90505b919050565b61097e613191565b73ffffffffffffffffffffffffffffffffffffffff1661099c612271565b73ffffffffffffffffffffffffffffffffffffffff16146109e9576040517f08c379a000000000000000000000000000000000000000000000000000000000815260040161033090616921565b6109f2816131a0565b50565b600b8054610a0290616ed6565b80601f0160208091040260200160405190810160405280929190818152602001828054610a2e90616ed6565b8015610a7b5780601f10610a5057610100808354040283529160200191610a7b565b820191906000526020600020905b815481529060010190602001808311610a5e57829003601f168201915b505050505081565b610a8b613191565b73ffffffffffffffffffffffffffffffffffffffff16610aa9612271565b73ffffffffffffffffffffffffffffffffffffffff1614610af6576040517f08c379a000000000000000000000000000000000000000000000000000000000815260040161033090616921565b60008367ffffffffffffffff1611610b3a576040517f08c379a000000000000000000000000000000000000000000000000000000000815260040161033090616956565b8267ffffffffffffffff168467ffffffffffffffff161115610b88576040517f08c379a000000000000000000000000000000000000000000000000000000000815260040161033090616a10565b8067ffffffffffffffff168267ffffffffffffffff1610610bd5576040517f08c379a000000000000000000000000000000000000000000000000000000000815260040161033090616229565b60005b600f54811015610d0c576000600f8281548110610c1e577f4e487b7100000000000000000000000000000000000000000000000000000000600052603260045260246000fd5b600091825260209182902060408051608081018252919092015467ffffffffffffffff80821680845268010000000000000000830482169584019590955270010000000000000000000000000000000082048116938301939093527801000000000000000000000000000000000000000000000000900482166060820152925086161080610cc357508567ffffffffffffffff16816020015167ffffffffffffffff16105b610cf9576040517f08c379a000000000000000000000000000000000000000000000000000000000815260040161033090616602565b5080610d0481616f2a565b915050610bd8565b506040805160808101825267ffffffffffffffff808716825285811660208084019182528683168486019081528684166060860190815273ffffffffffffffffffffffffffffffffffffffff8c166000818152600e85528881208054600181018255908252949020875194018054955193519251871678010000000000000000000000000000000000000000000000000277ffffffffffffffffffffffffffffffffffffffffffffffff938816700100000000000000000000000000000000027fffffffffffffffff0000000000000000ffffffffffffffffffffffffffffffff95891668010000000000000000027fffffffffffffffffffffffffffffffff0000000000000000ffffffffffffffff979099167fffffffffffffffffffffffffffffffffffffffffffffffff00000000000000009098169790971795909516969096179290921693909317929092161790915591519091907f188968bccf857d854c73494ca4da4cc4ae2769e4b732db8f40dfa62b86b1c40a90610e92908490616d2f565b60405180910390a2505050505050565b606060028054610eb190616ed6565b80601f0160208091040260200160405190810160405280929190818152602001828054610edd90616ed6565b8015610f2a5780601f10610eff57610100808354040283529160200191610f2a565b820191906000526020600020905b815481529060010190602001808311610f0d57829003601f168201915b50505050509050919050565b610f3e613191565b73ffffffffffffffffffffffffffffffffffffffff16610f5c612271565b73ffffffffffffffffffffffffffffffffffffffff1614610fa9576040517f08c379a000000000000000000000000000000000000000000000000000000000815260040161033090616921565b828114610fe2576040517f08c379a0000000000000000000000000000000000000000000000000000000008152600401610330906165a5565b60005b838110156112065760006011600087878581811061102c577f4e487b7100000000000000000000000000000000000000000000000000000000600052603260045260246000fd5b90506020020135815260200190815260200160002054111561115d57828282818110611081577f4e487b7100000000000000000000000000000000000000000000000000000000600052603260045260246000fd5b9050602002013560001080156111275750601160008686848181106110cf577f4e487b7100000000000000000000000000000000000000000000000000000000600052603260045260246000fd5b9050602002013581526020019081526020016000205483838381811061111e577f4e487b7100000000000000000000000000000000000000000000000000000000600052603260045260246000fd5b90506020020135105b61115d576040517f08c379a0000000000000000000000000000000000000000000000000000000008152600401610330906169b3565b828282818110611196577f4e487b7100000000000000000000000000000000000000000000000000000000600052603260045260246000fd5b90506020020135601160008787858181106111da577f4e487b7100000000000000000000000000000000000000000000000000000000600052603260045260246000fd5b9050602002013581526020019081526020016000208190555080806111fe90616f2a565b915050610fe5565b507f91f9ea1e3a6a1fd246959c27978a42e04c0c3c954e7ffa52e3ed1509be4811be8484848460405161123c9493929190615f35565b60405180910390a150505050565b611256838360016131b3565b61126284848484613568565b60005b835181101561132e5760008482815181106112a9577f4e487b7100000000000000000000000000000000000000000000000000000000600052603260045260246000fd5b602002602001015190506112bb613191565b6000828152600a602052604090205473ffffffffffffffffffffffffffffffffffffffff90811691161461131b576040517f08c379a000000000000000000000000000000000000000000000000000000000815260040161033090616750565b508061132681616f2a565b915050611265565b5050505050565b600082815260056020908152604080832081518083019092525473ffffffffffffffffffffffffffffffffffffffff8116808352740100000000000000000000000000000000000000009091046bffffffffffffffffffffffff169282019290925282916113f057506040805180820190915260045473ffffffffffffffffffffffffffffffffffffffff811682527401000000000000000000000000000000000000000090046bffffffffffffffffffffffff1660208201525b60006113fa61379d565b6bffffffffffffffffffffffff1682602001516bffffffffffffffffffffffff16866114269190616e56565b6114309190616e1d565b91519350909150505b9250929050565b73ffffffffffffffffffffffffffffffffffffffff1660009081526007602052604090205490565b611470613191565b73ffffffffffffffffffffffffffffffffffffffff168573ffffffffffffffffffffffffffffffffffffffff1614806114b057506114b085610859613191565b6114e6576040517f08c379a0000000000000000000000000000000000000000000000000000000008152600401610330906166f3565b61132e85858585856137a3565b6114fb613191565b73ffffffffffffffffffffffffffffffffffffffff16611519612271565b73ffffffffffffffffffffffffffffffffffffffff1614611566576040517f08c379a000000000000000000000000000000000000000000000000000000000815260040161033090616921565b61156e613a42565b565b611578613191565b73ffffffffffffffffffffffffffffffffffffffff16611596612271565b73ffffffffffffffffffffffffffffffffffffffff16146115e3576040517f08c379a000000000000000000000000000000000000000000000000000000000815260040161033090616921565b73ffffffffffffffffffffffffffffffffffffffff82166000908152600e602052604081205461161590600190616e93565b73ffffffffffffffffffffffffffffffffffffffff84166000908152600e602052604081208054929350909184908110611678577f4e487b7100000000000000000000000000000000000000000000000000000000600052603260045260246000fd5b600091825260209182902060408051608081018252929091015467ffffffffffffffff8082168452680100000000000000008204811694840194909452700100000000000000000000000000000000810484169183019190915278010000000000000000000000000000000000000000000000009004909116606082015290508183146119335773ffffffffffffffffffffffffffffffffffffffff84166000908152600e6020526040812080548490811061175d577f4e487b7100000000000000000000000000000000000000000000000000000000600052603260045260246000fd5b6000918252602080832060408051608081018252919093015467ffffffffffffffff80821683526801000000000000000082048116838501527001000000000000000000000000000000008204811683860152780100000000000000000000000000000000000000000000000090910416606082015273ffffffffffffffffffffffffffffffffffffffff89168452600e90915291208054919250829186908110611831577f4e487b7100000000000000000000000000000000000000000000000000000000600052603260045260246000fd5b60009182526020918290208351910180549284015160408501516060909501517fffffffffffffffffffffffffffffffffffffffffffffffff000000000000000090941667ffffffffffffffff938416177fffffffffffffffffffffffffffffffff0000000000000000ffffffffffffffff166801000000000000000091841691909102177fffffffffffffffff0000000000000000ffffffffffffffffffffffffffffffff16700100000000000000000000000000000000948316949094029390931777ffffffffffffffffffffffffffffffffffffffffffffffff1678010000000000000000000000000000000000000000000000009190921602179055505b73ffffffffffffffffffffffffffffffffffffffff84166000908152600e6020526040902080548061198e577f4e487b7100000000000000000000000000000000000000000000000000000000600052603160045260246000fd5b60008281526020812082017fffffffffffffffffffffffffffffffffffffffffffffffffffffffffffffffff9081019190915501905560405173ffffffffffffffffffffffffffffffffffffffff8516907f1bca5c143feb87c2d4e8d2d1fd73ba6f43f551ba73c58634f56bbe30701f06d490611a0c908490616d2f565b60405180910390a250505050565b60006060611a298585856126ec565b611a5f576040517f08c379a000000000000000000000000000000000000000000000000000000000815260040161033090616195565b611a6e60808601356001616e05565b60076000611a7f6020890189615486565b73ffffffffffffffffffffffffffffffffffffffff1673ffffffffffffffffffffffffffffffffffffffff16815260200190815260200160002081905550600080866020016020810190611ad39190615486565b73ffffffffffffffffffffffffffffffffffffffff1660608801356040890135611b0060a08b018b616d54565b611b0d60208d018d615486565b604051602001611b1f93929190615d57565b604080517fffffffffffffffffffffffffffffffffffffffffffffffffffffffffffffffe081840301815290829052611b5791615d93565b600060405180830381858888f193505050503d8060008114611b95576040519150601f19603f3d011682016040523d82523d6000602084013e611b9a565b606091505b509092509050611baf603f6060890135616e1d565b5a11611be4577f4e487b7100000000000000000000000000000000000000000000000000000000600052600160045260246000fd5b90969095509350505050565b60608151835114611c2d576040517f08c379a000000000000000000000000000000000000000000000000000000000815260040161033090616b84565b6000835167ffffffffffffffff811115611c70577f4e487b7100000000000000000000000000000000000000000000000000000000600052604160045260246000fd5b604051908082528060200260200182016040528015611c99578160200160208202803683370190505b50905060005b8451811015611d8657611d32858281518110611ce4577f4e487b7100000000000000000000000000000000000000000000000000000000600052603260045260246000fd5b6020026020010151858381518110611d25577f4e487b7100000000000000000000000000000000000000000000000000000000600052603260045260246000fd5b60200260200101516108de565b828281518110611d6b577f4e487b7100000000000000000000000000000000000000000000000000000000600052603260045260246000fd5b6020908102919091010152611d7f81616f2a565b9050611c9f565b509392505050565b600080611d9a836126da565b1192915050565b60065460ff165b90565b6060600f805480602002602001604051908101604052809291908181526020016000905b82821015611e5d576000848152602090819020604080516080810182529185015467ffffffffffffffff8082168452680100000000000000008204811684860152700100000000000000000000000000000000820481169284019290925278010000000000000000000000000000000000000000000000009004166060820152825260019092019101611dcf565b50505050905090565b611e6e613191565b73ffffffffffffffffffffffffffffffffffffffff168373ffffffffffffffffffffffffffffffffffffffff161480611eae5750611eae83610859613191565b611ee4576040517f08c379a000000000000000000000000000000000000000000000000000000000815260040161033090616457565b611eef838383613ae8565b505050565b611efc613191565b73ffffffffffffffffffffffffffffffffffffffff16611f1a612271565b73ffffffffffffffffffffffffffffffffffffffff1614611f67576040517f08c379a000000000000000000000000000000000000000000000000000000000815260040161033090616921565b61156e6000613d67565b6040805160018082528183019092526000916020808301908036833750506040805160018082528183019092529293506000929150602080830190803683370190505090508582600081518110611ff1577f4e487b7100000000000000000000000000000000000000000000000000000000600052603260045260246000fd5b6020026020010181815250508481600081518110612038577f4e487b7100000000000000000000000000000000000000000000000000000000600052603260045260246000fd5b602002602001018181525050612050828260016131b3565b61209287878787878080601f016020809104026020016040519081016040528093929190818152602001838380828437600092019190915250613dde92505050565b50505050505050565b6120a3613191565b73ffffffffffffffffffffffffffffffffffffffff166120c1612271565b73ffffffffffffffffffffffffffffffffffffffff161461210e576040517f08c379a000000000000000000000000000000000000000000000000000000000815260040161033090616921565b73ffffffffffffffffffffffffffffffffffffffff81166000818152600d602052604080822080547fffffffffffffffffffffffffffffffffffffffffffffffffffffffffffffff00169055517f472ecaf428225ecdcc1f686a662ed1ba0627c365542e086b483bacca0fcfa5f99190a250565b6121f03385858080602002602001604051908101604052809392919081815260200183836020028082843760009201919091525050604080516020808902828101820190935288825290935088925087918291850190849080828437600092019190915250613ae892505050565b50505050565b6121fe613191565b73ffffffffffffffffffffffffffffffffffffffff1661221c612271565b73ffffffffffffffffffffffffffffffffffffffff1614612269576040517f08c379a000000000000000000000000000000000000000000000000000000000815260040161033090616921565b61156e613f28565b60035473ffffffffffffffffffffffffffffffffffffffff1690565b612295613191565b73ffffffffffffffffffffffffffffffffffffffff166122b3612271565b73ffffffffffffffffffffffffffffffffffffffff1614612300576040517f08c379a000000000000000000000000000000000000000000000000000000000815260040161033090616921565b73ffffffffffffffffffffffffffffffffffffffff81166000818152600d602052604080822080547fffffffffffffffffffffffffffffffffffffffffffffffffffffffffffffff00166001179055517f672dbf7f8dabd5b1b39124540440a9ef2537a03c053f111f7e90850e57e2efb69190a250565b61237f613191565b73ffffffffffffffffffffffffffffffffffffffff1661239d612271565b73ffffffffffffffffffffffffffffffffffffffff16146123ea576040517f08c379a000000000000000000000000000000000000000000000000000000000815260040161033090616921565b6123f48282613fbb565b5050565b600c8054610a0290616ed6565b6123f4612410613191565b83836140f0565b73ffffffffffffffffffffffffffffffffffffffff81166000908152600e60209081526040808320805482518185028101850190935280835260609492939192909184015b828210156124ea576000848152602090819020604080516080810182529185015467ffffffffffffffff808216845268010000000000000000820481168486015270010000000000000000000000000000000082048116928401929092527801000000000000000000000000000000000000000000000000900416606082015282526001909201910161245c565b505050509050919050565b6124fd613191565b73ffffffffffffffffffffffffffffffffffffffff1661251b612271565b73ffffffffffffffffffffffffffffffffffffffff1614612568576040517f08c379a000000000000000000000000000000000000000000000000000000000815260040161033090616921565b600f805460018101825560009190915281517f8d1108e10bcb7c27dddfc02ed9d693a074039d026cf4ea4240b40f7d581ac8029091018054602084015160408086015160608701517fffffffffffffffffffffffffffffffffffffffffffffffff000000000000000090941667ffffffffffffffff968716177fffffffffffffffffffffffffffffffff0000000000000000ffffffffffffffff166801000000000000000093871693909302929092177fffffffffffffffff0000000000000000ffffffffffffffffffffffffffffffff16700100000000000000000000000000000000928616929092029190911777ffffffffffffffffffffffffffffffffffffffffffffffff1678010000000000000000000000000000000000000000000000009490921693909302179055517f522c18973f048c2a178766b76cb19456e9dbd776f104c0b77c6166e582212f2c906126c4908390616d2f565b60405180910390a150565b6123f43383836141f2565b60009081526008602052604090205490565b6000806127d284848080601f0160208091040260200160405190810160405280939291908181526020018383808284376000920191909152506127cc92507fdd8f4b70b0f4393e889bd39128a30628a78b61816a9eb8199759e7a349657e48915061275c905060208a018a615486565b61276c60408b0160208c01615486565b60408b013560608c013560808d013561278860a08f018f616d54565b604051612796929190615d47565b6040519081900381206127b197969594939291602001615fba565b6040516020818303038152906040528051906020012061435c565b9061436f565b90506080850135600760006127ea6020890189615486565b73ffffffffffffffffffffffffffffffffffffffff1673ffffffffffffffffffffffffffffffffffffffff16815260200190815260200160002054148015612869575061283a6020860186615486565b73ffffffffffffffffffffffffffffffffffffffff168173ffffffffffffffffffffffffffffffffffffffff16145b95945050505050565b600061287c613191565b73ffffffffffffffffffffffffffffffffffffffff1661289a612271565b73ffffffffffffffffffffffffffffffffffffffff16146128e7576040517f08c379a000000000000000000000000000000000000000000000000000000000815260040161033090616921565b6128f084611d8e565b15612927576040517f08c379a000000000000000000000000000000000000000000000000000000000815260040161033090616101565b60408051600180825281830190925260009160208083019080368337505060408051600180825281830190925292935060009291506020808301908036833701905050905085826000815181106129a7577f4e487b7100000000000000000000000000000000000000000000000000000000600052603260045260246000fd5b60200260200101818152505084816000815181106129ee577f4e487b7100000000000000000000000000000000000000000000000000000000600052603260045260246000fd5b602002602001018181525050612a06828260016131b3565b612a0e613191565b6000878152600a6020526040902080547fffffffffffffffffffffffff00000000000000000000000000000000000000001673ffffffffffffffffffffffffffffffffffffffff92909216919091179055612a6b87878787613dde565b509395945050505050565b600a6020526000908152604090205473ffffffffffffffffffffffffffffffffffffffff1681565b73ffffffffffffffffffffffffffffffffffffffff8216612aeb576040517f08c379a000000000000000000000000000000000000000000000000000000000815260040161033090616a6d565b60005b8151811015611eef576000828281518110612b32577f4e487b7100000000000000000000000000000000000000000000000000000000600052603260045260246000fd5b60200260200101519050612b46848261438b565b5080612b5181616f2a565b915050612aee565b60608160008167ffffffffffffffff811115612b9e577f4e487b7100000000000000000000000000000000000000000000000000000000600052604160045260246000fd5b604051908082528060200260200182016040528015612bc7578160200160208202803683370190505b50905060005b82811015612c7e5760116000878784818110612c12577f4e487b7100000000000000000000000000000000000000000000000000000000600052603260045260246000fd5b90506020020135815260200190815260200160002054828281518110612c61577f4e487b7100000000000000000000000000000000000000000000000000000000600052603260045260246000fd5b602090810291909101015280612c7681616f2a565b915050612bcd565b50949350505050565b60608160008167ffffffffffffffff811115612ccc577f4e487b7100000000000000000000000000000000000000000000000000000000600052604160045260246000fd5b604051908082528060200260200182016040528015612cf5578160200160208202803683370190505b50905060005b82811015612c7e5760106000878784818110612d40577f4e487b7100000000000000000000000000000000000000000000000000000000600052603260045260246000fd5b90506020020135815260200190815260200160002054828281518110612d8f577f4e487b7100000000000000000000000000000000000000000000000000000000600052603260045260246000fd5b602090810291909101015280612da481616f2a565b915050612cfb565b60408051808201909152601381527f68747470733a2f2f6d65746163616e612e696f00000000000000000000000000602082015290565b6009546040517fc455279100000000000000000000000000000000000000000000000000000000815260009173ffffffffffffffffffffffffffffffffffffffff9081169190841690829063c455279190612e42908890600401615de5565b60206040518083038186803b158015612e5a57600080fd5b505afa158015612e6e573d6000803e3d6000fd5b505050506040513d601f19601f82011682018060405250810190612e929190615abe565b73ffffffffffffffffffffffffffffffffffffffff161415612eb857600191505061095d565b612ec28484614448565b949350505050565b612ed2613191565b73ffffffffffffffffffffffffffffffffffffffff168573ffffffffffffffffffffffffffffffffffffffff161480612f125750612f1285610859613191565b612f48576040517f08c379a000000000000000000000000000000000000000000000000000000000815260040161033090616457565b61132e8585858585614483565b612f5d613191565b73ffffffffffffffffffffffffffffffffffffffff16612f7b612271565b73ffffffffffffffffffffffffffffffffffffffff1614612fc8576040517f08c379a000000000000000000000000000000000000000000000000000000000815260040161033090616921565b73ffffffffffffffffffffffffffffffffffffffff8116613015576040517f08c379a00000000000000000000000000000000000000000000000000000000081526004016103309061639d565b6109f281613d67565b613026613191565b73ffffffffffffffffffffffffffffffffffffffff168373ffffffffffffffffffffffffffffffffffffffff161480613066575061306683610859613191565b61309c576040517f08c379a000000000000000000000000000000000000000000000000000000000815260040161033090616457565b611eef8383836141f2565b73ffffffffffffffffffffffffffffffffffffffff166000908152600d602052604090205460ff1690565b60003330141561313657600080368080601f01602080910402602001604051908101604052809392919081815260200183838082843760009201919091525050505036015173ffffffffffffffffffffffffffffffffffffffff169150611da89050565b503390565b60007fffffffff0000000000000000000000000000000000000000000000000000000082167f2a55205a00000000000000000000000000000000000000000000000000000000148061096e575061096e82614630565b600061319b6130d2565b905090565b80516123f4906002906020840190615252565b336000908152600d602052604090205460ff166131fc576040517f08c379a0000000000000000000000000000000000000000000000000000000008152600401610330906162e3565b336000908152600e60205260408120805491908183613244577f4e487b7100000000000000000000000000000000000000000000000000000000600052603260045260246000fd5b6000918252602080832060408051608081018252939091015467ffffffffffffffff80821685526801000000000000000082048116938501939093527001000000000000000000000000000000008104831691840191909152780100000000000000000000000000000000000000000000000090041660608201529150805b8651811015612092576000878281518110613307577f4e487b7100000000000000000000000000000000000000000000000000000000600052603260045260246000fd5b60200260200101519050600087838151811061334c577f4e487b7100000000000000000000000000000000000000000000000000000000600052603260045260246000fd5b602002602001015190506000601160008481526020019081526020016000205490505b856040015167ffffffffffffffff164210806133985750856060015167ffffffffffffffff1642115b806133ad5750855167ffffffffffffffff1683105b806133c5575082866020015167ffffffffffffffff16105b156134dd576133d5600186616e05565b9450868510613410576040517f08c379a0000000000000000000000000000000000000000000000000000000008152600401610330906164b4565b336000908152600e60205260409020805486908110613458577f4e487b7100000000000000000000000000000000000000000000000000000000600052603260045260246000fd5b600091825260209182902060408051608081018252929091015467ffffffffffffffff80821684526801000000000000000082048116948401949094527001000000000000000000000000000000008104841691830191909152780100000000000000000000000000000000000000000000000090049091166060820152955061336f565b8015613552576000838152601060205260408120546134fc90846146d2565b905081811115613538576040517f08c379a0000000000000000000000000000000000000000000000000000000008152600401610330906168c4565b88156135505760008481526010602052604090208190555b505b505050808061356090616f2a565b9150506132c3565b73ffffffffffffffffffffffffffffffffffffffff84166135b5576040517f08c379a000000000000000000000000000000000000000000000000000000000815260040161033090616c3e565b81518351146135f0576040517f08c379a000000000000000000000000000000000000000000000000000000000815260040161033090616be1565b60006135fa613191565b905061360b816000878787876146e5565b60005b845181101561370e57838181518110613650577f4e487b7100000000000000000000000000000000000000000000000000000000600052603260045260246000fd5b6020026020010151600080878481518110613694577f4e487b7100000000000000000000000000000000000000000000000000000000600052603260045260246000fd5b6020026020010151815260200190815260200160002060008873ffffffffffffffffffffffffffffffffffffffff1673ffffffffffffffffffffffffffffffffffffffff16815260200190815260200160002060008282546136f69190616e05565b9091555081905061370681616f2a565b91505061360e565b508473ffffffffffffffffffffffffffffffffffffffff16600073ffffffffffffffffffffffffffffffffffffffff168273ffffffffffffffffffffffffffffffffffffffff167f4a39dc06d4c0dbc64b70af90fd698a233a518aa5d07e595d983b8c0526c8f7fb8787604051613786929190615f6f565b60405180910390a461132e81600087878787614732565b61271090565b81518351146137de576040517f08c379a000000000000000000000000000000000000000000000000000000000815260040161033090616be1565b73ffffffffffffffffffffffffffffffffffffffff841661382b576040517f08c379a000000000000000000000000000000000000000000000000000000000815260040161033090616696565b6000613835613191565b90506138458187878787876146e5565b60005b84518110156139ad57600085828151811061388c577f4e487b7100000000000000000000000000000000000000000000000000000000600052603260045260246000fd5b6020026020010151905060008583815181106138d1577f4e487b7100000000000000000000000000000000000000000000000000000000600052603260045260246000fd5b6020908102919091018101516000848152808352604080822073ffffffffffffffffffffffffffffffffffffffff8e168352909352919091205490915081811015613948576040517f08c379a000000000000000000000000000000000000000000000000000000000815260040161033090616867565b60008381526020818152604080832073ffffffffffffffffffffffffffffffffffffffff8e8116855292528083208585039055908b16825281208054849290613992908490616e05565b92505081905550505050806139a690616f2a565b9050613848565b508473ffffffffffffffffffffffffffffffffffffffff168673ffffffffffffffffffffffffffffffffffffffff168273ffffffffffffffffffffffffffffffffffffffff167f4a39dc06d4c0dbc64b70af90fd698a233a518aa5d07e595d983b8c0526c8f7fb8787604051613a24929190615f6f565b60405180910390a4613a3a818787878787614732565b505050505050565b613a4a611da1565b613a80576040517f08c379a0000000000000000000000000000000000000000000000000000000008152600401610330906161f2565b600680547fffffffffffffffffffffffffffffffffffffffffffffffffffffffffffffff001690557f5db9ee0a495bf2e6ff9c91a7834c1ba4fdd244a5e8aa4e537bd38aeae4b073aa613ad1613191565b604051613ade9190615de5565b60405180910390a1565b73ffffffffffffffffffffffffffffffffffffffff8316613b35576040517f08c379a00000000000000000000000000000000000000000000000000000000081526004016103309061680a565b8051825114613b70576040517f08c379a000000000000000000000000000000000000000000000000000000000815260040161033090616be1565b6000613b7a613191565b9050613b9a818560008686604051806020016040528060008152506146e5565b60005b8351811015613ce1576000848281518110613be1577f4e487b7100000000000000000000000000000000000000000000000000000000600052603260045260246000fd5b602002602001015190506000848381518110613c26577f4e487b7100000000000000000000000000000000000000000000000000000000600052603260045260246000fd5b6020908102919091018101516000848152808352604080822073ffffffffffffffffffffffffffffffffffffffff8c168352909352919091205490915081811015613c9d576040517f08c379a0000000000000000000000000000000000000000000000000000000008152600401610330906163fa565b60009283526020838152604080852073ffffffffffffffffffffffffffffffffffffffff8b1686529091529092209103905580613cd981616f2a565b915050613b9d565b50600073ffffffffffffffffffffffffffffffffffffffff168473ffffffffffffffffffffffffffffffffffffffff168273ffffffffffffffffffffffffffffffffffffffff167f4a39dc06d4c0dbc64b70af90fd698a233a518aa5d07e595d983b8c0526c8f7fb8686604051613d59929190615f6f565b60405180910390a450505050565b6003805473ffffffffffffffffffffffffffffffffffffffff8381167fffffffffffffffffffffffff0000000000000000000000000000000000000000831681179093556040519116919082907f8be0079c531659141344cd1fd0a4f28419497f9722a3daafe3b4186f6b6457e090600090a35050565b73ffffffffffffffffffffffffffffffffffffffff8416613e2b576040517f08c379a000000000000000000000000000000000000000000000000000000000815260040161033090616c3e565b6000613e35613191565b9050613e5681600087613e4788614910565b613e5088614910565b876146e5565b60008481526020818152604080832073ffffffffffffffffffffffffffffffffffffffff8916845290915281208054859290613e93908490616e05565b925050819055508473ffffffffffffffffffffffffffffffffffffffff16600073ffffffffffffffffffffffffffffffffffffffff168273ffffffffffffffffffffffffffffffffffffffff167fc3d58168c5ae7397731d063d5bbf3d657854427343f4c083240f7aacaa2d0f628787604051613f11929190616d46565b60405180910390a461132e81600087878787614982565b613f30611da1565b15613f67576040517f08c379a00000000000000000000000000000000000000000000000000000000081526004016103309061665f565b600680547fffffffffffffffffffffffffffffffffffffffffffffffffffffffffffffff001660011790557f62e78cea01bee320cd4e420270b5ea74000d11b0c9f74754ebdbfc544b05a258613ad1613191565b613fc361379d565b6bffffffffffffffffffffffff16816bffffffffffffffffffffffff161115614018576040517f08c379a000000000000000000000000000000000000000000000000000000000815260040161033090616aca565b73ffffffffffffffffffffffffffffffffffffffff8216614065576040517f08c379a000000000000000000000000000000000000000000000000000000000815260040161033090616cf8565b6040805180820190915273ffffffffffffffffffffffffffffffffffffffff9283168082526bffffffffffffffffffffffff929092166020909101819052600480547fffffffffffffffffffffffff00000000000000000000000000000000000000001690921790921674010000000000000000000000000000000000000000909202919091179055565b8173ffffffffffffffffffffffffffffffffffffffff168373ffffffffffffffffffffffffffffffffffffffff161415614156576040517f08c379a000000000000000000000000000000000000000000000000000000000815260040161033090616b27565b73ffffffffffffffffffffffffffffffffffffffff8381166000818152600160209081526040808320948716808452949091529081902080547fffffffffffffffffffffffffffffffffffffffffffffffffffffffffffffff0016851515179055517f17307eab39ab6107e8899845ad3d59bd9653f200f220920489ca2b5937696c31906141e5908590615f94565b60405180910390a3505050565b73ffffffffffffffffffffffffffffffffffffffff831661423f576040517f08c379a00000000000000000000000000000000000000000000000000000000081526004016103309061680a565b6000614249613191565b90506142798185600061425b87614910565b61426487614910565b604051806020016040528060008152506146e5565b60008381526020818152604080832073ffffffffffffffffffffffffffffffffffffffff88168452909152902054828110156142e1576040517f08c379a0000000000000000000000000000000000000000000000000000000008152600401610330906163fa565b60008481526020818152604080832073ffffffffffffffffffffffffffffffffffffffff808a16808652919093528184208786039055905190918516907fc3d58168c5ae7397731d063d5bbf3d657854427343f4c083240f7aacaa2d0f629061434d9089908990616d46565b60405180910390a45050505050565b600061096e614369614aef565b83614bf3565b600080600061437e8585614c26565b91509150611d8681614c93565b80614394613191565b6000828152600a602052604090205473ffffffffffffffffffffffffffffffffffffffff9081169116146143f4576040517f08c379a000000000000000000000000000000000000000000000000000000000815260040161033090616c9b565b506000908152600a6020526040902080547fffffffffffffffffffffffff00000000000000000000000000000000000000001673ffffffffffffffffffffffffffffffffffffffff92909216919091179055565b73ffffffffffffffffffffffffffffffffffffffff918216600090815260016020908152604080832093909416825291909152205460ff1690565b73ffffffffffffffffffffffffffffffffffffffff84166144d0576040517f08c379a000000000000000000000000000000000000000000000000000000000815260040161033090616696565b60006144da613191565b90506144eb818787613e4788614910565b60008481526020818152604080832073ffffffffffffffffffffffffffffffffffffffff8a16845290915290205483811015614553576040517f08c379a000000000000000000000000000000000000000000000000000000000815260040161033090616867565b60008581526020818152604080832073ffffffffffffffffffffffffffffffffffffffff8b811685529252808320878503905590881682528120805486929061459d908490616e05565b925050819055508573ffffffffffffffffffffffffffffffffffffffff168773ffffffffffffffffffffffffffffffffffffffff168373ffffffffffffffffffffffffffffffffffffffff167fc3d58168c5ae7397731d063d5bbf3d657854427343f4c083240f7aacaa2d0f62888860405161461a929190616d46565b60405180910390a4612092828888888888614982565b60007fffffffff0000000000000000000000000000000000000000000000000000000082167fd9b67a260000000000000000000000000000000000000000000000000000000014806146c357507fffffffff0000000000000000000000000000000000000000000000000000000082167f0e89341c00000000000000000000000000000000000000000000000000000000145b8061096e575061096e82614ea5565b60006146de8284616e05565b9392505050565b6146ed611da1565b15614724576040517f08c379a00000000000000000000000000000000000000000000000000000000081526004016103309061665f565b613a3a868686868686614eef565b6147518473ffffffffffffffffffffffffffffffffffffffff166150bf565b15613a3a576040517fbc197c8100000000000000000000000000000000000000000000000000000000815273ffffffffffffffffffffffffffffffffffffffff85169063bc197c81906147b09089908990889088908890600401615e06565b602060405180830381600087803b1580156147ca57600080fd5b505af1925050508015614818575060408051601f3d9081017fffffffffffffffffffffffffffffffffffffffffffffffffffffffffffffffe016820190925261481591810190615aa2565b60015b61489557614824616fc7565b8061482f5750614863565b806040517f08c379a0000000000000000000000000000000000000000000000000000000008152600401610330919061605a565b6040517f08c379a0000000000000000000000000000000000000000000000000000000008152600401610330906160a4565b7fffffffff0000000000000000000000000000000000000000000000000000000081167fbc197c810000000000000000000000000000000000000000000000000000000014612092576040517f08c379a000000000000000000000000000000000000000000000000000000000815260040161033090616138565b60408051600180825281830190925260609160009190602080830190803683370190505090508281600081518110614971577f4e487b7100000000000000000000000000000000000000000000000000000000600052603260045260246000fd5b602090810291909101015292915050565b6149a18473ffffffffffffffffffffffffffffffffffffffff166150bf565b15613a3a576040517ff23a6e6100000000000000000000000000000000000000000000000000000000815273ffffffffffffffffffffffffffffffffffffffff85169063f23a6e6190614a009089908990889088908890600401615e71565b602060405180830381600087803b158015614a1a57600080fd5b505af1925050508015614a68575060408051601f3d9081017fffffffffffffffffffffffffffffffffffffffffffffffffffffffffffffffe0168201909252614a6591810190615aa2565b60015b614a7457614824616fc7565b7fffffffff0000000000000000000000000000000000000000000000000000000081167ff23a6e610000000000000000000000000000000000000000000000000000000014612092576040517f08c379a000000000000000000000000000000000000000000000000000000000815260040161033090616138565b60003073ffffffffffffffffffffffffffffffffffffffff7f000000000000000000000000000000000000000000000000000000000000000016148015614b5557507f000000000000000000000000000000000000000000000000000000000000000046145b15614b8157507f0000000000000000000000000000000000000000000000000000000000000000611da8565b614bec7f00000000000000000000000000000000000000000000000000000000000000007f00000000000000000000000000000000000000000000000000000000000000007f00000000000000000000000000000000000000000000000000000000000000006150c5565b9050611da8565b60008282604051602001614c08929190615daf565b60405160208183030381529060405280519060200120905092915050565b600080825160411415614c5d5760208301516040840151606085015160001a614c51878285856150ff565b94509450505050611439565b825160401415614c875760208301516040840151614c7c86838361520a565b935093505050611439565b50600090506002611439565b6000816004811115614cce577f4e487b7100000000000000000000000000000000000000000000000000000000600052602160045260246000fd5b1415614cd9576109f2565b6001816004811115614d14577f4e487b7100000000000000000000000000000000000000000000000000000000600052602160045260246000fd5b1415614d4c576040517f08c379a00000000000000000000000000000000000000000000000000000000081526004016103309061606d565b6002816004811115614d87577f4e487b7100000000000000000000000000000000000000000000000000000000600052602160045260246000fd5b1415614dbf576040517f08c379a0000000000000000000000000000000000000000000000000000000008152600401610330906162ac565b6003816004811115614dfa577f4e487b7100000000000000000000000000000000000000000000000000000000600052602160045260246000fd5b1415614e32576040517f08c379a000000000000000000000000000000000000000000000000000000000815260040161033090616548565b6004816004811115614e6d577f4e487b7100000000000000000000000000000000000000000000000000000000600052602160045260246000fd5b14156109f2576040517f08c379a0000000000000000000000000000000000000000000000000000000008152600401610330906167ad565b7fffffffff0000000000000000000000000000000000000000000000000000000081167f01ffc9a70000000000000000000000000000000000000000000000000000000014919050565b614efd868686868686613a3a565b73ffffffffffffffffffffffffffffffffffffffff8516614fdf5760005b8351811015614fdd57828181518110614f5d577f4e487b7100000000000000000000000000000000000000000000000000000000600052603260045260246000fd5b602002602001015160086000868481518110614fa2577f4e487b7100000000000000000000000000000000000000000000000000000000600052603260045260246000fd5b602002602001015181526020019081526020016000206000828254614fc79190616e05565b90915550614fd6905081616f2a565b9050614f1b565b505b73ffffffffffffffffffffffffffffffffffffffff8416613a3a5760005b83518110156120925782818151811061503f577f4e487b7100000000000000000000000000000000000000000000000000000000600052603260045260246000fd5b602002602001015160086000868481518110615084577f4e487b7100000000000000000000000000000000000000000000000000000000600052603260045260246000fd5b6020026020010151815260200190815260200160002060008282546150a99190616e93565b909155506150b8905081616f2a565b9050614ffd565b3b151590565b600083838346306040516020016150e0959493929190616003565b6040516020818303038152906040528051906020012090509392505050565b6000807f7fffffffffffffffffffffffffffffff5d576e7357a4501ddfe92f46681b20a08311156151365750600090506003615201565b8460ff16601b1415801561514e57508460ff16601c14155b1561515f5750600090506004615201565b600060018787878760405160008152602001604052604051615184949392919061603c565b6020604051602081039080840390855afa1580156151a6573d6000803e3d6000fd5b50506040517fffffffffffffffffffffffffffffffffffffffffffffffffffffffffffffffe0015191505073ffffffffffffffffffffffffffffffffffffffff81166151fa57600060019250925050615201565b9150600090505b94509492505050565b6000807f7fffffffffffffffffffffffffffffffffffffffffffffffffffffffffffffff831660ff84901c601b01615244878288856150ff565b935093505050935093915050565b82805461525e90616ed6565b90600052602060002090601f01602090048101928261528057600085556152c6565b82601f1061529957805160ff19168380011785556152c6565b828001600101855582156152c6579182015b828111156152c65782518255916020019190600101906152ab565b506152d29291506152d6565b5090565b5b808211156152d257600081556001016152d7565b600067ffffffffffffffff83111561530557615305616f92565b61533660207fffffffffffffffffffffffffffffffffffffffffffffffffffffffffffffffe0601f86011601616db7565b905082815283838301111561534a57600080fd5b828260208301376000602084830101529392505050565b60008083601f840112615372578182fd5b50813567ffffffffffffffff811115615389578182fd5b602083019150836020808302850101111561143957600080fd5b600082601f8301126153b3578081fd5b813560206153c86153c383616de1565b616db7565b82815281810190858301838502870184018810156153e4578586fd5b855b85811015615402578135845292840192908401906001016153e6565b5090979650505050505050565b60008083601f840112615420578182fd5b50813567ffffffffffffffff811115615437578182fd5b60208301915083602082850101111561143957600080fd5b600082601f83011261545f578081fd5b6146de838335602085016152eb565b803567ffffffffffffffff8116811461097157600080fd5b600060208284031215615497578081fd5b81356146de816170a8565b600080604083850312156154b4578081fd5b82356154bf816170a8565b915060208301356154cf816170a8565b809150509250929050565b600080600080600060a086880312156154f1578081fd5b85356154fc816170a8565b9450602086013561550c816170a8565b9350604086013567ffffffffffffffff80821115615528578283fd5b61553489838a016153a3565b94506060880135915080821115615549578283fd5b61555589838a016153a3565b9350608088013591508082111561556a578283fd5b506155778882890161544f565b9150509295509295909350565b600080600080600060a0868803121561559b578081fd5b85356155a6816170a8565b945060208601356155b6816170a8565b93506040860135925060608601359150608086013567ffffffffffffffff8111156155df578182fd5b6155778882890161544f565b600080604083850312156155fd578182fd5b8235615608816170a8565b9150602083013567ffffffffffffffff811115615623578182fd5b61562f858286016153a3565b9150509250929050565b60008060006060848603121561564d578081fd5b8335615658816170a8565b9250602084013567ffffffffffffffff80821115615674578283fd5b615680878388016153a3565b93506040860135915080821115615695578283fd5b506156a2868287016153a3565b9150509250925092565b600080600080608085870312156156c1578182fd5b84356156cc816170a8565b9350602085013567ffffffffffffffff808211156156e8578384fd5b6156f4888389016153a3565b94506040870135915080821115615709578384fd5b615715888389016153a3565b9350606087013591508082111561572a578283fd5b506157378782880161544f565b91505092959194509250565b60008060408385031215615755578182fd5b8235615760816170a8565b9150602083013580151581146154cf578182fd5b60008060408385031215615786578182fd5b8235615791816170a8565b946020939093013593505050565b6000806000606084860312156157b3578081fd5b83356157be816170a8565b95602085013595506040909401359392505050565b6000806000806000608086880312156157ea578283fd5b85356157f5816170a8565b94506020860135935060408601359250606086013567ffffffffffffffff81111561581e578182fd5b61582a8882890161540f565b969995985093965092949392505050565b60008060008060808587031215615850578182fd5b843561585b816170a8565b93506020850135925060408501359150606085013567ffffffffffffffff811115615884578182fd5b6157378782880161544f565b600080600080600060a086880312156158a7578283fd5b85356158b2816170a8565b94506158c06020870161546e565b93506158ce6040870161546e565b92506158dc6060870161546e565b91506158ea6080870161546e565b90509295509295909350565b60008060408385031215615908578182fd5b8235615913816170a8565b915060208301356bffffffffffffffffffffffff811681146154cf578182fd5b60008060408385031215615945578182fd5b823567ffffffffffffffff8082111561595c578384fd5b818501915085601f83011261596f578384fd5b8135602061597f6153c383616de1565b82815281810190858301838502870184018b101561599b578889fd5b8896505b848710156159c65780356159b2816170a8565b83526001969096019591830191830161599f565b50965050860135925050808211156159dc578283fd5b5061562f858286016153a3565b600080602083850312156159fb578182fd5b823567ffffffffffffffff811115615a11578283fd5b611be485828601615361565b60008060008060408587031215615a32578182fd5b843567ffffffffffffffff80821115615a49578384fd5b615a5588838901615361565b90965094506020870135915080821115615a6d578384fd5b50615a7a87828801615361565b95989497509550505050565b600060208284031215615a97578081fd5b81356146de816170ca565b600060208284031215615ab3578081fd5b81516146de816170ca565b600060208284031215615acf578081fd5b81516146de816170a8565b600060208284031215615aeb578081fd5b813567ffffffffffffffff811115615b01578182fd5b8201601f81018413615b11578182fd5b612ec2848235602084016152eb565b600060808284031215615b31578081fd5b6040516080810181811067ffffffffffffffff82111715615b5457615b54616f92565b604052615b608361546e565b8152615b6e6020840161546e565b6020820152615b7f6040840161546e565b6040820152615b906060840161546e565b60608201529392505050565b600080600060408486031215615bb0578081fd5b833567ffffffffffffffff80821115615bc7578283fd5b9085019060c08288031215615bda578283fd5b90935060208501359080821115615bef578283fd5b50615bfc8682870161540f565b9497909650939450505050565b600060208284031215615c1a578081fd5b5035919050565b60008060408385031215615c33578182fd5b50508035926020909101359150565b60008284527f07ffffffffffffffffffffffffffffffffffffffffffffffffffffffffffffff831115615c73578081fd5b6020830280836020870137939093016020019283525090919050565b6000815180845260208085019450808401835b83811015615cbe57815187529582019590820190600101615ca2565b509495945050505050565b60008151808452615ce1816020860160208601616eaa565b601f017fffffffffffffffffffffffffffffffffffffffffffffffffffffffffffffffe0169290920160200192915050565b805167ffffffffffffffff908116835260208083015182169084015260408083015182169084015260609182015116910152565b6000828483379101908152919050565b6000838583375060609190911b7fffffffffffffffffffffffffffffffffffffffff000000000000000000000000169101908152601401919050565b60008251615da5818460208701616eaa565b9190910192915050565b7f190100000000000000000000000000000000000000000000000000000000000081526002810192909252602282015260420190565b73ffffffffffffffffffffffffffffffffffffffff91909116815260200190565b600073ffffffffffffffffffffffffffffffffffffffff808816835280871660208401525060a06040830152615e3f60a0830186615c8f565b8281036060840152615e518186615c8f565b90508281036080840152615e658185615cc9565b98975050505050505050565b600073ffffffffffffffffffffffffffffffffffffffff808816835280871660208401525084604083015283606083015260a06080830152615eb660a0830184615cc9565b979650505050505050565b73ffffffffffffffffffffffffffffffffffffffff929092168252602082015260400190565b6020808252825182820181905260009190848201906040850190845b81811015615f2957615f16838551615d13565b9284019260809290920191600101615f03565b50909695505050505050565b600060408252615f49604083018688615c42565b8281036020840152615eb6818587615c42565b6000602082526146de6020830184615c8f565b600060408252615f826040830185615c8f565b82810360208401526128698185615c8f565b901515815260200190565b6000831515825260406020830152612ec26040830184615cc9565b96875273ffffffffffffffffffffffffffffffffffffffff95861660208801529390941660408601526060850191909152608084015260a083019190915260c082015260e00190565b94855260208501939093526040840191909152606083015273ffffffffffffffffffffffffffffffffffffffff16608082015260a00190565b93845260ff9290921660208401526040830152606082015260800190565b6000602082526146de6020830184615cc9565b60208082526018908201527f45434453413a20696e76616c6964207369676e61747572650000000000000000604082015260600190565b60208082526034908201527f455243313135353a207472616e7366657220746f206e6f6e204552433131353560408201527f526563656976657220696d706c656d656e746572000000000000000000000000606082015260800190565b60208082526018908201527f746f6b656e205f696420616c7265616479206578697374730000000000000000604082015260600190565b60208082526028908201527f455243313135353a204552433131353552656365697665722072656a6563746560408201527f6420746f6b656e73000000000000000000000000000000000000000000000000606082015260800190565b60208082526032908201527f4d696e696d616c466f727761726465723a207369676e617475726520646f657360408201527f206e6f74206d6174636820726571756573740000000000000000000000000000606082015260800190565b60208082526014908201527f5061757361626c653a206e6f7420706175736564000000000000000000000000604082015260600190565b60208082526045908201527f4d65746163616e614e4654236164644d696e745065726d697373696f6e3a205360408201527f544152545f54494d455f49535f4e4f545f4c45535345525f5448454e5f454e4460608201527f5f54494d45000000000000000000000000000000000000000000000000000000608082015260a00190565b6020808252601f908201527f45434453413a20696e76616c6964207369676e6174757265206c656e67746800604082015260600190565b6020808252602e908201527f4d65746163616e614e4654235f76616c69646174654d696e74733a204641435460408201527f4f52595f4e4f545f414354495645000000000000000000000000000000000000606082015260800190565b6020808252602b908201527f455243313135353a2062616c616e636520717565727920666f7220746865207a60408201527f65726f2061646472657373000000000000000000000000000000000000000000606082015260800190565b60208082526026908201527f4f776e61626c653a206e6577206f776e657220697320746865207a65726f206160408201527f6464726573730000000000000000000000000000000000000000000000000000606082015260800190565b60208082526024908201527f455243313135353a206275726e20616d6f756e7420657863656564732062616c60408201527f616e636500000000000000000000000000000000000000000000000000000000606082015260800190565b60208082526029908201527f455243313135353a2063616c6c6572206973206e6f74206f776e6572206e6f7260408201527f20617070726f7665640000000000000000000000000000000000000000000000606082015260800190565b6020808252602b908201527f4d65746163616e614e4654235f76616c69646174654d696e74733a2049445f4f60408201527f55545f4f465f52414e4745000000000000000000000000000000000000000000606082015260800190565b60208082526012908201527f554e535550504f525445445f4d4554484f440000000000000000000000000000604082015260600190565b60208082526022908201527f45434453413a20696e76616c6964207369676e6174757265202773272076616c60408201527f7565000000000000000000000000000000000000000000000000000000000000606082015260800190565b60208082526032908201527f4d65746163616e614e4654237365744d617849737375616e6365733a20494e5660408201527f414c49445f4152524159535f4c454e4754480000000000000000000000000000606082015260800190565b60208082526038908201527f4d65746163616e614e4654236164644d696e745065726d697373696f6e3a204f60408201527f5645524c41505f574954485f4c4f434b45445f52414e47450000000000000000606082015260800190565b60208082526010908201527f5061757361626c653a2070617573656400000000000000000000000000000000604082015260600190565b60208082526025908201527f455243313135353a207472616e7366657220746f20746865207a65726f20616460408201527f6472657373000000000000000000000000000000000000000000000000000000606082015260800190565b60208082526032908201527f455243313135353a207472616e736665722063616c6c6572206973206e6f742060408201527f6f776e6572206e6f7220617070726f7665640000000000000000000000000000606082015260800190565b6020808252602f908201527f455243313135355472616461626c65236d696e7442617463683a204f4e4c595f60408201527f43524541544f525f414c4c4f5745440000000000000000000000000000000000606082015260800190565b60208082526022908201527f45434453413a20696e76616c6964207369676e6174757265202776272076616c60408201527f7565000000000000000000000000000000000000000000000000000000000000606082015260800190565b60208082526023908201527f455243313135353a206275726e2066726f6d20746865207a65726f206164647260408201527f6573730000000000000000000000000000000000000000000000000000000000606082015260800190565b6020808252602a908201527f455243313135353a20696e73756666696369656e742062616c616e636520666f60408201527f72207472616e7366657200000000000000000000000000000000000000000000606082015260800190565b60208082526031908201527f4d65746163616e614e4654235f76616c69646174654d696e74733a204d41585f60408201527f49535355414e43455f4558434545444544000000000000000000000000000000606082015260800190565b6020808252818101527f4f776e61626c653a2063616c6c6572206973206e6f7420746865206f776e6572604082015260600190565b60208082526029908201527f4d65746163616e614e4654236164644d696e745065726d697373696f6e3a204e60408201527f554c4c5f52414e47450000000000000000000000000000000000000000000000606082015260800190565b60208082526035908201527f4d65746163616e614e4654237365744d617849737375616e6365733a20494e5660408201527f414c49445f4e45575f4d41585f49535355414e43450000000000000000000000606082015260800190565b6020808252602c908201527f4d65746163616e614e4654236164644d696e745065726d697373696f6e3a204960408201527f4e56414c49445f52414e47450000000000000000000000000000000000000000606082015260800190565b6020808252602c908201527f455243313135355472616461626c652373657443726561746f723a20494e564160408201527f4c49445f414444524553532e0000000000000000000000000000000000000000606082015260800190565b6020808252602a908201527f455243323938313a20726f79616c7479206665652077696c6c2065786365656460408201527f2073616c65507269636500000000000000000000000000000000000000000000606082015260800190565b60208082526029908201527f455243313135353a2073657474696e6720617070726f76616c2073746174757360408201527f20666f722073656c660000000000000000000000000000000000000000000000606082015260800190565b60208082526029908201527f455243313135353a206163636f756e747320616e6420696473206c656e67746860408201527f206d69736d617463680000000000000000000000000000000000000000000000606082015260800190565b60208082526028908201527f455243313135353a2069647320616e6420616d6f756e7473206c656e6774682060408201527f6d69736d61746368000000000000000000000000000000000000000000000000606082015260800190565b60208082526021908201527f455243313135353a206d696e7420746f20746865207a65726f2061646472657360408201527f7300000000000000000000000000000000000000000000000000000000000000606082015260800190565b60208082526031908201527f455243313135355472616461626c652363726561746f724f6e6c793a204f4e4c60408201527f595f43524541544f525f414c4c4f574544000000000000000000000000000000606082015260800190565b60208082526019908201527f455243323938313a20696e76616c696420726563656976657200000000000000604082015260600190565b6080810161095d8284615d13565b90815260200190565b918252602082015260400190565b60008083357fffffffffffffffffffffffffffffffffffffffffffffffffffffffffffffffe1843603018112616d88578283fd5b83018035915067ffffffffffffffff821115616da2578283fd5b60200191503681900382131561143957600080fd5b60405181810167ffffffffffffffff81118282101715616dd957616dd9616f92565b604052919050565b600067ffffffffffffffff821115616dfb57616dfb616f92565b5060209081020190565b60008219821115616e1857616e18616f63565b500190565b600082616e51577f4e487b710000000000000000000000000000000000000000000000000000000081526012600452602481fd5b500490565b6000817fffffffffffffffffffffffffffffffffffffffffffffffffffffffffffffffff0483118215151615616e8e57616e8e616f63565b500290565b600082821015616ea557616ea5616f63565b500390565b60005b83811015616ec5578181015183820152602001616ead565b838111156121f05750506000910152565b600281046001821680616eea57607f821691505b60208210811415616f24577f4e487b7100000000000000000000000000000000000000000000000000000000600052602260045260246000fd5b50919050565b60007fffffffffffffffffffffffffffffffffffffffffffffffffffffffffffffffff821415616f5c57616f5c616f63565b5060010190565b7f4e487b7100000000000000000000000000000000000000000000000000000000600052601160045260246000fd5b7f4e487b7100000000000000000000000000000000000000000000000000000000600052604160045260246000fd5b60e01c90565b600060443d1015616fd757611da8565b600481823e6308c379a0616feb8251616fc1565b14616ff557611da8565b6040517ffffffffffffffffffffffffffffffffffffffffffffffffffffffffffffffffc3d016004823e80513d67ffffffffffffffff81602484011181841117156170435750505050611da8565b8284019250825191508082111561705d5750505050611da8565b503d8301602082840101111561707557505050611da8565b601f017fffffffffffffffffffffffffffffffffffffffffffffffffffffffffffffffe016810160200160405291505090565b73ffffffffffffffffffffffffffffffffffffffff811681146109f257600080fd5b7fffffffff00000000000000000000000000000000000000000000000000000000811681146109f257600080fdfea2646970667358221220eadcdbf5498707190f572969bb5d71a12f524672cd7b7dddb0db74cc241603ba64736f6c63430008000033",
  "linkReferences": {},
  "deployedLinkReferences": {}
}