{
  "_format": "hh-sol-artifact-1",
  "contractName": "CreatureAccessory",
  "sourceName": "contracts/nft/tokens/CreatureAccessory.sol",
  "abi": [
    {
      "inputs": [
        {
          "internalType": "address",
          "name": "forwarder",
          "type": "address"
        }
      ],
      "stateMutability": "nonpayable",
      "type": "constructor"
    },
    {
      "anonymous": false,
      "inputs": [
        {
          "indexed": true,
          "internalType": "address",
          "name": "account",
          "type": "address"
        },
        {
          "indexed": true,
          "internalType": "address",
          "name": "operator",
          "type": "address"
        },
        {
          "indexed": false,
          "internalType": "bool",
          "name": "approved",
          "type": "bool"
        }
      ],
      "name": "ApprovalForAll",
      "type": "event"
    },
    {
      "anonymous": false,
      "inputs": [
        {
          "indexed": true,
          "internalType": "address",
          "name": "factory",
          "type": "address"
        },
        {
          "components": [
            {
              "internalType": "uint64",
              "name": "minID",
              "type": "uint64"
            },
            {
              "internalType": "uint64",
              "name": "maxID",
              "type": "uint64"
            },
            {
              "internalType": "uint64",
              "name": "startTime",
              "type": "uint64"
            },
            {
              "internalType": "uint64",
              "name": "endTime",
              "type": "uint64"
            }
          ],
          "indexed": false,
          "internalType": "struct AssetRangeStruct.AssetRange",
          "name": "new_range",
          "type": "tuple"
        }
      ],
      "name": "MintPermissionAdded",
      "type": "event"
    },
    {
      "anonymous": false,
      "inputs": [
        {
          "indexed": true,
          "internalType": "address",
          "name": "factory",
          "type": "address"
        },
        {
          "components": [
            {
              "internalType": "uint64",
              "name": "minID",
              "type": "uint64"
            },
            {
              "internalType": "uint64",
              "name": "maxID",
              "type": "uint64"
            },
            {
              "internalType": "uint64",
              "name": "startTime",
              "type": "uint64"
            },
            {
              "internalType": "uint64",
              "name": "endTime",
              "type": "uint64"
            }
          ],
          "indexed": false,
          "internalType": "struct AssetRangeStruct.AssetRange",
          "name": "deleted_range",
          "type": "tuple"
        }
      ],
      "name": "MintPermissionRemoved",
      "type": "event"
    },
    {
      "anonymous": false,
      "inputs": [
        {
          "indexed": true,
          "internalType": "address",
          "name": "previousOwner",
          "type": "address"
        },
        {
          "indexed": true,
          "internalType": "address",
          "name": "newOwner",
          "type": "address"
        }
      ],
      "name": "OwnershipTransferred",
      "type": "event"
    },
    {
      "anonymous": false,
      "inputs": [
        {
          "indexed": false,
          "internalType": "address",
          "name": "account",
          "type": "address"
        }
      ],
      "name": "Paused",
      "type": "event"
    },
    {
      "anonymous": false,
      "inputs": [
        {
          "indexed": true,
          "internalType": "address",
          "name": "operator",
          "type": "address"
        },
        {
          "indexed": true,
          "internalType": "address",
          "name": "from",
          "type": "address"
        },
        {
          "indexed": true,
          "internalType": "address",
          "name": "to",
          "type": "address"
        },
        {
          "indexed": false,
          "internalType": "uint256[]",
          "name": "ids",
          "type": "uint256[]"
        },
        {
          "indexed": false,
          "internalType": "uint256[]",
          "name": "values",
          "type": "uint256[]"
        }
      ],
      "name": "TransferBatch",
      "type": "event"
    },
    {
      "anonymous": false,
      "inputs": [
        {
          "indexed": true,
          "internalType": "address",
          "name": "operator",
          "type": "address"
        },
        {
          "indexed": true,
          "internalType": "address",
          "name": "from",
          "type": "address"
        },
        {
          "indexed": true,
          "internalType": "address",
          "name": "to",
          "type": "address"
        },
        {
          "indexed": false,
          "internalType": "uint256",
          "name": "id",
          "type": "uint256"
        },
        {
          "indexed": false,
          "internalType": "uint256",
          "name": "value",
          "type": "uint256"
        }
      ],
      "name": "TransferSingle",
      "type": "event"
    },
    {
      "anonymous": false,
      "inputs": [
        {
          "indexed": false,
          "internalType": "string",
          "name": "value",
          "type": "string"
        },
        {
          "indexed": true,
          "internalType": "uint256",
          "name": "id",
          "type": "uint256"
        }
      ],
      "name": "URI",
      "type": "event"
    },
    {
      "anonymous": false,
      "inputs": [
        {
          "indexed": false,
          "internalType": "address",
          "name": "account",
          "type": "address"
        }
      ],
      "name": "Unpaused",
      "type": "event"
    },
    {
      "stateMutability": "nonpayable",
      "type": "fallback"
    },
    {
      "inputs": [
        {
          "internalType": "address",
          "name": "_factory",
          "type": "address"
        },
        {
          "internalType": "uint64",
          "name": "_minRange",
          "type": "uint64"
        },
        {
          "internalType": "uint64",
          "name": "_maxRange",
          "type": "uint64"
        },
        {
          "internalType": "uint64",
          "name": "_startTime",
          "type": "uint64"
        },
        {
          "internalType": "uint64",
          "name": "_endTime",
          "type": "uint64"
        }
      ],
      "name": "addMintPermission",
      "outputs": [],
      "stateMutability": "nonpayable",
      "type": "function"
    },
    {
      "inputs": [
        {
          "internalType": "address",
          "name": "account",
          "type": "address"
        },
        {
          "internalType": "uint256",
          "name": "id",
          "type": "uint256"
        }
      ],
      "name": "balanceOf",
      "outputs": [
        {
          "internalType": "uint256",
          "name": "",
          "type": "uint256"
        }
      ],
      "stateMutability": "view",
      "type": "function"
    },
    {
      "inputs": [
        {
          "internalType": "address[]",
          "name": "accounts",
          "type": "address[]"
        },
        {
          "internalType": "uint256[]",
          "name": "ids",
          "type": "uint256[]"
        }
      ],
      "name": "balanceOfBatch",
      "outputs": [
        {
          "internalType": "uint256[]",
          "name": "",
          "type": "uint256[]"
        }
      ],
      "stateMutability": "view",
      "type": "function"
    },
    {
      "inputs": [
        {
          "internalType": "uint256",
          "name": "_id",
          "type": "uint256"
        },
        {
          "internalType": "uint256",
          "name": "_amount",
          "type": "uint256"
        }
      ],
      "name": "burn",
      "outputs": [],
      "stateMutability": "nonpayable",
      "type": "function"
    },
    {
      "inputs": [
        {
          "internalType": "address",
          "name": "account",
          "type": "address"
        },
        {
          "internalType": "uint256",
          "name": "id",
          "type": "uint256"
        },
        {
          "internalType": "uint256",
          "name": "value",
          "type": "uint256"
        }
      ],
      "name": "burn",
      "outputs": [],
      "stateMutability": "nonpayable",
      "type": "function"
    },
    {
      "inputs": [
        {
          "internalType": "address",
          "name": "account",
          "type": "address"
        },
        {
          "internalType": "uint256[]",
          "name": "ids",
          "type": "uint256[]"
        },
        {
          "internalType": "uint256[]",
          "name": "values",
          "type": "uint256[]"
        }
      ],
      "name": "burnBatch",
      "outputs": [],
      "stateMutability": "nonpayable",
      "type": "function"
    },
    {
      "inputs": [
        {
          "internalType": "uint256[]",
          "name": "_ids",
          "type": "uint256[]"
        },
        {
          "internalType": "uint256[]",
          "name": "_amounts",
          "type": "uint256[]"
        }
      ],
      "name": "burnBatch",
      "outputs": [],
      "stateMutability": "nonpayable",
      "type": "function"
    },
    {
      "inputs": [],
      "name": "contractURI",
      "outputs": [
        {
          "internalType": "string",
          "name": "",
          "type": "string"
        }
      ],
      "stateMutability": "pure",
      "type": "function"
    },
    {
      "inputs": [
        {
          "internalType": "address",
          "name": "_initialOwner",
          "type": "address"
        },
        {
          "internalType": "uint256",
          "name": "_id",
          "type": "uint256"
        },
        {
          "internalType": "uint256",
          "name": "_initialSupply",
          "type": "uint256"
        },
        {
          "internalType": "bytes",
          "name": "_data",
          "type": "bytes"
        }
      ],
      "name": "create",
      "outputs": [
        {
          "internalType": "uint256",
          "name": "",
          "type": "uint256"
        }
      ],
      "stateMutability": "nonpayable",
      "type": "function"
    },
    {
      "inputs": [
        {
          "internalType": "uint256",
          "name": "",
          "type": "uint256"
        }
      ],
      "name": "creators",
      "outputs": [
        {
          "internalType": "address",
          "name": "",
          "type": "address"
        }
      ],
      "stateMutability": "view",
      "type": "function"
    },
    {
      "inputs": [
        {
          "internalType": "uint256",
          "name": "id",
          "type": "uint256"
        }
      ],
      "name": "exists",
      "outputs": [
        {
          "internalType": "bool",
          "name": "",
          "type": "bool"
        }
      ],
      "stateMutability": "view",
      "type": "function"
    },
    {
      "inputs": [
        {
          "internalType": "address",
          "name": "_factory",
          "type": "address"
        }
      ],
      "name": "getFactoryAccessRanges",
      "outputs": [
        {
          "components": [
            {
              "internalType": "uint64",
              "name": "minID",
              "type": "uint64"
            },
            {
              "internalType": "uint64",
              "name": "maxID",
              "type": "uint64"
            },
            {
              "internalType": "uint64",
              "name": "startTime",
              "type": "uint64"
            },
            {
              "internalType": "uint64",
              "name": "endTime",
              "type": "uint64"
            }
          ],
          "internalType": "struct AssetRangeStruct.AssetRange[]",
          "name": "",
          "type": "tuple[]"
        }
      ],
      "stateMutability": "view",
      "type": "function"
    },
    {
      "inputs": [
        {
          "internalType": "address",
          "name": "_owner",
          "type": "address"
        },
        {
          "internalType": "address",
          "name": "_operator",
          "type": "address"
        }
      ],
      "name": "isApprovedForAll",
      "outputs": [
        {
          "internalType": "bool",
          "name": "isOperator",
          "type": "bool"
        }
      ],
      "stateMutability": "view",
      "type": "function"
    },
    {
      "inputs": [
        {
          "internalType": "address",
          "name": "forwarder",
          "type": "address"
        }
      ],
      "name": "isTrustedForwarder",
      "outputs": [
        {
          "internalType": "bool",
          "name": "",
          "type": "bool"
        }
      ],
      "stateMutability": "view",
      "type": "function"
    },
    {
      "inputs": [
        {
          "internalType": "address",
          "name": "_to",
          "type": "address"
        },
        {
          "internalType": "uint256",
          "name": "_id",
          "type": "uint256"
        },
        {
          "internalType": "uint256",
          "name": "_amount",
          "type": "uint256"
        },
        {
          "internalType": "bytes",
          "name": "_data",
          "type": "bytes"
        }
      ],
      "name": "mint",
      "outputs": [],
      "stateMutability": "nonpayable",
      "type": "function"
    },
    {
      "inputs": [
        {
          "internalType": "address",
          "name": "_to",
          "type": "address"
        },
        {
          "internalType": "uint256[]",
          "name": "_ids",
          "type": "uint256[]"
        },
        {
          "internalType": "uint256[]",
          "name": "_amounts",
          "type": "uint256[]"
        },
        {
          "internalType": "bytes",
          "name": "_data",
          "type": "bytes"
        }
      ],
      "name": "mintBatch",
      "outputs": [],
      "stateMutability": "nonpayable",
      "type": "function"
    },
    {
      "inputs": [],
      "name": "owner",
      "outputs": [
        {
          "internalType": "address",
          "name": "",
          "type": "address"
        }
      ],
      "stateMutability": "view",
      "type": "function"
    },
    {
      "inputs": [],
      "name": "pause",
      "outputs": [],
      "stateMutability": "nonpayable",
      "type": "function"
    },
    {
      "inputs": [],
      "name": "paused",
      "outputs": [
        {
          "internalType": "bool",
          "name": "",
          "type": "bool"
        }
      ],
      "stateMutability": "view",
      "type": "function"
    },
    {
      "inputs": [
        {
          "internalType": "address",
          "name": "_factory",
          "type": "address"
        },
        {
          "internalType": "uint256",
          "name": "_rangeIndex",
          "type": "uint256"
        }
      ],
      "name": "removeMintPermission",
      "outputs": [],
      "stateMutability": "nonpayable",
      "type": "function"
    },
    {
      "inputs": [],
      "name": "renounceOwnership",
      "outputs": [],
      "stateMutability": "nonpayable",
      "type": "function"
    },
    {
      "inputs": [
        {
          "internalType": "address",
          "name": "from",
          "type": "address"
        },
        {
          "internalType": "address",
          "name": "to",
          "type": "address"
        },
        {
          "internalType": "uint256[]",
          "name": "ids",
          "type": "uint256[]"
        },
        {
          "internalType": "uint256[]",
          "name": "amounts",
          "type": "uint256[]"
        },
        {
          "internalType": "bytes",
          "name": "data",
          "type": "bytes"
        }
      ],
      "name": "safeBatchTransferFrom",
      "outputs": [],
      "stateMutability": "nonpayable",
      "type": "function"
    },
    {
      "inputs": [
        {
          "internalType": "address",
          "name": "from",
          "type": "address"
        },
        {
          "internalType": "address",
          "name": "to",
          "type": "address"
        },
        {
          "internalType": "uint256",
          "name": "id",
          "type": "uint256"
        },
        {
          "internalType": "uint256",
          "name": "amount",
          "type": "uint256"
        },
        {
          "internalType": "bytes",
          "name": "data",
          "type": "bytes"
        }
      ],
      "name": "safeTransferFrom",
      "outputs": [],
      "stateMutability": "nonpayable",
      "type": "function"
    },
    {
      "inputs": [
        {
          "internalType": "address",
          "name": "operator",
          "type": "address"
        },
        {
          "internalType": "bool",
          "name": "approved",
          "type": "bool"
        }
      ],
      "name": "setApprovalForAll",
      "outputs": [],
      "stateMutability": "nonpayable",
      "type": "function"
    },
    {
      "inputs": [
        {
          "internalType": "address",
          "name": "_to",
          "type": "address"
        },
        {
          "internalType": "uint256[]",
          "name": "_ids",
          "type": "uint256[]"
        }
      ],
      "name": "setCreator",
      "outputs": [],
      "stateMutability": "nonpayable",
      "type": "function"
    },
    {
      "inputs": [
        {
          "internalType": "string",
          "name": "newuri",
          "type": "string"
        }
      ],
      "name": "setURI",
      "outputs": [],
      "stateMutability": "nonpayable",
      "type": "function"
    },
    {
      "inputs": [
        {
          "internalType": "bytes4",
          "name": "_interfaceID",
          "type": "bytes4"
        }
      ],
      "name": "supportsInterface",
      "outputs": [
        {
          "internalType": "bool",
          "name": "",
          "type": "bool"
        }
      ],
      "stateMutability": "view",
      "type": "function"
    },
    {
      "inputs": [
        {
          "internalType": "uint256",
          "name": "id",
          "type": "uint256"
        }
      ],
      "name": "totalSupply",
      "outputs": [
        {
          "internalType": "uint256",
          "name": "",
          "type": "uint256"
        }
      ],
      "stateMutability": "view",
      "type": "function"
    },
    {
      "inputs": [
        {
          "internalType": "address",
          "name": "newOwner",
          "type": "address"
        }
      ],
      "name": "transferOwnership",
      "outputs": [],
      "stateMutability": "nonpayable",
      "type": "function"
    },
    {
      "inputs": [],
      "name": "unpause",
      "outputs": [],
      "stateMutability": "nonpayable",
      "type": "function"
    },
    {
      "inputs": [
        {
          "internalType": "uint256",
          "name": "",
          "type": "uint256"
        }
      ],
      "name": "uri",
      "outputs": [
        {
          "internalType": "string",
          "name": "",
          "type": "string"
        }
      ],
      "stateMutability": "view",
      "type": "function"
    }
  ],
  "bytecode": "0x60806040523480156200001157600080fd5b50604051620051a5380380620051a583398101604081905262000034916200029f565b60408051808201909152601e81527f68747470733a2f2f61737365742e6d65746163616e612e696f2f7b69647d000060208201528180826200007681620000d9565b506200008b62000085620000f2565b6200010f565b600480547fffffffffffffffffffffff0000000000000000000000000000000000000000001673ffffffffffffffffffffffffffffffffffffffff9092169190911790555062000319915050565b8051620000ee906002906020840190620001f9565b5050565b6000620001096200018660201b620020f11760201c565b90505b90565b6003805473ffffffffffffffffffffffffffffffffffffffff8381167fffffffffffffffffffffffff0000000000000000000000000000000000000000831681179093556040519116919082907f8be0079c531659141344cd1fd0a4f28419497f9722a3daafe3b4186f6b6457e090600090a35050565b60045460009073ffffffffffffffffffffffffffffffffffffffff16331415620001d857507fffffffffffffffffffffffffffffffffffffffffffffffffffffffffffffffec36013560601c6200010c565b620001ed620001f560201b620021481760201c565b90506200010c565b3390565b8280546200020790620002dc565b90600052602060002090601f0160209004810192826200022b576000855562000276565b82601f106200024657805160ff191683800117855562000276565b8280016001018555821562000276579182015b828111156200027657825182559160200191906001019062000259565b506200028492915062000288565b5090565b5b8082111562000284576000815560010162000289565b600060208284031215620002b1578081fd5b815173ffffffffffffffffffffffffffffffffffffffff81168114620002d5578182fd5b9392505050565b600181811c90821680620002f157607f821691505b602082108114156200031357634e487b7160e01b600052602260045260246000fd5b50919050565b614e7c80620003296000396000f3fe608060405234801561001057600080fd5b50600436106101e45760003560e01c8063731133e91161010f578063c13dc291116100a2578063e985e9c511610071578063e985e9c514610519578063f242432a1461052c578063f2fde38b1461053f578063f5298aca14610552576101e4565b8063c13dc29114610484578063cd53d08e14610497578063d2a6b51a146104cd578063e8a3d485146104e0576101e4565b8063a22cb465116100de578063a22cb4651461041e578063a36b3f2914610431578063b390c0ab14610451578063bd85b03914610464576101e4565b8063731133e9146103b157806383ca4b6f146103c45780638456cb59146103d75780638da5cb5b146103df576101e4565b80633f4ba83a11610187578063572b6c0511610156578063572b6c051461035f5780635c975abb1461038e5780636b20c45414610396578063715018a6146103a9576101e4565b80633f4ba83a14610302578063458d28441461030a5780634e1273f41461031d5780634f558e791461033d576101e4565b806307800c9b116101c357806307800c9b146102a95780630e89341c146102bc5780631f7fdffa146102dc5780632eb2c2d6146102ef576101e4565b8062fdd58e1461024b57806301ffc9a71461027157806302fe530514610294575b6040517f08c379a000000000000000000000000000000000000000000000000000000000815260206004820152601260248201527f554e535550504f525445445f4d4554484f44000000000000000000000000000060448201526064015b60405180910390fd5b61025e6102593660046145d2565b610565565b6040519081526020015b60405180910390f35b61028461027f36600461489d565b610640565b6040519015158152602001610268565b6102a76102a23660046148d5565b610653565b005b6102a76102b736600461470f565b610719565b6102cf6102ca366004614923565b610af1565b6040516102689190614b78565b6102a76102ea366004614503565b610b85565b6102a76102fd36600461433d565b610c9e565b6102a7610d86565b6102a76103183660046145d2565b610e4a565b61033061032b366004614773565b61130c565b6040516102689190614b37565b61028461034b366004614923565b600090815260056020526040902054151590565b61028461036d3660046142f1565b60045473ffffffffffffffffffffffffffffffffffffffff90811691161490565b610284611500565b6102a76103a4366004614492565b611522565b6102a7611606565b6102a76103bf36600461462d565b6116ca565b6102a76103d2366004614834565b6117f2565b6102a7611860565b60035473ffffffffffffffffffffffffffffffffffffffff165b60405173ffffffffffffffffffffffffffffffffffffffff9091168152602001610268565b6102a761042c366004614598565b611922565b61044461043f3660046142f1565b611938565b6040516102689190614aba565b6102a761045f36600461493b565b611a16565b61025e610472366004614923565b60009081526005602052604090205490565b61025e6104923660046146bc565b611a21565b6103f96104a5366004614923565b60066020526000908152604090205473ffffffffffffffffffffffffffffffffffffffff1681565b6102a76104db366004614446565b611ca0565b60408051808201909152601381527f68747470733a2f2f6d65746163616e612e696f0000000000000000000000000060208201526102cf565b61028461052736600461430b565b611d8b565b6102a761053a3660046143e3565b611dcb565b6102a761054d3660046142f1565b611eac565b6102a76105603660046145fb565b612012565b600073ffffffffffffffffffffffffffffffffffffffff831661060a576040517f08c379a000000000000000000000000000000000000000000000000000000000815260206004820152602b60248201527f455243313135353a2062616c616e636520717565727920666f7220746865207a60448201527f65726f20616464726573730000000000000000000000000000000000000000006064820152608401610242565b5060008181526020818152604080832073ffffffffffffffffffffffffffffffffffffffff861684529091529020545b92915050565b600061064b8261214c565b90505b919050565b61065b61222f565b73ffffffffffffffffffffffffffffffffffffffff1661069060035473ffffffffffffffffffffffffffffffffffffffff1690565b73ffffffffffffffffffffffffffffffffffffffff161461070d576040517f08c379a000000000000000000000000000000000000000000000000000000000815260206004820181905260248201527f4f776e61626c653a2063616c6c6572206973206e6f7420746865206f776e65726044820152606401610242565b6107168161223e565b50565b61072161222f565b73ffffffffffffffffffffffffffffffffffffffff1661075660035473ffffffffffffffffffffffffffffffffffffffff1690565b73ffffffffffffffffffffffffffffffffffffffff16146107d3576040517f08c379a000000000000000000000000000000000000000000000000000000000815260206004820181905260248201527f4f776e61626c653a2063616c6c6572206973206e6f7420746865206f776e65726044820152606401610242565b60008367ffffffffffffffff1611610847576040517f08c379a000000000000000000000000000000000000000000000000000000000815260206004820181905260248201527f4e4654236164644d696e745065726d697373696f6e3a4e554c4c5f52414e47456044820152606401610242565b8267ffffffffffffffff168467ffffffffffffffff1611156108eb576040517f08c379a000000000000000000000000000000000000000000000000000000000815260206004820152602360248201527f4e4654236164644d696e745065726d697373696f6e3a494e56414c49445f524160448201527f4e474500000000000000000000000000000000000000000000000000000000006064820152608401610242565b8067ffffffffffffffff168267ffffffffffffffff161061098e576040517f08c379a000000000000000000000000000000000000000000000000000000000815260206004820152603160248201527f4e4654236164644d696e745065726d697373696f6e3a53544152545f54494d4560448201527f5f454e445f54494d455f494e56414c49440000000000000000000000000000006064820152608401610242565b6040805160808101825267ffffffffffffffff808716825285811660208084019182528683168486019081528684166060860190815273ffffffffffffffffffffffffffffffffffffffff8c166000818152600785528881208054600181018255908252949020875194018054955193519251871678010000000000000000000000000000000000000000000000000277ffffffffffffffffffffffffffffffffffffffffffffffff93881670010000000000000000000000000000000002939093166fffffffffffffffffffffffffffffffff94881668010000000000000000027fffffffffffffffffffffffffffffffff0000000000000000000000000000000090971695909716949094179490941791909116939093179290921790915591519091907f188968bccf857d854c73494ca4da4cc4ae2769e4b732db8f40dfa62b86b1c40a90610ae1908490614b8b565b60405180910390a2505050505050565b606060028054610b0090614c1b565b80601f0160208091040260200160405190810160405280929190818152602001828054610b2c90614c1b565b8015610b795780601f10610b4e57610100808354040283529160200191610b79565b820191906000526020600020905b815481529060010190602001808311610b5c57829003601f168201915b50505050509050919050565b610b8f8383612251565b60005b8351811015610c8b576000848281518110610bd6577f4e487b7100000000000000000000000000000000000000000000000000000000600052603260045260246000fd5b60200260200101519050610be861222f565b60008281526006602052604090205473ffffffffffffffffffffffffffffffffffffffff908116911614610c78576040517f08c379a000000000000000000000000000000000000000000000000000000000815260206004820152601a60248201527f4e4654236d696e7442617463683a4f4e4c595f43524541544f520000000000006044820152606401610242565b5080610c8381614cba565b915050610b92565b50610c988484848461258d565b50505050565b610ca661222f565b73ffffffffffffffffffffffffffffffffffffffff168573ffffffffffffffffffffffffffffffffffffffff161480610ce65750610ce68561052761222f565b610d72576040517f08c379a000000000000000000000000000000000000000000000000000000000815260206004820152603260248201527f455243313135353a207472616e736665722063616c6c6572206973206e6f742060448201527f6f776e6572206e6f7220617070726f76656400000000000000000000000000006064820152608401610242565b610d7f858585858561286e565b5050505050565b610d8e61222f565b73ffffffffffffffffffffffffffffffffffffffff16610dc360035473ffffffffffffffffffffffffffffffffffffffff1690565b73ffffffffffffffffffffffffffffffffffffffff1614610e40576040517f08c379a000000000000000000000000000000000000000000000000000000000815260206004820181905260248201527f4f776e61626c653a2063616c6c6572206973206e6f7420746865206f776e65726044820152606401610242565b610e48612c07565b565b610e5261222f565b73ffffffffffffffffffffffffffffffffffffffff16610e8760035473ffffffffffffffffffffffffffffffffffffffff1690565b73ffffffffffffffffffffffffffffffffffffffff1614610f04576040517f08c379a000000000000000000000000000000000000000000000000000000000815260206004820181905260248201527f4f776e61626c653a2063616c6c6572206973206e6f7420746865206f776e65726044820152606401610242565b73ffffffffffffffffffffffffffffffffffffffff8216600090815260076020526040812054610f3690600190614c04565b73ffffffffffffffffffffffffffffffffffffffff841660009081526007602052604081208054929350909184908110610f99577f4e487b7100000000000000000000000000000000000000000000000000000000600052603260045260246000fd5b600091825260209182902060408051608081018252929091015467ffffffffffffffff8082168452680100000000000000008204811694840194909452700100000000000000000000000000000000810484169183019190915278010000000000000000000000000000000000000000000000009004909116606082015290508183146112255773ffffffffffffffffffffffffffffffffffffffff8416600090815260076020526040812080548490811061107e577f4e487b7100000000000000000000000000000000000000000000000000000000600052603260045260246000fd5b6000918252602080832060408051608081018252919093015467ffffffffffffffff80821683526801000000000000000082048116838501527001000000000000000000000000000000008204811683860152780100000000000000000000000000000000000000000000000090910416606082015273ffffffffffffffffffffffffffffffffffffffff89168452600790915291208054919250829186908110611152577f4e487b7100000000000000000000000000000000000000000000000000000000600052603260045260246000fd5b600091825260209182902083519101805492840151604085015160609095015167ffffffffffffffff90811678010000000000000000000000000000000000000000000000000277ffffffffffffffffffffffffffffffffffffffffffffffff96821670010000000000000000000000000000000002969096166fffffffffffffffffffffffffffffffff92821668010000000000000000027fffffffffffffffffffffffffffffffff000000000000000000000000000000009096169190941617939093179290921617919091179055505b73ffffffffffffffffffffffffffffffffffffffff84166000908152600760205260409020805480611280577f4e487b7100000000000000000000000000000000000000000000000000000000600052603160045260246000fd5b60008281526020812082017fffffffffffffffffffffffffffffffffffffffffffffffffffffffffffffffff9081019190915501905560405173ffffffffffffffffffffffffffffffffffffffff8516907f1bca5c143feb87c2d4e8d2d1fd73ba6f43f551ba73c58634f56bbe30701f06d4906112fe908490614b8b565b60405180910390a250505050565b6060815183511461139f576040517f08c379a000000000000000000000000000000000000000000000000000000000815260206004820152602960248201527f455243313135353a206163636f756e747320616e6420696473206c656e67746860448201527f206d69736d6174636800000000000000000000000000000000000000000000006064820152608401610242565b6000835167ffffffffffffffff8111156113e2577f4e487b7100000000000000000000000000000000000000000000000000000000600052604160045260246000fd5b60405190808252806020026020018201604052801561140b578160200160208202803683370190505b50905060005b84518110156114f8576114a4858281518110611456577f4e487b7100000000000000000000000000000000000000000000000000000000600052603260045260246000fd5b6020026020010151858381518110611497577f4e487b7100000000000000000000000000000000000000000000000000000000600052603260045260246000fd5b6020026020010151610565565b8282815181106114dd577f4e487b7100000000000000000000000000000000000000000000000000000000600052603260045260246000fd5b60209081029190910101526114f181614cba565b9050611411565b509392505050565b60045474010000000000000000000000000000000000000000900460ff165b90565b61152a61222f565b73ffffffffffffffffffffffffffffffffffffffff168373ffffffffffffffffffffffffffffffffffffffff16148061156a575061156a8361052761222f565b6115f6576040517f08c379a000000000000000000000000000000000000000000000000000000000815260206004820152602960248201527f455243313135353a2063616c6c6572206973206e6f74206f776e6572206e6f7260448201527f20617070726f76656400000000000000000000000000000000000000000000006064820152608401610242565b611601838383612cf0565b505050565b61160e61222f565b73ffffffffffffffffffffffffffffffffffffffff1661164360035473ffffffffffffffffffffffffffffffffffffffff1690565b73ffffffffffffffffffffffffffffffffffffffff16146116c0576040517f08c379a000000000000000000000000000000000000000000000000000000000815260206004820181905260248201527f4f776e61626c653a2063616c6c6572206973206e6f7420746865206f776e65726044820152606401610242565b610e486000613070565b604080516001808252818301909252600091602080830190803683375050604080516001808252818301909252929350600092915060208083019080368337019050509050858260008151811061174a577f4e487b7100000000000000000000000000000000000000000000000000000000600052603260045260246000fd5b6020026020010181815250508481600081518110611791577f4e487b7100000000000000000000000000000000000000000000000000000000600052603260045260246000fd5b6020026020010181815250506117a78282612251565b6117e987878787878080601f0160208091040260200160405190810160405280939291908181526020018383808284376000920191909152506130e792505050565b50505050505050565b610c983385858080602002602001604051908101604052809392919081815260200183836020028082843760009201919091525050604080516020808902828101820190935288825290935088925087918291850190849080828437600092019190915250612cf092505050565b61186861222f565b73ffffffffffffffffffffffffffffffffffffffff1661189d60035473ffffffffffffffffffffffffffffffffffffffff1690565b73ffffffffffffffffffffffffffffffffffffffff161461191a576040517f08c379a000000000000000000000000000000000000000000000000000000000815260206004820181905260248201527f4f776e61626c653a2063616c6c6572206973206e6f7420746865206f776e65726044820152606401610242565b610e4861325f565b61193461192d61222f565b8383613336565b5050565b73ffffffffffffffffffffffffffffffffffffffff81166000908152600760209081526040808320805482518185028101850190935280835260609492939192909184015b82821015611a0b576000848152602090819020604080516080810182529185015467ffffffffffffffff808216845268010000000000000000820481168486015270010000000000000000000000000000000082048116928401929092527801000000000000000000000000000000000000000000000000900416606082015282526001909201910161197d565b505050509050919050565b61193433838361348a565b6000611a2b61222f565b73ffffffffffffffffffffffffffffffffffffffff16611a6060035473ffffffffffffffffffffffffffffffffffffffff1690565b73ffffffffffffffffffffffffffffffffffffffff1614611add576040517f08c379a000000000000000000000000000000000000000000000000000000000815260206004820181905260248201527f4f776e61626c653a2063616c6c6572206973206e6f7420746865206f776e65726044820152606401610242565b60008481526005602052604090205415611b53576040517f08c379a000000000000000000000000000000000000000000000000000000000815260206004820152601560248201527f6372656174653a746f6b656e5f69645f657869737400000000000000000000006044820152606401610242565b6040805160018082528183019092526000916020808301908036833750506040805160018082528183019092529293506000929150602080830190803683370190505090508582600081518110611bd3577f4e487b7100000000000000000000000000000000000000000000000000000000600052603260045260246000fd5b6020026020010181815250508481600081518110611c1a577f4e487b7100000000000000000000000000000000000000000000000000000000600052603260045260246000fd5b602002602001018181525050611c308282612251565b611c3861222f565b600087815260066020526040902080547fffffffffffffffffffffffff00000000000000000000000000000000000000001673ffffffffffffffffffffffffffffffffffffffff92909216919091179055611c95878787876130e7565b509395945050505050565b73ffffffffffffffffffffffffffffffffffffffff8216611d1d576040517f08c379a000000000000000000000000000000000000000000000000000000000815260206004820152601f60248201527f4e46542373657443726561746f723a494e56414c49445f414444524553532e006044820152606401610242565b60005b8151811015611601576000828281518110611d64577f4e487b7100000000000000000000000000000000000000000000000000000000600052603260045260246000fd5b60200260200101519050611d78848261369c565b5080611d8381614cba565b915050611d20565b73ffffffffffffffffffffffffffffffffffffffff808316600090815260016020908152604080832093851683529290529081205460ff165b9392505050565b611dd361222f565b73ffffffffffffffffffffffffffffffffffffffff168573ffffffffffffffffffffffffffffffffffffffff161480611e135750611e138561052761222f565b611e9f576040517f08c379a000000000000000000000000000000000000000000000000000000000815260206004820152602960248201527f455243313135353a2063616c6c6572206973206e6f74206f776e6572206e6f7260448201527f20617070726f76656400000000000000000000000000000000000000000000006064820152608401610242565b610d7f8585858585613789565b611eb461222f565b73ffffffffffffffffffffffffffffffffffffffff16611ee960035473ffffffffffffffffffffffffffffffffffffffff1690565b73ffffffffffffffffffffffffffffffffffffffff1614611f66576040517f08c379a000000000000000000000000000000000000000000000000000000000815260206004820181905260248201527f4f776e61626c653a2063616c6c6572206973206e6f7420746865206f776e65726044820152606401610242565b73ffffffffffffffffffffffffffffffffffffffff8116612009576040517f08c379a000000000000000000000000000000000000000000000000000000000815260206004820152602660248201527f4f776e61626c653a206e6577206f776e657220697320746865207a65726f206160448201527f64647265737300000000000000000000000000000000000000000000000000006064820152608401610242565b61071681613070565b61201a61222f565b73ffffffffffffffffffffffffffffffffffffffff168373ffffffffffffffffffffffffffffffffffffffff16148061205a575061205a8361052761222f565b6120e6576040517f08c379a000000000000000000000000000000000000000000000000000000000815260206004820152602960248201527f455243313135353a2063616c6c6572206973206e6f74206f776e6572206e6f7260448201527f20617070726f76656400000000000000000000000000000000000000000000006064820152608401610242565b61160183838361348a565b60045460009073ffffffffffffffffffffffffffffffffffffffff1633141561214157507fffffffffffffffffffffffffffffffffffffffffffffffffffffffffffffffec36013560601c61151f565b503361151f565b3390565b60007fffffffff0000000000000000000000000000000000000000000000000000000082167fd9b67a260000000000000000000000000000000000000000000000000000000014806121df57507fffffffff0000000000000000000000000000000000000000000000000000000082167f0e89341c00000000000000000000000000000000000000000000000000000000145b8061064b57507f01ffc9a7000000000000000000000000000000000000000000000000000000007fffffffff0000000000000000000000000000000000000000000000000000000083161461064b565b60006122396120f1565b905090565b80516119349060029060208401906140c3565b336000908152600760205260408120805491908183612299577f4e487b7100000000000000000000000000000000000000000000000000000000600052603260045260246000fd5b6000918252602080832060408051608081018252939091015467ffffffffffffffff80821685526801000000000000000082048116938501939093527001000000000000000000000000000000008104831691840191909152780100000000000000000000000000000000000000000000000090041660608201529150805b855181101561258557600086828151811061235c577f4e487b7100000000000000000000000000000000000000000000000000000000600052603260045260246000fd5b6020026020010151905060008683815181106123a1577f4e487b7100000000000000000000000000000000000000000000000000000000600052603260045260246000fd5b602002602001015190505b846040015167ffffffffffffffff164210806123d55750846060015167ffffffffffffffff1642115b806123ea5750845167ffffffffffffffff1682105b80612402575081856020015167ffffffffffffffff16105b1561257057612412600185614bec565b93508584106124a3576040517f08c379a000000000000000000000000000000000000000000000000000000000815260206004820152602260248201527f4e4654235f76616c69646174654d696e74733a49445f4f55545f4f465f52414e60448201527f47450000000000000000000000000000000000000000000000000000000000006064820152608401610242565b3360009081526007602052604090208054859081106124eb577f4e487b7100000000000000000000000000000000000000000000000000000000600052603260045260246000fd5b600091825260209182902060408051608081018252929091015467ffffffffffffffff8082168452680100000000000000008204811694840194909452700100000000000000000000000000000000810484169183019190915278010000000000000000000000000000000000000000000000009004909116606082015294506123ac565b5050808061257d90614cba565b915050612318565b505050505050565b73ffffffffffffffffffffffffffffffffffffffff8416612630576040517f08c379a000000000000000000000000000000000000000000000000000000000815260206004820152602160248201527f455243313135353a206d696e7420746f20746865207a65726f2061646472657360448201527f73000000000000000000000000000000000000000000000000000000000000006064820152608401610242565b81518351146126c1576040517f08c379a000000000000000000000000000000000000000000000000000000000815260206004820152602860248201527f455243313135353a2069647320616e6420616d6f756e7473206c656e6774682060448201527f6d69736d617463680000000000000000000000000000000000000000000000006064820152608401610242565b60006126cb61222f565b90506126dc816000878787876139bc565b60005b84518110156127df57838181518110612721577f4e487b7100000000000000000000000000000000000000000000000000000000600052603260045260246000fd5b6020026020010151600080878481518110612765577f4e487b7100000000000000000000000000000000000000000000000000000000600052603260045260246000fd5b6020026020010151815260200190815260200160002060008873ffffffffffffffffffffffffffffffffffffffff1673ffffffffffffffffffffffffffffffffffffffff16815260200190815260200160002060008282546127c79190614bec565b909155508190506127d781614cba565b9150506126df565b508473ffffffffffffffffffffffffffffffffffffffff16600073ffffffffffffffffffffffffffffffffffffffff168273ffffffffffffffffffffffffffffffffffffffff167f4a39dc06d4c0dbc64b70af90fd698a233a518aa5d07e595d983b8c0526c8f7fb8787604051612857929190614b4a565b60405180910390a4610d7f81600087878787613a39565b81518351146128ff576040517f08c379a000000000000000000000000000000000000000000000000000000000815260206004820152602860248201527f455243313135353a2069647320616e6420616d6f756e7473206c656e6774682060448201527f6d69736d617463680000000000000000000000000000000000000000000000006064820152608401610242565b73ffffffffffffffffffffffffffffffffffffffff84166129a2576040517f08c379a000000000000000000000000000000000000000000000000000000000815260206004820152602560248201527f455243313135353a207472616e7366657220746f20746865207a65726f20616460448201527f64726573730000000000000000000000000000000000000000000000000000006064820152608401610242565b60006129ac61222f565b90506129bc8187878787876139bc565b60005b8451811015612b7a576000858281518110612a03577f4e487b7100000000000000000000000000000000000000000000000000000000600052603260045260246000fd5b602002602001015190506000858381518110612a48577f4e487b7100000000000000000000000000000000000000000000000000000000600052603260045260246000fd5b6020908102919091018101516000848152808352604080822073ffffffffffffffffffffffffffffffffffffffff8e168352909352919091205490915081811015612b15576040517f08c379a000000000000000000000000000000000000000000000000000000000815260206004820152602a60248201527f455243313135353a20696e73756666696369656e742062616c616e636520666f60448201527f72207472616e73666572000000000000000000000000000000000000000000006064820152608401610242565b60008381526020818152604080832073ffffffffffffffffffffffffffffffffffffffff8e8116855292528083208585039055908b16825281208054849290612b5f908490614bec565b9250508190555050505080612b7390614cba565b90506129bf565b508473ffffffffffffffffffffffffffffffffffffffff168673ffffffffffffffffffffffffffffffffffffffff168273ffffffffffffffffffffffffffffffffffffffff167f4a39dc06d4c0dbc64b70af90fd698a233a518aa5d07e595d983b8c0526c8f7fb8787604051612bf1929190614b4a565b60405180910390a4612585818787878787613a39565b612c0f611500565b612c75576040517f08c379a000000000000000000000000000000000000000000000000000000000815260206004820152601460248201527f5061757361626c653a206e6f74207061757365640000000000000000000000006044820152606401610242565b600480547fffffffffffffffffffffff00ffffffffffffffffffffffffffffffffffffffff1690557f5db9ee0a495bf2e6ff9c91a7834c1ba4fdd244a5e8aa4e537bd38aeae4b073aa612cc661222f565b60405173ffffffffffffffffffffffffffffffffffffffff909116815260200160405180910390a1565b73ffffffffffffffffffffffffffffffffffffffff8316612d93576040517f08c379a000000000000000000000000000000000000000000000000000000000815260206004820152602360248201527f455243313135353a206275726e2066726f6d20746865207a65726f206164647260448201527f65737300000000000000000000000000000000000000000000000000000000006064820152608401610242565b8051825114612e24576040517f08c379a000000000000000000000000000000000000000000000000000000000815260206004820152602860248201527f455243313135353a2069647320616e6420616d6f756e7473206c656e6774682060448201527f6d69736d617463680000000000000000000000000000000000000000000000006064820152608401610242565b6000612e2e61222f565b9050612e4e818560008686604051806020016040528060008152506139bc565b60005b8351811015612fea576000848281518110612e95577f4e487b7100000000000000000000000000000000000000000000000000000000600052603260045260246000fd5b602002602001015190506000848381518110612eda577f4e487b7100000000000000000000000000000000000000000000000000000000600052603260045260246000fd5b6020908102919091018101516000848152808352604080822073ffffffffffffffffffffffffffffffffffffffff8c168352909352919091205490915081811015612fa6576040517f08c379a0000000000000000000000000000000000000000000000000000000008152602060048201526024808201527f455243313135353a206275726e20616d6f756e7420657863656564732062616c60448201527f616e6365000000000000000000000000000000000000000000000000000000006064820152608401610242565b60009283526020838152604080852073ffffffffffffffffffffffffffffffffffffffff8b1686529091529092209103905580612fe281614cba565b915050612e51565b50600073ffffffffffffffffffffffffffffffffffffffff168473ffffffffffffffffffffffffffffffffffffffff168273ffffffffffffffffffffffffffffffffffffffff167f4a39dc06d4c0dbc64b70af90fd698a233a518aa5d07e595d983b8c0526c8f7fb8686604051613062929190614b4a565b60405180910390a450505050565b6003805473ffffffffffffffffffffffffffffffffffffffff8381167fffffffffffffffffffffffff0000000000000000000000000000000000000000831681179093556040519116919082907f8be0079c531659141344cd1fd0a4f28419497f9722a3daafe3b4186f6b6457e090600090a35050565b73ffffffffffffffffffffffffffffffffffffffff841661318a576040517f08c379a000000000000000000000000000000000000000000000000000000000815260206004820152602160248201527f455243313135353a206d696e7420746f20746865207a65726f2061646472657360448201527f73000000000000000000000000000000000000000000000000000000000000006064820152608401610242565b600061319461222f565b90506131b5816000876131a688613cd3565b6131af88613cd3565b876139bc565b60008481526020818152604080832073ffffffffffffffffffffffffffffffffffffffff89168452909152812080548592906131f2908490614bec565b9091555050604080518581526020810185905273ffffffffffffffffffffffffffffffffffffffff80881692600092918516917fc3d58168c5ae7397731d063d5bbf3d657854427343f4c083240f7aacaa2d0f62910160405180910390a4610d7f81600087878787613d45565b613267611500565b156132ce576040517f08c379a000000000000000000000000000000000000000000000000000000000815260206004820152601060248201527f5061757361626c653a20706175736564000000000000000000000000000000006044820152606401610242565b600480547fffffffffffffffffffffff00ffffffffffffffffffffffffffffffffffffffff16740100000000000000000000000000000000000000001790557f62e78cea01bee320cd4e420270b5ea74000d11b0c9f74754ebdbfc544b05a258612cc661222f565b8173ffffffffffffffffffffffffffffffffffffffff168373ffffffffffffffffffffffffffffffffffffffff1614156133f2576040517f08c379a000000000000000000000000000000000000000000000000000000000815260206004820152602960248201527f455243313135353a2073657474696e6720617070726f76616c2073746174757360448201527f20666f722073656c6600000000000000000000000000000000000000000000006064820152608401610242565b73ffffffffffffffffffffffffffffffffffffffff83811660008181526001602090815260408083209487168084529482529182902080547fffffffffffffffffffffffffffffffffffffffffffffffffffffffffffffff001686151590811790915591519182527f17307eab39ab6107e8899845ad3d59bd9653f200f220920489ca2b5937696c31910160405180910390a3505050565b73ffffffffffffffffffffffffffffffffffffffff831661352d576040517f08c379a000000000000000000000000000000000000000000000000000000000815260206004820152602360248201527f455243313135353a206275726e2066726f6d20746865207a65726f206164647260448201527f65737300000000000000000000000000000000000000000000000000000000006064820152608401610242565b600061353761222f565b90506135678185600061354987613cd3565b61355287613cd3565b604051806020016040528060008152506139bc565b60008381526020818152604080832073ffffffffffffffffffffffffffffffffffffffff8816845290915290205482811015613624576040517f08c379a0000000000000000000000000000000000000000000000000000000008152602060048201526024808201527f455243313135353a206275726e20616d6f756e7420657863656564732062616c60448201527f616e6365000000000000000000000000000000000000000000000000000000006064820152608401610242565b60008481526020818152604080832073ffffffffffffffffffffffffffffffffffffffff898116808652918452828520888703905582518981529384018890529092908616917fc3d58168c5ae7397731d063d5bbf3d657854427343f4c083240f7aacaa2d0f62910160405180910390a45050505050565b806136a561222f565b60008281526006602052604090205473ffffffffffffffffffffffffffffffffffffffff908116911614613735576040517f08c379a000000000000000000000000000000000000000000000000000000000815260206004820152601c60248201527f4e46542363726561746f724f6e6c793a4f4e4c595f43524541544f52000000006044820152606401610242565b50600090815260066020526040902080547fffffffffffffffffffffffff00000000000000000000000000000000000000001673ffffffffffffffffffffffffffffffffffffffff92909216919091179055565b73ffffffffffffffffffffffffffffffffffffffff841661382c576040517f08c379a000000000000000000000000000000000000000000000000000000000815260206004820152602560248201527f455243313135353a207472616e7366657220746f20746865207a65726f20616460448201527f64726573730000000000000000000000000000000000000000000000000000006064820152608401610242565b600061383661222f565b90506138478187876131a688613cd3565b60008481526020818152604080832073ffffffffffffffffffffffffffffffffffffffff8a16845290915290205483811015613905576040517f08c379a000000000000000000000000000000000000000000000000000000000815260206004820152602a60248201527f455243313135353a20696e73756666696369656e742062616c616e636520666f60448201527f72207472616e73666572000000000000000000000000000000000000000000006064820152608401610242565b60008581526020818152604080832073ffffffffffffffffffffffffffffffffffffffff8b811685529252808320878503905590881682528120805486929061394f908490614bec565b9091555050604080518681526020810186905273ffffffffffffffffffffffffffffffffffffffff808916928a821692918616917fc3d58168c5ae7397731d063d5bbf3d657854427343f4c083240f7aacaa2d0f62910160405180910390a46117e9828888888888613d45565b6139c4611500565b15613a2b576040517f08c379a000000000000000000000000000000000000000000000000000000000815260206004820152601060248201527f5061757361626c653a20706175736564000000000000000000000000000000006044820152606401610242565b612585868686868686613f01565b73ffffffffffffffffffffffffffffffffffffffff84163b15612585576040517fbc197c8100000000000000000000000000000000000000000000000000000000815273ffffffffffffffffffffffffffffffffffffffff85169063bc197c8190613ab090899089908890889088906004016149ff565b602060405180830381600087803b158015613aca57600080fd5b505af1925050508015613b18575060408051601f3d9081017fffffffffffffffffffffffffffffffffffffffffffffffffffffffffffffffe0168201909252613b15918101906148b9565b60015b613c0257613b24614d51565b806308c379a01415613b785750613b39614d68565b80613b445750613b7a565b806040517f08c379a00000000000000000000000000000000000000000000000000000000081526004016102429190614b78565b505b6040517f08c379a000000000000000000000000000000000000000000000000000000000815260206004820152603460248201527f455243313135353a207472616e7366657220746f206e6f6e204552433131353560448201527f526563656976657220696d706c656d656e7465720000000000000000000000006064820152608401610242565b7fffffffff0000000000000000000000000000000000000000000000000000000081167fbc197c8100000000000000000000000000000000000000000000000000000000146117e9576040517f08c379a000000000000000000000000000000000000000000000000000000000815260206004820152602860248201527f455243313135353a204552433131353552656365697665722072656a6563746560448201527f6420746f6b656e730000000000000000000000000000000000000000000000006064820152608401610242565b60408051600180825281830190925260609160009190602080830190803683370190505090508281600081518110613d34577f4e487b7100000000000000000000000000000000000000000000000000000000600052603260045260246000fd5b602090810291909101015292915050565b73ffffffffffffffffffffffffffffffffffffffff84163b15612585576040517ff23a6e6100000000000000000000000000000000000000000000000000000000815273ffffffffffffffffffffffffffffffffffffffff85169063f23a6e6190613dbc9089908990889088908890600401614a6a565b602060405180830381600087803b158015613dd657600080fd5b505af1925050508015613e24575060408051601f3d9081017fffffffffffffffffffffffffffffffffffffffffffffffffffffffffffffffe0168201909252613e21918101906148b9565b60015b613e3057613b24614d51565b7fffffffff0000000000000000000000000000000000000000000000000000000081167ff23a6e6100000000000000000000000000000000000000000000000000000000146117e9576040517f08c379a000000000000000000000000000000000000000000000000000000000815260206004820152602860248201527f455243313135353a204552433131353552656365697665722072656a6563746560448201527f6420746f6b656e730000000000000000000000000000000000000000000000006064820152608401610242565b73ffffffffffffffffffffffffffffffffffffffff8516613fe35760005b8351811015613fe157828181518110613f61577f4e487b7100000000000000000000000000000000000000000000000000000000600052603260045260246000fd5b602002602001015160056000868481518110613fa6577f4e487b7100000000000000000000000000000000000000000000000000000000600052603260045260246000fd5b602002602001015181526020019081526020016000206000828254613fcb9190614bec565b90915550613fda905081614cba565b9050613f1f565b505b73ffffffffffffffffffffffffffffffffffffffff84166125855760005b83518110156117e957828181518110614043577f4e487b7100000000000000000000000000000000000000000000000000000000600052603260045260246000fd5b602002602001015160056000868481518110614088577f4e487b7100000000000000000000000000000000000000000000000000000000600052603260045260246000fd5b6020026020010151815260200190815260200160002060008282546140ad9190614c04565b909155506140bc905081614cba565b9050614001565b8280546140cf90614c1b565b90600052602060002090601f0160209004810192826140f15760008555614137565b82601f1061410a57805160ff1916838001178555614137565b82800160010185558215614137579182015b8281111561413757825182559160200191906001019061411c565b50614143929150614147565b5090565b5b808211156141435760008155600101614148565b600067ffffffffffffffff83111561417657614176614d22565b6040516141ab60207fffffffffffffffffffffffffffffffffffffffffffffffffffffffffffffffe0601f8701160182614c6f565b8091508381528484840111156141c057600080fd5b83836020830137600060208583010152509392505050565b803573ffffffffffffffffffffffffffffffffffffffff8116811461064e57600080fd5b60008083601f84011261420d578182fd5b50813567ffffffffffffffff811115614224578182fd5b6020830191508360208260051b850101111561423f57600080fd5b9250929050565b600082601f830112614256578081fd5b8135602061426382614bc8565b6040516142708282614c6f565b8381528281019150858301600585901b8701840188101561428f578586fd5b855b858110156142ad57813584529284019290840190600101614291565b5090979650505050505050565b600082601f8301126142ca578081fd5b611dc48383356020850161415c565b803567ffffffffffffffff8116811461064e57600080fd5b600060208284031215614302578081fd5b611dc4826141d8565b6000806040838503121561431d578081fd5b614326836141d8565b9150614334602084016141d8565b90509250929050565b600080600080600060a08688031215614354578081fd5b61435d866141d8565b945061436b602087016141d8565b9350604086013567ffffffffffffffff80821115614387578283fd5b61439389838a01614246565b945060608801359150808211156143a8578283fd5b6143b489838a01614246565b935060808801359150808211156143c9578283fd5b506143d6888289016142ba565b9150509295509295909350565b600080600080600060a086880312156143fa578081fd5b614403866141d8565b9450614411602087016141d8565b93506040860135925060608601359150608086013567ffffffffffffffff81111561443a578182fd5b6143d6888289016142ba565b60008060408385031215614458578182fd5b614461836141d8565b9150602083013567ffffffffffffffff81111561447c578182fd5b61448885828601614246565b9150509250929050565b6000806000606084860312156144a6578283fd5b6144af846141d8565b9250602084013567ffffffffffffffff808211156144cb578384fd5b6144d787838801614246565b935060408601359150808211156144ec578283fd5b506144f986828701614246565b9150509250925092565b60008060008060808587031215614518578182fd5b614521856141d8565b9350602085013567ffffffffffffffff8082111561453d578384fd5b61454988838901614246565b9450604087013591508082111561455e578384fd5b61456a88838901614246565b9350606087013591508082111561457f578283fd5b5061458c878288016142ba565b91505092959194509250565b600080604083850312156145aa578182fd5b6145b3836141d8565b9150602083013580151581146145c7578182fd5b809150509250929050565b600080604083850312156145e4578182fd5b6145ed836141d8565b946020939093013593505050565b60008060006060848603121561460f578081fd5b614618846141d8565b95602085013595506040909401359392505050565b600080600080600060808688031215614644578283fd5b61464d866141d8565b94506020860135935060408601359250606086013567ffffffffffffffff80821115614677578283fd5b818801915088601f83011261468a578283fd5b813581811115614698578384fd5b8960208285010111156146a9578384fd5b9699959850939650602001949392505050565b600080600080608085870312156146d1578182fd5b6146da856141d8565b93506020850135925060408501359150606085013567ffffffffffffffff811115614703578182fd5b61458c878288016142ba565b600080600080600060a08688031215614726578283fd5b61472f866141d8565b945061473d602087016142d9565b935061474b604087016142d9565b9250614759606087016142d9565b9150614767608087016142d9565b90509295509295909350565b60008060408385031215614785578182fd5b823567ffffffffffffffff8082111561479c578384fd5b818501915085601f8301126147af578384fd5b813560206147bc82614bc8565b6040516147c98282614c6f565b8381528281019150858301600585901b870184018b10156147e8578889fd5b8896505b84871015614811576147fd816141d8565b8352600196909601959183019183016147ec565b5096505086013592505080821115614827578283fd5b5061448885828601614246565b60008060008060408587031215614849578182fd5b843567ffffffffffffffff80821115614860578384fd5b61486c888389016141fc565b90965094506020870135915080821115614884578384fd5b50614891878288016141fc565b95989497509550505050565b6000602082840312156148ae578081fd5b8135611dc481614e18565b6000602082840312156148ca578081fd5b8151611dc481614e18565b6000602082840312156148e6578081fd5b813567ffffffffffffffff8111156148fc578182fd5b8201601f8101841361490c578182fd5b61491b8482356020840161415c565b949350505050565b600060208284031215614934578081fd5b5035919050565b6000806040838503121561494d578182fd5b50508035926020909101359150565b6000815180845260208085019450808401835b8381101561498b5781518752958201959082019060010161496f565b509495945050505050565b60008151808452815b818110156149bb5760208185018101518683018201520161499f565b818111156149cc5782602083870101525b50601f017fffffffffffffffffffffffffffffffffffffffffffffffffffffffffffffffe0169290920160200192915050565b600073ffffffffffffffffffffffffffffffffffffffff808816835280871660208401525060a06040830152614a3860a083018661495c565b8281036060840152614a4a818661495c565b90508281036080840152614a5e8185614996565b98975050505050505050565b600073ffffffffffffffffffffffffffffffffffffffff808816835280871660208401525084604083015283606083015260a06080830152614aaf60a0830184614996565b979650505050505050565b6020808252825182820181905260009190848201906040850190845b81811015614b2b57614b18838551805167ffffffffffffffff908116835260208083015182169084015260408083015182169084015260609182015116910152565b9284019260809290920191600101614ad6565b50909695505050505050565b600060208252611dc4602083018461495c565b600060408252614b5d604083018561495c565b8281036020840152614b6f818561495c565b95945050505050565b600060208252611dc46020830184614996565b6080810161063a8284805167ffffffffffffffff908116835260208083015182169084015260408083015182169084015260609182015116910152565b600067ffffffffffffffff821115614be257614be2614d22565b5060051b60200190565b60008219821115614bff57614bff614cf3565b500190565b600082821015614c1657614c16614cf3565b500390565b600181811c90821680614c2f57607f821691505b60208210811415614c69577f4e487b7100000000000000000000000000000000000000000000000000000000600052602260045260246000fd5b50919050565b7fffffffffffffffffffffffffffffffffffffffffffffffffffffffffffffffe0601f830116810181811067ffffffffffffffff82111715614cb357614cb3614d22565b6040525050565b60007fffffffffffffffffffffffffffffffffffffffffffffffffffffffffffffffff821415614cec57614cec614cf3565b5060010190565b7f4e487b7100000000000000000000000000000000000000000000000000000000600052601160045260246000fd5b7f4e487b7100000000000000000000000000000000000000000000000000000000600052604160045260246000fd5b600060033d111561151f57600481823e5160e01c90565b600060443d1015614d785761151f565b6040517ffffffffffffffffffffffffffffffffffffffffffffffffffffffffffffffffc803d016004833e81513d67ffffffffffffffff8160248401118184111715614dc857505050505061151f565b8285019150815181811115614de25750505050505061151f565b843d8701016020828501011115614dfe5750505050505061151f565b614e0d60208286010187614c6f565b509094505050505090565b7fffffffff000000000000000000000000000000000000000000000000000000008116811461071657600080fdfea2646970667358221220d51219be1858d95b37893f1ca7ad39fa21874ebf89e1af191dbfb63d778ba3fc64736f6c63430008030033",
  "linkReferences": {},
  "deployedLinkReferences": {}
}