{
  "_format": "hh-sol-artifact-1",
  "contractName": "RewardFactory",
  "sourceName": "contracts/nft/factories/RewardFactory.sol",
  "abi": [
    {
      "inputs": [
        {
          "internalType": "address",
          "name": "_firstOwner",
          "type": "address"
        },
        {
          "internalType": "address",
          "name": "_assetsAddr",
          "type": "address"
        },
        {
          "internalType": "uint256",
          "name": "_periodLength",
          "type": "uint256"
        },
        {
          "internalType": "uint256",
          "name": "_periodMintLimit",
          "type": "uint256"
        },
        {
          "internalType": "bool",
          "name": "_whitelistOnly",
          "type": "bool"
        }
      ],
      "stateMutability": "nonpayable",
      "type": "constructor"
    },
    {
      "anonymous": false,
      "inputs": [
        {
          "indexed": false,
          "internalType": "uint256[]",
          "name": "disabledIds",
          "type": "uint256[]"
        }
      ],
      "name": "AssetsDisabled",
      "type": "event"
    },
    {
      "anonymous": false,
      "inputs": [
        {
          "indexed": false,
          "internalType": "uint256[]",
          "name": "enabledIds",
          "type": "uint256[]"
        }
      ],
      "name": "AssetsEnabled",
      "type": "event"
    },
    {
      "anonymous": false,
      "inputs": [
        {
          "indexed": true,
          "internalType": "address",
          "name": "owner",
          "type": "address"
        },
        {
          "indexed": true,
          "internalType": "uint256",
          "name": "previousTier",
          "type": "uint256"
        },
        {
          "indexed": true,
          "internalType": "uint256",
          "name": "newTier",
          "type": "uint256"
        }
      ],
      "name": "OwnershipGranted",
      "type": "event"
    },
    {
      "anonymous": false,
      "inputs": [
        {
          "indexed": false,
          "internalType": "uint256",
          "name": "oldMintingLimit",
          "type": "uint256"
        },
        {
          "indexed": false,
          "internalType": "uint256",
          "name": "newMintingLimit",
          "type": "uint256"
        }
      ],
      "name": "PeriodMintLimitChanged",
      "type": "event"
    },
    {
      "stateMutability": "nonpayable",
      "type": "fallback"
    },
    {
      "inputs": [],
      "name": "PERIOD_LENGTH",
      "outputs": [
        {
          "internalType": "uint256",
          "name": "",
          "type": "uint256"
        }
      ],
      "stateMutability": "view",
      "type": "function"
    },
    {
      "inputs": [
        {
          "internalType": "address",
          "name": "_address",
          "type": "address"
        },
        {
          "internalType": "uint256",
          "name": "_tier",
          "type": "uint256"
        }
      ],
      "name": "assignOwnership",
      "outputs": [],
      "stateMutability": "nonpayable",
      "type": "function"
    },
    {
      "inputs": [
        {
          "internalType": "uint256[]",
          "name": "_disabledIds",
          "type": "uint256[]"
        }
      ],
      "name": "disableMint",
      "outputs": [],
      "stateMutability": "nonpayable",
      "type": "function"
    },
    {
      "inputs": [
        {
          "internalType": "uint256[]",
          "name": "_enabledIds",
          "type": "uint256[]"
        }
      ],
      "name": "enableMint",
      "outputs": [],
      "stateMutability": "nonpayable",
      "type": "function"
    },
    {
      "inputs": [],
      "name": "getAvailableSupply",
      "outputs": [
        {
          "internalType": "uint256",
          "name": "",
          "type": "uint256"
        }
      ],
      "stateMutability": "view",
      "type": "function"
    },
    {
      "inputs": [],
      "name": "getMetacanaAssets",
      "outputs": [
        {
          "internalType": "address",
          "name": "",
          "type": "address"
        }
      ],
      "stateMutability": "view",
      "type": "function"
    },
    {
      "inputs": [
        {
          "internalType": "address",
          "name": "_owner",
          "type": "address"
        }
      ],
      "name": "getOwnerTier",
      "outputs": [
        {
          "internalType": "uint256",
          "name": "",
          "type": "uint256"
        }
      ],
      "stateMutability": "view",
      "type": "function"
    },
    {
      "inputs": [],
      "name": "livePeriod",
      "outputs": [
        {
          "internalType": "uint256",
          "name": "",
          "type": "uint256"
        }
      ],
      "stateMutability": "view",
      "type": "function"
    },
    {
      "inputs": [],
      "name": "metacanaAssets",
      "outputs": [
        {
          "internalType": "contract IMetacanaNFT",
          "name": "",
          "type": "address"
        }
      ],
      "stateMutability": "view",
      "type": "function"
    },
    {
      "inputs": [
        {
          "internalType": "address",
          "name": "_to",
          "type": "address"
        },
        {
          "internalType": "uint256[]",
          "name": "_ids",
          "type": "uint256[]"
        },
        {
          "internalType": "uint256[]",
          "name": "_amounts",
          "type": "uint256[]"
        },
        {
          "internalType": "bytes",
          "name": "_data",
          "type": "bytes"
        }
      ],
      "name": "mintBatch",
      "outputs": [],
      "stateMutability": "nonpayable",
      "type": "function"
    },
    {
      "inputs": [
        {
          "internalType": "uint256",
          "name": "",
          "type": "uint256"
        }
      ],
      "name": "mintWhitelist",
      "outputs": [
        {
          "internalType": "bool",
          "name": "",
          "type": "bool"
        }
      ],
      "stateMutability": "view",
      "type": "function"
    },
    {
      "inputs": [],
      "name": "periodMintLimit",
      "outputs": [
        {
          "internalType": "uint256",
          "name": "",
          "type": "uint256"
        }
      ],
      "stateMutability": "view",
      "type": "function"
    },
    {
      "inputs": [
        {
          "internalType": "bytes4",
          "name": "interfaceID",
          "type": "bytes4"
        }
      ],
      "name": "supportsInterface",
      "outputs": [
        {
          "internalType": "bool",
          "name": "",
          "type": "bool"
        }
      ],
      "stateMutability": "pure",
      "type": "function"
    },
    {
      "inputs": [
        {
          "internalType": "uint256",
          "name": "_newPeriodMintLimit",
          "type": "uint256"
        }
      ],
      "name": "updatePeriodMintLimit",
      "outputs": [],
      "stateMutability": "nonpayable",
      "type": "function"
    }
  ],
  "bytecode": "0x60e06040523480156200001157600080fd5b506040516200147638038062001476833981016040819052620000349162000233565b8473ffffffffffffffffffffffffffffffffffffffff81166200008e576040517f08c379a00000000000000000000000000000000000000000000000000000000081526004016200008590620002a5565b60405180910390fd5b73ffffffffffffffffffffffffffffffffffffffff81166000818152602081905260408082207fffffffffffffffffffffffffffffffffffffffffffffffffffffffffffffffff9081905590519092907fa4e9b194bafb51369051927f4c07278de72aa1ee689f375215ea3a16dfef618e908390a45073ffffffffffffffffffffffffffffffffffffffff8416158015906200012a5750600083115b8015620001375750600082115b62000170576040517f08c379a0000000000000000000000000000000000000000000000000000000008152600401620000859062000302565b7fffffffffffffffffffffffffffffffffffffffff000000000000000000000000606085901b1660805260a083905280151560f81b60c052620001b483426200035f565b600155600282905560038290556040517fdc39d5ec34d8ece158f93c14cfb036acb3e58e254416fe92f43b3a0acd3c4d3d90620001f690600090859062000297565b60405180910390a1505050505062000399565b805173ffffffffffffffffffffffffffffffffffffffff811681146200022e57600080fd5b919050565b600080600080600060a086880312156200024b578081fd5b620002568662000209565b9450620002666020870162000209565b935060408601519250606086015191506080860151801515811462000289578182fd5b809150509295509295909350565b918252602082015260400190565b6020808252602e908201527f5469657265644f776e61626c6523636f6e7374727563746f723a20494e56414c60408201527f49445f46495253545f4f574e4552000000000000000000000000000000000000606082015260800190565b60208082526028908201527f526577617264466163746f727923636f6e7374727563746f723a20494e56414c60408201527f49445f494e505554000000000000000000000000000000000000000000000000606082015260800190565b60008262000394577f4e487b710000000000000000000000000000000000000000000000000000000081526012600452602481fd5b500490565b60805160601c60a05160c05160f81c611092620003e460003960006103680152600081816109c80152610a3d01526000818161026c015281816104710152610a1401526110926000f3fe608060405234801561001057600080fd5b50600436106100ea5760003560e01c8063c56cecd11161008c578063e7a891b911610066578063e7a891b9146101f4578063e8f35d5a146101fc578063f20041e31461020f578063f686980314610217576100ea565b8063c56cecd1146101bb578063cca4cdfc146101ce578063df6824b4146101e1576100ea565b80633c1e1422116100c85780633c1e1422146101785780634618163e1461018d5780635d511a11146101a0578063c167d1cd146101b3576100ea565b806301ffc9a71461012557806302b5c37b1461014e5780631f7fdffa14610163575b6040517f08c379a000000000000000000000000000000000000000000000000000000000815260040161011c90610e76565b60405180910390fd5b610138610133366004610c36565b61021f565b6040516101459190610db1565b60405180910390f35b61015661026a565b6040516101459190610cdb565b610176610171366004610afc565b61028e565b005b6101806104f1565b6040516101459190610f8d565b61013861019b366004610c76565b6104f7565b6101766101ae366004610bcd565b61050c565b61018061068e565b6101766101c9366004610c76565b6106b1565b6101766101dc366004610bf6565b61076d565b6101766101ef366004610bf6565b6108a0565b6101806109c6565b61018061020a366004610ae2565b6109ea565b610156610a12565b610180610a36565b7fffffffff0000000000000000000000000000000000000000000000000000000081167f01ffc9a700000000000000000000000000000000000000000000000000000000145b919050565b7f000000000000000000000000000000000000000000000000000000000000000090565b336000908152602081905260409020546001908111156102da576040517f08c379a000000000000000000000000000000000000000000000000000000000815260040161011c90610ed3565b60006102e4610a36565b6001549091506000818314156102fd5750600254610307565b5060035460018390555b60005b8981101561042e5761036489898381811061034e577f4e487b7100000000000000000000000000000000000000000000000000000000600052603260045260246000fd5b9050602002013583610a6290919063ffffffff16565b91507f00000000000000000000000000000000000000000000000000000000000000001561041c57600460008c8c848181106103c9577f4e487b7100000000000000000000000000000000000000000000000000000000600052603260045260246000fd5b602090810292909201358352508101919091526040016000205460ff1661041c576040517f08c379a000000000000000000000000000000000000000000000000000000000815260040161011c90610e19565b8061042681610ff4565b91505061030a565b5060028190556040517f1f7fdffa00000000000000000000000000000000000000000000000000000000815273ffffffffffffffffffffffffffffffffffffffff7f00000000000000000000000000000000000000000000000000000000000000001690631f7fdffa906104b2908e908e908e908e908e908e908e90600401610cfc565b600060405180830381600087803b1580156104cc57600080fd5b505af11580156104e0573d6000803e3d6000fd5b505050505050505050505050505050565b60035481565b60046020526000908152604090205460ff1681565b336000908152602081905260409020547fffffffffffffffffffffffffffffffffffffffffffffffffffffffffffffffff90811115610577576040517f08c379a000000000000000000000000000000000000000000000000000000000815260040161011c90610ed3565b73ffffffffffffffffffffffffffffffffffffffff83166105c4576040517f08c379a000000000000000000000000000000000000000000000000000000000815260040161011c90610dbc565b3373ffffffffffffffffffffffffffffffffffffffff84161415610614576040517f08c379a000000000000000000000000000000000000000000000000000000000815260040161011c90610f30565b73ffffffffffffffffffffffffffffffffffffffff8316600081815260208190526040808220549051859391927fa4e9b194bafb51369051927f4c07278de72aa1ee689f375215ea3a16dfef618e91a45073ffffffffffffffffffffffffffffffffffffffff909116600090815260208190526040902055565b600060015461069b610a36565b146106a8576003546106ac565b6002545b905090565b336000908152602081905260409020547fffffffffffffffffffffffffffffffffffffffffffffffffffffffffffffffff9081111561071c576040517f08c379a000000000000000000000000000000000000000000000000000000000815260040161011c90610ed3565b81600254111561072c5760028290555b7fdc39d5ec34d8ece158f93c14cfb036acb3e58e254416fe92f43b3a0acd3c4d3d6003548360405161075f929190610f96565b60405180910390a150600355565b336000908152602081905260409020547fffffffffffffffffffffffffffffffffffffffffffffffffffffffffffffffff908111156107d8576040517f08c379a000000000000000000000000000000000000000000000000000000000815260040161011c90610ed3565b60005b8281101561086157600060046000868685818110610822577f4e487b7100000000000000000000000000000000000000000000000000000000600052603260045260246000fd5b90506020020135815260200190815260200160002060006101000a81548160ff021916908315150217905550808061085990610ff4565b9150506107db565b507f2572cac41bd79d41fcba7693c8f4c8b20b669d5932703f71ad98fdd2fe6283ad8383604051610893929190610d95565b60405180910390a1505050565b336000908152602081905260409020547fffffffffffffffffffffffffffffffffffffffffffffffffffffffffffffffff9081111561090b576040517f08c379a000000000000000000000000000000000000000000000000000000000815260040161011c90610ed3565b60005b8281101561099457600160046000868685818110610955577f4e487b7100000000000000000000000000000000000000000000000000000000600052603260045260246000fd5b90506020020135815260200190815260200160002060006101000a81548160ff021916908315150217905550808061098c90610ff4565b91505061090e565b507ff2c92ec4d8bfbc2b83f758c1b47b68bfc2c27078d395e1897ca280cc5b028c278383604051610893929190610d95565b7f000000000000000000000000000000000000000000000000000000000000000081565b73ffffffffffffffffffffffffffffffffffffffff1660009081526020819052604090205490565b7f000000000000000000000000000000000000000000000000000000000000000081565b60006106ac7f000000000000000000000000000000000000000000000000000000000000000042610fa4565b6000610a6e8284610fdd565b9392505050565b803573ffffffffffffffffffffffffffffffffffffffff8116811461026557600080fd5b60008083601f840112610aaa578182fd5b50813567ffffffffffffffff811115610ac1578182fd5b6020830191508360208083028501011115610adb57600080fd5b9250929050565b600060208284031215610af3578081fd5b610a6e82610a75565b60008060008060008060006080888a031215610b16578283fd5b610b1f88610a75565b9650602088013567ffffffffffffffff80821115610b3b578485fd5b610b478b838c01610a99565b909850965060408a0135915080821115610b5f578485fd5b610b6b8b838c01610a99565b909650945060608a0135915080821115610b83578384fd5b818a0191508a601f830112610b96578384fd5b813581811115610ba4578485fd5b8b6020828501011115610bb5578485fd5b60208301945080935050505092959891949750929550565b60008060408385031215610bdf578182fd5b610be883610a75565b946020939093013593505050565b60008060208385031215610c08578182fd5b823567ffffffffffffffff811115610c1e578283fd5b610c2a85828601610a99565b90969095509350505050565b600060208284031215610c47578081fd5b81357fffffffff0000000000000000000000000000000000000000000000000000000081168114610a6e578182fd5b600060208284031215610c87578081fd5b5035919050565b60008284527f07ffffffffffffffffffffffffffffffffffffffffffffffffffffffffffffff831115610cbf578081fd5b6020830280836020870137939093016020019283525090919050565b73ffffffffffffffffffffffffffffffffffffffff91909116815260200190565b600073ffffffffffffffffffffffffffffffffffffffff8916825260806020830152610d2c60808301888a610c8e565b8281036040840152610d3f818789610c8e565b9050828103606084015283815283856020830137816020858301015260207fffffffffffffffffffffffffffffffffffffffffffffffffffffffffffffffe0601f86011682010191505098975050505050505050565b600060208252610da9602083018486610c8e565b949350505050565b901515815260200190565b6020808252602e908201527f5469657265644f776e61626c652361737369676e4f776e6572736869703a204960408201527f4e56414c49445f41444452455353000000000000000000000000000000000000606082015260800190565b6020808252602e908201527f526577617264466163746f7279236d696e7442617463683a2049445f49535f4e60408201527f4f545f57484954454c4953544544000000000000000000000000000000000000606082015260800190565b60208082526023908201527f526577617264466163746f7279235f3a20554e535550504f525445445f4d455460408201527f484f440000000000000000000000000000000000000000000000000000000000606082015260800190565b60208082526032908201527f5469657265644f776e61626c65236f6e6c794f776e6572546965723a204f574e60408201527f45525f544945525f49535f544f4f5f4c4f570000000000000000000000000000606082015260800190565b60208082526031908201527f5469657265644f776e61626c652361737369676e4f776e6572736869703a205560408201527f50444154494e475f53454c465f54494552000000000000000000000000000000606082015260800190565b90815260200190565b918252602082015260400190565b600082610fd8577f4e487b710000000000000000000000000000000000000000000000000000000081526012600452602481fd5b500490565b600082821015610fef57610fef61102d565b500390565b60007fffffffffffffffffffffffffffffffffffffffffffffffffffffffffffffffff8214156110265761102661102d565b5060010190565b7f4e487b7100000000000000000000000000000000000000000000000000000000600052601160045260246000fdfea26469706673582212207baf694854c2044f535a2c722071bf372795847e1e9d5705e625c380bdf4ba1364736f6c63430008000033",
  "linkReferences": {},
  "deployedLinkReferences": {}
}