{
  "_format": "hh-sol-artifact-1",
  "contractName": "TokenVesting",
  "sourceName": "contracts/metacana/legacy/TokenVesting.sol",
  "abi": [
    {
      "inputs": [
        {
          "internalType": "address",
          "name": "_beneficiary",
          "type": "address"
        },
        {
          "internalType": "uint256",
          "name": "_start",
          "type": "uint256"
        },
        {
          "internalType": "uint256",
          "name": "_lockDurationAfterTge",
          "type": "uint256"
        },
        {
          "internalType": "uint256",
          "name": "_unlockTokenPercentAfterTge",
          "type": "uint256"
        },
        {
          "internalType": "uint256",
          "name": "_cliff",
          "type": "uint256"
        },
        {
          "internalType": "uint256",
          "name": "_monthlyUnlockTokenPercentAfterCliff",
          "type": "uint256"
        },
        {
          "internalType": "uint256",
          "name": "_duration",
          "type": "uint256"
        },
        {
          "internalType": "bool",
          "name": "_revocable",
          "type": "bool"
        }
      ],
      "stateMutability": "nonpayable",
      "type": "constructor"
    },
    {
      "anonymous": false,
      "inputs": [
        {
          "indexed": true,
          "internalType": "address",
          "name": "previousOwner",
          "type": "address"
        },
        {
          "indexed": true,
          "internalType": "address",
          "name": "newOwner",
          "type": "address"
        }
      ],
      "name": "OwnershipTransferred",
      "type": "event"
    },
    {
      "anonymous": false,
      "inputs": [
        {
          "indexed": false,
          "internalType": "uint256",
          "name": "amount",
          "type": "uint256"
        }
      ],
      "name": "Released",
      "type": "event"
    },
    {
      "anonymous": false,
      "inputs": [],
      "name": "Revoked",
      "type": "event"
    },
    {
      "inputs": [],
      "name": "beneficiary",
      "outputs": [
        {
          "internalType": "address",
          "name": "",
          "type": "address"
        }
      ],
      "stateMutability": "view",
      "type": "function"
    },
    {
      "inputs": [],
      "name": "cliff",
      "outputs": [
        {
          "internalType": "uint256",
          "name": "",
          "type": "uint256"
        }
      ],
      "stateMutability": "view",
      "type": "function"
    },
    {
      "inputs": [],
      "name": "duration",
      "outputs": [
        {
          "internalType": "uint256",
          "name": "",
          "type": "uint256"
        }
      ],
      "stateMutability": "view",
      "type": "function"
    },
    {
      "inputs": [],
      "name": "lockDurationAfterTge",
      "outputs": [
        {
          "internalType": "uint256",
          "name": "",
          "type": "uint256"
        }
      ],
      "stateMutability": "view",
      "type": "function"
    },
    {
      "inputs": [],
      "name": "monthlyUnlockTokenPercentAfterCliff",
      "outputs": [
        {
          "internalType": "uint256",
          "name": "",
          "type": "uint256"
        }
      ],
      "stateMutability": "view",
      "type": "function"
    },
    {
      "inputs": [],
      "name": "owner",
      "outputs": [
        {
          "internalType": "address",
          "name": "",
          "type": "address"
        }
      ],
      "stateMutability": "view",
      "type": "function"
    },
    {
      "inputs": [
        {
          "internalType": "contract ERC20",
          "name": "token",
          "type": "address"
        }
      ],
      "name": "releasableAmount",
      "outputs": [
        {
          "internalType": "uint256",
          "name": "",
          "type": "uint256"
        }
      ],
      "stateMutability": "view",
      "type": "function"
    },
    {
      "inputs": [
        {
          "internalType": "contract ERC20",
          "name": "token",
          "type": "address"
        }
      ],
      "name": "release",
      "outputs": [],
      "stateMutability": "nonpayable",
      "type": "function"
    },
    {
      "inputs": [
        {
          "internalType": "address",
          "name": "",
          "type": "address"
        }
      ],
      "name": "released",
      "outputs": [
        {
          "internalType": "uint256",
          "name": "",
          "type": "uint256"
        }
      ],
      "stateMutability": "view",
      "type": "function"
    },
    {
      "inputs": [],
      "name": "renounceOwnership",
      "outputs": [],
      "stateMutability": "nonpayable",
      "type": "function"
    },
    {
      "inputs": [],
      "name": "revocable",
      "outputs": [
        {
          "internalType": "bool",
          "name": "",
          "type": "bool"
        }
      ],
      "stateMutability": "view",
      "type": "function"
    },
    {
      "inputs": [
        {
          "internalType": "contract ERC20",
          "name": "token",
          "type": "address"
        }
      ],
      "name": "revoke",
      "outputs": [],
      "stateMutability": "nonpayable",
      "type": "function"
    },
    {
      "inputs": [
        {
          "internalType": "address",
          "name": "",
          "type": "address"
        }
      ],
      "name": "revoked",
      "outputs": [
        {
          "internalType": "bool",
          "name": "",
          "type": "bool"
        }
      ],
      "stateMutability": "view",
      "type": "function"
    },
    {
      "inputs": [],
      "name": "start",
      "outputs": [
        {
          "internalType": "uint256",
          "name": "",
          "type": "uint256"
        }
      ],
      "stateMutability": "view",
      "type": "function"
    },
    {
      "inputs": [
        {
          "internalType": "address",
          "name": "newOwner",
          "type": "address"
        }
      ],
      "name": "transferOwnership",
      "outputs": [],
      "stateMutability": "nonpayable",
      "type": "function"
    },
    {
      "inputs": [],
      "name": "unlockTokenPercentAfterTge",
      "outputs": [
        {
          "internalType": "uint256",
          "name": "",
          "type": "uint256"
        }
      ],
      "stateMutability": "view",
      "type": "function"
    },
    {
      "inputs": [
        {
          "internalType": "contract ERC20",
          "name": "token",
          "type": "address"
        }
      ],
      "name": "vestedAmount",
      "outputs": [
        {
          "internalType": "uint256",
          "name": "",
          "type": "uint256"
        }
      ],
      "stateMutability": "view",
      "type": "function"
    }
  ],
  "bytecode": "0x60806040523480156200001157600080fd5b5060405162001218380380620012188339810160408190526200003491620001cd565b6200003f3362000143565b73ffffffffffffffffffffffffffffffffffffffff88166200006057600080fd5b838611156200006e57600080fd5b818411156200007c57600080fd5b600180547fffffffffffffffffffffffff00000000000000000000000000000000000000001673ffffffffffffffffffffffffffffffffffffffff8a16179055600880547fffffffffffffffffffffffffffffffffffffffffffffffffffffffffffffff0016821515179055600782905560058590556200010a8787620001b8602090811b6200091917901c565b600481905560068490556200012c9085620001b8602090811b6200091917901c565b600255505050600393909355506200029e92505050565b6000805473ffffffffffffffffffffffffffffffffffffffff8381167fffffffffffffffffffffffff0000000000000000000000000000000000000000831681178455604051919092169283917f8be0079c531659141344cd1fd0a4f28419497f9722a3daafe3b4186f6b6457e09190a35050565b6000620001c6828462000260565b9392505050565b600080600080600080600080610100898b031215620001ea578384fd5b885173ffffffffffffffffffffffffffffffffffffffff811681146200020e578485fd5b809850506020890151965060408901519550606089015194506080890151935060a0890151925060c0890151915060e089015180151581146200024f578182fd5b809150509295985092959890939650565b6000821982111562000299577f4e487b710000000000000000000000000000000000000000000000000000000081526011600452602481fd5b500190565b610f6a80620002ae6000396000f3fe608060405234801561001057600080fd5b506004361061011b5760003560e01c806374a8f103116100b2578063be9a655511610081578063f177a3fb11610066578063f177a3fb14610256578063f2fde38b1461025f578063fa01dc06146102725761011b565b8063be9a655514610244578063cbb5111c1461024d5761011b565b806374a8f103146101d6578063872a7810146101e95780638da5cb5b146102065780639852595c146102245761011b565b8063384711cc116100ee578063384711cc1461016d57806338af3eed1461018057806339b92583146101c5578063715018a6146101ce5761011b565b80630fb5a6b41461012057806313d033c01461013c5780631726cbc8146101455780631916558714610158575b600080fd5b61012960075481565b6040519081526020015b60405180910390f35b61012960025481565b610129610153366004610d4d565b610295565b61016b610166366004610d4d565b6102d6565b005b61012961017b366004610d4d565b610390565b6001546101a09073ffffffffffffffffffffffffffffffffffffffff1681565b60405173ffffffffffffffffffffffffffffffffffffffff9091168152602001610133565b61012960045481565b61016b61051a565b61016b6101e4366004610d4d565b6105ac565b6008546101f69060ff1681565b6040519015158152602001610133565b60005473ffffffffffffffffffffffffffffffffffffffff166101a0565b610129610232366004610d4d565b60096020526000908152604090205481565b61012960035481565b61012960055481565b61012960065481565b61016b61026d366004610d4d565b6107e9565b6101f6610280366004610d4d565b600a6020526000908152604090205460ff1681565b73ffffffffffffffffffffffffffffffffffffffff81166000908152600960205260408120546102ce906102c884610390565b9061092c565b90505b919050565b60006102e182610295565b9050600081116102f057600080fd5b73ffffffffffffffffffffffffffffffffffffffff82166000908152600960205260409020546103209082610919565b73ffffffffffffffffffffffffffffffffffffffff80841660008181526009602052604090209290925560015461035992911683610938565b6040518181527ffb81f9b30d73d830c3544b34d827c08142579ee75710b490bab0b3995468c5659060200160405180910390a15050565b6040517f70a08231000000000000000000000000000000000000000000000000000000008152306004820152600090819073ffffffffffffffffffffffffffffffffffffffff8416906370a082319060240160206040518083038186803b1580156103fa57600080fd5b505afa15801561040e573d6000803e3d6000fd5b505050506040513d601f19601f820116820180604052508101906104329190610d89565b73ffffffffffffffffffffffffffffffffffffffff841660009081526009602052604081205491925090610467908390610919565b905060045442101561048a576005546104819082906109ca565b925050506102d1565b60025442101561049f576000925050506102d1565b6007546003546104ae91610919565b421015806104e1575073ffffffffffffffffffffffffffffffffffffffff84166000908152600a602052604090205460ff165b156104ef5791506102d19050565b61048160075461051461050d6002544261092c90919063ffffffff16565b84906109ca565b906109d6565b60005473ffffffffffffffffffffffffffffffffffffffff1633146105a0576040517f08c379a000000000000000000000000000000000000000000000000000000000815260206004820181905260248201527f4f776e61626c653a2063616c6c6572206973206e6f7420746865206f776e657260448201526064015b60405180910390fd5b6105aa60006109e2565b565b60005473ffffffffffffffffffffffffffffffffffffffff16331461062d576040517f08c379a000000000000000000000000000000000000000000000000000000000815260206004820181905260248201527f4f776e61626c653a2063616c6c6572206973206e6f7420746865206f776e65726044820152606401610597565b60085460ff1661063c57600080fd5b73ffffffffffffffffffffffffffffffffffffffff81166000908152600a602052604090205460ff161561066f57600080fd5b6040517f70a0823100000000000000000000000000000000000000000000000000000000815230600482015260009073ffffffffffffffffffffffffffffffffffffffff8316906370a082319060240160206040518083038186803b1580156106d757600080fd5b505afa1580156106eb573d6000803e3d6000fd5b505050506040513d601f19601f8201168201806040525081019061070f9190610d89565b9050600061071c83610295565b9050600061072a838361092c565b73ffffffffffffffffffffffffffffffffffffffff85166000908152600a6020526040902080547fffffffffffffffffffffffffffffffffffffffffffffffffffffffffffffff0016600117905590506107ba61079c60005473ffffffffffffffffffffffffffffffffffffffff1690565b73ffffffffffffffffffffffffffffffffffffffff86169083610938565b6040517f44825a4b2df8acb19ce4e1afba9aa850c8b65cdb7942e2078f27d0b0960efee690600090a150505050565b60005473ffffffffffffffffffffffffffffffffffffffff16331461086a576040517f08c379a000000000000000000000000000000000000000000000000000000000815260206004820181905260248201527f4f776e61626c653a2063616c6c6572206973206e6f7420746865206f776e65726044820152606401610597565b73ffffffffffffffffffffffffffffffffffffffff811661090d576040517f08c379a000000000000000000000000000000000000000000000000000000000815260206004820152602660248201527f4f776e61626c653a206e6577206f776e657220697320746865207a65726f206160448201527f64647265737300000000000000000000000000000000000000000000000000006064820152608401610597565b610916816109e2565b50565b60006109258284610e0e565b9392505050565b60006109258284610e9c565b6040805173ffffffffffffffffffffffffffffffffffffffff8416602482015260448082018490528251808303909101815260649091019091526020810180517bffffffffffffffffffffffffffffffffffffffffffffffffffffffff167fa9059cbb000000000000000000000000000000000000000000000000000000001790526109c5908490610a57565b505050565b60006109258284610e5f565b60006109258284610e26565b6000805473ffffffffffffffffffffffffffffffffffffffff8381167fffffffffffffffffffffffff0000000000000000000000000000000000000000831681178455604051919092169283917f8be0079c531659141344cd1fd0a4f28419497f9722a3daafe3b4186f6b6457e09190a35050565b6000610ab9826040518060400160405280602081526020017f5361666545524332303a206c6f772d6c6576656c2063616c6c206661696c65648152508573ffffffffffffffffffffffffffffffffffffffff16610b639092919063ffffffff16565b8051909150156109c55780806020019051810190610ad79190610d69565b6109c5576040517f08c379a000000000000000000000000000000000000000000000000000000000815260206004820152602a60248201527f5361666545524332303a204552433230206f7065726174696f6e20646964206e60448201527f6f742073756363656564000000000000000000000000000000000000000000006064820152608401610597565b6060610b728484600085610b7a565b949350505050565b606082471015610c0c576040517f08c379a000000000000000000000000000000000000000000000000000000000815260206004820152602660248201527f416464726573733a20696e73756666696369656e742062616c616e636520666f60448201527f722063616c6c00000000000000000000000000000000000000000000000000006064820152608401610597565b843b610c74576040517f08c379a000000000000000000000000000000000000000000000000000000000815260206004820152601d60248201527f416464726573733a2063616c6c20746f206e6f6e2d636f6e74726163740000006044820152606401610597565b6000808673ffffffffffffffffffffffffffffffffffffffff168587604051610c9d9190610da1565b60006040518083038185875af1925050503d8060008114610cda576040519150601f19603f3d011682016040523d82523d6000602084013e610cdf565b606091505b5091509150610cef828286610cfa565b979650505050505050565b60608315610d09575081610925565b825115610d195782518084602001fd5b816040517f08c379a00000000000000000000000000000000000000000000000000000000081526004016105979190610dbd565b600060208284031215610d5e578081fd5b813561092581610f12565b600060208284031215610d7a578081fd5b81518015158114610925578182fd5b600060208284031215610d9a578081fd5b5051919050565b60008251610db3818460208701610eb3565b9190910192915050565b6000602082528251806020840152610ddc816040850160208701610eb3565b601f017fffffffffffffffffffffffffffffffffffffffffffffffffffffffffffffffe0169190910160400192915050565b60008219821115610e2157610e21610ee3565b500190565b600082610e5a577f4e487b710000000000000000000000000000000000000000000000000000000081526012600452602481fd5b500490565b6000817fffffffffffffffffffffffffffffffffffffffffffffffffffffffffffffffff0483118215151615610e9757610e97610ee3565b500290565b600082821015610eae57610eae610ee3565b500390565b60005b83811015610ece578181015183820152602001610eb6565b83811115610edd576000848401525b50505050565b7f4e487b7100000000000000000000000000000000000000000000000000000000600052601160045260246000fd5b73ffffffffffffffffffffffffffffffffffffffff8116811461091657600080fdfea2646970667358221220e1963e1fbc8755e419a5a8bb5addafccee10802f552396b8d7a3c03aa917fb3964736f6c63430008030033",
  "linkReferences": {},
  "deployedLinkReferences": {}
}