{
  "_format": "hh-sol-artifact-1",
  "contractName": "TokenVesting",
  "sourceName": "contracts/metacana/legacy/TokenVesting.sol",
  "abi": [
    {
      "inputs": [
        {
          "internalType": "address",
          "name": "_beneficiary",
          "type": "address"
        },
        {
          "internalType": "uint256",
          "name": "_start",
          "type": "uint256"
        },
        {
          "internalType": "uint256",
          "name": "_lockDurationAfterTge",
          "type": "uint256"
        },
        {
          "internalType": "uint256",
          "name": "_unlockTokenPercentAfterTge",
          "type": "uint256"
        },
        {
          "internalType": "uint256",
          "name": "_cliff",
          "type": "uint256"
        },
        {
          "internalType": "uint256",
          "name": "_monthlyUnlockTokenPercentAfterCliff",
          "type": "uint256"
        },
        {
          "internalType": "uint256",
          "name": "_duration",
          "type": "uint256"
        },
        {
          "internalType": "bool",
          "name": "_revocable",
          "type": "bool"
        }
      ],
      "stateMutability": "nonpayable",
      "type": "constructor"
    },
    {
      "anonymous": false,
      "inputs": [
        {
          "indexed": true,
          "internalType": "address",
          "name": "previousOwner",
          "type": "address"
        },
        {
          "indexed": true,
          "internalType": "address",
          "name": "newOwner",
          "type": "address"
        }
      ],
      "name": "OwnershipTransferred",
      "type": "event"
    },
    {
      "anonymous": false,
      "inputs": [
        {
          "indexed": false,
          "internalType": "uint256",
          "name": "amount",
          "type": "uint256"
        }
      ],
      "name": "Released",
      "type": "event"
    },
    {
      "anonymous": false,
      "inputs": [],
      "name": "Revoked",
      "type": "event"
    },
    {
      "inputs": [],
      "name": "beneficiary",
      "outputs": [
        {
          "internalType": "address",
          "name": "",
          "type": "address"
        }
      ],
      "stateMutability": "view",
      "type": "function"
    },
    {
      "inputs": [],
      "name": "cliff",
      "outputs": [
        {
          "internalType": "uint256",
          "name": "",
          "type": "uint256"
        }
      ],
      "stateMutability": "view",
      "type": "function"
    },
    {
      "inputs": [],
      "name": "duration",
      "outputs": [
        {
          "internalType": "uint256",
          "name": "",
          "type": "uint256"
        }
      ],
      "stateMutability": "view",
      "type": "function"
    },
    {
      "inputs": [],
      "name": "lockDurationAfterTge",
      "outputs": [
        {
          "internalType": "uint256",
          "name": "",
          "type": "uint256"
        }
      ],
      "stateMutability": "view",
      "type": "function"
    },
    {
      "inputs": [],
      "name": "monthlyUnlockTokenPercentAfterCliff",
      "outputs": [
        {
          "internalType": "uint256",
          "name": "",
          "type": "uint256"
        }
      ],
      "stateMutability": "view",
      "type": "function"
    },
    {
      "inputs": [],
      "name": "owner",
      "outputs": [
        {
          "internalType": "address",
          "name": "",
          "type": "address"
        }
      ],
      "stateMutability": "view",
      "type": "function"
    },
    {
      "inputs": [
        {
          "internalType": "contract ERC20",
          "name": "token",
          "type": "address"
        }
      ],
      "name": "releasableAmount",
      "outputs": [
        {
          "internalType": "uint256",
          "name": "",
          "type": "uint256"
        }
      ],
      "stateMutability": "view",
      "type": "function"
    },
    {
      "inputs": [
        {
          "internalType": "contract ERC20",
          "name": "token",
          "type": "address"
        }
      ],
      "name": "release",
      "outputs": [],
      "stateMutability": "nonpayable",
      "type": "function"
    },
    {
      "inputs": [
        {
          "internalType": "address",
          "name": "",
          "type": "address"
        }
      ],
      "name": "released",
      "outputs": [
        {
          "internalType": "uint256",
          "name": "",
          "type": "uint256"
        }
      ],
      "stateMutability": "view",
      "type": "function"
    },
    {
      "inputs": [],
      "name": "renounceOwnership",
      "outputs": [],
      "stateMutability": "nonpayable",
      "type": "function"
    },
    {
      "inputs": [],
      "name": "revocable",
      "outputs": [
        {
          "internalType": "bool",
          "name": "",
          "type": "bool"
        }
      ],
      "stateMutability": "view",
      "type": "function"
    },
    {
      "inputs": [
        {
          "internalType": "contract ERC20",
          "name": "token",
          "type": "address"
        }
      ],
      "name": "revoke",
      "outputs": [],
      "stateMutability": "nonpayable",
      "type": "function"
    },
    {
      "inputs": [
        {
          "internalType": "address",
          "name": "",
          "type": "address"
        }
      ],
      "name": "revoked",
      "outputs": [
        {
          "internalType": "bool",
          "name": "",
          "type": "bool"
        }
      ],
      "stateMutability": "view",
      "type": "function"
    },
    {
      "inputs": [],
      "name": "start",
      "outputs": [
        {
          "internalType": "uint256",
          "name": "",
          "type": "uint256"
        }
      ],
      "stateMutability": "view",
      "type": "function"
    },
    {
      "inputs": [
        {
          "internalType": "address",
          "name": "newOwner",
          "type": "address"
        }
      ],
      "name": "transferOwnership",
      "outputs": [],
      "stateMutability": "nonpayable",
      "type": "function"
    },
    {
      "inputs": [],
      "name": "unlockTokenPercentAfterTge",
      "outputs": [
        {
          "internalType": "uint256",
          "name": "",
          "type": "uint256"
        }
      ],
      "stateMutability": "view",
      "type": "function"
    },
    {
      "inputs": [
        {
          "internalType": "contract ERC20",
          "name": "token",
          "type": "address"
        }
      ],
      "name": "vestedAmount",
      "outputs": [
        {
          "internalType": "uint256",
          "name": "",
          "type": "uint256"
        }
      ],
      "stateMutability": "view",
      "type": "function"
    }
  ],
  "bytecode": "0x60806040523480156200001157600080fd5b50604051620012ca380380620012ca8339810160408190526200003491620001da565b62000048620000426200014c565b62000150565b73ffffffffffffffffffffffffffffffffffffffff88166200006957600080fd5b838611156200007757600080fd5b818411156200008557600080fd5b600180547fffffffffffffffffffffffff00000000000000000000000000000000000000001673ffffffffffffffffffffffffffffffffffffffff8a16179055600880547fffffffffffffffffffffffffffffffffffffffffffffffffffffffffffffff001682151517905560078290556005859055620001138787620001c5602090811b6200089717901c565b60048190556006849055620001359085620001c5602090811b6200089717901c565b60025550505060039390935550620002ab92505050565b3390565b6000805473ffffffffffffffffffffffffffffffffffffffff8381167fffffffffffffffffffffffff0000000000000000000000000000000000000000831681178455604051919092169283917f8be0079c531659141344cd1fd0a4f28419497f9722a3daafe3b4186f6b6457e09190a35050565b6000620001d382846200026d565b9392505050565b600080600080600080600080610100898b031215620001f7578384fd5b885173ffffffffffffffffffffffffffffffffffffffff811681146200021b578485fd5b809850506020890151965060408901519550606089015194506080890151935060a0890151925060c0890151915060e089015180151581146200025c578182fd5b809150509295985092959890939650565b60008219821115620002a6577f4e487b710000000000000000000000000000000000000000000000000000000081526011600452602481fd5b500190565b61100f80620002bb6000396000f3fe608060405234801561001057600080fd5b506004361061011b5760003560e01c806374a8f103116100b2578063be9a655511610081578063f177a3fb11610066578063f177a3fb146101f9578063f2fde38b14610201578063fa01dc06146102145761011b565b8063be9a6555146101e9578063cbb5111c146101f15761011b565b806374a8f103146101a6578063872a7810146101b95780638da5cb5b146101ce5780639852595c146101d65761011b565b8063384711cc116100ee578063384711cc1461016e57806338af3eed1461018157806339b9258314610196578063715018a61461019e5761011b565b80630fb5a6b41461012057806313d033c01461013e5780631726cbc8146101465780631916558714610159575b600080fd5b610128610227565b6040516101359190610eaa565b60405180910390f35b61012861022d565b610128610154366004610c14565b610233565b61016c610167366004610c14565b610274565b005b61012861017c366004610c14565b610332565b6101896104a6565b6040516101359190610c84565b6101286104c2565b61016c6104c8565b61016c6101b4366004610c14565b610550565b6101c161076d565b6040516101359190610ccb565b610189610776565b6101286101e4366004610c14565b610792565b6101286107a4565b6101286107aa565b6101286107b0565b61016c61020f366004610c14565b6107b6565b6101c1610222366004610c14565b610882565b60075481565b60025481565b73ffffffffffffffffffffffffffffffffffffffff811660009081526009602052604081205461026c9061026684610332565b906108aa565b90505b919050565b600061027f82610233565b90506000811161028e57600080fd5b73ffffffffffffffffffffffffffffffffffffffff82166000908152600960205260409020546102be9082610897565b73ffffffffffffffffffffffffffffffffffffffff8084166000818152600960205260409020929092556001546102f7929116836108b6565b7ffb81f9b30d73d830c3544b34d827c08142579ee75710b490bab0b3995468c565816040516103269190610eaa565b60405180910390a15050565b6000808273ffffffffffffffffffffffffffffffffffffffff166370a08231306040518263ffffffff1660e01b815260040161036e9190610c84565b60206040518083038186803b15801561038657600080fd5b505afa15801561039a573d6000803e3d6000fd5b505050506040513d601f19601f820116820180604052508101906103be9190610c50565b73ffffffffffffffffffffffffffffffffffffffff8416600090815260096020526040812054919250906103f3908390610897565b90506004544210156104165760055461040d90829061095c565b9250505061026f565b60025442101561042b5760009250505061026f565b60075460035461043a91610897565b4210158061046d575073ffffffffffffffffffffffffffffffffffffffff84166000908152600a602052604090205460ff165b1561047b57915061026f9050565b61040d6007546104a0610499600254426108aa90919063ffffffff16565b849061095c565b90610968565b60015473ffffffffffffffffffffffffffffffffffffffff1681565b60045481565b6104d0610974565b73ffffffffffffffffffffffffffffffffffffffff166104ee610776565b73ffffffffffffffffffffffffffffffffffffffff1614610544576040517f08c379a000000000000000000000000000000000000000000000000000000000815260040161053b90610de1565b60405180910390fd5b61054e6000610978565b565b610558610974565b73ffffffffffffffffffffffffffffffffffffffff16610576610776565b73ffffffffffffffffffffffffffffffffffffffff16146105c3576040517f08c379a000000000000000000000000000000000000000000000000000000000815260040161053b90610de1565b60085460ff166105d257600080fd5b73ffffffffffffffffffffffffffffffffffffffff81166000908152600a602052604090205460ff161561060557600080fd5b6040517f70a0823100000000000000000000000000000000000000000000000000000000815260009073ffffffffffffffffffffffffffffffffffffffff8316906370a082319061065a903090600401610c84565b60206040518083038186803b15801561067257600080fd5b505afa158015610686573d6000803e3d6000fd5b505050506040513d601f19601f820116820180604052508101906106aa9190610c50565b905060006106b783610233565b905060006106c583836108aa565b73ffffffffffffffffffffffffffffffffffffffff85166000908152600a6020526040902080547fffffffffffffffffffffffffffffffffffffffffffffffffffffffffffffff00166001179055905061073e610720610776565b73ffffffffffffffffffffffffffffffffffffffff861690836108b6565b6040517f44825a4b2df8acb19ce4e1afba9aa850c8b65cdb7942e2078f27d0b0960efee690600090a150505050565b60085460ff1681565b60005473ffffffffffffffffffffffffffffffffffffffff1690565b60096020526000908152604090205481565b60035481565b60055481565b60065481565b6107be610974565b73ffffffffffffffffffffffffffffffffffffffff166107dc610776565b73ffffffffffffffffffffffffffffffffffffffff1614610829576040517f08c379a000000000000000000000000000000000000000000000000000000000815260040161053b90610de1565b73ffffffffffffffffffffffffffffffffffffffff8116610876576040517f08c379a000000000000000000000000000000000000000000000000000000000815260040161053b90610d27565b61087f81610978565b50565b600a6020526000908152604090205460ff1681565b60006108a38284610eb3565b9392505050565b60006108a38284610f41565b6109578363a9059cbb60e01b84846040516024016108d5929190610ca5565b604080517fffffffffffffffffffffffffffffffffffffffffffffffffffffffffffffffe08184030181529190526020810180517bffffffffffffffffffffffffffffffffffffffffffffffffffffffff167fffffffff00000000000000000000000000000000000000000000000000000000909316929092179091526109ed565b505050565b60006108a38284610f04565b60006108a38284610ecb565b3390565b6000805473ffffffffffffffffffffffffffffffffffffffff8381167fffffffffffffffffffffffff0000000000000000000000000000000000000000831681178455604051919092169283917f8be0079c531659141344cd1fd0a4f28419497f9722a3daafe3b4186f6b6457e09190a35050565b6000610a4f826040518060400160405280602081526020017f5361666545524332303a206c6f772d6c6576656c2063616c6c206661696c65648152508573ffffffffffffffffffffffffffffffffffffffff16610aa39092919063ffffffff16565b8051909150156109575780806020019051810190610a6d9190610c30565b610957576040517f08c379a000000000000000000000000000000000000000000000000000000000815260040161053b90610e4d565b6060610ab28484600085610aba565b949350505050565b606082471015610af6576040517f08c379a000000000000000000000000000000000000000000000000000000000815260040161053b90610d84565b610aff85610bbb565b610b35576040517f08c379a000000000000000000000000000000000000000000000000000000000815260040161053b90610e16565b6000808673ffffffffffffffffffffffffffffffffffffffff168587604051610b5e9190610c68565b60006040518083038185875af1925050503d8060008114610b9b576040519150601f19603f3d011682016040523d82523d6000602084013e610ba0565b606091505b5091509150610bb0828286610bc1565b979650505050505050565b3b151590565b60608315610bd05750816108a3565b825115610be05782518084602001fd5b816040517f08c379a000000000000000000000000000000000000000000000000000000000815260040161053b9190610cd6565b600060208284031215610c25578081fd5b81356108a381610fb7565b600060208284031215610c41578081fd5b815180151581146108a3578182fd5b600060208284031215610c61578081fd5b5051919050565b60008251610c7a818460208701610f58565b9190910192915050565b73ffffffffffffffffffffffffffffffffffffffff91909116815260200190565b73ffffffffffffffffffffffffffffffffffffffff929092168252602082015260400190565b901515815260200190565b6000602082528251806020840152610cf5816040850160208701610f58565b601f017fffffffffffffffffffffffffffffffffffffffffffffffffffffffffffffffe0169190910160400192915050565b60208082526026908201527f4f776e61626c653a206e6577206f776e657220697320746865207a65726f206160408201527f6464726573730000000000000000000000000000000000000000000000000000606082015260800190565b60208082526026908201527f416464726573733a20696e73756666696369656e742062616c616e636520666f60408201527f722063616c6c0000000000000000000000000000000000000000000000000000606082015260800190565b6020808252818101527f4f776e61626c653a2063616c6c6572206973206e6f7420746865206f776e6572604082015260600190565b6020808252601d908201527f416464726573733a2063616c6c20746f206e6f6e2d636f6e7472616374000000604082015260600190565b6020808252602a908201527f5361666545524332303a204552433230206f7065726174696f6e20646964206e60408201527f6f74207375636365656400000000000000000000000000000000000000000000606082015260800190565b90815260200190565b60008219821115610ec657610ec6610f88565b500190565b600082610eff577f4e487b710000000000000000000000000000000000000000000000000000000081526012600452602481fd5b500490565b6000817fffffffffffffffffffffffffffffffffffffffffffffffffffffffffffffffff0483118215151615610f3c57610f3c610f88565b500290565b600082821015610f5357610f53610f88565b500390565b60005b83811015610f73578181015183820152602001610f5b565b83811115610f82576000848401525b50505050565b7f4e487b7100000000000000000000000000000000000000000000000000000000600052601160045260246000fd5b73ffffffffffffffffffffffffffffffffffffffff8116811461087f57600080fdfea26469706673582212201019277a8b674b688c42361e58cc93e776a7f307ad53a7da7459d0e3ee5fc21064736f6c63430008000033",
  "linkReferences": {},
  "deployedLinkReferences": {}
}