{
  "_format": "hh-sol-artifact-1",
  "contractName": "UniswapV2PairMock",
  "sourceName": "contracts/metacana/mocks/UniswapV2PairMock.sol",
  "abi": [
    {
      "inputs": [],
      "name": "sync",
      "outputs": [],
      "stateMutability": "nonpayable",
      "type": "function"
    }
  ],
  "bytecode": "0x6080604052348015600f57600080fd5b50606580601d6000396000f3fe6080604052348015600f57600080fd5b506004361060285760003560e01c8063fff6cae914602d575b600080fd5b00fea26469706673582212207e49bcebc9771928251e04251bb8be56e233d605ae71236180540ac61c66ec8e64736f6c63430008030033",
  "linkReferences": {},
  "deployedLinkReferences": {}
}