{
  "_format": "hh-sol-artifact-1",
  "contractName": "CreatureAccessoryLootBox",
  "sourceName": "contracts/nft/lootBox/CreatureAccessoryLootBox.sol",
  "abi": [
    {
      "inputs": [
        {
          "internalType": "address",
          "name": "forwarder",
          "type": "address"
        }
      ],
      "stateMutability": "nonpayable",
      "type": "constructor"
    },
    {
      "anonymous": false,
      "inputs": [
        {
          "indexed": true,
          "internalType": "address",
          "name": "account",
          "type": "address"
        },
        {
          "indexed": true,
          "internalType": "address",
          "name": "operator",
          "type": "address"
        },
        {
          "indexed": false,
          "internalType": "bool",
          "name": "approved",
          "type": "bool"
        }
      ],
      "name": "ApprovalForAll",
      "type": "event"
    },
    {
      "anonymous": false,
      "inputs": [
        {
          "indexed": true,
          "internalType": "address",
          "name": "factory",
          "type": "address"
        },
        {
          "components": [
            {
              "internalType": "uint64",
              "name": "minID",
              "type": "uint64"
            },
            {
              "internalType": "uint64",
              "name": "maxID",
              "type": "uint64"
            },
            {
              "internalType": "uint64",
              "name": "startTime",
              "type": "uint64"
            },
            {
              "internalType": "uint64",
              "name": "endTime",
              "type": "uint64"
            }
          ],
          "indexed": false,
          "internalType": "struct AssetRangeStruct.AssetRange",
          "name": "new_range",
          "type": "tuple"
        }
      ],
      "name": "MintPermissionAdded",
      "type": "event"
    },
    {
      "anonymous": false,
      "inputs": [
        {
          "indexed": true,
          "internalType": "address",
          "name": "factory",
          "type": "address"
        },
        {
          "components": [
            {
              "internalType": "uint64",
              "name": "minID",
              "type": "uint64"
            },
            {
              "internalType": "uint64",
              "name": "maxID",
              "type": "uint64"
            },
            {
              "internalType": "uint64",
              "name": "startTime",
              "type": "uint64"
            },
            {
              "internalType": "uint64",
              "name": "endTime",
              "type": "uint64"
            }
          ],
          "indexed": false,
          "internalType": "struct AssetRangeStruct.AssetRange",
          "name": "deleted_range",
          "type": "tuple"
        }
      ],
      "name": "MintPermissionRemoved",
      "type": "event"
    },
    {
      "anonymous": false,
      "inputs": [
        {
          "indexed": true,
          "internalType": "address",
          "name": "previousOwner",
          "type": "address"
        },
        {
          "indexed": true,
          "internalType": "address",
          "name": "newOwner",
          "type": "address"
        }
      ],
      "name": "OwnershipTransferred",
      "type": "event"
    },
    {
      "anonymous": false,
      "inputs": [
        {
          "indexed": false,
          "internalType": "address",
          "name": "account",
          "type": "address"
        }
      ],
      "name": "Paused",
      "type": "event"
    },
    {
      "anonymous": false,
      "inputs": [
        {
          "indexed": true,
          "internalType": "address",
          "name": "operator",
          "type": "address"
        },
        {
          "indexed": true,
          "internalType": "address",
          "name": "from",
          "type": "address"
        },
        {
          "indexed": true,
          "internalType": "address",
          "name": "to",
          "type": "address"
        },
        {
          "indexed": false,
          "internalType": "uint256[]",
          "name": "ids",
          "type": "uint256[]"
        },
        {
          "indexed": false,
          "internalType": "uint256[]",
          "name": "values",
          "type": "uint256[]"
        }
      ],
      "name": "TransferBatch",
      "type": "event"
    },
    {
      "anonymous": false,
      "inputs": [
        {
          "indexed": true,
          "internalType": "address",
          "name": "operator",
          "type": "address"
        },
        {
          "indexed": true,
          "internalType": "address",
          "name": "from",
          "type": "address"
        },
        {
          "indexed": true,
          "internalType": "address",
          "name": "to",
          "type": "address"
        },
        {
          "indexed": false,
          "internalType": "uint256",
          "name": "id",
          "type": "uint256"
        },
        {
          "indexed": false,
          "internalType": "uint256",
          "name": "value",
          "type": "uint256"
        }
      ],
      "name": "TransferSingle",
      "type": "event"
    },
    {
      "anonymous": false,
      "inputs": [
        {
          "indexed": false,
          "internalType": "string",
          "name": "value",
          "type": "string"
        },
        {
          "indexed": true,
          "internalType": "uint256",
          "name": "id",
          "type": "uint256"
        }
      ],
      "name": "URI",
      "type": "event"
    },
    {
      "anonymous": false,
      "inputs": [
        {
          "indexed": false,
          "internalType": "address",
          "name": "account",
          "type": "address"
        }
      ],
      "name": "Unpaused",
      "type": "event"
    },
    {
      "stateMutability": "nonpayable",
      "type": "fallback"
    },
    {
      "inputs": [
        {
          "internalType": "address",
          "name": "_factory",
          "type": "address"
        },
        {
          "internalType": "uint64",
          "name": "_minRange",
          "type": "uint64"
        },
        {
          "internalType": "uint64",
          "name": "_maxRange",
          "type": "uint64"
        },
        {
          "internalType": "uint64",
          "name": "_startTime",
          "type": "uint64"
        },
        {
          "internalType": "uint64",
          "name": "_endTime",
          "type": "uint64"
        }
      ],
      "name": "addMintPermission",
      "outputs": [],
      "stateMutability": "nonpayable",
      "type": "function"
    },
    {
      "inputs": [
        {
          "internalType": "address",
          "name": "account",
          "type": "address"
        },
        {
          "internalType": "uint256",
          "name": "id",
          "type": "uint256"
        }
      ],
      "name": "balanceOf",
      "outputs": [
        {
          "internalType": "uint256",
          "name": "",
          "type": "uint256"
        }
      ],
      "stateMutability": "view",
      "type": "function"
    },
    {
      "inputs": [
        {
          "internalType": "address[]",
          "name": "accounts",
          "type": "address[]"
        },
        {
          "internalType": "uint256[]",
          "name": "ids",
          "type": "uint256[]"
        }
      ],
      "name": "balanceOfBatch",
      "outputs": [
        {
          "internalType": "uint256[]",
          "name": "",
          "type": "uint256[]"
        }
      ],
      "stateMutability": "view",
      "type": "function"
    },
    {
      "inputs": [
        {
          "internalType": "uint256",
          "name": "_id",
          "type": "uint256"
        },
        {
          "internalType": "uint256",
          "name": "_amount",
          "type": "uint256"
        }
      ],
      "name": "burn",
      "outputs": [],
      "stateMutability": "nonpayable",
      "type": "function"
    },
    {
      "inputs": [
        {
          "internalType": "address",
          "name": "account",
          "type": "address"
        },
        {
          "internalType": "uint256",
          "name": "id",
          "type": "uint256"
        },
        {
          "internalType": "uint256",
          "name": "value",
          "type": "uint256"
        }
      ],
      "name": "burn",
      "outputs": [],
      "stateMutability": "nonpayable",
      "type": "function"
    },
    {
      "inputs": [
        {
          "internalType": "address",
          "name": "account",
          "type": "address"
        },
        {
          "internalType": "uint256[]",
          "name": "ids",
          "type": "uint256[]"
        },
        {
          "internalType": "uint256[]",
          "name": "values",
          "type": "uint256[]"
        }
      ],
      "name": "burnBatch",
      "outputs": [],
      "stateMutability": "nonpayable",
      "type": "function"
    },
    {
      "inputs": [
        {
          "internalType": "uint256[]",
          "name": "_ids",
          "type": "uint256[]"
        },
        {
          "internalType": "uint256[]",
          "name": "_amounts",
          "type": "uint256[]"
        }
      ],
      "name": "burnBatch",
      "outputs": [],
      "stateMutability": "nonpayable",
      "type": "function"
    },
    {
      "inputs": [
        {
          "internalType": "address",
          "name": "_initialOwner",
          "type": "address"
        },
        {
          "internalType": "uint256",
          "name": "_id",
          "type": "uint256"
        },
        {
          "internalType": "uint256",
          "name": "_initialSupply",
          "type": "uint256"
        },
        {
          "internalType": "bytes",
          "name": "_data",
          "type": "bytes"
        }
      ],
      "name": "create",
      "outputs": [
        {
          "internalType": "uint256",
          "name": "",
          "type": "uint256"
        }
      ],
      "stateMutability": "nonpayable",
      "type": "function"
    },
    {
      "inputs": [
        {
          "internalType": "uint256",
          "name": "",
          "type": "uint256"
        }
      ],
      "name": "creators",
      "outputs": [
        {
          "internalType": "address",
          "name": "",
          "type": "address"
        }
      ],
      "stateMutability": "view",
      "type": "function"
    },
    {
      "inputs": [
        {
          "internalType": "uint256",
          "name": "id",
          "type": "uint256"
        }
      ],
      "name": "exists",
      "outputs": [
        {
          "internalType": "bool",
          "name": "",
          "type": "bool"
        }
      ],
      "stateMutability": "view",
      "type": "function"
    },
    {
      "inputs": [
        {
          "internalType": "address",
          "name": "_factory",
          "type": "address"
        }
      ],
      "name": "getFactoryAccessRanges",
      "outputs": [
        {
          "components": [
            {
              "internalType": "uint64",
              "name": "minID",
              "type": "uint64"
            },
            {
              "internalType": "uint64",
              "name": "maxID",
              "type": "uint64"
            },
            {
              "internalType": "uint64",
              "name": "startTime",
              "type": "uint64"
            },
            {
              "internalType": "uint64",
              "name": "endTime",
              "type": "uint64"
            }
          ],
          "internalType": "struct AssetRangeStruct.AssetRange[]",
          "name": "",
          "type": "tuple[]"
        }
      ],
      "stateMutability": "view",
      "type": "function"
    },
    {
      "inputs": [
        {
          "internalType": "address",
          "name": "_owner",
          "type": "address"
        },
        {
          "internalType": "address",
          "name": "_operator",
          "type": "address"
        }
      ],
      "name": "isApprovedForAll",
      "outputs": [
        {
          "internalType": "bool",
          "name": "isOperator",
          "type": "bool"
        }
      ],
      "stateMutability": "view",
      "type": "function"
    },
    {
      "inputs": [
        {
          "internalType": "address",
          "name": "forwarder",
          "type": "address"
        }
      ],
      "name": "isTrustedForwarder",
      "outputs": [
        {
          "internalType": "bool",
          "name": "",
          "type": "bool"
        }
      ],
      "stateMutability": "view",
      "type": "function"
    },
    {
      "inputs": [
        {
          "internalType": "address",
          "name": "_to",
          "type": "address"
        },
        {
          "internalType": "uint256",
          "name": "_optionId",
          "type": "uint256"
        },
        {
          "internalType": "uint256",
          "name": "_amount",
          "type": "uint256"
        },
        {
          "internalType": "bytes",
          "name": "_data",
          "type": "bytes"
        }
      ],
      "name": "mint",
      "outputs": [],
      "stateMutability": "nonpayable",
      "type": "function"
    },
    {
      "inputs": [
        {
          "internalType": "address",
          "name": "_to",
          "type": "address"
        },
        {
          "internalType": "uint256[]",
          "name": "_ids",
          "type": "uint256[]"
        },
        {
          "internalType": "uint256[]",
          "name": "_amounts",
          "type": "uint256[]"
        },
        {
          "internalType": "bytes",
          "name": "_data",
          "type": "bytes"
        }
      ],
      "name": "mintBatch",
      "outputs": [],
      "stateMutability": "nonpayable",
      "type": "function"
    },
    {
      "inputs": [],
      "name": "owner",
      "outputs": [
        {
          "internalType": "address",
          "name": "",
          "type": "address"
        }
      ],
      "stateMutability": "view",
      "type": "function"
    },
    {
      "inputs": [],
      "name": "pause",
      "outputs": [],
      "stateMutability": "nonpayable",
      "type": "function"
    },
    {
      "inputs": [],
      "name": "paused",
      "outputs": [
        {
          "internalType": "bool",
          "name": "",
          "type": "bool"
        }
      ],
      "stateMutability": "view",
      "type": "function"
    },
    {
      "inputs": [
        {
          "internalType": "address",
          "name": "_factory",
          "type": "address"
        },
        {
          "internalType": "uint256",
          "name": "_rangeIndex",
          "type": "uint256"
        }
      ],
      "name": "removeMintPermission",
      "outputs": [],
      "stateMutability": "nonpayable",
      "type": "function"
    },
    {
      "inputs": [],
      "name": "renounceOwnership",
      "outputs": [],
      "stateMutability": "nonpayable",
      "type": "function"
    },
    {
      "inputs": [
        {
          "internalType": "address",
          "name": "from",
          "type": "address"
        },
        {
          "internalType": "address",
          "name": "to",
          "type": "address"
        },
        {
          "internalType": "uint256[]",
          "name": "ids",
          "type": "uint256[]"
        },
        {
          "internalType": "uint256[]",
          "name": "amounts",
          "type": "uint256[]"
        },
        {
          "internalType": "bytes",
          "name": "data",
          "type": "bytes"
        }
      ],
      "name": "safeBatchTransferFrom",
      "outputs": [],
      "stateMutability": "nonpayable",
      "type": "function"
    },
    {
      "inputs": [
        {
          "internalType": "address",
          "name": "from",
          "type": "address"
        },
        {
          "internalType": "address",
          "name": "to",
          "type": "address"
        },
        {
          "internalType": "uint256",
          "name": "id",
          "type": "uint256"
        },
        {
          "internalType": "uint256",
          "name": "amount",
          "type": "uint256"
        },
        {
          "internalType": "bytes",
          "name": "data",
          "type": "bytes"
        }
      ],
      "name": "safeTransferFrom",
      "outputs": [],
      "stateMutability": "nonpayable",
      "type": "function"
    },
    {
      "inputs": [
        {
          "internalType": "address",
          "name": "operator",
          "type": "address"
        },
        {
          "internalType": "bool",
          "name": "approved",
          "type": "bool"
        }
      ],
      "name": "setApprovalForAll",
      "outputs": [],
      "stateMutability": "nonpayable",
      "type": "function"
    },
    {
      "inputs": [
        {
          "internalType": "address",
          "name": "_to",
          "type": "address"
        },
        {
          "internalType": "uint256[]",
          "name": "_ids",
          "type": "uint256[]"
        }
      ],
      "name": "setCreator",
      "outputs": [],
      "stateMutability": "nonpayable",
      "type": "function"
    },
    {
      "inputs": [
        {
          "internalType": "uint256",
          "name": "_option",
          "type": "uint256"
        },
        {
          "internalType": "uint256",
          "name": "_maxQuantityPerOpen",
          "type": "uint256"
        },
        {
          "internalType": "uint16[]",
          "name": "_classProbabilities",
          "type": "uint16[]"
        },
        {
          "internalType": "uint16[]",
          "name": "_guarantees",
          "type": "uint16[]"
        }
      ],
      "name": "setOptionSettings",
      "outputs": [],
      "stateMutability": "nonpayable",
      "type": "function"
    },
    {
      "inputs": [
        {
          "internalType": "address",
          "name": "_factoryAddress",
          "type": "address"
        },
        {
          "internalType": "uint256",
          "name": "_numOptions",
          "type": "uint256"
        },
        {
          "internalType": "uint256",
          "name": "_numClasses",
          "type": "uint256"
        },
        {
          "internalType": "uint256",
          "name": "_seed",
          "type": "uint256"
        }
      ],
      "name": "setState",
      "outputs": [],
      "stateMutability": "nonpayable",
      "type": "function"
    },
    {
      "inputs": [
        {
          "internalType": "uint256",
          "name": "_classId",
          "type": "uint256"
        },
        {
          "internalType": "uint256[]",
          "name": "_tokenIds",
          "type": "uint256[]"
        }
      ],
      "name": "setTokenIdsForClass",
      "outputs": [],
      "stateMutability": "nonpayable",
      "type": "function"
    },
    {
      "inputs": [
        {
          "internalType": "string",
          "name": "newuri",
          "type": "string"
        }
      ],
      "name": "setURI",
      "outputs": [],
      "stateMutability": "nonpayable",
      "type": "function"
    },
    {
      "inputs": [
        {
          "internalType": "bytes4",
          "name": "_interfaceID",
          "type": "bytes4"
        }
      ],
      "name": "supportsInterface",
      "outputs": [
        {
          "internalType": "bool",
          "name": "",
          "type": "bool"
        }
      ],
      "stateMutability": "view",
      "type": "function"
    },
    {
      "inputs": [
        {
          "internalType": "uint256",
          "name": "id",
          "type": "uint256"
        }
      ],
      "name": "totalSupply",
      "outputs": [
        {
          "internalType": "uint256",
          "name": "",
          "type": "uint256"
        }
      ],
      "stateMutability": "view",
      "type": "function"
    },
    {
      "inputs": [
        {
          "internalType": "address",
          "name": "newOwner",
          "type": "address"
        }
      ],
      "name": "transferOwnership",
      "outputs": [],
      "stateMutability": "nonpayable",
      "type": "function"
    },
    {
      "inputs": [
        {
          "internalType": "uint256",
          "name": "_optionId",
          "type": "uint256"
        },
        {
          "internalType": "address",
          "name": "_toAddress",
          "type": "address"
        },
        {
          "internalType": "uint256",
          "name": "_amount",
          "type": "uint256"
        }
      ],
      "name": "unpack",
      "outputs": [],
      "stateMutability": "nonpayable",
      "type": "function"
    },
    {
      "inputs": [],
      "name": "unpause",
      "outputs": [],
      "stateMutability": "nonpayable",
      "type": "function"
    },
    {
      "inputs": [
        {
          "internalType": "uint256",
          "name": "",
          "type": "uint256"
        }
      ],
      "name": "uri",
      "outputs": [
        {
          "internalType": "string",
          "name": "",
          "type": "string"
        }
      ],
      "stateMutability": "view",
      "type": "function"
    }
  ],
  "bytecode": "0x60806040523480156200001157600080fd5b50604051620062183803806200621883398101604081905262000034916200027e565b6040805160208101909152600081528180826200005181620000b8565b506200006662000060620000d1565b620000ee565b600480547fffffffffffffffffffffff0000000000000000000000000000000000000000001673ffffffffffffffffffffffffffffffffffffffff9092169190911790555050600160085550620002f8565b8051620000cd906002906020840190620001d8565b5050565b6000620000e86200016560201b6200257e1760201c565b90505b90565b6003805473ffffffffffffffffffffffffffffffffffffffff8381167fffffffffffffffffffffffff0000000000000000000000000000000000000000831681179093556040519116919082907f8be0079c531659141344cd1fd0a4f28419497f9722a3daafe3b4186f6b6457e090600090a35050565b60045460009073ffffffffffffffffffffffffffffffffffffffff16331415620001b757507fffffffffffffffffffffffffffffffffffffffffffffffffffffffffffffffec36013560601c620000eb565b620001cc620001d460201b620025d51760201c565b9050620000eb565b3390565b828054620001e690620002bb565b90600052602060002090601f0160209004810192826200020a576000855562000255565b82601f106200022557805160ff191683800117855562000255565b8280016001018555821562000255579182015b828111156200025557825182559160200191906001019062000238565b506200026392915062000267565b5090565b5b8082111562000263576000815560010162000268565b60006020828403121562000290578081fd5b815173ffffffffffffffffffffffffffffffffffffffff81168114620002b4578182fd5b9392505050565b600181811c90821680620002d057607f821691505b60208210811415620002f257634e487b7160e01b600052602260045260246000fd5b50919050565b615f1080620003086000396000f3fe608060405234801561001057600080fd5b50600436106102255760003560e01c8063731133e91161012a578063c13dc291116100bd578063f0fee98c1161008c578063f2fde38b11610071578063f2fde38b14610580578063f5298aca14610593578063f7188246146105a657610225565b8063f0fee98c1461055a578063f242432a1461056d57610225565b8063c13dc291146104eb578063cd53d08e146104fe578063d2a6b51a14610534578063e985e9c51461054757610225565b8063a22cb465116100f9578063a22cb46514610485578063a36b3f2914610498578063b390c0ab146104b8578063bd85b039146104cb57610225565b8063731133e91461041857806383ca4b6f1461042b5780638456cb591461043e5780638da5cb5b1461044657610225565b80633f4ba83a116101bd578063572b6c051161018c57806360ea27971161017157806360ea2797146103ea5780636b20c454146103fd578063715018a61461041057610225565b8063572b6c05146103b35780635c975abb146103e257610225565b80633f4ba83a14610356578063458d28441461035e5780634e1273f4146103715780634f558e791461039157610225565b80630e89341c116101f95780630e89341c146102fd5780631f7fdffa1461031d57806322629f9e146103305780632eb2c2d61461034357610225565b8062fdd58e1461028c57806301ffc9a7146102b257806302fe5305146102d557806307800c9b146102ea575b6040517f08c379a000000000000000000000000000000000000000000000000000000000815260206004820152601260248201527f554e535550504f525445445f4d4554484f44000000000000000000000000000060448201526064015b60405180910390fd5b61029f61029a366004615493565b6105b9565b6040519081526020015b60405180910390f35b6102c56102c0366004615707565b610694565b60405190151581526020016102a9565b6102e86102e336600461573f565b6106a7565b005b6102e86102f8366004615579565b61076d565b61031061030b366004615785565b610b45565b6040516102a99190615af0565b6102e861032b3660046153c4565b610bd9565b6102e861033e366004615541565b610cf2565b6102e86103513660046151fe565b610e60565b6102e8610f48565b6102e861036c366004615493565b61100c565b61038461037f3660046155dd565b6114ce565b6040516102a99190615aaf565b6102c561039f366004615785565b600090815260056020526040902054151590565b6102c56103c13660046151b2565b60045473ffffffffffffffffffffffffffffffffffffffff90811691161490565b6102c56116c2565b6102e86103f8366004615839565b6116e4565b6102e861040b366004615353565b6117f7565b6102e86118db565b6102e86104263660046154ee565b61199f565b6102e861043936600461569e565b611b09565b6102e8611b77565b60035473ffffffffffffffffffffffffffffffffffffffff165b60405173ffffffffffffffffffffffffffffffffffffffff90911681526020016102a9565b6102e8610493366004615459565b611c39565b6104ab6104a63660046151b2565b611c4f565b6040516102a99190615a32565b6102e86104c6366004615818565b611d2d565b61029f6104d9366004615785565b60009081526005602052604090205490565b61029f6104f93660046154ee565b611d38565b61046061050c366004615785565b60066020526000908152604090205473ffffffffffffffffffffffffffffffffffffffff1681565b6102e8610542366004615307565b611fba565b6102c56105553660046151cc565b6120a5565b6102e86105683660046157b5565b6120e5565b6102e861057b3660046152a4565b612115565b6102e861058e3660046151b2565b6121f6565b6102e86105a13660046154bc565b61235c565b6102e86105b43660046157e9565b61243b565b600073ffffffffffffffffffffffffffffffffffffffff831661065e576040517f08c379a000000000000000000000000000000000000000000000000000000000815260206004820152602b60248201527f455243313135353a2062616c616e636520717565727920666f7220746865207a60448201527f65726f20616464726573730000000000000000000000000000000000000000006064820152608401610283565b5060008181526020818152604080832073ffffffffffffffffffffffffffffffffffffffff861684529091529020545b92915050565b600061069f826125d9565b90505b919050565b6106af6126bc565b73ffffffffffffffffffffffffffffffffffffffff166106e460035473ffffffffffffffffffffffffffffffffffffffff1690565b73ffffffffffffffffffffffffffffffffffffffff1614610761576040517f08c379a000000000000000000000000000000000000000000000000000000000815260206004820181905260248201527f4f776e61626c653a2063616c6c6572206973206e6f7420746865206f776e65726044820152606401610283565b61076a816126cb565b50565b6107756126bc565b73ffffffffffffffffffffffffffffffffffffffff166107aa60035473ffffffffffffffffffffffffffffffffffffffff1690565b73ffffffffffffffffffffffffffffffffffffffff1614610827576040517f08c379a000000000000000000000000000000000000000000000000000000000815260206004820181905260248201527f4f776e61626c653a2063616c6c6572206973206e6f7420746865206f776e65726044820152606401610283565b60008367ffffffffffffffff161161089b576040517f08c379a000000000000000000000000000000000000000000000000000000000815260206004820181905260248201527f4e4654236164644d696e745065726d697373696f6e3a4e554c4c5f52414e47456044820152606401610283565b8267ffffffffffffffff168467ffffffffffffffff16111561093f576040517f08c379a000000000000000000000000000000000000000000000000000000000815260206004820152602360248201527f4e4654236164644d696e745065726d697373696f6e3a494e56414c49445f524160448201527f4e474500000000000000000000000000000000000000000000000000000000006064820152608401610283565b8067ffffffffffffffff168267ffffffffffffffff16106109e2576040517f08c379a000000000000000000000000000000000000000000000000000000000815260206004820152603160248201527f4e4654236164644d696e745065726d697373696f6e3a53544152545f54494d4560448201527f5f454e445f54494d455f494e56414c49440000000000000000000000000000006064820152608401610283565b6040805160808101825267ffffffffffffffff808716825285811660208084019182528683168486019081528684166060860190815273ffffffffffffffffffffffffffffffffffffffff8c166000818152600785528881208054600181018255908252949020875194018054955193519251871678010000000000000000000000000000000000000000000000000277ffffffffffffffffffffffffffffffffffffffffffffffff93881670010000000000000000000000000000000002939093166fffffffffffffffffffffffffffffffff94881668010000000000000000027fffffffffffffffffffffffffffffffff0000000000000000000000000000000090971695909716949094179490941791909116939093179290921790915591519091907f188968bccf857d854c73494ca4da4cc4ae2769e4b732db8f40dfa62b86b1c40a90610b35908490615b03565b60405180910390a2505050505050565b606060028054610b5490615c76565b80601f0160208091040260200160405190810160405280929190818152602001828054610b8090615c76565b8015610bcd5780601f10610ba257610100808354040283529160200191610bcd565b820191906000526020600020905b815481529060010190602001808311610bb057829003601f168201915b50505050509050919050565b610be383836126de565b60005b8351811015610cdf576000848281518110610c2a577f4e487b7100000000000000000000000000000000000000000000000000000000600052603260045260246000fd5b60200260200101519050610c3c6126bc565b60008281526006602052604090205473ffffffffffffffffffffffffffffffffffffffff908116911614610ccc576040517f08c379a000000000000000000000000000000000000000000000000000000000815260206004820152601a60248201527f4e4654236d696e7442617463683a4f4e4c595f43524541544f520000000000006044820152606401610283565b5080610cd781615d15565b915050610be6565b50610cec84848484612a12565b50505050565b610cfa6126bc565b73ffffffffffffffffffffffffffffffffffffffff16610d2f60035473ffffffffffffffffffffffffffffffffffffffff1690565b73ffffffffffffffffffffffffffffffffffffffff1614610dac576040517f08c379a000000000000000000000000000000000000000000000000000000000815260206004820181905260248201527f4f776e61626c653a2063616c6c6572206973206e6f7420746865206f776e65726044820152606401610283565b6040517f6306b42b0000000000000000000000000000000000000000000000000000000081526009600482015273ffffffffffffffffffffffffffffffffffffffff8516602482015260448101849052606481018390526084810182905273__$58d0c3ffeec18ab7b5a43dd85255f04004$__90636306b42b9060a4015b60006040518083038186803b158015610e4257600080fd5b505af4158015610e56573d6000803e3d6000fd5b5050505050505050565b610e686126bc565b73ffffffffffffffffffffffffffffffffffffffff168573ffffffffffffffffffffffffffffffffffffffff161480610ea85750610ea8856105556126bc565b610f34576040517f08c379a000000000000000000000000000000000000000000000000000000000815260206004820152603260248201527f455243313135353a207472616e736665722063616c6c6572206973206e6f742060448201527f6f776e6572206e6f7220617070726f76656400000000000000000000000000006064820152608401610283565b610f418585858585612cf3565b5050505050565b610f506126bc565b73ffffffffffffffffffffffffffffffffffffffff16610f8560035473ffffffffffffffffffffffffffffffffffffffff1690565b73ffffffffffffffffffffffffffffffffffffffff1614611002576040517f08c379a000000000000000000000000000000000000000000000000000000000815260206004820181905260248201527f4f776e61626c653a2063616c6c6572206973206e6f7420746865206f776e65726044820152606401610283565b61100a61308c565b565b6110146126bc565b73ffffffffffffffffffffffffffffffffffffffff1661104960035473ffffffffffffffffffffffffffffffffffffffff1690565b73ffffffffffffffffffffffffffffffffffffffff16146110c6576040517f08c379a000000000000000000000000000000000000000000000000000000000815260206004820181905260248201527f4f776e61626c653a2063616c6c6572206973206e6f7420746865206f776e65726044820152606401610283565b73ffffffffffffffffffffffffffffffffffffffff82166000908152600760205260408120546110f890600190615c2a565b73ffffffffffffffffffffffffffffffffffffffff84166000908152600760205260408120805492935090918490811061115b577f4e487b7100000000000000000000000000000000000000000000000000000000600052603260045260246000fd5b600091825260209182902060408051608081018252929091015467ffffffffffffffff8082168452680100000000000000008204811694840194909452700100000000000000000000000000000000810484169183019190915278010000000000000000000000000000000000000000000000009004909116606082015290508183146113e75773ffffffffffffffffffffffffffffffffffffffff84166000908152600760205260408120805484908110611240577f4e487b7100000000000000000000000000000000000000000000000000000000600052603260045260246000fd5b6000918252602080832060408051608081018252919093015467ffffffffffffffff80821683526801000000000000000082048116838501527001000000000000000000000000000000008204811683860152780100000000000000000000000000000000000000000000000090910416606082015273ffffffffffffffffffffffffffffffffffffffff89168452600790915291208054919250829186908110611314577f4e487b7100000000000000000000000000000000000000000000000000000000600052603260045260246000fd5b600091825260209182902083519101805492840151604085015160609095015167ffffffffffffffff90811678010000000000000000000000000000000000000000000000000277ffffffffffffffffffffffffffffffffffffffffffffffff96821670010000000000000000000000000000000002969096166fffffffffffffffffffffffffffffffff92821668010000000000000000027fffffffffffffffffffffffffffffffff000000000000000000000000000000009096169190941617939093179290921617919091179055505b73ffffffffffffffffffffffffffffffffffffffff84166000908152600760205260409020805480611442577f4e487b7100000000000000000000000000000000000000000000000000000000600052603160045260246000fd5b60008281526020812082017fffffffffffffffffffffffffffffffffffffffffffffffffffffffffffffffff9081019190915501905560405173ffffffffffffffffffffffffffffffffffffffff8516907f1bca5c143feb87c2d4e8d2d1fd73ba6f43f551ba73c58634f56bbe30701f06d4906114c0908490615b03565b60405180910390a250505050565b60608151835114611561576040517f08c379a000000000000000000000000000000000000000000000000000000000815260206004820152602960248201527f455243313135353a206163636f756e747320616e6420696473206c656e67746860448201527f206d69736d6174636800000000000000000000000000000000000000000000006064820152608401610283565b6000835167ffffffffffffffff8111156115a4577f4e487b7100000000000000000000000000000000000000000000000000000000600052604160045260246000fd5b6040519080825280602002602001820160405280156115cd578160200160208202803683370190505b50905060005b84518110156116ba57611666858281518110611618577f4e487b7100000000000000000000000000000000000000000000000000000000600052603260045260246000fd5b6020026020010151858381518110611659577f4e487b7100000000000000000000000000000000000000000000000000000000600052603260045260246000fd5b60200260200101516105b9565b82828151811061169f577f4e487b7100000000000000000000000000000000000000000000000000000000600052603260045260246000fd5b60209081029190910101526116b381615d15565b90506115d3565b509392505050565b60045474010000000000000000000000000000000000000000900460ff165b90565b6116ec6126bc565b73ffffffffffffffffffffffffffffffffffffffff1661172160035473ffffffffffffffffffffffffffffffffffffffff1690565b73ffffffffffffffffffffffffffffffffffffffff161461179e576040517f08c379a000000000000000000000000000000000000000000000000000000000815260206004820181905260248201527f4f776e61626c653a2063616c6c6572206973206e6f7420746865206f776e65726044820152606401610283565b6040517fb13d6c3500000000000000000000000000000000000000000000000000000000815273__$58d0c3ffeec18ab7b5a43dd85255f04004$__9063b13d6c3590610e2a906009908890889088908890600401615b94565b6117ff6126bc565b73ffffffffffffffffffffffffffffffffffffffff168373ffffffffffffffffffffffffffffffffffffffff16148061183f575061183f836105556126bc565b6118cb576040517f08c379a000000000000000000000000000000000000000000000000000000000815260206004820152602960248201527f455243313135353a2063616c6c6572206973206e6f74206f776e6572206e6f7260448201527f20617070726f76656400000000000000000000000000000000000000000000006064820152608401610283565b6118d6838383613175565b505050565b6118e36126bc565b73ffffffffffffffffffffffffffffffffffffffff1661191860035473ffffffffffffffffffffffffffffffffffffffff1690565b73ffffffffffffffffffffffffffffffffffffffff1614611995576040517f08c379a000000000000000000000000000000000000000000000000000000000815260206004820181905260248201527f4f776e61626c653a2063616c6c6572206973206e6f7420746865206f776e65726044820152606401610283565b61100a60006134f5565b60026008541415611a0c576040517f08c379a000000000000000000000000000000000000000000000000000000000815260206004820152601f60248201527f5265656e7472616e637947756172643a207265656e7472616e742063616c6c006044820152606401610283565b6002600855611a21611a1c6126bc565b61356c565b611a87576040517f08c379a000000000000000000000000000000000000000000000000000000000815260206004820152601c60248201527f4c6f6f74626f783a206f776e6572206f722070726f7879206f6e6c79000000006044820152606401610283565b600a548310611af2576040517f08c379a000000000000000000000000000000000000000000000000000000000815260206004820152601760248201527f4c6f6f74626f783a20496e76616c6964204f7074696f6e0000000000000000006044820152606401610283565b611afe848484846135c1565b505060016008555050565b610cec338585808060200260200160405190810160405280939291908181526020018383602002808284376000920191909152505060408051602080890282810182019093528882529093508892508791829185019084908082843760009201919091525061317592505050565b611b7f6126bc565b73ffffffffffffffffffffffffffffffffffffffff16611bb460035473ffffffffffffffffffffffffffffffffffffffff1690565b73ffffffffffffffffffffffffffffffffffffffff1614611c31576040517f08c379a000000000000000000000000000000000000000000000000000000000815260206004820181905260248201527f4f776e61626c653a2063616c6c6572206973206e6f7420746865206f776e65726044820152606401610283565b61100a6135cd565b611c4b611c446126bc565b83836136a4565b5050565b73ffffffffffffffffffffffffffffffffffffffff81166000908152600760209081526040808320805482518185028101850190935280835260609492939192909184015b82821015611d22576000848152602090819020604080516080810182529185015467ffffffffffffffff8082168452680100000000000000008204811684860152700100000000000000000000000000000000820481169284019290925278010000000000000000000000000000000000000000000000009004166060820152825260019092019101611c94565b505050509050919050565b611c4b3383836137f8565b6000611d426126bc565b73ffffffffffffffffffffffffffffffffffffffff16611d7760035473ffffffffffffffffffffffffffffffffffffffff1690565b73ffffffffffffffffffffffffffffffffffffffff1614611df4576040517f08c379a000000000000000000000000000000000000000000000000000000000815260206004820181905260248201527f4f776e61626c653a2063616c6c6572206973206e6f7420746865206f776e65726044820152606401610283565b60008481526005602052604090205415611e6a576040517f08c379a000000000000000000000000000000000000000000000000000000000815260206004820152601560248201527f6372656174653a746f6b656e5f69645f657869737400000000000000000000006044820152606401610283565b6040805160018082528183019092526000916020808301908036833750506040805160018082528183019092529293506000929150602080830190803683370190505090508582600081518110611eea577f4e487b7100000000000000000000000000000000000000000000000000000000600052603260045260246000fd5b6020026020010181815250508481600081518110611f31577f4e487b7100000000000000000000000000000000000000000000000000000000600052603260045260246000fd5b602002602001018181525050611f4782826126de565b611f4f6126bc565b600087815260066020526040902080547fffffffffffffffffffffffff00000000000000000000000000000000000000001673ffffffffffffffffffffffffffffffffffffffff92909216919091179055611fac878787876135c1565b85925050505b949350505050565b73ffffffffffffffffffffffffffffffffffffffff8216612037576040517f08c379a000000000000000000000000000000000000000000000000000000000815260206004820152601f60248201527f4e46542373657443726561746f723a494e56414c49445f414444524553532e006044820152606401610283565b60005b81518110156118d657600082828151811061207e577f4e487b7100000000000000000000000000000000000000000000000000000000600052603260045260246000fd5b602002602001015190506120928482613a0a565b508061209d81615d15565b91505061203a565b73ffffffffffffffffffffffffffffffffffffffff808316600090815260016020908152604080832093851683529290529081205460ff165b9392505050565b6120f76120f06126bc565b84836137f8565b6118d660098484846040518060200160405280600081525030613af7565b61211d6126bc565b73ffffffffffffffffffffffffffffffffffffffff168573ffffffffffffffffffffffffffffffffffffffff16148061215d575061215d856105556126bc565b6121e9576040517f08c379a000000000000000000000000000000000000000000000000000000000815260206004820152602960248201527f455243313135353a2063616c6c6572206973206e6f74206f776e6572206e6f7260448201527f20617070726f76656400000000000000000000000000000000000000000000006064820152608401610283565b610f418585858585613e93565b6121fe6126bc565b73ffffffffffffffffffffffffffffffffffffffff1661223360035473ffffffffffffffffffffffffffffffffffffffff1690565b73ffffffffffffffffffffffffffffffffffffffff16146122b0576040517f08c379a000000000000000000000000000000000000000000000000000000000815260206004820181905260248201527f4f776e61626c653a2063616c6c6572206973206e6f7420746865206f776e65726044820152606401610283565b73ffffffffffffffffffffffffffffffffffffffff8116612353576040517f08c379a000000000000000000000000000000000000000000000000000000000815260206004820152602660248201527f4f776e61626c653a206e6577206f776e657220697320746865207a65726f206160448201527f64647265737300000000000000000000000000000000000000000000000000006064820152608401610283565b61076a816134f5565b6123646126bc565b73ffffffffffffffffffffffffffffffffffffffff168373ffffffffffffffffffffffffffffffffffffffff1614806123a457506123a4836105556126bc565b612430576040517f08c379a000000000000000000000000000000000000000000000000000000000815260206004820152602960248201527f455243313135353a2063616c6c6572206973206e6f74206f776e6572206e6f7260448201527f20617070726f76656400000000000000000000000000000000000000000000006064820152608401610283565b6118d68383836137f8565b6124436126bc565b73ffffffffffffffffffffffffffffffffffffffff1661247860035473ffffffffffffffffffffffffffffffffffffffff1690565b73ffffffffffffffffffffffffffffffffffffffff16146124f5576040517f08c379a000000000000000000000000000000000000000000000000000000000815260206004820181905260248201527f4f776e61626c653a2063616c6c6572206973206e6f7420746865206f776e65726044820152606401610283565b6040517f657cfa2400000000000000000000000000000000000000000000000000000000815273__$58d0c3ffeec18ab7b5a43dd85255f04004$__9063657cfa249061254a9060099086908690600401615b40565b60006040518083038186803b15801561256257600080fd5b505af4158015612576573d6000803e3d6000fd5b505050505050565b60045460009073ffffffffffffffffffffffffffffffffffffffff163314156125ce57507fffffffffffffffffffffffffffffffffffffffffffffffffffffffffffffffec36013560601c6116e1565b50336116e1565b3390565b60007fffffffff0000000000000000000000000000000000000000000000000000000082167fd9b67a2600000000000000000000000000000000000000000000000000000000148061266c57507fffffffff0000000000000000000000000000000000000000000000000000000082167f0e89341c00000000000000000000000000000000000000000000000000000000145b8061069f57507f01ffc9a7000000000000000000000000000000000000000000000000000000007fffffffff0000000000000000000000000000000000000000000000000000000083161461069f565b60006126c661257e565b905090565b8051611c4b906002906020840190614f0e565b336000908152600760205260408120805491908183612726577f4e487b7100000000000000000000000000000000000000000000000000000000600052603260045260246000fd5b6000918252602080832060408051608081018252939091015467ffffffffffffffff80821685526801000000000000000082048116938501939093527001000000000000000000000000000000008104831691840191909152780100000000000000000000000000000000000000000000000090041660608201529150805b85518110156125765760008682815181106127e9577f4e487b7100000000000000000000000000000000000000000000000000000000600052603260045260246000fd5b60200260200101519050600086838151811061282e577f4e487b7100000000000000000000000000000000000000000000000000000000600052603260045260246000fd5b602002602001015190505b846040015167ffffffffffffffff164210806128625750846060015167ffffffffffffffff1642115b806128775750845167ffffffffffffffff1682105b8061288f575081856020015167ffffffffffffffff16105b156129fd5761289f600185615bef565b9350858410612930576040517f08c379a000000000000000000000000000000000000000000000000000000000815260206004820152602260248201527f4e4654235f76616c69646174654d696e74733a49445f4f55545f4f465f52414e60448201527f47450000000000000000000000000000000000000000000000000000000000006064820152608401610283565b336000908152600760205260409020805485908110612978577f4e487b7100000000000000000000000000000000000000000000000000000000600052603260045260246000fd5b600091825260209182902060408051608081018252929091015467ffffffffffffffff808216845268010000000000000000820481169484019490945270010000000000000000000000000000000081048416918301919091527801000000000000000000000000000000000000000000000000900490911660608201529450612839565b50508080612a0a90615d15565b9150506127a5565b73ffffffffffffffffffffffffffffffffffffffff8416612ab5576040517f08c379a000000000000000000000000000000000000000000000000000000000815260206004820152602160248201527f455243313135353a206d696e7420746f20746865207a65726f2061646472657360448201527f73000000000000000000000000000000000000000000000000000000000000006064820152608401610283565b8151835114612b46576040517f08c379a000000000000000000000000000000000000000000000000000000000815260206004820152602860248201527f455243313135353a2069647320616e6420616d6f756e7473206c656e6774682060448201527f6d69736d617463680000000000000000000000000000000000000000000000006064820152608401610283565b6000612b506126bc565b9050612b61816000878787876140de565b60005b8451811015612c6457838181518110612ba6577f4e487b7100000000000000000000000000000000000000000000000000000000600052603260045260246000fd5b6020026020010151600080878481518110612bea577f4e487b7100000000000000000000000000000000000000000000000000000000600052603260045260246000fd5b6020026020010151815260200190815260200160002060008873ffffffffffffffffffffffffffffffffffffffff1673ffffffffffffffffffffffffffffffffffffffff1681526020019081526020016000206000828254612c4c9190615bef565b90915550819050612c5c81615d15565b915050612b64565b508473ffffffffffffffffffffffffffffffffffffffff16600073ffffffffffffffffffffffffffffffffffffffff168273ffffffffffffffffffffffffffffffffffffffff167f4a39dc06d4c0dbc64b70af90fd698a233a518aa5d07e595d983b8c0526c8f7fb8787604051612cdc929190615ac2565b60405180910390a4610f418160008787878761415b565b8151835114612d84576040517f08c379a000000000000000000000000000000000000000000000000000000000815260206004820152602860248201527f455243313135353a2069647320616e6420616d6f756e7473206c656e6774682060448201527f6d69736d617463680000000000000000000000000000000000000000000000006064820152608401610283565b73ffffffffffffffffffffffffffffffffffffffff8416612e27576040517f08c379a000000000000000000000000000000000000000000000000000000000815260206004820152602560248201527f455243313135353a207472616e7366657220746f20746865207a65726f20616460448201527f64726573730000000000000000000000000000000000000000000000000000006064820152608401610283565b6000612e316126bc565b9050612e418187878787876140de565b60005b8451811015612fff576000858281518110612e88577f4e487b7100000000000000000000000000000000000000000000000000000000600052603260045260246000fd5b602002602001015190506000858381518110612ecd577f4e487b7100000000000000000000000000000000000000000000000000000000600052603260045260246000fd5b6020908102919091018101516000848152808352604080822073ffffffffffffffffffffffffffffffffffffffff8e168352909352919091205490915081811015612f9a576040517f08c379a000000000000000000000000000000000000000000000000000000000815260206004820152602a60248201527f455243313135353a20696e73756666696369656e742062616c616e636520666f60448201527f72207472616e73666572000000000000000000000000000000000000000000006064820152608401610283565b60008381526020818152604080832073ffffffffffffffffffffffffffffffffffffffff8e8116855292528083208585039055908b16825281208054849290612fe4908490615bef565b9250508190555050505080612ff890615d15565b9050612e44565b508473ffffffffffffffffffffffffffffffffffffffff168673ffffffffffffffffffffffffffffffffffffffff168273ffffffffffffffffffffffffffffffffffffffff167f4a39dc06d4c0dbc64b70af90fd698a233a518aa5d07e595d983b8c0526c8f7fb8787604051613076929190615ac2565b60405180910390a461257681878787878761415b565b6130946116c2565b6130fa576040517f08c379a000000000000000000000000000000000000000000000000000000000815260206004820152601460248201527f5061757361626c653a206e6f74207061757365640000000000000000000000006044820152606401610283565b600480547fffffffffffffffffffffff00ffffffffffffffffffffffffffffffffffffffff1690557f5db9ee0a495bf2e6ff9c91a7834c1ba4fdd244a5e8aa4e537bd38aeae4b073aa61314b6126bc565b60405173ffffffffffffffffffffffffffffffffffffffff909116815260200160405180910390a1565b73ffffffffffffffffffffffffffffffffffffffff8316613218576040517f08c379a000000000000000000000000000000000000000000000000000000000815260206004820152602360248201527f455243313135353a206275726e2066726f6d20746865207a65726f206164647260448201527f65737300000000000000000000000000000000000000000000000000000000006064820152608401610283565b80518251146132a9576040517f08c379a000000000000000000000000000000000000000000000000000000000815260206004820152602860248201527f455243313135353a2069647320616e6420616d6f756e7473206c656e6774682060448201527f6d69736d617463680000000000000000000000000000000000000000000000006064820152608401610283565b60006132b36126bc565b90506132d3818560008686604051806020016040528060008152506140de565b60005b835181101561346f57600084828151811061331a577f4e487b7100000000000000000000000000000000000000000000000000000000600052603260045260246000fd5b60200260200101519050600084838151811061335f577f4e487b7100000000000000000000000000000000000000000000000000000000600052603260045260246000fd5b6020908102919091018101516000848152808352604080822073ffffffffffffffffffffffffffffffffffffffff8c16835290935291909120549091508181101561342b576040517f08c379a0000000000000000000000000000000000000000000000000000000008152602060048201526024808201527f455243313135353a206275726e20616d6f756e7420657863656564732062616c60448201527f616e6365000000000000000000000000000000000000000000000000000000006064820152608401610283565b60009283526020838152604080852073ffffffffffffffffffffffffffffffffffffffff8b168652909152909220910390558061346781615d15565b9150506132d6565b50600073ffffffffffffffffffffffffffffffffffffffff168473ffffffffffffffffffffffffffffffffffffffff168273ffffffffffffffffffffffffffffffffffffffff167f4a39dc06d4c0dbc64b70af90fd698a233a518aa5d07e595d983b8c0526c8f7fb86866040516134e7929190615ac2565b60405180910390a450505050565b6003805473ffffffffffffffffffffffffffffffffffffffff8381167fffffffffffffffffffffffff0000000000000000000000000000000000000000831681179093556040519116919082907f8be0079c531659141344cd1fd0a4f28419497f9722a3daafe3b4186f6b6457e090600090a35050565b60008173ffffffffffffffffffffffffffffffffffffffff166135a460035473ffffffffffffffffffffffffffffffffffffffff1690565b73ffffffffffffffffffffffffffffffffffffffff161492915050565b610cec848484846143f5565b6135d56116c2565b1561363c576040517f08c379a000000000000000000000000000000000000000000000000000000000815260206004820152601060248201527f5061757361626c653a20706175736564000000000000000000000000000000006044820152606401610283565b600480547fffffffffffffffffffffff00ffffffffffffffffffffffffffffffffffffffff16740100000000000000000000000000000000000000001790557f62e78cea01bee320cd4e420270b5ea74000d11b0c9f74754ebdbfc544b05a25861314b6126bc565b8173ffffffffffffffffffffffffffffffffffffffff168373ffffffffffffffffffffffffffffffffffffffff161415613760576040517f08c379a000000000000000000000000000000000000000000000000000000000815260206004820152602960248201527f455243313135353a2073657474696e6720617070726f76616c2073746174757360448201527f20666f722073656c6600000000000000000000000000000000000000000000006064820152608401610283565b73ffffffffffffffffffffffffffffffffffffffff83811660008181526001602090815260408083209487168084529482529182902080547fffffffffffffffffffffffffffffffffffffffffffffffffffffffffffffff001686151590811790915591519182527f17307eab39ab6107e8899845ad3d59bd9653f200f220920489ca2b5937696c31910160405180910390a3505050565b73ffffffffffffffffffffffffffffffffffffffff831661389b576040517f08c379a000000000000000000000000000000000000000000000000000000000815260206004820152602360248201527f455243313135353a206275726e2066726f6d20746865207a65726f206164647260448201527f65737300000000000000000000000000000000000000000000000000000000006064820152608401610283565b60006138a56126bc565b90506138d5818560006138b78761455e565b6138c08761455e565b604051806020016040528060008152506140de565b60008381526020818152604080832073ffffffffffffffffffffffffffffffffffffffff8816845290915290205482811015613992576040517f08c379a0000000000000000000000000000000000000000000000000000000008152602060048201526024808201527f455243313135353a206275726e20616d6f756e7420657863656564732062616c60448201527f616e6365000000000000000000000000000000000000000000000000000000006064820152608401610283565b60008481526020818152604080832073ffffffffffffffffffffffffffffffffffffffff898116808652918452828520888703905582518981529384018890529092908616917fc3d58168c5ae7397731d063d5bbf3d657854427343f4c083240f7aacaa2d0f62910160405180910390a45050505050565b80613a136126bc565b60008281526006602052604090205473ffffffffffffffffffffffffffffffffffffffff908116911614613aa3576040517f08c379a000000000000000000000000000000000000000000000000000000000815260206004820152601c60248201527f4e46542363726561746f724f6e6c793a4f4e4c595f43524541544f52000000006044820152606401610283565b50600090815260066020526040902080547fffffffffffffffffffffffff00000000000000000000000000000000000000001673ffffffffffffffffffffffffffffffffffffffff92909216919091179055565b85600101548510613b64576040517f08c379a000000000000000000000000000000000000000000000000000000000815260206004820152601360248201527f6f7074696f6e5f6f75745f6f665f72616e6765000000000000000000000000006044820152606401610283565b600085815260038701602090815260408083208151608081018352815481526001820180548451818702810187019095528085529194929385840193909290830182828015613bfa57602002820191906000526020600020906000905b82829054906101000a900461ffff1661ffff1681526020019060020190602082600101049283019260010382029150808411613bc15790505b5050509183525050600282015460ff1615156020808301919091526003830180546040805182850281018501825282815294019392830182828015613c8657602002820191906000526020600020906000905b82829054906101000a900461ffff1661ffff1681526020019060020190602082600101049283019260010382029150808411613c4d5790505b50505050508152505090506000816000015111613d25576040517f08c379a000000000000000000000000000000000000000000000000000000000815260206004820152602a60248201527f4c6f6f74426f7852616e646f6d6e657373235f6d696e743a4f5054494f4e5f4e60448201527f4f545f414c4c4f574544000000000000000000000000000000000000000000006064820152608401610283565b6000805b85811015613e35576000836040015115613dd35760005b846060015151811015613dd157600085606001518281518110613d8c577f4e487b7100000000000000000000000000000000000000000000000000000000600052603260045260246000fd5b602002602001015161ffff1690506000811115613dbe57613db08c838c848b6145d0565b50613dbb8184615bef565b92505b5080613dc981615d15565b915050613d40565b505b8351811015613e15576000600190506000613df28c8760200151614712565b9050613e018c828c858b6145d0565b50613e0c8284615bef565b92505050613dd3565b613e1f8184615bef565b9250508080613e2d90615d15565b915050613d29565b50604080518681526020810183905273ffffffffffffffffffffffffffffffffffffffff88169189917fd8c55eae4f6ffa3dfbfba23f50cb5e242e86d347736fe1b910ad11bff616d839910160405180910390a35050505050505050565b73ffffffffffffffffffffffffffffffffffffffff8416613f36576040517f08c379a000000000000000000000000000000000000000000000000000000000815260206004820152602560248201527f455243313135353a207472616e7366657220746f20746865207a65726f20616460448201527f64726573730000000000000000000000000000000000000000000000000000006064820152608401610283565b6000613f406126bc565b9050613f60818787613f518861455e565b613f5a8861455e565b876140de565b60008481526020818152604080832073ffffffffffffffffffffffffffffffffffffffff8a1684529091529020548381101561401e576040517f08c379a000000000000000000000000000000000000000000000000000000000815260206004820152602a60248201527f455243313135353a20696e73756666696369656e742062616c616e636520666f60448201527f72207472616e73666572000000000000000000000000000000000000000000006064820152608401610283565b60008581526020818152604080832073ffffffffffffffffffffffffffffffffffffffff8b8116855292528083208785039055908816825281208054869290614068908490615bef565b9091555050604080518681526020810186905273ffffffffffffffffffffffffffffffffffffffff808916928a821692918616917fc3d58168c5ae7397731d063d5bbf3d657854427343f4c083240f7aacaa2d0f62910160405180910390a46140d58288888888886147ce565b50505050505050565b6140e66116c2565b1561414d576040517f08c379a000000000000000000000000000000000000000000000000000000000815260206004820152601060248201527f5061757361626c653a20706175736564000000000000000000000000000000006044820152606401610283565b61257686868686868661498a565b73ffffffffffffffffffffffffffffffffffffffff84163b15612576576040517fbc197c8100000000000000000000000000000000000000000000000000000000815273ffffffffffffffffffffffffffffffffffffffff85169063bc197c81906141d29089908990889088908890600401615977565b602060405180830381600087803b1580156141ec57600080fd5b505af192505050801561423a575060408051601f3d9081017fffffffffffffffffffffffffffffffffffffffffffffffffffffffffffffffe016820190925261423791810190615723565b60015b61432457614246615de5565b806308c379a0141561429a575061425b615dfc565b80614266575061429c565b806040517f08c379a00000000000000000000000000000000000000000000000000000000081526004016102839190615af0565b505b6040517f08c379a000000000000000000000000000000000000000000000000000000000815260206004820152603460248201527f455243313135353a207472616e7366657220746f206e6f6e204552433131353560448201527f526563656976657220696d706c656d656e7465720000000000000000000000006064820152608401610283565b7fffffffff0000000000000000000000000000000000000000000000000000000081167fbc197c8100000000000000000000000000000000000000000000000000000000146140d5576040517f08c379a000000000000000000000000000000000000000000000000000000000815260206004820152602860248201527f455243313135353a204552433131353552656365697665722072656a6563746560448201527f6420746f6b656e730000000000000000000000000000000000000000000000006064820152608401610283565b73ffffffffffffffffffffffffffffffffffffffff8416614498576040517f08c379a000000000000000000000000000000000000000000000000000000000815260206004820152602160248201527f455243313135353a206d696e7420746f20746865207a65726f2061646472657360448201527f73000000000000000000000000000000000000000000000000000000000000006064820152608401610283565b60006144a26126bc565b90506144b481600087613f518861455e565b60008481526020818152604080832073ffffffffffffffffffffffffffffffffffffffff89168452909152812080548592906144f1908490615bef565b9091555050604080518581526020810185905273ffffffffffffffffffffffffffffffffffffffff80881692600092918516917fc3d58168c5ae7397731d063d5bbf3d657854427343f4c083240f7aacaa2d0f62910160405180910390a4610f41816000878787876147ce565b604080516001808252818301909252606091600091906020808301908036833701905050905082816000815181106145bf577f4e487b7100000000000000000000000000000000000000000000000000000000600052603260045260246000fd5b602090810291909101015292915050565b60008560020154851061463f576040517f08c379a000000000000000000000000000000000000000000000000000000000815260206004820152601260248201527f636c6173735f6f75745f6f665f72616e676500000000000000000000000000006044820152606401610283565b855473ffffffffffffffffffffffffffffffffffffffff16600061466588888787614b4c565b6040517fc77b66c20000000000000000000000000000000000000000000000000000000081526004810182905273ffffffffffffffffffffffffffffffffffffffff88811660248301526044820188905260806064830152600060848301529192509083169063c77b66c29060a401600060405180830381600087803b1580156146ee57600080fd5b505af1158015614702573d6000803e3d6000fd5b50929a9950505050505050505050565b60008061472a61271061472486614e6d565b90614f02565b905060006001845161473c9190615c2a565b90505b80156147c3576000848281518110614780577f4e487b7100000000000000000000000000000000000000000000000000000000600052603260045260246000fd5b602002602001015190508061ffff168361ffff1610156147a45750915061068e9050565b6147ae8184615c07565b925050806147bb81615c41565b91505061473f565b506000949350505050565b73ffffffffffffffffffffffffffffffffffffffff84163b15612576576040517ff23a6e6100000000000000000000000000000000000000000000000000000000815273ffffffffffffffffffffffffffffffffffffffff85169063f23a6e619061484590899089908890889088906004016159e2565b602060405180830381600087803b15801561485f57600080fd5b505af19250505080156148ad575060408051601f3d9081017fffffffffffffffffffffffffffffffffffffffffffffffffffffffffffffffe01682019092526148aa91810190615723565b60015b6148b957614246615de5565b7fffffffff0000000000000000000000000000000000000000000000000000000081167ff23a6e6100000000000000000000000000000000000000000000000000000000146140d5576040517f08c379a000000000000000000000000000000000000000000000000000000000815260206004820152602860248201527f455243313135353a204552433131353552656365697665722072656a6563746560448201527f6420746f6b656e730000000000000000000000000000000000000000000000006064820152608401610283565b73ffffffffffffffffffffffffffffffffffffffff8516614a6c5760005b8351811015614a6a578281815181106149ea577f4e487b7100000000000000000000000000000000000000000000000000000000600052603260045260246000fd5b602002602001015160056000868481518110614a2f577f4e487b7100000000000000000000000000000000000000000000000000000000600052603260045260246000fd5b602002602001015181526020019081526020016000206000828254614a549190615bef565b90915550614a63905081615d15565b90506149a8565b505b73ffffffffffffffffffffffffffffffffffffffff84166125765760005b83518110156140d557828181518110614acc577f4e487b7100000000000000000000000000000000000000000000000000000000600052603260045260246000fd5b602002602001015160056000868481518110614b11577f4e487b7100000000000000000000000000000000000000000000000000000000600052603260045260246000fd5b602002602001015181526020019081526020016000206000828254614b369190615c2a565b90915550614b45905081615d15565b9050614a8a565b600084600201548410614bbb576040517f08c379a000000000000000000000000000000000000000000000000000000000815260206004820152601260248201527f636c6173735f6f75745f6f665f72616e676500000000000000000000000000006044820152606401610283565b6000848152600486016020908152604080832080548251818502810185019093528083529192909190830182828015614c1357602002820191906000526020600020905b815481526020019060010190808311614bff575b505050505090506000815111614c85576040517f08c379a000000000000000000000000000000000000000000000000000000000815260206004820152601960248201527f4e6f20746f6b656e2069647320666f72205f636c6173734964000000000000006044820152606401610283565b6000614c95825161472489614e6d565b875490915073ffffffffffffffffffffffffffffffffffffffff16815b8351614cbe9084615bef565b811015614de457600084855183614cd59190615d4e565b81518110614d0c577f4e487b7100000000000000000000000000000000000000000000000000000000600052603260045260246000fd5b60209081029190910101516040517efdd58e00000000000000000000000000000000000000000000000000000000815273ffffffffffffffffffffffffffffffffffffffff898116600483015260248201839052919250899185169062fdd58e9060440160206040518083038186803b158015614d8857600080fd5b505afa158015614d9c573d6000803e3d6000fd5b505050506040513d601f19601f82011682018060405250810190614dc0919061579d565b10614dd1579450611fb29350505050565b5080614ddc81615d15565b915050614cb2565b506040517f08c379a000000000000000000000000000000000000000000000000000000000815260206004820152602d60248201527f4c6f6f74426f7852616e646f6d6e657373234e4f545f454e4f5547485f544f4b60448201527f454e535f464f525f434c415353000000000000000000000000000000000000006064820152608401610283565b600080614e7b600143615c2a565b600584015460408051924060208401527fffffffffffffffffffffffffffffffffffffffff0000000000000000000000003360601b16908301526054820152607401604080517fffffffffffffffffffffffffffffffffffffffffffffffffffffffffffffffe0818403018152919052805160209091012060058401819055915050919050565b60006120de8284615d4e565b828054614f1a90615c76565b90600052602060002090601f016020900481019282614f3c5760008555614f82565b82601f10614f5557805160ff1916838001178555614f82565b82800160010185558215614f82579182015b82811115614f82578251825591602001919060010190614f67565b50614f8e929150614f92565b5090565b5b80821115614f8e5760008155600101614f93565b600067ffffffffffffffff831115614fc157614fc1615db6565b604051614ff660207fffffffffffffffffffffffffffffffffffffffffffffffffffffffffffffffe0601f8701160182615cca565b80915083815284848401111561500b57600080fd5b83836020830137600060208583010152509392505050565b803573ffffffffffffffffffffffffffffffffffffffff811681146106a257600080fd5b600082601f830112615057578081fd5b8135602061506482615bcb565b6040516150718282615cca565b8381528281019150858301600585901b87018401881015615090578586fd5b855b858110156150bd57813561ffff811681146150ab578788fd5b84529284019290840190600101615092565b5090979650505050505050565b60008083601f8401126150db578182fd5b50813567ffffffffffffffff8111156150f2578182fd5b6020830191508360208260051b850101111561510d57600080fd5b9250929050565b600082601f830112615124578081fd5b8135602061513182615bcb565b60405161513e8282615cca565b8381528281019150858301600585901b8701840188101561515d578586fd5b855b858110156150bd5781358452928401929084019060010161515f565b600082601f83011261518b578081fd5b6120de83833560208501614fa7565b803567ffffffffffffffff811681146106a257600080fd5b6000602082840312156151c3578081fd5b6120de82615023565b600080604083850312156151de578081fd5b6151e783615023565b91506151f560208401615023565b90509250929050565b600080600080600060a08688031215615215578081fd5b61521e86615023565b945061522c60208701615023565b9350604086013567ffffffffffffffff80821115615248578283fd5b61525489838a01615114565b94506060880135915080821115615269578283fd5b61527589838a01615114565b9350608088013591508082111561528a578283fd5b506152978882890161517b565b9150509295509295909350565b600080600080600060a086880312156152bb578081fd5b6152c486615023565b94506152d260208701615023565b93506040860135925060608601359150608086013567ffffffffffffffff8111156152fb578182fd5b6152978882890161517b565b60008060408385031215615319578182fd5b61532283615023565b9150602083013567ffffffffffffffff81111561533d578182fd5b61534985828601615114565b9150509250929050565b600080600060608486031215615367578081fd5b61537084615023565b9250602084013567ffffffffffffffff8082111561538c578283fd5b61539887838801615114565b935060408601359150808211156153ad578283fd5b506153ba86828701615114565b9150509250925092565b600080600080608085870312156153d9578182fd5b6153e285615023565b9350602085013567ffffffffffffffff808211156153fe578384fd5b61540a88838901615114565b9450604087013591508082111561541f578384fd5b61542b88838901615114565b93506060870135915080821115615440578283fd5b5061544d8782880161517b565b91505092959194509250565b6000806040838503121561546b578182fd5b61547483615023565b915060208301358015158114615488578182fd5b809150509250929050565b600080604083850312156154a5578182fd5b6154ae83615023565b946020939093013593505050565b6000806000606084860312156154d0578081fd5b6154d984615023565b95602085013595506040909401359392505050565b60008060008060808587031215615503578182fd5b61550c85615023565b93506020850135925060408501359150606085013567ffffffffffffffff811115615535578182fd5b61544d8782880161517b565b60008060008060808587031215615556578182fd5b61555f85615023565b966020860135965060408601359560600135945092505050565b600080600080600060a08688031215615590578283fd5b61559986615023565b94506155a76020870161519a565b93506155b56040870161519a565b92506155c36060870161519a565b91506155d16080870161519a565b90509295509295909350565b600080604083850312156155ef578182fd5b823567ffffffffffffffff80821115615606578384fd5b818501915085601f830112615619578384fd5b8135602061562682615bcb565b6040516156338282615cca565b8381528281019150858301600585901b870184018b1015615652578889fd5b8896505b8487101561567b5761566781615023565b835260019690960195918301918301615656565b5096505086013592505080821115615691578283fd5b5061534985828601615114565b600080600080604085870312156156b3578182fd5b843567ffffffffffffffff808211156156ca578384fd5b6156d6888389016150ca565b909650945060208701359150808211156156ee578384fd5b506156fb878288016150ca565b95989497509550505050565b600060208284031215615718578081fd5b81356120de81615eac565b600060208284031215615734578081fd5b81516120de81615eac565b600060208284031215615750578081fd5b813567ffffffffffffffff811115615766578182fd5b8201601f81018413615776578182fd5b611fb284823560208401614fa7565b600060208284031215615796578081fd5b5035919050565b6000602082840312156157ae578081fd5b5051919050565b6000806000606084860312156157c9578081fd5b833592506157d960208501615023565b9150604084013590509250925092565b600080604083850312156157fb578182fd5b82359150602083013567ffffffffffffffff81111561533d578182fd5b6000806040838503121561582a578182fd5b50508035926020909101359150565b6000806000806080858703121561584e578182fd5b8435935060208501359250604085013567ffffffffffffffff80821115615873578384fd5b61587f88838901615047565b93506060870135915080821115615894578283fd5b5061544d87828801615047565b6000815180845260208085019450808401835b838110156158d457815161ffff16875295820195908201906001016158b4565b509495945050505050565b6000815180845260208085019450808401835b838110156158d4578151875295820195908201906001016158f2565b60008151808452815b8181101561593357602081850181015186830182015201615917565b818111156159445782602083870101525b50601f017fffffffffffffffffffffffffffffffffffffffffffffffffffffffffffffffe0169290920160200192915050565b600073ffffffffffffffffffffffffffffffffffffffff808816835280871660208401525060a060408301526159b060a08301866158df565b82810360608401526159c281866158df565b905082810360808401526159d6818561590e565b98975050505050505050565b600073ffffffffffffffffffffffffffffffffffffffff808816835280871660208401525084604083015283606083015260a06080830152615a2760a083018461590e565b979650505050505050565b6020808252825182820181905260009190848201906040850190845b81811015615aa357615a90838551805167ffffffffffffffff908116835260208083015182169084015260408083015182169084015260609182015116910152565b9284019260809290920191600101615a4e565b50909695505050505050565b6000602082526120de60208301846158df565b600060408252615ad560408301856158df565b8281036020840152615ae781856158df565b95945050505050565b6000602082526120de602083018461590e565b6080810161068e8284805167ffffffffffffffff908116835260208083015182169084015260408083015182169084015260609182015116910152565b60006060820185835260208581850152606060408501528185518084526080860191508287019350845b81811015615b8657845183529383019391830191600101615b6a565b509098975050505050505050565b600086825285602083015284604083015260a06060830152615bb960a08301856158a1565b82810360808401526159d681856158a1565b600067ffffffffffffffff821115615be557615be5615db6565b5060051b60200190565b60008219821115615c0257615c02615d87565b500190565b600061ffff83811690831681811015615c2257615c22615d87565b039392505050565b600082821015615c3c57615c3c615d87565b500390565b600081615c5057615c50615d87565b507fffffffffffffffffffffffffffffffffffffffffffffffffffffffffffffffff0190565b600181811c90821680615c8a57607f821691505b60208210811415615cc4577f4e487b7100000000000000000000000000000000000000000000000000000000600052602260045260246000fd5b50919050565b7fffffffffffffffffffffffffffffffffffffffffffffffffffffffffffffffe0601f830116810181811067ffffffffffffffff82111715615d0e57615d0e615db6565b6040525050565b60007fffffffffffffffffffffffffffffffffffffffffffffffffffffffffffffffff821415615d4757615d47615d87565b5060010190565b600082615d82577f4e487b710000000000000000000000000000000000000000000000000000000081526012600452602481fd5b500690565b7f4e487b7100000000000000000000000000000000000000000000000000000000600052601160045260246000fd5b7f4e487b7100000000000000000000000000000000000000000000000000000000600052604160045260246000fd5b600060033d11156116e157600481823e5160e01c90565b600060443d1015615e0c576116e1565b6040517ffffffffffffffffffffffffffffffffffffffffffffffffffffffffffffffffc803d016004833e81513d67ffffffffffffffff8160248401118184111715615e5c5750505050506116e1565b8285019150815181811115615e76575050505050506116e1565b843d8701016020828501011115615e92575050505050506116e1565b615ea160208286010187615cca565b509094505050505090565b7fffffffff000000000000000000000000000000000000000000000000000000008116811461076a57600080fdfea2646970667358221220797d3f50e3f0333fdedf7aff79be6bf2ff382aed3121a2a7466d961827b28a3a64736f6c63430008030033",
  "linkReferences": {
    "contracts/nft/lootBox/LootBoxRandomness.sol": {
      "LootBoxRandomness": [
        {
          "length": 20,
          "start": 4372
        },
        {
          "length": 20,
          "start": 6862
        },
        {
          "length": 20,
          "start": 10277
        }
      ]
    }
  },
  "deployedLinkReferences": {
    "contracts/nft/lootBox/LootBoxRandomness.sol": {
      "LootBoxRandomness": [
        {
          "length": 20,
          "start": 3596
        },
        {
          "length": 20,
          "start": 6086
        },
        {
          "length": 20,
          "start": 9501
        }
      ]
    }
  }
}