{
  "_format": "hh-sol-artifact-1",
  "contractName": "CreatureAccessoryFactory",
  "sourceName": "contracts/nft/tokens/CreatureAccessoryFactory.sol",
  "abi": [
    {
      "inputs": [
        {
          "internalType": "address",
          "name": "_nftAddress",
          "type": "address"
        },
        {
          "internalType": "address",
          "name": "_lootBoxAddress",
          "type": "address"
        }
      ],
      "stateMutability": "nonpayable",
      "type": "constructor"
    },
    {
      "anonymous": false,
      "inputs": [
        {
          "indexed": true,
          "internalType": "address",
          "name": "factory",
          "type": "address"
        }
      ],
      "name": "FactoryActivation",
      "type": "event"
    },
    {
      "anonymous": false,
      "inputs": [
        {
          "indexed": true,
          "internalType": "address",
          "name": "factory",
          "type": "address"
        }
      ],
      "name": "FactoryShutdown",
      "type": "event"
    },
    {
      "anonymous": false,
      "inputs": [
        {
          "indexed": true,
          "internalType": "address",
          "name": "factory",
          "type": "address"
        },
        {
          "components": [
            {
              "internalType": "uint64",
              "name": "minID",
              "type": "uint64"
            },
            {
              "internalType": "uint64",
              "name": "maxID",
              "type": "uint64"
            },
            {
              "internalType": "uint64",
              "name": "startTime",
              "type": "uint64"
            },
            {
              "internalType": "uint64",
              "name": "endTime",
              "type": "uint64"
            }
          ],
          "indexed": false,
          "internalType": "struct AssetRangeStruct.AssetRange",
          "name": "new_range",
          "type": "tuple"
        }
      ],
      "name": "MintPermissionAdded",
      "type": "event"
    },
    {
      "anonymous": false,
      "inputs": [
        {
          "indexed": true,
          "internalType": "address",
          "name": "factory",
          "type": "address"
        },
        {
          "components": [
            {
              "internalType": "uint64",
              "name": "minID",
              "type": "uint64"
            },
            {
              "internalType": "uint64",
              "name": "maxID",
              "type": "uint64"
            },
            {
              "internalType": "uint64",
              "name": "startTime",
              "type": "uint64"
            },
            {
              "internalType": "uint64",
              "name": "endTime",
              "type": "uint64"
            }
          ],
          "indexed": false,
          "internalType": "struct AssetRangeStruct.AssetRange",
          "name": "deleted_range",
          "type": "tuple"
        }
      ],
      "name": "MintPermissionRemoved",
      "type": "event"
    },
    {
      "anonymous": false,
      "inputs": [
        {
          "indexed": true,
          "internalType": "address",
          "name": "previousOwner",
          "type": "address"
        },
        {
          "indexed": true,
          "internalType": "address",
          "name": "newOwner",
          "type": "address"
        }
      ],
      "name": "OwnershipTransferred",
      "type": "event"
    },
    {
      "anonymous": false,
      "inputs": [
        {
          "indexed": true,
          "internalType": "bytes32",
          "name": "role",
          "type": "bytes32"
        },
        {
          "indexed": true,
          "internalType": "bytes32",
          "name": "previousAdminRole",
          "type": "bytes32"
        },
        {
          "indexed": true,
          "internalType": "bytes32",
          "name": "newAdminRole",
          "type": "bytes32"
        }
      ],
      "name": "RoleAdminChanged",
      "type": "event"
    },
    {
      "anonymous": false,
      "inputs": [
        {
          "indexed": true,
          "internalType": "bytes32",
          "name": "role",
          "type": "bytes32"
        },
        {
          "indexed": true,
          "internalType": "address",
          "name": "account",
          "type": "address"
        },
        {
          "indexed": true,
          "internalType": "address",
          "name": "sender",
          "type": "address"
        }
      ],
      "name": "RoleGranted",
      "type": "event"
    },
    {
      "anonymous": false,
      "inputs": [
        {
          "indexed": true,
          "internalType": "bytes32",
          "name": "role",
          "type": "bytes32"
        },
        {
          "indexed": true,
          "internalType": "address",
          "name": "account",
          "type": "address"
        },
        {
          "indexed": true,
          "internalType": "address",
          "name": "sender",
          "type": "address"
        }
      ],
      "name": "RoleRevoked",
      "type": "event"
    },
    {
      "stateMutability": "nonpayable",
      "type": "fallback"
    },
    {
      "inputs": [],
      "name": "BASIC_LOOTBOX",
      "outputs": [
        {
          "internalType": "uint256",
          "name": "",
          "type": "uint256"
        }
      ],
      "stateMutability": "view",
      "type": "function"
    },
    {
      "inputs": [],
      "name": "DEFAULT_ADMIN_ROLE",
      "outputs": [
        {
          "internalType": "bytes32",
          "name": "",
          "type": "bytes32"
        }
      ],
      "stateMutability": "view",
      "type": "function"
    },
    {
      "inputs": [],
      "name": "GOLD_LOOTBOX",
      "outputs": [
        {
          "internalType": "uint256",
          "name": "",
          "type": "uint256"
        }
      ],
      "stateMutability": "view",
      "type": "function"
    },
    {
      "inputs": [],
      "name": "NUM_LOOTBOX_OPTIONS",
      "outputs": [
        {
          "internalType": "uint256",
          "name": "",
          "type": "uint256"
        }
      ],
      "stateMutability": "view",
      "type": "function"
    },
    {
      "inputs": [],
      "name": "NUM_OPTIONS",
      "outputs": [
        {
          "internalType": "uint256",
          "name": "",
          "type": "uint256"
        }
      ],
      "stateMutability": "view",
      "type": "function"
    },
    {
      "inputs": [],
      "name": "PREMIUM_LOOTBOX",
      "outputs": [
        {
          "internalType": "uint256",
          "name": "",
          "type": "uint256"
        }
      ],
      "stateMutability": "view",
      "type": "function"
    },
    {
      "inputs": [
        {
          "internalType": "address",
          "name": "_factory",
          "type": "address"
        },
        {
          "internalType": "uint64",
          "name": "_minRange",
          "type": "uint64"
        },
        {
          "internalType": "uint64",
          "name": "_maxRange",
          "type": "uint64"
        },
        {
          "internalType": "uint64",
          "name": "_startTime",
          "type": "uint64"
        },
        {
          "internalType": "uint64",
          "name": "_endTime",
          "type": "uint64"
        }
      ],
      "name": "addMintPermission",
      "outputs": [],
      "stateMutability": "nonpayable",
      "type": "function"
    },
    {
      "inputs": [
        {
          "internalType": "address",
          "name": "_owner",
          "type": "address"
        },
        {
          "internalType": "uint256",
          "name": "_optionId",
          "type": "uint256"
        }
      ],
      "name": "balanceOf",
      "outputs": [
        {
          "internalType": "uint256",
          "name": "",
          "type": "uint256"
        }
      ],
      "stateMutability": "view",
      "type": "function"
    },
    {
      "inputs": [
        {
          "internalType": "uint256",
          "name": "_id",
          "type": "uint256"
        },
        {
          "internalType": "uint256",
          "name": "_amount",
          "type": "uint256"
        }
      ],
      "name": "burn",
      "outputs": [],
      "stateMutability": "nonpayable",
      "type": "function"
    },
    {
      "inputs": [
        {
          "internalType": "uint256[]",
          "name": "_ids",
          "type": "uint256[]"
        },
        {
          "internalType": "uint256[]",
          "name": "_amounts",
          "type": "uint256[]"
        }
      ],
      "name": "burnBatch",
      "outputs": [],
      "stateMutability": "nonpayable",
      "type": "function"
    },
    {
      "inputs": [
        {
          "internalType": "uint256",
          "name": "_optionId",
          "type": "uint256"
        },
        {
          "internalType": "uint256",
          "name": "_amount",
          "type": "uint256"
        }
      ],
      "name": "canMint",
      "outputs": [
        {
          "internalType": "bool",
          "name": "",
          "type": "bool"
        }
      ],
      "stateMutability": "view",
      "type": "function"
    },
    {
      "inputs": [],
      "name": "factorySchemaName",
      "outputs": [
        {
          "internalType": "string",
          "name": "",
          "type": "string"
        }
      ],
      "stateMutability": "pure",
      "type": "function"
    },
    {
      "inputs": [
        {
          "internalType": "bytes32",
          "name": "role",
          "type": "bytes32"
        }
      ],
      "name": "getRoleAdmin",
      "outputs": [
        {
          "internalType": "bytes32",
          "name": "",
          "type": "bytes32"
        }
      ],
      "stateMutability": "view",
      "type": "function"
    },
    {
      "inputs": [
        {
          "internalType": "bytes32",
          "name": "role",
          "type": "bytes32"
        },
        {
          "internalType": "uint256",
          "name": "index",
          "type": "uint256"
        }
      ],
      "name": "getRoleMember",
      "outputs": [
        {
          "internalType": "address",
          "name": "",
          "type": "address"
        }
      ],
      "stateMutability": "view",
      "type": "function"
    },
    {
      "inputs": [
        {
          "internalType": "bytes32",
          "name": "role",
          "type": "bytes32"
        }
      ],
      "name": "getRoleMemberCount",
      "outputs": [
        {
          "internalType": "uint256",
          "name": "",
          "type": "uint256"
        }
      ],
      "stateMutability": "view",
      "type": "function"
    },
    {
      "inputs": [
        {
          "internalType": "bytes32",
          "name": "role",
          "type": "bytes32"
        },
        {
          "internalType": "address",
          "name": "account",
          "type": "address"
        }
      ],
      "name": "grantRole",
      "outputs": [],
      "stateMutability": "nonpayable",
      "type": "function"
    },
    {
      "inputs": [
        {
          "internalType": "bytes32",
          "name": "role",
          "type": "bytes32"
        },
        {
          "internalType": "address",
          "name": "account",
          "type": "address"
        }
      ],
      "name": "hasRole",
      "outputs": [
        {
          "internalType": "bool",
          "name": "",
          "type": "bool"
        }
      ],
      "stateMutability": "view",
      "type": "function"
    },
    {
      "inputs": [],
      "name": "lootBoxAddress",
      "outputs": [
        {
          "internalType": "address",
          "name": "",
          "type": "address"
        }
      ],
      "stateMutability": "view",
      "type": "function"
    },
    {
      "inputs": [
        {
          "internalType": "address",
          "name": "_toAddress",
          "type": "address"
        },
        {
          "internalType": "uint256",
          "name": "_optionId",
          "type": "uint256"
        },
        {
          "internalType": "uint256",
          "name": "_amount",
          "type": "uint256"
        },
        {
          "internalType": "bytes",
          "name": "_data",
          "type": "bytes"
        }
      ],
      "name": "mint",
      "outputs": [],
      "stateMutability": "nonpayable",
      "type": "function"
    },
    {
      "inputs": [
        {
          "internalType": "address",
          "name": "_to",
          "type": "address"
        },
        {
          "internalType": "uint256[]",
          "name": "_ids",
          "type": "uint256[]"
        },
        {
          "internalType": "uint256[]",
          "name": "_amounts",
          "type": "uint256[]"
        },
        {
          "internalType": "bytes",
          "name": "_data",
          "type": "bytes"
        }
      ],
      "name": "mintBatch",
      "outputs": [],
      "stateMutability": "nonpayable",
      "type": "function"
    },
    {
      "inputs": [
        {
          "internalType": "bytes[]",
          "name": "data",
          "type": "bytes[]"
        }
      ],
      "name": "multicall",
      "outputs": [
        {
          "internalType": "bytes[]",
          "name": "results",
          "type": "bytes[]"
        }
      ],
      "stateMutability": "nonpayable",
      "type": "function"
    },
    {
      "inputs": [],
      "name": "name",
      "outputs": [
        {
          "internalType": "string",
          "name": "",
          "type": "string"
        }
      ],
      "stateMutability": "pure",
      "type": "function"
    },
    {
      "inputs": [],
      "name": "nftAddress",
      "outputs": [
        {
          "internalType": "address",
          "name": "",
          "type": "address"
        }
      ],
      "stateMutability": "view",
      "type": "function"
    },
    {
      "inputs": [],
      "name": "numOptions",
      "outputs": [
        {
          "internalType": "uint256",
          "name": "",
          "type": "uint256"
        }
      ],
      "stateMutability": "pure",
      "type": "function"
    },
    {
      "inputs": [],
      "name": "owner",
      "outputs": [
        {
          "internalType": "address",
          "name": "",
          "type": "address"
        }
      ],
      "stateMutability": "view",
      "type": "function"
    },
    {
      "inputs": [],
      "name": "proxyRegistryAddress",
      "outputs": [
        {
          "internalType": "address",
          "name": "",
          "type": "address"
        }
      ],
      "stateMutability": "view",
      "type": "function"
    },
    {
      "inputs": [
        {
          "internalType": "address",
          "name": "_factory",
          "type": "address"
        },
        {
          "internalType": "uint256",
          "name": "_rangeIndex",
          "type": "uint256"
        }
      ],
      "name": "removeMintPermission",
      "outputs": [],
      "stateMutability": "nonpayable",
      "type": "function"
    },
    {
      "inputs": [],
      "name": "renounceOwnership",
      "outputs": [],
      "stateMutability": "nonpayable",
      "type": "function"
    },
    {
      "inputs": [
        {
          "internalType": "bytes32",
          "name": "role",
          "type": "bytes32"
        },
        {
          "internalType": "address",
          "name": "account",
          "type": "address"
        }
      ],
      "name": "renounceRole",
      "outputs": [],
      "stateMutability": "nonpayable",
      "type": "function"
    },
    {
      "inputs": [
        {
          "internalType": "bytes32",
          "name": "role",
          "type": "bytes32"
        },
        {
          "internalType": "address",
          "name": "account",
          "type": "address"
        }
      ],
      "name": "revokeRole",
      "outputs": [],
      "stateMutability": "nonpayable",
      "type": "function"
    },
    {
      "inputs": [],
      "name": "supportsFactoryInterface",
      "outputs": [
        {
          "internalType": "bool",
          "name": "",
          "type": "bool"
        }
      ],
      "stateMutability": "pure",
      "type": "function"
    },
    {
      "inputs": [
        {
          "internalType": "bytes4",
          "name": "interfaceId",
          "type": "bytes4"
        }
      ],
      "name": "supportsInterface",
      "outputs": [
        {
          "internalType": "bool",
          "name": "",
          "type": "bool"
        }
      ],
      "stateMutability": "view",
      "type": "function"
    },
    {
      "inputs": [],
      "name": "symbol",
      "outputs": [
        {
          "internalType": "string",
          "name": "",
          "type": "string"
        }
      ],
      "stateMutability": "pure",
      "type": "function"
    },
    {
      "inputs": [
        {
          "internalType": "address",
          "name": "newOwner",
          "type": "address"
        }
      ],
      "name": "transferOwnership",
      "outputs": [],
      "stateMutability": "nonpayable",
      "type": "function"
    },
    {
      "inputs": [
        {
          "internalType": "uint256",
          "name": "_optionId",
          "type": "uint256"
        }
      ],
      "name": "uri",
      "outputs": [
        {
          "internalType": "string",
          "name": "",
          "type": "string"
        }
      ],
      "stateMutability": "pure",
      "type": "function"
    }
  ],
  "bytecode": "0x60806040523480156200001157600080fd5b50604051620036fd380380620036fd833981016040819052620000349162000139565b6200003f336200009a565b600180556005805473ffffffffffffffffffffffffffffffffffffffff9384167fffffffffffffffffffffffff0000000000000000000000000000000000000000918216179091556006805492909316911617905562000170565b6000805473ffffffffffffffffffffffffffffffffffffffff8381167fffffffffffffffffffffffff0000000000000000000000000000000000000000831681178455604051919092169283917f8be0079c531659141344cd1fd0a4f28419497f9722a3daafe3b4186f6b6457e09190a35050565b805173ffffffffffffffffffffffffffffffffffffffff811681146200013457600080fd5b919050565b600080604083850312156200014c578182fd5b62000157836200010f565b915062000167602084016200010f565b90509250929050565b61357d80620001806000396000f3fe608060405234801561001057600080fd5b50600436106102405760003560e01c8063731133e911610145578063ac9650d8116100bd578063ca15c8731161008c578063d547741f11610071578063d547741f146105c8578063f21af56d146105db578063f2fde38b146105e357610240565b8063ca15c87314610595578063cd7c0326146105a857610240565b8063ac9650d814610553578063b390c0ab14610573578063c0cdf20f14610586578063c311c5231461058e57610240565b80639010d07c1161011457806395d89b41116100f957806395d89b411461050a578063a01d9ee414610543578063a217fddf1461054b57610240565b80639010d07c146104b157806391d14854146104c457610240565b8063731133e91461044d57806383ca4b6f146104605780638531b06b146104735780638da5cb5b1461049357610240565b80632f2ff15d116101d857806345df5787116101a757806350c9b4361161018c57806350c9b436146103f85780635bf8633a14610400578063715018a61461044557610240565b806345df5787146103b75780634b97aed9146103f057610240565b80632f2ff15d1461037657806336568abe146103895780633db62e2c1461039c578063458d2844146103a457610240565b80630e89341c116102145780630e89341c1461031a5780631f7fdffa1461032d57806322e1dea914610340578063248a9ca31461035357610240565b8062fdd58e146102a757806301ffc9a7146102cd57806306fdde03146102f057806307800c9b14610305575b6040517f08c379a000000000000000000000000000000000000000000000000000000000815260206004820152601260248201527f554e535550504f525445445f4d4554484f44000000000000000000000000000060448201526064015b60405180910390fd5b6102ba6102b5366004612cdd565b6105f6565b6040519081526020015b60405180910390f35b6102e06102db366004612f26565b61082d565b60405190151581526020016102c4565b6102f861088b565b6040516102c4919061329f565b610318610313366004612d95565b6108ab565b005b6102f8610328366004612ec2565b610d9c565b61031861033b366004612bb1565b610e04565b6102e061034e366004612f05565b611058565b6102ba610361366004612ec2565b60009081526002602052604090206001015490565b610318610384366004612eda565b61106d565b610318610397366004612eda565b611099565b6102ba61114c565b6103186103b2366004612cdd565b61115b565b60408051808201909152600b81527f4d65746163616e614e465400000000000000000000000000000000000000000060208201526102f8565b6102ba6111dc565b6102ba6111ef565b6005546104209073ffffffffffffffffffffffffffffffffffffffff1681565b60405173ffffffffffffffffffffffffffffffffffffffff90911681526020016102c4565b6103186111fb565b61031861045b366004612d06565b611288565b61031861046e366004612e39565b61134a565b6006546104209073ffffffffffffffffffffffffffffffffffffffff1681565b60005473ffffffffffffffffffffffffffffffffffffffff16610420565b6104206104bf366004612f05565b611555565b6102e06104d2366004612eda565b600091825260026020908152604080842073ffffffffffffffffffffffffffffffffffffffff93909316845291905290205460ff1690565b60408051808201909152600881527f4d65746163616e6100000000000000000000000000000000000000000000000060208201526102f8565b6102ba600381565b6102ba600081565b610566610561366004612df9565b61156d565b6040516102c491906131f9565b610318610581366004612f05565b6116d7565b6102ba611804565b60016102e0565b6102ba6105a3366004612ec2565b611810565b6004546104209073ffffffffffffffffffffffffffffffffffffffff1681565b6103186105d6366004612eda565b611827565b6102ba61184d565b6103186105f1366004612b97565b611859565b6000600682101561072b5761060a83611989565b158015610632575060065473ffffffffffffffffffffffffffffffffffffffff848116911614155b1561063f57506000610827565b60055473ffffffffffffffffffffffffffffffffffffffff1660008162fdd58e61067e60005473ffffffffffffffffffffffffffffffffffffffff1690565b6040517fffffffff0000000000000000000000000000000000000000000000000000000060e084901b16815273ffffffffffffffffffffffffffffffffffffffff90911660048201526024810187905260440160206040518083038186803b1580156106e957600080fd5b505afa1580156106fd573d6000803e3d6000fd5b505050506040513d601f19601f820116820180604052508101906107219190612f66565b9250610827915050565b61073483611989565b61074057506000610827565b600061074d6006846133aa565b6006546040517fbd85b0390000000000000000000000000000000000000000000000000000000081526004810183905291925073ffffffffffffffffffffffffffffffffffffffff1690600090829063bd85b0399060240160206040518083038186803b1580156107bd57600080fd5b505afa1580156107d1573d6000803e3d6000fd5b505050506040513d601f19601f820116820180604052508101906107f59190612f66565b90506108217fffffffffffffffffffffffffffffffffffffffffffffffffffffffffffffffff826119de565b93505050505b92915050565b60007fffffffff0000000000000000000000000000000000000000000000000000000082167f5a05180f0000000000000000000000000000000000000000000000000000000014806108835750610883826119ea565b90505b919050565b606060405180606001604052806024815260200161352460249139905090565b60005473ffffffffffffffffffffffffffffffffffffffff16331461092c576040517f08c379a000000000000000000000000000000000000000000000000000000000815260206004820181905260248201527f4f776e61626c653a2063616c6c6572206973206e6f7420746865206f776e6572604482015260640161029e565b60008367ffffffffffffffff16116109c6576040517f08c379a000000000000000000000000000000000000000000000000000000000815260206004820152602960248201527f4d65746163616e614e4654236164644d696e745065726d697373696f6e3a204e60448201527f554c4c5f52414e47450000000000000000000000000000000000000000000000606482015260840161029e565b8267ffffffffffffffff168467ffffffffffffffff161115610a6a576040517f08c379a000000000000000000000000000000000000000000000000000000000815260206004820152602c60248201527f4d65746163616e614e4654236164644d696e745065726d697373696f6e3a204960448201527f4e56414c49445f52414e47450000000000000000000000000000000000000000606482015260840161029e565b60068367ffffffffffffffff161080610a8e57508367ffffffffffffffff16600611155b610b40576040517f08c379a000000000000000000000000000000000000000000000000000000000815260206004820152604160248201527f4d65746163616e614e4654236164644d696e745065726d697373696f6e3a204f60448201527f5645524c41505f4245545745454e5f424f585f414e445f4954454d5f52414e4760648201527f4500000000000000000000000000000000000000000000000000000000000000608482015260a40161029e565b8067ffffffffffffffff168267ffffffffffffffff1610610c09576040517f08c379a000000000000000000000000000000000000000000000000000000000815260206004820152604560248201527f4d65746163616e614e4654236164644d696e745065726d697373696f6e3a205360448201527f544152545f54494d455f49535f4e4f545f4c45535345525f5448454e5f454e4460648201527f5f54494d45000000000000000000000000000000000000000000000000000000608482015260a40161029e565b60068367ffffffffffffffff161015610cd1576005546040517f07800c9b00000000000000000000000000000000000000000000000000000000815273ffffffffffffffffffffffffffffffffffffffff878116600483015267ffffffffffffffff808816602484015280871660448401528086166064840152841660848301529091169081906307800c9b9060a401600060405180830381600087803b158015610cb357600080fd5b505af1158015610cc7573d6000803e3d6000fd5b5050505050610d95565b8367ffffffffffffffff16600611610d95576006546040517f07800c9b00000000000000000000000000000000000000000000000000000000815273ffffffffffffffffffffffffffffffffffffffff878116600483015267ffffffffffffffff808816602484015280871660448401528086166064840152841660848301529091169081906307800c9b9060a4015b600060405180830381600087803b158015610d7b57600080fd5b505af1158015610d8f573d6000803e3d6000fd5b50505050505b5050505050565b60606040518060400160405280601e81526020017f68747470733a2f2f61737365742e6d65746163616e612e696f2f6170692f0000815250610ddd83611a81565b604051602001610dee929190613031565b6040516020818303038152906040529050919050565b6000805b85811015610e77576006878783818110610e4b577f4e487b7100000000000000000000000000000000000000000000000000000000600052603260045260246000fd5b9050602002013510610e6557610e626001836133aa565b91505b80610e6f81613422565b915050610e08565b508015610fb95760055473ffffffffffffffffffffffffffffffffffffffff1680631f7fdffa89610eab8560008b8d613315565b610eb88760008b8d613315565b896040518763ffffffff1660e01b8152600401610eda9695949392919061315a565b600060405180830381600087803b158015610ef457600080fd5b505af1158015610f08573d6000803e3d6000fd5b505060065473ffffffffffffffffffffffffffffffffffffffff169150819050631f7fdffa8a8a8a610f3b886001613341565b610f46928290613315565b8a8a610f538a6001613341565b610f5e928290613315565b8a6040518763ffffffff1660e01b8152600401610f809695949392919061315a565b600060405180830381600087803b158015610f9a57600080fd5b505af1158015610fae573d6000803e3d6000fd5b50505050505061104f565b6006546040517f1f7fdffa00000000000000000000000000000000000000000000000000000000815273ffffffffffffffffffffffffffffffffffffffff909116908190631f7fdffa9061101b908b908b908b908b908b908b9060040161315a565b600060405180830381600087803b15801561103557600080fd5b505af1158015611049573d6000803e3d6000fd5b50505050505b50505050505050565b6000611066335b8484611c0a565b9392505050565b60008281526002602052604090206001015461108a81335b611c2b565b6110948383611cfd565b505050565b73ffffffffffffffffffffffffffffffffffffffff8116331461113e576040517f08c379a000000000000000000000000000000000000000000000000000000000815260206004820152602f60248201527f416363657373436f6e74726f6c3a2063616e206f6e6c792072656e6f756e636560448201527f20726f6c657320666f722073656c660000000000000000000000000000000000606482015260840161029e565b6111488282611d1f565b5050565b61115860036006613341565b81565b60005473ffffffffffffffffffffffffffffffffffffffff163314611148576040517f08c379a000000000000000000000000000000000000000000000000000000000815260206004820181905260248201527f4f776e61626c653a2063616c6c6572206973206e6f7420746865206f776e6572604482015260640161029e565b60006111ea60066003613341565b905090565b61115860066002613341565b60005473ffffffffffffffffffffffffffffffffffffffff16331461127c576040517f08c379a000000000000000000000000000000000000000000000000000000000815260206004820181905260248201527f4f776e61626c653a2063616c6c6572206973206e6f7420746865206f776e6572604482015260640161029e565b6112866000611d41565b565b600260015414156112f5576040517f08c379a000000000000000000000000000000000000000000000000000000000815260206004820152601f60248201527f5265656e7472616e637947756172643a207265656e7472616e742063616c6c00604482015260640161029e565b600260018190555061133f85858585858080601f016020809104026020016040519081016040528093929190818152602001838380828437600092019190915250611db692505050565b505060018055505050565b6000805b848110156113bd576006868683818110611391577f4e487b7100000000000000000000000000000000000000000000000000000000600052603260045260246000fd5b90506020020135106113ab576113a86001836133aa565b91505b806113b581613422565b91505061134e565b5080156114f75760055473ffffffffffffffffffffffffffffffffffffffff16806383ca4b6f6113f0846000898b613315565b6113fd866000898b613315565b6040518563ffffffff1660e01b815260040161141c9493929190613278565b600060405180830381600087803b15801561143657600080fd5b505af115801561144a573d6000803e3d6000fd5b505060065473ffffffffffffffffffffffffffffffffffffffff1691508190506383ca4b6f888861147c876001613341565b611487928290613315565b8888611494896001613341565b61149f928290613315565b6040518563ffffffff1660e01b81526004016114be9493929190613278565b600060405180830381600087803b1580156114d857600080fd5b505af11580156114ec573d6000803e3d6000fd5b505050505050610d95565b6006546040517f83ca4b6f00000000000000000000000000000000000000000000000000000000815273ffffffffffffffffffffffffffffffffffffffff9091169081906383ca4b6f90610d61908990899089908990600401613278565b600082815260036020526040812061106690836120bc565b60608167ffffffffffffffff8111156115af577f4e487b7100000000000000000000000000000000000000000000000000000000600052604160045260246000fd5b6040519080825280602002602001820160405280156115e257816020015b60608152602001906001900390816115cd5790505b50905060005b828110156116d0576116793085858481811061162d577f4e487b7100000000000000000000000000000000000000000000000000000000600052603260045260246000fd5b905060200281019061163f91906132b2565b8080601f0160208091040260200160405190810160405280939291908181526020018383808284376000920191909152506120c892505050565b8282815181106116b2577f4e487b7100000000000000000000000000000000000000000000000000000000600052603260045260246000fd5b602002602001018190525080806116c890613422565b9150506115e8565b5092915050565b6006821015611773576005546040517fb390c0ab000000000000000000000000000000000000000000000000000000008152600481018490526024810183905273ffffffffffffffffffffffffffffffffffffffff90911690819063b390c0ab90604401600060405180830381600087803b15801561175557600080fd5b505af1158015611769573d6000803e3d6000fd5b5050505050611148565b81600611611148576006546040517fb390c0ab000000000000000000000000000000000000000000000000000000008152600481018490526024810183905273ffffffffffffffffffffffffffffffffffffffff90911690819063b390c0ab90604401600060405180830381600087803b1580156117f057600080fd5b505af115801561104f573d6000803e3d6000fd5b61115860066000613341565b6000818152600360205260408120610883906120ed565b6000828152600260205260409020600101546118438133611085565b6110948383611d1f565b61115860066001613341565b60005473ffffffffffffffffffffffffffffffffffffffff1633146118da576040517f08c379a000000000000000000000000000000000000000000000000000000000815260206004820181905260248201527f4f776e61626c653a2063616c6c6572206973206e6f7420746865206f776e6572604482015260640161029e565b73ffffffffffffffffffffffffffffffffffffffff811661197d576040517f08c379a000000000000000000000000000000000000000000000000000000000815260206004820152602660248201527f4f776e61626c653a206e6577206f776e657220697320746865207a65726f206160448201527f6464726573730000000000000000000000000000000000000000000000000000606482015260840161029e565b61198681611d41565b50565b60008173ffffffffffffffffffffffffffffffffffffffff166119c160005473ffffffffffffffffffffffffffffffffffffffff1690565b73ffffffffffffffffffffffffffffffffffffffff161492915050565b600061106682846133aa565b60007fffffffff0000000000000000000000000000000000000000000000000000000082167f7965db0b00000000000000000000000000000000000000000000000000000000148061088357507f01ffc9a7000000000000000000000000000000000000000000000000000000007fffffffff00000000000000000000000000000000000000000000000000000000831614610883565b606081611ac2575060408051808201909152600181527f30000000000000000000000000000000000000000000000000000000000000006020820152610886565b8160005b8115611aec5780611ad681613422565b9150611ae59050600a83613359565b9150611ac6565b60008167ffffffffffffffff811115611b2e577f4e487b7100000000000000000000000000000000000000000000000000000000600052604160045260246000fd5b6040519080825280601f01601f191660200182016040528015611b58576020820181803683370190505b5090505b8415611c0257611b6d6001836133aa565b9150611b7a600a8661345b565b611b85906030613341565b60f81b818381518110611bc1577f4e487b7100000000000000000000000000000000000000000000000000000000600052603260045260246000fd5b60200101907effffffffffffffffffffffffffffffffffffffffffffffffffffffffffffff1916908160001a905350611bfb600a86613359565b9450611b5c565b949350505050565b60008082118015611c02575081611c2185856105f6565b1015949350505050565b600082815260026020908152604080832073ffffffffffffffffffffffffffffffffffffffff8516845290915290205460ff1661114857611c838173ffffffffffffffffffffffffffffffffffffffff1660146120f7565b611c8e8360206120f7565b604051602001611c9f929190613089565b604080517fffffffffffffffffffffffffffffffffffffffffffffffffffffffffffffffe0818403018152908290527f08c379a000000000000000000000000000000000000000000000000000000000825261029e9160040161329f565b611d0782826123fd565b600082815260036020526040902061109490826124f1565b611d298282612513565b600082815260036020526040902061109490826125ce565b6000805473ffffffffffffffffffffffffffffffffffffffff8381167fffffffffffffffffffffffff0000000000000000000000000000000000000000831681178455604051919092169283917f8be0079c531659141344cd1fd0a4f28419497f9722a3daafe3b4186f6b6457e09190a35050565b611dbf3361105f565b611e4b576040517f08c379a000000000000000000000000000000000000000000000000000000000815260206004820152603060248201527f43726561747572654163636573736f7279466163746f7279235f6d696e743a2060448201527f43414e4e4f545f4d494e545f4d4f524500000000000000000000000000000000606482015260840161029e565b6006831015611f9657611e5e335b611989565b80611e96575060065473ffffffffffffffffffffffffffffffffffffffff163373ffffffffffffffffffffffffffffffffffffffff16145b611efc576040517f08c379a000000000000000000000000000000000000000000000000000000000815260206004820152601e60248201527f43616c6c65722063616e6e6f74206d696e74206163636573736f726965730000604482015260640161029e565b60055473ffffffffffffffffffffffffffffffffffffffff168063f242432a611f3a60005473ffffffffffffffffffffffffffffffffffffffff1690565b878787876040518663ffffffff1660e01b8152600401611f5e95949392919061310a565b600060405180830381600087803b158015611f7857600080fd5b505af1158015611f8c573d6000803e3d6000fd5b50505050506120b6565b611fa260036006613341565b83101561205457611fb233611e59565b612018576040517f08c379a000000000000000000000000000000000000000000000000000000000815260206004820152601860248201527f43616c6c65722063616e6e6f74206d696e7420626f7865730000000000000000604482015260640161029e565b60006120256006856133aa565b60065490915061204e9073ffffffffffffffffffffffffffffffffffffffff16868386866125f0565b506120b6565b6040517f08c379a000000000000000000000000000000000000000000000000000000000815260206004820152600f60248201527f556e6b6e6f776e205f6f7074696f6e0000000000000000000000000000000000604482015260640161029e565b50505050565b600061106683836127a4565b606061106683836040518060600160405280602781526020016134fd602791396127f5565b6000610883825490565b6060600061210683600261336d565b612111906002613341565b67ffffffffffffffff811115612150577f4e487b7100000000000000000000000000000000000000000000000000000000600052604160045260246000fd5b6040519080825280601f01601f19166020018201604052801561217a576020820181803683370190505b5090507f3000000000000000000000000000000000000000000000000000000000000000816000815181106121d8577f4e487b7100000000000000000000000000000000000000000000000000000000600052603260045260246000fd5b60200101907effffffffffffffffffffffffffffffffffffffffffffffffffffffffffffff1916908160001a9053507f780000000000000000000000000000000000000000000000000000000000000081600181518110612262577f4e487b7100000000000000000000000000000000000000000000000000000000600052603260045260246000fd5b60200101907effffffffffffffffffffffffffffffffffffffffffffffffffffffffffffff1916908160001a905350600061229e84600261336d565b6122a9906001613341565b90505b6001811115612394577f303132333435363738396162636465660000000000000000000000000000000085600f1660108110612311577f4e487b7100000000000000000000000000000000000000000000000000000000600052603260045260246000fd5b1a60f81b82828151811061234e577f4e487b7100000000000000000000000000000000000000000000000000000000600052603260045260246000fd5b60200101907effffffffffffffffffffffffffffffffffffffffffffffffffffffffffffff1916908160001a90535060049490941c9361238d816133ed565b90506122ac565b508315611066576040517f08c379a000000000000000000000000000000000000000000000000000000000815260206004820181905260248201527f537472696e67733a20686578206c656e67746820696e73756666696369656e74604482015260640161029e565b600082815260026020908152604080832073ffffffffffffffffffffffffffffffffffffffff8516845290915290205460ff1661114857600082815260026020908152604080832073ffffffffffffffffffffffffffffffffffffffff85168452909152902080547fffffffffffffffffffffffffffffffffffffffffffffffffffffffffffffff001660011790556124933390565b73ffffffffffffffffffffffffffffffffffffffff168173ffffffffffffffffffffffffffffffffffffffff16837f2f8788117e7eff1d82e926ec794901d17c78024a50270940304540a733656f0d60405160405180910390a45050565b60006110668373ffffffffffffffffffffffffffffffffffffffff8416612907565b600082815260026020908152604080832073ffffffffffffffffffffffffffffffffffffffff8516845290915290205460ff161561114857600082815260026020908152604080832073ffffffffffffffffffffffffffffffffffffffff8516808552925280832080547fffffffffffffffffffffffffffffffffffffffffffffffffffffffffffffff0016905551339285917ff6391f5c32d9c69d2a47ea670b442974b53935d1edc7fd64eb21e047a839171b9190a45050565b60006110668373ffffffffffffffffffffffffffffffffffffffff8416612956565b6040517f4f558e7900000000000000000000000000000000000000000000000000000000815260048101849052859073ffffffffffffffffffffffffffffffffffffffff821690634f558e799060240160206040518083038186803b15801561265857600080fd5b505afa15801561266c573d6000803e3d6000fd5b505050506040513d601f19601f820116820180604052508101906126909190612ea2565b612744576040517fc13dc29100000000000000000000000000000000000000000000000000000000815273ffffffffffffffffffffffffffffffffffffffff82169063c13dc291906126ec9088908890889088906004016131be565b602060405180830381600087803b15801561270657600080fd5b505af115801561271a573d6000803e3d6000fd5b505050506040513d601f19601f8201168201806040525081019061273e9190612f66565b5061279c565b6040517f731133e900000000000000000000000000000000000000000000000000000000815273ffffffffffffffffffffffffffffffffffffffff82169063731133e990610d619088908890889088906004016131be565b505050505050565b60008260000182815481106127e2577f4e487b7100000000000000000000000000000000000000000000000000000000600052603260045260246000fd5b9060005260206000200154905092915050565b6060833b612885576040517f08c379a000000000000000000000000000000000000000000000000000000000815260206004820152602660248201527f416464726573733a2064656c65676174652063616c6c20746f206e6f6e2d636f60448201527f6e74726163740000000000000000000000000000000000000000000000000000606482015260840161029e565b6000808573ffffffffffffffffffffffffffffffffffffffff16856040516128ad9190613015565b600060405180830381855af49150503d80600081146128e8576040519150601f19603f3d011682016040523d82523d6000602084013e6128ed565b606091505b50915091506128fd828286612abe565b9695505050505050565b600081815260018301602052604081205461294e57508154600181810184556000848152602080822090930184905584548482528286019093526040902091909155610827565b506000610827565b60008181526001830160205260408120548015612ab457600061297a6001836133aa565b855490915060009061298e906001906133aa565b9050818114612a415760008660000182815481106129d5577f4e487b7100000000000000000000000000000000000000000000000000000000600052603260045260246000fd5b9060005260206000200154905080876000018481548110612a1f577f4e487b7100000000000000000000000000000000000000000000000000000000600052603260045260246000fd5b6000918252602080832090910192909255918252600188019052604090208390555b8554869080612a79577f4e487b7100000000000000000000000000000000000000000000000000000000600052603160045260246000fd5b600190038181906000526020600020016000905590558560010160008681526020019081526020016000206000905560019350505050610827565b6000915050610827565b60608315612acd575081611066565b825115612add5782518084602001fd5b816040517f08c379a000000000000000000000000000000000000000000000000000000000815260040161029e919061329f565b803573ffffffffffffffffffffffffffffffffffffffff8116811461088657600080fd5b60008083601f840112612b46578081fd5b50813567ffffffffffffffff811115612b5d578182fd5b6020830191508360208260051b8501011115612b7857600080fd5b9250929050565b803567ffffffffffffffff8116811461088657600080fd5b600060208284031215612ba8578081fd5b61106682612b11565b60008060008060008060808789031215612bc9578182fd5b612bd287612b11565b9550602087013567ffffffffffffffff80821115612bee578384fd5b612bfa8a838b01612b35565b90975095506040890135915080821115612c12578384fd5b612c1e8a838b01612b35565b90955093506060890135915080821115612c36578283fd5b818901915089601f830112612c49578283fd5b813581811115612c5b57612c5b6134cd565b604051601f82017fffffffffffffffffffffffffffffffffffffffffffffffffffffffffffffffe0908116603f01168101908382118183101715612ca157612ca16134cd565b816040528281528c6020848701011115612cb9578586fd5b82602086016020830137856020848301015280955050505050509295509295509295565b60008060408385031215612cef578182fd5b612cf883612b11565b946020939093013593505050565b600080600080600060808688031215612d1d578081fd5b612d2686612b11565b94506020860135935060408601359250606086013567ffffffffffffffff80821115612d50578283fd5b818801915088601f830112612d63578283fd5b813581811115612d71578384fd5b896020828501011115612d82578384fd5b9699959850939650602001949392505050565b600080600080600060a08688031215612dac578081fd5b612db586612b11565b9450612dc360208701612b7f565b9350612dd160408701612b7f565b9250612ddf60608701612b7f565b9150612ded60808701612b7f565b90509295509295909350565b60008060208385031215612e0b578182fd5b823567ffffffffffffffff811115612e21578283fd5b612e2d85828601612b35565b90969095509350505050565b60008060008060408587031215612e4e578384fd5b843567ffffffffffffffff80821115612e65578586fd5b612e7188838901612b35565b90965094506020870135915080821115612e89578384fd5b50612e9687828801612b35565b95989497509550505050565b600060208284031215612eb3578081fd5b81518015158114611066578182fd5b600060208284031215612ed3578081fd5b5035919050565b60008060408385031215612eec578182fd5b82359150612efc60208401612b11565b90509250929050565b60008060408385031215612f17578182fd5b50508035926020909101359150565b600060208284031215612f37578081fd5b81357fffffffff0000000000000000000000000000000000000000000000000000000081168114611066578182fd5b600060208284031215612f77578081fd5b5051919050565b60008284527f07ffffffffffffffffffffffffffffffffffffffffffffffffffffffffffffff831115612faf578081fd5b8260051b80836020870137939093016020019283525090919050565b60008151808452612fe38160208601602086016133c1565b601f017fffffffffffffffffffffffffffffffffffffffffffffffffffffffffffffffe0169290920160200192915050565b600082516130278184602087016133c1565b9190910192915050565b600083516130438184602088016133c1565b7f666163746f72792f000000000000000000000000000000000000000000000000908301908152835161307d8160088401602088016133c1565b01600801949350505050565b60007f416363657373436f6e74726f6c3a206163636f756e7420000000000000000000825283516130c18160178501602088016133c1565b7f206973206d697373696e6720726f6c652000000000000000000000000000000060179184019182015283516130fe8160288401602088016133c1565b01602801949350505050565b600073ffffffffffffffffffffffffffffffffffffffff808816835280871660208401525084604083015283606083015260a0608083015261314f60a0830184612fcb565b979650505050505050565b600073ffffffffffffffffffffffffffffffffffffffff881682526080602083015261318a608083018789612f7e565b828103604084015261319d818688612f7e565b905082810360608401526131b18185612fcb565b9998505050505050505050565b600073ffffffffffffffffffffffffffffffffffffffff86168252846020830152836040830152608060608301526128fd6080830184612fcb565b6000602080830181845280855180835260408601915060408160051b8701019250838701855b8281101561326b577fffffffffffffffffffffffffffffffffffffffffffffffffffffffffffffffc0888603018452613259858351612fcb565b9450928501929085019060010161321f565b5092979650505050505050565b60006040825261328c604083018688612f7e565b828103602084015261314f818587612f7e565b6000602082526110666020830184612fcb565b60008083357fffffffffffffffffffffffffffffffffffffffffffffffffffffffffffffffe18436030181126132e6578283fd5b83018035915067ffffffffffffffff821115613300578283fd5b602001915036819003821315612b7857600080fd5b60008085851115613324578182fd5b83861115613330578182fd5b5050600583901b0193919092039150565b600082198211156133545761335461346f565b500190565b6000826133685761336861349e565b500490565b6000817fffffffffffffffffffffffffffffffffffffffffffffffffffffffffffffffff04831182151516156133a5576133a561346f565b500290565b6000828210156133bc576133bc61346f565b500390565b60005b838110156133dc5781810151838201526020016133c4565b838111156120b65750506000910152565b6000816133fc576133fc61346f565b507fffffffffffffffffffffffffffffffffffffffffffffffffffffffffffffffff0190565b60007fffffffffffffffffffffffffffffffffffffffffffffffffffffffffffffffff8214156134545761345461346f565b5060010190565b60008261346a5761346a61349e565b500690565b7f4e487b7100000000000000000000000000000000000000000000000000000000600052601160045260246000fd5b7f4e487b7100000000000000000000000000000000000000000000000000000000600052601260045260246000fd5b7f4e487b7100000000000000000000000000000000000000000000000000000000600052604160045260246000fdfe416464726573733a206c6f772d6c6576656c2064656c65676174652063616c6c206661696c65644d65746163616e61204372656174757265204163636573736f7279205072652d53616c65a26469706673582212208ccf5c006ca6ac88f71896cd4a0d1483e10d336afaf8d4a64511714c4316e28664736f6c63430008030033",
  "linkReferences": {},
  "deployedLinkReferences": {}
}