{
  "_format": "hh-sol-artifact-1",
  "contractName": "TokenRecover",
  "sourceName": "contracts/utils/TokenRecover.sol",
  "abi": [
    {
      "inputs": [],
      "stateMutability": "nonpayable",
      "type": "constructor"
    },
    {
      "anonymous": false,
      "inputs": [
        {
          "indexed": true,
          "internalType": "address",
          "name": "previousOwner",
          "type": "address"
        },
        {
          "indexed": true,
          "internalType": "address",
          "name": "newOwner",
          "type": "address"
        }
      ],
      "name": "OwnershipTransferred",
      "type": "event"
    },
    {
      "inputs": [
        {
          "internalType": "address",
          "name": "",
          "type": "address"
        }
      ],
      "name": "denyList",
      "outputs": [
        {
          "internalType": "bool",
          "name": "",
          "type": "bool"
        }
      ],
      "stateMutability": "view",
      "type": "function"
    },
    {
      "inputs": [],
      "name": "owner",
      "outputs": [
        {
          "internalType": "address",
          "name": "",
          "type": "address"
        }
      ],
      "stateMutability": "view",
      "type": "function"
    },
    {
      "inputs": [
        {
          "internalType": "address",
          "name": "tokenAddress",
          "type": "address"
        },
        {
          "internalType": "uint256",
          "name": "tokenAmount",
          "type": "uint256"
        }
      ],
      "name": "recover",
      "outputs": [],
      "stateMutability": "nonpayable",
      "type": "function"
    },
    {
      "inputs": [],
      "name": "renounceOwnership",
      "outputs": [],
      "stateMutability": "nonpayable",
      "type": "function"
    },
    {
      "inputs": [
        {
          "internalType": "address",
          "name": "newOwner",
          "type": "address"
        }
      ],
      "name": "transferOwnership",
      "outputs": [],
      "stateMutability": "nonpayable",
      "type": "function"
    }
  ],
  "bytecode": "0x608060405234801561001057600080fd5b50600061001b61008f565b600080547fffffffffffffffffffffffff00000000000000000000000000000000000000001673ffffffffffffffffffffffffffffffffffffffff83169081178255604051929350917f8be0079c531659141344cd1fd0a4f28419497f9722a3daafe3b4186f6b6457e0908290a350610093565b3390565b61071e806100a26000396000f3fe608060405234801561001057600080fd5b50600436106100675760003560e01c8063715018a611610050578063715018a6146100ee5780638da5cb5b146100f6578063f2fde38b1461012757610067565b8063406821521461006c5780635705ae43146100b3575b600080fd5b61009f6004803603602081101561008257600080fd5b503573ffffffffffffffffffffffffffffffffffffffff1661015a565b604080519115158252519081900360200190f35b6100ec600480360360408110156100c957600080fd5b5073ffffffffffffffffffffffffffffffffffffffff813516906020013561016f565b005b6100ec6103ad565b6100fe6104c4565b6040805173ffffffffffffffffffffffffffffffffffffffff9092168252519081900360200190f35b6100ec6004803603602081101561013d57600080fd5b503573ffffffffffffffffffffffffffffffffffffffff166104e0565b60016020526000908152604090205460ff1681565b610177610681565b73ffffffffffffffffffffffffffffffffffffffff166101956104c4565b73ffffffffffffffffffffffffffffffffffffffff161461021757604080517f08c379a000000000000000000000000000000000000000000000000000000000815260206004820181905260248201527f4f776e61626c653a2063616c6c6572206973206e6f7420746865206f776e6572604482015290519081900360640190fd5b73ffffffffffffffffffffffffffffffffffffffff821660009081526001602052604090205460ff1615610296576040517f08c379a000000000000000000000000000000000000000000000000000000000815260040180806020018281038252603d8152602001806106ac603d913960400191505060405180910390fd5b73ffffffffffffffffffffffffffffffffffffffff8216610304576102b96104c4565b73ffffffffffffffffffffffffffffffffffffffff166108fc829081150290604051600060405180830381858888f193505050501580156102fe573d6000803e3d6000fd5b506103a9565b8173ffffffffffffffffffffffffffffffffffffffff1663a9059cbb6103286104c4565b836040518363ffffffff1660e01b8152600401808373ffffffffffffffffffffffffffffffffffffffff16815260200182815260200192505050602060405180830381600087803b15801561037c57600080fd5b505af1158015610390573d6000803e3d6000fd5b505050506040513d60208110156103a657600080fd5b50505b5050565b6103b5610681565b73ffffffffffffffffffffffffffffffffffffffff166103d36104c4565b73ffffffffffffffffffffffffffffffffffffffff161461045557604080517f08c379a000000000000000000000000000000000000000000000000000000000815260206004820181905260248201527f4f776e61626c653a2063616c6c6572206973206e6f7420746865206f776e6572604482015290519081900360640190fd5b6000805460405173ffffffffffffffffffffffffffffffffffffffff909116907f8be0079c531659141344cd1fd0a4f28419497f9722a3daafe3b4186f6b6457e0908390a3600080547fffffffffffffffffffffffff0000000000000000000000000000000000000000169055565b60005473ffffffffffffffffffffffffffffffffffffffff1690565b6104e8610681565b73ffffffffffffffffffffffffffffffffffffffff166105066104c4565b73ffffffffffffffffffffffffffffffffffffffff161461058857604080517f08c379a000000000000000000000000000000000000000000000000000000000815260206004820181905260248201527f4f776e61626c653a2063616c6c6572206973206e6f7420746865206f776e6572604482015290519081900360640190fd5b73ffffffffffffffffffffffffffffffffffffffff81166105f4576040517f08c379a00000000000000000000000000000000000000000000000000000000081526004018080602001828103825260268152602001806106866026913960400191505060405180910390fd5b6000805460405173ffffffffffffffffffffffffffffffffffffffff808516939216917f8be0079c531659141344cd1fd0a4f28419497f9722a3daafe3b4186f6b6457e091a3600080547fffffffffffffffffffffffff00000000000000000000000000000000000000001673ffffffffffffffffffffffffffffffffffffffff92909216919091179055565b339056fe4f776e61626c653a206e6577206f776e657220697320746865207a65726f2061646472657373546f6b656e5265636f766572237265636f7665723a2043616e6e6f74207265636f76657220746f6b656e732066726f6d207468652064656e796c697374a2646970667358221220ac0631ffad5ea270fcc90f775ea9cfe3a9418e6949b4647cb9ed76f25ecf632564736f6c63430007040033",
  "linkReferences": {},
  "deployedLinkReferences": {}
}