{
  "_format": "hh-sol-artifact-1",
  "contractName": "Marketplace",
  "sourceName": "contracts/nft/Marketplace.sol",
  "abi": [
    {
      "anonymous": false,
      "inputs": [
        {
          "indexed": true,
          "internalType": "uint256",
          "name": "tokenId",
          "type": "uint256"
        },
        {
          "indexed": false,
          "internalType": "address",
          "name": "contractAddress",
          "type": "address"
        },
        {
          "indexed": false,
          "internalType": "address",
          "name": "paymentToken",
          "type": "address"
        },
        {
          "indexed": false,
          "internalType": "address",
          "name": "seller",
          "type": "address"
        },
        {
          "indexed": false,
          "internalType": "address",
          "name": "buyer",
          "type": "address"
        },
        {
          "indexed": false,
          "internalType": "uint256",
          "name": "round",
          "type": "uint256"
        },
        {
          "indexed": false,
          "internalType": "uint256",
          "name": "price",
          "type": "uint256"
        },
        {
          "indexed": false,
          "internalType": "uint256",
          "name": "buyerAmount",
          "type": "uint256"
        },
        {
          "indexed": false,
          "internalType": "uint256",
          "name": "sellerAmount",
          "type": "uint256"
        },
        {
          "indexed": false,
          "internalType": "uint256",
          "name": "fee",
          "type": "uint256"
        }
      ],
      "name": "MatchTransaction",
      "type": "event"
    },
    {
      "anonymous": false,
      "inputs": [
        {
          "indexed": true,
          "internalType": "address",
          "name": "previousOwner",
          "type": "address"
        },
        {
          "indexed": true,
          "internalType": "address",
          "name": "newOwner",
          "type": "address"
        }
      ],
      "name": "OwnershipTransferred",
      "type": "event"
    },
    {
      "inputs": [],
      "name": "feeToAddress",
      "outputs": [
        {
          "internalType": "address",
          "name": "",
          "type": "address"
        }
      ],
      "stateMutability": "view",
      "type": "function"
    },
    {
      "inputs": [
        {
          "internalType": "address",
          "name": "_nftAddress",
          "type": "address"
        },
        {
          "internalType": "address",
          "name": "_buyerAddress",
          "type": "address"
        },
        {
          "internalType": "address",
          "name": "_paymentErc20",
          "type": "address"
        },
        {
          "internalType": "uint256",
          "name": "_roundId",
          "type": "uint256"
        },
        {
          "internalType": "uint256",
          "name": "_tokenId",
          "type": "uint256"
        },
        {
          "internalType": "uint256",
          "name": "_price",
          "type": "uint256"
        },
        {
          "internalType": "uint256",
          "name": "_amount",
          "type": "uint256"
        },
        {
          "internalType": "uint256",
          "name": "_saltNonce",
          "type": "uint256"
        }
      ],
      "name": "getMessageHash",
      "outputs": [
        {
          "internalType": "bytes32",
          "name": "",
          "type": "bytes32"
        }
      ],
      "stateMutability": "pure",
      "type": "function"
    },
    {
      "inputs": [
        {
          "internalType": "address[2]",
          "name": "addresses",
          "type": "address[2]"
        },
        {
          "internalType": "uint256[5]",
          "name": "values",
          "type": "uint256[5]"
        },
        {
          "internalType": "bytes",
          "name": "signature",
          "type": "bytes"
        }
      ],
      "name": "ignoreSignature",
      "outputs": [],
      "stateMutability": "nonpayable",
      "type": "function"
    },
    {
      "inputs": [
        {
          "internalType": "address[3]",
          "name": "addresses",
          "type": "address[3]"
        },
        {
          "internalType": "uint256[6]",
          "name": "values",
          "type": "uint256[6]"
        },
        {
          "internalType": "bytes",
          "name": "signature",
          "type": "bytes"
        }
      ],
      "name": "matchTransaction",
      "outputs": [
        {
          "internalType": "bool",
          "name": "",
          "type": "bool"
        }
      ],
      "stateMutability": "nonpayable",
      "type": "function"
    },
    {
      "inputs": [],
      "name": "owner",
      "outputs": [
        {
          "internalType": "address",
          "name": "",
          "type": "address"
        }
      ],
      "stateMutability": "view",
      "type": "function"
    },
    {
      "inputs": [
        {
          "internalType": "address",
          "name": "",
          "type": "address"
        }
      ],
      "name": "paymentTokens",
      "outputs": [
        {
          "internalType": "bool",
          "name": "",
          "type": "bool"
        }
      ],
      "stateMutability": "view",
      "type": "function"
    },
    {
      "inputs": [
        {
          "internalType": "address",
          "name": "",
          "type": "address"
        }
      ],
      "name": "privateSales",
      "outputs": [
        {
          "internalType": "uint256",
          "name": "",
          "type": "uint256"
        }
      ],
      "stateMutability": "view",
      "type": "function"
    },
    {
      "inputs": [
        {
          "internalType": "address[]",
          "name": "_removedPaymentTokens",
          "type": "address[]"
        }
      ],
      "name": "removePaymentTokens",
      "outputs": [],
      "stateMutability": "nonpayable",
      "type": "function"
    },
    {
      "inputs": [
        {
          "internalType": "address",
          "name": "recv",
          "type": "address"
        }
      ],
      "name": "removePrivate",
      "outputs": [],
      "stateMutability": "nonpayable",
      "type": "function"
    },
    {
      "inputs": [
        {
          "internalType": "address",
          "name": "recv",
          "type": "address"
        }
      ],
      "name": "removeWhitelisth",
      "outputs": [],
      "stateMutability": "nonpayable",
      "type": "function"
    },
    {
      "inputs": [],
      "name": "renounceOwnership",
      "outputs": [],
      "stateMutability": "nonpayable",
      "type": "function"
    },
    {
      "inputs": [
        {
          "internalType": "uint256",
          "name": "",
          "type": "uint256"
        }
      ],
      "name": "rounds",
      "outputs": [
        {
          "internalType": "uint16",
          "name": "",
          "type": "uint16"
        }
      ],
      "stateMutability": "view",
      "type": "function"
    },
    {
      "inputs": [
        {
          "internalType": "address",
          "name": "_feeToAddress",
          "type": "address"
        }
      ],
      "name": "setFeeToAddress",
      "outputs": [],
      "stateMutability": "nonpayable",
      "type": "function"
    },
    {
      "inputs": [
        {
          "internalType": "address[]",
          "name": "_paymentTokens",
          "type": "address[]"
        }
      ],
      "name": "setPaymentTokens",
      "outputs": [],
      "stateMutability": "nonpayable",
      "type": "function"
    },
    {
      "inputs": [
        {
          "internalType": "address",
          "name": "recv",
          "type": "address"
        },
        {
          "internalType": "uint256",
          "name": "amount",
          "type": "uint256"
        }
      ],
      "name": "setPrivate",
      "outputs": [],
      "stateMutability": "nonpayable",
      "type": "function"
    },
    {
      "inputs": [
        {
          "internalType": "address[]",
          "name": "recvs",
          "type": "address[]"
        },
        {
          "internalType": "uint256[]",
          "name": "amounts",
          "type": "uint256[]"
        }
      ],
      "name": "setPrivateBatch",
      "outputs": [],
      "stateMutability": "nonpayable",
      "type": "function"
    },
    {
      "inputs": [
        {
          "internalType": "uint16[]",
          "name": "_rounds",
          "type": "uint16[]"
        }
      ],
      "name": "setRounds",
      "outputs": [],
      "stateMutability": "nonpayable",
      "type": "function"
    },
    {
      "inputs": [
        {
          "internalType": "uint64[3]",
          "name": "_times",
          "type": "uint64[3]"
        }
      ],
      "name": "setTimes",
      "outputs": [],
      "stateMutability": "nonpayable",
      "type": "function"
    },
    {
      "inputs": [
        {
          "internalType": "uint256",
          "name": "_transactionFee",
          "type": "uint256"
        }
      ],
      "name": "setTransactionFee",
      "outputs": [],
      "stateMutability": "nonpayable",
      "type": "function"
    },
    {
      "inputs": [
        {
          "internalType": "address[]",
          "name": "recvs",
          "type": "address[]"
        },
        {
          "internalType": "uint256[]",
          "name": "amounts",
          "type": "uint256[]"
        }
      ],
      "name": "setWhitelistBatch",
      "outputs": [],
      "stateMutability": "nonpayable",
      "type": "function"
    },
    {
      "inputs": [
        {
          "internalType": "uint256",
          "name": "",
          "type": "uint256"
        }
      ],
      "name": "times",
      "outputs": [
        {
          "internalType": "uint64",
          "name": "",
          "type": "uint64"
        }
      ],
      "stateMutability": "view",
      "type": "function"
    },
    {
      "inputs": [],
      "name": "transactionFee",
      "outputs": [
        {
          "internalType": "uint256",
          "name": "",
          "type": "uint256"
        }
      ],
      "stateMutability": "view",
      "type": "function"
    },
    {
      "inputs": [
        {
          "internalType": "address",
          "name": "newOwner",
          "type": "address"
        }
      ],
      "name": "transferOwnership",
      "outputs": [],
      "stateMutability": "nonpayable",
      "type": "function"
    },
    {
      "inputs": [
        {
          "internalType": "bytes",
          "name": "",
          "type": "bytes"
        }
      ],
      "name": "usedSignatures",
      "outputs": [
        {
          "internalType": "uint256",
          "name": "",
          "type": "uint256"
        }
      ],
      "stateMutability": "view",
      "type": "function"
    },
    {
      "inputs": [
        {
          "internalType": "address",
          "name": "",
          "type": "address"
        }
      ],
      "name": "whitelistSales",
      "outputs": [
        {
          "internalType": "uint256",
          "name": "",
          "type": "uint256"
        }
      ],
      "stateMutability": "view",
      "type": "function"
    }
  ],
  "bytecode": "0x60806040523480156200001157600080fd5b506200001d3362000023565b62000098565b6000805473ffffffffffffffffffffffffffffffffffffffff8381167fffffffffffffffffffffffff0000000000000000000000000000000000000000831681178455604051919092169283917f8be0079c531659141344cd1fd0a4f28419497f9722a3daafe3b4186f6b6457e09190a35050565b613c4d80620000a86000396000f3fe608060405234801561001057600080fd5b50600436106101a35760003560e01c80638c65c81f116100ee578063b88dccac11610097578063e949580e11610071578063e949580e146103da578063e9dda24c14610405578063ed3afd5e14610418578063f2fde38b146104ad57600080fd5b8063b88dccac14610384578063c3b88b4214610397578063cbaf4446146103ba57600080fd5b806397d9c1de116100c857806397d9c1de146103555780639ed3edf014610368578063ab4ae1341461037157600080fd5b80638c65c81f146102e35780638da5cb5b146103095780638f29e6f61461032757600080fd5b806364e60ef4116101505780636fab90f71161012a5780636fab90f7146102b5578063715018a6146102c8578063801cc242146102d057600080fd5b806364e60ef41461026c57806368a29f571461027f5780636d5f839f146102a257600080fd5b80632af68c84116101815780632af68c8414610233578063553d7e8a14610246578063580bb9a51461025957600080fd5b8063083d80f9146101a8578063096a8ab7146101f257806320982bce14610207575b600080fd5b6003546101c89073ffffffffffffffffffffffffffffffffffffffff1681565b60405173ffffffffffffffffffffffffffffffffffffffff90911681526020015b60405180910390f35b61020561020036600461391a565b6104c0565b005b61021a61021536600461391a565b61054b565b60405167ffffffffffffffff90911681526020016101e9565b6102056102413660046135f7565b61057f565b6102056102543660046136ad565b61060c565b6102056102673660046135f7565b61087d565b61020561027a36600461376b565b610945565b61029261028d36600461371a565b610a68565b60405190151581526020016101e9565b6102056102b036600461380d565b61182e565b6102056102c33660046137ad565b6118c0565b610205611b7b565b6102056102de366004613683565b611c08565b6102f66102f136600461391a565b611c93565b60405161ffff90911681526020016101e9565b60005473ffffffffffffffffffffffffffffffffffffffff166101c8565b6103476103353660046135f7565b60096020526000908152604090205481565b6040519081526020016101e9565b6102056103633660046137ad565b611ccb565b61034760045481565b61020561037f3660046135f7565b611f7e565b61020561039236600461376b565b612008565b6102926103a53660046135f7565b60016020526000908152604090205460ff1681565b6103476103c83660046135f7565b600a6020526000908152604090205481565b6103476103e836600461384b565b805160208183018101805160028252928201919093012091525481565b61020561041336600461376b565b61218a565b610347610426366004613612565b604080517fffffffffffffffffffffffffffffffffffffffff00000000000000000000000060609a8b1b8116602080840191909152998b1b811660348301529790991b9096166048890152605c880194909452607c870192909252609c86015260bc85015260dc808501919091528151808503909101815260fc9093019052815191012090565b6102056104bb3660046135f7565b612217565b60005473ffffffffffffffffffffffffffffffffffffffff163314610546576040517f08c379a000000000000000000000000000000000000000000000000000000000815260206004820181905260248201527f4f776e61626c653a2063616c6c6572206973206e6f7420746865206f776e657260448201526064015b60405180910390fd5b600455565b6006816003811061055b57600080fd5b60049182820401919006600802915054906101000a900467ffffffffffffffff1681565b60005473ffffffffffffffffffffffffffffffffffffffff163314610600576040517f08c379a000000000000000000000000000000000000000000000000000000000815260206004820181905260248201527f4f776e61626c653a2063616c6c6572206973206e6f7420746865206f776e6572604482015260640161053d565b61060981612344565b50565b60006106d161061e60208701876135f7565b3361062f6040890160208a016135f7565b8735602089013560408a013560608b01358b60045b6020020135604080516060998a1b7fffffffffffffffffffffffffffffffffffffffff000000000000000000000000908116602080840191909152998b1b811660348301529790991b9096166048890152605c880194909452607c870192909252609c86015260bc85015260dc808501919091528151808503909101815260fc9093019052815191012090565b9050600061072c826040517f19457468657265756d205369676e6564204d6573736167653a0a3332000000006020820152603c8101829052600090605c01604051602081830303815290604052805190602001209050919050565b90503373ffffffffffffffffffffffffffffffffffffffff166107858286868080601f0160208091040260200160405190810160405280939291908181526020018383808284376000920191909152506123ec92505050565b73ffffffffffffffffffffffffffffffffffffffff1614610828576040517f08c379a000000000000000000000000000000000000000000000000000000000815260206004820152602560248201527f4d61726b6574706c6163653a20696e76616c69642073656c6c6572207369676e60448201527f6174757265000000000000000000000000000000000000000000000000000000606482015260840161053d565b61085360017ffffffffffffffffffffffffffffffffffffffffffffffffffffffffffffffffd613a4f565b6002858560405161086592919061394c565b90815260405190819003602001902055505050505050565b60005473ffffffffffffffffffffffffffffffffffffffff1633146108fe576040517f08c379a000000000000000000000000000000000000000000000000000000000815260206004820181905260248201527f4f776e61626c653a2063616c6c6572206973206e6f7420746865206f776e6572604482015260640161053d565b600380547fffffffffffffffffffffffff00000000000000000000000000000000000000001673ffffffffffffffffffffffffffffffffffffffff92909216919091179055565b60005473ffffffffffffffffffffffffffffffffffffffff1633146109c6576040517f08c379a000000000000000000000000000000000000000000000000000000000815260206004820181905260248201527f4f776e61626c653a2063616c6c6572206973206e6f7420746865206f776e6572604482015260640161053d565b60005b81811015610a63576000600160008585858181106109e9576109e9613bb9565b90506020020160208101906109fe91906135f7565b73ffffffffffffffffffffffffffffffffffffffff168152602081019190915260400160002080547fffffffffffffffffffffffffffffffffffffffffffffffffffffffffffffff001691151591909117905580610a5b81613b22565b9150506109c9565b505050565b600060018435118015610a7f575060016020850135115b15610b3357600654700100000000000000000000000000000000900467ffffffffffffffff164211610b33576040517f08c379a000000000000000000000000000000000000000000000000000000000815260206004820152602860248201527f4d61726b6574706c6163653a544943495f69735f6e6f745f696e5f636f72726560448201527f63745f726f756e64000000000000000000000000000000000000000000000000606482015260840161053d565b8335610d8857602084013515610ba5576040517f08c379a000000000000000000000000000000000000000000000000000000000815260206004820152601c60248201527f4d61726b6574706c6163653a696e76616c69645f746f6b656e5f696400000000604482015260640161053d565b336000908152600960205260409020546080850135148015610bce575060608401356080850135145b8015610bdd5750606084013515155b336000908152600960209081526040918290205491517f4d61726b6574706c6163653a696e76616c69645f616d6f756e743d000000000091810191909152603b8101919091527f2c76616c7565735b345d3d000000000000000000000000000000000000000000605b820152608086013560668201527f2c76616c7565735b335d3d00000000000000000000000000000000000000000060868201526060860135609182015260b10160405160208183030381529060405290610ccd576040517f08c379a000000000000000000000000000000000000000000000000000000000815260040161053d91906139fe565b506000610ce060608701604088016135f7565b73ffffffffffffffffffffffffffffffffffffffff1614610d83576040517f08c379a000000000000000000000000000000000000000000000000000000000815260206004820152602360248201527f4d61726b6574706c6163653a696e76616c69645f7061796d656e745f6164647260448201527f6573730000000000000000000000000000000000000000000000000000000000606482015260840161053d565b610e30565b600184351415610e3057336000908152600a60205260409020546080850135148015610dbb575060608401356080850135145b8015610dca5750606084013515155b610e30576040517f08c379a000000000000000000000000000000000000000000000000000000000815260206004820152601a60248201527f4d61726b6574706c6163653a696e76616c69645f616d6f756e74000000000000604482015260640161053d565b60016000610e4460608801604089016135f7565b73ffffffffffffffffffffffffffffffffffffffff16815260208101919091526040016000205460ff16151560011480610e7d57508335155b610f09576040517f08c379a000000000000000000000000000000000000000000000000000000000815260206004820152602360248201527f4d61726b6574706c6163653a20696e76616c6964207061796d656e74206d657460448201527f686f640000000000000000000000000000000000000000000000000000000000606482015260840161053d565b60028383604051610f1b92919061394c565b90815260200160405180910390205460001480610f6e5750604051608085013590606086013590600290610f52908790879061394c565b908152602001604051809103902054610f6b9190613a4f565b11155b610ffa576040517f08c379a000000000000000000000000000000000000000000000000000000000815260206004820152603560248201527f4d61726b6574706c6163653a207369676e61747572652075736564206f72206f60448201527f7574206f662073656c6c65722773206173736574730000000000000000000000606482015260840161053d565b600061105761100f60408801602089016135f7565b60018735148015906110215750863515155b61102b573361102e565b60005b61103e60608a0160408b016135f7565b883560208a013560408b013560808c01358c6005610644565b905060006110b2826040517f19457468657265756d205369676e6564204d6573736167653a0a3332000000006020820152603c8101829052600090605c01604051602081830303815290604052805190602001209050919050565b90506110c160208801886135f7565b73ffffffffffffffffffffffffffffffffffffffff166111178287878080601f0160208091040260200160405190810160405280939291908181526020018383808284376000920191909152506123ec92505050565b73ffffffffffffffffffffffffffffffffffffffff16146111ba576040517f08c379a000000000000000000000000000000000000000000000000000000000815260206004820152602560248201527f4d61726b6574706c6163653a20696e76616c69642073656c6c6572207369676e60448201527f6174757265000000000000000000000000000000000000000000000000000000606482015260840161053d565b60006111cc6040890160208a016135f7565b9050600073ffffffffffffffffffffffffffffffffffffffff821662fdd58e6111f860208c018c6135f7565b60405160e083901b7fffffffff0000000000000000000000000000000000000000000000000000000016815273ffffffffffffffffffffffffffffffffffffffff9190911660048201528a35602482015260440160206040518083038186803b15801561126457600080fd5b505afa158015611278573d6000803e3d6000fd5b505050506040513d601f19601f8201168201806040525081019061129c9190613933565b11611329576040517f08c379a000000000000000000000000000000000000000000000000000000000815260206004820152603160248201527f4d61726b6574706c6163653a2073656c6c6572206973206e6f74206f776e657260448201527f206f662074686973206974656d206e6f77000000000000000000000000000000606482015260840161053d565b8635151580611379575060018735118015611348575060016020880135115b80156113795750600061136160608a0160408b016135f7565b73ffffffffffffffffffffffffffffffffffffffff16145b156116ee57600061139060608a0160408b016135f7565b9050604088013573ffffffffffffffffffffffffffffffffffffffff82166370a08231336040517fffffffff0000000000000000000000000000000000000000000000000000000060e084901b16815273ffffffffffffffffffffffffffffffffffffffff909116600482015260240160206040518083038186803b15801561141857600080fd5b505afa15801561142c573d6000803e3d6000fd5b505050506040513d601f19601f820116820180604052508101906114509190613933565b10156114de576040517f08c379a000000000000000000000000000000000000000000000000000000000815260206004820152603d60248201527f4d61726b6574706c6163653a20627579657220646f65736e277420686176652060448201527f656e6f75676820746f6b656e20746f206275792074686973206974656d000000606482015260840161053d565b604088013573ffffffffffffffffffffffffffffffffffffffff821663dd62ed3e336040517fffffffff0000000000000000000000000000000000000000000000000000000060e084901b16815273ffffffffffffffffffffffffffffffffffffffff909116600482015230602482015260440160206040518083038186803b15801561156a57600080fd5b505afa15801561157e573d6000803e3d6000fd5b505050506040513d601f19601f820116820180604052508101906115a29190613933565b1015611656576040517f08c379a000000000000000000000000000000000000000000000000000000000815260206004820152604660248201527f4d61726b6574706c6163653a20627579657220646f65736e277420617070726f60448201527f7665206d61726b6574706c61636520746f207370656e64207061796d656e742060648201527f616d6f756e740000000000000000000000000000000000000000000000000000608482015260a40161053d565b60045460009061167890612710906116729060408d0135612412565b90612425565b9050600061168a60408b013583612431565b90506116bc3361169d60208e018e6135f7565b73ffffffffffffffffffffffffffffffffffffffff861691908461243d565b81156116ea576116ea3360035473ffffffffffffffffffffffffffffffffffffffff8681169291168561243d565b5050505b73ffffffffffffffffffffffffffffffffffffffff811663f242432a61171760208b018b6135f7565b336040517fffffffff0000000000000000000000000000000000000000000000000000000060e085901b16815261176292919060208d01359060608e0135908d908d90600401613978565b600060405180830381600087803b15801561177c57600080fd5b505af1158015611790573d6000803e3d6000fd5b50505050866003600681106117a7576117a7613bb9565b6020020135600287876040516117be92919061394c565b908152602001604051809103902060008282546117db9190613a4f565b909155505086356117fb5733600090815260096020526040812055611816565b60018735141561181657336000908152600a60205260408120555b61182088886124d8565b506001979650505050505050565b60005473ffffffffffffffffffffffffffffffffffffffff1633146118af576040517f08c379a000000000000000000000000000000000000000000000000000000000815260206004820181905260248201527f4f776e61626c653a2063616c6c6572206973206e6f7420746865206f776e6572604482015260640161053d565b6118bc60068260036133d4565b5050565b60005473ffffffffffffffffffffffffffffffffffffffff163314611941576040517f08c379a000000000000000000000000000000000000000000000000000000000815260206004820181905260248201527f4f776e61626c653a2063616c6c6572206973206e6f7420746865206f776e6572604482015260640161053d565b8281146119d0576040517f08c379a000000000000000000000000000000000000000000000000000000000815260206004820152602f60248201527f4d61726b6574706c6163652373657457686974656c69737442617463683a6c6560448201527f6e6774685f6d69736d6174636865640000000000000000000000000000000000606482015260840161053d565b6000828260008181106119e5576119e5613bb9565b9050602002013590506000600190505b84811015611a3557838382818110611a0f57611a0f613bb9565b9050602002013582611a219190613a4f565b915080611a2d81613b22565b9150506119f5565b506005600181548110611a4a57611a4a613bb9565b90600052602060002090601091828204019190066002029054906101000a900461ffff1661ffff1681600854611a809190613a4f565b1115611b0e576040517f08c379a000000000000000000000000000000000000000000000000000000000815260206004820152603060248201527f4d61726b6574706c6163652373657457686974656c69737442617463683a726f60448201527f756e645f69735f66756c66696c6c656400000000000000000000000000000000606482015260840161053d565b60005b84811015611b7357611b61868683818110611b2e57611b2e613bb9565b9050602002016020810190611b4391906135f7565b858584818110611b5557611b55613bb9565b905060200201356125a7565b80611b6b81613b22565b915050611b11565b505050505050565b60005473ffffffffffffffffffffffffffffffffffffffff163314611bfc576040517f08c379a000000000000000000000000000000000000000000000000000000000815260206004820181905260248201527f4f776e61626c653a2063616c6c6572206973206e6f7420746865206f776e6572604482015260640161053d565b611c06600061288d565b565b60005473ffffffffffffffffffffffffffffffffffffffff163314611c89576040517f08c379a000000000000000000000000000000000000000000000000000000000815260206004820181905260248201527f4f776e61626c653a2063616c6c6572206973206e6f7420746865206f776e6572604482015260640161053d565b6118bc8282612902565b60058181548110611ca357600080fd5b9060005260206000209060109182820401919006600202915054906101000a900461ffff1681565b60005473ffffffffffffffffffffffffffffffffffffffff163314611d4c576040517f08c379a000000000000000000000000000000000000000000000000000000000815260206004820181905260248201527f4f776e61626c653a2063616c6c6572206973206e6f7420746865206f776e6572604482015260640161053d565b828114611ddb576040517f08c379a000000000000000000000000000000000000000000000000000000000815260206004820152602d60248201527f4d61726b6574706c616365237365745072697661746542617463683a6c656e6760448201527f74685f6d69736d61746368656400000000000000000000000000000000000000606482015260840161053d565b600082826000818110611df057611df0613bb9565b9050602002013590506000600190505b84811015611e4057838382818110611e1a57611e1a613bb9565b9050602002013582611e2c9190613a4f565b915080611e3881613b22565b915050611e00565b506005600181548110611e5557611e55613bb9565b90600052602060002090601091828204019190066002029054906101000a900461ffff1661ffff1681600754611e8b9190613a4f565b1115611f19576040517f08c379a000000000000000000000000000000000000000000000000000000000815260206004820152602e60248201527f4d61726b6574706c616365237365745072697661746542617463683a726f756e60448201527f645f69735f66756c66696c6c6564000000000000000000000000000000000000606482015260840161053d565b60005b84811015611b7357611f6c868683818110611f3957611f39613bb9565b9050602002016020810190611f4e91906135f7565b858584818110611f6057611f60613bb9565b90506020020135612902565b80611f7681613b22565b915050611f1c565b60005473ffffffffffffffffffffffffffffffffffffffff163314611fff576040517f08c379a000000000000000000000000000000000000000000000000000000000815260206004820181905260248201527f4f776e61626c653a2063616c6c6572206973206e6f7420746865206f776e6572604482015260640161053d565b61060981612bed565b60005473ffffffffffffffffffffffffffffffffffffffff163314612089576040517f08c379a000000000000000000000000000000000000000000000000000000000815260206004820181905260248201527f4f776e61626c653a2063616c6c6572206973206e6f7420746865206f776e6572604482015260640161053d565b60005b81811015610a6357600160008484848181106120aa576120aa613bb9565b90506020020160208101906120bf91906135f7565b73ffffffffffffffffffffffffffffffffffffffff16815260208101919091526040016000205460ff161515600114156120f857612178565b600180600085858581811061210f5761210f613bb9565b905060200201602081019061212491906135f7565b73ffffffffffffffffffffffffffffffffffffffff168152602081019190915260400160002080547fffffffffffffffffffffffffffffffffffffffffffffffffffffffffffffff00169115159190911790555b8061218281613b22565b91505061208c565b60005473ffffffffffffffffffffffffffffffffffffffff16331461220b576040517f08c379a000000000000000000000000000000000000000000000000000000000815260206004820181905260248201527f4f776e61626c653a2063616c6c6572206973206e6f7420746865206f776e6572604482015260640161053d565b610a6360058383613486565b60005473ffffffffffffffffffffffffffffffffffffffff163314612298576040517f08c379a000000000000000000000000000000000000000000000000000000000815260206004820181905260248201527f4f776e61626c653a2063616c6c6572206973206e6f7420746865206f776e6572604482015260640161053d565b73ffffffffffffffffffffffffffffffffffffffff811661233b576040517f08c379a000000000000000000000000000000000000000000000000000000000815260206004820152602660248201527f4f776e61626c653a206e6577206f776e657220697320746865207a65726f206160448201527f6464726573730000000000000000000000000000000000000000000000000000606482015260840161053d565b6106098161288d565b60005473ffffffffffffffffffffffffffffffffffffffff1633146123c5576040517f08c379a000000000000000000000000000000000000000000000000000000000815260206004820181905260248201527f4f776e61626c653a2063616c6c6572206973206e6f7420746865206f776e6572604482015260640161053d565b73ffffffffffffffffffffffffffffffffffffffff166000908152600a6020526040812055565b60008060006123fb8585612c95565b9150915061240881612d05565b5090505b92915050565b600061241e8284613aa2565b9392505050565b600061241e8284613a67565b600061241e8284613adf565b6040805173ffffffffffffffffffffffffffffffffffffffff85811660248301528416604482015260648082018490528251808303909101815260849091019091526020810180517bffffffffffffffffffffffffffffffffffffffffffffffffffffffff167f23b872dd000000000000000000000000000000000000000000000000000000001790526124d2908590612f5e565b50505050565b602080820135907f09c643f1cf9ad1a76f1e3b75978fd2474e4ff9377fc9fba60f1d897f287928df9061251190604086019086016135f7565b61252160608601604087016135f7565b61252e60208701876135f7565b336004546040805173ffffffffffffffffffffffffffffffffffffffff9687168152948616602086015292851684840152931660608381019190915286356080808501919091529187013560a084015286013560c083015285013560e08201526101008101919091526101200160405180910390a25050565b60005473ffffffffffffffffffffffffffffffffffffffff163314612628576040517f08c379a000000000000000000000000000000000000000000000000000000000815260206004820181905260248201527f4f776e61626c653a2063616c6c6572206973206e6f7420746865206f776e6572604482015260640161053d565b60065468010000000000000000900467ffffffffffffffff1642108015906126705750600654700100000000000000000000000000000000900467ffffffffffffffff164211155b6126fc576040517f08c379a000000000000000000000000000000000000000000000000000000000815260206004820152602160248201527f4d61726b6574706c616365236e6f745f696e5f77686974656c6973745f73616c60448201527f6500000000000000000000000000000000000000000000000000000000000000606482015260840161053d565b6000811161278c576040517f08c379a000000000000000000000000000000000000000000000000000000000815260206004820152603660248201527f4d61726b6574706c6163652373657457686974656c6973743a616d6f756e745f60448201527f6d7573745f62655f677265617465725f7468616e5f3000000000000000000000606482015260840161053d565b60056001815481106127a0576127a0613bb9565b90600052602060002090601091828204019190066002029054906101000a900461ffff1661ffff16816008546127d69190613a4f565b1115612864576040517f08c379a000000000000000000000000000000000000000000000000000000000815260206004820152602b60248201527f4d61726b6574706c6163652373657457686974656c6973743a726f756e645f6960448201527f735f66756c66696c6c6564000000000000000000000000000000000000000000606482015260840161053d565b73ffffffffffffffffffffffffffffffffffffffff9091166000908152600a6020526040902055565b6000805473ffffffffffffffffffffffffffffffffffffffff8381167fffffffffffffffffffffffff0000000000000000000000000000000000000000831681178455604051919092169283917f8be0079c531659141344cd1fd0a4f28419497f9722a3daafe3b4186f6b6457e09190a35050565b60005473ffffffffffffffffffffffffffffffffffffffff163314612983576040517f08c379a000000000000000000000000000000000000000000000000000000000815260206004820181905260248201527f4f776e61626c653a2063616c6c6572206973206e6f7420746865206f776e6572604482015260640161053d565b60065468010000000000000000900467ffffffffffffffff16421080156129b6575060065467ffffffffffffffff164210155b612a42576040517f08c379a000000000000000000000000000000000000000000000000000000000815260206004820152602a60248201527f4d61726b6574706c61636523736574507269766174653a6e6f745f696e5f707260448201527f69766174655f73616c6500000000000000000000000000000000000000000000606482015260840161053d565b60008111612ad2576040517f08c379a000000000000000000000000000000000000000000000000000000000815260206004820152603460248201527f4d61726b6574706c61636523736574507269766174653a616d6f756e745f6d7560448201527f73745f62655f677265617465725f7468616e5f30000000000000000000000000606482015260840161053d565b6005600081548110612ae657612ae6613bb9565b90600052602060002090601091828204019190066002029054906101000a900461ffff1661ffff1681600754612b1c9190613a4f565b1115612baa576040517f08c379a000000000000000000000000000000000000000000000000000000000815260206004820152602960248201527f4d61726b6574706c61636523736574507269766174653a726f756e645f69735f60448201527f66756c66696c6c65640000000000000000000000000000000000000000000000606482015260840161053d565b73ffffffffffffffffffffffffffffffffffffffff8216600090815260096020526040812082905560078054839290612be4908490613a4f565b90915550505050565b60005473ffffffffffffffffffffffffffffffffffffffff163314612c6e576040517f08c379a000000000000000000000000000000000000000000000000000000000815260206004820181905260248201527f4f776e61626c653a2063616c6c6572206973206e6f7420746865206f776e6572604482015260640161053d565b73ffffffffffffffffffffffffffffffffffffffff16600090815260096020526040812055565b600080825160411415612ccc5760208301516040840151606085015160001a612cc08782858561306a565b94509450505050612cfe565b825160401415612cf65760208301516040840151612ceb868383613182565b935093505050612cfe565b506000905060025b9250929050565b6000816004811115612d1957612d19613b8a565b1415612d225750565b6001816004811115612d3657612d36613b8a565b1415612d9e576040517f08c379a000000000000000000000000000000000000000000000000000000000815260206004820152601860248201527f45434453413a20696e76616c6964207369676e61747572650000000000000000604482015260640161053d565b6002816004811115612db257612db2613b8a565b1415612e1a576040517f08c379a000000000000000000000000000000000000000000000000000000000815260206004820152601f60248201527f45434453413a20696e76616c6964207369676e6174757265206c656e67746800604482015260640161053d565b6003816004811115612e2e57612e2e613b8a565b1415612ebc576040517f08c379a000000000000000000000000000000000000000000000000000000000815260206004820152602260248201527f45434453413a20696e76616c6964207369676e6174757265202773272076616c60448201527f7565000000000000000000000000000000000000000000000000000000000000606482015260840161053d565b6004816004811115612ed057612ed0613b8a565b1415610609576040517f08c379a000000000000000000000000000000000000000000000000000000000815260206004820152602260248201527f45434453413a20696e76616c6964207369676e6174757265202776272076616c60448201527f7565000000000000000000000000000000000000000000000000000000000000606482015260840161053d565b6000612fc0826040518060400160405280602081526020017f5361666545524332303a206c6f772d6c6576656c2063616c6c206661696c65648152508573ffffffffffffffffffffffffffffffffffffffff166131d49092919063ffffffff16565b805190915015610a635780806020019051810190612fde9190613829565b610a63576040517f08c379a000000000000000000000000000000000000000000000000000000000815260206004820152602a60248201527f5361666545524332303a204552433230206f7065726174696f6e20646964206e60448201527f6f74207375636365656400000000000000000000000000000000000000000000606482015260840161053d565b6000807f7fffffffffffffffffffffffffffffff5d576e7357a4501ddfe92f46681b20a08311156130a15750600090506003613179565b8460ff16601b141580156130b957508460ff16601c14155b156130ca5750600090506004613179565b6040805160008082526020820180845289905260ff881692820192909252606081018690526080810185905260019060a0016020604051602081039080840390855afa15801561311e573d6000803e3d6000fd5b50506040517fffffffffffffffffffffffffffffffffffffffffffffffffffffffffffffffe0015191505073ffffffffffffffffffffffffffffffffffffffff811661317257600060019250925050613179565b9150600090505b94509492505050565b6000807f7fffffffffffffffffffffffffffffffffffffffffffffffffffffffffffffff8316816131b860ff86901c601b613a4f565b90506131c68782888561306a565b935093505050935093915050565b60606131e384846000856131eb565b949350505050565b60608247101561327d576040517f08c379a000000000000000000000000000000000000000000000000000000000815260206004820152602660248201527f416464726573733a20696e73756666696369656e742062616c616e636520666f60448201527f722063616c6c0000000000000000000000000000000000000000000000000000606482015260840161053d565b73ffffffffffffffffffffffffffffffffffffffff85163b6132fb576040517f08c379a000000000000000000000000000000000000000000000000000000000815260206004820152601d60248201527f416464726573733a2063616c6c20746f206e6f6e2d636f6e7472616374000000604482015260640161053d565b6000808673ffffffffffffffffffffffffffffffffffffffff168587604051613324919061395c565b60006040518083038185875af1925050503d8060008114613361576040519150601f19603f3d011682016040523d82523d6000602084013e613366565b606091505b5091509150613376828286613381565b979650505050505050565b6060831561339057508161241e565b8251156133a05782518084602001fd5b816040517f08c379a000000000000000000000000000000000000000000000000000000000815260040161053d91906139fe565b6001830191839082156134765791602002820160005b8382111561344057833567ffffffffffffffff1683826101000a81548167ffffffffffffffff021916908367ffffffffffffffff16021790555092602001926008016020816007010492830192600103026133ea565b80156134745782816101000a81549067ffffffffffffffff0219169055600801602081600701049283019260010302613440565b505b50613482929150613521565b5090565b82805482825590600052602060002090600f016010900481019282156134765791602002820160005b838211156134f357833561ffff1683826101000a81548161ffff021916908361ffff16021790555092602001926002016020816001010492830192600103026134af565b80156134745782816101000a81549061ffff02191690556002016020816001010492830192600103026134f3565b5b808211156134825760008155600101613522565b803573ffffffffffffffffffffffffffffffffffffffff8116811461355a57600080fd5b919050565b806060810183101561240c57600080fd5b60008083601f84011261358257600080fd5b50813567ffffffffffffffff81111561359a57600080fd5b6020830191508360208260051b8501011115612cfe57600080fd5b60008083601f8401126135c757600080fd5b50813567ffffffffffffffff8111156135df57600080fd5b602083019150836020828501011115612cfe57600080fd5b60006020828403121561360957600080fd5b61241e82613536565b600080600080600080600080610100898b03121561362f57600080fd5b61363889613536565b975061364660208a01613536565b965061365460408a01613536565b979a96995096976060810135975060808101359660a0820135965060c0820135955060e0909101359350915050565b6000806040838503121561369657600080fd5b61369f83613536565b946020939093013593505050565b60008060008061010085870312156136c457600080fd5b60408501868111156136d557600080fd5b85945060e08601878111156136e957600080fd5b9093503567ffffffffffffffff81111561370257600080fd5b61370e878288016135b5565b95989497509550505050565b600080600080610140858703121561373157600080fd5b61373b868661355f565b935061012085018681111561374f57600080fd5b6060860193503567ffffffffffffffff81111561370257600080fd5b6000806020838503121561377e57600080fd5b823567ffffffffffffffff81111561379557600080fd5b6137a185828601613570565b90969095509350505050565b600080600080604085870312156137c357600080fd5b843567ffffffffffffffff808211156137db57600080fd5b6137e788838901613570565b9096509450602087013591508082111561380057600080fd5b5061370e87828801613570565b60006060828403121561381f57600080fd5b61241e838361355f565b60006020828403121561383b57600080fd5b8151801515811461241e57600080fd5b60006020828403121561385d57600080fd5b813567ffffffffffffffff8082111561387557600080fd5b818401915084601f83011261388957600080fd5b81358181111561389b5761389b613be8565b604051601f82017fffffffffffffffffffffffffffffffffffffffffffffffffffffffffffffffe0908116603f011681019083821181831017156138e1576138e1613be8565b816040528281528760208487010111156138fa57600080fd5b826020860160208301376000928101602001929092525095945050505050565b60006020828403121561392c57600080fd5b5035919050565b60006020828403121561394557600080fd5b5051919050565b8183823760009101908152919050565b6000825161396e818460208701613af6565b9190910192915050565b600073ffffffffffffffffffffffffffffffffffffffff808916835280881660208401525085604083015284606083015260a060808301528260a0830152828460c0840137600060c0848401015260c07fffffffffffffffffffffffffffffffffffffffffffffffffffffffffffffffe0601f8501168301019050979650505050505050565b6020815260008251806020840152613a1d816040850160208701613af6565b601f017fffffffffffffffffffffffffffffffffffffffffffffffffffffffffffffffe0169190910160400192915050565b60008219821115613a6257613a62613b5b565b500190565b600082613a9d577f4e487b7100000000000000000000000000000000000000000000000000000000600052601260045260246000fd5b500490565b6000817fffffffffffffffffffffffffffffffffffffffffffffffffffffffffffffffff0483118215151615613ada57613ada613b5b565b500290565b600082821015613af157613af1613b5b565b500390565b60005b83811015613b11578181015183820152602001613af9565b838111156124d25750506000910152565b60007fffffffffffffffffffffffffffffffffffffffffffffffffffffffffffffffff821415613b5457613b54613b5b565b5060010190565b7f4e487b7100000000000000000000000000000000000000000000000000000000600052601160045260246000fd5b7f4e487b7100000000000000000000000000000000000000000000000000000000600052602160045260246000fd5b7f4e487b7100000000000000000000000000000000000000000000000000000000600052603260045260246000fd5b7f4e487b7100000000000000000000000000000000000000000000000000000000600052604160045260246000fdfea26469706673582212209dd8aaf60a6eb060c03bf0cd03f169cc9d8f2f8ebb9b7c66cf4efaf2bcd9432a64736f6c63430008060033",
  "linkReferences": {},
  "deployedLinkReferences": {}
}