{
  "_format": "hh-sol-artifact-1",
  "contractName": "Marketplace",
  "sourceName": "contracts/nft/Marketplace.sol",
  "abi": [
    {
      "anonymous": false,
      "inputs": [
        {
          "indexed": true,
          "internalType": "uint256",
          "name": "tokenId",
          "type": "uint256"
        },
        {
          "indexed": false,
          "internalType": "address",
          "name": "contractAddress",
          "type": "address"
        },
        {
          "indexed": false,
          "internalType": "uint256",
          "name": "price",
          "type": "uint256"
        },
        {
          "indexed": false,
          "internalType": "address",
          "name": "paymentToken",
          "type": "address"
        },
        {
          "indexed": false,
          "internalType": "address",
          "name": "seller",
          "type": "address"
        },
        {
          "indexed": false,
          "internalType": "address",
          "name": "buyer",
          "type": "address"
        },
        {
          "indexed": false,
          "internalType": "uint256",
          "name": "amount",
          "type": "uint256"
        },
        {
          "indexed": false,
          "internalType": "uint256",
          "name": "fee",
          "type": "uint256"
        }
      ],
      "name": "MatchTransaction",
      "type": "event"
    },
    {
      "anonymous": false,
      "inputs": [
        {
          "indexed": true,
          "internalType": "address",
          "name": "previousOwner",
          "type": "address"
        },
        {
          "indexed": true,
          "internalType": "address",
          "name": "newOwner",
          "type": "address"
        }
      ],
      "name": "OwnershipTransferred",
      "type": "event"
    },
    {
      "inputs": [],
      "name": "feeToAddress",
      "outputs": [
        {
          "internalType": "address",
          "name": "",
          "type": "address"
        }
      ],
      "stateMutability": "view",
      "type": "function"
    },
    {
      "inputs": [
        {
          "internalType": "address",
          "name": "_nftAddress",
          "type": "address"
        },
        {
          "internalType": "uint256",
          "name": "_tokenId",
          "type": "uint256"
        },
        {
          "internalType": "address",
          "name": "_paymentErc20",
          "type": "address"
        },
        {
          "internalType": "uint256",
          "name": "_price",
          "type": "uint256"
        },
        {
          "internalType": "uint256",
          "name": "_saltNonce",
          "type": "uint256"
        }
      ],
      "name": "getMessageHash",
      "outputs": [
        {
          "internalType": "bytes32",
          "name": "",
          "type": "bytes32"
        }
      ],
      "stateMutability": "pure",
      "type": "function"
    },
    {
      "inputs": [
        {
          "internalType": "address[2]",
          "name": "addresses",
          "type": "address[2]"
        },
        {
          "internalType": "uint256[3]",
          "name": "values",
          "type": "uint256[3]"
        },
        {
          "internalType": "bytes",
          "name": "signature",
          "type": "bytes"
        }
      ],
      "name": "ignoreSignature",
      "outputs": [],
      "stateMutability": "nonpayable",
      "type": "function"
    },
    {
      "inputs": [
        {
          "internalType": "address[3]",
          "name": "addresses",
          "type": "address[3]"
        },
        {
          "internalType": "uint256[4]",
          "name": "values",
          "type": "uint256[4]"
        },
        {
          "internalType": "bytes",
          "name": "signature",
          "type": "bytes"
        }
      ],
      "name": "matchTransaction",
      "outputs": [
        {
          "internalType": "bool",
          "name": "",
          "type": "bool"
        }
      ],
      "stateMutability": "nonpayable",
      "type": "function"
    },
    {
      "inputs": [],
      "name": "owner",
      "outputs": [
        {
          "internalType": "address",
          "name": "",
          "type": "address"
        }
      ],
      "stateMutability": "view",
      "type": "function"
    },
    {
      "inputs": [
        {
          "internalType": "address",
          "name": "",
          "type": "address"
        }
      ],
      "name": "paymentTokens",
      "outputs": [
        {
          "internalType": "bool",
          "name": "",
          "type": "bool"
        }
      ],
      "stateMutability": "view",
      "type": "function"
    },
    {
      "inputs": [
        {
          "internalType": "address[]",
          "name": "_removedPaymentTokens",
          "type": "address[]"
        }
      ],
      "name": "removePaymentTokens",
      "outputs": [],
      "stateMutability": "nonpayable",
      "type": "function"
    },
    {
      "inputs": [],
      "name": "renounceOwnership",
      "outputs": [],
      "stateMutability": "nonpayable",
      "type": "function"
    },
    {
      "inputs": [
        {
          "internalType": "address",
          "name": "_feeToAddress",
          "type": "address"
        }
      ],
      "name": "setFeeToAddress",
      "outputs": [],
      "stateMutability": "nonpayable",
      "type": "function"
    },
    {
      "inputs": [
        {
          "internalType": "address[]",
          "name": "_paymentTokens",
          "type": "address[]"
        }
      ],
      "name": "setPaymentTokens",
      "outputs": [],
      "stateMutability": "nonpayable",
      "type": "function"
    },
    {
      "inputs": [
        {
          "internalType": "uint256",
          "name": "_transactionFee",
          "type": "uint256"
        }
      ],
      "name": "setTransactionFee",
      "outputs": [],
      "stateMutability": "nonpayable",
      "type": "function"
    },
    {
      "inputs": [],
      "name": "transactionFee",
      "outputs": [
        {
          "internalType": "uint256",
          "name": "",
          "type": "uint256"
        }
      ],
      "stateMutability": "view",
      "type": "function"
    },
    {
      "inputs": [
        {
          "internalType": "address",
          "name": "newOwner",
          "type": "address"
        }
      ],
      "name": "transferOwnership",
      "outputs": [],
      "stateMutability": "nonpayable",
      "type": "function"
    },
    {
      "inputs": [
        {
          "internalType": "bytes",
          "name": "",
          "type": "bytes"
        }
      ],
      "name": "usedSignatures",
      "outputs": [
        {
          "internalType": "bool",
          "name": "",
          "type": "bool"
        }
      ],
      "stateMutability": "view",
      "type": "function"
    }
  ],
  "bytecode": "0x608060405234801561001057600080fd5b5061001a3361001f565b610094565b6000805473ffffffffffffffffffffffffffffffffffffffff8381167fffffffffffffffffffffffff0000000000000000000000000000000000000000831681178455604051919092169283917f8be0079c531659141344cd1fd0a4f28419497f9722a3daafe3b4186f6b6457e09190a35050565b612390806100a36000396000f3fe608060405234801561001057600080fd5b50600436106100ea5760003560e01c80638da5cb5b1161008c578063c3b88b4211610066578063c3b88b421461026a578063d79f639e1461028d578063e949580e146102a0578063f2fde38b146102ce57600080fd5b80638da5cb5b146102305780639ed3edf01461024e578063b88dccac1461025757600080fd5b80631e5192e5116100c85780631e5192e514610171578063580bb9a51461020257806364e60ef414610215578063715018a61461022857600080fd5b8063083d80f9146100ef578063096a8ab7146101395780630e8b2cab1461014e575b600080fd5b60035461010f9073ffffffffffffffffffffffffffffffffffffffff1681565b60405173ffffffffffffffffffffffffffffffffffffffff90911681526020015b60405180910390f35b61014c61014736600461205d565b6102e1565b005b61016161015c366004611ea7565b61036c565b6040519015158152602001610130565b6101f461017f366004611df0565b6040517fffffffffffffffffffffffffffffffffffffffff000000000000000000000000606087811b821660208401526034830187905285901b166054820152606881018390526088810182905260009060a80160405160208183030381529060405280519060200120905095945050505050565b604051908152602001610130565b61014c610210366004611dd5565b610cf8565b61014c610223366004611ef7565b610dc0565b61014c610ee3565b60005473ffffffffffffffffffffffffffffffffffffffff1661010f565b6101f460045481565b61014c610265366004611ef7565b610f70565b610161610278366004611dd5565b60016020526000908152604090205460ff1681565b61014c61029b366004611e3e565b6110f2565b6101616102ae366004611f8e565b805160208183018101805160028252928201919093012091525460ff1681565b61014c6102dc366004611dd5565b6112d4565b60005473ffffffffffffffffffffffffffffffffffffffff163314610367576040517f08c379a000000000000000000000000000000000000000000000000000000000815260206004820181905260248201527f4f776e61626c653a2063616c6c6572206973206e6f7420746865206f776e657260448201526064015b60405180910390fd5b600455565b60006001816103816060880160408901611dd5565b73ffffffffffffffffffffffffffffffffffffffff16815260208101919091526040016000205460ff16151560011461043c576040517f08c379a000000000000000000000000000000000000000000000000000000000815260206004820152602360248201527f4d61726b6574706c6163653a20696e76616c6964207061796d656e74206d657460448201527f686f640000000000000000000000000000000000000000000000000000000000606482015260840161035e565b6002838360405161044e92919061208f565b9081526040519081900360200190205460ff1615610514576040517f08c379a000000000000000000000000000000000000000000000000000000000815260206004820152604f60248201527f4d61726b6574706c6163653a207369676e617475726520757365642e20706c6560448201527f6173652073656e6420616e6f74686572207472616e73616374696f6e2077697460648201527f68206e6577207369676e61747572650000000000000000000000000000000000608482015260a40161035e565b60006105be6105296040880160208901611dd5565b863561053b60608a0160408b01611dd5565b60208901358960025b60200201356040517fffffffffffffffffffffffffffffffffffffffff000000000000000000000000606087811b821660208401526034830187905285901b166054820152606881018390526088810182905260009060a80160405160208183030381529060405280519060200120905095945050505050565b90506000610619826040517f19457468657265756d205369676e6564204d6573736167653a0a3332000000006020820152603c8101829052600090605c01604051602081830303815290604052805190602001209050919050565b90506106286020880188611dd5565b73ffffffffffffffffffffffffffffffffffffffff1661067e8287878080601f01602080910402602001604051908101604052809392919081815260200183838082843760009201919091525061140492505050565b73ffffffffffffffffffffffffffffffffffffffff1614610721576040517f08c379a000000000000000000000000000000000000000000000000000000000815260206004820152602560248201527f4d61726b6574706c6163653a20696e76616c69642073656c6c6572207369676e60448201527f6174757265000000000000000000000000000000000000000000000000000000606482015260840161035e565b60006107336040890160208a01611dd5565b9050600073ffffffffffffffffffffffffffffffffffffffff821662fdd58e61075f60208c018c611dd5565b60405160e083901b7fffffffff0000000000000000000000000000000000000000000000000000000016815273ffffffffffffffffffffffffffffffffffffffff9190911660048201528a35602482015260440160206040518083038186803b1580156107cb57600080fd5b505afa1580156107df573d6000803e3d6000fd5b505050506040513d601f19601f820116820180604052508101906108039190612076565b11610890576040517f08c379a000000000000000000000000000000000000000000000000000000000815260206004820152603160248201527f4d61726b6574706c6163653a2073656c6c6572206973206e6f74206f776e657260448201527f206f662074686973206974656d206e6f77000000000000000000000000000000606482015260840161035e565b60006108a260608a0160408b01611dd5565b9050602088013573ffffffffffffffffffffffffffffffffffffffff82166370a08231336040517fffffffff0000000000000000000000000000000000000000000000000000000060e084901b16815273ffffffffffffffffffffffffffffffffffffffff909116600482015260240160206040518083038186803b15801561092a57600080fd5b505afa15801561093e573d6000803e3d6000fd5b505050506040513d601f19601f820116820180604052508101906109629190612076565b10156109f0576040517f08c379a000000000000000000000000000000000000000000000000000000000815260206004820152603d60248201527f4d61726b6574706c6163653a20627579657220646f65736e277420686176652060448201527f656e6f75676820746f6b656e20746f206275792074686973206974656d000000606482015260840161035e565b602088013573ffffffffffffffffffffffffffffffffffffffff821663dd62ed3e336040517fffffffff0000000000000000000000000000000000000000000000000000000060e084901b16815273ffffffffffffffffffffffffffffffffffffffff909116600482015230602482015260440160206040518083038186803b158015610a7c57600080fd5b505afa158015610a90573d6000803e3d6000fd5b505050506040513d601f19601f82011682018060405250810190610ab49190612076565b1015610b68576040517f08c379a000000000000000000000000000000000000000000000000000000000815260206004820152604660248201527f4d61726b6574706c6163653a20627579657220646f65736e277420617070726f60448201527f7665206d61726b6574706c61636520746f207370656e64207061796d656e742060648201527f616d6f756e740000000000000000000000000000000000000000000000000000608482015260a40161035e565b600454600090610b8a9061271090610b849060208d013561142a565b9061143d565b90506000610b9c60208b013583611449565b9050610bce33610baf60208e018e611dd5565b73ffffffffffffffffffffffffffffffffffffffff8616919084611455565b8115610bfc57610bfc3360035473ffffffffffffffffffffffffffffffffffffffff86811692911685611455565b73ffffffffffffffffffffffffffffffffffffffff841663f242432a610c2560208e018e611dd5565b338d600060200201358e600360200201358e8e6040518763ffffffff1660e01b8152600401610c59969594939291906120bb565b600060405180830381600087803b158015610c7357600080fd5b505af1158015610c87573d6000803e3d6000fd5b50505050600160028a8a604051610c9f92919061208f565b90815260405190819003602001902080549115157fffffffffffffffffffffffffffffffffffffffffffffffffffffffffffffff00909216919091179055610ce78b8b6114f0565b5060019a9950505050505050505050565b60005473ffffffffffffffffffffffffffffffffffffffff163314610d79576040517f08c379a000000000000000000000000000000000000000000000000000000000815260206004820181905260248201527f4f776e61626c653a2063616c6c6572206973206e6f7420746865206f776e6572604482015260640161035e565b600380547fffffffffffffffffffffffff00000000000000000000000000000000000000001673ffffffffffffffffffffffffffffffffffffffff92909216919091179055565b60005473ffffffffffffffffffffffffffffffffffffffff163314610e41576040517f08c379a000000000000000000000000000000000000000000000000000000000815260206004820181905260248201527f4f776e61626c653a2063616c6c6572206973206e6f7420746865206f776e6572604482015260640161035e565b60005b81811015610ede57600060016000858585818110610e6457610e646122fc565b9050602002016020810190610e799190611dd5565b73ffffffffffffffffffffffffffffffffffffffff168152602081019190915260400160002080547fffffffffffffffffffffffffffffffffffffffffffffffffffffffffffffff001691151591909117905580610ed681612265565b915050610e44565b505050565b60005473ffffffffffffffffffffffffffffffffffffffff163314610f64576040517f08c379a000000000000000000000000000000000000000000000000000000000815260206004820181905260248201527f4f776e61626c653a2063616c6c6572206973206e6f7420746865206f776e6572604482015260640161035e565b610f6e60006115a5565b565b60005473ffffffffffffffffffffffffffffffffffffffff163314610ff1576040517f08c379a000000000000000000000000000000000000000000000000000000000815260206004820181905260248201527f4f776e61626c653a2063616c6c6572206973206e6f7420746865206f776e6572604482015260640161035e565b60005b81811015610ede5760016000848484818110611012576110126122fc565b90506020020160208101906110279190611dd5565b73ffffffffffffffffffffffffffffffffffffffff16815260208101919091526040016000205460ff16151560011415611060576110e0565b6001806000858585818110611077576110776122fc565b905060200201602081019061108c9190611dd5565b73ffffffffffffffffffffffffffffffffffffffff168152602081019190915260400160002080547fffffffffffffffffffffffffffffffffffffffffffffffffffffffffffffff00169115159190911790555b806110ea81612265565b915050610ff4565b60006111236111046020870187611dd5565b85356111166040890160208a01611dd5565b6020880135886002610544565b9050600061117e826040517f19457468657265756d205369676e6564204d6573736167653a0a3332000000006020820152603c8101829052600090605c01604051602081830303815290604052805190602001209050919050565b90503373ffffffffffffffffffffffffffffffffffffffff166111d78286868080601f01602080910402602001604051908101604052809392919081815260200183838082843760009201919091525061140492505050565b73ffffffffffffffffffffffffffffffffffffffff161461127a576040517f08c379a000000000000000000000000000000000000000000000000000000000815260206004820152602560248201527f4d61726b6574706c6163653a20696e76616c69642073656c6c6572207369676e60448201527f6174757265000000000000000000000000000000000000000000000000000000606482015260840161035e565b60016002858560405161128e92919061208f565b90815260405190819003602001902080549115157fffffffffffffffffffffffffffffffffffffffffffffffffffffffffffffff00909216919091179055505050505050565b60005473ffffffffffffffffffffffffffffffffffffffff163314611355576040517f08c379a000000000000000000000000000000000000000000000000000000000815260206004820181905260248201527f4f776e61626c653a2063616c6c6572206973206e6f7420746865206f776e6572604482015260640161035e565b73ffffffffffffffffffffffffffffffffffffffff81166113f8576040517f08c379a000000000000000000000000000000000000000000000000000000000815260206004820152602660248201527f4f776e61626c653a206e6577206f776e657220697320746865207a65726f206160448201527f6464726573730000000000000000000000000000000000000000000000000000606482015260840161035e565b611401816115a5565b50565b6000806000611413858561161a565b915091506114208161168a565b5090505b92915050565b600061143682846121e5565b9392505050565b600061143682846121aa565b60006114368284612222565b6040805173ffffffffffffffffffffffffffffffffffffffff85811660248301528416604482015260648082018490528251808303909101815260849091019091526020810180517bffffffffffffffffffffffffffffffffffffffffffffffffffffffff167f23b872dd000000000000000000000000000000000000000000000000000000001790526114ea9085906118e3565b50505050565b80357f885d232d43996401badede9c7e7b6b0720474c2b76977ac05e5526644d382f386115236040850160208601611dd5565b60208401356115386060870160408801611dd5565b6115456020880188611dd5565b6004546040805173ffffffffffffffffffffffffffffffffffffffff9687168152602081019590955292851684840152931660608084019190915233608084015286013560a083015260c082019290925290519081900360e00190a25050565b6000805473ffffffffffffffffffffffffffffffffffffffff8381167fffffffffffffffffffffffff0000000000000000000000000000000000000000831681178455604051919092169283917f8be0079c531659141344cd1fd0a4f28419497f9722a3daafe3b4186f6b6457e09190a35050565b6000808251604114156116515760208301516040840151606085015160001a611645878285856119ef565b94509450505050611683565b82516040141561167b5760208301516040840151611670868383611b07565b935093505050611683565b506000905060025b9250929050565b600081600481111561169e5761169e6122cd565b14156116a75750565b60018160048111156116bb576116bb6122cd565b1415611723576040517f08c379a000000000000000000000000000000000000000000000000000000000815260206004820152601860248201527f45434453413a20696e76616c6964207369676e61747572650000000000000000604482015260640161035e565b6002816004811115611737576117376122cd565b141561179f576040517f08c379a000000000000000000000000000000000000000000000000000000000815260206004820152601f60248201527f45434453413a20696e76616c6964207369676e6174757265206c656e67746800604482015260640161035e565b60038160048111156117b3576117b36122cd565b1415611841576040517f08c379a000000000000000000000000000000000000000000000000000000000815260206004820152602260248201527f45434453413a20696e76616c6964207369676e6174757265202773272076616c60448201527f7565000000000000000000000000000000000000000000000000000000000000606482015260840161035e565b6004816004811115611855576118556122cd565b1415611401576040517f08c379a000000000000000000000000000000000000000000000000000000000815260206004820152602260248201527f45434453413a20696e76616c6964207369676e6174757265202776272076616c60448201527f7565000000000000000000000000000000000000000000000000000000000000606482015260840161035e565b6000611945826040518060400160405280602081526020017f5361666545524332303a206c6f772d6c6576656c2063616c6c206661696c65648152508573ffffffffffffffffffffffffffffffffffffffff16611b599092919063ffffffff16565b805190915015610ede57808060200190518101906119639190611f6c565b610ede576040517f08c379a000000000000000000000000000000000000000000000000000000000815260206004820152602a60248201527f5361666545524332303a204552433230206f7065726174696f6e20646964206e60448201527f6f74207375636365656400000000000000000000000000000000000000000000606482015260840161035e565b6000807f7fffffffffffffffffffffffffffffff5d576e7357a4501ddfe92f46681b20a0831115611a265750600090506003611afe565b8460ff16601b14158015611a3e57508460ff16601c14155b15611a4f5750600090506004611afe565b6040805160008082526020820180845289905260ff881692820192909252606081018690526080810185905260019060a0016020604051602081039080840390855afa158015611aa3573d6000803e3d6000fd5b50506040517fffffffffffffffffffffffffffffffffffffffffffffffffffffffffffffffe0015191505073ffffffffffffffffffffffffffffffffffffffff8116611af757600060019250925050611afe565b9150600090505b94509492505050565b6000807f7fffffffffffffffffffffffffffffffffffffffffffffffffffffffffffffff831681611b3d60ff86901c601b612192565b9050611b4b878288856119ef565b935093505050935093915050565b6060611b688484600085611b70565b949350505050565b606082471015611c02576040517f08c379a000000000000000000000000000000000000000000000000000000000815260206004820152602660248201527f416464726573733a20696e73756666696369656e742062616c616e636520666f60448201527f722063616c6c0000000000000000000000000000000000000000000000000000606482015260840161035e565b73ffffffffffffffffffffffffffffffffffffffff85163b611c80576040517f08c379a000000000000000000000000000000000000000000000000000000000815260206004820152601d60248201527f416464726573733a2063616c6c20746f206e6f6e2d636f6e7472616374000000604482015260640161035e565b6000808673ffffffffffffffffffffffffffffffffffffffff168587604051611ca9919061209f565b60006040518083038185875af1925050503d8060008114611ce6576040519150601f19603f3d011682016040523d82523d6000602084013e611ceb565b606091505b5091509150611cfb828286611d06565b979650505050505050565b60608315611d15575081611436565b825115611d255782518084602001fd5b816040517f08c379a000000000000000000000000000000000000000000000000000000000815260040161035e9190612141565b803573ffffffffffffffffffffffffffffffffffffffff81168114611d7d57600080fd5b919050565b806060810183101561142457600080fd5b60008083601f840112611da557600080fd5b50813567ffffffffffffffff811115611dbd57600080fd5b60208301915083602082850101111561168357600080fd5b600060208284031215611de757600080fd5b61143682611d59565b600080600080600060a08688031215611e0857600080fd5b611e1186611d59565b945060208601359350611e2660408701611d59565b94979396509394606081013594506080013592915050565b60008060008060c08587031215611e5457600080fd5b6040850186811115611e6557600080fd5b859450611e728782611d82565b93505060a085013567ffffffffffffffff811115611e8f57600080fd5b611e9b87828801611d93565b95989497509550505050565b6000806000806101008587031215611ebe57600080fd5b611ec88686611d82565b935060e0850186811115611edb57600080fd5b6060860193503567ffffffffffffffff811115611e8f57600080fd5b60008060208385031215611f0a57600080fd5b823567ffffffffffffffff80821115611f2257600080fd5b818501915085601f830112611f3657600080fd5b813581811115611f4557600080fd5b8660208260051b8501011115611f5a57600080fd5b60209290920196919550909350505050565b600060208284031215611f7e57600080fd5b8151801515811461143657600080fd5b600060208284031215611fa057600080fd5b813567ffffffffffffffff80821115611fb857600080fd5b818401915084601f830112611fcc57600080fd5b813581811115611fde57611fde61232b565b604051601f82017fffffffffffffffffffffffffffffffffffffffffffffffffffffffffffffffe0908116603f011681019083821181831017156120245761202461232b565b8160405282815287602084870101111561203d57600080fd5b826020860160208301376000928101602001929092525095945050505050565b60006020828403121561206f57600080fd5b5035919050565b60006020828403121561208857600080fd5b5051919050565b8183823760009101908152919050565b600082516120b1818460208701612239565b9190910192915050565b600073ffffffffffffffffffffffffffffffffffffffff808916835280881660208401525085604083015284606083015260a060808301528260a0830152828460c0840137600060c0848401015260c07fffffffffffffffffffffffffffffffffffffffffffffffffffffffffffffffe0601f8501168301019050979650505050505050565b6020815260008251806020840152612160816040850160208701612239565b601f017fffffffffffffffffffffffffffffffffffffffffffffffffffffffffffffffe0169190910160400192915050565b600082198211156121a5576121a561229e565b500190565b6000826121e0577f4e487b7100000000000000000000000000000000000000000000000000000000600052601260045260246000fd5b500490565b6000817fffffffffffffffffffffffffffffffffffffffffffffffffffffffffffffffff048311821515161561221d5761221d61229e565b500290565b6000828210156122345761223461229e565b500390565b60005b8381101561225457818101518382015260200161223c565b838111156114ea5750506000910152565b60007fffffffffffffffffffffffffffffffffffffffffffffffffffffffffffffffff8214156122975761229761229e565b5060010190565b7f4e487b7100000000000000000000000000000000000000000000000000000000600052601160045260246000fd5b7f4e487b7100000000000000000000000000000000000000000000000000000000600052602160045260246000fd5b7f4e487b7100000000000000000000000000000000000000000000000000000000600052603260045260246000fd5b7f4e487b7100000000000000000000000000000000000000000000000000000000600052604160045260246000fdfea2646970667358221220b69369053684c52211abb03e671a4048afb977efb28c9ed14781269a3348649364736f6c63430008060033",
  "linkReferences": {},
  "deployedLinkReferences": {}
}