{
  "_format": "hh-sol-artifact-1",
  "contractName": "Marketplace",
  "sourceName": "contracts/nft/Marketplace.sol",
  "abi": [
    {
      "anonymous": false,
      "inputs": [
        {
          "indexed": true,
          "internalType": "uint256",
          "name": "tokenId",
          "type": "uint256"
        },
        {
          "indexed": false,
          "internalType": "address",
          "name": "contractAddress",
          "type": "address"
        },
        {
          "indexed": false,
          "internalType": "address",
          "name": "paymentToken",
          "type": "address"
        },
        {
          "indexed": false,
          "internalType": "address",
          "name": "seller",
          "type": "address"
        },
        {
          "indexed": false,
          "internalType": "address",
          "name": "buyer",
          "type": "address"
        },
        {
          "indexed": false,
          "internalType": "uint256",
          "name": "round",
          "type": "uint256"
        },
        {
          "indexed": false,
          "internalType": "uint256",
          "name": "price",
          "type": "uint256"
        },
        {
          "indexed": false,
          "internalType": "uint256",
          "name": "buyerAmount",
          "type": "uint256"
        },
        {
          "indexed": false,
          "internalType": "uint256",
          "name": "sellerAmount",
          "type": "uint256"
        },
        {
          "indexed": false,
          "internalType": "uint256",
          "name": "fee",
          "type": "uint256"
        }
      ],
      "name": "MatchTransaction",
      "type": "event"
    },
    {
      "anonymous": false,
      "inputs": [
        {
          "indexed": true,
          "internalType": "address",
          "name": "previousOwner",
          "type": "address"
        },
        {
          "indexed": true,
          "internalType": "address",
          "name": "newOwner",
          "type": "address"
        }
      ],
      "name": "OwnershipTransferred",
      "type": "event"
    },
    {
      "inputs": [],
      "name": "feeToAddress",
      "outputs": [
        {
          "internalType": "address",
          "name": "",
          "type": "address"
        }
      ],
      "stateMutability": "view",
      "type": "function"
    },
    {
      "inputs": [
        {
          "internalType": "address",
          "name": "_nftAddress",
          "type": "address"
        },
        {
          "internalType": "address",
          "name": "_buyerAddress",
          "type": "address"
        },
        {
          "internalType": "address",
          "name": "_paymentErc20",
          "type": "address"
        },
        {
          "internalType": "uint256",
          "name": "_roundId",
          "type": "uint256"
        },
        {
          "internalType": "uint256",
          "name": "_tokenId",
          "type": "uint256"
        },
        {
          "internalType": "uint256",
          "name": "_price",
          "type": "uint256"
        },
        {
          "internalType": "uint256",
          "name": "_amount",
          "type": "uint256"
        },
        {
          "internalType": "uint256",
          "name": "_saltNonce",
          "type": "uint256"
        }
      ],
      "name": "getMessageHash",
      "outputs": [
        {
          "internalType": "bytes32",
          "name": "",
          "type": "bytes32"
        }
      ],
      "stateMutability": "pure",
      "type": "function"
    },
    {
      "inputs": [
        {
          "internalType": "address[2]",
          "name": "addresses",
          "type": "address[2]"
        },
        {
          "internalType": "uint256[5]",
          "name": "values",
          "type": "uint256[5]"
        },
        {
          "internalType": "bytes",
          "name": "signature",
          "type": "bytes"
        }
      ],
      "name": "ignoreSignature",
      "outputs": [],
      "stateMutability": "nonpayable",
      "type": "function"
    },
    {
      "inputs": [
        {
          "internalType": "address[3]",
          "name": "addresses",
          "type": "address[3]"
        },
        {
          "internalType": "uint256[6]",
          "name": "values",
          "type": "uint256[6]"
        },
        {
          "internalType": "bytes",
          "name": "signature",
          "type": "bytes"
        }
      ],
      "name": "matchTransaction",
      "outputs": [
        {
          "internalType": "bool",
          "name": "",
          "type": "bool"
        }
      ],
      "stateMutability": "nonpayable",
      "type": "function"
    },
    {
      "inputs": [],
      "name": "owner",
      "outputs": [
        {
          "internalType": "address",
          "name": "",
          "type": "address"
        }
      ],
      "stateMutability": "view",
      "type": "function"
    },
    {
      "inputs": [
        {
          "internalType": "address",
          "name": "",
          "type": "address"
        }
      ],
      "name": "paymentTokens",
      "outputs": [
        {
          "internalType": "bool",
          "name": "",
          "type": "bool"
        }
      ],
      "stateMutability": "view",
      "type": "function"
    },
    {
      "inputs": [
        {
          "internalType": "address",
          "name": "",
          "type": "address"
        }
      ],
      "name": "privateSales",
      "outputs": [
        {
          "internalType": "uint256",
          "name": "",
          "type": "uint256"
        }
      ],
      "stateMutability": "view",
      "type": "function"
    },
    {
      "inputs": [
        {
          "internalType": "address[]",
          "name": "_removedPaymentTokens",
          "type": "address[]"
        }
      ],
      "name": "removePaymentTokens",
      "outputs": [],
      "stateMutability": "nonpayable",
      "type": "function"
    },
    {
      "inputs": [
        {
          "internalType": "address",
          "name": "recv",
          "type": "address"
        }
      ],
      "name": "removePrivate",
      "outputs": [],
      "stateMutability": "nonpayable",
      "type": "function"
    },
    {
      "inputs": [
        {
          "internalType": "address",
          "name": "recv",
          "type": "address"
        }
      ],
      "name": "removeWhitelisth",
      "outputs": [],
      "stateMutability": "nonpayable",
      "type": "function"
    },
    {
      "inputs": [],
      "name": "renounceOwnership",
      "outputs": [],
      "stateMutability": "nonpayable",
      "type": "function"
    },
    {
      "inputs": [
        {
          "internalType": "uint256",
          "name": "",
          "type": "uint256"
        }
      ],
      "name": "rounds",
      "outputs": [
        {
          "internalType": "uint16",
          "name": "",
          "type": "uint16"
        }
      ],
      "stateMutability": "view",
      "type": "function"
    },
    {
      "inputs": [
        {
          "internalType": "address",
          "name": "_feeToAddress",
          "type": "address"
        }
      ],
      "name": "setFeeToAddress",
      "outputs": [],
      "stateMutability": "nonpayable",
      "type": "function"
    },
    {
      "inputs": [
        {
          "internalType": "address[]",
          "name": "_paymentTokens",
          "type": "address[]"
        }
      ],
      "name": "setPaymentTokens",
      "outputs": [],
      "stateMutability": "nonpayable",
      "type": "function"
    },
    {
      "inputs": [
        {
          "internalType": "address",
          "name": "recv",
          "type": "address"
        },
        {
          "internalType": "uint256",
          "name": "amount",
          "type": "uint256"
        }
      ],
      "name": "setPrivate",
      "outputs": [],
      "stateMutability": "nonpayable",
      "type": "function"
    },
    {
      "inputs": [
        {
          "internalType": "address[]",
          "name": "recvs",
          "type": "address[]"
        },
        {
          "internalType": "uint256[]",
          "name": "amounts",
          "type": "uint256[]"
        }
      ],
      "name": "setPrivateBatch",
      "outputs": [],
      "stateMutability": "nonpayable",
      "type": "function"
    },
    {
      "inputs": [
        {
          "internalType": "uint16[]",
          "name": "_rounds",
          "type": "uint16[]"
        }
      ],
      "name": "setRounds",
      "outputs": [],
      "stateMutability": "nonpayable",
      "type": "function"
    },
    {
      "inputs": [
        {
          "internalType": "uint64[3]",
          "name": "_times",
          "type": "uint64[3]"
        }
      ],
      "name": "setTimes",
      "outputs": [],
      "stateMutability": "nonpayable",
      "type": "function"
    },
    {
      "inputs": [
        {
          "internalType": "uint256",
          "name": "_transactionFee",
          "type": "uint256"
        }
      ],
      "name": "setTransactionFee",
      "outputs": [],
      "stateMutability": "nonpayable",
      "type": "function"
    },
    {
      "inputs": [
        {
          "internalType": "address[]",
          "name": "recvs",
          "type": "address[]"
        },
        {
          "internalType": "uint256[]",
          "name": "amounts",
          "type": "uint256[]"
        }
      ],
      "name": "setWhitelistBatch",
      "outputs": [],
      "stateMutability": "nonpayable",
      "type": "function"
    },
    {
      "inputs": [
        {
          "internalType": "uint256",
          "name": "",
          "type": "uint256"
        }
      ],
      "name": "times",
      "outputs": [
        {
          "internalType": "uint64",
          "name": "",
          "type": "uint64"
        }
      ],
      "stateMutability": "view",
      "type": "function"
    },
    {
      "inputs": [],
      "name": "transactionFee",
      "outputs": [
        {
          "internalType": "uint256",
          "name": "",
          "type": "uint256"
        }
      ],
      "stateMutability": "view",
      "type": "function"
    },
    {
      "inputs": [
        {
          "internalType": "address",
          "name": "newOwner",
          "type": "address"
        }
      ],
      "name": "transferOwnership",
      "outputs": [],
      "stateMutability": "nonpayable",
      "type": "function"
    },
    {
      "inputs": [
        {
          "internalType": "bytes",
          "name": "",
          "type": "bytes"
        }
      ],
      "name": "usedSignatures",
      "outputs": [
        {
          "internalType": "uint256",
          "name": "",
          "type": "uint256"
        }
      ],
      "stateMutability": "view",
      "type": "function"
    },
    {
      "inputs": [
        {
          "internalType": "address",
          "name": "",
          "type": "address"
        }
      ],
      "name": "whitelistSales",
      "outputs": [
        {
          "internalType": "uint256",
          "name": "",
          "type": "uint256"
        }
      ],
      "stateMutability": "view",
      "type": "function"
    }
  ],
  "bytecode": "0x60806040523480156200001157600080fd5b506200001d3362000023565b62000098565b6000805473ffffffffffffffffffffffffffffffffffffffff8381167fffffffffffffffffffffffff0000000000000000000000000000000000000000831681178455604051919092169283917f8be0079c531659141344cd1fd0a4f28419497f9722a3daafe3b4186f6b6457e09190a35050565b613b9e80620000a86000396000f3fe608060405234801561001057600080fd5b50600436106101a35760003560e01c80638c65c81f116100ee578063b88dccac11610097578063e949580e11610071578063e949580e146103da578063e9dda24c14610405578063ed3afd5e14610418578063f2fde38b146104ad57600080fd5b8063b88dccac14610384578063c3b88b4214610397578063cbaf4446146103ba57600080fd5b806397d9c1de116100c857806397d9c1de146103555780639ed3edf014610368578063ab4ae1341461037157600080fd5b80638c65c81f146102e35780638da5cb5b146103095780638f29e6f61461032757600080fd5b806364e60ef4116101505780636fab90f71161012a5780636fab90f7146102b5578063715018a6146102c8578063801cc242146102d057600080fd5b806364e60ef41461026c57806368a29f571461027f5780636d5f839f146102a257600080fd5b80632af68c84116101815780632af68c8414610233578063553d7e8a14610246578063580bb9a51461025957600080fd5b8063083d80f9146101a8578063096a8ab7146101f257806320982bce14610207575b600080fd5b6003546101c89073ffffffffffffffffffffffffffffffffffffffff1681565b60405173ffffffffffffffffffffffffffffffffffffffff90911681526020015b60405180910390f35b610205610200366004613487565b6104c0565b005b61021a610215366004613487565b61054b565b60405167ffffffffffffffff90911681526020016101e9565b6102056102413660046134c9565b61057f565b610205610254366004613526565b61060c565b6102056102673660046134c9565b610888565b61020561027a3660046135d8565b610950565b61029261028d36600461362b565b610a73565b60405190151581526020016101e9565b6102056102b036600461367c565b611780565b6102056102c3366004613698565b611812565b610205611acd565b6102056102de3660046136f8565b611b5a565b6102f66102f1366004613487565b611be5565b60405161ffff90911681526020016101e9565b60005473ffffffffffffffffffffffffffffffffffffffff166101c8565b6103476103353660046134c9565b60096020526000908152604090205481565b6040519081526020016101e9565b610205610363366004613698565b611c1d565b61034760045481565b61020561037f3660046134c9565b611ed0565b6102056103923660046135d8565b611f5a565b6102926103a53660046134c9565b60016020526000908152604090205460ff1681565b6103476103c83660046134c9565b600a6020526000908152604090205481565b6103476103e8366004613751565b805160208183018101805160028252928201919093012091525481565b6102056104133660046135d8565b6120dc565b610347610426366004613820565b604080517fffffffffffffffffffffffffffffffffffffffff00000000000000000000000060609a8b1b8116602080840191909152998b1b811660348301529790991b9096166048890152605c880194909452607c870192909252609c86015260bc85015260dc808501919091528151808503909101815260fc9093019052815191012090565b6102056104bb3660046134c9565b612169565b60005473ffffffffffffffffffffffffffffffffffffffff163314610546576040517f08c379a000000000000000000000000000000000000000000000000000000000815260206004820181905260248201527f4f776e61626c653a2063616c6c6572206973206e6f7420746865206f776e657260448201526064015b60405180910390fd5b600455565b6006816003811061055b57600080fd5b60049182820401919006600802915054906101000a900467ffffffffffffffff1681565b60005473ffffffffffffffffffffffffffffffffffffffff163314610600576040517f08c379a000000000000000000000000000000000000000000000000000000000815260206004820181905260248201527f4f776e61626c653a2063616c6c6572206973206e6f7420746865206f776e6572604482015260640161053d565b61060981612296565b50565b60006106d161061e60208701876134c9565b3361062f6040890160208a016134c9565b8735602089013560408a013560608b01358b60045b6020020135604080516060998a1b7fffffffffffffffffffffffffffffffffffffffff000000000000000000000000908116602080840191909152998b1b811660348301529790991b9096166048890152605c880194909452607c870192909252609c86015260bc85015260dc808501919091528151808503909101815260fc9093019052815191012090565b9050600061072c826040517f19457468657265756d205369676e6564204d6573736167653a0a3332000000006020820152603c8101829052600090605c01604051602081830303815290604052805190602001209050919050565b90503373ffffffffffffffffffffffffffffffffffffffff166107858286868080601f01602080910402602001604051908101604052809392919081815260200183838082843760009201919091525061233e92505050565b73ffffffffffffffffffffffffffffffffffffffff1614610828576040517f08c379a000000000000000000000000000000000000000000000000000000000815260206004820152602560248201527f4d61726b6574706c6163653a20696e76616c69642073656c6c6572207369676e60448201527f6174757265000000000000000000000000000000000000000000000000000000606482015260840161053d565b6001610854817fffffffffffffffffffffffffffffffffffffffffffffffffffffffffffffffff6138ef565b61085e9190613906565b6002858560405161087092919061391e565b90815260405190819003602001902055505050505050565b60005473ffffffffffffffffffffffffffffffffffffffff163314610909576040517f08c379a000000000000000000000000000000000000000000000000000000000815260206004820181905260248201527f4f776e61626c653a2063616c6c6572206973206e6f7420746865206f776e6572604482015260640161053d565b600380547fffffffffffffffffffffffff00000000000000000000000000000000000000001673ffffffffffffffffffffffffffffffffffffffff92909216919091179055565b60005473ffffffffffffffffffffffffffffffffffffffff1633146109d1576040517f08c379a000000000000000000000000000000000000000000000000000000000815260206004820181905260248201527f4f776e61626c653a2063616c6c6572206973206e6f7420746865206f776e6572604482015260640161053d565b60005b81811015610a6e576000600160008585858181106109f4576109f4613891565b9050602002016020810190610a0991906134c9565b73ffffffffffffffffffffffffffffffffffffffff168152602081019190915260400160002080547fffffffffffffffffffffffffffffffffffffffffffffffffffffffffffffff001691151591909117905580610a668161392e565b9150506109d4565b505050565b600060018435118015610a8a575060016020850135115b15610b3e57600654700100000000000000000000000000000000900467ffffffffffffffff164211610b3e576040517f08c379a000000000000000000000000000000000000000000000000000000000815260206004820152602860248201527f4d61726b6574706c6163653a544943495f69735f6e6f745f696e5f636f72726560448201527f63745f726f756e64000000000000000000000000000000000000000000000000606482015260840161053d565b8335610d0857602084013515610bb0576040517f08c379a000000000000000000000000000000000000000000000000000000000815260206004820152601c60248201527f4d61726b6574706c6163653a696e76616c69645f746f6b656e5f696400000000604482015260640161053d565b336000908152600960205260409020546080850135148015610bd9575060608401356080850135145b8015610be85750606084013515155b610c4e576040517f08c379a000000000000000000000000000000000000000000000000000000000815260206004820152601a60248201527f4d61726b6574706c6163653a696e76616c69645f616d6f756e74000000000000604482015260640161053d565b6000610c6060608701604088016134c9565b73ffffffffffffffffffffffffffffffffffffffff1614610d03576040517f08c379a000000000000000000000000000000000000000000000000000000000815260206004820152602360248201527f4d61726b6574706c6163653a696e76616c69645f7061796d656e745f6164647260448201527f6573730000000000000000000000000000000000000000000000000000000000606482015260840161053d565b610db0565b600184351415610db057336000908152600a60205260409020546080850135148015610d3b575060608401356080850135145b8015610d4a5750606084013515155b610db0576040517f08c379a000000000000000000000000000000000000000000000000000000000815260206004820152601a60248201527f4d61726b6574706c6163653a696e76616c69645f616d6f756e74000000000000604482015260640161053d565b60016000610dc460608801604089016134c9565b73ffffffffffffffffffffffffffffffffffffffff16815260208101919091526040016000205460ff16151560011480610dfd57508335155b610e89576040517f08c379a000000000000000000000000000000000000000000000000000000000815260206004820152602360248201527f4d61726b6574706c6163653a20696e76616c6964207061796d656e74206d657460448201527f686f640000000000000000000000000000000000000000000000000000000000606482015260840161053d565b60028383604051610e9b92919061391e565b90815260200160405180910390205460001480610eee5750604051608085013590606086013590600290610ed2908790879061391e565b908152602001604051809103902054610eeb9190613906565b11155b610f7a576040517f08c379a000000000000000000000000000000000000000000000000000000000815260206004820152603560248201527f4d61726b6574706c6163653a207369676e61747572652075736564206f72206f60448201527f7574206f662073656c6c65722773206173736574730000000000000000000000606482015260840161053d565b6000610fd6610f8f60408801602089016134c9565b600187351480610fa05750600a8735145b610faa5733610fad565b60005b610fbd60608a0160408b016134c9565b883560208a013560408b013560808c01358c6005610644565b90506000611031826040517f19457468657265756d205369676e6564204d6573736167653a0a3332000000006020820152603c8101829052600090605c01604051602081830303815290604052805190602001209050919050565b905061104060208801886134c9565b73ffffffffffffffffffffffffffffffffffffffff166110968287878080601f01602080910402602001604051908101604052809392919081815260200183838082843760009201919091525061233e92505050565b73ffffffffffffffffffffffffffffffffffffffff1614611139576040517f08c379a000000000000000000000000000000000000000000000000000000000815260206004820152602560248201527f4d61726b6574706c6163653a20696e76616c69642073656c6c6572207369676e60448201527f6174757265000000000000000000000000000000000000000000000000000000606482015260840161053d565b600061114b6040890160208a016134c9565b9050600073ffffffffffffffffffffffffffffffffffffffff821662fdd58e61117760208c018c6134c9565b60405160e083901b7fffffffff0000000000000000000000000000000000000000000000000000000016815273ffffffffffffffffffffffffffffffffffffffff9190911660048201528a356024820152604401602060405180830381865afa1580156111e8573d6000803e3d6000fd5b505050506040513d601f19601f8201168201806040525081019061120c9190613967565b11611299576040517f08c379a000000000000000000000000000000000000000000000000000000000815260206004820152603160248201527f4d61726b6574706c6163653a2073656c6c6572206973206e6f74206f776e657260448201527f206f662074686973206974656d206e6f77000000000000000000000000000000606482015260840161053d565b86351515806112e95750600187351180156112b8575060016020880135115b80156112e9575060006112d160608a0160408b016134c9565b73ffffffffffffffffffffffffffffffffffffffff16145b1561164057600061130060608a0160408b016134c9565b9050604088013573ffffffffffffffffffffffffffffffffffffffff82166370a08231336040517fffffffff0000000000000000000000000000000000000000000000000000000060e084901b16815273ffffffffffffffffffffffffffffffffffffffff9091166004820152602401602060405180830381865afa15801561138d573d6000803e3d6000fd5b505050506040513d601f19601f820116820180604052508101906113b19190613967565b101561143f576040517f08c379a000000000000000000000000000000000000000000000000000000000815260206004820152603d60248201527f4d61726b6574706c6163653a20627579657220646f65736e277420686176652060448201527f656e6f75676820746f6b656e20746f206275792074686973206974656d000000606482015260840161053d565b604088013573ffffffffffffffffffffffffffffffffffffffff821663dd62ed3e336040517fffffffff0000000000000000000000000000000000000000000000000000000060e084901b16815273ffffffffffffffffffffffffffffffffffffffff9091166004820152306024820152604401602060405180830381865afa1580156114d0573d6000803e3d6000fd5b505050506040513d601f19601f820116820180604052508101906114f49190613967565b10156115a8576040517f08c379a000000000000000000000000000000000000000000000000000000000815260206004820152604660248201527f4d61726b6574706c6163653a20627579657220646f65736e277420617070726f60448201527f7665206d61726b6574706c61636520746f207370656e64207061796d656e742060648201527f616d6f756e740000000000000000000000000000000000000000000000000000608482015260a40161053d565b6004546000906115ca90612710906115c49060408d0135612364565b90612377565b905060006115dc60408b013583612383565b905061160e336115ef60208e018e6134c9565b73ffffffffffffffffffffffffffffffffffffffff861691908461238f565b811561163c5761163c3360035473ffffffffffffffffffffffffffffffffffffffff8681169291168561238f565b5050505b73ffffffffffffffffffffffffffffffffffffffff811663f242432a61166960208b018b6134c9565b336040517fffffffff0000000000000000000000000000000000000000000000000000000060e085901b1681526116b492919060208d01359060608e0135908d908d90600401613980565b600060405180830381600087803b1580156116ce57600080fd5b505af11580156116e2573d6000803e3d6000fd5b50505050866003600681106116f9576116f9613891565b60200201356002878760405161171092919061391e565b9081526020016040518091039020600082825461172d9190613906565b9091555050863561174d5733600090815260096020526040812055611768565b60018735141561176857336000908152600a60205260408120555b611772888861242a565b506001979650505050505050565b60005473ffffffffffffffffffffffffffffffffffffffff163314611801576040517f08c379a000000000000000000000000000000000000000000000000000000000815260206004820181905260248201527f4f776e61626c653a2063616c6c6572206973206e6f7420746865206f776e6572604482015260640161053d565b61180e6006826003613325565b5050565b60005473ffffffffffffffffffffffffffffffffffffffff163314611893576040517f08c379a000000000000000000000000000000000000000000000000000000000815260206004820181905260248201527f4f776e61626c653a2063616c6c6572206973206e6f7420746865206f776e6572604482015260640161053d565b828114611922576040517f08c379a000000000000000000000000000000000000000000000000000000000815260206004820152602f60248201527f4d61726b6574706c6163652373657457686974656c69737442617463683a6c6560448201527f6e6774685f6d69736d6174636865640000000000000000000000000000000000606482015260840161053d565b60008282600081811061193757611937613891565b9050602002013590506000600190505b848110156119875783838281811061196157611961613891565b90506020020135826119739190613906565b91508061197f8161392e565b915050611947565b50600560018154811061199c5761199c613891565b90600052602060002090601091828204019190066002029054906101000a900461ffff1661ffff16816008546119d29190613906565b1115611a60576040517f08c379a000000000000000000000000000000000000000000000000000000000815260206004820152603060248201527f4d61726b6574706c6163652373657457686974656c69737442617463683a726f60448201527f756e645f69735f66756c66696c6c656400000000000000000000000000000000606482015260840161053d565b60005b84811015611ac557611ab3868683818110611a8057611a80613891565b9050602002016020810190611a9591906134c9565b858584818110611aa757611aa7613891565b905060200201356124f9565b80611abd8161392e565b915050611a63565b505050505050565b60005473ffffffffffffffffffffffffffffffffffffffff163314611b4e576040517f08c379a000000000000000000000000000000000000000000000000000000000815260206004820181905260248201527f4f776e61626c653a2063616c6c6572206973206e6f7420746865206f776e6572604482015260640161053d565b611b5860006127df565b565b60005473ffffffffffffffffffffffffffffffffffffffff163314611bdb576040517f08c379a000000000000000000000000000000000000000000000000000000000815260206004820181905260248201527f4f776e61626c653a2063616c6c6572206973206e6f7420746865206f776e6572604482015260640161053d565b61180e8282612854565b60058181548110611bf557600080fd5b9060005260206000209060109182820401919006600202915054906101000a900461ffff1681565b60005473ffffffffffffffffffffffffffffffffffffffff163314611c9e576040517f08c379a000000000000000000000000000000000000000000000000000000000815260206004820181905260248201527f4f776e61626c653a2063616c6c6572206973206e6f7420746865206f776e6572604482015260640161053d565b828114611d2d576040517f08c379a000000000000000000000000000000000000000000000000000000000815260206004820152602d60248201527f4d61726b6574706c616365237365745072697661746542617463683a6c656e6760448201527f74685f6d69736d61746368656400000000000000000000000000000000000000606482015260840161053d565b600082826000818110611d4257611d42613891565b9050602002013590506000600190505b84811015611d9257838382818110611d6c57611d6c613891565b9050602002013582611d7e9190613906565b915080611d8a8161392e565b915050611d52565b506005600181548110611da757611da7613891565b90600052602060002090601091828204019190066002029054906101000a900461ffff1661ffff1681600754611ddd9190613906565b1115611e6b576040517f08c379a000000000000000000000000000000000000000000000000000000000815260206004820152602e60248201527f4d61726b6574706c616365237365745072697661746542617463683a726f756e60448201527f645f69735f66756c66696c6c6564000000000000000000000000000000000000606482015260840161053d565b60005b84811015611ac557611ebe868683818110611e8b57611e8b613891565b9050602002016020810190611ea091906134c9565b858584818110611eb257611eb2613891565b90506020020135612854565b80611ec88161392e565b915050611e6e565b60005473ffffffffffffffffffffffffffffffffffffffff163314611f51576040517f08c379a000000000000000000000000000000000000000000000000000000000815260206004820181905260248201527f4f776e61626c653a2063616c6c6572206973206e6f7420746865206f776e6572604482015260640161053d565b61060981612b3e565b60005473ffffffffffffffffffffffffffffffffffffffff163314611fdb576040517f08c379a000000000000000000000000000000000000000000000000000000000815260206004820181905260248201527f4f776e61626c653a2063616c6c6572206973206e6f7420746865206f776e6572604482015260640161053d565b60005b81811015610a6e5760016000848484818110611ffc57611ffc613891565b905060200201602081019061201191906134c9565b73ffffffffffffffffffffffffffffffffffffffff16815260208101919091526040016000205460ff1615156001141561204a576120ca565b600180600085858581811061206157612061613891565b905060200201602081019061207691906134c9565b73ffffffffffffffffffffffffffffffffffffffff168152602081019190915260400160002080547fffffffffffffffffffffffffffffffffffffffffffffffffffffffffffffff00169115159190911790555b806120d48161392e565b915050611fde565b60005473ffffffffffffffffffffffffffffffffffffffff16331461215d576040517f08c379a000000000000000000000000000000000000000000000000000000000815260206004820181905260248201527f4f776e61626c653a2063616c6c6572206973206e6f7420746865206f776e6572604482015260640161053d565b610a6e600583836133d7565b60005473ffffffffffffffffffffffffffffffffffffffff1633146121ea576040517f08c379a000000000000000000000000000000000000000000000000000000000815260206004820181905260248201527f4f776e61626c653a2063616c6c6572206973206e6f7420746865206f776e6572604482015260640161053d565b73ffffffffffffffffffffffffffffffffffffffff811661228d576040517f08c379a000000000000000000000000000000000000000000000000000000000815260206004820152602660248201527f4f776e61626c653a206e6577206f776e657220697320746865207a65726f206160448201527f6464726573730000000000000000000000000000000000000000000000000000606482015260840161053d565b610609816127df565b60005473ffffffffffffffffffffffffffffffffffffffff163314612317576040517f08c379a000000000000000000000000000000000000000000000000000000000815260206004820181905260248201527f4f776e61626c653a2063616c6c6572206973206e6f7420746865206f776e6572604482015260640161053d565b73ffffffffffffffffffffffffffffffffffffffff166000908152600a6020526040812055565b600080600061234d8585612be6565b9150915061235a81612c56565b5090505b92915050565b60006123708284613a06565b9392505050565b60006123708284613a43565b600061237082846138ef565b6040805173ffffffffffffffffffffffffffffffffffffffff85811660248301528416604482015260648082018490528251808303909101815260849091019091526020810180517bffffffffffffffffffffffffffffffffffffffffffffffffffffffff167f23b872dd00000000000000000000000000000000000000000000000000000000179052612424908590612eaf565b50505050565b602080820135907f09c643f1cf9ad1a76f1e3b75978fd2474e4ff9377fc9fba60f1d897f287928df9061246390604086019086016134c9565b61247360608601604087016134c9565b61248060208701876134c9565b336004546040805173ffffffffffffffffffffffffffffffffffffffff9687168152948616602086015292851684840152931660608381019190915286356080808501919091529187013560a084015286013560c083015285013560e08201526101008101919091526101200160405180910390a25050565b60005473ffffffffffffffffffffffffffffffffffffffff16331461257a576040517f08c379a000000000000000000000000000000000000000000000000000000000815260206004820181905260248201527f4f776e61626c653a2063616c6c6572206973206e6f7420746865206f776e6572604482015260640161053d565b60065468010000000000000000900467ffffffffffffffff1642108015906125c25750600654700100000000000000000000000000000000900467ffffffffffffffff164211155b61264e576040517f08c379a000000000000000000000000000000000000000000000000000000000815260206004820152602160248201527f4d61726b6574706c616365236e6f745f696e5f77686974656c6973745f73616c60448201527f6500000000000000000000000000000000000000000000000000000000000000606482015260840161053d565b600081116126de576040517f08c379a000000000000000000000000000000000000000000000000000000000815260206004820152603660248201527f4d61726b6574706c6163652373657457686974656c6973743a616d6f756e745f60448201527f6d7573745f62655f677265617465725f7468616e5f3000000000000000000000606482015260840161053d565b60056001815481106126f2576126f2613891565b90600052602060002090601091828204019190066002029054906101000a900461ffff1661ffff16816008546127289190613906565b11156127b6576040517f08c379a000000000000000000000000000000000000000000000000000000000815260206004820152602b60248201527f4d61726b6574706c6163652373657457686974656c6973743a726f756e645f6960448201527f735f66756c66696c6c6564000000000000000000000000000000000000000000606482015260840161053d565b73ffffffffffffffffffffffffffffffffffffffff9091166000908152600a6020526040902055565b6000805473ffffffffffffffffffffffffffffffffffffffff8381167fffffffffffffffffffffffff0000000000000000000000000000000000000000831681178455604051919092169283917f8be0079c531659141344cd1fd0a4f28419497f9722a3daafe3b4186f6b6457e09190a35050565b60005473ffffffffffffffffffffffffffffffffffffffff1633146128d5576040517f08c379a000000000000000000000000000000000000000000000000000000000815260206004820181905260248201527f4f776e61626c653a2063616c6c6572206973206e6f7420746865206f776e6572604482015260640161053d565b60065468010000000000000000900467ffffffffffffffff1642108015612907575060065467ffffffffffffffff1642105b612993576040517f08c379a000000000000000000000000000000000000000000000000000000000815260206004820152602a60248201527f4d61726b6574706c61636523736574507269766174653a6e6f745f696e5f707260448201527f69766174655f73616c6500000000000000000000000000000000000000000000606482015260840161053d565b60008111612a23576040517f08c379a000000000000000000000000000000000000000000000000000000000815260206004820152603460248201527f4d61726b6574706c61636523736574507269766174653a616d6f756e745f6d7560448201527f73745f62655f677265617465725f7468616e5f30000000000000000000000000606482015260840161053d565b6005600081548110612a3757612a37613891565b90600052602060002090601091828204019190066002029054906101000a900461ffff1661ffff1681600754612a6d9190613906565b1115612afb576040517f08c379a000000000000000000000000000000000000000000000000000000000815260206004820152602960248201527f4d61726b6574706c61636523736574507269766174653a726f756e645f69735f60448201527f66756c66696c6c65640000000000000000000000000000000000000000000000606482015260840161053d565b73ffffffffffffffffffffffffffffffffffffffff8216600090815260096020526040812082905560078054839290612b35908490613906565b90915550505050565b60005473ffffffffffffffffffffffffffffffffffffffff163314612bbf576040517f08c379a000000000000000000000000000000000000000000000000000000000815260206004820181905260248201527f4f776e61626c653a2063616c6c6572206973206e6f7420746865206f776e6572604482015260640161053d565b73ffffffffffffffffffffffffffffffffffffffff16600090815260096020526040812055565b600080825160411415612c1d5760208301516040840151606085015160001a612c1187828585612fbb565b94509450505050612c4f565b825160401415612c475760208301516040840151612c3c8683836130d3565b935093505050612c4f565b506000905060025b9250929050565b6000816004811115612c6a57612c6a613a7e565b1415612c735750565b6001816004811115612c8757612c87613a7e565b1415612cef576040517f08c379a000000000000000000000000000000000000000000000000000000000815260206004820152601860248201527f45434453413a20696e76616c6964207369676e61747572650000000000000000604482015260640161053d565b6002816004811115612d0357612d03613a7e565b1415612d6b576040517f08c379a000000000000000000000000000000000000000000000000000000000815260206004820152601f60248201527f45434453413a20696e76616c6964207369676e6174757265206c656e67746800604482015260640161053d565b6003816004811115612d7f57612d7f613a7e565b1415612e0d576040517f08c379a000000000000000000000000000000000000000000000000000000000815260206004820152602260248201527f45434453413a20696e76616c6964207369676e6174757265202773272076616c60448201527f7565000000000000000000000000000000000000000000000000000000000000606482015260840161053d565b6004816004811115612e2157612e21613a7e565b1415610609576040517f08c379a000000000000000000000000000000000000000000000000000000000815260206004820152602260248201527f45434453413a20696e76616c6964207369676e6174757265202776272076616c60448201527f7565000000000000000000000000000000000000000000000000000000000000606482015260840161053d565b6000612f11826040518060400160405280602081526020017f5361666545524332303a206c6f772d6c6576656c2063616c6c206661696c65648152508573ffffffffffffffffffffffffffffffffffffffff166131259092919063ffffffff16565b805190915015610a6e5780806020019051810190612f2f9190613aad565b610a6e576040517f08c379a000000000000000000000000000000000000000000000000000000000815260206004820152602a60248201527f5361666545524332303a204552433230206f7065726174696f6e20646964206e60448201527f6f74207375636365656400000000000000000000000000000000000000000000606482015260840161053d565b6000807f7fffffffffffffffffffffffffffffff5d576e7357a4501ddfe92f46681b20a0831115612ff257506000905060036130ca565b8460ff16601b1415801561300a57508460ff16601c14155b1561301b57506000905060046130ca565b6040805160008082526020820180845289905260ff881692820192909252606081018690526080810185905260019060a0016020604051602081039080840390855afa15801561306f573d6000803e3d6000fd5b50506040517fffffffffffffffffffffffffffffffffffffffffffffffffffffffffffffffe0015191505073ffffffffffffffffffffffffffffffffffffffff81166130c3576000600192509250506130ca565b9150600090505b94509492505050565b6000807f7fffffffffffffffffffffffffffffffffffffffffffffffffffffffffffffff83168161310960ff86901c601b613906565b905061311787828885612fbb565b935093505050935093915050565b6060613134848460008561313c565b949350505050565b6060824710156131ce576040517f08c379a000000000000000000000000000000000000000000000000000000000815260206004820152602660248201527f416464726573733a20696e73756666696369656e742062616c616e636520666f60448201527f722063616c6c0000000000000000000000000000000000000000000000000000606482015260840161053d565b73ffffffffffffffffffffffffffffffffffffffff85163b61324c576040517f08c379a000000000000000000000000000000000000000000000000000000000815260206004820152601d60248201527f416464726573733a2063616c6c20746f206e6f6e2d636f6e7472616374000000604482015260640161053d565b6000808673ffffffffffffffffffffffffffffffffffffffff1685876040516132759190613afb565b60006040518083038185875af1925050503d80600081146132b2576040519150601f19603f3d011682016040523d82523d6000602084013e6132b7565b606091505b50915091506132c78282866132d2565b979650505050505050565b606083156132e1575081612370565b8251156132f15782518084602001fd5b816040517f08c379a000000000000000000000000000000000000000000000000000000000815260040161053d9190613b17565b6001830191839082156133c75791602002820160005b8382111561339157833567ffffffffffffffff1683826101000a81548167ffffffffffffffff021916908367ffffffffffffffff160217905550926020019260080160208160070104928301926001030261333b565b80156133c55782816101000a81549067ffffffffffffffff0219169055600801602081600701049283019260010302613391565b505b506133d3929150613472565b5090565b82805482825590600052602060002090600f016010900481019282156133c75791602002820160005b8382111561344457833561ffff1683826101000a81548161ffff021916908361ffff1602179055509260200192600201602081600101049283019260010302613400565b80156133c55782816101000a81549061ffff0219169055600201602081600101049283019260010302613444565b5b808211156133d35760008155600101613473565b60006020828403121561349957600080fd5b5035919050565b803573ffffffffffffffffffffffffffffffffffffffff811681146134c457600080fd5b919050565b6000602082840312156134db57600080fd5b612370826134a0565b60008083601f8401126134f657600080fd5b50813567ffffffffffffffff81111561350e57600080fd5b602083019150836020828501011115612c4f57600080fd5b600080600080610100858703121561353d57600080fd5b604085018681111561354e57600080fd5b85945060e086018781111561356257600080fd5b9093503567ffffffffffffffff81111561357b57600080fd5b613587878288016134e4565b95989497509550505050565b60008083601f8401126135a557600080fd5b50813567ffffffffffffffff8111156135bd57600080fd5b6020830191508360208260051b8501011115612c4f57600080fd5b600080602083850312156135eb57600080fd5b823567ffffffffffffffff81111561360257600080fd5b61360e85828601613593565b90969095509350505050565b806060810183101561235e57600080fd5b600080600080610140858703121561364257600080fd5b61364c868661361a565b935061012085018681111561366057600080fd5b6060860193503567ffffffffffffffff81111561357b57600080fd5b60006060828403121561368e57600080fd5b612370838361361a565b600080600080604085870312156136ae57600080fd5b843567ffffffffffffffff808211156136c657600080fd5b6136d288838901613593565b909650945060208701359150808211156136eb57600080fd5b5061358787828801613593565b6000806040838503121561370b57600080fd5b613714836134a0565b946020939093013593505050565b7f4e487b7100000000000000000000000000000000000000000000000000000000600052604160045260246000fd5b60006020828403121561376357600080fd5b813567ffffffffffffffff8082111561377b57600080fd5b818401915084601f83011261378f57600080fd5b8135818111156137a1576137a1613722565b604051601f82017fffffffffffffffffffffffffffffffffffffffffffffffffffffffffffffffe0908116603f011681019083821181831017156137e7576137e7613722565b8160405282815287602084870101111561380057600080fd5b826020860160208301376000928101602001929092525095945050505050565b600080600080600080600080610100898b03121561383d57600080fd5b613846896134a0565b975061385460208a016134a0565b965061386260408a016134a0565b979a96995096976060810135975060808101359660a0820135965060c0820135955060e0909101359350915050565b7f4e487b7100000000000000000000000000000000000000000000000000000000600052603260045260246000fd5b7f4e487b7100000000000000000000000000000000000000000000000000000000600052601160045260246000fd5b600082821015613901576139016138c0565b500390565b60008219821115613919576139196138c0565b500190565b8183823760009101908152919050565b60007fffffffffffffffffffffffffffffffffffffffffffffffffffffffffffffffff821415613960576139606138c0565b5060010190565b60006020828403121561397957600080fd5b5051919050565b600073ffffffffffffffffffffffffffffffffffffffff808916835280881660208401525085604083015284606083015260a060808301528260a0830152828460c0840137600060c0848401015260c07fffffffffffffffffffffffffffffffffffffffffffffffffffffffffffffffe0601f8501168301019050979650505050505050565b6000817fffffffffffffffffffffffffffffffffffffffffffffffffffffffffffffffff0483118215151615613a3e57613a3e6138c0565b500290565b600082613a79577f4e487b7100000000000000000000000000000000000000000000000000000000600052601260045260246000fd5b500490565b7f4e487b7100000000000000000000000000000000000000000000000000000000600052602160045260246000fd5b600060208284031215613abf57600080fd5b8151801515811461237057600080fd5b60005b83811015613aea578181015183820152602001613ad2565b838111156124245750506000910152565b60008251613b0d818460208701613acf565b9190910192915050565b6020815260008251806020840152613b36816040850160208701613acf565b601f017fffffffffffffffffffffffffffffffffffffffffffffffffffffffffffffffe016919091016040019291505056fea264697066735822122071efdb9eee985870dd729ed930ea38904ce8d1a4cca4d8969ae382101090569664736f6c634300080a0033",
  "linkReferences": {},
  "deployedLinkReferences": {}
}