{
  "_format": "hh-sol-artifact-1",
  "contractName": "CanaItemLootBox",
  "sourceName": "contracts/nft/CanaItemLootBox.sol",
  "abi": [
    {
      "inputs": [],
      "stateMutability": "nonpayable",
      "type": "constructor"
    },
    {
      "anonymous": false,
      "inputs": [
        {
          "indexed": true,
          "internalType": "address",
          "name": "account",
          "type": "address"
        },
        {
          "indexed": true,
          "internalType": "address",
          "name": "operator",
          "type": "address"
        },
        {
          "indexed": false,
          "internalType": "bool",
          "name": "approved",
          "type": "bool"
        }
      ],
      "name": "ApprovalForAll",
      "type": "event"
    },
    {
      "anonymous": false,
      "inputs": [
        {
          "indexed": true,
          "internalType": "address",
          "name": "creator",
          "type": "address"
        },
        {
          "indexed": true,
          "internalType": "address",
          "name": "to",
          "type": "address"
        },
        {
          "indexed": false,
          "internalType": "uint256",
          "name": "tokenId",
          "type": "uint256"
        },
        {
          "indexed": false,
          "internalType": "string",
          "name": "tokenURI",
          "type": "string"
        }
      ],
      "name": "Created",
      "type": "event"
    },
    {
      "anonymous": false,
      "inputs": [
        {
          "indexed": true,
          "internalType": "uint256",
          "name": "optionId",
          "type": "uint256"
        },
        {
          "indexed": true,
          "internalType": "address",
          "name": "buyer",
          "type": "address"
        },
        {
          "indexed": false,
          "internalType": "uint256",
          "name": "boxesPurchased",
          "type": "uint256"
        },
        {
          "indexed": false,
          "internalType": "uint256",
          "name": "tokenId",
          "type": "uint256"
        },
        {
          "indexed": false,
          "internalType": "uint256",
          "name": "classId",
          "type": "uint256"
        },
        {
          "indexed": false,
          "internalType": "uint256",
          "name": "attId",
          "type": "uint256"
        }
      ],
      "name": "LootBoxOpened",
      "type": "event"
    },
    {
      "anonymous": false,
      "inputs": [
        {
          "indexed": true,
          "internalType": "address",
          "name": "previousOwner",
          "type": "address"
        },
        {
          "indexed": true,
          "internalType": "address",
          "name": "newOwner",
          "type": "address"
        }
      ],
      "name": "OwnershipTransferred",
      "type": "event"
    },
    {
      "anonymous": false,
      "inputs": [
        {
          "indexed": false,
          "internalType": "address",
          "name": "account",
          "type": "address"
        }
      ],
      "name": "Paused",
      "type": "event"
    },
    {
      "anonymous": false,
      "inputs": [
        {
          "indexed": true,
          "internalType": "address",
          "name": "operator",
          "type": "address"
        },
        {
          "indexed": true,
          "internalType": "address",
          "name": "from",
          "type": "address"
        },
        {
          "indexed": true,
          "internalType": "address",
          "name": "to",
          "type": "address"
        },
        {
          "indexed": false,
          "internalType": "uint256[]",
          "name": "ids",
          "type": "uint256[]"
        },
        {
          "indexed": false,
          "internalType": "uint256[]",
          "name": "values",
          "type": "uint256[]"
        }
      ],
      "name": "TransferBatch",
      "type": "event"
    },
    {
      "anonymous": false,
      "inputs": [
        {
          "indexed": true,
          "internalType": "address",
          "name": "operator",
          "type": "address"
        },
        {
          "indexed": true,
          "internalType": "address",
          "name": "from",
          "type": "address"
        },
        {
          "indexed": true,
          "internalType": "address",
          "name": "to",
          "type": "address"
        },
        {
          "indexed": false,
          "internalType": "uint256",
          "name": "id",
          "type": "uint256"
        },
        {
          "indexed": false,
          "internalType": "uint256",
          "name": "value",
          "type": "uint256"
        }
      ],
      "name": "TransferSingle",
      "type": "event"
    },
    {
      "anonymous": false,
      "inputs": [
        {
          "indexed": false,
          "internalType": "string",
          "name": "value",
          "type": "string"
        },
        {
          "indexed": true,
          "internalType": "uint256",
          "name": "id",
          "type": "uint256"
        }
      ],
      "name": "URI",
      "type": "event"
    },
    {
      "anonymous": false,
      "inputs": [
        {
          "indexed": false,
          "internalType": "address",
          "name": "account",
          "type": "address"
        }
      ],
      "name": "Unpaused",
      "type": "event"
    },
    {
      "inputs": [
        {
          "internalType": "address",
          "name": "proxy",
          "type": "address"
        }
      ],
      "name": "addApprovalWhitelist",
      "outputs": [],
      "stateMutability": "nonpayable",
      "type": "function"
    },
    {
      "inputs": [
        {
          "internalType": "address",
          "name": "",
          "type": "address"
        }
      ],
      "name": "approvalWhitelists",
      "outputs": [
        {
          "internalType": "bool",
          "name": "",
          "type": "bool"
        }
      ],
      "stateMutability": "view",
      "type": "function"
    },
    {
      "inputs": [
        {
          "internalType": "address",
          "name": "_to",
          "type": "address"
        },
        {
          "internalType": "string",
          "name": "_uri",
          "type": "string"
        },
        {
          "internalType": "uint256",
          "name": "amount",
          "type": "uint256"
        },
        {
          "internalType": "bytes",
          "name": "data",
          "type": "bytes"
        }
      ],
      "name": "autoIdCreate",
      "outputs": [
        {
          "internalType": "uint256",
          "name": "",
          "type": "uint256"
        }
      ],
      "stateMutability": "nonpayable",
      "type": "function"
    },
    {
      "inputs": [
        {
          "internalType": "address",
          "name": "account",
          "type": "address"
        },
        {
          "internalType": "uint256",
          "name": "id",
          "type": "uint256"
        }
      ],
      "name": "balanceOf",
      "outputs": [
        {
          "internalType": "uint256",
          "name": "",
          "type": "uint256"
        }
      ],
      "stateMutability": "view",
      "type": "function"
    },
    {
      "inputs": [
        {
          "internalType": "address[]",
          "name": "accounts",
          "type": "address[]"
        },
        {
          "internalType": "uint256[]",
          "name": "ids",
          "type": "uint256[]"
        }
      ],
      "name": "balanceOfBatch",
      "outputs": [
        {
          "internalType": "uint256[]",
          "name": "",
          "type": "uint256[]"
        }
      ],
      "stateMutability": "view",
      "type": "function"
    },
    {
      "inputs": [
        {
          "internalType": "uint256",
          "name": "_id",
          "type": "uint256"
        },
        {
          "internalType": "uint256",
          "name": "_amount",
          "type": "uint256"
        }
      ],
      "name": "burn",
      "outputs": [],
      "stateMutability": "nonpayable",
      "type": "function"
    },
    {
      "inputs": [
        {
          "internalType": "address",
          "name": "account",
          "type": "address"
        },
        {
          "internalType": "uint256",
          "name": "id",
          "type": "uint256"
        },
        {
          "internalType": "uint256",
          "name": "value",
          "type": "uint256"
        }
      ],
      "name": "burn",
      "outputs": [],
      "stateMutability": "nonpayable",
      "type": "function"
    },
    {
      "inputs": [
        {
          "internalType": "address",
          "name": "account",
          "type": "address"
        },
        {
          "internalType": "uint256[]",
          "name": "ids",
          "type": "uint256[]"
        },
        {
          "internalType": "uint256[]",
          "name": "values",
          "type": "uint256[]"
        }
      ],
      "name": "burnBatch",
      "outputs": [],
      "stateMutability": "nonpayable",
      "type": "function"
    },
    {
      "inputs": [
        {
          "internalType": "uint256[]",
          "name": "_ids",
          "type": "uint256[]"
        },
        {
          "internalType": "uint256[]",
          "name": "_amounts",
          "type": "uint256[]"
        }
      ],
      "name": "burnBatch",
      "outputs": [],
      "stateMutability": "nonpayable",
      "type": "function"
    },
    {
      "inputs": [
        {
          "internalType": "address",
          "name": "_initialOwner",
          "type": "address"
        },
        {
          "internalType": "uint256",
          "name": "_id",
          "type": "uint256"
        },
        {
          "internalType": "uint256",
          "name": "_initialSupply",
          "type": "uint256"
        },
        {
          "internalType": "bytes",
          "name": "_data",
          "type": "bytes"
        }
      ],
      "name": "create",
      "outputs": [
        {
          "internalType": "uint256",
          "name": "",
          "type": "uint256"
        }
      ],
      "stateMutability": "nonpayable",
      "type": "function"
    },
    {
      "inputs": [
        {
          "internalType": "uint256",
          "name": "id",
          "type": "uint256"
        }
      ],
      "name": "exists",
      "outputs": [
        {
          "internalType": "bool",
          "name": "",
          "type": "bool"
        }
      ],
      "stateMutability": "view",
      "type": "function"
    },
    {
      "inputs": [
        {
          "internalType": "address",
          "name": "_owner",
          "type": "address"
        },
        {
          "internalType": "address",
          "name": "_operator",
          "type": "address"
        }
      ],
      "name": "isApprovedForAll",
      "outputs": [
        {
          "internalType": "bool",
          "name": "isOperator",
          "type": "bool"
        }
      ],
      "stateMutability": "view",
      "type": "function"
    },
    {
      "inputs": [
        {
          "internalType": "address",
          "name": "_to",
          "type": "address"
        },
        {
          "internalType": "uint256",
          "name": "_optionId",
          "type": "uint256"
        },
        {
          "internalType": "uint256",
          "name": "_amount",
          "type": "uint256"
        },
        {
          "internalType": "bytes",
          "name": "_data",
          "type": "bytes"
        }
      ],
      "name": "mint",
      "outputs": [],
      "stateMutability": "nonpayable",
      "type": "function"
    },
    {
      "inputs": [
        {
          "internalType": "address",
          "name": "to",
          "type": "address"
        },
        {
          "internalType": "uint256[]",
          "name": "ids",
          "type": "uint256[]"
        },
        {
          "internalType": "uint256[]",
          "name": "amounts",
          "type": "uint256[]"
        },
        {
          "internalType": "bytes",
          "name": "data",
          "type": "bytes"
        }
      ],
      "name": "mintBatch",
      "outputs": [],
      "stateMutability": "nonpayable",
      "type": "function"
    },
    {
      "inputs": [
        {
          "internalType": "bytes[]",
          "name": "data",
          "type": "bytes[]"
        }
      ],
      "name": "multicall",
      "outputs": [
        {
          "internalType": "bytes[]",
          "name": "results",
          "type": "bytes[]"
        }
      ],
      "stateMutability": "nonpayable",
      "type": "function"
    },
    {
      "inputs": [],
      "name": "nextTokenId",
      "outputs": [
        {
          "internalType": "uint256",
          "name": "",
          "type": "uint256"
        }
      ],
      "stateMutability": "view",
      "type": "function"
    },
    {
      "inputs": [],
      "name": "owner",
      "outputs": [
        {
          "internalType": "address",
          "name": "",
          "type": "address"
        }
      ],
      "stateMutability": "view",
      "type": "function"
    },
    {
      "inputs": [],
      "name": "pause",
      "outputs": [],
      "stateMutability": "nonpayable",
      "type": "function"
    },
    {
      "inputs": [],
      "name": "paused",
      "outputs": [
        {
          "internalType": "bool",
          "name": "",
          "type": "bool"
        }
      ],
      "stateMutability": "view",
      "type": "function"
    },
    {
      "inputs": [
        {
          "internalType": "address",
          "name": "proxy",
          "type": "address"
        }
      ],
      "name": "removeApprovalWhitelist",
      "outputs": [],
      "stateMutability": "nonpayable",
      "type": "function"
    },
    {
      "inputs": [],
      "name": "renounceOwnership",
      "outputs": [],
      "stateMutability": "nonpayable",
      "type": "function"
    },
    {
      "inputs": [
        {
          "internalType": "address",
          "name": "from",
          "type": "address"
        },
        {
          "internalType": "address",
          "name": "to",
          "type": "address"
        },
        {
          "internalType": "uint256[]",
          "name": "ids",
          "type": "uint256[]"
        },
        {
          "internalType": "uint256[]",
          "name": "amounts",
          "type": "uint256[]"
        },
        {
          "internalType": "bytes",
          "name": "data",
          "type": "bytes"
        }
      ],
      "name": "safeBatchTransferFrom",
      "outputs": [],
      "stateMutability": "nonpayable",
      "type": "function"
    },
    {
      "inputs": [
        {
          "internalType": "address",
          "name": "from",
          "type": "address"
        },
        {
          "internalType": "address",
          "name": "to",
          "type": "address"
        },
        {
          "internalType": "uint256",
          "name": "id",
          "type": "uint256"
        },
        {
          "internalType": "uint256",
          "name": "amount",
          "type": "uint256"
        },
        {
          "internalType": "bytes",
          "name": "data",
          "type": "bytes"
        }
      ],
      "name": "safeTransferFrom",
      "outputs": [],
      "stateMutability": "nonpayable",
      "type": "function"
    },
    {
      "inputs": [
        {
          "internalType": "address",
          "name": "operator",
          "type": "address"
        },
        {
          "internalType": "bool",
          "name": "approved",
          "type": "bool"
        }
      ],
      "name": "setApprovalForAll",
      "outputs": [],
      "stateMutability": "nonpayable",
      "type": "function"
    },
    {
      "inputs": [
        {
          "internalType": "string",
          "name": "baseURI",
          "type": "string"
        }
      ],
      "name": "setBaseURI",
      "outputs": [],
      "stateMutability": "nonpayable",
      "type": "function"
    },
    {
      "inputs": [
        {
          "internalType": "uint256",
          "name": "_option",
          "type": "uint256"
        },
        {
          "internalType": "uint256",
          "name": "_maxQuantityPerOpen",
          "type": "uint256"
        },
        {
          "internalType": "uint16[]",
          "name": "_classProbabilities",
          "type": "uint16[]"
        },
        {
          "internalType": "uint16[]",
          "name": "_guarantees",
          "type": "uint16[]"
        },
        {
          "internalType": "int16[]",
          "name": "_maxPerClass",
          "type": "int16[]"
        }
      ],
      "name": "setOptionSettings",
      "outputs": [],
      "stateMutability": "nonpayable",
      "type": "function"
    },
    {
      "inputs": [
        {
          "internalType": "address",
          "name": "_factoryAddress",
          "type": "address"
        },
        {
          "internalType": "uint256",
          "name": "_numOptions",
          "type": "uint256"
        },
        {
          "internalType": "uint256",
          "name": "_numClasses",
          "type": "uint256"
        },
        {
          "internalType": "uint256",
          "name": "_seed",
          "type": "uint256"
        }
      ],
      "name": "setState",
      "outputs": [],
      "stateMutability": "nonpayable",
      "type": "function"
    },
    {
      "inputs": [
        {
          "internalType": "uint256",
          "name": "_optionId",
          "type": "uint256"
        },
        {
          "internalType": "uint256",
          "name": "_classId",
          "type": "uint256"
        },
        {
          "internalType": "uint256[]",
          "name": "_tokenIds",
          "type": "uint256[]"
        }
      ],
      "name": "setTokenIdsForClass",
      "outputs": [],
      "stateMutability": "nonpayable",
      "type": "function"
    },
    {
      "inputs": [
        {
          "internalType": "string",
          "name": "newuri",
          "type": "string"
        }
      ],
      "name": "setURI",
      "outputs": [],
      "stateMutability": "nonpayable",
      "type": "function"
    },
    {
      "inputs": [
        {
          "internalType": "uint256",
          "name": "tokenId",
          "type": "uint256"
        },
        {
          "internalType": "string",
          "name": "_tokenURI",
          "type": "string"
        }
      ],
      "name": "setURI",
      "outputs": [],
      "stateMutability": "nonpayable",
      "type": "function"
    },
    {
      "inputs": [
        {
          "internalType": "bytes4",
          "name": "_interfaceID",
          "type": "bytes4"
        }
      ],
      "name": "supportsInterface",
      "outputs": [
        {
          "internalType": "bool",
          "name": "",
          "type": "bool"
        }
      ],
      "stateMutability": "view",
      "type": "function"
    },
    {
      "inputs": [
        {
          "internalType": "uint256",
          "name": "id",
          "type": "uint256"
        }
      ],
      "name": "totalSupply",
      "outputs": [
        {
          "internalType": "uint256",
          "name": "",
          "type": "uint256"
        }
      ],
      "stateMutability": "view",
      "type": "function"
    },
    {
      "inputs": [
        {
          "internalType": "address",
          "name": "newOwner",
          "type": "address"
        }
      ],
      "name": "transferOwnership",
      "outputs": [],
      "stateMutability": "nonpayable",
      "type": "function"
    },
    {
      "inputs": [
        {
          "internalType": "uint256",
          "name": "_optionId",
          "type": "uint256"
        },
        {
          "internalType": "address",
          "name": "_toAddress",
          "type": "address"
        },
        {
          "internalType": "uint256",
          "name": "_amount",
          "type": "uint256"
        }
      ],
      "name": "unpack",
      "outputs": [],
      "stateMutability": "nonpayable",
      "type": "function"
    },
    {
      "inputs": [],
      "name": "unpause",
      "outputs": [],
      "stateMutability": "nonpayable",
      "type": "function"
    },
    {
      "inputs": [
        {
          "internalType": "uint256",
          "name": "tokenId",
          "type": "uint256"
        }
      ],
      "name": "uri",
      "outputs": [
        {
          "internalType": "string",
          "name": "",
          "type": "string"
        }
      ],
      "stateMutability": "view",
      "type": "function"
    }
  ],
  "bytecode": "0x60a06040819052600060808190526200001b916005916200013c565b503480156200002957600080fd5b5060408051808201909152601d81527f68747470733a2f2f61737365742e6d65746163616e612e696f2f61706900000060208201526200006981620000ac565b506200007533620000c5565b600380547fffffffffffffffffffffff00ffffffffffffffffffffffffffffffffffffffff169055426009556001600a556200021f565b8051620000c19060029060208401906200013c565b5050565b6003805473ffffffffffffffffffffffffffffffffffffffff8381167fffffffffffffffffffffffff0000000000000000000000000000000000000000831681179093556040519116919082907f8be0079c531659141344cd1fd0a4f28419497f9722a3daafe3b4186f6b6457e090600090a35050565b8280546200014a90620001e2565b90600052602060002090601f0160209004810192826200016e5760008555620001b9565b82601f106200018957805160ff1916838001178555620001b9565b82800160010185558215620001b9579182015b82811115620001b95782518255916020019190600101906200019c565b50620001c7929150620001cb565b5090565b5b80821115620001c75760008155600101620001cc565b600181811c90821680620001f757607f821691505b602082108114156200021957634e487b7160e01b600052602260045260246000fd5b50919050565b615d25806200022f6000396000f3fe608060405234801561001057600080fd5b506004361061025b5760003560e01c8063731133e911610145578063b78437ea116100bd578063e985e9c51161008c578063f242432a11610071578063f242432a14610545578063f2fde38b14610558578063f5298aca1461056b57600080fd5b8063e985e9c51461051f578063f0fee98c1461053257600080fd5b8063b78437ea146104c6578063bd85b039146104d9578063c13dc291146104f9578063d1aa9e621461050c57600080fd5b8063862440e211610114578063a22cb465116100f9578063a22cb46514610480578063ac9650d814610493578063b390c0ab146104b357600080fd5b8063862440e2146104455780638da5cb5b1461045857600080fd5b8063731133e91461040e57806375794a3c1461042157806383ca4b6f1461042a5780638456cb591461043d57600080fd5b80633f4ba83a116101d8578063547c4dbd116101a75780635c975abb1161018c5780635c975abb146103d05780636b20c454146103f3578063715018a61461040657600080fd5b8063547c4dbd146103aa57806355f804b3146103bd57600080fd5b80633f4ba83a1461033d578063419e583d146103455780634e1273f4146103685780634f558e791461038857600080fd5b80630e3093dc1161022f5780631f7fdffa116102145780631f7fdffa1461030457806322629f9e146103175780632eb2c2d61461032a57600080fd5b80630e3093dc146102d15780630e89341c146102e457600080fd5b8062fdd58e1461026057806301ffc9a71461028657806302fe5305146102a95780630a75eea2146102be575b600080fd5b61027361026e366004614ef7565b61057e565b6040519081526020015b60405180910390f35b610299610294366004615161565b61065e565b604051901515815260200161027d565b6102bc6102b736600461519b565b610669565b005b6102bc6102cc366004614bb9565b6106f6565b6102736102df366004614e5f565b6107c3565b6102f76102f23660046151d0565b6109a8565b60405161027d9190615774565b6102bc610312366004614d8a565b6109b3565b6102bc610325366004614fa9565b610a46565b6102bc610338366004614c07565b610b7a565b6102bc610c43565b610299610353366004614bb9565b60076020526000908152604090205460ff1681565b61037b610376366004614fe2565b610cce565b60405161027d919061573c565b6102996103963660046151d0565b600090815260046020526040902054151590565b6102bc6103b83660046153a7565b610e26565b6102bc6103cb36600461519b565b610f33565b60035474010000000000000000000000000000000000000000900460ff16610299565b6102bc610401366004614d16565b610fbd565b6102bc611082565b6102bc61041c366004614f54565b61110d565b61027360085481565b6102bc6104383660046150f5565b611270565b6102bc61135f565b6102bc610453366004615237565b6113e8565b60035460405173ffffffffffffffffffffffffffffffffffffffff909116815260200161027d565b6102bc61048e366004614e23565b611477565b6104a66104a13660046150b3565b611482565b60405161027d91906156bc565b6102bc6104c1366004615274565b611577565b6102bc6104d4366004614bb9565b611603565b6102736104e73660046151d0565b60009081526004602052604090205490565b610273610507366004614f54565b611763565b6102bc61051a366004615296565b61186f565b61029961052d366004614bd4565b611982565b6102bc610540366004615202565b6119fb565b6102bc610553366004614cb1565b611b6e565b6102bc610566366004614bb9565b611c30565b6102bc610579366004614f21565b611d5d565b600073ffffffffffffffffffffffffffffffffffffffff8316610628576040517f08c379a000000000000000000000000000000000000000000000000000000000815260206004820152602b60248201527f455243313135353a2062616c616e636520717565727920666f7220746865207a60448201527f65726f206164647265737300000000000000000000000000000000000000000060648201526084015b60405180910390fd5b5060008181526020818152604080832073ffffffffffffffffffffffffffffffffffffffff861684529091529020545b92915050565b600061065882611e1d565b60035473ffffffffffffffffffffffffffffffffffffffff1633146106ea576040517f08c379a000000000000000000000000000000000000000000000000000000000815260206004820181905260248201527f4f776e61626c653a2063616c6c6572206973206e6f7420746865206f776e6572604482015260640161061f565b6106f381611f00565b50565b60035473ffffffffffffffffffffffffffffffffffffffff163314610777576040517f08c379a000000000000000000000000000000000000000000000000000000000815260206004820181905260248201527f4f776e61626c653a2063616c6c6572206973206e6f7420746865206f776e6572604482015260640161061f565b73ffffffffffffffffffffffffffffffffffffffff16600090815260076020526040902080547fffffffffffffffffffffffffffffffffffffffffffffffffffffffffffffff00169055565b60035460009074010000000000000000000000000000000000000000900460ff161561084b576040517f08c379a000000000000000000000000000000000000000000000000000000000815260206004820152601060248201527f5061757361626c653a2070617573656400000000000000000000000000000000604482015260640161061f565b600060095460085461085d9190615967565b6000818152600460205260409020549091501561087982611f13565b60405160200161088991906155bc565b604051602081830303815290604052906108d0576040517f08c379a000000000000000000000000000000000000000000000000000000000815260040161061f9190615774565b506109118187878080601f01602080910402602001604051908101604052809392919081815260200183838082843760009201919091525061204592505050565b61091d878286866120a9565b6001600860008282546109309190615967565b909155505073ffffffffffffffffffffffffffffffffffffffff87163373ffffffffffffffffffffffffffffffffffffffff167ff238fcd2133237bc5ae0e1f42086a193f4fddae976468b0797a9260c8f29221983898960405161099693929190615864565b60405180910390a39695505050505050565b6060610658826120b5565b60035473ffffffffffffffffffffffffffffffffffffffff163314610a34576040517f08c379a000000000000000000000000000000000000000000000000000000000815260206004820181905260248201527f4f776e61626c653a2063616c6c6572206973206e6f7420746865206f776e6572604482015260640161061f565b610a4084848484612194565b50505050565b60035473ffffffffffffffffffffffffffffffffffffffff163314610ac7576040517f08c379a000000000000000000000000000000000000000000000000000000000815260206004820181905260248201527f4f776e61626c653a2063616c6c6572206973206e6f7420746865206f776e6572604482015260640161061f565b6040517fd14ffa0b000000000000000000000000000000000000000000000000000000008152600b600482015273ffffffffffffffffffffffffffffffffffffffff8516602482015260448101849052606481018390526084810182905273__$2f487704b03730dd3bc263a6c677345536$__9063d14ffa0b9060a40160006040518083038186803b158015610b5c57600080fd5b505af4158015610b70573d6000803e3d6000fd5b5050505050505050565b73ffffffffffffffffffffffffffffffffffffffff8516331480610ba35750610ba38533611982565b610c2f576040517f08c379a000000000000000000000000000000000000000000000000000000000815260206004820152603260248201527f455243313135353a207472616e736665722063616c6c6572206973206e6f742060448201527f6f776e6572206e6f7220617070726f7665640000000000000000000000000000606482015260840161061f565b610c3c858585858561241c565b5050505050565b60035473ffffffffffffffffffffffffffffffffffffffff163314610cc4576040517f08c379a000000000000000000000000000000000000000000000000000000000815260206004820181905260248201527f4f776e61626c653a2063616c6c6572206973206e6f7420746865206f776e6572604482015260640161061f565b610ccc612764565b565b60608151835114610d61576040517f08c379a000000000000000000000000000000000000000000000000000000000815260206004820152602960248201527f455243313135353a206163636f756e747320616e6420696473206c656e67746860448201527f206d69736d617463680000000000000000000000000000000000000000000000606482015260840161061f565b6000835167ffffffffffffffff811115610d7d57610d7d615ba7565b604051908082528060200260200182016040528015610da6578160200160208202803683370190505b50905060005b8451811015610e1e57610df1858281518110610dca57610dca615b78565b6020026020010151858381518110610de457610de4615b78565b602002602001015161057e565b828281518110610e0357610e03615b78565b6020908102919091010152610e1781615acd565b9050610dac565b509392505050565b60035473ffffffffffffffffffffffffffffffffffffffff163314610ea7576040517f08c379a000000000000000000000000000000000000000000000000000000000815260206004820181905260248201527f4f776e61626c653a2063616c6c6572206973206e6f7420746865206f776e6572604482015260640161061f565b6040517f61d9ba6300000000000000000000000000000000000000000000000000000000815273__$2f487704b03730dd3bc263a6c677345536$__906361d9ba6390610efe90600b90879087908790600401615808565b60006040518083038186803b158015610f1657600080fd5b505af4158015610f2a573d6000803e3d6000fd5b50505050505050565b60035473ffffffffffffffffffffffffffffffffffffffff163314610fb4576040517f08c379a000000000000000000000000000000000000000000000000000000000815260206004820181905260248201527f4f776e61626c653a2063616c6c6572206973206e6f7420746865206f776e6572604482015260640161061f565b6106f38161285d565b73ffffffffffffffffffffffffffffffffffffffff8316331480610fe65750610fe68333611982565b611072576040517f08c379a000000000000000000000000000000000000000000000000000000000815260206004820152602960248201527f455243313135353a2063616c6c6572206973206e6f74206f776e6572206e6f7260448201527f20617070726f7665640000000000000000000000000000000000000000000000606482015260840161061f565b61107d838383612870565b505050565b60035473ffffffffffffffffffffffffffffffffffffffff163314611103576040517f08c379a000000000000000000000000000000000000000000000000000000000815260206004820181905260248201527f4f776e61626c653a2063616c6c6572206973206e6f7420746865206f776e6572604482015260640161061f565b610ccc6000612ba9565b6002600a54141561117a576040517f08c379a000000000000000000000000000000000000000000000000000000000815260206004820152601f60248201527f5265656e7472616e637947756172643a207265656e7472616e742063616c6c00604482015260640161061f565b6002600a5561118833612c20565b6111ee576040517f08c379a000000000000000000000000000000000000000000000000000000000815260206004820152601c60248201527f4c6f6f74626f783a206f776e6572206f722070726f7879206f6e6c7900000000604482015260640161061f565b600c548310611259576040517f08c379a000000000000000000000000000000000000000000000000000000000815260206004820152601760248201527f4c6f6f74626f783a20496e76616c6964204f7074696f6e000000000000000000604482015260640161061f565b611265848484846120a9565b50506001600a555050565b60035473ffffffffffffffffffffffffffffffffffffffff1633146112f1576040517f08c379a000000000000000000000000000000000000000000000000000000000815260206004820181905260248201527f4f776e61626c653a2063616c6c6572206973206e6f7420746865206f776e6572604482015260640161061f565b610a40338585808060200260200160405190810160405280939291908181526020018383602002808284376000920191909152505060408051602080890282810182019093528882529093508892508791829185019084908082843760009201919091525061287092505050565b60035473ffffffffffffffffffffffffffffffffffffffff1633146113e0576040517f08c379a000000000000000000000000000000000000000000000000000000000815260206004820181905260248201527f4f776e61626c653a2063616c6c6572206973206e6f7420746865206f776e6572604482015260640161061f565b610ccc612c75565b60035473ffffffffffffffffffffffffffffffffffffffff163314611469576040517f08c379a000000000000000000000000000000000000000000000000000000000815260206004820181905260248201527f4f776e61626c653a2063616c6c6572206973206e6f7420746865206f776e6572604482015260640161061f565b6114738282612045565b5050565b611473338383612d61565b60608167ffffffffffffffff81111561149d5761149d615ba7565b6040519080825280602002602001820160405280156114d057816020015b60608152602001906001900390816114bb5790505b50905060005b8281101561157057611540308585848181106114f4576114f4615b78565b905060200281019061150691906158b8565b8080601f016020809104026020016040519081016040528093929190818152602001838380828437600092019190915250612eb592505050565b82828151811061155257611552615b78565b6020026020010181905250808061156890615acd565b9150506114d6565b5092915050565b60035473ffffffffffffffffffffffffffffffffffffffff1633146115f8576040517f08c379a000000000000000000000000000000000000000000000000000000000815260206004820181905260248201527f4f776e61626c653a2063616c6c6572206973206e6f7420746865206f776e6572604482015260640161061f565b611473338383612eda565b60035473ffffffffffffffffffffffffffffffffffffffff163314611684576040517f08c379a000000000000000000000000000000000000000000000000000000000815260206004820181905260248201527f4f776e61626c653a2063616c6c6572206973206e6f7420746865206f776e6572604482015260640161061f565b73ffffffffffffffffffffffffffffffffffffffff811660009081526007602052604090205460ff1615611714576040517f08c379a000000000000000000000000000000000000000000000000000000000815260206004820152601560248201527f496e76616c69642070726f787920616464726573730000000000000000000000604482015260640161061f565b73ffffffffffffffffffffffffffffffffffffffff16600090815260076020526040902080547fffffffffffffffffffffffffffffffffffffffffffffffffffffffffffffff00166001179055565b60035460009073ffffffffffffffffffffffffffffffffffffffff1633146117e7576040517f08c379a000000000000000000000000000000000000000000000000000000000815260206004820181905260248201527f4f776e61626c653a2063616c6c6572206973206e6f7420746865206f776e6572604482015260640161061f565b6000848152600460205260409020541561180085611f13565b60405160200161181091906155bc565b60405160208183030381529060405290611857576040517f08c379a000000000000000000000000000000000000000000000000000000000815260040161061f9190615774565b50611864858585856120a9565b50825b949350505050565b60035473ffffffffffffffffffffffffffffffffffffffff1633146118f0576040517f08c379a000000000000000000000000000000000000000000000000000000000815260206004820181905260248201527f4f776e61626c653a2063616c6c6572206973206e6f7420746865206f776e6572604482015260640161061f565b6040517ff07e90e000000000000000000000000000000000000000000000000000000000815273__$2f487704b03730dd3bc263a6c677345536$__9063f07e90e09061194b90600b9089908990899089908990600401615787565b60006040518083038186803b15801561196357600080fd5b505af4158015611977573d6000803e3d6000fd5b505050505050505050565b73ffffffffffffffffffffffffffffffffffffffff811660009081526007602052604081205460ff161515600114156119bd57506001610658565b73ffffffffffffffffffffffffffffffffffffffff80841660009081526001602090815260408083209386168352929052205460ff165b9392505050565b611a06338483612eda565b600b80546040805160208101909152600080825273ffffffffffffffffffffffffffffffffffffffff909216928291611a439190889087906130f8565b6040517fcabc61d400000000000000000000000000000000000000000000000000000000815273ffffffffffffffffffffffffffffffffffffffff888116600483015260248201889052606060448301526000606483018190529395509193509085169063cabc61d49060840160206040518083038186803b158015611ac857600080fd5b505afa158015611adc573d6000803e3d6000fd5b505050506040513d601f19601f82011682018060405250810190611b0091906151e9565b60408051878152602081018390529081018490526060810185905290915073ffffffffffffffffffffffffffffffffffffffff87169088907f6e8dce26694983c5404aeee11f00c99129a2d2e5ec3e11f718b839a51cc817869060800160405180910390a350505050505050565b73ffffffffffffffffffffffffffffffffffffffff8516331480611b975750611b978533611982565b611c23576040517f08c379a000000000000000000000000000000000000000000000000000000000815260206004820152602960248201527f455243313135353a2063616c6c6572206973206e6f74206f776e6572206e6f7260448201527f20617070726f7665640000000000000000000000000000000000000000000000606482015260840161061f565b610c3c8585858585613499565b60035473ffffffffffffffffffffffffffffffffffffffff163314611cb1576040517f08c379a000000000000000000000000000000000000000000000000000000000815260206004820181905260248201527f4f776e61626c653a2063616c6c6572206973206e6f7420746865206f776e6572604482015260640161061f565b73ffffffffffffffffffffffffffffffffffffffff8116611d54576040517f08c379a000000000000000000000000000000000000000000000000000000000815260206004820152602660248201527f4f776e61626c653a206e6577206f776e657220697320746865207a65726f206160448201527f6464726573730000000000000000000000000000000000000000000000000000606482015260840161061f565b6106f381612ba9565b73ffffffffffffffffffffffffffffffffffffffff8316331480611d865750611d868333611982565b611e12576040517f08c379a000000000000000000000000000000000000000000000000000000000815260206004820152602960248201527f455243313135353a2063616c6c6572206973206e6f74206f776e6572206e6f7260448201527f20617070726f7665640000000000000000000000000000000000000000000000606482015260840161061f565b61107d838383612eda565b60007fffffffff0000000000000000000000000000000000000000000000000000000082167fd9b67a26000000000000000000000000000000000000000000000000000000001480611eb057507fffffffff0000000000000000000000000000000000000000000000000000000082167f0e89341c00000000000000000000000000000000000000000000000000000000145b8061065857507f01ffc9a7000000000000000000000000000000000000000000000000000000007fffffffff00000000000000000000000000000000000000000000000000000000831614610658565b805161147390600290602084019061491a565b606081611f5357505060408051808201909152600181527f3000000000000000000000000000000000000000000000000000000000000000602082015290565b8160005b8115611f7d5780611f6781615acd565b9150611f769050600a8361597f565b9150611f57565b60008167ffffffffffffffff811115611f9857611f98615ba7565b6040519080825280601f01601f191660200182016040528015611fc2576020820181803683370190505b5090505b841561186757611fd76001836159b6565b9150611fe4600a86615b06565b611fef906030615967565b60f81b81838151811061200457612004615b78565b60200101907effffffffffffffffffffffffffffffffffffffffffffffffffffffffffffff1916908160001a90535061203e600a8661597f565b9450611fc6565b600082815260066020908152604090912082516120649284019061491a565b50817f6bb7ff708619ba0610cba295a58592e0451dee2622938c8755667688daf3529b612090846109a8565b60405161209d9190615774565b60405180910390a25050565b610a40848484846136da565b6000818152600660205260408120805460609291906120d390615a2e565b80601f01602080910402602001604051908101604052809291908181526020018280546120ff90615a2e565b801561214c5780601f106121215761010080835404028352916020019161214c565b820191906000526020600020905b81548152906001019060200180831161212f57829003601f168201915b50505050509050600081511161216a5761216583613851565b6119f4565b60058160405160200161217e9291906154de565b6040516020818303038152906040529392505050565b73ffffffffffffffffffffffffffffffffffffffff8416612237576040517f08c379a000000000000000000000000000000000000000000000000000000000815260206004820152602160248201527f455243313135353a206d696e7420746f20746865207a65726f2061646472657360448201527f7300000000000000000000000000000000000000000000000000000000000000606482015260840161061f565b81518351146122c8576040517f08c379a000000000000000000000000000000000000000000000000000000000815260206004820152602860248201527f455243313135353a2069647320616e6420616d6f756e7473206c656e6774682060448201527f6d69736d61746368000000000000000000000000000000000000000000000000606482015260840161061f565b336122d8816000878787876138e5565b60005b845181101561238d578381815181106122f6576122f6615b78565b602002602001015160008087848151811061231357612313615b78565b6020026020010151815260200190815260200160002060008873ffffffffffffffffffffffffffffffffffffffff1673ffffffffffffffffffffffffffffffffffffffff16815260200190815260200160002060008282546123759190615967565b9091555081905061238581615acd565b9150506122db565b508473ffffffffffffffffffffffffffffffffffffffff16600073ffffffffffffffffffffffffffffffffffffffff168273ffffffffffffffffffffffffffffffffffffffff167f4a39dc06d4c0dbc64b70af90fd698a233a518aa5d07e595d983b8c0526c8f7fb878760405161240592919061574f565b60405180910390a4610c3c81600087878787613978565b81518351146124ad576040517f08c379a000000000000000000000000000000000000000000000000000000000815260206004820152602860248201527f455243313135353a2069647320616e6420616d6f756e7473206c656e6774682060448201527f6d69736d61746368000000000000000000000000000000000000000000000000606482015260840161061f565b73ffffffffffffffffffffffffffffffffffffffff8416612550576040517f08c379a000000000000000000000000000000000000000000000000000000000815260206004820152602560248201527f455243313135353a207472616e7366657220746f20746865207a65726f20616460448201527f6472657373000000000000000000000000000000000000000000000000000000606482015260840161061f565b3361255f8187878787876138e5565b60005b84518110156126cf57600085828151811061257f5761257f615b78565b60200260200101519050600085838151811061259d5761259d615b78565b6020908102919091018101516000848152808352604080822073ffffffffffffffffffffffffffffffffffffffff8e16835290935291909120549091508181101561266a576040517f08c379a000000000000000000000000000000000000000000000000000000000815260206004820152602a60248201527f455243313135353a20696e73756666696369656e742062616c616e636520666f60448201527f72207472616e7366657200000000000000000000000000000000000000000000606482015260840161061f565b60008381526020818152604080832073ffffffffffffffffffffffffffffffffffffffff8e8116855292528083208585039055908b168252812080548492906126b4908490615967565b92505081905550505050806126c890615acd565b9050612562565b508473ffffffffffffffffffffffffffffffffffffffff168673ffffffffffffffffffffffffffffffffffffffff168273ffffffffffffffffffffffffffffffffffffffff167f4a39dc06d4c0dbc64b70af90fd698a233a518aa5d07e595d983b8c0526c8f7fb878760405161274692919061574f565b60405180910390a461275c818787878787613978565b505050505050565b60035474010000000000000000000000000000000000000000900460ff166127e8576040517f08c379a000000000000000000000000000000000000000000000000000000000815260206004820152601460248201527f5061757361626c653a206e6f7420706175736564000000000000000000000000604482015260640161061f565b600380547fffffffffffffffffffffff00ffffffffffffffffffffffffffffffffffffffff1690557f5db9ee0a495bf2e6ff9c91a7834c1ba4fdd244a5e8aa4e537bd38aeae4b073aa335b60405173ffffffffffffffffffffffffffffffffffffffff909116815260200160405180910390a1565b805161147390600590602084019061491a565b73ffffffffffffffffffffffffffffffffffffffff8316612913576040517f08c379a000000000000000000000000000000000000000000000000000000000815260206004820152602360248201527f455243313135353a206275726e2066726f6d20746865207a65726f206164647260448201527f6573730000000000000000000000000000000000000000000000000000000000606482015260840161061f565b80518251146129a4576040517f08c379a000000000000000000000000000000000000000000000000000000000815260206004820152602860248201527f455243313135353a2069647320616e6420616d6f756e7473206c656e6774682060448201527f6d69736d61746368000000000000000000000000000000000000000000000000606482015260840161061f565b60003390506129c7818560008686604051806020016040528060008152506138e5565b60005b8351811015612b155760008482815181106129e7576129e7615b78565b602002602001015190506000848381518110612a0557612a05615b78565b6020908102919091018101516000848152808352604080822073ffffffffffffffffffffffffffffffffffffffff8c168352909352919091205490915081811015612ad1576040517f08c379a0000000000000000000000000000000000000000000000000000000008152602060048201526024808201527f455243313135353a206275726e20616d6f756e7420657863656564732062616c60448201527f616e636500000000000000000000000000000000000000000000000000000000606482015260840161061f565b60009283526020838152604080852073ffffffffffffffffffffffffffffffffffffffff8b1686529091529092209103905580612b0d81615acd565b9150506129ca565b50600073ffffffffffffffffffffffffffffffffffffffff168473ffffffffffffffffffffffffffffffffffffffff168273ffffffffffffffffffffffffffffffffffffffff167f4a39dc06d4c0dbc64b70af90fd698a233a518aa5d07e595d983b8c0526c8f7fb8686604051612b8d92919061574f565b60405180910390a4604080516020810190915260009052610a40565b6003805473ffffffffffffffffffffffffffffffffffffffff8381167fffffffffffffffffffffffff0000000000000000000000000000000000000000831681179093556040519116919082907f8be0079c531659141344cd1fd0a4f28419497f9722a3daafe3b4186f6b6457e090600090a35050565b60008173ffffffffffffffffffffffffffffffffffffffff16612c5860035473ffffffffffffffffffffffffffffffffffffffff1690565b73ffffffffffffffffffffffffffffffffffffffff161492915050565b60035474010000000000000000000000000000000000000000900460ff1615612cfa576040517f08c379a000000000000000000000000000000000000000000000000000000000815260206004820152601060248201527f5061757361626c653a2070617573656400000000000000000000000000000000604482015260640161061f565b600380547fffffffffffffffffffffff00ffffffffffffffffffffffffffffffffffffffff16740100000000000000000000000000000000000000001790557f62e78cea01bee320cd4e420270b5ea74000d11b0c9f74754ebdbfc544b05a2586128333390565b8173ffffffffffffffffffffffffffffffffffffffff168373ffffffffffffffffffffffffffffffffffffffff161415612e1d576040517f08c379a000000000000000000000000000000000000000000000000000000000815260206004820152602960248201527f455243313135353a2073657474696e6720617070726f76616c2073746174757360448201527f20666f722073656c660000000000000000000000000000000000000000000000606482015260840161061f565b73ffffffffffffffffffffffffffffffffffffffff83811660008181526001602090815260408083209487168084529482529182902080547fffffffffffffffffffffffffffffffffffffffffffffffffffffffffffffff001686151590811790915591519182527f17307eab39ab6107e8899845ad3d59bd9653f200f220920489ca2b5937696c31910160405180910390a3505050565b60606119f48383604051806060016040528060278152602001615cc960279139613c12565b73ffffffffffffffffffffffffffffffffffffffff8316612f7d576040517f08c379a000000000000000000000000000000000000000000000000000000000815260206004820152602360248201527f455243313135353a206275726e2066726f6d20746865207a65726f206164647260448201527f6573730000000000000000000000000000000000000000000000000000000000606482015260840161061f565b336000612f8984613d3a565b90506000612f9684613d3a565b9050612fb6838760008585604051806020016040528060008152506138e5565b60008581526020818152604080832073ffffffffffffffffffffffffffffffffffffffff8a16845290915290205484811015613073576040517f08c379a0000000000000000000000000000000000000000000000000000000008152602060048201526024808201527f455243313135353a206275726e20616d6f756e7420657863656564732062616c60448201527f616e636500000000000000000000000000000000000000000000000000000000606482015260840161061f565b60008681526020818152604080832073ffffffffffffffffffffffffffffffffffffffff8b81168086529184528285208a8703905582518b81529384018a90529092908816917fc3d58168c5ae7397731d063d5bbf3d657854427343f4c083240f7aacaa2d0f62910160405180910390a4604080516020810190915260009052610f2a565b60008085600101548510613168576040517f08c379a000000000000000000000000000000000000000000000000000000000815260206004820152601360248201527f6f7074696f6e5f6f75745f6f665f72616e676500000000000000000000000000604482015260640161061f565b60008581526003870160209081526040808320815160c0810183528154815260018201805484518187028101870190955280855291949293858401939092908301828280156131fe57602002820191906000526020600020906000905b82829054906101000a900461ffff1661ffff16815260200190600201906020826001010492830192600103820291508084116131c55790505b5050509183525050600282015460ff161515602080830191909152600383018054604080518285028101850182528281529401939283018282801561328a57602002820191906000526020600020906000905b82829054906101000a900461ffff1661ffff16815260200190600201906020826001010492830192600103820291508084116132515790505b505050505081526020016004820180548060200260200160405190810160405280929190818152602001828054801561330857602002820191906000526020600020906000905b82829054906101000a900460010b60010b815260200190600201906020826001010492830192600103820291508084116132d15790505b505050505081526020016005820180548060200260200160405190810160405280929190818152602001828054801561338857602002820191906000526020600020906000905b82829054906101000a900461ffff1661ffff168152602001906002019060208260010104928301926001038202915080841161334f5790505b50505050508152505090506000816000015111613427576040517f08c379a000000000000000000000000000000000000000000000000000000000815260206004820152602360248201527f43616e61426f784c6962235f6d696e743a4f5054494f4e5f4e4f545f414c4c4f60448201527f5745440000000000000000000000000000000000000000000000000000000000606482015260840161061f565b60008060005b8781101561348a5760005b8451811015613477576000600190506134558c8760200151613d85565b93506134638c8c8684613e1a565b945061346f8183615967565b915050613438565b508061348281615acd565b91505061342d565b50909890975095505050505050565b73ffffffffffffffffffffffffffffffffffffffff841661353c576040517f08c379a000000000000000000000000000000000000000000000000000000000815260206004820152602560248201527f455243313135353a207472616e7366657220746f20746865207a65726f20616460448201527f6472657373000000000000000000000000000000000000000000000000000000606482015260840161061f565b33600061354885613d3a565b9050600061355585613d3a565b90506135658389898585896138e5565b60008681526020818152604080832073ffffffffffffffffffffffffffffffffffffffff8c16845290915290205485811015613623576040517f08c379a000000000000000000000000000000000000000000000000000000000815260206004820152602a60248201527f455243313135353a20696e73756666696369656e742062616c616e636520666f60448201527f72207472616e7366657200000000000000000000000000000000000000000000606482015260840161061f565b60008781526020818152604080832073ffffffffffffffffffffffffffffffffffffffff8d8116855292528083208985039055908a1682528120805488929061366d908490615967565b9091555050604080518881526020810188905273ffffffffffffffffffffffffffffffffffffffff808b16928c821692918816917fc3d58168c5ae7397731d063d5bbf3d657854427343f4c083240f7aacaa2d0f62910160405180910390a4611977848a8a8a8a8a613ebd565b73ffffffffffffffffffffffffffffffffffffffff841661377d576040517f08c379a000000000000000000000000000000000000000000000000000000000815260206004820152602160248201527f455243313135353a206d696e7420746f20746865207a65726f2061646472657360448201527f7300000000000000000000000000000000000000000000000000000000000000606482015260840161061f565b33600061378985613d3a565b9050600061379685613d3a565b90506137a7836000898585896138e5565b60008681526020818152604080832073ffffffffffffffffffffffffffffffffffffffff8b168452909152812080548792906137e4908490615967565b9091555050604080518781526020810187905273ffffffffffffffffffffffffffffffffffffffff808a1692600092918716917fc3d58168c5ae7397731d063d5bbf3d657854427343f4c083240f7aacaa2d0f62910160405180910390a4610f2a83600089898989613ebd565b60606002805461386090615a2e565b80601f016020809104026020016040519081016040528092919081815260200182805461388c90615a2e565b80156138d95780601f106138ae576101008083540402835291602001916138d9565b820191906000526020600020905b8154815290600101906020018083116138bc57829003601f168201915b50505050509050919050565b60035474010000000000000000000000000000000000000000900460ff161561396a576040517f08c379a000000000000000000000000000000000000000000000000000000000815260206004820152601060248201527f5061757361626c653a2070617573656400000000000000000000000000000000604482015260640161061f565b61275c868686868686614079565b73ffffffffffffffffffffffffffffffffffffffff84163b1561275c576040517fbc197c8100000000000000000000000000000000000000000000000000000000815273ffffffffffffffffffffffffffffffffffffffff85169063bc197c81906139ef9089908990889088908890600401615601565b602060405180830381600087803b158015613a0957600080fd5b505af1925050508015613a57575060408051601f3d9081017fffffffffffffffffffffffffffffffffffffffffffffffffffffffffffffffe0168201909252613a549181019061517e565b60015b613b4157613a63615bd6565b806308c379a01415613ab75750613a78615bf2565b80613a835750613ab9565b806040517f08c379a000000000000000000000000000000000000000000000000000000000815260040161061f9190615774565b505b6040517f08c379a000000000000000000000000000000000000000000000000000000000815260206004820152603460248201527f455243313135353a207472616e7366657220746f206e6f6e204552433131353560448201527f526563656976657220696d706c656d656e746572000000000000000000000000606482015260840161061f565b7fffffffff0000000000000000000000000000000000000000000000000000000081167fbc197c810000000000000000000000000000000000000000000000000000000014610f2a576040517f08c379a000000000000000000000000000000000000000000000000000000000815260206004820152602860248201527f455243313135353a204552433131353552656365697665722072656a6563746560448201527f6420746f6b656e73000000000000000000000000000000000000000000000000606482015260840161061f565b606073ffffffffffffffffffffffffffffffffffffffff84163b613cb8576040517f08c379a000000000000000000000000000000000000000000000000000000000815260206004820152602660248201527f416464726573733a2064656c65676174652063616c6c20746f206e6f6e2d636f60448201527f6e74726163740000000000000000000000000000000000000000000000000000606482015260840161061f565b6000808573ffffffffffffffffffffffffffffffffffffffff1685604051613ce091906154c2565b600060405180830381855af49150503d8060008114613d1b576040519150601f19603f3d011682016040523d82523d6000602084013e613d20565b606091505b5091509150613d3082828661423b565b9695505050505050565b60408051600180825281830190925260609160009190602080830190803683370190505090508281600081518110613d7457613d74615b78565b602090810291909101015292915050565b600080613d9d612710613d978661428e565b90614323565b9050600060018451613daf91906159b6565b90505b8015613e0f576000848281518110613dcc57613dcc615b78565b602002602001015190508061ffff168361ffff161015613df0575091506106589050565b613dfa8184615993565b92505080613e07816159f9565b915050613db2565b506000949350505050565b600084600201548310613eaf576040517f08c379a000000000000000000000000000000000000000000000000000000000815260206004820152602660248201527f5f73656e64546f6b656e57697468436c61737323636c6173735f6f75745f6f6660448201527f5f72616e67650000000000000000000000000000000000000000000000000000606482015260840161061f565b6000613d308686868661432f565b73ffffffffffffffffffffffffffffffffffffffff84163b1561275c576040517ff23a6e6100000000000000000000000000000000000000000000000000000000815273ffffffffffffffffffffffffffffffffffffffff85169063f23a6e6190613f34908990899088908890889060040161566c565b602060405180830381600087803b158015613f4e57600080fd5b505af1925050508015613f9c575060408051601f3d9081017fffffffffffffffffffffffffffffffffffffffffffffffffffffffffffffffe0168201909252613f999181019061517e565b60015b613fa857613a63615bd6565b7fffffffff0000000000000000000000000000000000000000000000000000000081167ff23a6e610000000000000000000000000000000000000000000000000000000014610f2a576040517f08c379a000000000000000000000000000000000000000000000000000000000815260206004820152602860248201527f455243313135353a204552433131353552656365697665722072656a6563746560448201527f6420746f6b656e73000000000000000000000000000000000000000000000000606482015260840161061f565b73ffffffffffffffffffffffffffffffffffffffff851661410d5760005b835181101561410b578281815181106140b2576140b2615b78565b6020026020010151600460008684815181106140d0576140d0615b78565b6020026020010151815260200190815260200160002060008282546140f59190615967565b90915550614104905081615acd565b9050614097565b505b73ffffffffffffffffffffffffffffffffffffffff841661275c5760005b8351811015610f2a57600084828151811061414857614148615b78565b60200260200101519050600084838151811061416657614166615b78565b6020026020010151905060006004600084815260200190815260200160002054905081811015614218576040517f08c379a000000000000000000000000000000000000000000000000000000000815260206004820152602860248201527f455243313135353a206275726e20616d6f756e74206578636565647320746f7460448201527f616c537570706c79000000000000000000000000000000000000000000000000606482015260840161061f565b6000928352600460205260409092209103905561423481615acd565b905061412b565b6060831561424a5750816119f4565b82511561425a5782518084602001fd5b816040517f08c379a000000000000000000000000000000000000000000000000000000000815260040161061f9190615774565b60008061429c6001436159b6565b600584015460408051924060208401527fffffffffffffffffffffffffffffffffffffffff0000000000000000000000003360601b16908301526054820152607401604080517fffffffffffffffffffffffffffffffffffffffffffffffffffffffffffffffe0818403018152919052805160209091012060059093018390555090919050565b60006119f48284615b06565b6000846002015483106143c4576040517f08c379a000000000000000000000000000000000000000000000000000000000815260206004820152603660248201527f5f7069636b52616e646f6d417661696c61626c65546f6b656e4964466f72436c60448201527f61737323636c6173735f6f75745f6f665f72616e676500000000000000000000606482015260840161061f565b6000848152600486016020908152604080832086845282528083208054825181850281018501909352808352919290919083018282801561442457602002820191906000526020600020905b815481526020019060010190808311614410575b505050505090506000815111614496576040517f08c379a000000000000000000000000000000000000000000000000000000000815260206004820152601960248201527f4e6f20746f6b656e2069647320666f72205f636c617373496400000000000000604482015260640161061f565b60006144a68251613d978961428e565b905060008760030160008881526020019081526020016000206040518060c0016040529081600082015481526020016001820180548060200260200160405190810160405280929190818152602001828054801561454b57602002820191906000526020600020906000905b82829054906101000a900461ffff1661ffff16815260200190600201906020826001010492830192600103820291508084116145125790505b5050509183525050600282015460ff16151560208083019190915260038301805460408051828502810185018252828152940193928301828280156145d757602002820191906000526020600020906000905b82829054906101000a900461ffff1661ffff168152602001906002019060208260010104928301926001038202915080841161459e5790505b505050505081526020016004820180548060200260200160405190810160405280929190818152602001828054801561465557602002820191906000526020600020906000905b82829054906101000a900460010b60010b8152602001906002019060208260010104928301926001038202915080841161461e5790505b50505050508152602001600582018054806020026020016040519081016040528092919081815260200182805480156146d557602002820191906000526020600020906000905b82829054906101000a900461ffff1661ffff168152602001906002019060208260010104928301926001038202915080841161469c5790505b505050505081525050905060008290505b83516146f29084615967565b8110156148b7576000848551836147099190615b06565b8151811061471957614719615b78565b602002602001015190508260800151818151811061473957614739615b78565b602002602001015160010b7fffffffffffffffffffffffffffffffffffffffffffffffffffffffffffffffff14156147775794506118679350505050565b60008360800151828151811061478f5761478f615b78565b602002602001015160010b1380156147c7575086836080015182815181106147b9576147b9615b78565b602002602001015160010b12155b80156148145750826080015181815181106147e4576147e4615b78565b602002602001015161ffff168360a00151828151811061480657614806615b78565b602002602001015161ffff16105b156148a4578260a00151818151811061482f5761482f615b78565b602002602001015160016148439190615941565b60008a815260038c016020526040902060050180548390811061486857614868615b78565b90600052602060002090601091828204019190066002026101000a81548161ffff021916908361ffff1602179055508095505050505050611867565b50806148af81615acd565b9150506146e6565b506040517f08c379a000000000000000000000000000000000000000000000000000000000815260206004820152601c60248201527f43616e61426f784c6962234f55545f4f465f4154545249425554455300000000604482015260640161061f565b82805461492690615a2e565b90600052602060002090601f016020900481019282614948576000855561498e565b82601f1061496157805160ff191683800117855561498e565b8280016001018555821561498e579182015b8281111561498e578251825591602001919060010190614973565b5061499a92915061499e565b5090565b5b8082111561499a576000815560010161499f565b803573ffffffffffffffffffffffffffffffffffffffff811681146149d757600080fd5b919050565b60008083601f8401126149ee57600080fd5b50813567ffffffffffffffff811115614a0657600080fd5b6020830191508360208260051b8501011115614a2157600080fd5b9250929050565b600082601f830112614a3957600080fd5b81356020614a468261591d565b604051614a538282615a82565b8381528281019150858301600585901b87018401881015614a7357600080fd5b6000805b86811015614aa257823561ffff81168114614a90578283fd5b85529385019391850191600101614a77565b509198975050505050505050565b600082601f830112614ac157600080fd5b81356020614ace8261591d565b604051614adb8282615a82565b8381528281019150858301600585901b87018401881015614afb57600080fd5b60005b85811015614b1a57813584529284019290840190600101614afe565b5090979650505050505050565b600082601f830112614b3857600080fd5b813567ffffffffffffffff811115614b5257614b52615ba7565b604051614b8760207fffffffffffffffffffffffffffffffffffffffffffffffffffffffffffffffe0601f8501160182615a82565b818152846020838601011115614b9c57600080fd5b816020850160208301376000918101602001919091529392505050565b600060208284031215614bcb57600080fd5b6119f4826149b3565b60008060408385031215614be757600080fd5b614bf0836149b3565b9150614bfe602084016149b3565b90509250929050565b600080600080600060a08688031215614c1f57600080fd5b614c28866149b3565b9450614c36602087016149b3565b9350604086013567ffffffffffffffff80821115614c5357600080fd5b614c5f89838a01614ab0565b94506060880135915080821115614c7557600080fd5b614c8189838a01614ab0565b93506080880135915080821115614c9757600080fd5b50614ca488828901614b27565b9150509295509295909350565b600080600080600060a08688031215614cc957600080fd5b614cd2866149b3565b9450614ce0602087016149b3565b93506040860135925060608601359150608086013567ffffffffffffffff811115614d0a57600080fd5b614ca488828901614b27565b600080600060608486031215614d2b57600080fd5b614d34846149b3565b9250602084013567ffffffffffffffff80821115614d5157600080fd5b614d5d87838801614ab0565b93506040860135915080821115614d7357600080fd5b50614d8086828701614ab0565b9150509250925092565b60008060008060808587031215614da057600080fd5b614da9856149b3565b9350602085013567ffffffffffffffff80821115614dc657600080fd5b614dd288838901614ab0565b94506040870135915080821115614de857600080fd5b614df488838901614ab0565b93506060870135915080821115614e0a57600080fd5b50614e1787828801614b27565b91505092959194509250565b60008060408385031215614e3657600080fd5b614e3f836149b3565b915060208301358015158114614e5457600080fd5b809150509250929050565b600080600080600060808688031215614e7757600080fd5b614e80866149b3565b9450602086013567ffffffffffffffff80821115614e9d57600080fd5b818801915088601f830112614eb157600080fd5b813581811115614ec057600080fd5b896020828501011115614ed257600080fd5b60208301965080955050604088013593506060880135915080821115614c9757600080fd5b60008060408385031215614f0a57600080fd5b614f13836149b3565b946020939093013593505050565b600080600060608486031215614f3657600080fd5b614f3f846149b3565b95602085013595506040909401359392505050565b60008060008060808587031215614f6a57600080fd5b614f73856149b3565b93506020850135925060408501359150606085013567ffffffffffffffff811115614f9d57600080fd5b614e1787828801614b27565b60008060008060808587031215614fbf57600080fd5b614fc8856149b3565b966020860135965060408601359560600135945092505050565b60008060408385031215614ff557600080fd5b823567ffffffffffffffff8082111561500d57600080fd5b818501915085601f83011261502157600080fd5b8135602061502e8261591d565b60405161503b8282615a82565b8381528281019150858301600585901b870184018b101561505b57600080fd5b600096505b8487101561508557615071816149b3565b835260019690960195918301918301615060565b509650508601359250508082111561509c57600080fd5b506150a985828601614ab0565b9150509250929050565b600080602083850312156150c657600080fd5b823567ffffffffffffffff8111156150dd57600080fd5b6150e9858286016149dc565b90969095509350505050565b6000806000806040858703121561510b57600080fd5b843567ffffffffffffffff8082111561512357600080fd5b61512f888389016149dc565b9096509450602087013591508082111561514857600080fd5b50615155878288016149dc565b95989497509550505050565b60006020828403121561517357600080fd5b81356119f481615c9a565b60006020828403121561519057600080fd5b81516119f481615c9a565b6000602082840312156151ad57600080fd5b813567ffffffffffffffff8111156151c457600080fd5b61186784828501614b27565b6000602082840312156151e257600080fd5b5035919050565b6000602082840312156151fb57600080fd5b5051919050565b60008060006060848603121561521757600080fd5b83359250615227602085016149b3565b9150604084013590509250925092565b6000806040838503121561524a57600080fd5b82359150602083013567ffffffffffffffff81111561526857600080fd5b6150a985828601614b27565b6000806040838503121561528757600080fd5b50508035926020909101359150565b600080600080600060a086880312156152ae57600080fd5b853594506020808701359450604087013567ffffffffffffffff808211156152d557600080fd5b6152e18a838b01614a28565b955060608901359150808211156152f757600080fd5b6153038a838b01614a28565b9450608089013591508082111561531957600080fd5b508701601f8101891361532b57600080fd5b80356153368161591d565b6040516153438282615a82565b8281528481019150838501600584901b850186018d101561536357600080fd5b60009450845b848110156153935781358060010b8114615381578687fd5b84529286019290860190600101615369565b505080955050505050509295509295909350565b6000806000606084860312156153bc57600080fd5b8335925060208401359150604084013567ffffffffffffffff8111156153e157600080fd5b614d8086828701614ab0565b600081518084526020808501945080840160005b8381101561542157815161ffff1687529582019590820190600101615401565b509495945050505050565b600081518084526020808501945080840160005b8381101561542157815187529582019590820190600101615440565b600081518084526154748160208601602086016159cd565b601f017fffffffffffffffffffffffffffffffffffffffffffffffffffffffffffffffe0169290920160200192915050565b600081516154b88185602086016159cd565b9290920192915050565b600082516154d48184602087016159cd565b9190910192915050565b600080845481600182811c9150808316806154fa57607f831692505b6020808410821415615533577f4e487b710000000000000000000000000000000000000000000000000000000086526022600452602486fd5b8180156155475760018114615576576155a3565b7fffffffffffffffffffffffffffffffffffffffffffffffffffffffffffffff008616895284890196506155a3565b60008b81526020902060005b8681101561559b5781548b820152908501908301615582565b505084890196505b5050505050506155b381856154a6565b95945050505050565b7f6372656174653a746f6b656e5f69645f65786973743a200000000000000000008152600082516155f48160178501602087016159cd565b9190910160170192915050565b600073ffffffffffffffffffffffffffffffffffffffff808816835280871660208401525060a0604083015261563a60a083018661542c565b828103606084015261564c818661542c565b90508281036080840152615660818561545c565b98975050505050505050565b600073ffffffffffffffffffffffffffffffffffffffff808816835280871660208401525084604083015283606083015260a060808301526156b160a083018461545c565b979650505050505050565b6000602080830181845280855180835260408601915060408160051b870101925083870160005b8281101561572f577fffffffffffffffffffffffffffffffffffffffffffffffffffffffffffffffc088860301845261571d85835161545c565b945092850192908501906001016156e3565b5092979650505050505050565b6020815260006119f4602083018461542c565b604081526000615762604083018561542c565b82810360208401526155b3818561542c565b6020815260006119f4602083018461545c565b86815260006020878184015286604084015260c060608401526157ad60c08401876153ed565b83810360808501526157bf81876153ed565b84810360a0860152855180825283870192509083019060005b818110156157f7578351600190810b84529385019392850192016157d8565b50909b9a5050505050505050505050565b600060808201868352602086818501528560408501526080606085015281855180845260a086019150828701935060005b8181101561585557845183529383019391830191600101615839565b50909998505050505050505050565b83815260406020820152816040820152818360608301376000818301606090810191909152601f9092017fffffffffffffffffffffffffffffffffffffffffffffffffffffffffffffffe016010192915050565b60008083357fffffffffffffffffffffffffffffffffffffffffffffffffffffffffffffffe18436030181126158ed57600080fd5b83018035915067ffffffffffffffff82111561590857600080fd5b602001915036819003821315614a2157600080fd5b600067ffffffffffffffff82111561593757615937615ba7565b5060051b60200190565b600061ffff80831681851680830382111561595e5761595e615b1a565b01949350505050565b6000821982111561597a5761597a615b1a565b500190565b60008261598e5761598e615b49565b500490565b600061ffff838116908316818110156159ae576159ae615b1a565b039392505050565b6000828210156159c8576159c8615b1a565b500390565b60005b838110156159e85781810151838201526020016159d0565b83811115610a405750506000910152565b600081615a0857615a08615b1a565b507fffffffffffffffffffffffffffffffffffffffffffffffffffffffffffffffff0190565b600181811c90821680615a4257607f821691505b60208210811415615a7c577f4e487b7100000000000000000000000000000000000000000000000000000000600052602260045260246000fd5b50919050565b7fffffffffffffffffffffffffffffffffffffffffffffffffffffffffffffffe0601f830116810181811067ffffffffffffffff82111715615ac657615ac6615ba7565b6040525050565b60007fffffffffffffffffffffffffffffffffffffffffffffffffffffffffffffffff821415615aff57615aff615b1a565b5060010190565b600082615b1557615b15615b49565b500690565b7f4e487b7100000000000000000000000000000000000000000000000000000000600052601160045260246000fd5b7f4e487b7100000000000000000000000000000000000000000000000000000000600052601260045260246000fd5b7f4e487b7100000000000000000000000000000000000000000000000000000000600052603260045260246000fd5b7f4e487b7100000000000000000000000000000000000000000000000000000000600052604160045260246000fd5b600060033d1115615bef5760046000803e5060005160e01c5b90565b600060443d1015615c005790565b6040517ffffffffffffffffffffffffffffffffffffffffffffffffffffffffffffffffc803d016004833e81513d67ffffffffffffffff8160248401118184111715615c4e57505050505090565b8285019150815181811115615c665750505050505090565b843d8701016020828501011115615c805750505050505090565b615c8f60208286010187615a82565b509095945050505050565b7fffffffff00000000000000000000000000000000000000000000000000000000811681146106f357600080fdfe416464726573733a206c6f772d6c6576656c2064656c65676174652063616c6c206661696c6564a26469706673582212208a3f656d7411e02781d007425ad1024a4f37826b58337534d76da619860bcdd164736f6c63430008060033",
  "linkReferences": {
    "contracts/nft/CanaBoxLib.sol": {
      "CanaBoxLib": [
        {
          "length": 20,
          "start": 3414
        },
        {
          "length": 20,
          "start": 4350
        },
        {
          "length": 20,
          "start": 6983
        }
      ]
    }
  },
  "deployedLinkReferences": {
    "contracts/nft/CanaBoxLib.sol": {
      "CanaBoxLib": [
        {
          "length": 20,
          "start": 2855
        },
        {
          "length": 20,
          "start": 3791
        },
        {
          "length": 20,
          "start": 6424
        }
      ]
    }
  }
}