{
  "_format": "hh-sol-artifact-1",
  "contractName": "UniswapRouterMock",
  "sourceName": "contracts/metacana/mocks/UniswapRouterMock.sol",
  "abi": [
    {
      "inputs": [
        {
          "internalType": "address",
          "name": "token",
          "type": "address"
        },
        {
          "internalType": "uint256",
          "name": "amountTokenDesired",
          "type": "uint256"
        },
        {
          "internalType": "uint256",
          "name": "amountTokenMin",
          "type": "uint256"
        },
        {
          "internalType": "uint256",
          "name": "amountETHMin",
          "type": "uint256"
        },
        {
          "internalType": "address",
          "name": "to",
          "type": "address"
        },
        {
          "internalType": "uint256",
          "name": "deadline",
          "type": "uint256"
        }
      ],
      "name": "addLiquidityETH",
      "outputs": [
        {
          "internalType": "uint256",
          "name": "amountToken",
          "type": "uint256"
        },
        {
          "internalType": "uint256",
          "name": "amountETH",
          "type": "uint256"
        },
        {
          "internalType": "uint256",
          "name": "liquidity",
          "type": "uint256"
        }
      ],
      "stateMutability": "payable",
      "type": "function"
    }
  ],
  "bytecode": "0x608060405234801561001057600080fd5b5061019f806100206000396000f3fe60806040526004361061001e5760003560e01c8063f305d71914610023575b600080fd5b61003661003136600461009a565b61004e565b604051610045939291906100f1565b60405180910390f35b60008080868661005f816002610107565b92509250925096509650969350505050565b803573ffffffffffffffffffffffffffffffffffffffff8116811461009557600080fd5b919050565b60008060008060008060c087890312156100b2578182fd5b6100bb87610071565b95506020870135945060408701359350606087013592506100de60808801610071565b915060a087013590509295509295509295565b9283526020830191909152604082015260600190565b6000817fffffffffffffffffffffffffffffffffffffffffffffffffffffffffffffffff0483118215151615610164577f4e487b710000000000000000000000000000000000000000000000000000000081526011600452602481fd5b50029056fea2646970667358221220f19a9537a497fb97b69ef3f49f589b8f5d617ed495404155a5a2ba92bdb07ca764736f6c63430008000033",
  "linkReferences": {},
  "deployedLinkReferences": {}
}