{
  "_format": "hh-sol-artifact-1",
  "contractName": "Pausable",
  "sourceName": "contracts/metacana/Pausable.sol",
  "abi": [
    {
      "inputs": [],
      "stateMutability": "nonpayable",
      "type": "constructor"
    },
    {
      "anonymous": false,
      "inputs": [
        {
          "indexed": true,
          "internalType": "address",
          "name": "previousOwner",
          "type": "address"
        },
        {
          "indexed": true,
          "internalType": "address",
          "name": "newOwner",
          "type": "address"
        }
      ],
      "name": "OwnershipTransferred",
      "type": "event"
    },
    {
      "inputs": [],
      "name": "owner",
      "outputs": [
        {
          "internalType": "address",
          "name": "",
          "type": "address"
        }
      ],
      "stateMutability": "view",
      "type": "function"
    },
    {
      "inputs": [],
      "name": "paused",
      "outputs": [
        {
          "internalType": "bool",
          "name": "",
          "type": "bool"
        }
      ],
      "stateMutability": "view",
      "type": "function"
    },
    {
      "inputs": [],
      "name": "pauser",
      "outputs": [
        {
          "internalType": "address",
          "name": "",
          "type": "address"
        }
      ],
      "stateMutability": "view",
      "type": "function"
    },
    {
      "inputs": [],
      "name": "renounceOwnership",
      "outputs": [],
      "stateMutability": "nonpayable",
      "type": "function"
    },
    {
      "inputs": [
        {
          "internalType": "address",
          "name": "newPauser",
          "type": "address"
        }
      ],
      "name": "setPauser",
      "outputs": [],
      "stateMutability": "nonpayable",
      "type": "function"
    },
    {
      "inputs": [
        {
          "internalType": "address",
          "name": "newOwner",
          "type": "address"
        }
      ],
      "name": "transferOwnership",
      "outputs": [],
      "stateMutability": "nonpayable",
      "type": "function"
    }
  ],
  "bytecode": "0x608060405234801561001057600080fd5b5061002161001c61008b565b61008f565b600180547fffffffffffffffffffffff00ffffffffffffffffffffffffffffffffffffffff7fffffffffffffffffffffffff000000000000000000000000000000000000000090911633171674010000000000000000000000000000000000000000179055610104565b3390565b6000805473ffffffffffffffffffffffffffffffffffffffff8381167fffffffffffffffffffffffff0000000000000000000000000000000000000000831681178455604051919092169283917f8be0079c531659141344cd1fd0a4f28419497f9722a3daafe3b4186f6b6457e09190a35050565b61066d806101136000396000f3fe608060405234801561001057600080fd5b50600436106100725760003560e01c80638da5cb5b116100505780638da5cb5b146100b25780639fd0506d146100c7578063f2fde38b146100cf57610072565b80632d88af4a146100775780635c975abb1461008c578063715018a6146100aa575b600080fd5b61008a61008536600461045e565b6100e2565b005b610094610241565b6040516100a191906104ba565b60405180910390f35b61008a610262565b6100ba6102e1565b6040516100a19190610499565b6100ba6102fd565b61008a6100dd36600461045e565b610319565b6100ea6103e5565b73ffffffffffffffffffffffffffffffffffffffff166101086102e1565b73ffffffffffffffffffffffffffffffffffffffff161461015e576040517f08c379a00000000000000000000000000000000000000000000000000000000081526004016101559061057f565b60405180910390fd5b73ffffffffffffffffffffffffffffffffffffffff81166101ab576040517f08c379a000000000000000000000000000000000000000000000000000000000815260040161015590610522565b60015473ffffffffffffffffffffffffffffffffffffffff166101fa576040517f08c379a0000000000000000000000000000000000000000000000000000000008152600401610155906105b4565b600180547fffffffffffffffffffffffff00000000000000000000000000000000000000001673ffffffffffffffffffffffffffffffffffffffff92909216919091179055565b60015474010000000000000000000000000000000000000000900460ff1681565b61026a6103e5565b73ffffffffffffffffffffffffffffffffffffffff166102886102e1565b73ffffffffffffffffffffffffffffffffffffffff16146102d5576040517f08c379a00000000000000000000000000000000000000000000000000000000081526004016101559061057f565b6102df60006103e9565b565b60005473ffffffffffffffffffffffffffffffffffffffff1690565b60015473ffffffffffffffffffffffffffffffffffffffff1681565b6103216103e5565b73ffffffffffffffffffffffffffffffffffffffff1661033f6102e1565b73ffffffffffffffffffffffffffffffffffffffff161461038c576040517f08c379a00000000000000000000000000000000000000000000000000000000081526004016101559061057f565b73ffffffffffffffffffffffffffffffffffffffff81166103d9576040517f08c379a0000000000000000000000000000000000000000000000000000000008152600401610155906104c5565b6103e2816103e9565b50565b3390565b6000805473ffffffffffffffffffffffffffffffffffffffff8381167fffffffffffffffffffffffff0000000000000000000000000000000000000000831681178455604051919092169283917f8be0079c531659141344cd1fd0a4f28419497f9722a3daafe3b4186f6b6457e09190a35050565b60006020828403121561046f578081fd5b813573ffffffffffffffffffffffffffffffffffffffff81168114610492578182fd5b9392505050565b73ffffffffffffffffffffffffffffffffffffffff91909116815260200190565b901515815260200190565b60208082526026908201527f4f776e61626c653a206e6577206f776e657220697320746865207a65726f206160408201527f6464726573730000000000000000000000000000000000000000000000000000606082015260800190565b60208082526028908201527f5061757361626c653a206e657750617573657220697320746865207a65726f2060408201527f616464726573732e000000000000000000000000000000000000000000000000606082015260800190565b6020808252818101527f4f776e61626c653a2063616c6c6572206973206e6f7420746865206f776e6572604082015260600190565b6020808252604d908201527f5061757361626c653a205061757365722072696768747320686176652062656560408201527f6e206275726e742e2049742773206e6f206c6f6e6765722061626c6520746f2060608201527f736574206e657750617573657200000000000000000000000000000000000000608082015260a0019056fea26469706673582212200eedf8a844560dd256b6639ce67e59e0bebc9f9d5b9796527e737338d218841f64736f6c63430008000033",
  "linkReferences": {},
  "deployedLinkReferences": {}
}