{
  "_format": "hh-sol-artifact-1",
  "contractName": "DelayedOwner",
  "sourceName": "contracts/utils/DelayedOwner.sol",
  "abi": [
    {
      "inputs": [
        {
          "internalType": "uint256",
          "name": "_delay",
          "type": "uint256"
        }
      ],
      "stateMutability": "nonpayable",
      "type": "constructor"
    },
    {
      "anonymous": false,
      "inputs": [
        {
          "indexed": true,
          "internalType": "address",
          "name": "previousOwner",
          "type": "address"
        },
        {
          "indexed": true,
          "internalType": "address",
          "name": "newOwner",
          "type": "address"
        }
      ],
      "name": "OwnershipTransferred",
      "type": "event"
    },
    {
      "anonymous": false,
      "inputs": [
        {
          "components": [
            {
              "internalType": "enum DelayedOwner.Status",
              "name": "status",
              "type": "uint8"
            },
            {
              "internalType": "uint256",
              "name": "triggerTime",
              "type": "uint256"
            },
            {
              "internalType": "address",
              "name": "target",
              "type": "address"
            },
            {
              "internalType": "uint256",
              "name": "id",
              "type": "uint256"
            },
            {
              "internalType": "bytes",
              "name": "data",
              "type": "bytes"
            }
          ],
          "indexed": false,
          "internalType": "struct DelayedOwner.Transaction",
          "name": "transaction",
          "type": "tuple"
        }
      ],
      "name": "TransactionCancelled",
      "type": "event"
    },
    {
      "anonymous": false,
      "inputs": [
        {
          "components": [
            {
              "internalType": "enum DelayedOwner.Status",
              "name": "status",
              "type": "uint8"
            },
            {
              "internalType": "uint256",
              "name": "triggerTime",
              "type": "uint256"
            },
            {
              "internalType": "address",
              "name": "target",
              "type": "address"
            },
            {
              "internalType": "uint256",
              "name": "id",
              "type": "uint256"
            },
            {
              "internalType": "bytes",
              "name": "data",
              "type": "bytes"
            }
          ],
          "indexed": false,
          "internalType": "struct DelayedOwner.Transaction",
          "name": "transaction",
          "type": "tuple"
        }
      ],
      "name": "TransactionExecuted",
      "type": "event"
    },
    {
      "anonymous": false,
      "inputs": [
        {
          "components": [
            {
              "internalType": "enum DelayedOwner.Status",
              "name": "status",
              "type": "uint8"
            },
            {
              "internalType": "uint256",
              "name": "triggerTime",
              "type": "uint256"
            },
            {
              "internalType": "address",
              "name": "target",
              "type": "address"
            },
            {
              "internalType": "uint256",
              "name": "id",
              "type": "uint256"
            },
            {
              "internalType": "bytes",
              "name": "data",
              "type": "bytes"
            }
          ],
          "indexed": false,
          "internalType": "struct DelayedOwner.Transaction",
          "name": "transaction",
          "type": "tuple"
        }
      ],
      "name": "TransactionRegistered",
      "type": "event"
    },
    {
      "inputs": [
        {
          "components": [
            {
              "internalType": "enum DelayedOwner.Status",
              "name": "status",
              "type": "uint8"
            },
            {
              "internalType": "uint256",
              "name": "triggerTime",
              "type": "uint256"
            },
            {
              "internalType": "address",
              "name": "target",
              "type": "address"
            },
            {
              "internalType": "uint256",
              "name": "id",
              "type": "uint256"
            },
            {
              "internalType": "bytes",
              "name": "data",
              "type": "bytes"
            }
          ],
          "internalType": "struct DelayedOwner.Transaction",
          "name": "_tx",
          "type": "tuple"
        }
      ],
      "name": "cancel",
      "outputs": [],
      "stateMutability": "nonpayable",
      "type": "function"
    },
    {
      "inputs": [
        {
          "components": [
            {
              "internalType": "enum DelayedOwner.Status",
              "name": "status",
              "type": "uint8"
            },
            {
              "internalType": "uint256",
              "name": "triggerTime",
              "type": "uint256"
            },
            {
              "internalType": "address",
              "name": "target",
              "type": "address"
            },
            {
              "internalType": "uint256",
              "name": "id",
              "type": "uint256"
            },
            {
              "internalType": "bytes",
              "name": "data",
              "type": "bytes"
            }
          ],
          "internalType": "struct DelayedOwner.Transaction",
          "name": "_tx",
          "type": "tuple"
        }
      ],
      "name": "execute",
      "outputs": [],
      "stateMutability": "nonpayable",
      "type": "function"
    },
    {
      "inputs": [
        {
          "components": [
            {
              "internalType": "enum DelayedOwner.Status",
              "name": "status",
              "type": "uint8"
            },
            {
              "internalType": "uint256",
              "name": "triggerTime",
              "type": "uint256"
            },
            {
              "internalType": "address",
              "name": "target",
              "type": "address"
            },
            {
              "internalType": "uint256",
              "name": "id",
              "type": "uint256"
            },
            {
              "internalType": "bytes",
              "name": "data",
              "type": "bytes"
            }
          ],
          "internalType": "struct DelayedOwner.Transaction",
          "name": "_tx",
          "type": "tuple"
        }
      ],
      "name": "isValidWitness",
      "outputs": [
        {
          "internalType": "bool",
          "name": "isValid",
          "type": "bool"
        }
      ],
      "stateMutability": "view",
      "type": "function"
    },
    {
      "inputs": [],
      "name": "owner",
      "outputs": [
        {
          "internalType": "address",
          "name": "",
          "type": "address"
        }
      ],
      "stateMutability": "view",
      "type": "function"
    },
    {
      "inputs": [
        {
          "components": [
            {
              "internalType": "enum DelayedOwner.Status",
              "name": "status",
              "type": "uint8"
            },
            {
              "internalType": "uint256",
              "name": "triggerTime",
              "type": "uint256"
            },
            {
              "internalType": "address",
              "name": "target",
              "type": "address"
            },
            {
              "internalType": "uint256",
              "name": "id",
              "type": "uint256"
            },
            {
              "internalType": "bytes",
              "name": "data",
              "type": "bytes"
            }
          ],
          "internalType": "struct DelayedOwner.Transaction",
          "name": "_tx",
          "type": "tuple"
        }
      ],
      "name": "register",
      "outputs": [],
      "stateMutability": "nonpayable",
      "type": "function"
    },
    {
      "inputs": [],
      "name": "renounceOwnership",
      "outputs": [],
      "stateMutability": "nonpayable",
      "type": "function"
    },
    {
      "inputs": [
        {
          "internalType": "address",
          "name": "newOwner",
          "type": "address"
        }
      ],
      "name": "transferOwnership",
      "outputs": [],
      "stateMutability": "nonpayable",
      "type": "function"
    },
    {
      "inputs": [
        {
          "internalType": "uint256",
          "name": "",
          "type": "uint256"
        }
      ],
      "name": "txHashes",
      "outputs": [
        {
          "internalType": "bytes32",
          "name": "",
          "type": "bytes32"
        }
      ],
      "stateMutability": "view",
      "type": "function"
    }
  ],
  "bytecode": "0x60a060405234801561001057600080fd5b5060405161106338038061106383398101604081905261002f916100c0565b61003f61003a610047565b61004b565b6080526100d8565b3390565b6000805473ffffffffffffffffffffffffffffffffffffffff8381167fffffffffffffffffffffffff0000000000000000000000000000000000000000831681178455604051919092169283917f8be0079c531659141344cd1fd0a4f28419497f9722a3daafe3b4186f6b6457e09190a35050565b6000602082840312156100d1578081fd5b5051919050565b608051610f706100f360003960006106000152610f706000f3fe608060405234801561001057600080fd5b50600436106100885760003560e01c80638da5cb5b1161005b5780638da5cb5b146100d05780638ee00b01146100ee578063bbd7be311461010e578063f2fde38b1461012e57610088565b80630b8d6f891461008d57806313c03236146100a25780633a571f30146100b5578063715018a6146100c8575b600080fd5b6100a061009b366004610a17565b610141565b005b6100a06100b0366004610a17565b61037f565b6100a06100c3366004610a17565b61053c565b6100a06106c2565b6100d8610741565b6040516100e59190610b00565b60405180910390f35b6101016100fc366004610a17565b61075d565b6040516100e59190610b21565b61012161011c366004610acc565b6107c1565b6040516100e59190610b2c565b6100a061013c3660046109fd565b6107d3565b8061014b8161075d565b61018a576040517f08c379a000000000000000000000000000000000000000000000000000000000815260040161018190610cde565b60405180910390fd5b6001825160038111156101c6577f4e487b7100000000000000000000000000000000000000000000000000000000600052602160045260246000fd5b146101fd576040517f08c379a000000000000000000000000000000000000000000000000000000000815260040161018190610bc7565b428260200151111561023b576040517f08c379a000000000000000000000000000000000000000000000000000000000815260040161018190610c81565b60028252604051610250908390602001610dcf565b604080517fffffffffffffffffffffffffffffffffffffffffffffffffffffffffffffffe0818403018152828252805160209182012060608601516000908152600190925282822055908401516080850151919273ffffffffffffffffffffffffffffffffffffffff909116916102c691610ae4565b6000604051808303816000865af19150503d8060008114610303576040519150601f19603f3d011682016040523d82523d6000602084013e610308565b606091505b5050905080610343576040517f08c379a000000000000000000000000000000000000000000000000000000000815260040161018190610d98565b7fc1936d3995bdc418e1e0e60366379b2c6d2ac93f3450b5c7e7ec73251ae7cae8836040516103729190610dcf565b60405180910390a1505050565b61038761089f565b73ffffffffffffffffffffffffffffffffffffffff166103a5610741565b73ffffffffffffffffffffffffffffffffffffffff16146103f2576040517f08c379a000000000000000000000000000000000000000000000000000000000815260040161018190610b92565b806103fc8161075d565b610432576040517f08c379a000000000000000000000000000000000000000000000000000000000815260040161018190610cde565b60018251600381111561046e577f4e487b7100000000000000000000000000000000000000000000000000000000600052602160045260246000fd5b146104a5576040517f08c379a000000000000000000000000000000000000000000000000000000000815260040161018190610d3b565b600382526040516104ba908390602001610dcf565b604080517fffffffffffffffffffffffffffffffffffffffffffffffffffffffffffffffe08184030181528282528051602091820120606086015160009081526001909252919020557f9422f7a065bb451f342bdeef1b3d7e28d7fc46cbf354810a5fe9564f4b12b7f390610530908490610dcf565b60405180910390a15050565b61054461089f565b73ffffffffffffffffffffffffffffffffffffffff16610562610741565b73ffffffffffffffffffffffffffffffffffffffff16146105af576040517f08c379a000000000000000000000000000000000000000000000000000000000815260040161018190610b92565b6060810151600090815260016020526040902054156105fa576040517f08c379a000000000000000000000000000000000000000000000000000000000815260040161018190610c24565b610624427f00000000000000000000000000000000000000000000000000000000000000006108a3565b602082015260018181905250604051610641908290602001610dcf565b604080517fffffffffffffffffffffffffffffffffffffffffffffffffffffffffffffffe08184030181528282528051602091820120606085015160009081526001909252919020557fbdd51b76bdd72264a2947da4c06802cec9e1c1dad4d5edb21050139962e9c603906106b7908390610dcf565b60405180910390a150565b6106ca61089f565b73ffffffffffffffffffffffffffffffffffffffff166106e8610741565b73ffffffffffffffffffffffffffffffffffffffff1614610735576040517f08c379a000000000000000000000000000000000000000000000000000000000815260040161018190610b92565b61073f60006108b6565b565b60005473ffffffffffffffffffffffffffffffffffffffff1690565b6000816040516020016107709190610dcf565b604080517fffffffffffffffffffffffffffffffffffffffffffffffffffffffffffffffe081840301815291815281516020928301206060850151600090815260019093529120541490505b919050565b60016020526000908152604090205481565b6107db61089f565b73ffffffffffffffffffffffffffffffffffffffff166107f9610741565b73ffffffffffffffffffffffffffffffffffffffff1614610846576040517f08c379a000000000000000000000000000000000000000000000000000000000815260040161018190610b92565b73ffffffffffffffffffffffffffffffffffffffff8116610893576040517f08c379a000000000000000000000000000000000000000000000000000000000815260040161018190610b35565b61089c816108b6565b50565b3390565b60006108af8284610e9e565b9392505050565b6000805473ffffffffffffffffffffffffffffffffffffffff8381167fffffffffffffffffffffffff0000000000000000000000000000000000000000831681178455604051919092169283917f8be0079c531659141344cd1fd0a4f28419497f9722a3daafe3b4186f6b6457e09190a35050565b803573ffffffffffffffffffffffffffffffffffffffff811681146107bc57600080fd5b600082601f83011261095f578081fd5b813567ffffffffffffffff8082111561097a5761097a610f0b565b60405160207fffffffffffffffffffffffffffffffffffffffffffffffffffffffffffffffe0601f85011682010181811083821117156109bc576109bc610f0b565b6040528281528483016020018610156109d3578384fd5b82602086016020830137918201602001929092529392505050565b8035600481106107bc57600080fd5b600060208284031215610a0e578081fd5b6108af8261092b565b600060208284031215610a28578081fd5b813567ffffffffffffffff80821115610a3f578283fd5b9083019060a08286031215610a52578283fd5b60405160a081018181108382111715610a6d57610a6d610f0b565b604052610a79836109ee565b815260208301356020820152610a916040840161092b565b604082015260608301356060820152608083013582811115610ab1578485fd5b610abd8782860161094f565b60808301525095945050505050565b600060208284031215610add578081fd5b5035919050565b60008251610af6818460208701610edb565b9190910192915050565b73ffffffffffffffffffffffffffffffffffffffff91909116815260200190565b901515815260200190565b90815260200190565b60208082526026908201527f4f776e61626c653a206e6577206f776e657220697320746865207a65726f206160408201527f6464726573730000000000000000000000000000000000000000000000000000606082015260800190565b6020808252818101527f4f776e61626c653a2063616c6c6572206973206e6f7420746865206f776e6572604082015260600190565b60208082526024908201527f44656c617965644f776e657223657865637574653a2054585f4e4f545f50454e60408201527f44494e4700000000000000000000000000000000000000000000000000000000606082015260800190565b6020808252602c908201527f44656c617965644f776e65722372656769737465723a2054585f414c5245414460408201527f595f524547495354455245440000000000000000000000000000000000000000606082015260800190565b6020808252602a908201527f44656c617965644f776e6523657865637574653a2054585f4e4f545f5945545f60408201527f45584543555441424c4500000000000000000000000000000000000000000000606082015260800190565b60208082526033908201527f44656c617965644f776e6572236f6e6c7956616c69645769746e65737365733a60408201527f20494e56414c49445f54585f5749544e45535300000000000000000000000000606082015260800190565b60208082526023908201527f44656c617965644f776e65722363616e63656c3a2054585f4e4f545f50454e4460408201527f494e470000000000000000000000000000000000000000000000000000000000606082015260800190565b6020808252601f908201527f44656c617965644f776e657223657865637574653a2054585f4641494c454400604082015260600190565b600060208252825160048110610e0c577f4e487b710000000000000000000000000000000000000000000000000000000082526021600452602482fd5b806020840152506020830151604083015273ffffffffffffffffffffffffffffffffffffffff604084015116606083015260608301516080830152608083015160a08084015280518060c0850152610e6b8160e0860160208501610edb565b601f017fffffffffffffffffffffffffffffffffffffffffffffffffffffffffffffffe0169290920160e0019392505050565b60008219821115610ed6577f4e487b710000000000000000000000000000000000000000000000000000000081526011600452602481fd5b500190565b60005b83811015610ef6578181015183820152602001610ede565b83811115610f05576000848401525b50505050565b7f4e487b7100000000000000000000000000000000000000000000000000000000600052604160045260246000fdfea26469706673582212201d208b959e63d88f143a0f6ad006d4b19c8030108339fc0b544561c3c77a074364736f6c63430008000033",
  "linkReferences": {},
  "deployedLinkReferences": {}
}