{
  "_format": "hh-sol-artifact-1",
  "contractName": "NeverStakeStrategy",
  "sourceName": "contracts/pools/test/NeverStakeStrategy.sol",
  "abi": [
    {
      "inputs": [
        {
          "internalType": "address",
          "name": "account",
          "type": "address"
        }
      ],
      "name": "canStake",
      "outputs": [
        {
          "internalType": "bool",
          "name": "",
          "type": "bool"
        }
      ],
      "stateMutability": "nonpayable",
      "type": "function"
    }
  ],
  "bytecode": "0x608060405234801561001057600080fd5b5060d08061001f6000396000f3fe6080604052348015600f57600080fd5b506004361060285760003560e01c806336d8bf9314602d575b600080fd5b603c60383660046056565b6050565b60405160479190608f565b60405180910390f35b50600090565b6000602082840312156066578081fd5b813573ffffffffffffffffffffffffffffffffffffffff811681146088578182fd5b9392505050565b90151581526020019056fea2646970667358221220ed92884016601f2ae8dae983c3a4f5aa21b04a9b23b9ca4f941d603d3d1b86fb64736f6c63430008000033",
  "linkReferences": {},
  "deployedLinkReferences": {}
}