{
  "_format": "hh-sol-artifact-1",
  "contractName": "UniswapFactoryMock",
  "sourceName": "contracts/metacana/mocks/UniswapFactoryMock.sol",
  "abi": [
    {
      "inputs": [
        {
          "internalType": "address",
          "name": "_uniswapPool",
          "type": "address"
        }
      ],
      "stateMutability": "nonpayable",
      "type": "constructor"
    },
    {
      "inputs": [
        {
          "internalType": "address",
          "name": "tokenA",
          "type": "address"
        },
        {
          "internalType": "address",
          "name": "tokenB",
          "type": "address"
        }
      ],
      "name": "createPair",
      "outputs": [
        {
          "internalType": "address",
          "name": "pair",
          "type": "address"
        }
      ],
      "stateMutability": "nonpayable",
      "type": "function"
    },
    {
      "inputs": [],
      "name": "uniswapPool",
      "outputs": [
        {
          "internalType": "address",
          "name": "",
          "type": "address"
        }
      ],
      "stateMutability": "view",
      "type": "function"
    }
  ],
  "bytecode": "0x608060405234801561001057600080fd5b506040516101983803806101988339818101604052602081101561003357600080fd5b50516000805473ffffffffffffffffffffffffffffffffffffffff9092167fffffffffffffffffffffffff000000000000000000000000000000000000000090921691909117905561010e8061008a6000396000f3fe6080604052348015600f57600080fd5b506004361060325760003560e01c8063bdd3d825146037578063c9c65396146066575b600080fd5b603d609e565b6040805173ffffffffffffffffffffffffffffffffffffffff9092168252519081900360200190f35b603d60048036036040811015607a57600080fd5b5073ffffffffffffffffffffffffffffffffffffffff8135811691602001351660ba565b60005473ffffffffffffffffffffffffffffffffffffffff1681565b505060005473ffffffffffffffffffffffffffffffffffffffff169056fea264697066735822122023e74f4488b95c40f56f184db61cfc94586fba15966b64ff515164e6366818fa64736f6c63430007040033",
  "linkReferences": {},
  "deployedLinkReferences": {}
}